{
	"solidity/homework/mappingtest.sol": {
		"mappingTest": {
			"abi": [
				{
					"inputs": [
						{
							"internalType": "address",
							"name": "addr",
							"type": "address"
						},
						{
							"internalType": "string",
							"name": "hisop",
							"type": "string"
						}
					],
					"name": "addhisop",
					"outputs": [],
					"stateMutability": "nonpayable",
					"type": "function"
				},
				{
					"inputs": [
						{
							"internalType": "uint256",
							"name": "amount",
							"type": "uint256"
						}
					],
					"name": "des",
					"outputs": [],
					"stateMutability": "payable",
					"type": "function"
				},
				{
					"inputs": [
						{
							"internalType": "address",
							"name": "addr",
							"type": "address"
						}
					],
					"name": "getbalance",
					"outputs": [
						{
							"internalType": "uint256",
							"name": "balance",
							"type": "uint256"
						}
					],
					"stateMutability": "view",
					"type": "function"
				},
				{
					"inputs": [
						{
							"internalType": "address",
							"name": "addr",
							"type": "address"
						}
					],
					"name": "gethisop",
					"outputs": [
						{
							"internalType": "string[]",
							"name": "",
							"type": "string[]"
						}
					],
					"stateMutability": "view",
					"type": "function"
				}
			],
			"devdoc": {
				"kind": "dev",
				"methods": {},
				"version": 1
			},
			"evm": {
				"assembly": "    /* \"solidity/homework/mappingtest.sol\":58:642  contract mappingTest{... */\n  mstore(0x40, 0x80)\n  callvalue\n  dup1\n  iszero\n  tag_1\n  jumpi\n  0x00\n  dup1\n  revert\ntag_1:\n  pop\n  dataSize(sub_0)\n  dup1\n  dataOffset(sub_0)\n  0x00\n  codecopy\n  0x00\n  return\nstop\n\nsub_0: assembly {\n        /* \"solidity/homework/mappingtest.sol\":58:642  contract mappingTest{... */\n      mstore(0x40, 0x80)\n      jumpi(tag_1, lt(calldatasize, 0x04))\n      shr(0xe0, calldataload(0x00))\n      dup1\n      0x110ab068\n      eq\n      tag_2\n      jumpi\n      dup1\n      0x68116177\n      eq\n      tag_3\n      jumpi\n      dup1\n      0xb2a36319\n      eq\n      tag_4\n      jumpi\n      dup1\n      0xc8f00c9f\n      eq\n      tag_5\n      jumpi\n    tag_1:\n      0x00\n      dup1\n      revert\n        /* \"solidity/homework/mappingtest.sol\":530:639  function gethisop(address addr) public view returns(string[] memory){... */\n    tag_2:\n      callvalue\n      dup1\n      iszero\n      tag_6\n      jumpi\n      0x00\n      dup1\n      revert\n    tag_6:\n      pop\n      tag_7\n      0x04\n      dup1\n      calldatasize\n      sub\n      dup2\n      add\n      swap1\n      tag_8\n      swap2\n      swap1\n      tag_9\n      jump\t// in\n    tag_8:\n      tag_10\n      jump\t// in\n    tag_7:\n      mload(0x40)\n      tag_11\n      swap2\n      swap1\n      tag_12\n      jump\t// in\n    tag_11:\n      mload(0x40)\n      dup1\n      swap2\n      sub\n      swap1\n      return\n        /* \"solidity/homework/mappingtest.sol\":307:414  function getbalance(address addr) public view returns(uint balance){... */\n    tag_3:\n      callvalue\n      dup1\n      iszero\n      tag_13\n      jumpi\n      0x00\n      dup1\n      revert\n    tag_13:\n      pop\n      tag_14\n      0x04\n      dup1\n      calldatasize\n      sub\n      dup2\n      add\n      swap1\n      tag_15\n      swap2\n      swap1\n      tag_9\n      jump\t// in\n    tag_15:\n      tag_16\n      jump\t// in\n    tag_14:\n      mload(0x40)\n      tag_17\n      swap2\n      swap1\n      tag_18\n      jump\t// in\n    tag_17:\n      mload(0x40)\n      dup1\n      swap2\n      sub\n      swap1\n      return\n        /* \"solidity/homework/mappingtest.sol\":420:524  function addhisop(address addr,string memory hisop) public{... */\n    tag_4:\n      callvalue\n      dup1\n      iszero\n      tag_19\n      jumpi\n      0x00\n      dup1\n      revert\n    tag_19:\n      pop\n      tag_20\n      0x04\n      dup1\n      calldatasize\n      sub\n      dup2\n      add\n      swap1\n      tag_21\n      swap2\n      swap1\n      tag_22\n      jump\t// in\n    tag_21:\n      tag_23\n      jump\t// in\n    tag_20:\n      stop\n        /* \"solidity/homework/mappingtest.sol\":214:301  function des(uint amount) public payable{... */\n    tag_5:\n      tag_24\n      0x04\n      dup1\n      calldatasize\n      sub\n      dup2\n      add\n      swap1\n      tag_25\n      swap2\n      swap1\n      tag_26\n      jump\t// in\n    tag_25:\n      tag_27\n      jump\t// in\n    tag_24:\n      stop\n        /* \"solidity/homework/mappingtest.sol\":530:639  function gethisop(address addr) public view returns(string[] memory){... */\n    tag_10:\n        /* \"solidity/homework/mappingtest.sol\":582:597  string[] memory */\n      0x60\n        /* \"solidity/homework/mappingtest.sol\":616:625  userhisop */\n      0x01\n        /* \"solidity/homework/mappingtest.sol\":616:631  userhisop[addr] */\n      0x00\n        /* \"solidity/homework/mappingtest.sol\":626:630  addr */\n      dup4\n        /* \"solidity/homework/mappingtest.sol\":616:631  userhisop[addr] */\n      0xffffffffffffffffffffffffffffffffffffffff\n      and\n      0xffffffffffffffffffffffffffffffffffffffff\n      and\n      dup2\n      mstore\n      0x20\n      add\n      swap1\n      dup2\n      mstore\n      0x20\n      add\n      0x00\n      keccak256\n        /* \"solidity/homework/mappingtest.sol\":609:631  return userhisop[addr] */\n      dup1\n      sload\n      dup1\n      0x20\n      mul\n      0x20\n      add\n      mload(0x40)\n      swap1\n      dup2\n      add\n      0x40\n      mstore\n      dup1\n      swap3\n      swap2\n      swap1\n      dup2\n      dup2\n      mstore\n      0x20\n      add\n      0x00\n      swap1\n    tag_29:\n      dup3\n      dup3\n      lt\n      iszero\n      tag_30\n      jumpi\n      dup4\n      dup3\n      swap1\n      0x00\n      mstore\n      keccak256(0x00, 0x20)\n      add\n      dup1\n      sload\n      tag_32\n      swap1\n      tag_33\n      jump\t// in\n    tag_32:\n      dup1\n      0x1f\n      add\n      0x20\n      dup1\n      swap2\n      div\n      mul\n      0x20\n      add\n      mload(0x40)\n      swap1\n      dup2\n      add\n      0x40\n      mstore\n      dup1\n      swap3\n      swap2\n      swap1\n      dup2\n      dup2\n      mstore\n      0x20\n      add\n      dup3\n      dup1\n      sload\n      tag_34\n      swap1\n      tag_33\n      jump\t// in\n    tag_34:\n      dup1\n      iszero\n      tag_35\n      jumpi\n      dup1\n      0x1f\n      lt\n      tag_36\n      jumpi\n      0x0100\n      dup1\n      dup4\n      sload\n      div\n      mul\n      dup4\n      mstore\n      swap2\n      0x20\n      add\n      swap2\n      jump(tag_35)\n    tag_36:\n      dup3\n      add\n      swap2\n      swap1\n      0x00\n      mstore\n      keccak256(0x00, 0x20)\n      swap1\n    tag_37:\n      dup2\n      sload\n      dup2\n      mstore\n      swap1\n      0x01\n      add\n      swap1\n      0x20\n      add\n      dup1\n      dup4\n      gt\n      tag_37\n      jumpi\n      dup3\n      swap1\n      sub\n      0x1f\n      and\n      dup3\n      add\n      swap2\n    tag_35:\n      pop\n      pop\n      pop\n      pop\n      pop\n      dup2\n      mstore\n      0x20\n      add\n      swap1\n      0x01\n      add\n      swap1\n      jump(tag_29)\n    tag_30:\n      pop\n      pop\n      pop\n      pop\n      swap1\n      pop\n        /* \"solidity/homework/mappingtest.sol\":530:639  function gethisop(address addr) public view returns(string[] memory){... */\n      swap2\n      swap1\n      pop\n      jump\t// out\n        /* \"solidity/homework/mappingtest.sol\":307:414  function getbalance(address addr) public view returns(uint balance){... */\n    tag_16:\n        /* \"solidity/homework/mappingtest.sol\":361:373  uint balance */\n      0x00\n        /* \"solidity/homework/mappingtest.sol\":392:400  balances */\n      dup1\n        /* \"solidity/homework/mappingtest.sol\":392:406  balances[addr] */\n      0x00\n        /* \"solidity/homework/mappingtest.sol\":401:405  addr */\n      dup4\n        /* \"solidity/homework/mappingtest.sol\":392:406  balances[addr] */\n      0xffffffffffffffffffffffffffffffffffffffff\n      and\n      0xffffffffffffffffffffffffffffffffffffffff\n      and\n      dup2\n      mstore\n      0x20\n      add\n      swap1\n      dup2\n      mstore\n      0x20\n      add\n      0x00\n      keccak256\n      sload\n        /* \"solidity/homework/mappingtest.sol\":385:406  return balances[addr] */\n      swap1\n      pop\n        /* \"solidity/homework/mappingtest.sol\":307:414  function getbalance(address addr) public view returns(uint balance){... */\n      swap2\n      swap1\n      pop\n      jump\t// out\n        /* \"solidity/homework/mappingtest.sol\":420:524  function addhisop(address addr,string memory hisop) public{... */\n    tag_23:\n        /* \"solidity/homework/mappingtest.sol\":489:498  userhisop */\n      0x01\n        /* \"solidity/homework/mappingtest.sol\":489:504  userhisop[addr] */\n      0x00\n        /* \"solidity/homework/mappingtest.sol\":499:503  addr */\n      dup4\n        /* \"solidity/homework/mappingtest.sol\":489:504  userhisop[addr] */\n      0xffffffffffffffffffffffffffffffffffffffff\n      and\n      0xffffffffffffffffffffffffffffffffffffffff\n      and\n      dup2\n      mstore\n      0x20\n      add\n      swap1\n      dup2\n      mstore\n      0x20\n      add\n      0x00\n      keccak256\n        /* \"solidity/homework/mappingtest.sol\":510:515  hisop */\n      dup2\n        /* \"solidity/homework/mappingtest.sol\":489:516  userhisop[addr].push(hisop) */\n      swap1\n      dup1\n      0x01\n      dup2\n      sload\n      add\n      dup1\n      dup3\n      sstore\n      dup1\n      swap2\n      pop\n      pop\n      0x01\n      swap1\n      sub\n      swap1\n      0x00\n      mstore\n      keccak256(0x00, 0x20)\n      add\n      0x00\n      swap1\n      swap2\n      swap1\n      swap2\n      swap1\n      swap2\n      pop\n      swap1\n      dup2\n      tag_41\n      swap2\n      swap1\n      tag_42\n      jump\t// in\n    tag_41:\n      pop\n        /* \"solidity/homework/mappingtest.sol\":420:524  function addhisop(address addr,string memory hisop) public{... */\n      pop\n      pop\n      jump\t// out\n        /* \"solidity/homework/mappingtest.sol\":214:301  function des(uint amount) public payable{... */\n    tag_27:\n        /* \"solidity/homework/mappingtest.sol\":287:293  amount */\n      dup1\n        /* \"solidity/homework/mappingtest.sol\":265:273  balances */\n      0x00\n        /* \"solidity/homework/mappingtest.sol\":265:285  balances[msg.sender] */\n      dup1\n        /* \"solidity/homework/mappingtest.sol\":274:284  msg.sender */\n      caller\n        /* \"solidity/homework/mappingtest.sol\":265:285  balances[msg.sender] */\n      0xffffffffffffffffffffffffffffffffffffffff\n      and\n      0xffffffffffffffffffffffffffffffffffffffff\n      and\n      dup2\n      mstore\n      0x20\n      add\n      swap1\n      dup2\n      mstore\n      0x20\n      add\n      0x00\n      keccak256\n      0x00\n        /* \"solidity/homework/mappingtest.sol\":265:293  balances[msg.sender]+=amount */\n      dup3\n      dup3\n      sload\n      tag_44\n      swap2\n      swap1\n      tag_45\n      jump\t// in\n    tag_44:\n      swap3\n      pop\n      pop\n      dup2\n      swap1\n      sstore\n      pop\n        /* \"solidity/homework/mappingtest.sol\":214:301  function des(uint amount) public payable{... */\n      pop\n      jump\t// out\n        /* \"#utility.yul\":7:82   */\n    tag_46:\n        /* \"#utility.yul\":40:46   */\n      0x00\n        /* \"#utility.yul\":73:75   */\n      0x40\n        /* \"#utility.yul\":67:76   */\n      mload\n        /* \"#utility.yul\":57:76   */\n      swap1\n      pop\n        /* \"#utility.yul\":7:82   */\n      swap1\n      jump\t// out\n        /* \"#utility.yul\":88:205   */\n    tag_47:\n        /* \"#utility.yul\":197:198   */\n      0x00\n        /* \"#utility.yul\":194:195   */\n      dup1\n        /* \"#utility.yul\":187:199   */\n      revert\n        /* \"#utility.yul\":211:328   */\n    tag_48:\n        /* \"#utility.yul\":320:321   */\n      0x00\n        /* \"#utility.yul\":317:318   */\n      dup1\n        /* \"#utility.yul\":310:322   */\n      revert\n        /* \"#utility.yul\":334:460   */\n    tag_49:\n        /* \"#utility.yul\":371:378   */\n      0x00\n        /* \"#utility.yul\":411:453   */\n      0xffffffffffffffffffffffffffffffffffffffff\n        /* \"#utility.yul\":404:409   */\n      dup3\n        /* \"#utility.yul\":400:454   */\n      and\n        /* \"#utility.yul\":389:454   */\n      swap1\n      pop\n        /* \"#utility.yul\":334:460   */\n      swap2\n      swap1\n      pop\n      jump\t// out\n        /* \"#utility.yul\":466:562   */\n    tag_50:\n        /* \"#utility.yul\":503:510   */\n      0x00\n        /* \"#utility.yul\":532:556   */\n      tag_100\n        /* \"#utility.yul\":550:555   */\n      dup3\n        /* \"#utility.yul\":532:556   */\n      tag_49\n      jump\t// in\n    tag_100:\n        /* \"#utility.yul\":521:556   */\n      swap1\n      pop\n        /* \"#utility.yul\":466:562   */\n      swap2\n      swap1\n      pop\n      jump\t// out\n        /* \"#utility.yul\":568:690   */\n    tag_51:\n        /* \"#utility.yul\":641:665   */\n      tag_102\n        /* \"#utility.yul\":659:664   */\n      dup2\n        /* \"#utility.yul\":641:665   */\n      tag_50\n      jump\t// in\n    tag_102:\n        /* \"#utility.yul\":634:639   */\n      dup2\n        /* \"#utility.yul\":631:666   */\n      eq\n        /* \"#utility.yul\":621:684   */\n      tag_103\n      jumpi\n        /* \"#utility.yul\":680:681   */\n      0x00\n        /* \"#utility.yul\":677:678   */\n      dup1\n        /* \"#utility.yul\":670:682   */\n      revert\n        /* \"#utility.yul\":621:684   */\n    tag_103:\n        /* \"#utility.yul\":568:690   */\n      pop\n      jump\t// out\n        /* \"#utility.yul\":696:835   */\n    tag_52:\n        /* \"#utility.yul\":742:747   */\n      0x00\n        /* \"#utility.yul\":780:786   */\n      dup2\n        /* \"#utility.yul\":767:787   */\n      calldataload\n        /* \"#utility.yul\":758:787   */\n      swap1\n      pop\n        /* \"#utility.yul\":796:829   */\n      tag_105\n        /* \"#utility.yul\":823:828   */\n      dup2\n        /* \"#utility.yul\":796:829   */\n      tag_51\n      jump\t// in\n    tag_105:\n        /* \"#utility.yul\":696:835   */\n      swap3\n      swap2\n      pop\n      pop\n      jump\t// out\n        /* \"#utility.yul\":841:1170   */\n    tag_9:\n        /* \"#utility.yul\":900:906   */\n      0x00\n        /* \"#utility.yul\":949:951   */\n      0x20\n        /* \"#utility.yul\":937:946   */\n      dup3\n        /* \"#utility.yul\":928:935   */\n      dup5\n        /* \"#utility.yul\":924:947   */\n      sub\n        /* \"#utility.yul\":920:952   */\n      slt\n        /* \"#utility.yul\":917:1036   */\n      iszero\n      tag_107\n      jumpi\n        /* \"#utility.yul\":955:1034   */\n      tag_108\n      tag_47\n      jump\t// in\n    tag_108:\n        /* \"#utility.yul\":917:1036   */\n    tag_107:\n        /* \"#utility.yul\":1075:1076   */\n      0x00\n        /* \"#utility.yul\":1100:1153   */\n      tag_109\n        /* \"#utility.yul\":1145:1152   */\n      dup5\n        /* \"#utility.yul\":1136:1142   */\n      dup3\n        /* \"#utility.yul\":1125:1134   */\n      dup6\n        /* \"#utility.yul\":1121:1143   */\n      add\n        /* \"#utility.yul\":1100:1153   */\n      tag_52\n      jump\t// in\n    tag_109:\n        /* \"#utility.yul\":1090:1153   */\n      swap2\n      pop\n        /* \"#utility.yul\":1046:1163   */\n      pop\n        /* \"#utility.yul\":841:1170   */\n      swap3\n      swap2\n      pop\n      pop\n      jump\t// out\n        /* \"#utility.yul\":1176:1300   */\n    tag_53:\n        /* \"#utility.yul\":1253:1259   */\n      0x00\n        /* \"#utility.yul\":1287:1292   */\n      dup2\n        /* \"#utility.yul\":1281:1293   */\n      mload\n        /* \"#utility.yul\":1271:1293   */\n      swap1\n      pop\n        /* \"#utility.yul\":1176:1300   */\n      swap2\n      swap1\n      pop\n      jump\t// out\n        /* \"#utility.yul\":1306:1500   */\n    tag_54:\n        /* \"#utility.yul\":1415:1426   */\n      0x00\n        /* \"#utility.yul\":1449:1455   */\n      dup3\n        /* \"#utility.yul\":1444:1447   */\n      dup3\n        /* \"#utility.yul\":1437:1456   */\n      mstore\n        /* \"#utility.yul\":1489:1493   */\n      0x20\n        /* \"#utility.yul\":1484:1487   */\n      dup3\n        /* \"#utility.yul\":1480:1494   */\n      add\n        /* \"#utility.yul\":1465:1494   */\n      swap1\n      pop\n        /* \"#utility.yul\":1306:1500   */\n      swap3\n      swap2\n      pop\n      pop\n      jump\t// out\n        /* \"#utility.yul\":1506:1648   */\n    tag_55:\n        /* \"#utility.yul\":1583:1587   */\n      0x00\n        /* \"#utility.yul\":1606:1609   */\n      dup2\n        /* \"#utility.yul\":1598:1609   */\n      swap1\n      pop\n        /* \"#utility.yul\":1636:1640   */\n      0x20\n        /* \"#utility.yul\":1631:1634   */\n      dup3\n        /* \"#utility.yul\":1627:1641   */\n      add\n        /* \"#utility.yul\":1619:1641   */\n      swap1\n      pop\n        /* \"#utility.yul\":1506:1648   */\n      swap2\n      swap1\n      pop\n      jump\t// out\n        /* \"#utility.yul\":1654:1753   */\n    tag_56:\n        /* \"#utility.yul\":1706:1712   */\n      0x00\n        /* \"#utility.yul\":1740:1745   */\n      dup2\n        /* \"#utility.yul\":1734:1746   */\n      mload\n        /* \"#utility.yul\":1724:1746   */\n      swap1\n      pop\n        /* \"#utility.yul\":1654:1753   */\n      swap2\n      swap1\n      pop\n      jump\t// out\n        /* \"#utility.yul\":1759:1918   */\n    tag_57:\n        /* \"#utility.yul\":1833:1844   */\n      0x00\n        /* \"#utility.yul\":1867:1873   */\n      dup3\n        /* \"#utility.yul\":1862:1865   */\n      dup3\n        /* \"#utility.yul\":1855:1874   */\n      mstore\n        /* \"#utility.yul\":1907:1911   */\n      0x20\n        /* \"#utility.yul\":1902:1905   */\n      dup3\n        /* \"#utility.yul\":1898:1912   */\n      add\n        /* \"#utility.yul\":1883:1912   */\n      swap1\n      pop\n        /* \"#utility.yul\":1759:1918   */\n      swap3\n      swap2\n      pop\n      pop\n      jump\t// out\n        /* \"#utility.yul\":1924:2063   */\n    tag_58:\n        /* \"#utility.yul\":2013:2019   */\n      dup3\n        /* \"#utility.yul\":2008:2011   */\n      dup2\n        /* \"#utility.yul\":2003:2006   */\n      dup4\n        /* \"#utility.yul\":1997:2020   */\n      mcopy\n        /* \"#utility.yul\":2054:2055   */\n      0x00\n        /* \"#utility.yul\":2045:2051   */\n      dup4\n        /* \"#utility.yul\":2040:2043   */\n      dup4\n        /* \"#utility.yul\":2036:2052   */\n      add\n        /* \"#utility.yul\":2029:2056   */\n      mstore\n        /* \"#utility.yul\":1924:2063   */\n      pop\n      pop\n      pop\n      jump\t// out\n        /* \"#utility.yul\":2069:2171   */\n    tag_59:\n        /* \"#utility.yul\":2110:2116   */\n      0x00\n        /* \"#utility.yul\":2161:2163   */\n      0x1f\n        /* \"#utility.yul\":2157:2164   */\n      not\n        /* \"#utility.yul\":2152:2154   */\n      0x1f\n        /* \"#utility.yul\":2145:2150   */\n      dup4\n        /* \"#utility.yul\":2141:2155   */\n      add\n        /* \"#utility.yul\":2137:2165   */\n      and\n        /* \"#utility.yul\":2127:2165   */\n      swap1\n      pop\n        /* \"#utility.yul\":2069:2171   */\n      swap2\n      swap1\n      pop\n      jump\t// out\n        /* \"#utility.yul\":2177:2534   */\n    tag_60:\n        /* \"#utility.yul\":2255:2258   */\n      0x00\n        /* \"#utility.yul\":2283:2322   */\n      tag_118\n        /* \"#utility.yul\":2316:2321   */\n      dup3\n        /* \"#utility.yul\":2283:2322   */\n      tag_56\n      jump\t// in\n    tag_118:\n        /* \"#utility.yul\":2338:2399   */\n      tag_119\n        /* \"#utility.yul\":2392:2398   */\n      dup2\n        /* \"#utility.yul\":2387:2390   */\n      dup6\n        /* \"#utility.yul\":2338:2399   */\n      tag_57\n      jump\t// in\n    tag_119:\n        /* \"#utility.yul\":2331:2399   */\n      swap4\n      pop\n        /* \"#utility.yul\":2408:2473   */\n      tag_120\n        /* \"#utility.yul\":2466:2472   */\n      dup2\n        /* \"#utility.yul\":2461:2464   */\n      dup6\n        /* \"#utility.yul\":2454:2458   */\n      0x20\n        /* \"#utility.yul\":2447:2452   */\n      dup7\n        /* \"#utility.yul\":2443:2459   */\n      add\n        /* \"#utility.yul\":2408:2473   */\n      tag_58\n      jump\t// in\n    tag_120:\n        /* \"#utility.yul\":2498:2527   */\n      tag_121\n        /* \"#utility.yul\":2520:2526   */\n      dup2\n        /* \"#utility.yul\":2498:2527   */\n      tag_59\n      jump\t// in\n    tag_121:\n        /* \"#utility.yul\":2493:2496   */\n      dup5\n        /* \"#utility.yul\":2489:2528   */\n      add\n        /* \"#utility.yul\":2482:2528   */\n      swap2\n      pop\n        /* \"#utility.yul\":2259:2534   */\n      pop\n        /* \"#utility.yul\":2177:2534   */\n      swap3\n      swap2\n      pop\n      pop\n      jump\t// out\n        /* \"#utility.yul\":2540:2736   */\n    tag_61:\n        /* \"#utility.yul\":2629:2639   */\n      0x00\n        /* \"#utility.yul\":2664:2730   */\n      tag_123\n        /* \"#utility.yul\":2726:2729   */\n      dup4\n        /* \"#utility.yul\":2718:2724   */\n      dup4\n        /* \"#utility.yul\":2664:2730   */\n      tag_60\n      jump\t// in\n    tag_123:\n        /* \"#utility.yul\":2650:2730   */\n      swap1\n      pop\n        /* \"#utility.yul\":2540:2736   */\n      swap3\n      swap2\n      pop\n      pop\n      jump\t// out\n        /* \"#utility.yul\":2742:2865   */\n    tag_62:\n        /* \"#utility.yul\":2822:2826   */\n      0x00\n        /* \"#utility.yul\":2854:2858   */\n      0x20\n        /* \"#utility.yul\":2849:2852   */\n      dup3\n        /* \"#utility.yul\":2845:2859   */\n      add\n        /* \"#utility.yul\":2837:2859   */\n      swap1\n      pop\n        /* \"#utility.yul\":2742:2865   */\n      swap2\n      swap1\n      pop\n      jump\t// out\n        /* \"#utility.yul\":2899:3890   */\n    tag_63:\n        /* \"#utility.yul\":3038:3041   */\n      0x00\n        /* \"#utility.yul\":3067:3131   */\n      tag_126\n        /* \"#utility.yul\":3125:3130   */\n      dup3\n        /* \"#utility.yul\":3067:3131   */\n      tag_53\n      jump\t// in\n    tag_126:\n        /* \"#utility.yul\":3147:3243   */\n      tag_127\n        /* \"#utility.yul\":3236:3242   */\n      dup2\n        /* \"#utility.yul\":3231:3234   */\n      dup6\n        /* \"#utility.yul\":3147:3243   */\n      tag_54\n      jump\t// in\n    tag_127:\n        /* \"#utility.yul\":3140:3243   */\n      swap4\n      pop\n        /* \"#utility.yul\":3269:3272   */\n      dup4\n        /* \"#utility.yul\":3314:3318   */\n      0x20\n        /* \"#utility.yul\":3306:3312   */\n      dup3\n        /* \"#utility.yul\":3302:3319   */\n      mul\n        /* \"#utility.yul\":3297:3300   */\n      dup6\n        /* \"#utility.yul\":3293:3320   */\n      add\n        /* \"#utility.yul\":3344:3410   */\n      tag_128\n        /* \"#utility.yul\":3404:3409   */\n      dup6\n        /* \"#utility.yul\":3344:3410   */\n      tag_55\n      jump\t// in\n    tag_128:\n        /* \"#utility.yul\":3433:3440   */\n      dup1\n        /* \"#utility.yul\":3464:3465   */\n      0x00\n        /* \"#utility.yul\":3449:3845   */\n    tag_129:\n        /* \"#utility.yul\":3474:3480   */\n      dup6\n        /* \"#utility.yul\":3471:3472   */\n      dup2\n        /* \"#utility.yul\":3468:3481   */\n      lt\n        /* \"#utility.yul\":3449:3845   */\n      iszero\n      tag_131\n      jumpi\n        /* \"#utility.yul\":3545:3554   */\n      dup5\n        /* \"#utility.yul\":3539:3543   */\n      dup5\n        /* \"#utility.yul\":3535:3555   */\n      sub\n        /* \"#utility.yul\":3530:3533   */\n      dup10\n        /* \"#utility.yul\":3523:3556   */\n      mstore\n        /* \"#utility.yul\":3596:3602   */\n      dup2\n        /* \"#utility.yul\":3590:3603   */\n      mload\n        /* \"#utility.yul\":3624:3708   */\n      tag_132\n        /* \"#utility.yul\":3703:3707   */\n      dup6\n        /* \"#utility.yul\":3688:3701   */\n      dup3\n        /* \"#utility.yul\":3624:3708   */\n      tag_61\n      jump\t// in\n    tag_132:\n        /* \"#utility.yul\":3616:3708   */\n      swap5\n      pop\n        /* \"#utility.yul\":3731:3801   */\n      tag_133\n        /* \"#utility.yul\":3794:3800   */\n      dup4\n        /* \"#utility.yul\":3731:3801   */\n      tag_62\n      jump\t// in\n    tag_133:\n        /* \"#utility.yul\":3721:3801   */\n      swap3\n      pop\n        /* \"#utility.yul\":3830:3834   */\n      0x20\n        /* \"#utility.yul\":3825:3828   */\n      dup11\n        /* \"#utility.yul\":3821:3835   */\n      add\n        /* \"#utility.yul\":3814:3835   */\n      swap10\n      pop\n        /* \"#utility.yul\":3509:3845   */\n      pop\n        /* \"#utility.yul\":3496:3497   */\n      0x01\n        /* \"#utility.yul\":3493:3494   */\n      dup2\n        /* \"#utility.yul\":3489:3498   */\n      add\n        /* \"#utility.yul\":3484:3498   */\n      swap1\n      pop\n        /* \"#utility.yul\":3449:3845   */\n      jump(tag_129)\n    tag_131:\n        /* \"#utility.yul\":3453:3467   */\n      pop\n        /* \"#utility.yul\":3861:3865   */\n      dup3\n        /* \"#utility.yul\":3854:3865   */\n      swap8\n      pop\n        /* \"#utility.yul\":3881:3884   */\n      dup8\n        /* \"#utility.yul\":3874:3884   */\n      swap6\n      pop\n        /* \"#utility.yul\":3043:3890   */\n      pop\n      pop\n      pop\n      pop\n      pop\n        /* \"#utility.yul\":2899:3890   */\n      swap3\n      swap2\n      pop\n      pop\n      jump\t// out\n        /* \"#utility.yul\":3896:4309   */\n    tag_12:\n        /* \"#utility.yul\":4059:4063   */\n      0x00\n        /* \"#utility.yul\":4097:4099   */\n      0x20\n        /* \"#utility.yul\":4086:4095   */\n      dup3\n        /* \"#utility.yul\":4082:4100   */\n      add\n        /* \"#utility.yul\":4074:4100   */\n      swap1\n      pop\n        /* \"#utility.yul\":4146:4155   */\n      dup2\n        /* \"#utility.yul\":4140:4144   */\n      dup2\n        /* \"#utility.yul\":4136:4156   */\n      sub\n        /* \"#utility.yul\":4132:4133   */\n      0x00\n        /* \"#utility.yul\":4121:4130   */\n      dup4\n        /* \"#utility.yul\":4117:4134   */\n      add\n        /* \"#utility.yul\":4110:4157   */\n      mstore\n        /* \"#utility.yul\":4174:4302   */\n      tag_135\n        /* \"#utility.yul\":4297:4301   */\n      dup2\n        /* \"#utility.yul\":4288:4294   */\n      dup5\n        /* \"#utility.yul\":4174:4302   */\n      tag_63\n      jump\t// in\n    tag_135:\n        /* \"#utility.yul\":4166:4302   */\n      swap1\n      pop\n        /* \"#utility.yul\":3896:4309   */\n      swap3\n      swap2\n      pop\n      pop\n      jump\t// out\n        /* \"#utility.yul\":4315:4392   */\n    tag_64:\n        /* \"#utility.yul\":4352:4359   */\n      0x00\n        /* \"#utility.yul\":4381:4386   */\n      dup2\n        /* \"#utility.yul\":4370:4386   */\n      swap1\n      pop\n        /* \"#utility.yul\":4315:4392   */\n      swap2\n      swap1\n      pop\n      jump\t// out\n        /* \"#utility.yul\":4398:4516   */\n    tag_65:\n        /* \"#utility.yul\":4485:4509   */\n      tag_138\n        /* \"#utility.yul\":4503:4508   */\n      dup2\n        /* \"#utility.yul\":4485:4509   */\n      tag_64\n      jump\t// in\n    tag_138:\n        /* \"#utility.yul\":4480:4483   */\n      dup3\n        /* \"#utility.yul\":4473:4510   */\n      mstore\n        /* \"#utility.yul\":4398:4516   */\n      pop\n      pop\n      jump\t// out\n        /* \"#utility.yul\":4522:4744   */\n    tag_18:\n        /* \"#utility.yul\":4615:4619   */\n      0x00\n        /* \"#utility.yul\":4653:4655   */\n      0x20\n        /* \"#utility.yul\":4642:4651   */\n      dup3\n        /* \"#utility.yul\":4638:4656   */\n      add\n        /* \"#utility.yul\":4630:4656   */\n      swap1\n      pop\n        /* \"#utility.yul\":4666:4737   */\n      tag_140\n        /* \"#utility.yul\":4734:4735   */\n      0x00\n        /* \"#utility.yul\":4723:4732   */\n      dup4\n        /* \"#utility.yul\":4719:4736   */\n      add\n        /* \"#utility.yul\":4710:4716   */\n      dup5\n        /* \"#utility.yul\":4666:4737   */\n      tag_65\n      jump\t// in\n    tag_140:\n        /* \"#utility.yul\":4522:4744   */\n      swap3\n      swap2\n      pop\n      pop\n      jump\t// out\n        /* \"#utility.yul\":4750:4867   */\n    tag_66:\n        /* \"#utility.yul\":4859:4860   */\n      0x00\n        /* \"#utility.yul\":4856:4857   */\n      dup1\n        /* \"#utility.yul\":4849:4861   */\n      revert\n        /* \"#utility.yul\":4873:4990   */\n    tag_67:\n        /* \"#utility.yul\":4982:4983   */\n      0x00\n        /* \"#utility.yul\":4979:4980   */\n      dup1\n        /* \"#utility.yul\":4972:4984   */\n      revert\n        /* \"#utility.yul\":4996:5176   */\n    tag_68:\n        /* \"#utility.yul\":5044:5121   */\n      0x4e487b7100000000000000000000000000000000000000000000000000000000\n        /* \"#utility.yul\":5041:5042   */\n      0x00\n        /* \"#utility.yul\":5034:5122   */\n      mstore\n        /* \"#utility.yul\":5141:5145   */\n      0x41\n        /* \"#utility.yul\":5138:5139   */\n      0x04\n        /* \"#utility.yul\":5131:5146   */\n      mstore\n        /* \"#utility.yul\":5165:5169   */\n      0x24\n        /* \"#utility.yul\":5162:5163   */\n      0x00\n        /* \"#utility.yul\":5155:5170   */\n      revert\n        /* \"#utility.yul\":5182:5463   */\n    tag_69:\n        /* \"#utility.yul\":5265:5292   */\n      tag_145\n        /* \"#utility.yul\":5287:5291   */\n      dup3\n        /* \"#utility.yul\":5265:5292   */\n      tag_59\n      jump\t// in\n    tag_145:\n        /* \"#utility.yul\":5257:5263   */\n      dup2\n        /* \"#utility.yul\":5253:5293   */\n      add\n        /* \"#utility.yul\":5395:5401   */\n      dup2\n        /* \"#utility.yul\":5383:5393   */\n      dup2\n        /* \"#utility.yul\":5380:5402   */\n      lt\n        /* \"#utility.yul\":5359:5377   */\n      0xffffffffffffffff\n        /* \"#utility.yul\":5347:5357   */\n      dup3\n        /* \"#utility.yul\":5344:5378   */\n      gt\n        /* \"#utility.yul\":5341:5403   */\n      or\n        /* \"#utility.yul\":5338:5426   */\n      iszero\n      tag_146\n      jumpi\n        /* \"#utility.yul\":5406:5424   */\n      tag_147\n      tag_68\n      jump\t// in\n    tag_147:\n        /* \"#utility.yul\":5338:5426   */\n    tag_146:\n        /* \"#utility.yul\":5446:5456   */\n      dup1\n        /* \"#utility.yul\":5442:5444   */\n      0x40\n        /* \"#utility.yul\":5435:5457   */\n      mstore\n        /* \"#utility.yul\":5225:5463   */\n      pop\n        /* \"#utility.yul\":5182:5463   */\n      pop\n      pop\n      jump\t// out\n        /* \"#utility.yul\":5469:5598   */\n    tag_70:\n        /* \"#utility.yul\":5503:5509   */\n      0x00\n        /* \"#utility.yul\":5530:5550   */\n      tag_149\n      tag_46\n      jump\t// in\n    tag_149:\n        /* \"#utility.yul\":5520:5550   */\n      swap1\n      pop\n        /* \"#utility.yul\":5559:5592   */\n      tag_150\n        /* \"#utility.yul\":5587:5591   */\n      dup3\n        /* \"#utility.yul\":5579:5585   */\n      dup3\n        /* \"#utility.yul\":5559:5592   */\n      tag_69\n      jump\t// in\n    tag_150:\n        /* \"#utility.yul\":5469:5598   */\n      swap2\n      swap1\n      pop\n      jump\t// out\n        /* \"#utility.yul\":5604:5912   */\n    tag_71:\n        /* \"#utility.yul\":5666:5670   */\n      0x00\n        /* \"#utility.yul\":5756:5774   */\n      0xffffffffffffffff\n        /* \"#utility.yul\":5748:5754   */\n      dup3\n        /* \"#utility.yul\":5745:5775   */\n      gt\n        /* \"#utility.yul\":5742:5798   */\n      iszero\n      tag_152\n      jumpi\n        /* \"#utility.yul\":5778:5796   */\n      tag_153\n      tag_68\n      jump\t// in\n    tag_153:\n        /* \"#utility.yul\":5742:5798   */\n    tag_152:\n        /* \"#utility.yul\":5816:5845   */\n      tag_154\n        /* \"#utility.yul\":5838:5844   */\n      dup3\n        /* \"#utility.yul\":5816:5845   */\n      tag_59\n      jump\t// in\n    tag_154:\n        /* \"#utility.yul\":5808:5845   */\n      swap1\n      pop\n        /* \"#utility.yul\":5900:5904   */\n      0x20\n        /* \"#utility.yul\":5894:5898   */\n      dup2\n        /* \"#utility.yul\":5890:5905   */\n      add\n        /* \"#utility.yul\":5882:5905   */\n      swap1\n      pop\n        /* \"#utility.yul\":5604:5912   */\n      swap2\n      swap1\n      pop\n      jump\t// out\n        /* \"#utility.yul\":5918:6066   */\n    tag_72:\n        /* \"#utility.yul\":6016:6022   */\n      dup3\n        /* \"#utility.yul\":6011:6014   */\n      dup2\n        /* \"#utility.yul\":6006:6009   */\n      dup4\n        /* \"#utility.yul\":5993:6023   */\n      calldatacopy\n        /* \"#utility.yul\":6057:6058   */\n      0x00\n        /* \"#utility.yul\":6048:6054   */\n      dup4\n        /* \"#utility.yul\":6043:6046   */\n      dup4\n        /* \"#utility.yul\":6039:6055   */\n      add\n        /* \"#utility.yul\":6032:6059   */\n      mstore\n        /* \"#utility.yul\":5918:6066   */\n      pop\n      pop\n      pop\n      jump\t// out\n        /* \"#utility.yul\":6072:6497   */\n    tag_73:\n        /* \"#utility.yul\":6150:6155   */\n      0x00\n        /* \"#utility.yul\":6175:6241   */\n      tag_157\n        /* \"#utility.yul\":6191:6240   */\n      tag_158\n        /* \"#utility.yul\":6233:6239   */\n      dup5\n        /* \"#utility.yul\":6191:6240   */\n      tag_71\n      jump\t// in\n    tag_158:\n        /* \"#utility.yul\":6175:6241   */\n      tag_70\n      jump\t// in\n    tag_157:\n        /* \"#utility.yul\":6166:6241   */\n      swap1\n      pop\n        /* \"#utility.yul\":6264:6270   */\n      dup3\n        /* \"#utility.yul\":6257:6262   */\n      dup2\n        /* \"#utility.yul\":6250:6271   */\n      mstore\n        /* \"#utility.yul\":6302:6306   */\n      0x20\n        /* \"#utility.yul\":6295:6300   */\n      dup2\n        /* \"#utility.yul\":6291:6307   */\n      add\n        /* \"#utility.yul\":6340:6343   */\n      dup5\n        /* \"#utility.yul\":6331:6337   */\n      dup5\n        /* \"#utility.yul\":6326:6329   */\n      dup5\n        /* \"#utility.yul\":6322:6338   */\n      add\n        /* \"#utility.yul\":6319:6344   */\n      gt\n        /* \"#utility.yul\":6316:6428   */\n      iszero\n      tag_159\n      jumpi\n        /* \"#utility.yul\":6347:6426   */\n      tag_160\n      tag_67\n      jump\t// in\n    tag_160:\n        /* \"#utility.yul\":6316:6428   */\n    tag_159:\n        /* \"#utility.yul\":6437:6491   */\n      tag_161\n        /* \"#utility.yul\":6484:6490   */\n      dup5\n        /* \"#utility.yul\":6479:6482   */\n      dup3\n        /* \"#utility.yul\":6474:6477   */\n      dup6\n        /* \"#utility.yul\":6437:6491   */\n      tag_72\n      jump\t// in\n    tag_161:\n        /* \"#utility.yul\":6156:6497   */\n      pop\n        /* \"#utility.yul\":6072:6497   */\n      swap4\n      swap3\n      pop\n      pop\n      pop\n      jump\t// out\n        /* \"#utility.yul\":6517:6857   */\n    tag_74:\n        /* \"#utility.yul\":6573:6578   */\n      0x00\n        /* \"#utility.yul\":6622:6625   */\n      dup3\n        /* \"#utility.yul\":6615:6619   */\n      0x1f\n        /* \"#utility.yul\":6607:6613   */\n      dup4\n        /* \"#utility.yul\":6603:6620   */\n      add\n        /* \"#utility.yul\":6599:6626   */\n      slt\n        /* \"#utility.yul\":6589:6711   */\n      tag_163\n      jumpi\n        /* \"#utility.yul\":6630:6709   */\n      tag_164\n      tag_66\n      jump\t// in\n    tag_164:\n        /* \"#utility.yul\":6589:6711   */\n    tag_163:\n        /* \"#utility.yul\":6747:6753   */\n      dup2\n        /* \"#utility.yul\":6734:6754   */\n      calldataload\n        /* \"#utility.yul\":6772:6851   */\n      tag_165\n        /* \"#utility.yul\":6847:6850   */\n      dup5\n        /* \"#utility.yul\":6839:6845   */\n      dup3\n        /* \"#utility.yul\":6832:6836   */\n      0x20\n        /* \"#utility.yul\":6824:6830   */\n      dup7\n        /* \"#utility.yul\":6820:6837   */\n      add\n        /* \"#utility.yul\":6772:6851   */\n      tag_73\n      jump\t// in\n    tag_165:\n        /* \"#utility.yul\":6763:6851   */\n      swap2\n      pop\n        /* \"#utility.yul\":6579:6857   */\n      pop\n        /* \"#utility.yul\":6517:6857   */\n      swap3\n      swap2\n      pop\n      pop\n      jump\t// out\n        /* \"#utility.yul\":6863:7517   */\n    tag_22:\n        /* \"#utility.yul\":6941:6947   */\n      0x00\n        /* \"#utility.yul\":6949:6955   */\n      dup1\n        /* \"#utility.yul\":6998:7000   */\n      0x40\n        /* \"#utility.yul\":6986:6995   */\n      dup4\n        /* \"#utility.yul\":6977:6984   */\n      dup6\n        /* \"#utility.yul\":6973:6996   */\n      sub\n        /* \"#utility.yul\":6969:7001   */\n      slt\n        /* \"#utility.yul\":6966:7085   */\n      iszero\n      tag_167\n      jumpi\n        /* \"#utility.yul\":7004:7083   */\n      tag_168\n      tag_47\n      jump\t// in\n    tag_168:\n        /* \"#utility.yul\":6966:7085   */\n    tag_167:\n        /* \"#utility.yul\":7124:7125   */\n      0x00\n        /* \"#utility.yul\":7149:7202   */\n      tag_169\n        /* \"#utility.yul\":7194:7201   */\n      dup6\n        /* \"#utility.yul\":7185:7191   */\n      dup3\n        /* \"#utility.yul\":7174:7183   */\n      dup7\n        /* \"#utility.yul\":7170:7192   */\n      add\n        /* \"#utility.yul\":7149:7202   */\n      tag_52\n      jump\t// in\n    tag_169:\n        /* \"#utility.yul\":7139:7202   */\n      swap3\n      pop\n        /* \"#utility.yul\":7095:7212   */\n      pop\n        /* \"#utility.yul\":7279:7281   */\n      0x20\n        /* \"#utility.yul\":7268:7277   */\n      dup4\n        /* \"#utility.yul\":7264:7282   */\n      add\n        /* \"#utility.yul\":7251:7283   */\n      calldataload\n        /* \"#utility.yul\":7310:7328   */\n      0xffffffffffffffff\n        /* \"#utility.yul\":7302:7308   */\n      dup2\n        /* \"#utility.yul\":7299:7329   */\n      gt\n        /* \"#utility.yul\":7296:7413   */\n      iszero\n      tag_170\n      jumpi\n        /* \"#utility.yul\":7332:7411   */\n      tag_171\n      tag_48\n      jump\t// in\n    tag_171:\n        /* \"#utility.yul\":7296:7413   */\n    tag_170:\n        /* \"#utility.yul\":7437:7500   */\n      tag_172\n        /* \"#utility.yul\":7492:7499   */\n      dup6\n        /* \"#utility.yul\":7483:7489   */\n      dup3\n        /* \"#utility.yul\":7472:7481   */\n      dup7\n        /* \"#utility.yul\":7468:7490   */\n      add\n        /* \"#utility.yul\":7437:7500   */\n      tag_74\n      jump\t// in\n    tag_172:\n        /* \"#utility.yul\":7427:7500   */\n      swap2\n      pop\n        /* \"#utility.yul\":7222:7510   */\n      pop\n        /* \"#utility.yul\":6863:7517   */\n      swap3\n      pop\n      swap3\n      swap1\n      pop\n      jump\t// out\n        /* \"#utility.yul\":7523:7645   */\n    tag_75:\n        /* \"#utility.yul\":7596:7620   */\n      tag_174\n        /* \"#utility.yul\":7614:7619   */\n      dup2\n        /* \"#utility.yul\":7596:7620   */\n      tag_64\n      jump\t// in\n    tag_174:\n        /* \"#utility.yul\":7589:7594   */\n      dup2\n        /* \"#utility.yul\":7586:7621   */\n      eq\n        /* \"#utility.yul\":7576:7639   */\n      tag_175\n      jumpi\n        /* \"#utility.yul\":7635:7636   */\n      0x00\n        /* \"#utility.yul\":7632:7633   */\n      dup1\n        /* \"#utility.yul\":7625:7637   */\n      revert\n        /* \"#utility.yul\":7576:7639   */\n    tag_175:\n        /* \"#utility.yul\":7523:7645   */\n      pop\n      jump\t// out\n        /* \"#utility.yul\":7651:7790   */\n    tag_76:\n        /* \"#utility.yul\":7697:7702   */\n      0x00\n        /* \"#utility.yul\":7735:7741   */\n      dup2\n        /* \"#utility.yul\":7722:7742   */\n      calldataload\n        /* \"#utility.yul\":7713:7742   */\n      swap1\n      pop\n        /* \"#utility.yul\":7751:7784   */\n      tag_177\n        /* \"#utility.yul\":7778:7783   */\n      dup2\n        /* \"#utility.yul\":7751:7784   */\n      tag_75\n      jump\t// in\n    tag_177:\n        /* \"#utility.yul\":7651:7790   */\n      swap3\n      swap2\n      pop\n      pop\n      jump\t// out\n        /* \"#utility.yul\":7796:8125   */\n    tag_26:\n        /* \"#utility.yul\":7855:7861   */\n      0x00\n        /* \"#utility.yul\":7904:7906   */\n      0x20\n        /* \"#utility.yul\":7892:7901   */\n      dup3\n        /* \"#utility.yul\":7883:7890   */\n      dup5\n        /* \"#utility.yul\":7879:7902   */\n      sub\n        /* \"#utility.yul\":7875:7907   */\n      slt\n        /* \"#utility.yul\":7872:7991   */\n      iszero\n      tag_179\n      jumpi\n        /* \"#utility.yul\":7910:7989   */\n      tag_180\n      tag_47\n      jump\t// in\n    tag_180:\n        /* \"#utility.yul\":7872:7991   */\n    tag_179:\n        /* \"#utility.yul\":8030:8031   */\n      0x00\n        /* \"#utility.yul\":8055:8108   */\n      tag_181\n        /* \"#utility.yul\":8100:8107   */\n      dup5\n        /* \"#utility.yul\":8091:8097   */\n      dup3\n        /* \"#utility.yul\":8080:8089   */\n      dup6\n        /* \"#utility.yul\":8076:8098   */\n      add\n        /* \"#utility.yul\":8055:8108   */\n      tag_76\n      jump\t// in\n    tag_181:\n        /* \"#utility.yul\":8045:8108   */\n      swap2\n      pop\n        /* \"#utility.yul\":8001:8118   */\n      pop\n        /* \"#utility.yul\":7796:8125   */\n      swap3\n      swap2\n      pop\n      pop\n      jump\t// out\n        /* \"#utility.yul\":8131:8311   */\n    tag_77:\n        /* \"#utility.yul\":8179:8256   */\n      0x4e487b7100000000000000000000000000000000000000000000000000000000\n        /* \"#utility.yul\":8176:8177   */\n      0x00\n        /* \"#utility.yul\":8169:8257   */\n      mstore\n        /* \"#utility.yul\":8276:8280   */\n      0x22\n        /* \"#utility.yul\":8273:8274   */\n      0x04\n        /* \"#utility.yul\":8266:8281   */\n      mstore\n        /* \"#utility.yul\":8300:8304   */\n      0x24\n        /* \"#utility.yul\":8297:8298   */\n      0x00\n        /* \"#utility.yul\":8290:8305   */\n      revert\n        /* \"#utility.yul\":8317:8637   */\n    tag_33:\n        /* \"#utility.yul\":8361:8367   */\n      0x00\n        /* \"#utility.yul\":8398:8399   */\n      0x02\n        /* \"#utility.yul\":8392:8396   */\n      dup3\n        /* \"#utility.yul\":8388:8400   */\n      div\n        /* \"#utility.yul\":8378:8400   */\n      swap1\n      pop\n        /* \"#utility.yul\":8445:8446   */\n      0x01\n        /* \"#utility.yul\":8439:8443   */\n      dup3\n        /* \"#utility.yul\":8435:8447   */\n      and\n        /* \"#utility.yul\":8466:8484   */\n      dup1\n        /* \"#utility.yul\":8456:8537   */\n      tag_184\n      jumpi\n        /* \"#utility.yul\":8522:8526   */\n      0x7f\n        /* \"#utility.yul\":8514:8520   */\n      dup3\n        /* \"#utility.yul\":8510:8527   */\n      and\n        /* \"#utility.yul\":8500:8527   */\n      swap2\n      pop\n        /* \"#utility.yul\":8456:8537   */\n    tag_184:\n        /* \"#utility.yul\":8584:8586   */\n      0x20\n        /* \"#utility.yul\":8576:8582   */\n      dup3\n        /* \"#utility.yul\":8573:8587   */\n      lt\n        /* \"#utility.yul\":8553:8571   */\n      dup2\n        /* \"#utility.yul\":8550:8588   */\n      sub\n        /* \"#utility.yul\":8547:8631   */\n      tag_185\n      jumpi\n        /* \"#utility.yul\":8603:8621   */\n      tag_186\n      tag_77\n      jump\t// in\n    tag_186:\n        /* \"#utility.yul\":8547:8631   */\n    tag_185:\n        /* \"#utility.yul\":8368:8637   */\n      pop\n        /* \"#utility.yul\":8317:8637   */\n      swap2\n      swap1\n      pop\n      jump\t// out\n        /* \"#utility.yul\":8643:8784   */\n    tag_78:\n        /* \"#utility.yul\":8692:8696   */\n      0x00\n        /* \"#utility.yul\":8715:8718   */\n      dup2\n        /* \"#utility.yul\":8707:8718   */\n      swap1\n      pop\n        /* \"#utility.yul\":8738:8741   */\n      dup2\n        /* \"#utility.yul\":8735:8736   */\n      0x00\n        /* \"#utility.yul\":8728:8742   */\n      mstore\n        /* \"#utility.yul\":8772:8776   */\n      0x20\n        /* \"#utility.yul\":8769:8770   */\n      0x00\n        /* \"#utility.yul\":8759:8777   */\n      keccak256\n        /* \"#utility.yul\":8751:8777   */\n      swap1\n      pop\n        /* \"#utility.yul\":8643:8784   */\n      swap2\n      swap1\n      pop\n      jump\t// out\n        /* \"#utility.yul\":8790:8883   */\n    tag_79:\n        /* \"#utility.yul\":8827:8833   */\n      0x00\n        /* \"#utility.yul\":8874:8876   */\n      0x20\n        /* \"#utility.yul\":8869:8871   */\n      0x1f\n        /* \"#utility.yul\":8862:8867   */\n      dup4\n        /* \"#utility.yul\":8858:8872   */\n      add\n        /* \"#utility.yul\":8854:8877   */\n      div\n        /* \"#utility.yul\":8844:8877   */\n      swap1\n      pop\n        /* \"#utility.yul\":8790:8883   */\n      swap2\n      swap1\n      pop\n      jump\t// out\n        /* \"#utility.yul\":8889:8996   */\n    tag_80:\n        /* \"#utility.yul\":8933:8941   */\n      0x00\n        /* \"#utility.yul\":8983:8988   */\n      dup3\n        /* \"#utility.yul\":8977:8981   */\n      dup3\n        /* \"#utility.yul\":8973:8989   */\n      shl\n        /* \"#utility.yul\":8952:8989   */\n      swap1\n      pop\n        /* \"#utility.yul\":8889:8996   */\n      swap3\n      swap2\n      pop\n      pop\n      jump\t// out\n        /* \"#utility.yul\":9002:9395   */\n    tag_81:\n        /* \"#utility.yul\":9071:9077   */\n      0x00\n        /* \"#utility.yul\":9121:9122   */\n      0x08\n        /* \"#utility.yul\":9109:9119   */\n      dup4\n        /* \"#utility.yul\":9105:9123   */\n      mul\n        /* \"#utility.yul\":9144:9241   */\n      tag_191\n        /* \"#utility.yul\":9174:9240   */\n      0xffffffffffffffffffffffffffffffffffffffffffffffffffffffffffffffff\n        /* \"#utility.yul\":9163:9172   */\n      dup3\n        /* \"#utility.yul\":9144:9241   */\n      tag_80\n      jump\t// in\n    tag_191:\n        /* \"#utility.yul\":9262:9301   */\n      tag_192\n        /* \"#utility.yul\":9292:9300   */\n      dup7\n        /* \"#utility.yul\":9281:9290   */\n      dup4\n        /* \"#utility.yul\":9262:9301   */\n      tag_80\n      jump\t// in\n    tag_192:\n        /* \"#utility.yul\":9250:9301   */\n      swap6\n      pop\n        /* \"#utility.yul\":9334:9338   */\n      dup1\n        /* \"#utility.yul\":9330:9339   */\n      not\n        /* \"#utility.yul\":9323:9328   */\n      dup5\n        /* \"#utility.yul\":9319:9340   */\n      and\n        /* \"#utility.yul\":9310:9340   */\n      swap4\n      pop\n        /* \"#utility.yul\":9383:9387   */\n      dup1\n        /* \"#utility.yul\":9373:9381   */\n      dup7\n        /* \"#utility.yul\":9369:9388   */\n      and\n        /* \"#utility.yul\":9362:9367   */\n      dup5\n        /* \"#utility.yul\":9359:9389   */\n      or\n        /* \"#utility.yul\":9349:9389   */\n      swap3\n      pop\n        /* \"#utility.yul\":9078:9395   */\n      pop\n      pop\n        /* \"#utility.yul\":9002:9395   */\n      swap4\n      swap3\n      pop\n      pop\n      pop\n      jump\t// out\n        /* \"#utility.yul\":9401:9461   */\n    tag_82:\n        /* \"#utility.yul\":9429:9432   */\n      0x00\n        /* \"#utility.yul\":9450:9455   */\n      dup2\n        /* \"#utility.yul\":9443:9455   */\n      swap1\n      pop\n        /* \"#utility.yul\":9401:9461   */\n      swap2\n      swap1\n      pop\n      jump\t// out\n        /* \"#utility.yul\":9467:9609   */\n    tag_83:\n        /* \"#utility.yul\":9517:9526   */\n      0x00\n        /* \"#utility.yul\":9550:9603   */\n      tag_195\n        /* \"#utility.yul\":9568:9602   */\n      tag_196\n        /* \"#utility.yul\":9577:9601   */\n      tag_197\n        /* \"#utility.yul\":9595:9600   */\n      dup5\n        /* \"#utility.yul\":9577:9601   */\n      tag_64\n      jump\t// in\n    tag_197:\n        /* \"#utility.yul\":9568:9602   */\n      tag_82\n      jump\t// in\n    tag_196:\n        /* \"#utility.yul\":9550:9603   */\n      tag_64\n      jump\t// in\n    tag_195:\n        /* \"#utility.yul\":9537:9603   */\n      swap1\n      pop\n        /* \"#utility.yul\":9467:9609   */\n      swap2\n      swap1\n      pop\n      jump\t// out\n        /* \"#utility.yul\":9615:9690   */\n    tag_84:\n        /* \"#utility.yul\":9658:9661   */\n      0x00\n        /* \"#utility.yul\":9679:9684   */\n      dup2\n        /* \"#utility.yul\":9672:9684   */\n      swap1\n      pop\n        /* \"#utility.yul\":9615:9690   */\n      swap2\n      swap1\n      pop\n      jump\t// out\n        /* \"#utility.yul\":9696:9965   */\n    tag_85:\n        /* \"#utility.yul\":9806:9845   */\n      tag_200\n        /* \"#utility.yul\":9837:9844   */\n      dup4\n        /* \"#utility.yul\":9806:9845   */\n      tag_83\n      jump\t// in\n    tag_200:\n        /* \"#utility.yul\":9867:9958   */\n      tag_201\n        /* \"#utility.yul\":9916:9957   */\n      tag_202\n        /* \"#utility.yul\":9940:9956   */\n      dup3\n        /* \"#utility.yul\":9916:9957   */\n      tag_84\n      jump\t// in\n    tag_202:\n        /* \"#utility.yul\":9908:9914   */\n      dup5\n        /* \"#utility.yul\":9901:9905   */\n      dup5\n        /* \"#utility.yul\":9895:9906   */\n      sload\n        /* \"#utility.yul\":9867:9958   */\n      tag_81\n      jump\t// in\n    tag_201:\n        /* \"#utility.yul\":9861:9865   */\n      dup3\n        /* \"#utility.yul\":9854:9959   */\n      sstore\n        /* \"#utility.yul\":9772:9965   */\n      pop\n        /* \"#utility.yul\":9696:9965   */\n      pop\n      pop\n      pop\n      jump\t// out\n        /* \"#utility.yul\":9971:10044   */\n    tag_86:\n        /* \"#utility.yul\":10016:10019   */\n      0x00\n        /* \"#utility.yul\":9971:10044   */\n      swap1\n      jump\t// out\n        /* \"#utility.yul\":10050:10239   */\n    tag_87:\n        /* \"#utility.yul\":10127:10159   */\n      tag_205\n      tag_86\n      jump\t// in\n    tag_205:\n        /* \"#utility.yul\":10168:10233   */\n      tag_206\n        /* \"#utility.yul\":10226:10232   */\n      dup2\n        /* \"#utility.yul\":10218:10224   */\n      dup5\n        /* \"#utility.yul\":10212:10216   */\n      dup5\n        /* \"#utility.yul\":10168:10233   */\n      tag_85\n      jump\t// in\n    tag_206:\n        /* \"#utility.yul\":10103:10239   */\n      pop\n        /* \"#utility.yul\":10050:10239   */\n      pop\n      pop\n      jump\t// out\n        /* \"#utility.yul\":10245:10431   */\n    tag_88:\n        /* \"#utility.yul\":10305:10425   */\n    tag_208:\n        /* \"#utility.yul\":10322:10325   */\n      dup2\n        /* \"#utility.yul\":10315:10320   */\n      dup2\n        /* \"#utility.yul\":10312:10326   */\n      lt\n        /* \"#utility.yul\":10305:10425   */\n      iszero\n      tag_210\n      jumpi\n        /* \"#utility.yul\":10376:10415   */\n      tag_211\n        /* \"#utility.yul\":10413:10414   */\n      0x00\n        /* \"#utility.yul\":10406:10411   */\n      dup3\n        /* \"#utility.yul\":10376:10415   */\n      tag_87\n      jump\t// in\n    tag_211:\n        /* \"#utility.yul\":10349:10350   */\n      0x01\n        /* \"#utility.yul\":10342:10347   */\n      dup2\n        /* \"#utility.yul\":10338:10351   */\n      add\n        /* \"#utility.yul\":10329:10351   */\n      swap1\n      pop\n        /* \"#utility.yul\":10305:10425   */\n      jump(tag_208)\n    tag_210:\n        /* \"#utility.yul\":10245:10431   */\n      pop\n      pop\n      jump\t// out\n        /* \"#utility.yul\":10437:10980   */\n    tag_89:\n        /* \"#utility.yul\":10538:10540   */\n      0x1f\n        /* \"#utility.yul\":10533:10536   */\n      dup3\n        /* \"#utility.yul\":10530:10541   */\n      gt\n        /* \"#utility.yul\":10527:10973   */\n      iszero\n      tag_213\n      jumpi\n        /* \"#utility.yul\":10572:10610   */\n      tag_214\n        /* \"#utility.yul\":10604:10609   */\n      dup2\n        /* \"#utility.yul\":10572:10610   */\n      tag_78\n      jump\t// in\n    tag_214:\n        /* \"#utility.yul\":10656:10685   */\n      tag_215\n        /* \"#utility.yul\":10674:10684   */\n      dup5\n        /* \"#utility.yul\":10656:10685   */\n      tag_79\n      jump\t// in\n    tag_215:\n        /* \"#utility.yul\":10646:10654   */\n      dup2\n        /* \"#utility.yul\":10642:10686   */\n      add\n        /* \"#utility.yul\":10839:10841   */\n      0x20\n        /* \"#utility.yul\":10827:10837   */\n      dup6\n        /* \"#utility.yul\":10824:10842   */\n      lt\n        /* \"#utility.yul\":10821:10870   */\n      iszero\n      tag_216\n      jumpi\n        /* \"#utility.yul\":10860:10868   */\n      dup2\n        /* \"#utility.yul\":10845:10868   */\n      swap1\n      pop\n        /* \"#utility.yul\":10821:10870   */\n    tag_216:\n        /* \"#utility.yul\":10883:10963   */\n      tag_217\n        /* \"#utility.yul\":10939:10961   */\n      tag_218\n        /* \"#utility.yul\":10957:10960   */\n      dup6\n        /* \"#utility.yul\":10939:10961   */\n      tag_79\n      jump\t// in\n    tag_218:\n        /* \"#utility.yul\":10929:10937   */\n      dup4\n        /* \"#utility.yul\":10925:10962   */\n      add\n        /* \"#utility.yul\":10912:10923   */\n      dup3\n        /* \"#utility.yul\":10883:10963   */\n      tag_88\n      jump\t// in\n    tag_217:\n        /* \"#utility.yul\":10542:10973   */\n      pop\n      pop\n        /* \"#utility.yul\":10527:10973   */\n    tag_213:\n        /* \"#utility.yul\":10437:10980   */\n      pop\n      pop\n      pop\n      jump\t// out\n        /* \"#utility.yul\":10986:11103   */\n    tag_90:\n        /* \"#utility.yul\":11040:11048   */\n      0x00\n        /* \"#utility.yul\":11090:11095   */\n      dup3\n        /* \"#utility.yul\":11084:11088   */\n      dup3\n        /* \"#utility.yul\":11080:11096   */\n      shr\n        /* \"#utility.yul\":11059:11096   */\n      swap1\n      pop\n        /* \"#utility.yul\":10986:11103   */\n      swap3\n      swap2\n      pop\n      pop\n      jump\t// out\n        /* \"#utility.yul\":11109:11278   */\n    tag_91:\n        /* \"#utility.yul\":11153:11159   */\n      0x00\n        /* \"#utility.yul\":11186:11237   */\n      tag_221\n        /* \"#utility.yul\":11234:11235   */\n      0x00\n        /* \"#utility.yul\":11230:11236   */\n      not\n        /* \"#utility.yul\":11222:11227   */\n      dup5\n        /* \"#utility.yul\":11219:11220   */\n      0x08\n        /* \"#utility.yul\":11215:11228   */\n      mul\n        /* \"#utility.yul\":11186:11237   */\n      tag_90\n      jump\t// in\n    tag_221:\n        /* \"#utility.yul\":11182:11238   */\n      not\n        /* \"#utility.yul\":11267:11271   */\n      dup1\n        /* \"#utility.yul\":11261:11265   */\n      dup4\n        /* \"#utility.yul\":11257:11272   */\n      and\n        /* \"#utility.yul\":11247:11272   */\n      swap2\n      pop\n        /* \"#utility.yul\":11160:11278   */\n      pop\n        /* \"#utility.yul\":11109:11278   */\n      swap3\n      swap2\n      pop\n      pop\n      jump\t// out\n        /* \"#utility.yul\":11283:11578   */\n    tag_92:\n        /* \"#utility.yul\":11359:11363   */\n      0x00\n        /* \"#utility.yul\":11505:11534   */\n      tag_223\n        /* \"#utility.yul\":11530:11533   */\n      dup4\n        /* \"#utility.yul\":11524:11528   */\n      dup4\n        /* \"#utility.yul\":11505:11534   */\n      tag_91\n      jump\t// in\n    tag_223:\n        /* \"#utility.yul\":11497:11534   */\n      swap2\n      pop\n        /* \"#utility.yul\":11567:11570   */\n      dup3\n        /* \"#utility.yul\":11564:11565   */\n      0x02\n        /* \"#utility.yul\":11560:11571   */\n      mul\n        /* \"#utility.yul\":11554:11558   */\n      dup3\n        /* \"#utility.yul\":11551:11572   */\n      or\n        /* \"#utility.yul\":11543:11572   */\n      swap1\n      pop\n        /* \"#utility.yul\":11283:11578   */\n      swap3\n      swap2\n      pop\n      pop\n      jump\t// out\n        /* \"#utility.yul\":11583:12978   */\n    tag_42:\n        /* \"#utility.yul\":11700:11737   */\n      tag_225\n        /* \"#utility.yul\":11733:11736   */\n      dup3\n        /* \"#utility.yul\":11700:11737   */\n      tag_56\n      jump\t// in\n    tag_225:\n        /* \"#utility.yul\":11802:11820   */\n      0xffffffffffffffff\n        /* \"#utility.yul\":11794:11800   */\n      dup2\n        /* \"#utility.yul\":11791:11821   */\n      gt\n        /* \"#utility.yul\":11788:11844   */\n      iszero\n      tag_226\n      jumpi\n        /* \"#utility.yul\":11824:11842   */\n      tag_227\n      tag_68\n      jump\t// in\n    tag_227:\n        /* \"#utility.yul\":11788:11844   */\n    tag_226:\n        /* \"#utility.yul\":11868:11906   */\n      tag_228\n        /* \"#utility.yul\":11900:11904   */\n      dup3\n        /* \"#utility.yul\":11894:11905   */\n      sload\n        /* \"#utility.yul\":11868:11906   */\n      tag_33\n      jump\t// in\n    tag_228:\n        /* \"#utility.yul\":11953:12020   */\n      tag_229\n        /* \"#utility.yul\":12013:12019   */\n      dup3\n        /* \"#utility.yul\":12005:12011   */\n      dup3\n        /* \"#utility.yul\":11999:12003   */\n      dup6\n        /* \"#utility.yul\":11953:12020   */\n      tag_89\n      jump\t// in\n    tag_229:\n        /* \"#utility.yul\":12047:12048   */\n      0x00\n        /* \"#utility.yul\":12071:12075   */\n      0x20\n        /* \"#utility.yul\":12058:12075   */\n      swap1\n      pop\n        /* \"#utility.yul\":12103:12105   */\n      0x1f\n        /* \"#utility.yul\":12095:12101   */\n      dup4\n        /* \"#utility.yul\":12092:12106   */\n      gt\n        /* \"#utility.yul\":12120:12121   */\n      0x01\n        /* \"#utility.yul\":12115:12733   */\n      dup2\n      eq\n      tag_231\n      jumpi\n        /* \"#utility.yul\":12777:12778   */\n      0x00\n        /* \"#utility.yul\":12794:12800   */\n      dup5\n        /* \"#utility.yul\":12791:12868   */\n      iszero\n      tag_232\n      jumpi\n        /* \"#utility.yul\":12843:12852   */\n      dup3\n        /* \"#utility.yul\":12838:12841   */\n      dup8\n        /* \"#utility.yul\":12834:12853   */\n      add\n        /* \"#utility.yul\":12828:12854   */\n      mload\n        /* \"#utility.yul\":12819:12854   */\n      swap1\n      pop\n        /* \"#utility.yul\":12791:12868   */\n    tag_232:\n        /* \"#utility.yul\":12894:12961   */\n      tag_233\n        /* \"#utility.yul\":12954:12960   */\n      dup6\n        /* \"#utility.yul\":12947:12952   */\n      dup3\n        /* \"#utility.yul\":12894:12961   */\n      tag_92\n      jump\t// in\n    tag_233:\n        /* \"#utility.yul\":12888:12892   */\n      dup7\n        /* \"#utility.yul\":12881:12962   */\n      sstore\n        /* \"#utility.yul\":12750:12972   */\n      pop\n        /* \"#utility.yul\":12085:12972   */\n      jump(tag_230)\n        /* \"#utility.yul\":12115:12733   */\n    tag_231:\n        /* \"#utility.yul\":12167:12171   */\n      0x1f\n        /* \"#utility.yul\":12163:12172   */\n      not\n        /* \"#utility.yul\":12155:12161   */\n      dup5\n        /* \"#utility.yul\":12151:12173   */\n      and\n        /* \"#utility.yul\":12201:12238   */\n      tag_234\n        /* \"#utility.yul\":12233:12237   */\n      dup7\n        /* \"#utility.yul\":12201:12238   */\n      tag_78\n      jump\t// in\n    tag_234:\n        /* \"#utility.yul\":12260:12261   */\n      0x00\n        /* \"#utility.yul\":12274:12482   */\n    tag_235:\n        /* \"#utility.yul\":12288:12295   */\n      dup3\n        /* \"#utility.yul\":12285:12286   */\n      dup2\n        /* \"#utility.yul\":12282:12296   */\n      lt\n        /* \"#utility.yul\":12274:12482   */\n      iszero\n      tag_237\n      jumpi\n        /* \"#utility.yul\":12367:12376   */\n      dup5\n        /* \"#utility.yul\":12362:12365   */\n      dup10\n        /* \"#utility.yul\":12358:12377   */\n      add\n        /* \"#utility.yul\":12352:12378   */\n      mload\n        /* \"#utility.yul\":12344:12350   */\n      dup3\n        /* \"#utility.yul\":12337:12379   */\n      sstore\n        /* \"#utility.yul\":12418:12419   */\n      0x01\n        /* \"#utility.yul\":12410:12416   */\n      dup3\n        /* \"#utility.yul\":12406:12420   */\n      add\n        /* \"#utility.yul\":12396:12420   */\n      swap2\n      pop\n        /* \"#utility.yul\":12465:12467   */\n      0x20\n        /* \"#utility.yul\":12454:12463   */\n      dup6\n        /* \"#utility.yul\":12450:12468   */\n      add\n        /* \"#utility.yul\":12437:12468   */\n      swap5\n      pop\n        /* \"#utility.yul\":12311:12315   */\n      0x20\n        /* \"#utility.yul\":12308:12309   */\n      dup2\n        /* \"#utility.yul\":12304:12316   */\n      add\n        /* \"#utility.yul\":12299:12316   */\n      swap1\n      pop\n        /* \"#utility.yul\":12274:12482   */\n      jump(tag_235)\n    tag_237:\n        /* \"#utility.yul\":12510:12516   */\n      dup7\n        /* \"#utility.yul\":12501:12508   */\n      dup4\n        /* \"#utility.yul\":12498:12517   */\n      lt\n        /* \"#utility.yul\":12495:12674   */\n      iszero\n      tag_238\n      jumpi\n        /* \"#utility.yul\":12568:12577   */\n      dup5\n        /* \"#utility.yul\":12563:12566   */\n      dup10\n        /* \"#utility.yul\":12559:12578   */\n      add\n        /* \"#utility.yul\":12553:12579   */\n      mload\n        /* \"#utility.yul\":12611:12659   */\n      tag_239\n        /* \"#utility.yul\":12653:12657   */\n      0x1f\n        /* \"#utility.yul\":12645:12651   */\n      dup10\n        /* \"#utility.yul\":12641:12658   */\n      and\n        /* \"#utility.yul\":12630:12639   */\n      dup3\n        /* \"#utility.yul\":12611:12659   */\n      tag_91\n      jump\t// in\n    tag_239:\n        /* \"#utility.yul\":12603:12609   */\n      dup4\n        /* \"#utility.yul\":12596:12660   */\n      sstore\n        /* \"#utility.yul\":12518:12674   */\n      pop\n        /* \"#utility.yul\":12495:12674   */\n    tag_238:\n        /* \"#utility.yul\":12720:12721   */\n      0x01\n        /* \"#utility.yul\":12716:12717   */\n      0x02\n        /* \"#utility.yul\":12708:12714   */\n      dup9\n        /* \"#utility.yul\":12704:12718   */\n      mul\n        /* \"#utility.yul\":12700:12722   */\n      add\n        /* \"#utility.yul\":12694:12698   */\n      dup9\n        /* \"#utility.yul\":12687:12723   */\n      sstore\n        /* \"#utility.yul\":12122:12733   */\n      pop\n      pop\n      pop\n        /* \"#utility.yul\":12085:12972   */\n    tag_230:\n      pop\n        /* \"#utility.yul\":11675:12978   */\n      pop\n      pop\n      pop\n        /* \"#utility.yul\":11583:12978   */\n      pop\n      pop\n      jump\t// out\n        /* \"#utility.yul\":12984:13164   */\n    tag_93:\n        /* \"#utility.yul\":13032:13109   */\n      0x4e487b7100000000000000000000000000000000000000000000000000000000\n        /* \"#utility.yul\":13029:13030   */\n      0x00\n        /* \"#utility.yul\":13022:13110   */\n      mstore\n        /* \"#utility.yul\":13129:13133   */\n      0x11\n        /* \"#utility.yul\":13126:13127   */\n      0x04\n        /* \"#utility.yul\":13119:13134   */\n      mstore\n        /* \"#utility.yul\":13153:13157   */\n      0x24\n        /* \"#utility.yul\":13150:13151   */\n      0x00\n        /* \"#utility.yul\":13143:13158   */\n      revert\n        /* \"#utility.yul\":13170:13361   */\n    tag_45:\n        /* \"#utility.yul\":13210:13213   */\n      0x00\n        /* \"#utility.yul\":13229:13249   */\n      tag_242\n        /* \"#utility.yul\":13247:13248   */\n      dup3\n        /* \"#utility.yul\":13229:13249   */\n      tag_64\n      jump\t// in\n    tag_242:\n        /* \"#utility.yul\":13224:13249   */\n      swap2\n      pop\n        /* \"#utility.yul\":13263:13283   */\n      tag_243\n        /* \"#utility.yul\":13281:13282   */\n      dup4\n        /* \"#utility.yul\":13263:13283   */\n      tag_64\n      jump\t// in\n    tag_243:\n        /* \"#utility.yul\":13258:13283   */\n      swap3\n      pop\n        /* \"#utility.yul\":13306:13307   */\n      dup3\n        /* \"#utility.yul\":13303:13304   */\n      dup3\n        /* \"#utility.yul\":13299:13308   */\n      add\n        /* \"#utility.yul\":13292:13308   */\n      swap1\n      pop\n        /* \"#utility.yul\":13327:13330   */\n      dup1\n        /* \"#utility.yul\":13324:13325   */\n      dup3\n        /* \"#utility.yul\":13321:13331   */\n      gt\n        /* \"#utility.yul\":13318:13354   */\n      iszero\n      tag_244\n      jumpi\n        /* \"#utility.yul\":13334:13352   */\n      tag_245\n      tag_93\n      jump\t// in\n    tag_245:\n        /* \"#utility.yul\":13318:13354   */\n    tag_244:\n        /* \"#utility.yul\":13170:13361   */\n      swap3\n      swap2\n      pop\n      pop\n      jump\t// out\n\n    auxdata: 0xa2646970667358221220f27742a24dc4640a0cb34fff62744eedcf8e6601b153406b26cf8e156103336664736f6c634300081a0033\n}\n",
				"bytecode": {
					"linkReferences": {},
					"object": "6080604052348015600e575f80fd5b50610a668061001c5f395ff3fe60806040526004361061003e575f3560e01c8063110ab06814610042578063681161771461007e578063b2a36319146100ba578063c8f00c9f146100e2575b5f80fd5b34801561004d575f80fd5b5061006860048036038101906100639190610385565b6100fe565b60405161007591906104db565b60405180910390f35b348015610089575f80fd5b506100a4600480360381019061009f9190610385565b61020f565b6040516100b19190610513565b60405180910390f35b3480156100c5575f80fd5b506100e060048036038101906100db9190610658565b610254565b005b6100fc60048036038101906100f791906106dc565b6102c5565b005b606060015f8373ffffffffffffffffffffffffffffffffffffffff1673ffffffffffffffffffffffffffffffffffffffff1681526020019081526020015f20805480602002602001604051908101604052809291908181526020015f905b82821015610204578382905f5260205f2001805461017990610734565b80601f01602080910402602001604051908101604052809291908181526020018280546101a590610734565b80156101f05780601f106101c7576101008083540402835291602001916101f0565b820191905f5260205f20905b8154815290600101906020018083116101d357829003601f168201915b50505050508152602001906001019061015c565b505050509050919050565b5f805f8373ffffffffffffffffffffffffffffffffffffffff1673ffffffffffffffffffffffffffffffffffffffff1681526020019081526020015f20549050919050565b60015f8373ffffffffffffffffffffffffffffffffffffffff1673ffffffffffffffffffffffffffffffffffffffff1681526020019081526020015f2081908060018154018082558091505060019003905f5260205f20015f9091909190915090816102c09190610901565b505050565b805f803373ffffffffffffffffffffffffffffffffffffffff1673ffffffffffffffffffffffffffffffffffffffff1681526020019081526020015f205f82825461031091906109fd565b9250508190555050565b5f604051905090565b5f80fd5b5f80fd5b5f73ffffffffffffffffffffffffffffffffffffffff82169050919050565b5f6103548261032b565b9050919050565b6103648161034a565b811461036e575f80fd5b50565b5f8135905061037f8161035b565b92915050565b5f6020828403121561039a57610399610323565b5b5f6103a784828501610371565b91505092915050565b5f81519050919050565b5f82825260208201905092915050565b5f819050602082019050919050565b5f81519050919050565b5f82825260208201905092915050565b8281835e5f83830152505050565b5f601f19601f8301169050919050565b5f61041b826103d9565b61042581856103e3565b93506104358185602086016103f3565b61043e81610401565b840191505092915050565b5f6104548383610411565b905092915050565b5f602082019050919050565b5f610472826103b0565b61047c81856103ba565b93508360208202850161048e856103ca565b805f5b858110156104c957848403895281516104aa8582610449565b94506104b58361045c565b925060208a01995050600181019050610491565b50829750879550505050505092915050565b5f6020820190508181035f8301526104f38184610468565b905092915050565b5f819050919050565b61050d816104fb565b82525050565b5f6020820190506105265f830184610504565b92915050565b5f80fd5b5f80fd5b7f4e487b71000000000000000000000000000000000000000000000000000000005f52604160045260245ffd5b61056a82610401565b810181811067ffffffffffffffff8211171561058957610588610534565b5b80604052505050565b5f61059b61031a565b90506105a78282610561565b919050565b5f67ffffffffffffffff8211156105c6576105c5610534565b5b6105cf82610401565b9050602081019050919050565b828183375f83830152505050565b5f6105fc6105f7846105ac565b610592565b90508281526020810184848401111561061857610617610530565b5b6106238482856105dc565b509392505050565b5f82601f83011261063f5761063e61052c565b5b813561064f8482602086016105ea565b91505092915050565b5f806040838503121561066e5761066d610323565b5b5f61067b85828601610371565b925050602083013567ffffffffffffffff81111561069c5761069b610327565b5b6106a88582860161062b565b9150509250929050565b6106bb816104fb565b81146106c5575f80fd5b50565b5f813590506106d6816106b2565b92915050565b5f602082840312156106f1576106f0610323565b5b5f6106fe848285016106c8565b91505092915050565b7f4e487b71000000000000000000000000000000000000000000000000000000005f52602260045260245ffd5b5f600282049050600182168061074b57607f821691505b60208210810361075e5761075d610707565b5b50919050565b5f819050815f5260205f209050919050565b5f6020601f8301049050919050565b5f82821b905092915050565b5f600883026107c07fffffffffffffffffffffffffffffffffffffffffffffffffffffffffffffffff82610785565b6107ca8683610785565b95508019841693508086168417925050509392505050565b5f819050919050565b5f6108056108006107fb846104fb565b6107e2565b6104fb565b9050919050565b5f819050919050565b61081e836107eb565b61083261082a8261080c565b848454610791565b825550505050565b5f90565b61084661083a565b610851818484610815565b505050565b5b81811015610874576108695f8261083e565b600181019050610857565b5050565b601f8211156108b95761088a81610764565b61089384610776565b810160208510156108a2578190505b6108b66108ae85610776565b830182610856565b50505b505050565b5f82821c905092915050565b5f6108d95f19846008026108be565b1980831691505092915050565b5f6108f183836108ca565b9150826002028217905092915050565b61090a826103d9565b67ffffffffffffffff81111561092357610922610534565b5b61092d8254610734565b610938828285610878565b5f60209050601f831160018114610969575f8415610957578287015190505b61096185826108e6565b8655506109c8565b601f19841661097786610764565b5f5b8281101561099e57848901518255600182019150602085019450602081019050610979565b868310156109bb57848901516109b7601f8916826108ca565b8355505b6001600288020188555050505b505050505050565b7f4e487b71000000000000000000000000000000000000000000000000000000005f52601160045260245ffd5b5f610a07826104fb565b9150610a12836104fb565b9250828201905080821115610a2a57610a296109d0565b5b9291505056fea2646970667358221220f27742a24dc4640a0cb34fff62744eedcf8e6601b153406b26cf8e156103336664736f6c634300081a0033",
					"opcodes": "PUSH1 0x80 PUSH1 0x40 MSTORE CALLVALUE DUP1 ISZERO PUSH1 0xE JUMPI PUSH0 DUP1 REVERT JUMPDEST POP PUSH2 0xA66 DUP1 PUSH2 0x1C PUSH0 CODECOPY PUSH0 RETURN INVALID PUSH1 0x80 PUSH1 0x40 MSTORE PUSH1 0x4 CALLDATASIZE LT PUSH2 0x3E JUMPI PUSH0 CALLDATALOAD PUSH1 0xE0 SHR DUP1 PUSH4 0x110AB068 EQ PUSH2 0x42 JUMPI DUP1 PUSH4 0x68116177 EQ PUSH2 0x7E JUMPI DUP1 PUSH4 0xB2A36319 EQ PUSH2 0xBA JUMPI DUP1 PUSH4 0xC8F00C9F EQ PUSH2 0xE2 JUMPI JUMPDEST PUSH0 DUP1 REVERT JUMPDEST CALLVALUE DUP1 ISZERO PUSH2 0x4D JUMPI PUSH0 DUP1 REVERT JUMPDEST POP PUSH2 0x68 PUSH1 0x4 DUP1 CALLDATASIZE SUB DUP2 ADD SWAP1 PUSH2 0x63 SWAP2 SWAP1 PUSH2 0x385 JUMP JUMPDEST PUSH2 0xFE JUMP JUMPDEST PUSH1 0x40 MLOAD PUSH2 0x75 SWAP2 SWAP1 PUSH2 0x4DB JUMP JUMPDEST PUSH1 0x40 MLOAD DUP1 SWAP2 SUB SWAP1 RETURN JUMPDEST CALLVALUE DUP1 ISZERO PUSH2 0x89 JUMPI PUSH0 DUP1 REVERT JUMPDEST POP PUSH2 0xA4 PUSH1 0x4 DUP1 CALLDATASIZE SUB DUP2 ADD SWAP1 PUSH2 0x9F SWAP2 SWAP1 PUSH2 0x385 JUMP JUMPDEST PUSH2 0x20F JUMP JUMPDEST PUSH1 0x40 MLOAD PUSH2 0xB1 SWAP2 SWAP1 PUSH2 0x513 JUMP JUMPDEST PUSH1 0x40 MLOAD DUP1 SWAP2 SUB SWAP1 RETURN JUMPDEST CALLVALUE DUP1 ISZERO PUSH2 0xC5 JUMPI PUSH0 DUP1 REVERT JUMPDEST POP PUSH2 0xE0 PUSH1 0x4 DUP1 CALLDATASIZE SUB DUP2 ADD SWAP1 PUSH2 0xDB SWAP2 SWAP1 PUSH2 0x658 JUMP JUMPDEST PUSH2 0x254 JUMP JUMPDEST STOP JUMPDEST PUSH2 0xFC PUSH1 0x4 DUP1 CALLDATASIZE SUB DUP2 ADD SWAP1 PUSH2 0xF7 SWAP2 SWAP1 PUSH2 0x6DC JUMP JUMPDEST PUSH2 0x2C5 JUMP JUMPDEST STOP JUMPDEST PUSH1 0x60 PUSH1 0x1 PUSH0 DUP4 PUSH20 0xFFFFFFFFFFFFFFFFFFFFFFFFFFFFFFFFFFFFFFFF AND PUSH20 0xFFFFFFFFFFFFFFFFFFFFFFFFFFFFFFFFFFFFFFFF AND DUP2 MSTORE PUSH1 0x20 ADD SWAP1 DUP2 MSTORE PUSH1 0x20 ADD PUSH0 KECCAK256 DUP1 SLOAD DUP1 PUSH1 0x20 MUL PUSH1 0x20 ADD PUSH1 0x40 MLOAD SWAP1 DUP2 ADD PUSH1 0x40 MSTORE DUP1 SWAP3 SWAP2 SWAP1 DUP2 DUP2 MSTORE PUSH1 0x20 ADD PUSH0 SWAP1 JUMPDEST DUP3 DUP3 LT ISZERO PUSH2 0x204 JUMPI DUP4 DUP3 SWAP1 PUSH0 MSTORE PUSH1 0x20 PUSH0 KECCAK256 ADD DUP1 SLOAD PUSH2 0x179 SWAP1 PUSH2 0x734 JUMP JUMPDEST DUP1 PUSH1 0x1F ADD PUSH1 0x20 DUP1 SWAP2 DIV MUL PUSH1 0x20 ADD PUSH1 0x40 MLOAD SWAP1 DUP2 ADD PUSH1 0x40 MSTORE DUP1 SWAP3 SWAP2 SWAP1 DUP2 DUP2 MSTORE PUSH1 0x20 ADD DUP3 DUP1 SLOAD PUSH2 0x1A5 SWAP1 PUSH2 0x734 JUMP JUMPDEST DUP1 ISZERO PUSH2 0x1F0 JUMPI DUP1 PUSH1 0x1F LT PUSH2 0x1C7 JUMPI PUSH2 0x100 DUP1 DUP4 SLOAD DIV MUL DUP4 MSTORE SWAP2 PUSH1 0x20 ADD SWAP2 PUSH2 0x1F0 JUMP JUMPDEST DUP3 ADD SWAP2 SWAP1 PUSH0 MSTORE PUSH1 0x20 PUSH0 KECCAK256 SWAP1 JUMPDEST DUP2 SLOAD DUP2 MSTORE SWAP1 PUSH1 0x1 ADD SWAP1 PUSH1 0x20 ADD DUP1 DUP4 GT PUSH2 0x1D3 JUMPI DUP3 SWAP1 SUB PUSH1 0x1F AND DUP3 ADD SWAP2 JUMPDEST POP POP POP POP POP DUP2 MSTORE PUSH1 0x20 ADD SWAP1 PUSH1 0x1 ADD SWAP1 PUSH2 0x15C JUMP JUMPDEST POP POP POP POP SWAP1 POP SWAP2 SWAP1 POP JUMP JUMPDEST PUSH0 DUP1 PUSH0 DUP4 PUSH20 0xFFFFFFFFFFFFFFFFFFFFFFFFFFFFFFFFFFFFFFFF AND PUSH20 0xFFFFFFFFFFFFFFFFFFFFFFFFFFFFFFFFFFFFFFFF AND DUP2 MSTORE PUSH1 0x20 ADD SWAP1 DUP2 MSTORE PUSH1 0x20 ADD PUSH0 KECCAK256 SLOAD SWAP1 POP SWAP2 SWAP1 POP JUMP JUMPDEST PUSH1 0x1 PUSH0 DUP4 PUSH20 0xFFFFFFFFFFFFFFFFFFFFFFFFFFFFFFFFFFFFFFFF AND PUSH20 0xFFFFFFFFFFFFFFFFFFFFFFFFFFFFFFFFFFFFFFFF AND DUP2 MSTORE PUSH1 0x20 ADD SWAP1 DUP2 MSTORE PUSH1 0x20 ADD PUSH0 KECCAK256 DUP2 SWAP1 DUP1 PUSH1 0x1 DUP2 SLOAD ADD DUP1 DUP3 SSTORE DUP1 SWAP2 POP POP PUSH1 0x1 SWAP1 SUB SWAP1 PUSH0 MSTORE PUSH1 0x20 PUSH0 KECCAK256 ADD PUSH0 SWAP1 SWAP2 SWAP1 SWAP2 SWAP1 SWAP2 POP SWAP1 DUP2 PUSH2 0x2C0 SWAP2 SWAP1 PUSH2 0x901 JUMP JUMPDEST POP POP POP JUMP JUMPDEST DUP1 PUSH0 DUP1 CALLER PUSH20 0xFFFFFFFFFFFFFFFFFFFFFFFFFFFFFFFFFFFFFFFF AND PUSH20 0xFFFFFFFFFFFFFFFFFFFFFFFFFFFFFFFFFFFFFFFF AND DUP2 MSTORE PUSH1 0x20 ADD SWAP1 DUP2 MSTORE PUSH1 0x20 ADD PUSH0 KECCAK256 PUSH0 DUP3 DUP3 SLOAD PUSH2 0x310 SWAP2 SWAP1 PUSH2 0x9FD JUMP JUMPDEST SWAP3 POP POP DUP2 SWAP1 SSTORE POP POP JUMP JUMPDEST PUSH0 PUSH1 0x40 MLOAD SWAP1 POP SWAP1 JUMP JUMPDEST PUSH0 DUP1 REVERT JUMPDEST PUSH0 DUP1 REVERT JUMPDEST PUSH0 PUSH20 0xFFFFFFFFFFFFFFFFFFFFFFFFFFFFFFFFFFFFFFFF DUP3 AND SWAP1 POP SWAP2 SWAP1 POP JUMP JUMPDEST PUSH0 PUSH2 0x354 DUP3 PUSH2 0x32B JUMP JUMPDEST SWAP1 POP SWAP2 SWAP1 POP JUMP JUMPDEST PUSH2 0x364 DUP2 PUSH2 0x34A JUMP JUMPDEST DUP2 EQ PUSH2 0x36E JUMPI PUSH0 DUP1 REVERT JUMPDEST POP JUMP JUMPDEST PUSH0 DUP2 CALLDATALOAD SWAP1 POP PUSH2 0x37F DUP2 PUSH2 0x35B JUMP JUMPDEST SWAP3 SWAP2 POP POP JUMP JUMPDEST PUSH0 PUSH1 0x20 DUP3 DUP5 SUB SLT ISZERO PUSH2 0x39A JUMPI PUSH2 0x399 PUSH2 0x323 JUMP JUMPDEST JUMPDEST PUSH0 PUSH2 0x3A7 DUP5 DUP3 DUP6 ADD PUSH2 0x371 JUMP JUMPDEST SWAP2 POP POP SWAP3 SWAP2 POP POP JUMP JUMPDEST PUSH0 DUP2 MLOAD SWAP1 POP SWAP2 SWAP1 POP JUMP JUMPDEST PUSH0 DUP3 DUP3 MSTORE PUSH1 0x20 DUP3 ADD SWAP1 POP SWAP3 SWAP2 POP POP JUMP JUMPDEST PUSH0 DUP2 SWAP1 POP PUSH1 0x20 DUP3 ADD SWAP1 POP SWAP2 SWAP1 POP JUMP JUMPDEST PUSH0 DUP2 MLOAD SWAP1 POP SWAP2 SWAP1 POP JUMP JUMPDEST PUSH0 DUP3 DUP3 MSTORE PUSH1 0x20 DUP3 ADD SWAP1 POP SWAP3 SWAP2 POP POP JUMP JUMPDEST DUP3 DUP2 DUP4 MCOPY PUSH0 DUP4 DUP4 ADD MSTORE POP POP POP JUMP JUMPDEST PUSH0 PUSH1 0x1F NOT PUSH1 0x1F DUP4 ADD AND SWAP1 POP SWAP2 SWAP1 POP JUMP JUMPDEST PUSH0 PUSH2 0x41B DUP3 PUSH2 0x3D9 JUMP JUMPDEST PUSH2 0x425 DUP2 DUP6 PUSH2 0x3E3 JUMP JUMPDEST SWAP4 POP PUSH2 0x435 DUP2 DUP6 PUSH1 0x20 DUP7 ADD PUSH2 0x3F3 JUMP JUMPDEST PUSH2 0x43E DUP2 PUSH2 0x401 JUMP JUMPDEST DUP5 ADD SWAP2 POP POP SWAP3 SWAP2 POP POP JUMP JUMPDEST PUSH0 PUSH2 0x454 DUP4 DUP4 PUSH2 0x411 JUMP JUMPDEST SWAP1 POP SWAP3 SWAP2 POP POP JUMP JUMPDEST PUSH0 PUSH1 0x20 DUP3 ADD SWAP1 POP SWAP2 SWAP1 POP JUMP JUMPDEST PUSH0 PUSH2 0x472 DUP3 PUSH2 0x3B0 JUMP JUMPDEST PUSH2 0x47C DUP2 DUP6 PUSH2 0x3BA JUMP JUMPDEST SWAP4 POP DUP4 PUSH1 0x20 DUP3 MUL DUP6 ADD PUSH2 0x48E DUP6 PUSH2 0x3CA JUMP JUMPDEST DUP1 PUSH0 JUMPDEST DUP6 DUP2 LT ISZERO PUSH2 0x4C9 JUMPI DUP5 DUP5 SUB DUP10 MSTORE DUP2 MLOAD PUSH2 0x4AA DUP6 DUP3 PUSH2 0x449 JUMP JUMPDEST SWAP5 POP PUSH2 0x4B5 DUP4 PUSH2 0x45C JUMP JUMPDEST SWAP3 POP PUSH1 0x20 DUP11 ADD SWAP10 POP POP PUSH1 0x1 DUP2 ADD SWAP1 POP PUSH2 0x491 JUMP JUMPDEST POP DUP3 SWAP8 POP DUP8 SWAP6 POP POP POP POP POP POP SWAP3 SWAP2 POP POP JUMP JUMPDEST PUSH0 PUSH1 0x20 DUP3 ADD SWAP1 POP DUP2 DUP2 SUB PUSH0 DUP4 ADD MSTORE PUSH2 0x4F3 DUP2 DUP5 PUSH2 0x468 JUMP JUMPDEST SWAP1 POP SWAP3 SWAP2 POP POP JUMP JUMPDEST PUSH0 DUP2 SWAP1 POP SWAP2 SWAP1 POP JUMP JUMPDEST PUSH2 0x50D DUP2 PUSH2 0x4FB JUMP JUMPDEST DUP3 MSTORE POP POP JUMP JUMPDEST PUSH0 PUSH1 0x20 DUP3 ADD SWAP1 POP PUSH2 0x526 PUSH0 DUP4 ADD DUP5 PUSH2 0x504 JUMP JUMPDEST SWAP3 SWAP2 POP POP JUMP JUMPDEST PUSH0 DUP1 REVERT JUMPDEST PUSH0 DUP1 REVERT JUMPDEST PUSH32 0x4E487B7100000000000000000000000000000000000000000000000000000000 PUSH0 MSTORE PUSH1 0x41 PUSH1 0x4 MSTORE PUSH1 0x24 PUSH0 REVERT JUMPDEST PUSH2 0x56A DUP3 PUSH2 0x401 JUMP JUMPDEST DUP2 ADD DUP2 DUP2 LT PUSH8 0xFFFFFFFFFFFFFFFF DUP3 GT OR ISZERO PUSH2 0x589 JUMPI PUSH2 0x588 PUSH2 0x534 JUMP JUMPDEST JUMPDEST DUP1 PUSH1 0x40 MSTORE POP POP POP JUMP JUMPDEST PUSH0 PUSH2 0x59B PUSH2 0x31A JUMP JUMPDEST SWAP1 POP PUSH2 0x5A7 DUP3 DUP3 PUSH2 0x561 JUMP JUMPDEST SWAP2 SWAP1 POP JUMP JUMPDEST PUSH0 PUSH8 0xFFFFFFFFFFFFFFFF DUP3 GT ISZERO PUSH2 0x5C6 JUMPI PUSH2 0x5C5 PUSH2 0x534 JUMP JUMPDEST JUMPDEST PUSH2 0x5CF DUP3 PUSH2 0x401 JUMP JUMPDEST SWAP1 POP PUSH1 0x20 DUP2 ADD SWAP1 POP SWAP2 SWAP1 POP JUMP JUMPDEST DUP3 DUP2 DUP4 CALLDATACOPY PUSH0 DUP4 DUP4 ADD MSTORE POP POP POP JUMP JUMPDEST PUSH0 PUSH2 0x5FC PUSH2 0x5F7 DUP5 PUSH2 0x5AC JUMP JUMPDEST PUSH2 0x592 JUMP JUMPDEST SWAP1 POP DUP3 DUP2 MSTORE PUSH1 0x20 DUP2 ADD DUP5 DUP5 DUP5 ADD GT ISZERO PUSH2 0x618 JUMPI PUSH2 0x617 PUSH2 0x530 JUMP JUMPDEST JUMPDEST PUSH2 0x623 DUP5 DUP3 DUP6 PUSH2 0x5DC JUMP JUMPDEST POP SWAP4 SWAP3 POP POP POP JUMP JUMPDEST PUSH0 DUP3 PUSH1 0x1F DUP4 ADD SLT PUSH2 0x63F JUMPI PUSH2 0x63E PUSH2 0x52C JUMP JUMPDEST JUMPDEST DUP2 CALLDATALOAD PUSH2 0x64F DUP5 DUP3 PUSH1 0x20 DUP7 ADD PUSH2 0x5EA JUMP JUMPDEST SWAP2 POP POP SWAP3 SWAP2 POP POP JUMP JUMPDEST PUSH0 DUP1 PUSH1 0x40 DUP4 DUP6 SUB SLT ISZERO PUSH2 0x66E JUMPI PUSH2 0x66D PUSH2 0x323 JUMP JUMPDEST JUMPDEST PUSH0 PUSH2 0x67B DUP6 DUP3 DUP7 ADD PUSH2 0x371 JUMP JUMPDEST SWAP3 POP POP PUSH1 0x20 DUP4 ADD CALLDATALOAD PUSH8 0xFFFFFFFFFFFFFFFF DUP2 GT ISZERO PUSH2 0x69C JUMPI PUSH2 0x69B PUSH2 0x327 JUMP JUMPDEST JUMPDEST PUSH2 0x6A8 DUP6 DUP3 DUP7 ADD PUSH2 0x62B JUMP JUMPDEST SWAP2 POP POP SWAP3 POP SWAP3 SWAP1 POP JUMP JUMPDEST PUSH2 0x6BB DUP2 PUSH2 0x4FB JUMP JUMPDEST DUP2 EQ PUSH2 0x6C5 JUMPI PUSH0 DUP1 REVERT JUMPDEST POP JUMP JUMPDEST PUSH0 DUP2 CALLDATALOAD SWAP1 POP PUSH2 0x6D6 DUP2 PUSH2 0x6B2 JUMP JUMPDEST SWAP3 SWAP2 POP POP JUMP JUMPDEST PUSH0 PUSH1 0x20 DUP3 DUP5 SUB SLT ISZERO PUSH2 0x6F1 JUMPI PUSH2 0x6F0 PUSH2 0x323 JUMP JUMPDEST JUMPDEST PUSH0 PUSH2 0x6FE DUP5 DUP3 DUP6 ADD PUSH2 0x6C8 JUMP JUMPDEST SWAP2 POP POP SWAP3 SWAP2 POP POP JUMP JUMPDEST PUSH32 0x4E487B7100000000000000000000000000000000000000000000000000000000 PUSH0 MSTORE PUSH1 0x22 PUSH1 0x4 MSTORE PUSH1 0x24 PUSH0 REVERT JUMPDEST PUSH0 PUSH1 0x2 DUP3 DIV SWAP1 POP PUSH1 0x1 DUP3 AND DUP1 PUSH2 0x74B JUMPI PUSH1 0x7F DUP3 AND SWAP2 POP JUMPDEST PUSH1 0x20 DUP3 LT DUP2 SUB PUSH2 0x75E JUMPI PUSH2 0x75D PUSH2 0x707 JUMP JUMPDEST JUMPDEST POP SWAP2 SWAP1 POP JUMP JUMPDEST PUSH0 DUP2 SWAP1 POP DUP2 PUSH0 MSTORE PUSH1 0x20 PUSH0 KECCAK256 SWAP1 POP SWAP2 SWAP1 POP JUMP JUMPDEST PUSH0 PUSH1 0x20 PUSH1 0x1F DUP4 ADD DIV SWAP1 POP SWAP2 SWAP1 POP JUMP JUMPDEST PUSH0 DUP3 DUP3 SHL SWAP1 POP SWAP3 SWAP2 POP POP JUMP JUMPDEST PUSH0 PUSH1 0x8 DUP4 MUL PUSH2 0x7C0 PUSH32 0xFFFFFFFFFFFFFFFFFFFFFFFFFFFFFFFFFFFFFFFFFFFFFFFFFFFFFFFFFFFFFFFF DUP3 PUSH2 0x785 JUMP JUMPDEST PUSH2 0x7CA DUP7 DUP4 PUSH2 0x785 JUMP JUMPDEST SWAP6 POP DUP1 NOT DUP5 AND SWAP4 POP DUP1 DUP7 AND DUP5 OR SWAP3 POP POP POP SWAP4 SWAP3 POP POP POP JUMP JUMPDEST PUSH0 DUP2 SWAP1 POP SWAP2 SWAP1 POP JUMP JUMPDEST PUSH0 PUSH2 0x805 PUSH2 0x800 PUSH2 0x7FB DUP5 PUSH2 0x4FB JUMP JUMPDEST PUSH2 0x7E2 JUMP JUMPDEST PUSH2 0x4FB JUMP JUMPDEST SWAP1 POP SWAP2 SWAP1 POP JUMP JUMPDEST PUSH0 DUP2 SWAP1 POP SWAP2 SWAP1 POP JUMP JUMPDEST PUSH2 0x81E DUP4 PUSH2 0x7EB JUMP JUMPDEST PUSH2 0x832 PUSH2 0x82A DUP3 PUSH2 0x80C JUMP JUMPDEST DUP5 DUP5 SLOAD PUSH2 0x791 JUMP JUMPDEST DUP3 SSTORE POP POP POP POP JUMP JUMPDEST PUSH0 SWAP1 JUMP JUMPDEST PUSH2 0x846 PUSH2 0x83A JUMP JUMPDEST PUSH2 0x851 DUP2 DUP5 DUP5 PUSH2 0x815 JUMP JUMPDEST POP POP POP JUMP JUMPDEST JUMPDEST DUP2 DUP2 LT ISZERO PUSH2 0x874 JUMPI PUSH2 0x869 PUSH0 DUP3 PUSH2 0x83E JUMP JUMPDEST PUSH1 0x1 DUP2 ADD SWAP1 POP PUSH2 0x857 JUMP JUMPDEST POP POP JUMP JUMPDEST PUSH1 0x1F DUP3 GT ISZERO PUSH2 0x8B9 JUMPI PUSH2 0x88A DUP2 PUSH2 0x764 JUMP JUMPDEST PUSH2 0x893 DUP5 PUSH2 0x776 JUMP JUMPDEST DUP2 ADD PUSH1 0x20 DUP6 LT ISZERO PUSH2 0x8A2 JUMPI DUP2 SWAP1 POP JUMPDEST PUSH2 0x8B6 PUSH2 0x8AE DUP6 PUSH2 0x776 JUMP JUMPDEST DUP4 ADD DUP3 PUSH2 0x856 JUMP JUMPDEST POP POP JUMPDEST POP POP POP JUMP JUMPDEST PUSH0 DUP3 DUP3 SHR SWAP1 POP SWAP3 SWAP2 POP POP JUMP JUMPDEST PUSH0 PUSH2 0x8D9 PUSH0 NOT DUP5 PUSH1 0x8 MUL PUSH2 0x8BE JUMP JUMPDEST NOT DUP1 DUP4 AND SWAP2 POP POP SWAP3 SWAP2 POP POP JUMP JUMPDEST PUSH0 PUSH2 0x8F1 DUP4 DUP4 PUSH2 0x8CA JUMP JUMPDEST SWAP2 POP DUP3 PUSH1 0x2 MUL DUP3 OR SWAP1 POP SWAP3 SWAP2 POP POP JUMP JUMPDEST PUSH2 0x90A DUP3 PUSH2 0x3D9 JUMP JUMPDEST PUSH8 0xFFFFFFFFFFFFFFFF DUP2 GT ISZERO PUSH2 0x923 JUMPI PUSH2 0x922 PUSH2 0x534 JUMP JUMPDEST JUMPDEST PUSH2 0x92D DUP3 SLOAD PUSH2 0x734 JUMP JUMPDEST PUSH2 0x938 DUP3 DUP3 DUP6 PUSH2 0x878 JUMP JUMPDEST PUSH0 PUSH1 0x20 SWAP1 POP PUSH1 0x1F DUP4 GT PUSH1 0x1 DUP2 EQ PUSH2 0x969 JUMPI PUSH0 DUP5 ISZERO PUSH2 0x957 JUMPI DUP3 DUP8 ADD MLOAD SWAP1 POP JUMPDEST PUSH2 0x961 DUP6 DUP3 PUSH2 0x8E6 JUMP JUMPDEST DUP7 SSTORE POP PUSH2 0x9C8 JUMP JUMPDEST PUSH1 0x1F NOT DUP5 AND PUSH2 0x977 DUP7 PUSH2 0x764 JUMP JUMPDEST PUSH0 JUMPDEST DUP3 DUP2 LT ISZERO PUSH2 0x99E JUMPI DUP5 DUP10 ADD MLOAD DUP3 SSTORE PUSH1 0x1 DUP3 ADD SWAP2 POP PUSH1 0x20 DUP6 ADD SWAP5 POP PUSH1 0x20 DUP2 ADD SWAP1 POP PUSH2 0x979 JUMP JUMPDEST DUP7 DUP4 LT ISZERO PUSH2 0x9BB JUMPI DUP5 DUP10 ADD MLOAD PUSH2 0x9B7 PUSH1 0x1F DUP10 AND DUP3 PUSH2 0x8CA JUMP JUMPDEST DUP4 SSTORE POP JUMPDEST PUSH1 0x1 PUSH1 0x2 DUP9 MUL ADD DUP9 SSTORE POP POP POP JUMPDEST POP POP POP POP POP POP JUMP JUMPDEST PUSH32 0x4E487B7100000000000000000000000000000000000000000000000000000000 PUSH0 MSTORE PUSH1 0x11 PUSH1 0x4 MSTORE PUSH1 0x24 PUSH0 REVERT JUMPDEST PUSH0 PUSH2 0xA07 DUP3 PUSH2 0x4FB JUMP JUMPDEST SWAP2 POP PUSH2 0xA12 DUP4 PUSH2 0x4FB JUMP JUMPDEST SWAP3 POP DUP3 DUP3 ADD SWAP1 POP DUP1 DUP3 GT ISZERO PUSH2 0xA2A JUMPI PUSH2 0xA29 PUSH2 0x9D0 JUMP JUMPDEST JUMPDEST SWAP3 SWAP2 POP POP JUMP INVALID LOG2 PUSH5 0x6970667358 0x22 SLT KECCAK256 CALLCODE PUSH24 0x42A24DC4640A0CB34FFF62744EEDCF8E6601B153406B26CF DUP15 ISZERO PUSH2 0x333 PUSH7 0x64736F6C634300 ADDMOD BYTE STOP CALLER "
				},
				"gasEstimates": {
					"creation": {
						"codeDepositCost": "532400",
						"executionCost": "566",
						"totalCost": "532966"
					},
					"external": {
						"addhisop(address,string)": "infinite",
						"des(uint256)": "infinite",
						"getbalance(address)": "2829",
						"gethisop(address)": "infinite"
					}
				},
				"methodIdentifiers": {
					"addhisop(address,string)": "b2a36319",
					"des(uint256)": "c8f00c9f",
					"getbalance(address)": "68116177",
					"gethisop(address)": "110ab068"
				}
			},
			"storageLayout": {
				"storage": [
					{
						"astId": 5,
						"contract": "solidity/homework/mappingtest.sol:mappingTest",
						"label": "balances",
						"offset": 0,
						"slot": "0",
						"type": "t_mapping(t_address,t_uint256)"
					},
					{
						"astId": 10,
						"contract": "solidity/homework/mappingtest.sol:mappingTest",
						"label": "userhisop",
						"offset": 0,
						"slot": "1",
						"type": "t_mapping(t_address,t_array(t_string_storage)dyn_storage)"
					}
				],
				"types": {
					"t_address": {
						"encoding": "inplace",
						"label": "address",
						"numberOfBytes": "20"
					},
					"t_array(t_string_storage)dyn_storage": {
						"base": "t_string_storage",
						"encoding": "dynamic_array",
						"label": "string[]",
						"numberOfBytes": "32"
					},
					"t_mapping(t_address,t_array(t_string_storage)dyn_storage)": {
						"encoding": "mapping",
						"key": "t_address",
						"label": "mapping(address => string[])",
						"numberOfBytes": "32",
						"value": "t_array(t_string_storage)dyn_storage"
					},
					"t_mapping(t_address,t_uint256)": {
						"encoding": "mapping",
						"key": "t_address",
						"label": "mapping(address => uint256)",
						"numberOfBytes": "32",
						"value": "t_uint256"
					},
					"t_string_storage": {
						"encoding": "bytes",
						"label": "string",
						"numberOfBytes": "32"
					},
					"t_uint256": {
						"encoding": "inplace",
						"label": "uint256",
						"numberOfBytes": "32"
					}
				}
			},
			"userdoc": {
				"kind": "user",
				"methods": {},
				"version": 1
			}
		}
	}
}