{
	"solidity/task1/soliditybase.sol": {
		"SolidityBase": {
			"abi": [
				{
					"inputs": [
						{
							"internalType": "uint256[]",
							"name": "nums",
							"type": "uint256[]"
						},
						{
							"internalType": "uint256",
							"name": "target",
							"type": "uint256"
						}
					],
					"name": "BinarySearch",
					"outputs": [
						{
							"internalType": "uint256",
							"name": "",
							"type": "uint256"
						}
					],
					"stateMutability": "pure",
					"type": "function"
				},
				{
					"inputs": [
						{
							"internalType": "uint256",
							"name": "num",
							"type": "uint256"
						}
					],
					"name": "IntToRoma",
					"outputs": [
						{
							"internalType": "string",
							"name": "",
							"type": "string"
						}
					],
					"stateMutability": "pure",
					"type": "function"
				},
				{
					"inputs": [
						{
							"internalType": "uint256[]",
							"name": "nums1",
							"type": "uint256[]"
						},
						{
							"internalType": "uint256[]",
							"name": "nums2",
							"type": "uint256[]"
						}
					],
					"name": "MergeArr",
					"outputs": [
						{
							"internalType": "uint256[]",
							"name": "",
							"type": "uint256[]"
						}
					],
					"stateMutability": "pure",
					"type": "function"
				},
				{
					"inputs": [
						{
							"internalType": "string",
							"name": "str",
							"type": "string"
						}
					],
					"name": "RomaToInt",
					"outputs": [
						{
							"internalType": "uint256",
							"name": "",
							"type": "uint256"
						}
					],
					"stateMutability": "pure",
					"type": "function"
				},
				{
					"inputs": [
						{
							"internalType": "string",
							"name": "str",
							"type": "string"
						}
					],
					"name": "reverseString",
					"outputs": [
						{
							"internalType": "string",
							"name": "",
							"type": "string"
						}
					],
					"stateMutability": "pure",
					"type": "function"
				}
			],
			"devdoc": {
				"kind": "dev",
				"methods": {},
				"version": 1
			},
			"evm": {
				"assembly": "    /* \"solidity/task1/soliditybase.sol\":560:6716  contract SolidityBase{... */\n  mstore(0x40, 0x80)\n  callvalue\n  dup1\n  iszero\n  tag_1\n  jumpi\n  0x00\n  dup1\n  revert\ntag_1:\n  pop\n  dataSize(sub_0)\n  dup1\n  dataOffset(sub_0)\n  0x00\n  codecopy\n  0x00\n  return\nstop\n\nsub_0: assembly {\n        /* \"solidity/task1/soliditybase.sol\":560:6716  contract SolidityBase{... */\n      mstore(0x40, 0x80)\n      callvalue\n      dup1\n      iszero\n      tag_1\n      jumpi\n      0x00\n      dup1\n      revert\n    tag_1:\n      pop\n      jumpi(tag_2, lt(calldatasize, 0x04))\n      shr(0xe0, calldataload(0x00))\n      dup1\n      0x3407abd0\n      eq\n      tag_3\n      jumpi\n      dup1\n      0x55d278e0\n      eq\n      tag_4\n      jumpi\n      dup1\n      0x5729c211\n      eq\n      tag_5\n      jumpi\n      dup1\n      0xe35d0f99\n      eq\n      tag_6\n      jumpi\n      dup1\n      0xfeb465d9\n      eq\n      tag_7\n      jumpi\n    tag_2:\n      0x00\n      dup1\n      revert\n        /* \"solidity/task1/soliditybase.sol\":3667:5420  function RomaToInt(string memory str) public pure returns(uint) {... */\n    tag_3:\n      tag_8\n      0x04\n      dup1\n      calldatasize\n      sub\n      dup2\n      add\n      swap1\n      tag_9\n      swap2\n      swap1\n      tag_10\n      jump\t// in\n    tag_9:\n      tag_11\n      jump\t// in\n    tag_8:\n      mload(0x40)\n      tag_12\n      swap2\n      swap1\n      tag_13\n      jump\t// in\n    tag_12:\n      mload(0x40)\n      dup1\n      swap2\n      sub\n      swap1\n      return\n        /* \"solidity/task1/soliditybase.sol\":956:3628  function IntToRoma(uint num) public pure returns(string memory){... */\n    tag_4:\n      tag_14\n      0x04\n      dup1\n      calldatasize\n      sub\n      dup2\n      add\n      swap1\n      tag_15\n      swap2\n      swap1\n      tag_16\n      jump\t// in\n    tag_15:\n      tag_17\n      jump\t// in\n    tag_14:\n      mload(0x40)\n      tag_18\n      swap2\n      swap1\n      tag_19\n      jump\t// in\n    tag_18:\n      mload(0x40)\n      dup1\n      swap2\n      sub\n      swap1\n      return\n        /* \"solidity/task1/soliditybase.sol\":612:919  function reverseString(string memory str) public pure returns(string memory) {... */\n    tag_5:\n      tag_20\n      0x04\n      dup1\n      calldatasize\n      sub\n      dup2\n      add\n      swap1\n      tag_21\n      swap2\n      swap1\n      tag_10\n      jump\t// in\n    tag_21:\n      tag_22\n      jump\t// in\n    tag_20:\n      mload(0x40)\n      tag_23\n      swap2\n      swap1\n      tag_19\n      jump\t// in\n    tag_23:\n      mload(0x40)\n      dup1\n      swap2\n      sub\n      swap1\n      return\n        /* \"solidity/task1/soliditybase.sol\":6273:6710  function BinarySearch(uint[] memory nums, uint target) public pure returns(uint){... */\n    tag_6:\n      tag_24\n      0x04\n      dup1\n      calldatasize\n      sub\n      dup2\n      add\n      swap1\n      tag_25\n      swap2\n      swap1\n      tag_26\n      jump\t// in\n    tag_25:\n      tag_27\n      jump\t// in\n    tag_24:\n      mload(0x40)\n      tag_28\n      swap2\n      swap1\n      tag_13\n      jump\t// in\n    tag_28:\n      mload(0x40)\n      dup1\n      swap2\n      sub\n      swap1\n      return\n        /* \"solidity/task1/soliditybase.sol\":5460:6242  function MergeArr(uint[] memory nums1, uint[] memory nums2) public pure returns(uint[] memory){... */\n    tag_7:\n      tag_29\n      0x04\n      dup1\n      calldatasize\n      sub\n      dup2\n      add\n      swap1\n      tag_30\n      swap2\n      swap1\n      tag_31\n      jump\t// in\n    tag_30:\n      tag_32\n      jump\t// in\n    tag_29:\n      mload(0x40)\n      tag_33\n      swap2\n      swap1\n      tag_34\n      jump\t// in\n    tag_33:\n      mload(0x40)\n      dup1\n      swap2\n      sub\n      swap1\n      return\n        /* \"solidity/task1/soliditybase.sol\":3667:5420  function RomaToInt(string memory str) public pure returns(uint) {... */\n    tag_11:\n        /* \"solidity/task1/soliditybase.sol\":3725:3729  uint */\n      0x00\n        /* \"solidity/task1/soliditybase.sol\":3742:3759  bytes memory bstr */\n      dup1\n        /* \"solidity/task1/soliditybase.sol\":3768:3771  str */\n      dup3\n        /* \"solidity/task1/soliditybase.sol\":3742:3772  bytes memory bstr = bytes(str) */\n      swap1\n      pop\n        /* \"solidity/task1/soliditybase.sol\":3783:3794  uint result */\n      0x00\n        /* \"solidity/task1/soliditybase.sol\":3814:3820  uint i */\n      dup1\n        /* \"solidity/task1/soliditybase.sol\":3809:5389  for (uint i=0; i<bstr.length; i++) {... */\n    tag_36:\n        /* \"solidity/task1/soliditybase.sol\":3826:3830  bstr */\n      dup3\n        /* \"solidity/task1/soliditybase.sol\":3826:3837  bstr.length */\n      mload\n        /* \"solidity/task1/soliditybase.sol\":3824:3825  i */\n      dup2\n        /* \"solidity/task1/soliditybase.sol\":3824:3837  i<bstr.length */\n      lt\n        /* \"solidity/task1/soliditybase.sol\":3809:5389  for (uint i=0; i<bstr.length; i++) {... */\n      iszero\n      tag_37\n      jumpi\n        /* \"solidity/task1/soliditybase.sol\":3874:3885  bytes1(\"M\") */\n      0x4d00000000000000000000000000000000000000000000000000000000000000\n        /* \"solidity/task1/soliditybase.sol\":3863:3885  bstr[i] == bytes1(\"M\") */\n      not(0xffffffffffffffffffffffffffffffffffffffffffffffffffffffffffffff)\n      and\n        /* \"solidity/task1/soliditybase.sol\":3863:3867  bstr */\n      dup4\n        /* \"solidity/task1/soliditybase.sol\":3868:3869  i */\n      dup3\n        /* \"solidity/task1/soliditybase.sol\":3863:3870  bstr[i] */\n      dup2\n      mload\n      dup2\n      lt\n      tag_39\n      jumpi\n      tag_40\n      tag_41\n      jump\t// in\n    tag_40:\n    tag_39:\n      0x20\n      add\n      add\n      mload\n      0xf8\n      shr\n      0xf8\n      shl\n        /* \"solidity/task1/soliditybase.sol\":3863:3885  bstr[i] == bytes1(\"M\") */\n      not(0xffffffffffffffffffffffffffffffffffffffffffffffffffffffffffffff)\n      and\n      sub\n        /* \"solidity/task1/soliditybase.sol\":3859:5378  if (bstr[i] == bytes1(\"M\")){... */\n      tag_42\n      jumpi\n        /* \"solidity/task1/soliditybase.sol\":3915:3919  1000 */\n      0x03e8\n        /* \"solidity/task1/soliditybase.sol\":3905:3919  result += 1000 */\n      dup3\n      tag_43\n      swap2\n      swap1\n      tag_44\n      jump\t// in\n    tag_43:\n      swap2\n      pop\n        /* \"solidity/task1/soliditybase.sol\":3859:5378  if (bstr[i] == bytes1(\"M\")){... */\n      jump(tag_45)\n    tag_42:\n        /* \"solidity/task1/soliditybase.sol\":3956:3967  bytes1(\"D\") */\n      0x4400000000000000000000000000000000000000000000000000000000000000\n        /* \"solidity/task1/soliditybase.sol\":3945:3967  bstr[i] == bytes1(\"D\") */\n      not(0xffffffffffffffffffffffffffffffffffffffffffffffffffffffffffffff)\n      and\n        /* \"solidity/task1/soliditybase.sol\":3945:3949  bstr */\n      dup4\n        /* \"solidity/task1/soliditybase.sol\":3950:3951  i */\n      dup3\n        /* \"solidity/task1/soliditybase.sol\":3945:3952  bstr[i] */\n      dup2\n      mload\n      dup2\n      lt\n      tag_46\n      jumpi\n      tag_47\n      tag_41\n      jump\t// in\n    tag_47:\n    tag_46:\n      0x20\n      add\n      add\n      mload\n      0xf8\n      shr\n      0xf8\n      shl\n        /* \"solidity/task1/soliditybase.sol\":3945:3967  bstr[i] == bytes1(\"D\") */\n      not(0xffffffffffffffffffffffffffffffffffffffffffffffffffffffffffffff)\n      and\n      sub\n        /* \"solidity/task1/soliditybase.sol\":3941:5378  if (bstr[i] == bytes1(\"D\")) {... */\n      tag_48\n      jumpi\n        /* \"solidity/task1/soliditybase.sol\":3998:4001  500 */\n      0x01f4\n        /* \"solidity/task1/soliditybase.sol\":3988:4001  result += 500 */\n      dup3\n      tag_49\n      swap2\n      swap1\n      tag_44\n      jump\t// in\n    tag_49:\n      swap2\n      pop\n        /* \"solidity/task1/soliditybase.sol\":3941:5378  if (bstr[i] == bytes1(\"D\")) {... */\n      jump(tag_50)\n    tag_48:\n        /* \"solidity/task1/soliditybase.sol\":4038:4049  bytes1(\"C\") */\n      0x4300000000000000000000000000000000000000000000000000000000000000\n        /* \"solidity/task1/soliditybase.sol\":4027:4049  bstr[i] == bytes1(\"C\") */\n      not(0xffffffffffffffffffffffffffffffffffffffffffffffffffffffffffffff)\n      and\n        /* \"solidity/task1/soliditybase.sol\":4027:4031  bstr */\n      dup4\n        /* \"solidity/task1/soliditybase.sol\":4032:4033  i */\n      dup3\n        /* \"solidity/task1/soliditybase.sol\":4027:4034  bstr[i] */\n      dup2\n      mload\n      dup2\n      lt\n      tag_51\n      jumpi\n      tag_52\n      tag_41\n      jump\t// in\n    tag_52:\n    tag_51:\n      0x20\n      add\n      add\n      mload\n      0xf8\n      shr\n      0xf8\n      shl\n        /* \"solidity/task1/soliditybase.sol\":4027:4049  bstr[i] == bytes1(\"C\") */\n      not(0xffffffffffffffffffffffffffffffffffffffffffffffffffffffffffffff)\n      and\n      sub\n        /* \"solidity/task1/soliditybase.sol\":4023:5378  if (bstr[i] == bytes1(\"C\")) {... */\n      tag_53\n      jumpi\n        /* \"solidity/task1/soliditybase.sol\":4081:4085  bstr */\n      dup3\n        /* \"solidity/task1/soliditybase.sol\":4081:4092  bstr.length */\n      mload\n        /* \"solidity/task1/soliditybase.sol\":4077:4078  1 */\n      0x01\n        /* \"solidity/task1/soliditybase.sol\":4074:4075  i */\n      dup3\n        /* \"solidity/task1/soliditybase.sol\":4074:4078  i +1 */\n      tag_54\n      swap2\n      swap1\n      tag_44\n      jump\t// in\n    tag_54:\n        /* \"solidity/task1/soliditybase.sol\":4074:4092  i +1 < bstr.length */\n      lt\n        /* \"solidity/task1/soliditybase.sol\":4074:4120  i +1 < bstr.length && bstr[i+1] == bytes1(\"M\") */\n      dup1\n      iszero\n      tag_55\n      jumpi\n      pop\n        /* \"solidity/task1/soliditybase.sol\":4109:4120  bytes1(\"M\") */\n      0x4d00000000000000000000000000000000000000000000000000000000000000\n        /* \"solidity/task1/soliditybase.sol\":4096:4120  bstr[i+1] == bytes1(\"M\") */\n      not(0xffffffffffffffffffffffffffffffffffffffffffffffffffffffffffffff)\n      and\n        /* \"solidity/task1/soliditybase.sol\":4096:4100  bstr */\n      dup4\n        /* \"solidity/task1/soliditybase.sol\":4103:4104  1 */\n      0x01\n        /* \"solidity/task1/soliditybase.sol\":4101:4102  i */\n      dup4\n        /* \"solidity/task1/soliditybase.sol\":4101:4104  i+1 */\n      tag_56\n      swap2\n      swap1\n      tag_44\n      jump\t// in\n    tag_56:\n        /* \"solidity/task1/soliditybase.sol\":4096:4105  bstr[i+1] */\n      dup2\n      mload\n      dup2\n      lt\n      tag_57\n      jumpi\n      tag_58\n      tag_41\n      jump\t// in\n    tag_58:\n    tag_57:\n      0x20\n      add\n      add\n      mload\n      0xf8\n      shr\n      0xf8\n      shl\n        /* \"solidity/task1/soliditybase.sol\":4096:4120  bstr[i+1] == bytes1(\"M\") */\n      not(0xffffffffffffffffffffffffffffffffffffffffffffffffffffffffffffff)\n      and\n      eq\n        /* \"solidity/task1/soliditybase.sol\":4074:4120  i +1 < bstr.length && bstr[i+1] == bytes1(\"M\") */\n    tag_55:\n        /* \"solidity/task1/soliditybase.sol\":4070:4406  if (i +1 < bstr.length && bstr[i+1] == bytes1(\"M\")) {... */\n      iszero\n      tag_59\n      jumpi\n        /* \"solidity/task1/soliditybase.sol\":4155:4158  900 */\n      0x0384\n        /* \"solidity/task1/soliditybase.sol\":4145:4158  result += 900 */\n      dup3\n      tag_60\n      swap2\n      swap1\n      tag_44\n      jump\t// in\n    tag_60:\n      swap2\n      pop\n        /* \"solidity/task1/soliditybase.sol\":4181:4184  i++ */\n      dup1\n      dup1\n      tag_61\n      swap1\n      tag_62\n      jump\t// in\n    tag_61:\n      swap2\n      pop\n      pop\n        /* \"solidity/task1/soliditybase.sol\":4070:4406  if (i +1 < bstr.length && bstr[i+1] == bytes1(\"M\")) {... */\n      jump(tag_63)\n    tag_59:\n        /* \"solidity/task1/soliditybase.sol\":4221:4225  bstr */\n      dup3\n        /* \"solidity/task1/soliditybase.sol\":4221:4232  bstr.length */\n      mload\n        /* \"solidity/task1/soliditybase.sol\":4217:4218  1 */\n      0x01\n        /* \"solidity/task1/soliditybase.sol\":4214:4215  i */\n      dup3\n        /* \"solidity/task1/soliditybase.sol\":4214:4218  i +1 */\n      tag_64\n      swap2\n      swap1\n      tag_44\n      jump\t// in\n    tag_64:\n        /* \"solidity/task1/soliditybase.sol\":4214:4232  i +1 < bstr.length */\n      lt\n        /* \"solidity/task1/soliditybase.sol\":4214:4260  i +1 < bstr.length && bstr[i+1] == bytes1(\"D\") */\n      dup1\n      iszero\n      tag_65\n      jumpi\n      pop\n        /* \"solidity/task1/soliditybase.sol\":4249:4260  bytes1(\"D\") */\n      0x4400000000000000000000000000000000000000000000000000000000000000\n        /* \"solidity/task1/soliditybase.sol\":4236:4260  bstr[i+1] == bytes1(\"D\") */\n      not(0xffffffffffffffffffffffffffffffffffffffffffffffffffffffffffffff)\n      and\n        /* \"solidity/task1/soliditybase.sol\":4236:4240  bstr */\n      dup4\n        /* \"solidity/task1/soliditybase.sol\":4243:4244  1 */\n      0x01\n        /* \"solidity/task1/soliditybase.sol\":4241:4242  i */\n      dup4\n        /* \"solidity/task1/soliditybase.sol\":4241:4244  i+1 */\n      tag_66\n      swap2\n      swap1\n      tag_44\n      jump\t// in\n    tag_66:\n        /* \"solidity/task1/soliditybase.sol\":4236:4245  bstr[i+1] */\n      dup2\n      mload\n      dup2\n      lt\n      tag_67\n      jumpi\n      tag_68\n      tag_41\n      jump\t// in\n    tag_68:\n    tag_67:\n      0x20\n      add\n      add\n      mload\n      0xf8\n      shr\n      0xf8\n      shl\n        /* \"solidity/task1/soliditybase.sol\":4236:4260  bstr[i+1] == bytes1(\"D\") */\n      not(0xffffffffffffffffffffffffffffffffffffffffffffffffffffffffffffff)\n      and\n      eq\n        /* \"solidity/task1/soliditybase.sol\":4214:4260  i +1 < bstr.length && bstr[i+1] == bytes1(\"D\") */\n    tag_65:\n        /* \"solidity/task1/soliditybase.sol\":4210:4406  if (i +1 < bstr.length && bstr[i+1] == bytes1(\"D\")) {... */\n      iszero\n      tag_69\n      jumpi\n        /* \"solidity/task1/soliditybase.sol\":4295:4298  400 */\n      0x0190\n        /* \"solidity/task1/soliditybase.sol\":4285:4298  result += 400 */\n      dup3\n      tag_70\n      swap2\n      swap1\n      tag_44\n      jump\t// in\n    tag_70:\n      swap2\n      pop\n        /* \"solidity/task1/soliditybase.sol\":4321:4324  i++ */\n      dup1\n      dup1\n      tag_71\n      swap1\n      tag_62\n      jump\t// in\n    tag_71:\n      swap2\n      pop\n      pop\n        /* \"solidity/task1/soliditybase.sol\":4210:4406  if (i +1 < bstr.length && bstr[i+1] == bytes1(\"D\")) {... */\n      jump(tag_72)\n    tag_69:\n        /* \"solidity/task1/soliditybase.sol\":4383:4386  100 */\n      0x64\n        /* \"solidity/task1/soliditybase.sol\":4373:4386  result += 100 */\n      dup3\n      tag_73\n      swap2\n      swap1\n      tag_44\n      jump\t// in\n    tag_73:\n      swap2\n      pop\n        /* \"solidity/task1/soliditybase.sol\":4210:4406  if (i +1 < bstr.length && bstr[i+1] == bytes1(\"D\")) {... */\n    tag_72:\n        /* \"solidity/task1/soliditybase.sol\":4070:4406  if (i +1 < bstr.length && bstr[i+1] == bytes1(\"M\")) {... */\n    tag_63:\n        /* \"solidity/task1/soliditybase.sol\":4023:5378  if (bstr[i] == bytes1(\"C\")) {... */\n      jump(tag_74)\n    tag_53:\n        /* \"solidity/task1/soliditybase.sol\":4442:4453  bytes1(\"L\") */\n      0x4c00000000000000000000000000000000000000000000000000000000000000\n        /* \"solidity/task1/soliditybase.sol\":4431:4453  bstr[i] == bytes1(\"L\") */\n      not(0xffffffffffffffffffffffffffffffffffffffffffffffffffffffffffffff)\n      and\n        /* \"solidity/task1/soliditybase.sol\":4431:4435  bstr */\n      dup4\n        /* \"solidity/task1/soliditybase.sol\":4436:4437  i */\n      dup3\n        /* \"solidity/task1/soliditybase.sol\":4431:4438  bstr[i] */\n      dup2\n      mload\n      dup2\n      lt\n      tag_75\n      jumpi\n      tag_76\n      tag_41\n      jump\t// in\n    tag_76:\n    tag_75:\n      0x20\n      add\n      add\n      mload\n      0xf8\n      shr\n      0xf8\n      shl\n        /* \"solidity/task1/soliditybase.sol\":4431:4453  bstr[i] == bytes1(\"L\") */\n      not(0xffffffffffffffffffffffffffffffffffffffffffffffffffffffffffffff)\n      and\n      sub\n        /* \"solidity/task1/soliditybase.sol\":4427:5378  if (bstr[i] == bytes1(\"L\")) {... */\n      tag_77\n      jumpi\n        /* \"solidity/task1/soliditybase.sol\":4484:4486  50 */\n      0x32\n        /* \"solidity/task1/soliditybase.sol\":4474:4486  result += 50 */\n      dup3\n      tag_78\n      swap2\n      swap1\n      tag_44\n      jump\t// in\n    tag_78:\n      swap2\n      pop\n        /* \"solidity/task1/soliditybase.sol\":4427:5378  if (bstr[i] == bytes1(\"L\")) {... */\n      jump(tag_79)\n    tag_77:\n        /* \"solidity/task1/soliditybase.sol\":4523:4534  bytes1(\"X\") */\n      0x5800000000000000000000000000000000000000000000000000000000000000\n        /* \"solidity/task1/soliditybase.sol\":4512:4534  bstr[i] == bytes1(\"X\") */\n      not(0xffffffffffffffffffffffffffffffffffffffffffffffffffffffffffffff)\n      and\n        /* \"solidity/task1/soliditybase.sol\":4512:4516  bstr */\n      dup4\n        /* \"solidity/task1/soliditybase.sol\":4517:4518  i */\n      dup3\n        /* \"solidity/task1/soliditybase.sol\":4512:4519  bstr[i] */\n      dup2\n      mload\n      dup2\n      lt\n      tag_80\n      jumpi\n      tag_81\n      tag_41\n      jump\t// in\n    tag_81:\n    tag_80:\n      0x20\n      add\n      add\n      mload\n      0xf8\n      shr\n      0xf8\n      shl\n        /* \"solidity/task1/soliditybase.sol\":4512:4534  bstr[i] == bytes1(\"X\") */\n      not(0xffffffffffffffffffffffffffffffffffffffffffffffffffffffffffffff)\n      and\n      sub\n        /* \"solidity/task1/soliditybase.sol\":4508:5378  if (bstr[i] == bytes1(\"X\")) {... */\n      tag_82\n      jumpi\n        /* \"solidity/task1/soliditybase.sol\":4566:4570  bstr */\n      dup3\n        /* \"solidity/task1/soliditybase.sol\":4566:4577  bstr.length */\n      mload\n        /* \"solidity/task1/soliditybase.sol\":4562:4563  1 */\n      0x01\n        /* \"solidity/task1/soliditybase.sol\":4559:4560  i */\n      dup3\n        /* \"solidity/task1/soliditybase.sol\":4559:4563  i +1 */\n      tag_83\n      swap2\n      swap1\n      tag_44\n      jump\t// in\n    tag_83:\n        /* \"solidity/task1/soliditybase.sol\":4559:4577  i +1 < bstr.length */\n      lt\n        /* \"solidity/task1/soliditybase.sol\":4559:4605  i +1 < bstr.length && bstr[i+1] == bytes1(\"C\") */\n      dup1\n      iszero\n      tag_84\n      jumpi\n      pop\n        /* \"solidity/task1/soliditybase.sol\":4594:4605  bytes1(\"C\") */\n      0x4300000000000000000000000000000000000000000000000000000000000000\n        /* \"solidity/task1/soliditybase.sol\":4581:4605  bstr[i+1] == bytes1(\"C\") */\n      not(0xffffffffffffffffffffffffffffffffffffffffffffffffffffffffffffff)\n      and\n        /* \"solidity/task1/soliditybase.sol\":4581:4585  bstr */\n      dup4\n        /* \"solidity/task1/soliditybase.sol\":4588:4589  1 */\n      0x01\n        /* \"solidity/task1/soliditybase.sol\":4586:4587  i */\n      dup4\n        /* \"solidity/task1/soliditybase.sol\":4586:4589  i+1 */\n      tag_85\n      swap2\n      swap1\n      tag_44\n      jump\t// in\n    tag_85:\n        /* \"solidity/task1/soliditybase.sol\":4581:4590  bstr[i+1] */\n      dup2\n      mload\n      dup2\n      lt\n      tag_86\n      jumpi\n      tag_87\n      tag_41\n      jump\t// in\n    tag_87:\n    tag_86:\n      0x20\n      add\n      add\n      mload\n      0xf8\n      shr\n      0xf8\n      shl\n        /* \"solidity/task1/soliditybase.sol\":4581:4605  bstr[i+1] == bytes1(\"C\") */\n      not(0xffffffffffffffffffffffffffffffffffffffffffffffffffffffffffffff)\n      and\n      eq\n        /* \"solidity/task1/soliditybase.sol\":4559:4605  i +1 < bstr.length && bstr[i+1] == bytes1(\"C\") */\n    tag_84:\n        /* \"solidity/task1/soliditybase.sol\":4555:4888  if (i +1 < bstr.length && bstr[i+1] == bytes1(\"C\")) {... */\n      iszero\n      tag_88\n      jumpi\n        /* \"solidity/task1/soliditybase.sol\":4640:4642  90 */\n      0x5a\n        /* \"solidity/task1/soliditybase.sol\":4630:4642  result += 90 */\n      dup3\n      tag_89\n      swap2\n      swap1\n      tag_44\n      jump\t// in\n    tag_89:\n      swap2\n      pop\n        /* \"solidity/task1/soliditybase.sol\":4665:4668  i++ */\n      dup1\n      dup1\n      tag_90\n      swap1\n      tag_62\n      jump\t// in\n    tag_90:\n      swap2\n      pop\n      pop\n        /* \"solidity/task1/soliditybase.sol\":4555:4888  if (i +1 < bstr.length && bstr[i+1] == bytes1(\"C\")) {... */\n      jump(tag_91)\n    tag_88:\n        /* \"solidity/task1/soliditybase.sol\":4705:4709  bstr */\n      dup3\n        /* \"solidity/task1/soliditybase.sol\":4705:4716  bstr.length */\n      mload\n        /* \"solidity/task1/soliditybase.sol\":4701:4702  1 */\n      0x01\n        /* \"solidity/task1/soliditybase.sol\":4698:4699  i */\n      dup3\n        /* \"solidity/task1/soliditybase.sol\":4698:4702  i +1 */\n      tag_92\n      swap2\n      swap1\n      tag_44\n      jump\t// in\n    tag_92:\n        /* \"solidity/task1/soliditybase.sol\":4698:4716  i +1 < bstr.length */\n      lt\n        /* \"solidity/task1/soliditybase.sol\":4698:4744  i +1 < bstr.length && bstr[i+1] == bytes1(\"L\") */\n      dup1\n      iszero\n      tag_93\n      jumpi\n      pop\n        /* \"solidity/task1/soliditybase.sol\":4733:4744  bytes1(\"L\") */\n      0x4c00000000000000000000000000000000000000000000000000000000000000\n        /* \"solidity/task1/soliditybase.sol\":4720:4744  bstr[i+1] == bytes1(\"L\") */\n      not(0xffffffffffffffffffffffffffffffffffffffffffffffffffffffffffffff)\n      and\n        /* \"solidity/task1/soliditybase.sol\":4720:4724  bstr */\n      dup4\n        /* \"solidity/task1/soliditybase.sol\":4727:4728  1 */\n      0x01\n        /* \"solidity/task1/soliditybase.sol\":4725:4726  i */\n      dup4\n        /* \"solidity/task1/soliditybase.sol\":4725:4728  i+1 */\n      tag_94\n      swap2\n      swap1\n      tag_44\n      jump\t// in\n    tag_94:\n        /* \"solidity/task1/soliditybase.sol\":4720:4729  bstr[i+1] */\n      dup2\n      mload\n      dup2\n      lt\n      tag_95\n      jumpi\n      tag_96\n      tag_41\n      jump\t// in\n    tag_96:\n    tag_95:\n      0x20\n      add\n      add\n      mload\n      0xf8\n      shr\n      0xf8\n      shl\n        /* \"solidity/task1/soliditybase.sol\":4720:4744  bstr[i+1] == bytes1(\"L\") */\n      not(0xffffffffffffffffffffffffffffffffffffffffffffffffffffffffffffff)\n      and\n      eq\n        /* \"solidity/task1/soliditybase.sol\":4698:4744  i +1 < bstr.length && bstr[i+1] == bytes1(\"L\") */\n    tag_93:\n        /* \"solidity/task1/soliditybase.sol\":4694:4888  if (i +1 < bstr.length && bstr[i+1] == bytes1(\"L\")) {... */\n      iszero\n      tag_97\n      jumpi\n        /* \"solidity/task1/soliditybase.sol\":4779:4781  40 */\n      0x28\n        /* \"solidity/task1/soliditybase.sol\":4769:4781  result += 40 */\n      dup3\n      tag_98\n      swap2\n      swap1\n      tag_44\n      jump\t// in\n    tag_98:\n      swap2\n      pop\n        /* \"solidity/task1/soliditybase.sol\":4804:4807  i++ */\n      dup1\n      dup1\n      tag_99\n      swap1\n      tag_62\n      jump\t// in\n    tag_99:\n      swap2\n      pop\n      pop\n        /* \"solidity/task1/soliditybase.sol\":4694:4888  if (i +1 < bstr.length && bstr[i+1] == bytes1(\"L\")) {... */\n      jump(tag_100)\n    tag_97:\n        /* \"solidity/task1/soliditybase.sol\":4866:4868  10 */\n      0x0a\n        /* \"solidity/task1/soliditybase.sol\":4856:4868  result += 10 */\n      dup3\n      tag_101\n      swap2\n      swap1\n      tag_44\n      jump\t// in\n    tag_101:\n      swap2\n      pop\n        /* \"solidity/task1/soliditybase.sol\":4694:4888  if (i +1 < bstr.length && bstr[i+1] == bytes1(\"L\")) {... */\n    tag_100:\n        /* \"solidity/task1/soliditybase.sol\":4555:4888  if (i +1 < bstr.length && bstr[i+1] == bytes1(\"C\")) {... */\n    tag_91:\n        /* \"solidity/task1/soliditybase.sol\":4508:5378  if (bstr[i] == bytes1(\"X\")) {... */\n      jump(tag_102)\n    tag_82:\n        /* \"solidity/task1/soliditybase.sol\":4923:4934  bytes1(\"V\") */\n      0x5600000000000000000000000000000000000000000000000000000000000000\n        /* \"solidity/task1/soliditybase.sol\":4912:4934  bstr[i] == bytes1(\"V\") */\n      not(0xffffffffffffffffffffffffffffffffffffffffffffffffffffffffffffff)\n      and\n        /* \"solidity/task1/soliditybase.sol\":4912:4916  bstr */\n      dup4\n        /* \"solidity/task1/soliditybase.sol\":4917:4918  i */\n      dup3\n        /* \"solidity/task1/soliditybase.sol\":4912:4919  bstr[i] */\n      dup2\n      mload\n      dup2\n      lt\n      tag_103\n      jumpi\n      tag_104\n      tag_41\n      jump\t// in\n    tag_104:\n    tag_103:\n      0x20\n      add\n      add\n      mload\n      0xf8\n      shr\n      0xf8\n      shl\n        /* \"solidity/task1/soliditybase.sol\":4912:4934  bstr[i] == bytes1(\"V\") */\n      not(0xffffffffffffffffffffffffffffffffffffffffffffffffffffffffffffff)\n      and\n      sub\n        /* \"solidity/task1/soliditybase.sol\":4908:5378  if (bstr[i] == bytes1(\"V\")){... */\n      tag_105\n      jumpi\n        /* \"solidity/task1/soliditybase.sol\":4964:4965  5 */\n      0x05\n        /* \"solidity/task1/soliditybase.sol\":4954:4965  result += 5 */\n      dup3\n      tag_106\n      swap2\n      swap1\n      tag_44\n      jump\t// in\n    tag_106:\n      swap2\n      pop\n        /* \"solidity/task1/soliditybase.sol\":4908:5378  if (bstr[i] == bytes1(\"V\")){... */\n      jump(tag_107)\n    tag_105:\n        /* \"solidity/task1/soliditybase.sol\":5001:5012  bytes1(\"I\") */\n      0x4900000000000000000000000000000000000000000000000000000000000000\n        /* \"solidity/task1/soliditybase.sol\":4990:5012  bstr[i] == bytes1(\"I\") */\n      not(0xffffffffffffffffffffffffffffffffffffffffffffffffffffffffffffff)\n      and\n        /* \"solidity/task1/soliditybase.sol\":4990:4994  bstr */\n      dup4\n        /* \"solidity/task1/soliditybase.sol\":4995:4996  i */\n      dup3\n        /* \"solidity/task1/soliditybase.sol\":4990:4997  bstr[i] */\n      dup2\n      mload\n      dup2\n      lt\n      tag_108\n      jumpi\n      tag_109\n      tag_41\n      jump\t// in\n    tag_109:\n    tag_108:\n      0x20\n      add\n      add\n      mload\n      0xf8\n      shr\n      0xf8\n      shl\n        /* \"solidity/task1/soliditybase.sol\":4990:5012  bstr[i] == bytes1(\"I\") */\n      not(0xffffffffffffffffffffffffffffffffffffffffffffffffffffffffffffff)\n      and\n      sub\n        /* \"solidity/task1/soliditybase.sol\":4986:5378  if (bstr[i] == bytes1(\"I\")) {... */\n      tag_110\n      jumpi\n        /* \"solidity/task1/soliditybase.sol\":5044:5048  bstr */\n      dup3\n        /* \"solidity/task1/soliditybase.sol\":5044:5055  bstr.length */\n      mload\n        /* \"solidity/task1/soliditybase.sol\":5040:5041  1 */\n      0x01\n        /* \"solidity/task1/soliditybase.sol\":5037:5038  i */\n      dup3\n        /* \"solidity/task1/soliditybase.sol\":5037:5041  i +1 */\n      tag_111\n      swap2\n      swap1\n      tag_44\n      jump\t// in\n    tag_111:\n        /* \"solidity/task1/soliditybase.sol\":5037:5055  i +1 < bstr.length */\n      lt\n        /* \"solidity/task1/soliditybase.sol\":5037:5083  i +1 < bstr.length && bstr[i+1] == bytes1(\"X\") */\n      dup1\n      iszero\n      tag_112\n      jumpi\n      pop\n        /* \"solidity/task1/soliditybase.sol\":5072:5083  bytes1(\"X\") */\n      0x5800000000000000000000000000000000000000000000000000000000000000\n        /* \"solidity/task1/soliditybase.sol\":5059:5083  bstr[i+1] == bytes1(\"X\") */\n      not(0xffffffffffffffffffffffffffffffffffffffffffffffffffffffffffffff)\n      and\n        /* \"solidity/task1/soliditybase.sol\":5059:5063  bstr */\n      dup4\n        /* \"solidity/task1/soliditybase.sol\":5066:5067  1 */\n      0x01\n        /* \"solidity/task1/soliditybase.sol\":5064:5065  i */\n      dup4\n        /* \"solidity/task1/soliditybase.sol\":5064:5067  i+1 */\n      tag_113\n      swap2\n      swap1\n      tag_44\n      jump\t// in\n    tag_113:\n        /* \"solidity/task1/soliditybase.sol\":5059:5068  bstr[i+1] */\n      dup2\n      mload\n      dup2\n      lt\n      tag_114\n      jumpi\n      tag_115\n      tag_41\n      jump\t// in\n    tag_115:\n    tag_114:\n      0x20\n      add\n      add\n      mload\n      0xf8\n      shr\n      0xf8\n      shl\n        /* \"solidity/task1/soliditybase.sol\":5059:5083  bstr[i+1] == bytes1(\"X\") */\n      not(0xffffffffffffffffffffffffffffffffffffffffffffffffffffffffffffff)\n      and\n      eq\n        /* \"solidity/task1/soliditybase.sol\":5037:5083  i +1 < bstr.length && bstr[i+1] == bytes1(\"X\") */\n    tag_112:\n        /* \"solidity/task1/soliditybase.sol\":5033:5363  if (i +1 < bstr.length && bstr[i+1] == bytes1(\"X\")) {... */\n      iszero\n      tag_116\n      jumpi\n        /* \"solidity/task1/soliditybase.sol\":5118:5119  9 */\n      0x09\n        /* \"solidity/task1/soliditybase.sol\":5108:5119  result += 9 */\n      dup3\n      tag_117\n      swap2\n      swap1\n      tag_44\n      jump\t// in\n    tag_117:\n      swap2\n      pop\n        /* \"solidity/task1/soliditybase.sol\":5142:5145  i++ */\n      dup1\n      dup1\n      tag_118\n      swap1\n      tag_62\n      jump\t// in\n    tag_118:\n      swap2\n      pop\n      pop\n        /* \"solidity/task1/soliditybase.sol\":5033:5363  if (i +1 < bstr.length && bstr[i+1] == bytes1(\"X\")) {... */\n      jump(tag_119)\n    tag_116:\n        /* \"solidity/task1/soliditybase.sol\":5182:5186  bstr */\n      dup3\n        /* \"solidity/task1/soliditybase.sol\":5182:5193  bstr.length */\n      mload\n        /* \"solidity/task1/soliditybase.sol\":5178:5179  1 */\n      0x01\n        /* \"solidity/task1/soliditybase.sol\":5175:5176  i */\n      dup3\n        /* \"solidity/task1/soliditybase.sol\":5175:5179  i +1 */\n      tag_120\n      swap2\n      swap1\n      tag_44\n      jump\t// in\n    tag_120:\n        /* \"solidity/task1/soliditybase.sol\":5175:5193  i +1 < bstr.length */\n      lt\n        /* \"solidity/task1/soliditybase.sol\":5175:5221  i +1 < bstr.length && bstr[i+1] == bytes1(\"V\") */\n      dup1\n      iszero\n      tag_121\n      jumpi\n      pop\n        /* \"solidity/task1/soliditybase.sol\":5210:5221  bytes1(\"V\") */\n      0x5600000000000000000000000000000000000000000000000000000000000000\n        /* \"solidity/task1/soliditybase.sol\":5197:5221  bstr[i+1] == bytes1(\"V\") */\n      not(0xffffffffffffffffffffffffffffffffffffffffffffffffffffffffffffff)\n      and\n        /* \"solidity/task1/soliditybase.sol\":5197:5201  bstr */\n      dup4\n        /* \"solidity/task1/soliditybase.sol\":5204:5205  1 */\n      0x01\n        /* \"solidity/task1/soliditybase.sol\":5202:5203  i */\n      dup4\n        /* \"solidity/task1/soliditybase.sol\":5202:5205  i+1 */\n      tag_122\n      swap2\n      swap1\n      tag_44\n      jump\t// in\n    tag_122:\n        /* \"solidity/task1/soliditybase.sol\":5197:5206  bstr[i+1] */\n      dup2\n      mload\n      dup2\n      lt\n      tag_123\n      jumpi\n      tag_124\n      tag_41\n      jump\t// in\n    tag_124:\n    tag_123:\n      0x20\n      add\n      add\n      mload\n      0xf8\n      shr\n      0xf8\n      shl\n        /* \"solidity/task1/soliditybase.sol\":5197:5221  bstr[i+1] == bytes1(\"V\") */\n      not(0xffffffffffffffffffffffffffffffffffffffffffffffffffffffffffffff)\n      and\n      eq\n        /* \"solidity/task1/soliditybase.sol\":5175:5221  i +1 < bstr.length && bstr[i+1] == bytes1(\"V\") */\n    tag_121:\n        /* \"solidity/task1/soliditybase.sol\":5171:5363  if (i +1 < bstr.length && bstr[i+1] == bytes1(\"V\")) {... */\n      iszero\n      tag_125\n      jumpi\n        /* \"solidity/task1/soliditybase.sol\":5256:5257  4 */\n      0x04\n        /* \"solidity/task1/soliditybase.sol\":5246:5257  result += 4 */\n      dup3\n      tag_126\n      swap2\n      swap1\n      tag_44\n      jump\t// in\n    tag_126:\n      swap2\n      pop\n        /* \"solidity/task1/soliditybase.sol\":5280:5283  i++ */\n      dup1\n      dup1\n      tag_127\n      swap1\n      tag_62\n      jump\t// in\n    tag_127:\n      swap2\n      pop\n      pop\n        /* \"solidity/task1/soliditybase.sol\":5171:5363  if (i +1 < bstr.length && bstr[i+1] == bytes1(\"V\")) {... */\n      jump(tag_128)\n    tag_125:\n        /* \"solidity/task1/soliditybase.sol\":5342:5343  1 */\n      0x01\n        /* \"solidity/task1/soliditybase.sol\":5332:5343  result += 1 */\n      dup3\n      tag_129\n      swap2\n      swap1\n      tag_44\n      jump\t// in\n    tag_129:\n      swap2\n      pop\n        /* \"solidity/task1/soliditybase.sol\":5171:5363  if (i +1 < bstr.length && bstr[i+1] == bytes1(\"V\")) {... */\n    tag_128:\n        /* \"solidity/task1/soliditybase.sol\":5033:5363  if (i +1 < bstr.length && bstr[i+1] == bytes1(\"X\")) {... */\n    tag_119:\n        /* \"solidity/task1/soliditybase.sol\":4986:5378  if (bstr[i] == bytes1(\"I\")) {... */\n    tag_110:\n        /* \"solidity/task1/soliditybase.sol\":4908:5378  if (bstr[i] == bytes1(\"V\")){... */\n    tag_107:\n        /* \"solidity/task1/soliditybase.sol\":4508:5378  if (bstr[i] == bytes1(\"X\")) {... */\n    tag_102:\n        /* \"solidity/task1/soliditybase.sol\":4427:5378  if (bstr[i] == bytes1(\"L\")) {... */\n    tag_79:\n        /* \"solidity/task1/soliditybase.sol\":4023:5378  if (bstr[i] == bytes1(\"C\")) {... */\n    tag_74:\n        /* \"solidity/task1/soliditybase.sol\":3941:5378  if (bstr[i] == bytes1(\"D\")) {... */\n    tag_50:\n        /* \"solidity/task1/soliditybase.sol\":3859:5378  if (bstr[i] == bytes1(\"M\")){... */\n    tag_45:\n        /* \"solidity/task1/soliditybase.sol\":3839:3842  i++ */\n      dup1\n      dup1\n      tag_130\n      swap1\n      tag_62\n      jump\t// in\n    tag_130:\n      swap2\n      pop\n      pop\n        /* \"solidity/task1/soliditybase.sol\":3809:5389  for (uint i=0; i<bstr.length; i++) {... */\n      jump(tag_36)\n    tag_37:\n      pop\n        /* \"solidity/task1/soliditybase.sol\":5406:5412  result */\n      dup1\n        /* \"solidity/task1/soliditybase.sol\":5399:5412  return result */\n      swap3\n      pop\n      pop\n      pop\n        /* \"solidity/task1/soliditybase.sol\":3667:5420  function RomaToInt(string memory str) public pure returns(uint) {... */\n      swap2\n      swap1\n      pop\n      jump\t// out\n        /* \"solidity/task1/soliditybase.sol\":956:3628  function IntToRoma(uint num) public pure returns(string memory){... */\n    tag_17:\n        /* \"solidity/task1/soliditybase.sol\":1005:1018  string memory */\n      0x60\n        /* \"solidity/task1/soliditybase.sol\":1040:1041  1 */\n      0x01\n        /* \"solidity/task1/soliditybase.sol\":1034:1037  num */\n      dup3\n        /* \"solidity/task1/soliditybase.sol\":1034:1041  num < 1 */\n      lt\n        /* \"solidity/task1/soliditybase.sol\":1034:1055  num < 1 || num > 3999 */\n      dup1\n      tag_132\n      jumpi\n      pop\n        /* \"solidity/task1/soliditybase.sol\":1051:1055  3999 */\n      0x0f9f\n        /* \"solidity/task1/soliditybase.sol\":1045:1048  num */\n      dup3\n        /* \"solidity/task1/soliditybase.sol\":1045:1055  num > 3999 */\n      gt\n        /* \"solidity/task1/soliditybase.sol\":1034:1055  num < 1 || num > 3999 */\n    tag_132:\n        /* \"solidity/task1/soliditybase.sol\":1030:1107  if (num < 1 || num > 3999) {... */\n      iszero\n      tag_133\n      jumpi\n        /* \"solidity/task1/soliditybase.sol\":1072:1095  revert(\"Invalid input\") */\n      mload(0x40)\n      0x08c379a000000000000000000000000000000000000000000000000000000000\n      dup2\n      mstore\n      0x04\n      add\n      tag_134\n      swap1\n      tag_135\n      jump\t// in\n    tag_134:\n      mload(0x40)\n      dup1\n      swap2\n      sub\n      swap1\n      revert\n        /* \"solidity/task1/soliditybase.sol\":1030:1107  if (num < 1 || num > 3999) {... */\n    tag_133:\n        /* \"solidity/task1/soliditybase.sol\":1117:1124  uint th */\n      0x00\n        /* \"solidity/task1/soliditybase.sol\":1132:1136  1000 */\n      0x03e8\n        /* \"solidity/task1/soliditybase.sol\":1127:1130  num */\n      dup4\n        /* \"solidity/task1/soliditybase.sol\":1127:1136  num /1000 */\n      tag_136\n      swap2\n      swap1\n      tag_137\n      jump\t// in\n    tag_136:\n        /* \"solidity/task1/soliditybase.sol\":1117:1136  uint th = num /1000 */\n      swap1\n      pop\n        /* \"solidity/task1/soliditybase.sol\":1147:1154  uint hu */\n      0x00\n        /* \"solidity/task1/soliditybase.sol\":1173:1176  100 */\n      0x64\n        /* \"solidity/task1/soliditybase.sol\":1167:1171  1000 */\n      0x03e8\n        /* \"solidity/task1/soliditybase.sol\":1164:1166  th */\n      dup4\n        /* \"solidity/task1/soliditybase.sol\":1164:1171  th*1000 */\n      tag_138\n      swap2\n      swap1\n      tag_139\n      jump\t// in\n    tag_138:\n        /* \"solidity/task1/soliditybase.sol\":1158:1161  num */\n      dup6\n        /* \"solidity/task1/soliditybase.sol\":1158:1171  num - th*1000 */\n      tag_140\n      swap2\n      swap1\n      tag_141\n      jump\t// in\n    tag_140:\n        /* \"solidity/task1/soliditybase.sol\":1157:1176  (num - th*1000)/100 */\n      tag_142\n      swap2\n      swap1\n      tag_137\n      jump\t// in\n    tag_142:\n        /* \"solidity/task1/soliditybase.sol\":1147:1176  uint hu = (num - th*1000)/100 */\n      swap1\n      pop\n        /* \"solidity/task1/soliditybase.sol\":1187:1194  uint sh */\n      0x00\n        /* \"solidity/task1/soliditybase.sol\":1224:1226  10 */\n      0x0a\n        /* \"solidity/task1/soliditybase.sol\":1217:1220  100 */\n      0x64\n        /* \"solidity/task1/soliditybase.sol\":1214:1216  hu */\n      dup4\n        /* \"solidity/task1/soliditybase.sol\":1214:1220  hu*100 */\n      tag_143\n      swap2\n      swap1\n      tag_139\n      jump\t// in\n    tag_143:\n        /* \"solidity/task1/soliditybase.sol\":1207:1211  1000 */\n      0x03e8\n        /* \"solidity/task1/soliditybase.sol\":1204:1206  th */\n      dup6\n        /* \"solidity/task1/soliditybase.sol\":1204:1211  th*1000 */\n      tag_144\n      swap2\n      swap1\n      tag_139\n      jump\t// in\n    tag_144:\n        /* \"solidity/task1/soliditybase.sol\":1198:1201  num */\n      dup8\n        /* \"solidity/task1/soliditybase.sol\":1198:1211  num - th*1000 */\n      tag_145\n      swap2\n      swap1\n      tag_141\n      jump\t// in\n    tag_145:\n        /* \"solidity/task1/soliditybase.sol\":1198:1220  num - th*1000 - hu*100 */\n      tag_146\n      swap2\n      swap1\n      tag_141\n      jump\t// in\n    tag_146:\n        /* \"solidity/task1/soliditybase.sol\":1197:1226  (num - th*1000 - hu*100) / 10 */\n      tag_147\n      swap2\n      swap1\n      tag_137\n      jump\t// in\n    tag_147:\n        /* \"solidity/task1/soliditybase.sol\":1187:1226  uint sh = (num - th*1000 - hu*100) / 10 */\n      swap1\n      pop\n        /* \"solidity/task1/soliditybase.sol\":1237:1244  uint ge */\n      0x00\n        /* \"solidity/task1/soliditybase.sol\":1275:1277  10 */\n      0x0a\n        /* \"solidity/task1/soliditybase.sol\":1272:1274  sh */\n      dup3\n        /* \"solidity/task1/soliditybase.sol\":1272:1277  sh*10 */\n      tag_148\n      swap2\n      swap1\n      tag_139\n      jump\t// in\n    tag_148:\n        /* \"solidity/task1/soliditybase.sol\":1266:1269  100 */\n      0x64\n        /* \"solidity/task1/soliditybase.sol\":1263:1265  hu */\n      dup5\n        /* \"solidity/task1/soliditybase.sol\":1263:1269  hu*100 */\n      tag_149\n      swap2\n      swap1\n      tag_139\n      jump\t// in\n    tag_149:\n        /* \"solidity/task1/soliditybase.sol\":1256:1260  1000 */\n      0x03e8\n        /* \"solidity/task1/soliditybase.sol\":1253:1255  th */\n      dup7\n        /* \"solidity/task1/soliditybase.sol\":1253:1260  th*1000 */\n      tag_150\n      swap2\n      swap1\n      tag_139\n      jump\t// in\n    tag_150:\n        /* \"solidity/task1/soliditybase.sol\":1247:1250  num */\n      dup9\n        /* \"solidity/task1/soliditybase.sol\":1247:1260  num - th*1000 */\n      tag_151\n      swap2\n      swap1\n      tag_141\n      jump\t// in\n    tag_151:\n        /* \"solidity/task1/soliditybase.sol\":1247:1269  num - th*1000 - hu*100 */\n      tag_152\n      swap2\n      swap1\n      tag_141\n      jump\t// in\n    tag_152:\n        /* \"solidity/task1/soliditybase.sol\":1247:1277  num - th*1000 - hu*100 - sh*10 */\n      tag_153\n      swap2\n      swap1\n      tag_141\n      jump\t// in\n    tag_153:\n        /* \"solidity/task1/soliditybase.sol\":1237:1277  uint ge = num - th*1000 - hu*100 - sh*10 */\n      swap1\n      pop\n        /* \"solidity/task1/soliditybase.sol\":1290:1309  bytes memory result */\n      0x00\n        /* \"solidity/task1/soliditybase.sol\":1322:1324  16 */\n      0x10\n        /* \"solidity/task1/soliditybase.sol\":1312:1325  new bytes(16) */\n      0xffffffffffffffff\n      dup2\n      gt\n      iszero\n      tag_154\n      jumpi\n      tag_155\n      tag_156\n      jump\t// in\n    tag_155:\n    tag_154:\n      mload(0x40)\n      swap1\n      dup1\n      dup3\n      mstore\n      dup1\n      0x1f\n      add\n      not(0x1f)\n      and\n      0x20\n      add\n      dup3\n      add\n      0x40\n      mstore\n      dup1\n      iszero\n      tag_157\n      jumpi\n      dup2\n      0x20\n      add\n      0x01\n      dup3\n      mul\n      dup1\n      calldatasize\n      dup4\n      calldatacopy\n      dup1\n      dup3\n      add\n      swap2\n      pop\n      pop\n      swap1\n      pop\n    tag_157:\n      pop\n        /* \"solidity/task1/soliditybase.sol\":1290:1325  bytes memory result = new bytes(16) */\n      swap1\n      pop\n        /* \"solidity/task1/soliditybase.sol\":1336:1346  uint index */\n      0x00\n        /* \"solidity/task1/soliditybase.sol\":1370:1371  0 */\n      dup1\n        /* \"solidity/task1/soliditybase.sol\":1365:1367  th */\n      dup7\n        /* \"solidity/task1/soliditybase.sol\":1365:1371  th > 0 */\n      gt\n        /* \"solidity/task1/soliditybase.sol\":1361:1487  if (th > 0) {... */\n      iszero\n      tag_158\n      jumpi\n        /* \"solidity/task1/soliditybase.sol\":1393:1399  uint i */\n      0x00\n        /* \"solidity/task1/soliditybase.sol\":1388:1476  for (uint i=0; i<th;i++){... */\n    tag_159:\n        /* \"solidity/task1/soliditybase.sol\":1405:1407  th */\n      dup7\n        /* \"solidity/task1/soliditybase.sol\":1403:1404  i */\n      dup2\n        /* \"solidity/task1/soliditybase.sol\":1403:1407  i<th */\n      lt\n        /* \"solidity/task1/soliditybase.sol\":1388:1476  for (uint i=0; i<th;i++){... */\n      iszero\n      tag_160\n      jumpi\n        /* \"solidity/task1/soliditybase.sol\":1449:1460  bytes1(\"M\") */\n      0x4d00000000000000000000000000000000000000000000000000000000000000\n        /* \"solidity/task1/soliditybase.sol\":1431:1437  result */\n      dup4\n        /* \"solidity/task1/soliditybase.sol\":1438:1445  index++ */\n      dup4\n      dup1\n      tag_162\n      swap1\n      tag_62\n      jump\t// in\n    tag_162:\n      swap5\n      pop\n        /* \"solidity/task1/soliditybase.sol\":1431:1446  result[index++] */\n      dup2\n      mload\n      dup2\n      lt\n      tag_163\n      jumpi\n      tag_164\n      tag_41\n      jump\t// in\n    tag_164:\n    tag_163:\n      0x20\n      add\n      add\n        /* \"solidity/task1/soliditybase.sol\":1431:1460  result[index++] = bytes1(\"M\") */\n      swap1\n      not(0xffffffffffffffffffffffffffffffffffffffffffffffffffffffffffffff)\n      and\n      swap1\n      dup2\n      0x00\n      byte\n      swap1\n      mstore8\n      pop\n        /* \"solidity/task1/soliditybase.sol\":1408:1411  i++ */\n      dup1\n      dup1\n      0x01\n      add\n      swap2\n      pop\n      pop\n        /* \"solidity/task1/soliditybase.sol\":1388:1476  for (uint i=0; i<th;i++){... */\n      jump(tag_159)\n    tag_160:\n      pop\n        /* \"solidity/task1/soliditybase.sol\":1361:1487  if (th > 0) {... */\n    tag_158:\n        /* \"solidity/task1/soliditybase.sol\":1506:1507  0 */\n      0x00\n        /* \"solidity/task1/soliditybase.sol\":1501:1503  hu */\n      dup6\n        /* \"solidity/task1/soliditybase.sol\":1501:1507  hu > 0 */\n      gt\n        /* \"solidity/task1/soliditybase.sol\":1497:2140  if (hu > 0) {... */\n      iszero\n      tag_165\n      jumpi\n        /* \"solidity/task1/soliditybase.sol\":1534:1535  9 */\n      0x09\n        /* \"solidity/task1/soliditybase.sol\":1528:1530  hu */\n      dup6\n        /* \"solidity/task1/soliditybase.sol\":1528:1535  hu == 9 */\n      sub\n        /* \"solidity/task1/soliditybase.sol\":1524:2129  if (hu == 9) {... */\n      tag_166\n      jumpi\n        /* \"solidity/task1/soliditybase.sol\":1574:1585  bytes1(\"C\") */\n      0x4300000000000000000000000000000000000000000000000000000000000000\n        /* \"solidity/task1/soliditybase.sol\":1556:1562  result */\n      dup3\n        /* \"solidity/task1/soliditybase.sol\":1563:1570  index++ */\n      dup3\n      dup1\n      tag_167\n      swap1\n      tag_62\n      jump\t// in\n    tag_167:\n      swap4\n      pop\n        /* \"solidity/task1/soliditybase.sol\":1556:1571  result[index++] */\n      dup2\n      mload\n      dup2\n      lt\n      tag_168\n      jumpi\n      tag_169\n      tag_41\n      jump\t// in\n    tag_169:\n    tag_168:\n      0x20\n      add\n      add\n        /* \"solidity/task1/soliditybase.sol\":1556:1585  result[index++] = bytes1(\"C\") */\n      swap1\n      not(0xffffffffffffffffffffffffffffffffffffffffffffffffffffffffffffff)\n      and\n      swap1\n      dup2\n      0x00\n      byte\n      swap1\n      mstore8\n      pop\n        /* \"solidity/task1/soliditybase.sol\":1622:1633  bytes1(\"M\") */\n      0x4d00000000000000000000000000000000000000000000000000000000000000\n        /* \"solidity/task1/soliditybase.sol\":1604:1610  result */\n      dup3\n        /* \"solidity/task1/soliditybase.sol\":1611:1618  index++ */\n      dup3\n      dup1\n      tag_170\n      swap1\n      tag_62\n      jump\t// in\n    tag_170:\n      swap4\n      pop\n        /* \"solidity/task1/soliditybase.sol\":1604:1619  result[index++] */\n      dup2\n      mload\n      dup2\n      lt\n      tag_171\n      jumpi\n      tag_172\n      tag_41\n      jump\t// in\n    tag_172:\n    tag_171:\n      0x20\n      add\n      add\n        /* \"solidity/task1/soliditybase.sol\":1604:1633  result[index++] = bytes1(\"M\") */\n      swap1\n      not(0xffffffffffffffffffffffffffffffffffffffffffffffffffffffffffffff)\n      and\n      swap1\n      dup2\n      0x00\n      byte\n      swap1\n      mstore8\n      pop\n        /* \"solidity/task1/soliditybase.sol\":1524:2129  if (hu == 9) {... */\n      jump(tag_173)\n    tag_166:\n        /* \"solidity/task1/soliditybase.sol\":1665:1666  5 */\n      0x05\n        /* \"solidity/task1/soliditybase.sol\":1659:1661  hu */\n      dup6\n        /* \"solidity/task1/soliditybase.sol\":1659:1666  hu >= 5 */\n      lt\n        /* \"solidity/task1/soliditybase.sol\":1655:2129  if (hu >= 5) {... */\n      tag_174\n      jumpi\n        /* \"solidity/task1/soliditybase.sol\":1705:1716  bytes1(\"D\") */\n      0x4400000000000000000000000000000000000000000000000000000000000000\n        /* \"solidity/task1/soliditybase.sol\":1687:1693  result */\n      dup3\n        /* \"solidity/task1/soliditybase.sol\":1694:1701  index++ */\n      dup3\n      dup1\n      tag_175\n      swap1\n      tag_62\n      jump\t// in\n    tag_175:\n      swap4\n      pop\n        /* \"solidity/task1/soliditybase.sol\":1687:1702  result[index++] */\n      dup2\n      mload\n      dup2\n      lt\n      tag_176\n      jumpi\n      tag_177\n      tag_41\n      jump\t// in\n    tag_177:\n    tag_176:\n      0x20\n      add\n      add\n        /* \"solidity/task1/soliditybase.sol\":1687:1716  result[index++] = bytes1(\"D\") */\n      swap1\n      not(0xffffffffffffffffffffffffffffffffffffffffffffffffffffffffffffff)\n      and\n      swap1\n      dup2\n      0x00\n      byte\n      swap1\n      mstore8\n      pop\n        /* \"solidity/task1/soliditybase.sol\":1740:1746  uint i */\n      0x00\n        /* \"solidity/task1/soliditybase.sol\":1735:1841  for (uint i = 0; i < hu - 5; i++) {... */\n    tag_178:\n        /* \"solidity/task1/soliditybase.sol\":1761:1762  5 */\n      0x05\n        /* \"solidity/task1/soliditybase.sol\":1756:1758  hu */\n      dup7\n        /* \"solidity/task1/soliditybase.sol\":1756:1762  hu - 5 */\n      tag_181\n      swap2\n      swap1\n      tag_141\n      jump\t// in\n    tag_181:\n        /* \"solidity/task1/soliditybase.sol\":1752:1753  i */\n      dup2\n        /* \"solidity/task1/soliditybase.sol\":1752:1762  i < hu - 5 */\n      lt\n        /* \"solidity/task1/soliditybase.sol\":1735:1841  for (uint i = 0; i < hu - 5; i++) {... */\n      iszero\n      tag_179\n      jumpi\n        /* \"solidity/task1/soliditybase.sol\":1810:1821  bytes1(\"C\") */\n      0x4300000000000000000000000000000000000000000000000000000000000000\n        /* \"solidity/task1/soliditybase.sol\":1792:1798  result */\n      dup4\n        /* \"solidity/task1/soliditybase.sol\":1799:1806  index++ */\n      dup4\n      dup1\n      tag_182\n      swap1\n      tag_62\n      jump\t// in\n    tag_182:\n      swap5\n      pop\n        /* \"solidity/task1/soliditybase.sol\":1792:1807  result[index++] */\n      dup2\n      mload\n      dup2\n      lt\n      tag_183\n      jumpi\n      tag_184\n      tag_41\n      jump\t// in\n    tag_184:\n    tag_183:\n      0x20\n      add\n      add\n        /* \"solidity/task1/soliditybase.sol\":1792:1821  result[index++] = bytes1(\"C\") */\n      swap1\n      not(0xffffffffffffffffffffffffffffffffffffffffffffffffffffffffffffff)\n      and\n      swap1\n      dup2\n      0x00\n      byte\n      swap1\n      mstore8\n      pop\n        /* \"solidity/task1/soliditybase.sol\":1764:1767  i++ */\n      dup1\n      dup1\n      0x01\n      add\n      swap2\n      pop\n      pop\n        /* \"solidity/task1/soliditybase.sol\":1735:1841  for (uint i = 0; i < hu - 5; i++) {... */\n      jump(tag_178)\n    tag_179:\n      pop\n        /* \"solidity/task1/soliditybase.sol\":1655:2129  if (hu >= 5) {... */\n      jump(tag_185)\n    tag_174:\n        /* \"solidity/task1/soliditybase.sol\":1872:1873  4 */\n      0x04\n        /* \"solidity/task1/soliditybase.sol\":1866:1868  hu */\n      dup6\n        /* \"solidity/task1/soliditybase.sol\":1866:1873  hu == 4 */\n      sub\n        /* \"solidity/task1/soliditybase.sol\":1862:2129  if (hu == 4) {... */\n      tag_186\n      jumpi\n        /* \"solidity/task1/soliditybase.sol\":1912:1923  bytes1(\"C\") */\n      0x4300000000000000000000000000000000000000000000000000000000000000\n        /* \"solidity/task1/soliditybase.sol\":1894:1900  result */\n      dup3\n        /* \"solidity/task1/soliditybase.sol\":1901:1908  index++ */\n      dup3\n      dup1\n      tag_187\n      swap1\n      tag_62\n      jump\t// in\n    tag_187:\n      swap4\n      pop\n        /* \"solidity/task1/soliditybase.sol\":1894:1909  result[index++] */\n      dup2\n      mload\n      dup2\n      lt\n      tag_188\n      jumpi\n      tag_189\n      tag_41\n      jump\t// in\n    tag_189:\n    tag_188:\n      0x20\n      add\n      add\n        /* \"solidity/task1/soliditybase.sol\":1894:1923  result[index++] = bytes1(\"C\") */\n      swap1\n      not(0xffffffffffffffffffffffffffffffffffffffffffffffffffffffffffffff)\n      and\n      swap1\n      dup2\n      0x00\n      byte\n      swap1\n      mstore8\n      pop\n        /* \"solidity/task1/soliditybase.sol\":1960:1971  bytes1(\"D\") */\n      0x4400000000000000000000000000000000000000000000000000000000000000\n        /* \"solidity/task1/soliditybase.sol\":1942:1948  result */\n      dup3\n        /* \"solidity/task1/soliditybase.sol\":1949:1956  index++ */\n      dup3\n      dup1\n      tag_190\n      swap1\n      tag_62\n      jump\t// in\n    tag_190:\n      swap4\n      pop\n        /* \"solidity/task1/soliditybase.sol\":1942:1957  result[index++] */\n      dup2\n      mload\n      dup2\n      lt\n      tag_191\n      jumpi\n      tag_192\n      tag_41\n      jump\t// in\n    tag_192:\n    tag_191:\n      0x20\n      add\n      add\n        /* \"solidity/task1/soliditybase.sol\":1942:1971  result[index++] = bytes1(\"D\") */\n      swap1\n      not(0xffffffffffffffffffffffffffffffffffffffffffffffffffffffffffffff)\n      and\n      swap1\n      dup2\n      0x00\n      byte\n      swap1\n      mstore8\n      pop\n        /* \"solidity/task1/soliditybase.sol\":1862:2129  if (hu == 4) {... */\n      jump(tag_193)\n    tag_186:\n        /* \"solidity/task1/soliditybase.sol\":2017:2023  uint i */\n      0x00\n        /* \"solidity/task1/soliditybase.sol\":2012:2114  for (uint i = 0; i < hu; i++) {... */\n    tag_194:\n        /* \"solidity/task1/soliditybase.sol\":2033:2035  hu */\n      dup6\n        /* \"solidity/task1/soliditybase.sol\":2029:2030  i */\n      dup2\n        /* \"solidity/task1/soliditybase.sol\":2029:2035  i < hu */\n      lt\n        /* \"solidity/task1/soliditybase.sol\":2012:2114  for (uint i = 0; i < hu; i++) {... */\n      iszero\n      tag_195\n      jumpi\n        /* \"solidity/task1/soliditybase.sol\":2083:2094  bytes1(\"C\") */\n      0x4300000000000000000000000000000000000000000000000000000000000000\n        /* \"solidity/task1/soliditybase.sol\":2065:2071  result */\n      dup4\n        /* \"solidity/task1/soliditybase.sol\":2072:2079  index++ */\n      dup4\n      dup1\n      tag_197\n      swap1\n      tag_62\n      jump\t// in\n    tag_197:\n      swap5\n      pop\n        /* \"solidity/task1/soliditybase.sol\":2065:2080  result[index++] */\n      dup2\n      mload\n      dup2\n      lt\n      tag_198\n      jumpi\n      tag_199\n      tag_41\n      jump\t// in\n    tag_199:\n    tag_198:\n      0x20\n      add\n      add\n        /* \"solidity/task1/soliditybase.sol\":2065:2094  result[index++] = bytes1(\"C\") */\n      swap1\n      not(0xffffffffffffffffffffffffffffffffffffffffffffffffffffffffffffff)\n      and\n      swap1\n      dup2\n      0x00\n      byte\n      swap1\n      mstore8\n      pop\n        /* \"solidity/task1/soliditybase.sol\":2037:2040  i++ */\n      dup1\n      dup1\n      0x01\n      add\n      swap2\n      pop\n      pop\n        /* \"solidity/task1/soliditybase.sol\":2012:2114  for (uint i = 0; i < hu; i++) {... */\n      jump(tag_194)\n    tag_195:\n      pop\n        /* \"solidity/task1/soliditybase.sol\":1862:2129  if (hu == 4) {... */\n    tag_193:\n        /* \"solidity/task1/soliditybase.sol\":1655:2129  if (hu >= 5) {... */\n    tag_185:\n        /* \"solidity/task1/soliditybase.sol\":1524:2129  if (hu == 9) {... */\n    tag_173:\n        /* \"solidity/task1/soliditybase.sol\":1497:2140  if (hu > 0) {... */\n    tag_165:\n        /* \"solidity/task1/soliditybase.sol\":2159:2160  0 */\n      0x00\n        /* \"solidity/task1/soliditybase.sol\":2154:2156  sh */\n      dup5\n        /* \"solidity/task1/soliditybase.sol\":2154:2160  sh > 0 */\n      gt\n        /* \"solidity/task1/soliditybase.sol\":2150:2793  if (sh > 0) {... */\n      iszero\n      tag_200\n      jumpi\n        /* \"solidity/task1/soliditybase.sol\":2187:2188  9 */\n      0x09\n        /* \"solidity/task1/soliditybase.sol\":2181:2183  sh */\n      dup5\n        /* \"solidity/task1/soliditybase.sol\":2181:2188  sh == 9 */\n      sub\n        /* \"solidity/task1/soliditybase.sol\":2177:2782  if (sh == 9) {... */\n      tag_201\n      jumpi\n        /* \"solidity/task1/soliditybase.sol\":2227:2238  bytes1(\"X\") */\n      0x5800000000000000000000000000000000000000000000000000000000000000\n        /* \"solidity/task1/soliditybase.sol\":2209:2215  result */\n      dup3\n        /* \"solidity/task1/soliditybase.sol\":2216:2223  index++ */\n      dup3\n      dup1\n      tag_202\n      swap1\n      tag_62\n      jump\t// in\n    tag_202:\n      swap4\n      pop\n        /* \"solidity/task1/soliditybase.sol\":2209:2224  result[index++] */\n      dup2\n      mload\n      dup2\n      lt\n      tag_203\n      jumpi\n      tag_204\n      tag_41\n      jump\t// in\n    tag_204:\n    tag_203:\n      0x20\n      add\n      add\n        /* \"solidity/task1/soliditybase.sol\":2209:2238  result[index++] = bytes1(\"X\") */\n      swap1\n      not(0xffffffffffffffffffffffffffffffffffffffffffffffffffffffffffffff)\n      and\n      swap1\n      dup2\n      0x00\n      byte\n      swap1\n      mstore8\n      pop\n        /* \"solidity/task1/soliditybase.sol\":2275:2286  bytes1(\"C\") */\n      0x4300000000000000000000000000000000000000000000000000000000000000\n        /* \"solidity/task1/soliditybase.sol\":2257:2263  result */\n      dup3\n        /* \"solidity/task1/soliditybase.sol\":2264:2271  index++ */\n      dup3\n      dup1\n      tag_205\n      swap1\n      tag_62\n      jump\t// in\n    tag_205:\n      swap4\n      pop\n        /* \"solidity/task1/soliditybase.sol\":2257:2272  result[index++] */\n      dup2\n      mload\n      dup2\n      lt\n      tag_206\n      jumpi\n      tag_207\n      tag_41\n      jump\t// in\n    tag_207:\n    tag_206:\n      0x20\n      add\n      add\n        /* \"solidity/task1/soliditybase.sol\":2257:2286  result[index++] = bytes1(\"C\") */\n      swap1\n      not(0xffffffffffffffffffffffffffffffffffffffffffffffffffffffffffffff)\n      and\n      swap1\n      dup2\n      0x00\n      byte\n      swap1\n      mstore8\n      pop\n        /* \"solidity/task1/soliditybase.sol\":2177:2782  if (sh == 9) {... */\n      jump(tag_208)\n    tag_201:\n        /* \"solidity/task1/soliditybase.sol\":2318:2319  5 */\n      0x05\n        /* \"solidity/task1/soliditybase.sol\":2312:2314  sh */\n      dup5\n        /* \"solidity/task1/soliditybase.sol\":2312:2319  sh >= 5 */\n      lt\n        /* \"solidity/task1/soliditybase.sol\":2308:2782  if (sh >= 5) {... */\n      tag_209\n      jumpi\n        /* \"solidity/task1/soliditybase.sol\":2358:2369  bytes1(\"L\") */\n      0x4c00000000000000000000000000000000000000000000000000000000000000\n        /* \"solidity/task1/soliditybase.sol\":2340:2346  result */\n      dup3\n        /* \"solidity/task1/soliditybase.sol\":2347:2354  index++ */\n      dup3\n      dup1\n      tag_210\n      swap1\n      tag_62\n      jump\t// in\n    tag_210:\n      swap4\n      pop\n        /* \"solidity/task1/soliditybase.sol\":2340:2355  result[index++] */\n      dup2\n      mload\n      dup2\n      lt\n      tag_211\n      jumpi\n      tag_212\n      tag_41\n      jump\t// in\n    tag_212:\n    tag_211:\n      0x20\n      add\n      add\n        /* \"solidity/task1/soliditybase.sol\":2340:2369  result[index++] = bytes1(\"L\") */\n      swap1\n      not(0xffffffffffffffffffffffffffffffffffffffffffffffffffffffffffffff)\n      and\n      swap1\n      dup2\n      0x00\n      byte\n      swap1\n      mstore8\n      pop\n        /* \"solidity/task1/soliditybase.sol\":2393:2399  uint i */\n      0x00\n        /* \"solidity/task1/soliditybase.sol\":2388:2494  for (uint i = 0; i < sh - 5; i++) {... */\n    tag_213:\n        /* \"solidity/task1/soliditybase.sol\":2414:2415  5 */\n      0x05\n        /* \"solidity/task1/soliditybase.sol\":2409:2411  sh */\n      dup6\n        /* \"solidity/task1/soliditybase.sol\":2409:2415  sh - 5 */\n      tag_216\n      swap2\n      swap1\n      tag_141\n      jump\t// in\n    tag_216:\n        /* \"solidity/task1/soliditybase.sol\":2405:2406  i */\n      dup2\n        /* \"solidity/task1/soliditybase.sol\":2405:2415  i < sh - 5 */\n      lt\n        /* \"solidity/task1/soliditybase.sol\":2388:2494  for (uint i = 0; i < sh - 5; i++) {... */\n      iszero\n      tag_214\n      jumpi\n        /* \"solidity/task1/soliditybase.sol\":2463:2474  bytes1(\"X\") */\n      0x5800000000000000000000000000000000000000000000000000000000000000\n        /* \"solidity/task1/soliditybase.sol\":2445:2451  result */\n      dup4\n        /* \"solidity/task1/soliditybase.sol\":2452:2459  index++ */\n      dup4\n      dup1\n      tag_217\n      swap1\n      tag_62\n      jump\t// in\n    tag_217:\n      swap5\n      pop\n        /* \"solidity/task1/soliditybase.sol\":2445:2460  result[index++] */\n      dup2\n      mload\n      dup2\n      lt\n      tag_218\n      jumpi\n      tag_219\n      tag_41\n      jump\t// in\n    tag_219:\n    tag_218:\n      0x20\n      add\n      add\n        /* \"solidity/task1/soliditybase.sol\":2445:2474  result[index++] = bytes1(\"X\") */\n      swap1\n      not(0xffffffffffffffffffffffffffffffffffffffffffffffffffffffffffffff)\n      and\n      swap1\n      dup2\n      0x00\n      byte\n      swap1\n      mstore8\n      pop\n        /* \"solidity/task1/soliditybase.sol\":2417:2420  i++ */\n      dup1\n      dup1\n      0x01\n      add\n      swap2\n      pop\n      pop\n        /* \"solidity/task1/soliditybase.sol\":2388:2494  for (uint i = 0; i < sh - 5; i++) {... */\n      jump(tag_213)\n    tag_214:\n      pop\n        /* \"solidity/task1/soliditybase.sol\":2308:2782  if (sh >= 5) {... */\n      jump(tag_220)\n    tag_209:\n        /* \"solidity/task1/soliditybase.sol\":2525:2526  4 */\n      0x04\n        /* \"solidity/task1/soliditybase.sol\":2519:2521  sh */\n      dup5\n        /* \"solidity/task1/soliditybase.sol\":2519:2526  sh == 4 */\n      sub\n        /* \"solidity/task1/soliditybase.sol\":2515:2782  if (sh == 4) {... */\n      tag_221\n      jumpi\n        /* \"solidity/task1/soliditybase.sol\":2565:2576  bytes1(\"X\") */\n      0x5800000000000000000000000000000000000000000000000000000000000000\n        /* \"solidity/task1/soliditybase.sol\":2547:2553  result */\n      dup3\n        /* \"solidity/task1/soliditybase.sol\":2554:2561  index++ */\n      dup3\n      dup1\n      tag_222\n      swap1\n      tag_62\n      jump\t// in\n    tag_222:\n      swap4\n      pop\n        /* \"solidity/task1/soliditybase.sol\":2547:2562  result[index++] */\n      dup2\n      mload\n      dup2\n      lt\n      tag_223\n      jumpi\n      tag_224\n      tag_41\n      jump\t// in\n    tag_224:\n    tag_223:\n      0x20\n      add\n      add\n        /* \"solidity/task1/soliditybase.sol\":2547:2576  result[index++] = bytes1(\"X\") */\n      swap1\n      not(0xffffffffffffffffffffffffffffffffffffffffffffffffffffffffffffff)\n      and\n      swap1\n      dup2\n      0x00\n      byte\n      swap1\n      mstore8\n      pop\n        /* \"solidity/task1/soliditybase.sol\":2613:2624  bytes1(\"L\") */\n      0x4c00000000000000000000000000000000000000000000000000000000000000\n        /* \"solidity/task1/soliditybase.sol\":2595:2601  result */\n      dup3\n        /* \"solidity/task1/soliditybase.sol\":2602:2609  index++ */\n      dup3\n      dup1\n      tag_225\n      swap1\n      tag_62\n      jump\t// in\n    tag_225:\n      swap4\n      pop\n        /* \"solidity/task1/soliditybase.sol\":2595:2610  result[index++] */\n      dup2\n      mload\n      dup2\n      lt\n      tag_226\n      jumpi\n      tag_227\n      tag_41\n      jump\t// in\n    tag_227:\n    tag_226:\n      0x20\n      add\n      add\n        /* \"solidity/task1/soliditybase.sol\":2595:2624  result[index++] = bytes1(\"L\") */\n      swap1\n      not(0xffffffffffffffffffffffffffffffffffffffffffffffffffffffffffffff)\n      and\n      swap1\n      dup2\n      0x00\n      byte\n      swap1\n      mstore8\n      pop\n        /* \"solidity/task1/soliditybase.sol\":2515:2782  if (sh == 4) {... */\n      jump(tag_228)\n    tag_221:\n        /* \"solidity/task1/soliditybase.sol\":2670:2676  uint i */\n      0x00\n        /* \"solidity/task1/soliditybase.sol\":2665:2767  for (uint i = 0; i < sh; i++) {... */\n    tag_229:\n        /* \"solidity/task1/soliditybase.sol\":2686:2688  sh */\n      dup5\n        /* \"solidity/task1/soliditybase.sol\":2682:2683  i */\n      dup2\n        /* \"solidity/task1/soliditybase.sol\":2682:2688  i < sh */\n      lt\n        /* \"solidity/task1/soliditybase.sol\":2665:2767  for (uint i = 0; i < sh; i++) {... */\n      iszero\n      tag_230\n      jumpi\n        /* \"solidity/task1/soliditybase.sol\":2736:2747  bytes1(\"X\") */\n      0x5800000000000000000000000000000000000000000000000000000000000000\n        /* \"solidity/task1/soliditybase.sol\":2718:2724  result */\n      dup4\n        /* \"solidity/task1/soliditybase.sol\":2725:2732  index++ */\n      dup4\n      dup1\n      tag_232\n      swap1\n      tag_62\n      jump\t// in\n    tag_232:\n      swap5\n      pop\n        /* \"solidity/task1/soliditybase.sol\":2718:2733  result[index++] */\n      dup2\n      mload\n      dup2\n      lt\n      tag_233\n      jumpi\n      tag_234\n      tag_41\n      jump\t// in\n    tag_234:\n    tag_233:\n      0x20\n      add\n      add\n        /* \"solidity/task1/soliditybase.sol\":2718:2747  result[index++] = bytes1(\"X\") */\n      swap1\n      not(0xffffffffffffffffffffffffffffffffffffffffffffffffffffffffffffff)\n      and\n      swap1\n      dup2\n      0x00\n      byte\n      swap1\n      mstore8\n      pop\n        /* \"solidity/task1/soliditybase.sol\":2690:2693  i++ */\n      dup1\n      dup1\n      0x01\n      add\n      swap2\n      pop\n      pop\n        /* \"solidity/task1/soliditybase.sol\":2665:2767  for (uint i = 0; i < sh; i++) {... */\n      jump(tag_229)\n    tag_230:\n      pop\n        /* \"solidity/task1/soliditybase.sol\":2515:2782  if (sh == 4) {... */\n    tag_228:\n        /* \"solidity/task1/soliditybase.sol\":2308:2782  if (sh >= 5) {... */\n    tag_220:\n        /* \"solidity/task1/soliditybase.sol\":2177:2782  if (sh == 9) {... */\n    tag_208:\n        /* \"solidity/task1/soliditybase.sol\":2150:2793  if (sh > 0) {... */\n    tag_200:\n        /* \"solidity/task1/soliditybase.sol\":2812:2813  0 */\n      0x00\n        /* \"solidity/task1/soliditybase.sol\":2807:2809  ge */\n      dup4\n        /* \"solidity/task1/soliditybase.sol\":2807:2813  ge > 0 */\n      gt\n        /* \"solidity/task1/soliditybase.sol\":2803:3446  if (ge > 0) {... */\n      iszero\n      tag_235\n      jumpi\n        /* \"solidity/task1/soliditybase.sol\":2840:2841  9 */\n      0x09\n        /* \"solidity/task1/soliditybase.sol\":2834:2836  ge */\n      dup4\n        /* \"solidity/task1/soliditybase.sol\":2834:2841  ge == 9 */\n      sub\n        /* \"solidity/task1/soliditybase.sol\":2830:3435  if (ge == 9) {... */\n      tag_236\n      jumpi\n        /* \"solidity/task1/soliditybase.sol\":2880:2891  bytes1(\"I\") */\n      0x4900000000000000000000000000000000000000000000000000000000000000\n        /* \"solidity/task1/soliditybase.sol\":2862:2868  result */\n      dup3\n        /* \"solidity/task1/soliditybase.sol\":2869:2876  index++ */\n      dup3\n      dup1\n      tag_237\n      swap1\n      tag_62\n      jump\t// in\n    tag_237:\n      swap4\n      pop\n        /* \"solidity/task1/soliditybase.sol\":2862:2877  result[index++] */\n      dup2\n      mload\n      dup2\n      lt\n      tag_238\n      jumpi\n      tag_239\n      tag_41\n      jump\t// in\n    tag_239:\n    tag_238:\n      0x20\n      add\n      add\n        /* \"solidity/task1/soliditybase.sol\":2862:2891  result[index++] = bytes1(\"I\") */\n      swap1\n      not(0xffffffffffffffffffffffffffffffffffffffffffffffffffffffffffffff)\n      and\n      swap1\n      dup2\n      0x00\n      byte\n      swap1\n      mstore8\n      pop\n        /* \"solidity/task1/soliditybase.sol\":2928:2939  bytes1(\"X\") */\n      0x5800000000000000000000000000000000000000000000000000000000000000\n        /* \"solidity/task1/soliditybase.sol\":2910:2916  result */\n      dup3\n        /* \"solidity/task1/soliditybase.sol\":2917:2924  index++ */\n      dup3\n      dup1\n      tag_240\n      swap1\n      tag_62\n      jump\t// in\n    tag_240:\n      swap4\n      pop\n        /* \"solidity/task1/soliditybase.sol\":2910:2925  result[index++] */\n      dup2\n      mload\n      dup2\n      lt\n      tag_241\n      jumpi\n      tag_242\n      tag_41\n      jump\t// in\n    tag_242:\n    tag_241:\n      0x20\n      add\n      add\n        /* \"solidity/task1/soliditybase.sol\":2910:2939  result[index++] = bytes1(\"X\") */\n      swap1\n      not(0xffffffffffffffffffffffffffffffffffffffffffffffffffffffffffffff)\n      and\n      swap1\n      dup2\n      0x00\n      byte\n      swap1\n      mstore8\n      pop\n        /* \"solidity/task1/soliditybase.sol\":2830:3435  if (ge == 9) {... */\n      jump(tag_243)\n    tag_236:\n        /* \"solidity/task1/soliditybase.sol\":2971:2972  5 */\n      0x05\n        /* \"solidity/task1/soliditybase.sol\":2965:2967  ge */\n      dup4\n        /* \"solidity/task1/soliditybase.sol\":2965:2972  ge >= 5 */\n      lt\n        /* \"solidity/task1/soliditybase.sol\":2961:3435  if (ge >= 5) {... */\n      tag_244\n      jumpi\n        /* \"solidity/task1/soliditybase.sol\":3011:3022  bytes1(\"V\") */\n      0x5600000000000000000000000000000000000000000000000000000000000000\n        /* \"solidity/task1/soliditybase.sol\":2993:2999  result */\n      dup3\n        /* \"solidity/task1/soliditybase.sol\":3000:3007  index++ */\n      dup3\n      dup1\n      tag_245\n      swap1\n      tag_62\n      jump\t// in\n    tag_245:\n      swap4\n      pop\n        /* \"solidity/task1/soliditybase.sol\":2993:3008  result[index++] */\n      dup2\n      mload\n      dup2\n      lt\n      tag_246\n      jumpi\n      tag_247\n      tag_41\n      jump\t// in\n    tag_247:\n    tag_246:\n      0x20\n      add\n      add\n        /* \"solidity/task1/soliditybase.sol\":2993:3022  result[index++] = bytes1(\"V\") */\n      swap1\n      not(0xffffffffffffffffffffffffffffffffffffffffffffffffffffffffffffff)\n      and\n      swap1\n      dup2\n      0x00\n      byte\n      swap1\n      mstore8\n      pop\n        /* \"solidity/task1/soliditybase.sol\":3046:3052  uint i */\n      0x00\n        /* \"solidity/task1/soliditybase.sol\":3041:3147  for (uint i = 0; i < ge - 5; i++) {... */\n    tag_248:\n        /* \"solidity/task1/soliditybase.sol\":3067:3068  5 */\n      0x05\n        /* \"solidity/task1/soliditybase.sol\":3062:3064  ge */\n      dup5\n        /* \"solidity/task1/soliditybase.sol\":3062:3068  ge - 5 */\n      tag_251\n      swap2\n      swap1\n      tag_141\n      jump\t// in\n    tag_251:\n        /* \"solidity/task1/soliditybase.sol\":3058:3059  i */\n      dup2\n        /* \"solidity/task1/soliditybase.sol\":3058:3068  i < ge - 5 */\n      lt\n        /* \"solidity/task1/soliditybase.sol\":3041:3147  for (uint i = 0; i < ge - 5; i++) {... */\n      iszero\n      tag_249\n      jumpi\n        /* \"solidity/task1/soliditybase.sol\":3116:3127  bytes1(\"I\") */\n      0x4900000000000000000000000000000000000000000000000000000000000000\n        /* \"solidity/task1/soliditybase.sol\":3098:3104  result */\n      dup4\n        /* \"solidity/task1/soliditybase.sol\":3105:3112  index++ */\n      dup4\n      dup1\n      tag_252\n      swap1\n      tag_62\n      jump\t// in\n    tag_252:\n      swap5\n      pop\n        /* \"solidity/task1/soliditybase.sol\":3098:3113  result[index++] */\n      dup2\n      mload\n      dup2\n      lt\n      tag_253\n      jumpi\n      tag_254\n      tag_41\n      jump\t// in\n    tag_254:\n    tag_253:\n      0x20\n      add\n      add\n        /* \"solidity/task1/soliditybase.sol\":3098:3127  result[index++] = bytes1(\"I\") */\n      swap1\n      not(0xffffffffffffffffffffffffffffffffffffffffffffffffffffffffffffff)\n      and\n      swap1\n      dup2\n      0x00\n      byte\n      swap1\n      mstore8\n      pop\n        /* \"solidity/task1/soliditybase.sol\":3070:3073  i++ */\n      dup1\n      dup1\n      0x01\n      add\n      swap2\n      pop\n      pop\n        /* \"solidity/task1/soliditybase.sol\":3041:3147  for (uint i = 0; i < ge - 5; i++) {... */\n      jump(tag_248)\n    tag_249:\n      pop\n        /* \"solidity/task1/soliditybase.sol\":2961:3435  if (ge >= 5) {... */\n      jump(tag_255)\n    tag_244:\n        /* \"solidity/task1/soliditybase.sol\":3178:3179  4 */\n      0x04\n        /* \"solidity/task1/soliditybase.sol\":3172:3174  ge */\n      dup4\n        /* \"solidity/task1/soliditybase.sol\":3172:3179  ge == 4 */\n      sub\n        /* \"solidity/task1/soliditybase.sol\":3168:3435  if (ge == 4) {... */\n      tag_256\n      jumpi\n        /* \"solidity/task1/soliditybase.sol\":3218:3229  bytes1(\"I\") */\n      0x4900000000000000000000000000000000000000000000000000000000000000\n        /* \"solidity/task1/soliditybase.sol\":3200:3206  result */\n      dup3\n        /* \"solidity/task1/soliditybase.sol\":3207:3214  index++ */\n      dup3\n      dup1\n      tag_257\n      swap1\n      tag_62\n      jump\t// in\n    tag_257:\n      swap4\n      pop\n        /* \"solidity/task1/soliditybase.sol\":3200:3215  result[index++] */\n      dup2\n      mload\n      dup2\n      lt\n      tag_258\n      jumpi\n      tag_259\n      tag_41\n      jump\t// in\n    tag_259:\n    tag_258:\n      0x20\n      add\n      add\n        /* \"solidity/task1/soliditybase.sol\":3200:3229  result[index++] = bytes1(\"I\") */\n      swap1\n      not(0xffffffffffffffffffffffffffffffffffffffffffffffffffffffffffffff)\n      and\n      swap1\n      dup2\n      0x00\n      byte\n      swap1\n      mstore8\n      pop\n        /* \"solidity/task1/soliditybase.sol\":3266:3277  bytes1(\"V\") */\n      0x5600000000000000000000000000000000000000000000000000000000000000\n        /* \"solidity/task1/soliditybase.sol\":3248:3254  result */\n      dup3\n        /* \"solidity/task1/soliditybase.sol\":3255:3262  index++ */\n      dup3\n      dup1\n      tag_260\n      swap1\n      tag_62\n      jump\t// in\n    tag_260:\n      swap4\n      pop\n        /* \"solidity/task1/soliditybase.sol\":3248:3263  result[index++] */\n      dup2\n      mload\n      dup2\n      lt\n      tag_261\n      jumpi\n      tag_262\n      tag_41\n      jump\t// in\n    tag_262:\n    tag_261:\n      0x20\n      add\n      add\n        /* \"solidity/task1/soliditybase.sol\":3248:3277  result[index++] = bytes1(\"V\") */\n      swap1\n      not(0xffffffffffffffffffffffffffffffffffffffffffffffffffffffffffffff)\n      and\n      swap1\n      dup2\n      0x00\n      byte\n      swap1\n      mstore8\n      pop\n        /* \"solidity/task1/soliditybase.sol\":3168:3435  if (ge == 4) {... */\n      jump(tag_263)\n    tag_256:\n        /* \"solidity/task1/soliditybase.sol\":3323:3329  uint i */\n      0x00\n        /* \"solidity/task1/soliditybase.sol\":3318:3420  for (uint i = 0; i < ge; i++) {... */\n    tag_264:\n        /* \"solidity/task1/soliditybase.sol\":3339:3341  ge */\n      dup4\n        /* \"solidity/task1/soliditybase.sol\":3335:3336  i */\n      dup2\n        /* \"solidity/task1/soliditybase.sol\":3335:3341  i < ge */\n      lt\n        /* \"solidity/task1/soliditybase.sol\":3318:3420  for (uint i = 0; i < ge; i++) {... */\n      iszero\n      tag_265\n      jumpi\n        /* \"solidity/task1/soliditybase.sol\":3389:3400  bytes1(\"I\") */\n      0x4900000000000000000000000000000000000000000000000000000000000000\n        /* \"solidity/task1/soliditybase.sol\":3371:3377  result */\n      dup4\n        /* \"solidity/task1/soliditybase.sol\":3378:3385  index++ */\n      dup4\n      dup1\n      tag_267\n      swap1\n      tag_62\n      jump\t// in\n    tag_267:\n      swap5\n      pop\n        /* \"solidity/task1/soliditybase.sol\":3371:3386  result[index++] */\n      dup2\n      mload\n      dup2\n      lt\n      tag_268\n      jumpi\n      tag_269\n      tag_41\n      jump\t// in\n    tag_269:\n    tag_268:\n      0x20\n      add\n      add\n        /* \"solidity/task1/soliditybase.sol\":3371:3400  result[index++] = bytes1(\"I\") */\n      swap1\n      not(0xffffffffffffffffffffffffffffffffffffffffffffffffffffffffffffff)\n      and\n      swap1\n      dup2\n      0x00\n      byte\n      swap1\n      mstore8\n      pop\n        /* \"solidity/task1/soliditybase.sol\":3343:3346  i++ */\n      dup1\n      dup1\n      0x01\n      add\n      swap2\n      pop\n      pop\n        /* \"solidity/task1/soliditybase.sol\":3318:3420  for (uint i = 0; i < ge; i++) {... */\n      jump(tag_264)\n    tag_265:\n      pop\n        /* \"solidity/task1/soliditybase.sol\":3168:3435  if (ge == 4) {... */\n    tag_263:\n        /* \"solidity/task1/soliditybase.sol\":2961:3435  if (ge >= 5) {... */\n    tag_255:\n        /* \"solidity/task1/soliditybase.sol\":2830:3435  if (ge == 9) {... */\n    tag_243:\n        /* \"solidity/task1/soliditybase.sol\":2803:3446  if (ge > 0) {... */\n    tag_235:\n        /* \"solidity/task1/soliditybase.sol\":3456:3476  bytes memory realres */\n      0x00\n        /* \"solidity/task1/soliditybase.sol\":3489:3494  index */\n      dup2\n        /* \"solidity/task1/soliditybase.sol\":3479:3495  new bytes(index) */\n      0xffffffffffffffff\n      dup2\n      gt\n      iszero\n      tag_270\n      jumpi\n      tag_271\n      tag_156\n      jump\t// in\n    tag_271:\n    tag_270:\n      mload(0x40)\n      swap1\n      dup1\n      dup3\n      mstore\n      dup1\n      0x1f\n      add\n      not(0x1f)\n      and\n      0x20\n      add\n      dup3\n      add\n      0x40\n      mstore\n      dup1\n      iszero\n      tag_272\n      jumpi\n      dup2\n      0x20\n      add\n      0x01\n      dup3\n      mul\n      dup1\n      calldatasize\n      dup4\n      calldatacopy\n      dup1\n      dup3\n      add\n      swap2\n      pop\n      pop\n      swap1\n      pop\n    tag_272:\n      pop\n        /* \"solidity/task1/soliditybase.sol\":3456:3495  bytes memory realres = new bytes(index) */\n      swap1\n      pop\n        /* \"solidity/task1/soliditybase.sol\":3511:3517  uint i */\n      0x00\n        /* \"solidity/task1/soliditybase.sol\":3506:3588  for (uint i = 0; i < index; i++) {... */\n    tag_273:\n        /* \"solidity/task1/soliditybase.sol\":3527:3532  index */\n      dup3\n        /* \"solidity/task1/soliditybase.sol\":3523:3524  i */\n      dup2\n        /* \"solidity/task1/soliditybase.sol\":3523:3532  i < index */\n      lt\n        /* \"solidity/task1/soliditybase.sol\":3506:3588  for (uint i = 0; i < index; i++) {... */\n      iszero\n      tag_274\n      jumpi\n        /* \"solidity/task1/soliditybase.sol\":3567:3573  result */\n      dup4\n        /* \"solidity/task1/soliditybase.sol\":3574:3575  i */\n      dup2\n        /* \"solidity/task1/soliditybase.sol\":3567:3576  result[i] */\n      dup2\n      mload\n      dup2\n      lt\n      tag_276\n      jumpi\n      tag_277\n      tag_41\n      jump\t// in\n    tag_277:\n    tag_276:\n      0x20\n      add\n      add\n      mload\n      0xf8\n      shr\n      0xf8\n      shl\n        /* \"solidity/task1/soliditybase.sol\":3554:3561  realres */\n      dup3\n        /* \"solidity/task1/soliditybase.sol\":3562:3563  i */\n      dup3\n        /* \"solidity/task1/soliditybase.sol\":3554:3564  realres[i] */\n      dup2\n      mload\n      dup2\n      lt\n      tag_278\n      jumpi\n      tag_279\n      tag_41\n      jump\t// in\n    tag_279:\n    tag_278:\n      0x20\n      add\n      add\n        /* \"solidity/task1/soliditybase.sol\":3554:3576  realres[i] = result[i] */\n      swap1\n      not(0xffffffffffffffffffffffffffffffffffffffffffffffffffffffffffffff)\n      and\n      swap1\n      dup2\n      0x00\n      byte\n      swap1\n      mstore8\n      pop\n        /* \"solidity/task1/soliditybase.sol\":3534:3537  i++ */\n      dup1\n      dup1\n      0x01\n      add\n      swap2\n      pop\n      pop\n        /* \"solidity/task1/soliditybase.sol\":3506:3588  for (uint i = 0; i < index; i++) {... */\n      jump(tag_273)\n    tag_274:\n      pop\n        /* \"solidity/task1/soliditybase.sol\":3612:3619  realres */\n      dup1\n        /* \"solidity/task1/soliditybase.sol\":3598:3620  return string(realres) */\n      swap8\n      pop\n      pop\n      pop\n      pop\n      pop\n      pop\n      pop\n      pop\n        /* \"solidity/task1/soliditybase.sol\":956:3628  function IntToRoma(uint num) public pure returns(string memory){... */\n      swap2\n      swap1\n      pop\n      jump\t// out\n        /* \"solidity/task1/soliditybase.sol\":612:919  function reverseString(string memory str) public pure returns(string memory) {... */\n    tag_22:\n        /* \"solidity/task1/soliditybase.sol\":674:687  string memory */\n      0x60\n        /* \"solidity/task1/soliditybase.sol\":700:717  bytes memory bstr */\n      0x00\n        /* \"solidity/task1/soliditybase.sol\":726:729  str */\n      dup3\n        /* \"solidity/task1/soliditybase.sol\":700:730  bytes memory bstr = bytes(str) */\n      swap1\n      pop\n        /* \"solidity/task1/soliditybase.sol\":746:752  uint i */\n      0x00\n        /* \"solidity/task1/soliditybase.sol\":741:882  for (uint i = 0; i < bstr.length /2; i++) {... */\n    tag_281:\n        /* \"solidity/task1/soliditybase.sol\":775:776  2 */\n      0x02\n        /* \"solidity/task1/soliditybase.sol\":762:766  bstr */\n      dup3\n        /* \"solidity/task1/soliditybase.sol\":762:773  bstr.length */\n      mload\n        /* \"solidity/task1/soliditybase.sol\":762:776  bstr.length /2 */\n      tag_284\n      swap2\n      swap1\n      tag_137\n      jump\t// in\n    tag_284:\n        /* \"solidity/task1/soliditybase.sol\":758:759  i */\n      dup2\n        /* \"solidity/task1/soliditybase.sol\":758:776  i < bstr.length /2 */\n      lt\n        /* \"solidity/task1/soliditybase.sol\":741:882  for (uint i = 0; i < bstr.length /2; i++) {... */\n      iszero\n      tag_282\n      jumpi\n        /* \"solidity/task1/soliditybase.sol\":837:841  bstr */\n      dup2\n        /* \"solidity/task1/soliditybase.sol\":858:859  1 */\n      0x01\n        /* \"solidity/task1/soliditybase.sol\":855:856  i */\n      dup3\n        /* \"solidity/task1/soliditybase.sol\":842:846  bstr */\n      dup5\n        /* \"solidity/task1/soliditybase.sol\":842:853  bstr.length */\n      mload\n        /* \"solidity/task1/soliditybase.sol\":842:856  bstr.length -i */\n      tag_285\n      swap2\n      swap1\n      tag_141\n      jump\t// in\n    tag_285:\n        /* \"solidity/task1/soliditybase.sol\":842:859  bstr.length -i -1 */\n      tag_286\n      swap2\n      swap1\n      tag_141\n      jump\t// in\n    tag_286:\n        /* \"solidity/task1/soliditybase.sol\":837:860  bstr[bstr.length -i -1] */\n      dup2\n      mload\n      dup2\n      lt\n      tag_287\n      jumpi\n      tag_288\n      tag_41\n      jump\t// in\n    tag_288:\n    tag_287:\n      0x20\n      add\n      add\n      mload\n      0xf8\n      shr\n      0xf8\n      shl\n        /* \"solidity/task1/soliditybase.sol\":862:866  bstr */\n      dup3\n        /* \"solidity/task1/soliditybase.sol\":867:868  i */\n      dup3\n        /* \"solidity/task1/soliditybase.sol\":862:869  bstr[i] */\n      dup2\n      mload\n      dup2\n      lt\n      tag_289\n      jumpi\n      tag_290\n      tag_41\n      jump\t// in\n    tag_290:\n    tag_289:\n      0x20\n      add\n      add\n      mload\n      0xf8\n      shr\n      0xf8\n      shl\n        /* \"solidity/task1/soliditybase.sol\":799:803  bstr */\n      dup4\n        /* \"solidity/task1/soliditybase.sol\":804:805  i */\n      dup4\n        /* \"solidity/task1/soliditybase.sol\":799:806  bstr[i] */\n      dup2\n      mload\n      dup2\n      lt\n      tag_291\n      jumpi\n      tag_292\n      tag_41\n      jump\t// in\n    tag_292:\n    tag_291:\n      0x20\n      add\n      add\n        /* \"solidity/task1/soliditybase.sol\":808:812  bstr */\n      dup5\n        /* \"solidity/task1/soliditybase.sol\":830:831  1 */\n      0x01\n        /* \"solidity/task1/soliditybase.sol\":826:827  i */\n      dup6\n        /* \"solidity/task1/soliditybase.sol\":813:817  bstr */\n      dup8\n        /* \"solidity/task1/soliditybase.sol\":813:824  bstr.length */\n      mload\n        /* \"solidity/task1/soliditybase.sol\":813:827  bstr.length -i */\n      tag_293\n      swap2\n      swap1\n      tag_141\n      jump\t// in\n    tag_293:\n        /* \"solidity/task1/soliditybase.sol\":813:831  bstr.length -i - 1 */\n      tag_294\n      swap2\n      swap1\n      tag_141\n      jump\t// in\n    tag_294:\n        /* \"solidity/task1/soliditybase.sol\":808:832  bstr[bstr.length -i - 1] */\n      dup2\n      mload\n      dup2\n      lt\n      tag_295\n      jumpi\n      tag_296\n      tag_41\n      jump\t// in\n    tag_296:\n    tag_295:\n      0x20\n      add\n      add\n        /* \"solidity/task1/soliditybase.sol\":798:870  (bstr[i], bstr[bstr.length -i - 1]) = (bstr[bstr.length -i -1], bstr[i]) */\n      dup3\n      not(0xffffffffffffffffffffffffffffffffffffffffffffffffffffffffffffff)\n      and\n      0x00\n      byte\n      swap1\n      mstore8\n      dup3\n      not(0xffffffffffffffffffffffffffffffffffffffffffffffffffffffffffffff)\n      and\n      0x00\n      byte\n      swap1\n      mstore8\n      pop\n      pop\n        /* \"solidity/task1/soliditybase.sol\":778:781  i++ */\n      dup1\n      dup1\n      0x01\n      add\n      swap2\n      pop\n      pop\n        /* \"solidity/task1/soliditybase.sol\":741:882  for (uint i = 0; i < bstr.length /2; i++) {... */\n      jump(tag_281)\n    tag_282:\n      pop\n        /* \"solidity/task1/soliditybase.sol\":906:910  bstr */\n      dup1\n        /* \"solidity/task1/soliditybase.sol\":892:911  return string(bstr) */\n      swap2\n      pop\n      pop\n        /* \"solidity/task1/soliditybase.sol\":612:919  function reverseString(string memory str) public pure returns(string memory) {... */\n      swap2\n      swap1\n      pop\n      jump\t// out\n        /* \"solidity/task1/soliditybase.sol\":6273:6710  function BinarySearch(uint[] memory nums, uint target) public pure returns(uint){... */\n    tag_27:\n        /* \"solidity/task1/soliditybase.sol\":6348:6352  uint */\n      0x00\n        /* \"solidity/task1/soliditybase.sol\":6364:6370  uint r */\n      dup1\n        /* \"solidity/task1/soliditybase.sol\":6373:6374  0 */\n      0x00\n        /* \"solidity/task1/soliditybase.sol\":6364:6374  uint r = 0 */\n      swap1\n      pop\n        /* \"solidity/task1/soliditybase.sol\":6385:6391  uint l */\n      0x00\n        /* \"solidity/task1/soliditybase.sol\":6408:6409  1 */\n      0x01\n        /* \"solidity/task1/soliditybase.sol\":6394:6398  nums */\n      dup6\n        /* \"solidity/task1/soliditybase.sol\":6394:6405  nums.length */\n      mload\n        /* \"solidity/task1/soliditybase.sol\":6394:6409  nums.length - 1 */\n      tag_298\n      swap2\n      swap1\n      tag_141\n      jump\t// in\n    tag_298:\n        /* \"solidity/task1/soliditybase.sol\":6385:6409  uint l = nums.length - 1 */\n      swap1\n      pop\n        /* \"solidity/task1/soliditybase.sol\":6425:6433  uint mid */\n      0x00\n        /* \"solidity/task1/soliditybase.sol\":6440:6441  2 */\n      0x02\n        /* \"solidity/task1/soliditybase.sol\":6437:6438  l */\n      dup3\n        /* \"solidity/task1/soliditybase.sol\":6435:6436  r */\n      dup5\n        /* \"solidity/task1/soliditybase.sol\":6435:6438  r+l */\n      tag_302\n      swap2\n      swap1\n      tag_44\n      jump\t// in\n    tag_302:\n        /* \"solidity/task1/soliditybase.sol\":6434:6441  (r+l)/2 */\n      tag_303\n      swap2\n      swap1\n      tag_137\n      jump\t// in\n    tag_303:\n        /* \"solidity/task1/soliditybase.sol\":6425:6441  uint mid=(r+l)/2 */\n      swap1\n      pop\n        /* \"solidity/task1/soliditybase.sol\":6420:6684  for (uint mid=(r+l)/2;mid>=r;mid=(r+l)/2){... */\n    tag_299:\n        /* \"solidity/task1/soliditybase.sol\":6447:6448  r */\n      dup3\n        /* \"solidity/task1/soliditybase.sol\":6442:6445  mid */\n      dup2\n        /* \"solidity/task1/soliditybase.sol\":6442:6448  mid>=r */\n      lt\n        /* \"solidity/task1/soliditybase.sol\":6420:6684  for (uint mid=(r+l)/2;mid>=r;mid=(r+l)/2){... */\n      tag_300\n      jumpi\n        /* \"solidity/task1/soliditybase.sol\":6493:6499  target */\n      dup5\n        /* \"solidity/task1/soliditybase.sol\":6480:6484  nums */\n      dup7\n        /* \"solidity/task1/soliditybase.sol\":6485:6488  mid */\n      dup3\n        /* \"solidity/task1/soliditybase.sol\":6480:6489  nums[mid] */\n      dup2\n      mload\n      dup2\n      lt\n      tag_304\n      jumpi\n      tag_305\n      tag_41\n      jump\t// in\n    tag_305:\n    tag_304:\n      0x20\n      mul\n      0x20\n      add\n      add\n      mload\n        /* \"solidity/task1/soliditybase.sol\":6480:6499  nums[mid] == target */\n      sub\n        /* \"solidity/task1/soliditybase.sol\":6476:6673  if (nums[mid] == target){... */\n      tag_306\n      jumpi\n        /* \"solidity/task1/soliditybase.sol\":6526:6529  mid */\n      dup1\n        /* \"solidity/task1/soliditybase.sol\":6519:6529  return mid */\n      swap4\n      pop\n      pop\n      pop\n      pop\n      jump(tag_297)\n        /* \"solidity/task1/soliditybase.sol\":6476:6673  if (nums[mid] == target){... */\n    tag_306:\n        /* \"solidity/task1/soliditybase.sol\":6567:6573  target */\n      dup5\n        /* \"solidity/task1/soliditybase.sol\":6555:6559  nums */\n      dup7\n        /* \"solidity/task1/soliditybase.sol\":6560:6563  mid */\n      dup3\n        /* \"solidity/task1/soliditybase.sol\":6555:6564  nums[mid] */\n      dup2\n      mload\n      dup2\n      lt\n      tag_308\n      jumpi\n      tag_309\n      tag_41\n      jump\t// in\n    tag_309:\n    tag_308:\n      0x20\n      mul\n      0x20\n      add\n      add\n      mload\n        /* \"solidity/task1/soliditybase.sol\":6555:6573  nums[mid] < target */\n      lt\n        /* \"solidity/task1/soliditybase.sol\":6551:6673  if (nums[mid] < target) {... */\n      iszero\n      tag_310\n      jumpi\n        /* \"solidity/task1/soliditybase.sol\":6604:6605  1 */\n      0x01\n        /* \"solidity/task1/soliditybase.sol\":6598:6601  mid */\n      dup2\n        /* \"solidity/task1/soliditybase.sol\":6598:6605  mid + 1 */\n      tag_311\n      swap2\n      swap1\n      tag_44\n      jump\t// in\n    tag_311:\n        /* \"solidity/task1/soliditybase.sol\":6594:6605  r = mid + 1 */\n      swap3\n      pop\n        /* \"solidity/task1/soliditybase.sol\":6551:6673  if (nums[mid] < target) {... */\n      jump(tag_312)\n    tag_310:\n        /* \"solidity/task1/soliditybase.sol\":6656:6657  1 */\n      0x01\n        /* \"solidity/task1/soliditybase.sol\":6650:6653  mid */\n      dup2\n        /* \"solidity/task1/soliditybase.sol\":6650:6657  mid - 1 */\n      tag_313\n      swap2\n      swap1\n      tag_141\n      jump\t// in\n    tag_313:\n        /* \"solidity/task1/soliditybase.sol\":6646:6657  l = mid - 1 */\n      swap2\n      pop\n        /* \"solidity/task1/soliditybase.sol\":6551:6673  if (nums[mid] < target) {... */\n    tag_312:\n        /* \"solidity/task1/soliditybase.sol\":6459:6460  2 */\n      0x02\n        /* \"solidity/task1/soliditybase.sol\":6456:6457  l */\n      dup3\n        /* \"solidity/task1/soliditybase.sol\":6454:6455  r */\n      dup5\n        /* \"solidity/task1/soliditybase.sol\":6454:6457  r+l */\n      tag_314\n      swap2\n      swap1\n      tag_44\n      jump\t// in\n    tag_314:\n        /* \"solidity/task1/soliditybase.sol\":6453:6460  (r+l)/2 */\n      tag_315\n      swap2\n      swap1\n      tag_137\n      jump\t// in\n    tag_315:\n        /* \"solidity/task1/soliditybase.sol\":6449:6460  mid=(r+l)/2 */\n      swap1\n      pop\n        /* \"solidity/task1/soliditybase.sol\":6420:6684  for (uint mid=(r+l)/2;mid>=r;mid=(r+l)/2){... */\n      jump(tag_299)\n    tag_300:\n      pop\n        /* \"solidity/task1/soliditybase.sol\":6701:6702  0 */\n      0x00\n        /* \"solidity/task1/soliditybase.sol\":6694:6702  return 0 */\n      swap3\n      pop\n      pop\n      pop\n        /* \"solidity/task1/soliditybase.sol\":6273:6710  function BinarySearch(uint[] memory nums, uint target) public pure returns(uint){... */\n    tag_297:\n      swap3\n      swap2\n      pop\n      pop\n      jump\t// out\n        /* \"solidity/task1/soliditybase.sol\":5460:6242  function MergeArr(uint[] memory nums1, uint[] memory nums2) public pure returns(uint[] memory){... */\n    tag_32:\n        /* \"solidity/task1/soliditybase.sol\":5540:5553  uint[] memory */\n      0x60\n        /* \"solidity/task1/soliditybase.sol\":5565:5585  uint[] memory result */\n      0x00\n        /* \"solidity/task1/soliditybase.sol\":5614:5619  nums2 */\n      dup3\n        /* \"solidity/task1/soliditybase.sol\":5614:5626  nums2.length */\n      mload\n        /* \"solidity/task1/soliditybase.sol\":5599:5604  nums1 */\n      dup5\n        /* \"solidity/task1/soliditybase.sol\":5599:5611  nums1.length */\n      mload\n        /* \"solidity/task1/soliditybase.sol\":5599:5626  nums1.length + nums2.length */\n      tag_317\n      swap2\n      swap1\n      tag_44\n      jump\t// in\n    tag_317:\n        /* \"solidity/task1/soliditybase.sol\":5588:5627  new uint[](nums1.length + nums2.length) */\n      0xffffffffffffffff\n      dup2\n      gt\n      iszero\n      tag_318\n      jumpi\n      tag_319\n      tag_156\n      jump\t// in\n    tag_319:\n    tag_318:\n      mload(0x40)\n      swap1\n      dup1\n      dup3\n      mstore\n      dup1\n      0x20\n      mul\n      0x20\n      add\n      dup3\n      add\n      0x40\n      mstore\n      dup1\n      iszero\n      tag_320\n      jumpi\n      dup2\n      0x20\n      add\n      0x20\n      dup3\n      mul\n      dup1\n      calldatasize\n      dup4\n      calldatacopy\n      dup1\n      dup3\n      add\n      swap2\n      pop\n      pop\n      swap1\n      pop\n    tag_320:\n      pop\n        /* \"solidity/task1/soliditybase.sol\":5565:5627  uint[] memory result = new uint[](nums1.length + nums2.length) */\n      swap1\n      pop\n        /* \"solidity/task1/soliditybase.sol\":5638:5644  uint i */\n      0x00\n        /* \"solidity/task1/soliditybase.sol\":5659:5665  uint j */\n      dup1\n        /* \"solidity/task1/soliditybase.sol\":5680:5686  uint k */\n      0x00\n        /* \"solidity/task1/soliditybase.sol\":5701:5975  while (i < nums1.length && j < nums2.length) {... */\n    tag_321:\n        /* \"solidity/task1/soliditybase.sol\":5712:5717  nums1 */\n      dup7\n        /* \"solidity/task1/soliditybase.sol\":5712:5724  nums1.length */\n      mload\n        /* \"solidity/task1/soliditybase.sol\":5708:5709  i */\n      dup4\n        /* \"solidity/task1/soliditybase.sol\":5708:5724  i < nums1.length */\n      lt\n        /* \"solidity/task1/soliditybase.sol\":5708:5744  i < nums1.length && j < nums2.length */\n      dup1\n      iszero\n      tag_323\n      jumpi\n      pop\n        /* \"solidity/task1/soliditybase.sol\":5732:5737  nums2 */\n      dup6\n        /* \"solidity/task1/soliditybase.sol\":5732:5744  nums2.length */\n      mload\n        /* \"solidity/task1/soliditybase.sol\":5728:5729  j */\n      dup3\n        /* \"solidity/task1/soliditybase.sol\":5728:5744  j < nums2.length */\n      lt\n        /* \"solidity/task1/soliditybase.sol\":5708:5744  i < nums1.length && j < nums2.length */\n    tag_323:\n        /* \"solidity/task1/soliditybase.sol\":5701:5975  while (i < nums1.length && j < nums2.length) {... */\n      iszero\n      tag_322\n      jumpi\n        /* \"solidity/task1/soliditybase.sol\":5776:5781  nums2 */\n      dup6\n        /* \"solidity/task1/soliditybase.sol\":5782:5783  j */\n      dup3\n        /* \"solidity/task1/soliditybase.sol\":5776:5784  nums2[j] */\n      dup2\n      mload\n      dup2\n      lt\n      tag_324\n      jumpi\n      tag_325\n      tag_41\n      jump\t// in\n    tag_325:\n    tag_324:\n      0x20\n      mul\n      0x20\n      add\n      add\n      mload\n        /* \"solidity/task1/soliditybase.sol\":5765:5770  nums1 */\n      dup8\n        /* \"solidity/task1/soliditybase.sol\":5771:5772  i */\n      dup5\n        /* \"solidity/task1/soliditybase.sol\":5765:5773  nums1[i] */\n      dup2\n      mload\n      dup2\n      lt\n      tag_326\n      jumpi\n      tag_327\n      tag_41\n      jump\t// in\n    tag_327:\n    tag_326:\n      0x20\n      mul\n      0x20\n      add\n      add\n      mload\n        /* \"solidity/task1/soliditybase.sol\":5765:5784  nums1[i] < nums2[j] */\n      lt\n        /* \"solidity/task1/soliditybase.sol\":5761:5946  if (nums1[i] < nums2[j]) {... */\n      iszero\n      tag_328\n      jumpi\n        /* \"solidity/task1/soliditybase.sol\":5817:5822  nums1 */\n      dup7\n        /* \"solidity/task1/soliditybase.sol\":5823:5824  i */\n      dup4\n        /* \"solidity/task1/soliditybase.sol\":5817:5825  nums1[i] */\n      dup2\n      mload\n      dup2\n      lt\n      tag_329\n      jumpi\n      tag_330\n      tag_41\n      jump\t// in\n    tag_330:\n    tag_329:\n      0x20\n      mul\n      0x20\n      add\n      add\n      mload\n        /* \"solidity/task1/soliditybase.sol\":5805:5811  result */\n      dup5\n        /* \"solidity/task1/soliditybase.sol\":5812:5813  k */\n      dup3\n        /* \"solidity/task1/soliditybase.sol\":5805:5814  result[k] */\n      dup2\n      mload\n      dup2\n      lt\n      tag_331\n      jumpi\n      tag_332\n      tag_41\n      jump\t// in\n    tag_332:\n    tag_331:\n      0x20\n      mul\n      0x20\n      add\n      add\n        /* \"solidity/task1/soliditybase.sol\":5805:5825  result[k] = nums1[i] */\n      dup2\n      dup2\n      mstore\n      pop\n      pop\n        /* \"solidity/task1/soliditybase.sol\":5844:5847  i++ */\n      dup3\n      dup1\n      tag_333\n      swap1\n      tag_62\n      jump\t// in\n    tag_333:\n      swap4\n      pop\n      pop\n        /* \"solidity/task1/soliditybase.sol\":5761:5946  if (nums1[i] < nums2[j]) {... */\n      jump(tag_334)\n    tag_328:\n        /* \"solidity/task1/soliditybase.sol\":5900:5905  nums2 */\n      dup6\n        /* \"solidity/task1/soliditybase.sol\":5906:5907  j */\n      dup3\n        /* \"solidity/task1/soliditybase.sol\":5900:5908  nums2[j] */\n      dup2\n      mload\n      dup2\n      lt\n      tag_335\n      jumpi\n      tag_336\n      tag_41\n      jump\t// in\n    tag_336:\n    tag_335:\n      0x20\n      mul\n      0x20\n      add\n      add\n      mload\n        /* \"solidity/task1/soliditybase.sol\":5888:5894  result */\n      dup5\n        /* \"solidity/task1/soliditybase.sol\":5895:5896  k */\n      dup3\n        /* \"solidity/task1/soliditybase.sol\":5888:5897  result[k] */\n      dup2\n      mload\n      dup2\n      lt\n      tag_337\n      jumpi\n      tag_338\n      tag_41\n      jump\t// in\n    tag_338:\n    tag_337:\n      0x20\n      mul\n      0x20\n      add\n      add\n        /* \"solidity/task1/soliditybase.sol\":5888:5908  result[k] = nums2[j] */\n      dup2\n      dup2\n      mstore\n      pop\n      pop\n        /* \"solidity/task1/soliditybase.sol\":5927:5930  j++ */\n      dup2\n      dup1\n      tag_339\n      swap1\n      tag_62\n      jump\t// in\n    tag_339:\n      swap3\n      pop\n      pop\n        /* \"solidity/task1/soliditybase.sol\":5761:5946  if (nums1[i] < nums2[j]) {... */\n    tag_334:\n        /* \"solidity/task1/soliditybase.sol\":5960:5963  k++ */\n      dup1\n      dup1\n      tag_340\n      swap1\n      tag_62\n      jump\t// in\n    tag_340:\n      swap2\n      pop\n      pop\n        /* \"solidity/task1/soliditybase.sol\":5701:5975  while (i < nums1.length && j < nums2.length) {... */\n      jump(tag_321)\n    tag_322:\n        /* \"solidity/task1/soliditybase.sol\":5985:6093  while (i < nums1.length) {... */\n    tag_341:\n        /* \"solidity/task1/soliditybase.sol\":5996:6001  nums1 */\n      dup7\n        /* \"solidity/task1/soliditybase.sol\":5996:6008  nums1.length */\n      mload\n        /* \"solidity/task1/soliditybase.sol\":5992:5993  i */\n      dup4\n        /* \"solidity/task1/soliditybase.sol\":5992:6008  i < nums1.length */\n      lt\n        /* \"solidity/task1/soliditybase.sol\":5985:6093  while (i < nums1.length) {... */\n      iszero\n      tag_342\n      jumpi\n        /* \"solidity/task1/soliditybase.sol\":6037:6042  nums1 */\n      dup7\n        /* \"solidity/task1/soliditybase.sol\":6043:6044  i */\n      dup4\n        /* \"solidity/task1/soliditybase.sol\":6037:6045  nums1[i] */\n      dup2\n      mload\n      dup2\n      lt\n      tag_343\n      jumpi\n      tag_344\n      tag_41\n      jump\t// in\n    tag_344:\n    tag_343:\n      0x20\n      mul\n      0x20\n      add\n      add\n      mload\n        /* \"solidity/task1/soliditybase.sol\":6025:6031  result */\n      dup5\n        /* \"solidity/task1/soliditybase.sol\":6032:6033  k */\n      dup3\n        /* \"solidity/task1/soliditybase.sol\":6025:6034  result[k] */\n      dup2\n      mload\n      dup2\n      lt\n      tag_345\n      jumpi\n      tag_346\n      tag_41\n      jump\t// in\n    tag_346:\n    tag_345:\n      0x20\n      mul\n      0x20\n      add\n      add\n        /* \"solidity/task1/soliditybase.sol\":6025:6045  result[k] = nums1[i] */\n      dup2\n      dup2\n      mstore\n      pop\n      pop\n        /* \"solidity/task1/soliditybase.sol\":6060:6063  i++ */\n      dup3\n      dup1\n      tag_347\n      swap1\n      tag_62\n      jump\t// in\n    tag_347:\n      swap4\n      pop\n      pop\n        /* \"solidity/task1/soliditybase.sol\":6078:6081  k++ */\n      dup1\n      dup1\n      tag_348\n      swap1\n      tag_62\n      jump\t// in\n    tag_348:\n      swap2\n      pop\n      pop\n        /* \"solidity/task1/soliditybase.sol\":5985:6093  while (i < nums1.length) {... */\n      jump(tag_341)\n    tag_342:\n        /* \"solidity/task1/soliditybase.sol\":6103:6211  while (j < nums2.length) {... */\n    tag_349:\n        /* \"solidity/task1/soliditybase.sol\":6114:6119  nums2 */\n      dup6\n        /* \"solidity/task1/soliditybase.sol\":6114:6126  nums2.length */\n      mload\n        /* \"solidity/task1/soliditybase.sol\":6110:6111  j */\n      dup3\n        /* \"solidity/task1/soliditybase.sol\":6110:6126  j < nums2.length */\n      lt\n        /* \"solidity/task1/soliditybase.sol\":6103:6211  while (j < nums2.length) {... */\n      iszero\n      tag_350\n      jumpi\n        /* \"solidity/task1/soliditybase.sol\":6155:6160  nums2 */\n      dup6\n        /* \"solidity/task1/soliditybase.sol\":6161:6162  j */\n      dup3\n        /* \"solidity/task1/soliditybase.sol\":6155:6163  nums2[j] */\n      dup2\n      mload\n      dup2\n      lt\n      tag_351\n      jumpi\n      tag_352\n      tag_41\n      jump\t// in\n    tag_352:\n    tag_351:\n      0x20\n      mul\n      0x20\n      add\n      add\n      mload\n        /* \"solidity/task1/soliditybase.sol\":6143:6149  result */\n      dup5\n        /* \"solidity/task1/soliditybase.sol\":6150:6151  k */\n      dup3\n        /* \"solidity/task1/soliditybase.sol\":6143:6152  result[k] */\n      dup2\n      mload\n      dup2\n      lt\n      tag_353\n      jumpi\n      tag_354\n      tag_41\n      jump\t// in\n    tag_354:\n    tag_353:\n      0x20\n      mul\n      0x20\n      add\n      add\n        /* \"solidity/task1/soliditybase.sol\":6143:6163  result[k] = nums2[j] */\n      dup2\n      dup2\n      mstore\n      pop\n      pop\n        /* \"solidity/task1/soliditybase.sol\":6178:6181  j++ */\n      dup2\n      dup1\n      tag_355\n      swap1\n      tag_62\n      jump\t// in\n    tag_355:\n      swap3\n      pop\n      pop\n        /* \"solidity/task1/soliditybase.sol\":6196:6199  k++ */\n      dup1\n      dup1\n      tag_356\n      swap1\n      tag_62\n      jump\t// in\n    tag_356:\n      swap2\n      pop\n      pop\n        /* \"solidity/task1/soliditybase.sol\":6103:6211  while (j < nums2.length) {... */\n      jump(tag_349)\n    tag_350:\n        /* \"solidity/task1/soliditybase.sol\":6228:6234  result */\n      dup4\n        /* \"solidity/task1/soliditybase.sol\":6221:6234  return result */\n      swap5\n      pop\n      pop\n      pop\n      pop\n      pop\n        /* \"solidity/task1/soliditybase.sol\":5460:6242  function MergeArr(uint[] memory nums1, uint[] memory nums2) public pure returns(uint[] memory){... */\n      swap3\n      swap2\n      pop\n      pop\n      jump\t// out\n        /* \"#utility.yul\":7:82   */\n    tag_357:\n        /* \"#utility.yul\":40:46   */\n      0x00\n        /* \"#utility.yul\":73:75   */\n      0x40\n        /* \"#utility.yul\":67:76   */\n      mload\n        /* \"#utility.yul\":57:76   */\n      swap1\n      pop\n        /* \"#utility.yul\":7:82   */\n      swap1\n      jump\t// out\n        /* \"#utility.yul\":88:205   */\n    tag_358:\n        /* \"#utility.yul\":197:198   */\n      0x00\n        /* \"#utility.yul\":194:195   */\n      dup1\n        /* \"#utility.yul\":187:199   */\n      revert\n        /* \"#utility.yul\":211:328   */\n    tag_359:\n        /* \"#utility.yul\":320:321   */\n      0x00\n        /* \"#utility.yul\":317:318   */\n      dup1\n        /* \"#utility.yul\":310:322   */\n      revert\n        /* \"#utility.yul\":334:451   */\n    tag_360:\n        /* \"#utility.yul\":443:444   */\n      0x00\n        /* \"#utility.yul\":440:441   */\n      dup1\n        /* \"#utility.yul\":433:445   */\n      revert\n        /* \"#utility.yul\":457:574   */\n    tag_361:\n        /* \"#utility.yul\":566:567   */\n      0x00\n        /* \"#utility.yul\":563:564   */\n      dup1\n        /* \"#utility.yul\":556:568   */\n      revert\n        /* \"#utility.yul\":580:682   */\n    tag_362:\n        /* \"#utility.yul\":621:627   */\n      0x00\n        /* \"#utility.yul\":672:674   */\n      0x1f\n        /* \"#utility.yul\":668:675   */\n      not\n        /* \"#utility.yul\":663:665   */\n      0x1f\n        /* \"#utility.yul\":656:661   */\n      dup4\n        /* \"#utility.yul\":652:666   */\n      add\n        /* \"#utility.yul\":648:676   */\n      and\n        /* \"#utility.yul\":638:676   */\n      swap1\n      pop\n        /* \"#utility.yul\":580:682   */\n      swap2\n      swap1\n      pop\n      jump\t// out\n        /* \"#utility.yul\":688:868   */\n    tag_156:\n        /* \"#utility.yul\":736:813   */\n      0x4e487b7100000000000000000000000000000000000000000000000000000000\n        /* \"#utility.yul\":733:734   */\n      0x00\n        /* \"#utility.yul\":726:814   */\n      mstore\n        /* \"#utility.yul\":833:837   */\n      0x41\n        /* \"#utility.yul\":830:831   */\n      0x04\n        /* \"#utility.yul\":823:838   */\n      mstore\n        /* \"#utility.yul\":857:861   */\n      0x24\n        /* \"#utility.yul\":854:855   */\n      0x00\n        /* \"#utility.yul\":847:862   */\n      revert\n        /* \"#utility.yul\":874:1155   */\n    tag_363:\n        /* \"#utility.yul\":957:984   */\n      tag_401\n        /* \"#utility.yul\":979:983   */\n      dup3\n        /* \"#utility.yul\":957:984   */\n      tag_362\n      jump\t// in\n    tag_401:\n        /* \"#utility.yul\":949:955   */\n      dup2\n        /* \"#utility.yul\":945:985   */\n      add\n        /* \"#utility.yul\":1087:1093   */\n      dup2\n        /* \"#utility.yul\":1075:1085   */\n      dup2\n        /* \"#utility.yul\":1072:1094   */\n      lt\n        /* \"#utility.yul\":1051:1069   */\n      0xffffffffffffffff\n        /* \"#utility.yul\":1039:1049   */\n      dup3\n        /* \"#utility.yul\":1036:1070   */\n      gt\n        /* \"#utility.yul\":1033:1095   */\n      or\n        /* \"#utility.yul\":1030:1118   */\n      iszero\n      tag_402\n      jumpi\n        /* \"#utility.yul\":1098:1116   */\n      tag_403\n      tag_156\n      jump\t// in\n    tag_403:\n        /* \"#utility.yul\":1030:1118   */\n    tag_402:\n        /* \"#utility.yul\":1138:1148   */\n      dup1\n        /* \"#utility.yul\":1134:1136   */\n      0x40\n        /* \"#utility.yul\":1127:1149   */\n      mstore\n        /* \"#utility.yul\":917:1155   */\n      pop\n        /* \"#utility.yul\":874:1155   */\n      pop\n      pop\n      jump\t// out\n        /* \"#utility.yul\":1161:1290   */\n    tag_364:\n        /* \"#utility.yul\":1195:1201   */\n      0x00\n        /* \"#utility.yul\":1222:1242   */\n      tag_405\n      tag_357\n      jump\t// in\n    tag_405:\n        /* \"#utility.yul\":1212:1242   */\n      swap1\n      pop\n        /* \"#utility.yul\":1251:1284   */\n      tag_406\n        /* \"#utility.yul\":1279:1283   */\n      dup3\n        /* \"#utility.yul\":1271:1277   */\n      dup3\n        /* \"#utility.yul\":1251:1284   */\n      tag_363\n      jump\t// in\n    tag_406:\n        /* \"#utility.yul\":1161:1290   */\n      swap2\n      swap1\n      pop\n      jump\t// out\n        /* \"#utility.yul\":1296:1604   */\n    tag_365:\n        /* \"#utility.yul\":1358:1362   */\n      0x00\n        /* \"#utility.yul\":1448:1466   */\n      0xffffffffffffffff\n        /* \"#utility.yul\":1440:1446   */\n      dup3\n        /* \"#utility.yul\":1437:1467   */\n      gt\n        /* \"#utility.yul\":1434:1490   */\n      iszero\n      tag_408\n      jumpi\n        /* \"#utility.yul\":1470:1488   */\n      tag_409\n      tag_156\n      jump\t// in\n    tag_409:\n        /* \"#utility.yul\":1434:1490   */\n    tag_408:\n        /* \"#utility.yul\":1508:1537   */\n      tag_410\n        /* \"#utility.yul\":1530:1536   */\n      dup3\n        /* \"#utility.yul\":1508:1537   */\n      tag_362\n      jump\t// in\n    tag_410:\n        /* \"#utility.yul\":1500:1537   */\n      swap1\n      pop\n        /* \"#utility.yul\":1592:1596   */\n      0x20\n        /* \"#utility.yul\":1586:1590   */\n      dup2\n        /* \"#utility.yul\":1582:1597   */\n      add\n        /* \"#utility.yul\":1574:1597   */\n      swap1\n      pop\n        /* \"#utility.yul\":1296:1604   */\n      swap2\n      swap1\n      pop\n      jump\t// out\n        /* \"#utility.yul\":1610:1758   */\n    tag_366:\n        /* \"#utility.yul\":1708:1714   */\n      dup3\n        /* \"#utility.yul\":1703:1706   */\n      dup2\n        /* \"#utility.yul\":1698:1701   */\n      dup4\n        /* \"#utility.yul\":1685:1715   */\n      calldatacopy\n        /* \"#utility.yul\":1749:1750   */\n      0x00\n        /* \"#utility.yul\":1740:1746   */\n      dup4\n        /* \"#utility.yul\":1735:1738   */\n      dup4\n        /* \"#utility.yul\":1731:1747   */\n      add\n        /* \"#utility.yul\":1724:1751   */\n      mstore\n        /* \"#utility.yul\":1610:1758   */\n      pop\n      pop\n      pop\n      jump\t// out\n        /* \"#utility.yul\":1764:2189   */\n    tag_367:\n        /* \"#utility.yul\":1842:1847   */\n      0x00\n        /* \"#utility.yul\":1867:1933   */\n      tag_413\n        /* \"#utility.yul\":1883:1932   */\n      tag_414\n        /* \"#utility.yul\":1925:1931   */\n      dup5\n        /* \"#utility.yul\":1883:1932   */\n      tag_365\n      jump\t// in\n    tag_414:\n        /* \"#utility.yul\":1867:1933   */\n      tag_364\n      jump\t// in\n    tag_413:\n        /* \"#utility.yul\":1858:1933   */\n      swap1\n      pop\n        /* \"#utility.yul\":1956:1962   */\n      dup3\n        /* \"#utility.yul\":1949:1954   */\n      dup2\n        /* \"#utility.yul\":1942:1963   */\n      mstore\n        /* \"#utility.yul\":1994:1998   */\n      0x20\n        /* \"#utility.yul\":1987:1992   */\n      dup2\n        /* \"#utility.yul\":1983:1999   */\n      add\n        /* \"#utility.yul\":2032:2035   */\n      dup5\n        /* \"#utility.yul\":2023:2029   */\n      dup5\n        /* \"#utility.yul\":2018:2021   */\n      dup5\n        /* \"#utility.yul\":2014:2030   */\n      add\n        /* \"#utility.yul\":2011:2036   */\n      gt\n        /* \"#utility.yul\":2008:2120   */\n      iszero\n      tag_415\n      jumpi\n        /* \"#utility.yul\":2039:2118   */\n      tag_416\n      tag_361\n      jump\t// in\n    tag_416:\n        /* \"#utility.yul\":2008:2120   */\n    tag_415:\n        /* \"#utility.yul\":2129:2183   */\n      tag_417\n        /* \"#utility.yul\":2176:2182   */\n      dup5\n        /* \"#utility.yul\":2171:2174   */\n      dup3\n        /* \"#utility.yul\":2166:2169   */\n      dup6\n        /* \"#utility.yul\":2129:2183   */\n      tag_366\n      jump\t// in\n    tag_417:\n        /* \"#utility.yul\":1848:2189   */\n      pop\n        /* \"#utility.yul\":1764:2189   */\n      swap4\n      swap3\n      pop\n      pop\n      pop\n      jump\t// out\n        /* \"#utility.yul\":2209:2549   */\n    tag_368:\n        /* \"#utility.yul\":2265:2270   */\n      0x00\n        /* \"#utility.yul\":2314:2317   */\n      dup3\n        /* \"#utility.yul\":2307:2311   */\n      0x1f\n        /* \"#utility.yul\":2299:2305   */\n      dup4\n        /* \"#utility.yul\":2295:2312   */\n      add\n        /* \"#utility.yul\":2291:2318   */\n      slt\n        /* \"#utility.yul\":2281:2403   */\n      tag_419\n      jumpi\n        /* \"#utility.yul\":2322:2401   */\n      tag_420\n      tag_360\n      jump\t// in\n    tag_420:\n        /* \"#utility.yul\":2281:2403   */\n    tag_419:\n        /* \"#utility.yul\":2439:2445   */\n      dup2\n        /* \"#utility.yul\":2426:2446   */\n      calldataload\n        /* \"#utility.yul\":2464:2543   */\n      tag_421\n        /* \"#utility.yul\":2539:2542   */\n      dup5\n        /* \"#utility.yul\":2531:2537   */\n      dup3\n        /* \"#utility.yul\":2524:2528   */\n      0x20\n        /* \"#utility.yul\":2516:2522   */\n      dup7\n        /* \"#utility.yul\":2512:2529   */\n      add\n        /* \"#utility.yul\":2464:2543   */\n      tag_367\n      jump\t// in\n    tag_421:\n        /* \"#utility.yul\":2455:2543   */\n      swap2\n      pop\n        /* \"#utility.yul\":2271:2549   */\n      pop\n        /* \"#utility.yul\":2209:2549   */\n      swap3\n      swap2\n      pop\n      pop\n      jump\t// out\n        /* \"#utility.yul\":2555:3064   */\n    tag_10:\n        /* \"#utility.yul\":2624:2630   */\n      0x00\n        /* \"#utility.yul\":2673:2675   */\n      0x20\n        /* \"#utility.yul\":2661:2670   */\n      dup3\n        /* \"#utility.yul\":2652:2659   */\n      dup5\n        /* \"#utility.yul\":2648:2671   */\n      sub\n        /* \"#utility.yul\":2644:2676   */\n      slt\n        /* \"#utility.yul\":2641:2760   */\n      iszero\n      tag_423\n      jumpi\n        /* \"#utility.yul\":2679:2758   */\n      tag_424\n      tag_358\n      jump\t// in\n    tag_424:\n        /* \"#utility.yul\":2641:2760   */\n    tag_423:\n        /* \"#utility.yul\":2827:2828   */\n      0x00\n        /* \"#utility.yul\":2816:2825   */\n      dup3\n        /* \"#utility.yul\":2812:2829   */\n      add\n        /* \"#utility.yul\":2799:2830   */\n      calldataload\n        /* \"#utility.yul\":2857:2875   */\n      0xffffffffffffffff\n        /* \"#utility.yul\":2849:2855   */\n      dup2\n        /* \"#utility.yul\":2846:2876   */\n      gt\n        /* \"#utility.yul\":2843:2960   */\n      iszero\n      tag_425\n      jumpi\n        /* \"#utility.yul\":2879:2958   */\n      tag_426\n      tag_359\n      jump\t// in\n    tag_426:\n        /* \"#utility.yul\":2843:2960   */\n    tag_425:\n        /* \"#utility.yul\":2984:3047   */\n      tag_427\n        /* \"#utility.yul\":3039:3046   */\n      dup5\n        /* \"#utility.yul\":3030:3036   */\n      dup3\n        /* \"#utility.yul\":3019:3028   */\n      dup6\n        /* \"#utility.yul\":3015:3037   */\n      add\n        /* \"#utility.yul\":2984:3047   */\n      tag_368\n      jump\t// in\n    tag_427:\n        /* \"#utility.yul\":2974:3047   */\n      swap2\n      pop\n        /* \"#utility.yul\":2770:3057   */\n      pop\n        /* \"#utility.yul\":2555:3064   */\n      swap3\n      swap2\n      pop\n      pop\n      jump\t// out\n        /* \"#utility.yul\":3070:3147   */\n    tag_369:\n        /* \"#utility.yul\":3107:3114   */\n      0x00\n        /* \"#utility.yul\":3136:3141   */\n      dup2\n        /* \"#utility.yul\":3125:3141   */\n      swap1\n      pop\n        /* \"#utility.yul\":3070:3147   */\n      swap2\n      swap1\n      pop\n      jump\t// out\n        /* \"#utility.yul\":3153:3271   */\n    tag_370:\n        /* \"#utility.yul\":3240:3264   */\n      tag_430\n        /* \"#utility.yul\":3258:3263   */\n      dup2\n        /* \"#utility.yul\":3240:3264   */\n      tag_369\n      jump\t// in\n    tag_430:\n        /* \"#utility.yul\":3235:3238   */\n      dup3\n        /* \"#utility.yul\":3228:3265   */\n      mstore\n        /* \"#utility.yul\":3153:3271   */\n      pop\n      pop\n      jump\t// out\n        /* \"#utility.yul\":3277:3499   */\n    tag_13:\n        /* \"#utility.yul\":3370:3374   */\n      0x00\n        /* \"#utility.yul\":3408:3410   */\n      0x20\n        /* \"#utility.yul\":3397:3406   */\n      dup3\n        /* \"#utility.yul\":3393:3411   */\n      add\n        /* \"#utility.yul\":3385:3411   */\n      swap1\n      pop\n        /* \"#utility.yul\":3421:3492   */\n      tag_432\n        /* \"#utility.yul\":3489:3490   */\n      0x00\n        /* \"#utility.yul\":3478:3487   */\n      dup4\n        /* \"#utility.yul\":3474:3491   */\n      add\n        /* \"#utility.yul\":3465:3471   */\n      dup5\n        /* \"#utility.yul\":3421:3492   */\n      tag_370\n      jump\t// in\n    tag_432:\n        /* \"#utility.yul\":3277:3499   */\n      swap3\n      swap2\n      pop\n      pop\n      jump\t// out\n        /* \"#utility.yul\":3505:3627   */\n    tag_371:\n        /* \"#utility.yul\":3578:3602   */\n      tag_434\n        /* \"#utility.yul\":3596:3601   */\n      dup2\n        /* \"#utility.yul\":3578:3602   */\n      tag_369\n      jump\t// in\n    tag_434:\n        /* \"#utility.yul\":3571:3576   */\n      dup2\n        /* \"#utility.yul\":3568:3603   */\n      eq\n        /* \"#utility.yul\":3558:3621   */\n      tag_435\n      jumpi\n        /* \"#utility.yul\":3617:3618   */\n      0x00\n        /* \"#utility.yul\":3614:3615   */\n      dup1\n        /* \"#utility.yul\":3607:3619   */\n      revert\n        /* \"#utility.yul\":3558:3621   */\n    tag_435:\n        /* \"#utility.yul\":3505:3627   */\n      pop\n      jump\t// out\n        /* \"#utility.yul\":3633:3772   */\n    tag_372:\n        /* \"#utility.yul\":3679:3684   */\n      0x00\n        /* \"#utility.yul\":3717:3723   */\n      dup2\n        /* \"#utility.yul\":3704:3724   */\n      calldataload\n        /* \"#utility.yul\":3695:3724   */\n      swap1\n      pop\n        /* \"#utility.yul\":3733:3766   */\n      tag_437\n        /* \"#utility.yul\":3760:3765   */\n      dup2\n        /* \"#utility.yul\":3733:3766   */\n      tag_371\n      jump\t// in\n    tag_437:\n        /* \"#utility.yul\":3633:3772   */\n      swap3\n      swap2\n      pop\n      pop\n      jump\t// out\n        /* \"#utility.yul\":3778:4107   */\n    tag_16:\n        /* \"#utility.yul\":3837:3843   */\n      0x00\n        /* \"#utility.yul\":3886:3888   */\n      0x20\n        /* \"#utility.yul\":3874:3883   */\n      dup3\n        /* \"#utility.yul\":3865:3872   */\n      dup5\n        /* \"#utility.yul\":3861:3884   */\n      sub\n        /* \"#utility.yul\":3857:3889   */\n      slt\n        /* \"#utility.yul\":3854:3973   */\n      iszero\n      tag_439\n      jumpi\n        /* \"#utility.yul\":3892:3971   */\n      tag_440\n      tag_358\n      jump\t// in\n    tag_440:\n        /* \"#utility.yul\":3854:3973   */\n    tag_439:\n        /* \"#utility.yul\":4012:4013   */\n      0x00\n        /* \"#utility.yul\":4037:4090   */\n      tag_441\n        /* \"#utility.yul\":4082:4089   */\n      dup5\n        /* \"#utility.yul\":4073:4079   */\n      dup3\n        /* \"#utility.yul\":4062:4071   */\n      dup6\n        /* \"#utility.yul\":4058:4080   */\n      add\n        /* \"#utility.yul\":4037:4090   */\n      tag_372\n      jump\t// in\n    tag_441:\n        /* \"#utility.yul\":4027:4090   */\n      swap2\n      pop\n        /* \"#utility.yul\":3983:4100   */\n      pop\n        /* \"#utility.yul\":3778:4107   */\n      swap3\n      swap2\n      pop\n      pop\n      jump\t// out\n        /* \"#utility.yul\":4113:4212   */\n    tag_373:\n        /* \"#utility.yul\":4165:4171   */\n      0x00\n        /* \"#utility.yul\":4199:4204   */\n      dup2\n        /* \"#utility.yul\":4193:4205   */\n      mload\n        /* \"#utility.yul\":4183:4205   */\n      swap1\n      pop\n        /* \"#utility.yul\":4113:4212   */\n      swap2\n      swap1\n      pop\n      jump\t// out\n        /* \"#utility.yul\":4218:4387   */\n    tag_374:\n        /* \"#utility.yul\":4302:4313   */\n      0x00\n        /* \"#utility.yul\":4336:4342   */\n      dup3\n        /* \"#utility.yul\":4331:4334   */\n      dup3\n        /* \"#utility.yul\":4324:4343   */\n      mstore\n        /* \"#utility.yul\":4376:4380   */\n      0x20\n        /* \"#utility.yul\":4371:4374   */\n      dup3\n        /* \"#utility.yul\":4367:4381   */\n      add\n        /* \"#utility.yul\":4352:4381   */\n      swap1\n      pop\n        /* \"#utility.yul\":4218:4387   */\n      swap3\n      swap2\n      pop\n      pop\n      jump\t// out\n        /* \"#utility.yul\":4393:4532   */\n    tag_375:\n        /* \"#utility.yul\":4482:4488   */\n      dup3\n        /* \"#utility.yul\":4477:4480   */\n      dup2\n        /* \"#utility.yul\":4472:4475   */\n      dup4\n        /* \"#utility.yul\":4466:4489   */\n      mcopy\n        /* \"#utility.yul\":4523:4524   */\n      0x00\n        /* \"#utility.yul\":4514:4520   */\n      dup4\n        /* \"#utility.yul\":4509:4512   */\n      dup4\n        /* \"#utility.yul\":4505:4521   */\n      add\n        /* \"#utility.yul\":4498:4525   */\n      mstore\n        /* \"#utility.yul\":4393:4532   */\n      pop\n      pop\n      pop\n      jump\t// out\n        /* \"#utility.yul\":4538:4915   */\n    tag_376:\n        /* \"#utility.yul\":4626:4629   */\n      0x00\n        /* \"#utility.yul\":4654:4693   */\n      tag_446\n        /* \"#utility.yul\":4687:4692   */\n      dup3\n        /* \"#utility.yul\":4654:4693   */\n      tag_373\n      jump\t// in\n    tag_446:\n        /* \"#utility.yul\":4709:4780   */\n      tag_447\n        /* \"#utility.yul\":4773:4779   */\n      dup2\n        /* \"#utility.yul\":4768:4771   */\n      dup6\n        /* \"#utility.yul\":4709:4780   */\n      tag_374\n      jump\t// in\n    tag_447:\n        /* \"#utility.yul\":4702:4780   */\n      swap4\n      pop\n        /* \"#utility.yul\":4789:4854   */\n      tag_448\n        /* \"#utility.yul\":4847:4853   */\n      dup2\n        /* \"#utility.yul\":4842:4845   */\n      dup6\n        /* \"#utility.yul\":4835:4839   */\n      0x20\n        /* \"#utility.yul\":4828:4833   */\n      dup7\n        /* \"#utility.yul\":4824:4840   */\n      add\n        /* \"#utility.yul\":4789:4854   */\n      tag_375\n      jump\t// in\n    tag_448:\n        /* \"#utility.yul\":4879:4908   */\n      tag_449\n        /* \"#utility.yul\":4901:4907   */\n      dup2\n        /* \"#utility.yul\":4879:4908   */\n      tag_362\n      jump\t// in\n    tag_449:\n        /* \"#utility.yul\":4874:4877   */\n      dup5\n        /* \"#utility.yul\":4870:4909   */\n      add\n        /* \"#utility.yul\":4863:4909   */\n      swap2\n      pop\n        /* \"#utility.yul\":4630:4915   */\n      pop\n        /* \"#utility.yul\":4538:4915   */\n      swap3\n      swap2\n      pop\n      pop\n      jump\t// out\n        /* \"#utility.yul\":4921:5234   */\n    tag_19:\n        /* \"#utility.yul\":5034:5038   */\n      0x00\n        /* \"#utility.yul\":5072:5074   */\n      0x20\n        /* \"#utility.yul\":5061:5070   */\n      dup3\n        /* \"#utility.yul\":5057:5075   */\n      add\n        /* \"#utility.yul\":5049:5075   */\n      swap1\n      pop\n        /* \"#utility.yul\":5121:5130   */\n      dup2\n        /* \"#utility.yul\":5115:5119   */\n      dup2\n        /* \"#utility.yul\":5111:5131   */\n      sub\n        /* \"#utility.yul\":5107:5108   */\n      0x00\n        /* \"#utility.yul\":5096:5105   */\n      dup4\n        /* \"#utility.yul\":5092:5109   */\n      add\n        /* \"#utility.yul\":5085:5132   */\n      mstore\n        /* \"#utility.yul\":5149:5227   */\n      tag_451\n        /* \"#utility.yul\":5222:5226   */\n      dup2\n        /* \"#utility.yul\":5213:5219   */\n      dup5\n        /* \"#utility.yul\":5149:5227   */\n      tag_376\n      jump\t// in\n    tag_451:\n        /* \"#utility.yul\":5141:5227   */\n      swap1\n      pop\n        /* \"#utility.yul\":4921:5234   */\n      swap3\n      swap2\n      pop\n      pop\n      jump\t// out\n        /* \"#utility.yul\":5240:5551   */\n    tag_377:\n        /* \"#utility.yul\":5317:5321   */\n      0x00\n        /* \"#utility.yul\":5407:5425   */\n      0xffffffffffffffff\n        /* \"#utility.yul\":5399:5405   */\n      dup3\n        /* \"#utility.yul\":5396:5426   */\n      gt\n        /* \"#utility.yul\":5393:5449   */\n      iszero\n      tag_453\n      jumpi\n        /* \"#utility.yul\":5429:5447   */\n      tag_454\n      tag_156\n      jump\t// in\n    tag_454:\n        /* \"#utility.yul\":5393:5449   */\n    tag_453:\n        /* \"#utility.yul\":5479:5483   */\n      0x20\n        /* \"#utility.yul\":5471:5477   */\n      dup3\n        /* \"#utility.yul\":5467:5484   */\n      mul\n        /* \"#utility.yul\":5459:5484   */\n      swap1\n      pop\n        /* \"#utility.yul\":5539:5543   */\n      0x20\n        /* \"#utility.yul\":5533:5537   */\n      dup2\n        /* \"#utility.yul\":5529:5544   */\n      add\n        /* \"#utility.yul\":5521:5544   */\n      swap1\n      pop\n        /* \"#utility.yul\":5240:5551   */\n      swap2\n      swap1\n      pop\n      jump\t// out\n        /* \"#utility.yul\":5557:5674   */\n    tag_378:\n        /* \"#utility.yul\":5666:5667   */\n      0x00\n        /* \"#utility.yul\":5663:5664   */\n      dup1\n        /* \"#utility.yul\":5656:5668   */\n      revert\n        /* \"#utility.yul\":5697:6407   */\n    tag_379:\n        /* \"#utility.yul\":5793:5798   */\n      0x00\n        /* \"#utility.yul\":5818:5899   */\n      tag_457\n        /* \"#utility.yul\":5834:5898   */\n      tag_458\n        /* \"#utility.yul\":5891:5897   */\n      dup5\n        /* \"#utility.yul\":5834:5898   */\n      tag_377\n      jump\t// in\n    tag_458:\n        /* \"#utility.yul\":5818:5899   */\n      tag_364\n      jump\t// in\n    tag_457:\n        /* \"#utility.yul\":5809:5899   */\n      swap1\n      pop\n        /* \"#utility.yul\":5919:5924   */\n      dup1\n        /* \"#utility.yul\":5948:5954   */\n      dup4\n        /* \"#utility.yul\":5941:5946   */\n      dup3\n        /* \"#utility.yul\":5934:5955   */\n      mstore\n        /* \"#utility.yul\":5982:5986   */\n      0x20\n        /* \"#utility.yul\":5975:5980   */\n      dup3\n        /* \"#utility.yul\":5971:5987   */\n      add\n        /* \"#utility.yul\":5964:5987   */\n      swap1\n      pop\n        /* \"#utility.yul\":6035:6039   */\n      0x20\n        /* \"#utility.yul\":6027:6033   */\n      dup5\n        /* \"#utility.yul\":6023:6040   */\n      mul\n        /* \"#utility.yul\":6015:6021   */\n      dup4\n        /* \"#utility.yul\":6011:6041   */\n      add\n        /* \"#utility.yul\":6064:6067   */\n      dup6\n        /* \"#utility.yul\":6056:6062   */\n      dup2\n        /* \"#utility.yul\":6053:6068   */\n      gt\n        /* \"#utility.yul\":6050:6172   */\n      iszero\n      tag_459\n      jumpi\n        /* \"#utility.yul\":6083:6162   */\n      tag_460\n      tag_378\n      jump\t// in\n    tag_460:\n        /* \"#utility.yul\":6050:6172   */\n    tag_459:\n        /* \"#utility.yul\":6198:6204   */\n      dup4\n        /* \"#utility.yul\":6181:6401   */\n    tag_461:\n        /* \"#utility.yul\":6215:6221   */\n      dup2\n        /* \"#utility.yul\":6210:6213   */\n      dup2\n        /* \"#utility.yul\":6207:6222   */\n      lt\n        /* \"#utility.yul\":6181:6401   */\n      iszero\n      tag_463\n      jumpi\n        /* \"#utility.yul\":6290:6293   */\n      dup1\n        /* \"#utility.yul\":6319:6356   */\n      tag_464\n        /* \"#utility.yul\":6352:6355   */\n      dup9\n        /* \"#utility.yul\":6340:6350   */\n      dup3\n        /* \"#utility.yul\":6319:6356   */\n      tag_372\n      jump\t// in\n    tag_464:\n        /* \"#utility.yul\":6314:6317   */\n      dup5\n        /* \"#utility.yul\":6307:6357   */\n      mstore\n        /* \"#utility.yul\":6386:6390   */\n      0x20\n        /* \"#utility.yul\":6381:6384   */\n      dup5\n        /* \"#utility.yul\":6377:6391   */\n      add\n        /* \"#utility.yul\":6370:6391   */\n      swap4\n      pop\n        /* \"#utility.yul\":6257:6401   */\n      pop\n        /* \"#utility.yul\":6241:6245   */\n      0x20\n        /* \"#utility.yul\":6236:6239   */\n      dup2\n        /* \"#utility.yul\":6232:6246   */\n      add\n        /* \"#utility.yul\":6225:6246   */\n      swap1\n      pop\n        /* \"#utility.yul\":6181:6401   */\n      jump(tag_461)\n    tag_463:\n        /* \"#utility.yul\":6185:6206   */\n      pop\n        /* \"#utility.yul\":5799:6407   */\n      pop\n      pop\n        /* \"#utility.yul\":5697:6407   */\n      swap4\n      swap3\n      pop\n      pop\n      pop\n      jump\t// out\n        /* \"#utility.yul\":6430:6800   */\n    tag_380:\n        /* \"#utility.yul\":6501:6506   */\n      0x00\n        /* \"#utility.yul\":6550:6553   */\n      dup3\n        /* \"#utility.yul\":6543:6547   */\n      0x1f\n        /* \"#utility.yul\":6535:6541   */\n      dup4\n        /* \"#utility.yul\":6531:6548   */\n      add\n        /* \"#utility.yul\":6527:6554   */\n      slt\n        /* \"#utility.yul\":6517:6639   */\n      tag_466\n      jumpi\n        /* \"#utility.yul\":6558:6637   */\n      tag_467\n      tag_360\n      jump\t// in\n    tag_467:\n        /* \"#utility.yul\":6517:6639   */\n    tag_466:\n        /* \"#utility.yul\":6675:6681   */\n      dup2\n        /* \"#utility.yul\":6662:6682   */\n      calldataload\n        /* \"#utility.yul\":6700:6794   */\n      tag_468\n        /* \"#utility.yul\":6790:6793   */\n      dup5\n        /* \"#utility.yul\":6782:6788   */\n      dup3\n        /* \"#utility.yul\":6775:6779   */\n      0x20\n        /* \"#utility.yul\":6767:6773   */\n      dup7\n        /* \"#utility.yul\":6763:6780   */\n      add\n        /* \"#utility.yul\":6700:6794   */\n      tag_379\n      jump\t// in\n    tag_468:\n        /* \"#utility.yul\":6691:6794   */\n      swap2\n      pop\n        /* \"#utility.yul\":6507:6800   */\n      pop\n        /* \"#utility.yul\":6430:6800   */\n      swap3\n      swap2\n      pop\n      pop\n      jump\t// out\n        /* \"#utility.yul\":6806:7490   */\n    tag_26:\n        /* \"#utility.yul\":6899:6905   */\n      0x00\n        /* \"#utility.yul\":6907:6913   */\n      dup1\n        /* \"#utility.yul\":6956:6958   */\n      0x40\n        /* \"#utility.yul\":6944:6953   */\n      dup4\n        /* \"#utility.yul\":6935:6942   */\n      dup6\n        /* \"#utility.yul\":6931:6954   */\n      sub\n        /* \"#utility.yul\":6927:6959   */\n      slt\n        /* \"#utility.yul\":6924:7043   */\n      iszero\n      tag_470\n      jumpi\n        /* \"#utility.yul\":6962:7041   */\n      tag_471\n      tag_358\n      jump\t// in\n    tag_471:\n        /* \"#utility.yul\":6924:7043   */\n    tag_470:\n        /* \"#utility.yul\":7110:7111   */\n      0x00\n        /* \"#utility.yul\":7099:7108   */\n      dup4\n        /* \"#utility.yul\":7095:7112   */\n      add\n        /* \"#utility.yul\":7082:7113   */\n      calldataload\n        /* \"#utility.yul\":7140:7158   */\n      0xffffffffffffffff\n        /* \"#utility.yul\":7132:7138   */\n      dup2\n        /* \"#utility.yul\":7129:7159   */\n      gt\n        /* \"#utility.yul\":7126:7243   */\n      iszero\n      tag_472\n      jumpi\n        /* \"#utility.yul\":7162:7241   */\n      tag_473\n      tag_359\n      jump\t// in\n    tag_473:\n        /* \"#utility.yul\":7126:7243   */\n    tag_472:\n        /* \"#utility.yul\":7267:7345   */\n      tag_474\n        /* \"#utility.yul\":7337:7344   */\n      dup6\n        /* \"#utility.yul\":7328:7334   */\n      dup3\n        /* \"#utility.yul\":7317:7326   */\n      dup7\n        /* \"#utility.yul\":7313:7335   */\n      add\n        /* \"#utility.yul\":7267:7345   */\n      tag_380\n      jump\t// in\n    tag_474:\n        /* \"#utility.yul\":7257:7345   */\n      swap3\n      pop\n        /* \"#utility.yul\":7053:7355   */\n      pop\n        /* \"#utility.yul\":7394:7396   */\n      0x20\n        /* \"#utility.yul\":7420:7473   */\n      tag_475\n        /* \"#utility.yul\":7465:7472   */\n      dup6\n        /* \"#utility.yul\":7456:7462   */\n      dup3\n        /* \"#utility.yul\":7445:7454   */\n      dup7\n        /* \"#utility.yul\":7441:7463   */\n      add\n        /* \"#utility.yul\":7420:7473   */\n      tag_372\n      jump\t// in\n    tag_475:\n        /* \"#utility.yul\":7410:7473   */\n      swap2\n      pop\n        /* \"#utility.yul\":7365:7483   */\n      pop\n        /* \"#utility.yul\":6806:7490   */\n      swap3\n      pop\n      swap3\n      swap1\n      pop\n      jump\t// out\n        /* \"#utility.yul\":7496:8390   */\n    tag_31:\n        /* \"#utility.yul\":7614:7620   */\n      0x00\n        /* \"#utility.yul\":7622:7628   */\n      dup1\n        /* \"#utility.yul\":7671:7673   */\n      0x40\n        /* \"#utility.yul\":7659:7668   */\n      dup4\n        /* \"#utility.yul\":7650:7657   */\n      dup6\n        /* \"#utility.yul\":7646:7669   */\n      sub\n        /* \"#utility.yul\":7642:7674   */\n      slt\n        /* \"#utility.yul\":7639:7758   */\n      iszero\n      tag_477\n      jumpi\n        /* \"#utility.yul\":7677:7756   */\n      tag_478\n      tag_358\n      jump\t// in\n    tag_478:\n        /* \"#utility.yul\":7639:7758   */\n    tag_477:\n        /* \"#utility.yul\":7825:7826   */\n      0x00\n        /* \"#utility.yul\":7814:7823   */\n      dup4\n        /* \"#utility.yul\":7810:7827   */\n      add\n        /* \"#utility.yul\":7797:7828   */\n      calldataload\n        /* \"#utility.yul\":7855:7873   */\n      0xffffffffffffffff\n        /* \"#utility.yul\":7847:7853   */\n      dup2\n        /* \"#utility.yul\":7844:7874   */\n      gt\n        /* \"#utility.yul\":7841:7958   */\n      iszero\n      tag_479\n      jumpi\n        /* \"#utility.yul\":7877:7956   */\n      tag_480\n      tag_359\n      jump\t// in\n    tag_480:\n        /* \"#utility.yul\":7841:7958   */\n    tag_479:\n        /* \"#utility.yul\":7982:8060   */\n      tag_481\n        /* \"#utility.yul\":8052:8059   */\n      dup6\n        /* \"#utility.yul\":8043:8049   */\n      dup3\n        /* \"#utility.yul\":8032:8041   */\n      dup7\n        /* \"#utility.yul\":8028:8050   */\n      add\n        /* \"#utility.yul\":7982:8060   */\n      tag_380\n      jump\t// in\n    tag_481:\n        /* \"#utility.yul\":7972:8060   */\n      swap3\n      pop\n        /* \"#utility.yul\":7768:8070   */\n      pop\n        /* \"#utility.yul\":8137:8139   */\n      0x20\n        /* \"#utility.yul\":8126:8135   */\n      dup4\n        /* \"#utility.yul\":8122:8140   */\n      add\n        /* \"#utility.yul\":8109:8141   */\n      calldataload\n        /* \"#utility.yul\":8168:8186   */\n      0xffffffffffffffff\n        /* \"#utility.yul\":8160:8166   */\n      dup2\n        /* \"#utility.yul\":8157:8187   */\n      gt\n        /* \"#utility.yul\":8154:8271   */\n      iszero\n      tag_482\n      jumpi\n        /* \"#utility.yul\":8190:8269   */\n      tag_483\n      tag_359\n      jump\t// in\n    tag_483:\n        /* \"#utility.yul\":8154:8271   */\n    tag_482:\n        /* \"#utility.yul\":8295:8373   */\n      tag_484\n        /* \"#utility.yul\":8365:8372   */\n      dup6\n        /* \"#utility.yul\":8356:8362   */\n      dup3\n        /* \"#utility.yul\":8345:8354   */\n      dup7\n        /* \"#utility.yul\":8341:8363   */\n      add\n        /* \"#utility.yul\":8295:8373   */\n      tag_380\n      jump\t// in\n    tag_484:\n        /* \"#utility.yul\":8285:8373   */\n      swap2\n      pop\n        /* \"#utility.yul\":8080:8383   */\n      pop\n        /* \"#utility.yul\":7496:8390   */\n      swap3\n      pop\n      swap3\n      swap1\n      pop\n      jump\t// out\n        /* \"#utility.yul\":8396:8510   */\n    tag_381:\n        /* \"#utility.yul\":8463:8469   */\n      0x00\n        /* \"#utility.yul\":8497:8502   */\n      dup2\n        /* \"#utility.yul\":8491:8503   */\n      mload\n        /* \"#utility.yul\":8481:8503   */\n      swap1\n      pop\n        /* \"#utility.yul\":8396:8510   */\n      swap2\n      swap1\n      pop\n      jump\t// out\n        /* \"#utility.yul\":8516:8700   */\n    tag_382:\n        /* \"#utility.yul\":8615:8626   */\n      0x00\n        /* \"#utility.yul\":8649:8655   */\n      dup3\n        /* \"#utility.yul\":8644:8647   */\n      dup3\n        /* \"#utility.yul\":8637:8656   */\n      mstore\n        /* \"#utility.yul\":8689:8693   */\n      0x20\n        /* \"#utility.yul\":8684:8687   */\n      dup3\n        /* \"#utility.yul\":8680:8694   */\n      add\n        /* \"#utility.yul\":8665:8694   */\n      swap1\n      pop\n        /* \"#utility.yul\":8516:8700   */\n      swap3\n      swap2\n      pop\n      pop\n      jump\t// out\n        /* \"#utility.yul\":8706:8838   */\n    tag_383:\n        /* \"#utility.yul\":8773:8777   */\n      0x00\n        /* \"#utility.yul\":8796:8799   */\n      dup2\n        /* \"#utility.yul\":8788:8799   */\n      swap1\n      pop\n        /* \"#utility.yul\":8826:8830   */\n      0x20\n        /* \"#utility.yul\":8821:8824   */\n      dup3\n        /* \"#utility.yul\":8817:8831   */\n      add\n        /* \"#utility.yul\":8809:8831   */\n      swap1\n      pop\n        /* \"#utility.yul\":8706:8838   */\n      swap2\n      swap1\n      pop\n      jump\t// out\n        /* \"#utility.yul\":8844:8952   */\n    tag_384:\n        /* \"#utility.yul\":8921:8945   */\n      tag_489\n        /* \"#utility.yul\":8939:8944   */\n      dup2\n        /* \"#utility.yul\":8921:8945   */\n      tag_369\n      jump\t// in\n    tag_489:\n        /* \"#utility.yul\":8916:8919   */\n      dup3\n        /* \"#utility.yul\":8909:8946   */\n      mstore\n        /* \"#utility.yul\":8844:8952   */\n      pop\n      pop\n      jump\t// out\n        /* \"#utility.yul\":8958:9137   */\n    tag_385:\n        /* \"#utility.yul\":9027:9037   */\n      0x00\n        /* \"#utility.yul\":9048:9094   */\n      tag_491\n        /* \"#utility.yul\":9090:9093   */\n      dup4\n        /* \"#utility.yul\":9082:9088   */\n      dup4\n        /* \"#utility.yul\":9048:9094   */\n      tag_384\n      jump\t// in\n    tag_491:\n        /* \"#utility.yul\":9126:9130   */\n      0x20\n        /* \"#utility.yul\":9121:9124   */\n      dup4\n        /* \"#utility.yul\":9117:9131   */\n      add\n        /* \"#utility.yul\":9103:9131   */\n      swap1\n      pop\n        /* \"#utility.yul\":8958:9137   */\n      swap3\n      swap2\n      pop\n      pop\n      jump\t// out\n        /* \"#utility.yul\":9143:9256   */\n    tag_386:\n        /* \"#utility.yul\":9213:9217   */\n      0x00\n        /* \"#utility.yul\":9245:9249   */\n      0x20\n        /* \"#utility.yul\":9240:9243   */\n      dup3\n        /* \"#utility.yul\":9236:9250   */\n      add\n        /* \"#utility.yul\":9228:9250   */\n      swap1\n      pop\n        /* \"#utility.yul\":9143:9256   */\n      swap2\n      swap1\n      pop\n      jump\t// out\n        /* \"#utility.yul\":9292:10024   */\n    tag_387:\n        /* \"#utility.yul\":9411:9414   */\n      0x00\n        /* \"#utility.yul\":9440:9494   */\n      tag_494\n        /* \"#utility.yul\":9488:9493   */\n      dup3\n        /* \"#utility.yul\":9440:9494   */\n      tag_381\n      jump\t// in\n    tag_494:\n        /* \"#utility.yul\":9510:9596   */\n      tag_495\n        /* \"#utility.yul\":9589:9595   */\n      dup2\n        /* \"#utility.yul\":9584:9587   */\n      dup6\n        /* \"#utility.yul\":9510:9596   */\n      tag_382\n      jump\t// in\n    tag_495:\n        /* \"#utility.yul\":9503:9596   */\n      swap4\n      pop\n        /* \"#utility.yul\":9620:9676   */\n      tag_496\n        /* \"#utility.yul\":9670:9675   */\n      dup4\n        /* \"#utility.yul\":9620:9676   */\n      tag_383\n      jump\t// in\n    tag_496:\n        /* \"#utility.yul\":9699:9706   */\n      dup1\n        /* \"#utility.yul\":9730:9731   */\n      0x00\n        /* \"#utility.yul\":9715:9999   */\n    tag_497:\n        /* \"#utility.yul\":9740:9746   */\n      dup4\n        /* \"#utility.yul\":9737:9738   */\n      dup2\n        /* \"#utility.yul\":9734:9747   */\n      lt\n        /* \"#utility.yul\":9715:9999   */\n      iszero\n      tag_499\n      jumpi\n        /* \"#utility.yul\":9816:9822   */\n      dup2\n        /* \"#utility.yul\":9810:9823   */\n      mload\n        /* \"#utility.yul\":9843:9906   */\n      tag_500\n        /* \"#utility.yul\":9902:9905   */\n      dup9\n        /* \"#utility.yul\":9887:9900   */\n      dup3\n        /* \"#utility.yul\":9843:9906   */\n      tag_385\n      jump\t// in\n    tag_500:\n        /* \"#utility.yul\":9836:9906   */\n      swap8\n      pop\n        /* \"#utility.yul\":9929:9989   */\n      tag_501\n        /* \"#utility.yul\":9982:9988   */\n      dup4\n        /* \"#utility.yul\":9929:9989   */\n      tag_386\n      jump\t// in\n    tag_501:\n        /* \"#utility.yul\":9919:9989   */\n      swap3\n      pop\n        /* \"#utility.yul\":9775:9999   */\n      pop\n        /* \"#utility.yul\":9762:9763   */\n      0x01\n        /* \"#utility.yul\":9759:9760   */\n      dup2\n        /* \"#utility.yul\":9755:9764   */\n      add\n        /* \"#utility.yul\":9750:9764   */\n      swap1\n      pop\n        /* \"#utility.yul\":9715:9999   */\n      jump(tag_497)\n    tag_499:\n        /* \"#utility.yul\":9719:9733   */\n      pop\n        /* \"#utility.yul\":10015:10018   */\n      dup6\n        /* \"#utility.yul\":10008:10018   */\n      swap4\n      pop\n        /* \"#utility.yul\":9416:10024   */\n      pop\n      pop\n      pop\n        /* \"#utility.yul\":9292:10024   */\n      swap3\n      swap2\n      pop\n      pop\n      jump\t// out\n        /* \"#utility.yul\":10030:10403   */\n    tag_34:\n        /* \"#utility.yul\":10173:10177   */\n      0x00\n        /* \"#utility.yul\":10211:10213   */\n      0x20\n        /* \"#utility.yul\":10200:10209   */\n      dup3\n        /* \"#utility.yul\":10196:10214   */\n      add\n        /* \"#utility.yul\":10188:10214   */\n      swap1\n      pop\n        /* \"#utility.yul\":10260:10269   */\n      dup2\n        /* \"#utility.yul\":10254:10258   */\n      dup2\n        /* \"#utility.yul\":10250:10270   */\n      sub\n        /* \"#utility.yul\":10246:10247   */\n      0x00\n        /* \"#utility.yul\":10235:10244   */\n      dup4\n        /* \"#utility.yul\":10231:10248   */\n      add\n        /* \"#utility.yul\":10224:10271   */\n      mstore\n        /* \"#utility.yul\":10288:10396   */\n      tag_503\n        /* \"#utility.yul\":10391:10395   */\n      dup2\n        /* \"#utility.yul\":10382:10388   */\n      dup5\n        /* \"#utility.yul\":10288:10396   */\n      tag_387\n      jump\t// in\n    tag_503:\n        /* \"#utility.yul\":10280:10396   */\n      swap1\n      pop\n        /* \"#utility.yul\":10030:10403   */\n      swap3\n      swap2\n      pop\n      pop\n      jump\t// out\n        /* \"#utility.yul\":10409:10589   */\n    tag_41:\n        /* \"#utility.yul\":10457:10534   */\n      0x4e487b7100000000000000000000000000000000000000000000000000000000\n        /* \"#utility.yul\":10454:10455   */\n      0x00\n        /* \"#utility.yul\":10447:10535   */\n      mstore\n        /* \"#utility.yul\":10554:10558   */\n      0x32\n        /* \"#utility.yul\":10551:10552   */\n      0x04\n        /* \"#utility.yul\":10544:10559   */\n      mstore\n        /* \"#utility.yul\":10578:10582   */\n      0x24\n        /* \"#utility.yul\":10575:10576   */\n      0x00\n        /* \"#utility.yul\":10568:10583   */\n      revert\n        /* \"#utility.yul\":10595:10775   */\n    tag_388:\n        /* \"#utility.yul\":10643:10720   */\n      0x4e487b7100000000000000000000000000000000000000000000000000000000\n        /* \"#utility.yul\":10640:10641   */\n      0x00\n        /* \"#utility.yul\":10633:10721   */\n      mstore\n        /* \"#utility.yul\":10740:10744   */\n      0x11\n        /* \"#utility.yul\":10737:10738   */\n      0x04\n        /* \"#utility.yul\":10730:10745   */\n      mstore\n        /* \"#utility.yul\":10764:10768   */\n      0x24\n        /* \"#utility.yul\":10761:10762   */\n      0x00\n        /* \"#utility.yul\":10754:10769   */\n      revert\n        /* \"#utility.yul\":10781:10972   */\n    tag_44:\n        /* \"#utility.yul\":10821:10824   */\n      0x00\n        /* \"#utility.yul\":10840:10860   */\n      tag_507\n        /* \"#utility.yul\":10858:10859   */\n      dup3\n        /* \"#utility.yul\":10840:10860   */\n      tag_369\n      jump\t// in\n    tag_507:\n        /* \"#utility.yul\":10835:10860   */\n      swap2\n      pop\n        /* \"#utility.yul\":10874:10894   */\n      tag_508\n        /* \"#utility.yul\":10892:10893   */\n      dup4\n        /* \"#utility.yul\":10874:10894   */\n      tag_369\n      jump\t// in\n    tag_508:\n        /* \"#utility.yul\":10869:10894   */\n      swap3\n      pop\n        /* \"#utility.yul\":10917:10918   */\n      dup3\n        /* \"#utility.yul\":10914:10915   */\n      dup3\n        /* \"#utility.yul\":10910:10919   */\n      add\n        /* \"#utility.yul\":10903:10919   */\n      swap1\n      pop\n        /* \"#utility.yul\":10938:10941   */\n      dup1\n        /* \"#utility.yul\":10935:10936   */\n      dup3\n        /* \"#utility.yul\":10932:10942   */\n      gt\n        /* \"#utility.yul\":10929:10965   */\n      iszero\n      tag_509\n      jumpi\n        /* \"#utility.yul\":10945:10963   */\n      tag_510\n      tag_388\n      jump\t// in\n    tag_510:\n        /* \"#utility.yul\":10929:10965   */\n    tag_509:\n        /* \"#utility.yul\":10781:10972   */\n      swap3\n      swap2\n      pop\n      pop\n      jump\t// out\n        /* \"#utility.yul\":10978:11211   */\n    tag_62:\n        /* \"#utility.yul\":11017:11020   */\n      0x00\n        /* \"#utility.yul\":11040:11064   */\n      tag_512\n        /* \"#utility.yul\":11058:11063   */\n      dup3\n        /* \"#utility.yul\":11040:11064   */\n      tag_369\n      jump\t// in\n    tag_512:\n        /* \"#utility.yul\":11031:11064   */\n      swap2\n      pop\n        /* \"#utility.yul\":11086:11152   */\n      0xffffffffffffffffffffffffffffffffffffffffffffffffffffffffffffffff\n        /* \"#utility.yul\":11079:11084   */\n      dup3\n        /* \"#utility.yul\":11076:11153   */\n      sub\n        /* \"#utility.yul\":11073:11176   */\n      tag_513\n      jumpi\n        /* \"#utility.yul\":11156:11174   */\n      tag_514\n      tag_388\n      jump\t// in\n    tag_514:\n        /* \"#utility.yul\":11073:11176   */\n    tag_513:\n        /* \"#utility.yul\":11203:11204   */\n      0x01\n        /* \"#utility.yul\":11196:11201   */\n      dup3\n        /* \"#utility.yul\":11192:11205   */\n      add\n        /* \"#utility.yul\":11185:11205   */\n      swap1\n      pop\n        /* \"#utility.yul\":10978:11211   */\n      swap2\n      swap1\n      pop\n      jump\t// out\n        /* \"#utility.yul\":11217:11380   */\n    tag_389:\n        /* \"#utility.yul\":11357:11372   */\n      0x496e76616c696420696e70757400000000000000000000000000000000000000\n        /* \"#utility.yul\":11353:11354   */\n      0x00\n        /* \"#utility.yul\":11345:11351   */\n      dup3\n        /* \"#utility.yul\":11341:11355   */\n      add\n        /* \"#utility.yul\":11334:11373   */\n      mstore\n        /* \"#utility.yul\":11217:11380   */\n      pop\n      jump\t// out\n        /* \"#utility.yul\":11386:11752   */\n    tag_390:\n        /* \"#utility.yul\":11528:11531   */\n      0x00\n        /* \"#utility.yul\":11549:11616   */\n      tag_517\n        /* \"#utility.yul\":11613:11615   */\n      0x0d\n        /* \"#utility.yul\":11608:11611   */\n      dup4\n        /* \"#utility.yul\":11549:11616   */\n      tag_374\n      jump\t// in\n    tag_517:\n        /* \"#utility.yul\":11542:11616   */\n      swap2\n      pop\n        /* \"#utility.yul\":11625:11718   */\n      tag_518\n        /* \"#utility.yul\":11714:11717   */\n      dup3\n        /* \"#utility.yul\":11625:11718   */\n      tag_389\n      jump\t// in\n    tag_518:\n        /* \"#utility.yul\":11743:11745   */\n      0x20\n        /* \"#utility.yul\":11738:11741   */\n      dup3\n        /* \"#utility.yul\":11734:11746   */\n      add\n        /* \"#utility.yul\":11727:11746   */\n      swap1\n      pop\n        /* \"#utility.yul\":11386:11752   */\n      swap2\n      swap1\n      pop\n      jump\t// out\n        /* \"#utility.yul\":11758:12177   */\n    tag_135:\n        /* \"#utility.yul\":11924:11928   */\n      0x00\n        /* \"#utility.yul\":11962:11964   */\n      0x20\n        /* \"#utility.yul\":11951:11960   */\n      dup3\n        /* \"#utility.yul\":11947:11965   */\n      add\n        /* \"#utility.yul\":11939:11965   */\n      swap1\n      pop\n        /* \"#utility.yul\":12011:12020   */\n      dup2\n        /* \"#utility.yul\":12005:12009   */\n      dup2\n        /* \"#utility.yul\":12001:12021   */\n      sub\n        /* \"#utility.yul\":11997:11998   */\n      0x00\n        /* \"#utility.yul\":11986:11995   */\n      dup4\n        /* \"#utility.yul\":11982:11999   */\n      add\n        /* \"#utility.yul\":11975:12022   */\n      mstore\n        /* \"#utility.yul\":12039:12170   */\n      tag_520\n        /* \"#utility.yul\":12165:12169   */\n      dup2\n        /* \"#utility.yul\":12039:12170   */\n      tag_390\n      jump\t// in\n    tag_520:\n        /* \"#utility.yul\":12031:12170   */\n      swap1\n      pop\n        /* \"#utility.yul\":11758:12177   */\n      swap2\n      swap1\n      pop\n      jump\t// out\n        /* \"#utility.yul\":12183:12363   */\n    tag_391:\n        /* \"#utility.yul\":12231:12308   */\n      0x4e487b7100000000000000000000000000000000000000000000000000000000\n        /* \"#utility.yul\":12228:12229   */\n      0x00\n        /* \"#utility.yul\":12221:12309   */\n      mstore\n        /* \"#utility.yul\":12328:12332   */\n      0x12\n        /* \"#utility.yul\":12325:12326   */\n      0x04\n        /* \"#utility.yul\":12318:12333   */\n      mstore\n        /* \"#utility.yul\":12352:12356   */\n      0x24\n        /* \"#utility.yul\":12349:12350   */\n      0x00\n        /* \"#utility.yul\":12342:12357   */\n      revert\n        /* \"#utility.yul\":12369:12554   */\n    tag_137:\n        /* \"#utility.yul\":12409:12410   */\n      0x00\n        /* \"#utility.yul\":12426:12446   */\n      tag_523\n        /* \"#utility.yul\":12444:12445   */\n      dup3\n        /* \"#utility.yul\":12426:12446   */\n      tag_369\n      jump\t// in\n    tag_523:\n        /* \"#utility.yul\":12421:12446   */\n      swap2\n      pop\n        /* \"#utility.yul\":12460:12480   */\n      tag_524\n        /* \"#utility.yul\":12478:12479   */\n      dup4\n        /* \"#utility.yul\":12460:12480   */\n      tag_369\n      jump\t// in\n    tag_524:\n        /* \"#utility.yul\":12455:12480   */\n      swap3\n      pop\n        /* \"#utility.yul\":12499:12500   */\n      dup3\n        /* \"#utility.yul\":12489:12524   */\n      tag_525\n      jumpi\n        /* \"#utility.yul\":12504:12522   */\n      tag_526\n      tag_391\n      jump\t// in\n    tag_526:\n        /* \"#utility.yul\":12489:12524   */\n    tag_525:\n        /* \"#utility.yul\":12546:12547   */\n      dup3\n        /* \"#utility.yul\":12543:12544   */\n      dup3\n        /* \"#utility.yul\":12539:12548   */\n      div\n        /* \"#utility.yul\":12534:12548   */\n      swap1\n      pop\n        /* \"#utility.yul\":12369:12554   */\n      swap3\n      swap2\n      pop\n      pop\n      jump\t// out\n        /* \"#utility.yul\":12560:12970   */\n    tag_139:\n        /* \"#utility.yul\":12600:12607   */\n      0x00\n        /* \"#utility.yul\":12623:12643   */\n      tag_528\n        /* \"#utility.yul\":12641:12642   */\n      dup3\n        /* \"#utility.yul\":12623:12643   */\n      tag_369\n      jump\t// in\n    tag_528:\n        /* \"#utility.yul\":12618:12643   */\n      swap2\n      pop\n        /* \"#utility.yul\":12657:12677   */\n      tag_529\n        /* \"#utility.yul\":12675:12676   */\n      dup4\n        /* \"#utility.yul\":12657:12677   */\n      tag_369\n      jump\t// in\n    tag_529:\n        /* \"#utility.yul\":12652:12677   */\n      swap3\n      pop\n        /* \"#utility.yul\":12712:12713   */\n      dup3\n        /* \"#utility.yul\":12709:12710   */\n      dup3\n        /* \"#utility.yul\":12705:12714   */\n      mul\n        /* \"#utility.yul\":12734:12764   */\n      tag_530\n        /* \"#utility.yul\":12752:12763   */\n      dup2\n        /* \"#utility.yul\":12734:12764   */\n      tag_369\n      jump\t// in\n    tag_530:\n        /* \"#utility.yul\":12723:12764   */\n      swap2\n      pop\n        /* \"#utility.yul\":12913:12914   */\n      dup3\n        /* \"#utility.yul\":12904:12911   */\n      dup3\n        /* \"#utility.yul\":12900:12915   */\n      div\n        /* \"#utility.yul\":12897:12898   */\n      dup5\n        /* \"#utility.yul\":12894:12916   */\n      eq\n        /* \"#utility.yul\":12874:12875   */\n      dup4\n        /* \"#utility.yul\":12867:12876   */\n      iszero\n        /* \"#utility.yul\":12847:12930   */\n      or\n        /* \"#utility.yul\":12824:12963   */\n      tag_531\n      jumpi\n        /* \"#utility.yul\":12943:12961   */\n      tag_532\n      tag_388\n      jump\t// in\n    tag_532:\n        /* \"#utility.yul\":12824:12963   */\n    tag_531:\n        /* \"#utility.yul\":12608:12970   */\n      pop\n        /* \"#utility.yul\":12560:12970   */\n      swap3\n      swap2\n      pop\n      pop\n      jump\t// out\n        /* \"#utility.yul\":12976:13170   */\n    tag_141:\n        /* \"#utility.yul\":13016:13020   */\n      0x00\n        /* \"#utility.yul\":13036:13056   */\n      tag_534\n        /* \"#utility.yul\":13054:13055   */\n      dup3\n        /* \"#utility.yul\":13036:13056   */\n      tag_369\n      jump\t// in\n    tag_534:\n        /* \"#utility.yul\":13031:13056   */\n      swap2\n      pop\n        /* \"#utility.yul\":13070:13090   */\n      tag_535\n        /* \"#utility.yul\":13088:13089   */\n      dup4\n        /* \"#utility.yul\":13070:13090   */\n      tag_369\n      jump\t// in\n    tag_535:\n        /* \"#utility.yul\":13065:13090   */\n      swap3\n      pop\n        /* \"#utility.yul\":13114:13115   */\n      dup3\n        /* \"#utility.yul\":13111:13112   */\n      dup3\n        /* \"#utility.yul\":13107:13116   */\n      sub\n        /* \"#utility.yul\":13099:13116   */\n      swap1\n      pop\n        /* \"#utility.yul\":13138:13139   */\n      dup2\n        /* \"#utility.yul\":13132:13136   */\n      dup2\n        /* \"#utility.yul\":13129:13140   */\n      gt\n        /* \"#utility.yul\":13126:13163   */\n      iszero\n      tag_536\n      jumpi\n        /* \"#utility.yul\":13143:13161   */\n      tag_537\n      tag_388\n      jump\t// in\n    tag_537:\n        /* \"#utility.yul\":13126:13163   */\n    tag_536:\n        /* \"#utility.yul\":12976:13170   */\n      swap3\n      swap2\n      pop\n      pop\n      jump\t// out\n\n    auxdata: 0xa2646970667358221220270d1c00d29744ef75904ff9aedacc777b2ba4e4179b26a2adb8b75fcb18d7dd64736f6c634300081a0033\n}\n",
				"bytecode": {
					"linkReferences": {},
					"object": "6080604052348015600e575f80fd5b5061232d8061001c5f395ff3fe608060405234801561000f575f80fd5b5060043610610055575f3560e01c80633407abd01461005957806355d278e0146100895780635729c211146100b9578063e35d0f99146100e9578063feb465d914610119575b5f80fd5b610073600480360381019061006e9190611d32565b610149565b6040516100809190611d91565b60405180910390f35b6100a3600480360381019061009e9190611dd4565b610aa2565b6040516100b09190611e5f565b60405180910390f35b6100d360048036038101906100ce9190611d32565b6117c0565b6040516100e09190611e5f565b60405180910390f35b61010360048036038101906100fe9190611f43565b6118de565b6040516101109190611d91565b60405180910390f35b610133600480360381019061012e9190611f9d565b6119b5565b60405161014091906120ca565b60405180910390f35b5f808290505f805b8251811015610a97577f4d000000000000000000000000000000000000000000000000000000000000007effffffffffffffffffffffffffffffffffffffffffffffffffffffffffffff19168382815181106101b0576101af6120ea565b5b602001015160f81c60f81b7effffffffffffffffffffffffffffffffffffffffffffffffffffffffffffff1916036101f7576103e8826101f09190612144565b9150610a84565b7f44000000000000000000000000000000000000000000000000000000000000007effffffffffffffffffffffffffffffffffffffffffffffffffffffffffffff191683828151811061024d5761024c6120ea565b5b602001015160f81c60f81b7effffffffffffffffffffffffffffffffffffffffffffffffffffffffffffff191603610294576101f48261028d9190612144565b9150610a83565b7f43000000000000000000000000000000000000000000000000000000000000007effffffffffffffffffffffffffffffffffffffffffffffffffffffffffffff19168382815181106102ea576102e96120ea565b5b602001015160f81c60f81b7effffffffffffffffffffffffffffffffffffffffffffffffffffffffffffff1916036104d257825160018261032b9190612144565b1080156103c457507f4d000000000000000000000000000000000000000000000000000000000000007effffffffffffffffffffffffffffffffffffffffffffffffffffffffffffff1916836001836103849190612144565b81518110610395576103946120ea565b5b602001015160f81c60f81b7effffffffffffffffffffffffffffffffffffffffffffffffffffffffffffff1916145b156103ec57610384826103d79190612144565b915080806103e490612177565b9150506104cd565b82516001826103fb9190612144565b10801561049457507f44000000000000000000000000000000000000000000000000000000000000007effffffffffffffffffffffffffffffffffffffffffffffffffffffffffffff1916836001836104549190612144565b81518110610465576104646120ea565b5b602001015160f81c60f81b7effffffffffffffffffffffffffffffffffffffffffffffffffffffffffffff1916145b156104bc57610190826104a79190612144565b915080806104b490612177565b9150506104cc565b6064826104c99190612144565b91505b5b610a82565b7f4c000000000000000000000000000000000000000000000000000000000000007effffffffffffffffffffffffffffffffffffffffffffffffffffffffffffff1916838281518110610528576105276120ea565b5b602001015160f81c60f81b7effffffffffffffffffffffffffffffffffffffffffffffffffffffffffffff19160361056e576032826105679190612144565b9150610a81565b7f58000000000000000000000000000000000000000000000000000000000000007effffffffffffffffffffffffffffffffffffffffffffffffffffffffffffff19168382815181106105c4576105c36120ea565b5b602001015160f81c60f81b7effffffffffffffffffffffffffffffffffffffffffffffffffffffffffffff1916036107aa5782516001826106059190612144565b10801561069e57507f43000000000000000000000000000000000000000000000000000000000000007effffffffffffffffffffffffffffffffffffffffffffffffffffffffffffff19168360018361065e9190612144565b8151811061066f5761066e6120ea565b5b602001015160f81c60f81b7effffffffffffffffffffffffffffffffffffffffffffffffffffffffffffff1916145b156106c557605a826106b09190612144565b915080806106bd90612177565b9150506107a5565b82516001826106d49190612144565b10801561076d57507f4c000000000000000000000000000000000000000000000000000000000000007effffffffffffffffffffffffffffffffffffffffffffffffffffffffffffff19168360018361072d9190612144565b8151811061073e5761073d6120ea565b5b602001015160f81c60f81b7effffffffffffffffffffffffffffffffffffffffffffffffffffffffffffff1916145b156107945760288261077f9190612144565b9150808061078c90612177565b9150506107a4565b600a826107a19190612144565b91505b5b610a80565b7f56000000000000000000000000000000000000000000000000000000000000007effffffffffffffffffffffffffffffffffffffffffffffffffffffffffffff1916838281518110610800576107ff6120ea565b5b602001015160f81c60f81b7effffffffffffffffffffffffffffffffffffffffffffffffffffffffffffff1916036108465760058261083f9190612144565b9150610a7f565b7f49000000000000000000000000000000000000000000000000000000000000007effffffffffffffffffffffffffffffffffffffffffffffffffffffffffffff191683828151811061089c5761089b6120ea565b5b602001015160f81c60f81b7effffffffffffffffffffffffffffffffffffffffffffffffffffffffffffff191603610a7e5782516001826108dd9190612144565b10801561097657507f58000000000000000000000000000000000000000000000000000000000000007effffffffffffffffffffffffffffffffffffffffffffffffffffffffffffff1916836001836109369190612144565b81518110610947576109466120ea565b5b602001015160f81c60f81b7effffffffffffffffffffffffffffffffffffffffffffffffffffffffffffff1916145b1561099d576009826109889190612144565b9150808061099590612177565b915050610a7d565b82516001826109ac9190612144565b108015610a4557507f56000000000000000000000000000000000000000000000000000000000000007effffffffffffffffffffffffffffffffffffffffffffffffffffffffffffff191683600183610a059190612144565b81518110610a1657610a156120ea565b5b602001015160f81c60f81b7effffffffffffffffffffffffffffffffffffffffffffffffffffffffffffff1916145b15610a6c57600482610a579190612144565b91508080610a6490612177565b915050610a7c565b600182610a799190612144565b91505b5b5b5b5b5b5b5b5b8080610a8f90612177565b915050610151565b508092505050919050565b60606001821080610ab45750610f9f82115b15610af4576040517f08c379a0000000000000000000000000000000000000000000000000000000008152600401610aeb90612208565b60405180910390fd5b5f6103e883610b039190612253565b90505f60646103e883610b169190612283565b85610b2191906122c4565b610b2b9190612253565b90505f600a606483610b3d9190612283565b6103e885610b4b9190612283565b87610b5691906122c4565b610b6091906122c4565b610b6a9190612253565b90505f600a82610b7a9190612283565b606484610b879190612283565b6103e886610b959190612283565b88610ba091906122c4565b610baa91906122c4565b610bb491906122c4565b90505f601067ffffffffffffffff811115610bd257610bd1611c0e565b5b6040519080825280601f01601f191660200182016040528015610c045781602001600182028036833780820191505090505b5090505f80861115610c97575f5b86811015610c95577f4d00000000000000000000000000000000000000000000000000000000000000838380610c4790612177565b945081518110610c5a57610c596120ea565b5b60200101907effffffffffffffffffffffffffffffffffffffffffffffffffffffffffffff191690815f1a9053508080600101915050610c12565b505b5f8511156110085760098503610d88577f4300000000000000000000000000000000000000000000000000000000000000828280610cd490612177565b935081518110610ce757610ce66120ea565b5b60200101907effffffffffffffffffffffffffffffffffffffffffffffffffffffffffffff191690815f1a9053507f4d00000000000000000000000000000000000000000000000000000000000000828280610d4290612177565b935081518110610d5557610d546120ea565b5b60200101907effffffffffffffffffffffffffffffffffffffffffffffffffffffffffffff191690815f1a905350611007565b60058510610e95577f4400000000000000000000000000000000000000000000000000000000000000828280610dbd90612177565b935081518110610dd057610dcf6120ea565b5b60200101907effffffffffffffffffffffffffffffffffffffffffffffffffffffffffffff191690815f1a9053505f5b600586610e0d91906122c4565b811015610e8f577f4300000000000000000000000000000000000000000000000000000000000000838380610e4190612177565b945081518110610e5457610e536120ea565b5b60200101907effffffffffffffffffffffffffffffffffffffffffffffffffffffffffffff191690815f1a9053508080600101915050610e00565b50611006565b60048503610f7e577f4300000000000000000000000000000000000000000000000000000000000000828280610eca90612177565b935081518110610edd57610edc6120ea565b5b60200101907effffffffffffffffffffffffffffffffffffffffffffffffffffffffffffff191690815f1a9053507f4400000000000000000000000000000000000000000000000000000000000000828280610f3890612177565b935081518110610f4b57610f4a6120ea565b5b60200101907effffffffffffffffffffffffffffffffffffffffffffffffffffffffffffff191690815f1a905350611005565b5f5b85811015611003577f4300000000000000000000000000000000000000000000000000000000000000838380610fb590612177565b945081518110610fc857610fc76120ea565b5b60200101907effffffffffffffffffffffffffffffffffffffffffffffffffffffffffffff191690815f1a9053508080600101915050610f80565b505b5b5b5b5f84111561137957600984036110f9577f580000000000000000000000000000000000000000000000000000000000000082828061104590612177565b935081518110611058576110576120ea565b5b60200101907effffffffffffffffffffffffffffffffffffffffffffffffffffffffffffff191690815f1a9053507f43000000000000000000000000000000000000000000000000000000000000008282806110b390612177565b9350815181106110c6576110c56120ea565b5b60200101907effffffffffffffffffffffffffffffffffffffffffffffffffffffffffffff191690815f1a905350611378565b60058410611206577f4c0000000000000000000000000000000000000000000000000000000000000082828061112e90612177565b935081518110611141576111406120ea565b5b60200101907effffffffffffffffffffffffffffffffffffffffffffffffffffffffffffff191690815f1a9053505f5b60058561117e91906122c4565b811015611200577f58000000000000000000000000000000000000000000000000000000000000008383806111b290612177565b9450815181106111c5576111c46120ea565b5b60200101907effffffffffffffffffffffffffffffffffffffffffffffffffffffffffffff191690815f1a9053508080600101915050611171565b50611377565b600484036112ef577f580000000000000000000000000000000000000000000000000000000000000082828061123b90612177565b93508151811061124e5761124d6120ea565b5b60200101907effffffffffffffffffffffffffffffffffffffffffffffffffffffffffffff191690815f1a9053507f4c000000000000000000000000000000000000000000000000000000000000008282806112a990612177565b9350815181106112bc576112bb6120ea565b5b60200101907effffffffffffffffffffffffffffffffffffffffffffffffffffffffffffff191690815f1a905350611376565b5f5b84811015611374577f580000000000000000000000000000000000000000000000000000000000000083838061132690612177565b945081518110611339576113386120ea565b5b60200101907effffffffffffffffffffffffffffffffffffffffffffffffffffffffffffff191690815f1a90535080806001019150506112f1565b505b5b5b5b5f8311156116ea576009830361146a577f49000000000000000000000000000000000000000000000000000000000000008282806113b690612177565b9350815181106113c9576113c86120ea565b5b60200101907effffffffffffffffffffffffffffffffffffffffffffffffffffffffffffff191690815f1a9053507f580000000000000000000000000000000000000000000000000000000000000082828061142490612177565b935081518110611437576114366120ea565b5b60200101907effffffffffffffffffffffffffffffffffffffffffffffffffffffffffffff191690815f1a9053506116e9565b60058310611577577f560000000000000000000000000000000000000000000000000000000000000082828061149f90612177565b9350815181106114b2576114b16120ea565b5b60200101907effffffffffffffffffffffffffffffffffffffffffffffffffffffffffffff191690815f1a9053505f5b6005846114ef91906122c4565b811015611571577f490000000000000000000000000000000000000000000000000000000000000083838061152390612177565b945081518110611536576115356120ea565b5b60200101907effffffffffffffffffffffffffffffffffffffffffffffffffffffffffffff191690815f1a90535080806001019150506114e2565b506116e8565b60048303611660577f49000000000000000000000000000000000000000000000000000000000000008282806115ac90612177565b9350815181106115bf576115be6120ea565b5b60200101907effffffffffffffffffffffffffffffffffffffffffffffffffffffffffffff191690815f1a9053507f560000000000000000000000000000000000000000000000000000000000000082828061161a90612177565b93508151811061162d5761162c6120ea565b5b60200101907effffffffffffffffffffffffffffffffffffffffffffffffffffffffffffff191690815f1a9053506116e7565b5f5b838110156116e5577f490000000000000000000000000000000000000000000000000000000000000083838061169790612177565b9450815181106116aa576116a96120ea565b5b60200101907effffffffffffffffffffffffffffffffffffffffffffffffffffffffffffff191690815f1a9053508080600101915050611662565b505b5b5b5b5f8167ffffffffffffffff81111561170557611704611c0e565b5b6040519080825280601f01601f1916602001820160405280156117375781602001600182028036833780820191505090505b5090505f5b828110156117b057838181518110611757576117566120ea565b5b602001015160f81c60f81b828281518110611775576117746120ea565b5b60200101907effffffffffffffffffffffffffffffffffffffffffffffffffffffffffffff191690815f1a905350808060010191505061173c565b5080975050505050505050919050565b60605f8290505f5b600282516117d69190612253565b8110156118d4578160018284516117ed91906122c4565b6117f791906122c4565b81518110611808576118076120ea565b5b602001015160f81c60f81b828281518110611826576118256120ea565b5b602001015160f81c60f81b838381518110611844576118436120ea565b5b6020010184600185875161185891906122c4565b61186291906122c4565b81518110611873576118726120ea565b5b60200101827effffffffffffffffffffffffffffffffffffffffffffffffffffffffffffff19165f1a9053827effffffffffffffffffffffffffffffffffffffffffffffffffffffffffffff19165f1a9053505080806001019150506117c8565b5080915050919050565b5f805f90505f600185516118f291906122c4565b90505f600282846119039190612144565b61190d9190612253565b90505b8281106119a8578486828151811061192b5761192a6120ea565b5b602002602001015103611943578093505050506119af565b84868281518110611957576119566120ea565b5b60200260200101511015611979576001816119729190612144565b9250611989565b60018161198691906122c4565b91505b600282846119979190612144565b6119a19190612253565b9050611910565b505f925050505b92915050565b60605f825184516119c69190612144565b67ffffffffffffffff8111156119df576119de611c0e565b5b604051908082528060200260200182016040528015611a0d5781602001602082028036833780820191505090505b5090505f805f5b865183108015611a245750855182105b15611b0e57858281518110611a3c57611a3b6120ea565b5b6020026020010151878481518110611a5757611a566120ea565b5b60200260200101511015611ab257868381518110611a7857611a776120ea565b5b6020026020010151848281518110611a9357611a926120ea565b5b6020026020010181815250508280611aaa90612177565b935050611afb565b858281518110611ac557611ac46120ea565b5b6020026020010151848281518110611ae057611adf6120ea565b5b6020026020010181815250508180611af790612177565b9250505b8080611b0690612177565b915050611a14565b5b8651831015611b7357868381518110611b2b57611b2a6120ea565b5b6020026020010151848281518110611b4657611b456120ea565b5b6020026020010181815250508280611b5d90612177565b9350508080611b6b90612177565b915050611b0f565b5b8551821015611bd857858281518110611b9057611b8f6120ea565b5b6020026020010151848281518110611bab57611baa6120ea565b5b6020026020010181815250508180611bc290612177565b9250508080611bd090612177565b915050611b74565b8394505050505092915050565b5f604051905090565b5f80fd5b5f80fd5b5f80fd5b5f80fd5b5f601f19601f8301169050919050565b7f4e487b71000000000000000000000000000000000000000000000000000000005f52604160045260245ffd5b611c4482611bfe565b810181811067ffffffffffffffff82111715611c6357611c62611c0e565b5b80604052505050565b5f611c75611be5565b9050611c818282611c3b565b919050565b5f67ffffffffffffffff821115611ca057611c9f611c0e565b5b611ca982611bfe565b9050602081019050919050565b828183375f83830152505050565b5f611cd6611cd184611c86565b611c6c565b905082815260208101848484011115611cf257611cf1611bfa565b5b611cfd848285611cb6565b509392505050565b5f82601f830112611d1957611d18611bf6565b5b8135611d29848260208601611cc4565b91505092915050565b5f60208284031215611d4757611d46611bee565b5b5f82013567ffffffffffffffff811115611d6457611d63611bf2565b5b611d7084828501611d05565b91505092915050565b5f819050919050565b611d8b81611d79565b82525050565b5f602082019050611da45f830184611d82565b92915050565b611db381611d79565b8114611dbd575f80fd5b50565b5f81359050611dce81611daa565b92915050565b5f60208284031215611de957611de8611bee565b5b5f611df684828501611dc0565b91505092915050565b5f81519050919050565b5f82825260208201905092915050565b8281835e5f83830152505050565b5f611e3182611dff565b611e3b8185611e09565b9350611e4b818560208601611e19565b611e5481611bfe565b840191505092915050565b5f6020820190508181035f830152611e778184611e27565b905092915050565b5f67ffffffffffffffff821115611e9957611e98611c0e565b5b602082029050602081019050919050565b5f80fd5b5f611ec0611ebb84611e7f565b611c6c565b90508083825260208201905060208402830185811115611ee357611ee2611eaa565b5b835b81811015611f0c5780611ef88882611dc0565b845260208401935050602081019050611ee5565b5050509392505050565b5f82601f830112611f2a57611f29611bf6565b5b8135611f3a848260208601611eae565b91505092915050565b5f8060408385031215611f5957611f58611bee565b5b5f83013567ffffffffffffffff811115611f7657611f75611bf2565b5b611f8285828601611f16565b9250506020611f9385828601611dc0565b9150509250929050565b5f8060408385031215611fb357611fb2611bee565b5b5f83013567ffffffffffffffff811115611fd057611fcf611bf2565b5b611fdc85828601611f16565b925050602083013567ffffffffffffffff811115611ffd57611ffc611bf2565b5b61200985828601611f16565b9150509250929050565b5f81519050919050565b5f82825260208201905092915050565b5f819050602082019050919050565b61204581611d79565b82525050565b5f612056838361203c565b60208301905092915050565b5f602082019050919050565b5f61207882612013565b612082818561201d565b935061208d8361202d565b805f5b838110156120bd5781516120a4888261204b565b97506120af83612062565b925050600181019050612090565b5085935050505092915050565b5f6020820190508181035f8301526120e2818461206e565b905092915050565b7f4e487b71000000000000000000000000000000000000000000000000000000005f52603260045260245ffd5b7f4e487b71000000000000000000000000000000000000000000000000000000005f52601160045260245ffd5b5f61214e82611d79565b915061215983611d79565b925082820190508082111561217157612170612117565b5b92915050565b5f61218182611d79565b91507fffffffffffffffffffffffffffffffffffffffffffffffffffffffffffffffff82036121b3576121b2612117565b5b600182019050919050565b7f496e76616c696420696e707574000000000000000000000000000000000000005f82015250565b5f6121f2600d83611e09565b91506121fd826121be565b602082019050919050565b5f6020820190508181035f83015261221f816121e6565b9050919050565b7f4e487b71000000000000000000000000000000000000000000000000000000005f52601260045260245ffd5b5f61225d82611d79565b915061226883611d79565b92508261227857612277612226565b5b828204905092915050565b5f61228d82611d79565b915061229883611d79565b92508282026122a681611d79565b915082820484148315176122bd576122bc612117565b5b5092915050565b5f6122ce82611d79565b91506122d983611d79565b92508282039050818111156122f1576122f0612117565b5b9291505056fea2646970667358221220270d1c00d29744ef75904ff9aedacc777b2ba4e4179b26a2adb8b75fcb18d7dd64736f6c634300081a0033",
					"opcodes": "PUSH1 0x80 PUSH1 0x40 MSTORE CALLVALUE DUP1 ISZERO PUSH1 0xE JUMPI PUSH0 DUP1 REVERT JUMPDEST POP PUSH2 0x232D DUP1 PUSH2 0x1C PUSH0 CODECOPY PUSH0 RETURN INVALID PUSH1 0x80 PUSH1 0x40 MSTORE CALLVALUE DUP1 ISZERO PUSH2 0xF JUMPI PUSH0 DUP1 REVERT JUMPDEST POP PUSH1 0x4 CALLDATASIZE LT PUSH2 0x55 JUMPI PUSH0 CALLDATALOAD PUSH1 0xE0 SHR DUP1 PUSH4 0x3407ABD0 EQ PUSH2 0x59 JUMPI DUP1 PUSH4 0x55D278E0 EQ PUSH2 0x89 JUMPI DUP1 PUSH4 0x5729C211 EQ PUSH2 0xB9 JUMPI DUP1 PUSH4 0xE35D0F99 EQ PUSH2 0xE9 JUMPI DUP1 PUSH4 0xFEB465D9 EQ PUSH2 0x119 JUMPI JUMPDEST PUSH0 DUP1 REVERT JUMPDEST PUSH2 0x73 PUSH1 0x4 DUP1 CALLDATASIZE SUB DUP2 ADD SWAP1 PUSH2 0x6E SWAP2 SWAP1 PUSH2 0x1D32 JUMP JUMPDEST PUSH2 0x149 JUMP JUMPDEST PUSH1 0x40 MLOAD PUSH2 0x80 SWAP2 SWAP1 PUSH2 0x1D91 JUMP JUMPDEST PUSH1 0x40 MLOAD DUP1 SWAP2 SUB SWAP1 RETURN JUMPDEST PUSH2 0xA3 PUSH1 0x4 DUP1 CALLDATASIZE SUB DUP2 ADD SWAP1 PUSH2 0x9E SWAP2 SWAP1 PUSH2 0x1DD4 JUMP JUMPDEST PUSH2 0xAA2 JUMP JUMPDEST PUSH1 0x40 MLOAD PUSH2 0xB0 SWAP2 SWAP1 PUSH2 0x1E5F JUMP JUMPDEST PUSH1 0x40 MLOAD DUP1 SWAP2 SUB SWAP1 RETURN JUMPDEST PUSH2 0xD3 PUSH1 0x4 DUP1 CALLDATASIZE SUB DUP2 ADD SWAP1 PUSH2 0xCE SWAP2 SWAP1 PUSH2 0x1D32 JUMP JUMPDEST PUSH2 0x17C0 JUMP JUMPDEST PUSH1 0x40 MLOAD PUSH2 0xE0 SWAP2 SWAP1 PUSH2 0x1E5F JUMP JUMPDEST PUSH1 0x40 MLOAD DUP1 SWAP2 SUB SWAP1 RETURN JUMPDEST PUSH2 0x103 PUSH1 0x4 DUP1 CALLDATASIZE SUB DUP2 ADD SWAP1 PUSH2 0xFE SWAP2 SWAP1 PUSH2 0x1F43 JUMP JUMPDEST PUSH2 0x18DE JUMP JUMPDEST PUSH1 0x40 MLOAD PUSH2 0x110 SWAP2 SWAP1 PUSH2 0x1D91 JUMP JUMPDEST PUSH1 0x40 MLOAD DUP1 SWAP2 SUB SWAP1 RETURN JUMPDEST PUSH2 0x133 PUSH1 0x4 DUP1 CALLDATASIZE SUB DUP2 ADD SWAP1 PUSH2 0x12E SWAP2 SWAP1 PUSH2 0x1F9D JUMP JUMPDEST PUSH2 0x19B5 JUMP JUMPDEST PUSH1 0x40 MLOAD PUSH2 0x140 SWAP2 SWAP1 PUSH2 0x20CA JUMP JUMPDEST PUSH1 0x40 MLOAD DUP1 SWAP2 SUB SWAP1 RETURN JUMPDEST PUSH0 DUP1 DUP3 SWAP1 POP PUSH0 DUP1 JUMPDEST DUP3 MLOAD DUP2 LT ISZERO PUSH2 0xA97 JUMPI PUSH32 0x4D00000000000000000000000000000000000000000000000000000000000000 PUSH31 0xFFFFFFFFFFFFFFFFFFFFFFFFFFFFFFFFFFFFFFFFFFFFFFFFFFFFFFFFFFFFFF NOT AND DUP4 DUP3 DUP2 MLOAD DUP2 LT PUSH2 0x1B0 JUMPI PUSH2 0x1AF PUSH2 0x20EA JUMP JUMPDEST JUMPDEST PUSH1 0x20 ADD ADD MLOAD PUSH1 0xF8 SHR PUSH1 0xF8 SHL PUSH31 0xFFFFFFFFFFFFFFFFFFFFFFFFFFFFFFFFFFFFFFFFFFFFFFFFFFFFFFFFFFFFFF NOT AND SUB PUSH2 0x1F7 JUMPI PUSH2 0x3E8 DUP3 PUSH2 0x1F0 SWAP2 SWAP1 PUSH2 0x2144 JUMP JUMPDEST SWAP2 POP PUSH2 0xA84 JUMP JUMPDEST PUSH32 0x4400000000000000000000000000000000000000000000000000000000000000 PUSH31 0xFFFFFFFFFFFFFFFFFFFFFFFFFFFFFFFFFFFFFFFFFFFFFFFFFFFFFFFFFFFFFF NOT AND DUP4 DUP3 DUP2 MLOAD DUP2 LT PUSH2 0x24D JUMPI PUSH2 0x24C PUSH2 0x20EA JUMP JUMPDEST JUMPDEST PUSH1 0x20 ADD ADD MLOAD PUSH1 0xF8 SHR PUSH1 0xF8 SHL PUSH31 0xFFFFFFFFFFFFFFFFFFFFFFFFFFFFFFFFFFFFFFFFFFFFFFFFFFFFFFFFFFFFFF NOT AND SUB PUSH2 0x294 JUMPI PUSH2 0x1F4 DUP3 PUSH2 0x28D SWAP2 SWAP1 PUSH2 0x2144 JUMP JUMPDEST SWAP2 POP PUSH2 0xA83 JUMP JUMPDEST PUSH32 0x4300000000000000000000000000000000000000000000000000000000000000 PUSH31 0xFFFFFFFFFFFFFFFFFFFFFFFFFFFFFFFFFFFFFFFFFFFFFFFFFFFFFFFFFFFFFF NOT AND DUP4 DUP3 DUP2 MLOAD DUP2 LT PUSH2 0x2EA JUMPI PUSH2 0x2E9 PUSH2 0x20EA JUMP JUMPDEST JUMPDEST PUSH1 0x20 ADD ADD MLOAD PUSH1 0xF8 SHR PUSH1 0xF8 SHL PUSH31 0xFFFFFFFFFFFFFFFFFFFFFFFFFFFFFFFFFFFFFFFFFFFFFFFFFFFFFFFFFFFFFF NOT AND SUB PUSH2 0x4D2 JUMPI DUP3 MLOAD PUSH1 0x1 DUP3 PUSH2 0x32B SWAP2 SWAP1 PUSH2 0x2144 JUMP JUMPDEST LT DUP1 ISZERO PUSH2 0x3C4 JUMPI POP PUSH32 0x4D00000000000000000000000000000000000000000000000000000000000000 PUSH31 0xFFFFFFFFFFFFFFFFFFFFFFFFFFFFFFFFFFFFFFFFFFFFFFFFFFFFFFFFFFFFFF NOT AND DUP4 PUSH1 0x1 DUP4 PUSH2 0x384 SWAP2 SWAP1 PUSH2 0x2144 JUMP JUMPDEST DUP2 MLOAD DUP2 LT PUSH2 0x395 JUMPI PUSH2 0x394 PUSH2 0x20EA JUMP JUMPDEST JUMPDEST PUSH1 0x20 ADD ADD MLOAD PUSH1 0xF8 SHR PUSH1 0xF8 SHL PUSH31 0xFFFFFFFFFFFFFFFFFFFFFFFFFFFFFFFFFFFFFFFFFFFFFFFFFFFFFFFFFFFFFF NOT AND EQ JUMPDEST ISZERO PUSH2 0x3EC JUMPI PUSH2 0x384 DUP3 PUSH2 0x3D7 SWAP2 SWAP1 PUSH2 0x2144 JUMP JUMPDEST SWAP2 POP DUP1 DUP1 PUSH2 0x3E4 SWAP1 PUSH2 0x2177 JUMP JUMPDEST SWAP2 POP POP PUSH2 0x4CD JUMP JUMPDEST DUP3 MLOAD PUSH1 0x1 DUP3 PUSH2 0x3FB SWAP2 SWAP1 PUSH2 0x2144 JUMP JUMPDEST LT DUP1 ISZERO PUSH2 0x494 JUMPI POP PUSH32 0x4400000000000000000000000000000000000000000000000000000000000000 PUSH31 0xFFFFFFFFFFFFFFFFFFFFFFFFFFFFFFFFFFFFFFFFFFFFFFFFFFFFFFFFFFFFFF NOT AND DUP4 PUSH1 0x1 DUP4 PUSH2 0x454 SWAP2 SWAP1 PUSH2 0x2144 JUMP JUMPDEST DUP2 MLOAD DUP2 LT PUSH2 0x465 JUMPI PUSH2 0x464 PUSH2 0x20EA JUMP JUMPDEST JUMPDEST PUSH1 0x20 ADD ADD MLOAD PUSH1 0xF8 SHR PUSH1 0xF8 SHL PUSH31 0xFFFFFFFFFFFFFFFFFFFFFFFFFFFFFFFFFFFFFFFFFFFFFFFFFFFFFFFFFFFFFF NOT AND EQ JUMPDEST ISZERO PUSH2 0x4BC JUMPI PUSH2 0x190 DUP3 PUSH2 0x4A7 SWAP2 SWAP1 PUSH2 0x2144 JUMP JUMPDEST SWAP2 POP DUP1 DUP1 PUSH2 0x4B4 SWAP1 PUSH2 0x2177 JUMP JUMPDEST SWAP2 POP POP PUSH2 0x4CC JUMP JUMPDEST PUSH1 0x64 DUP3 PUSH2 0x4C9 SWAP2 SWAP1 PUSH2 0x2144 JUMP JUMPDEST SWAP2 POP JUMPDEST JUMPDEST PUSH2 0xA82 JUMP JUMPDEST PUSH32 0x4C00000000000000000000000000000000000000000000000000000000000000 PUSH31 0xFFFFFFFFFFFFFFFFFFFFFFFFFFFFFFFFFFFFFFFFFFFFFFFFFFFFFFFFFFFFFF NOT AND DUP4 DUP3 DUP2 MLOAD DUP2 LT PUSH2 0x528 JUMPI PUSH2 0x527 PUSH2 0x20EA JUMP JUMPDEST JUMPDEST PUSH1 0x20 ADD ADD MLOAD PUSH1 0xF8 SHR PUSH1 0xF8 SHL PUSH31 0xFFFFFFFFFFFFFFFFFFFFFFFFFFFFFFFFFFFFFFFFFFFFFFFFFFFFFFFFFFFFFF NOT AND SUB PUSH2 0x56E JUMPI PUSH1 0x32 DUP3 PUSH2 0x567 SWAP2 SWAP1 PUSH2 0x2144 JUMP JUMPDEST SWAP2 POP PUSH2 0xA81 JUMP JUMPDEST PUSH32 0x5800000000000000000000000000000000000000000000000000000000000000 PUSH31 0xFFFFFFFFFFFFFFFFFFFFFFFFFFFFFFFFFFFFFFFFFFFFFFFFFFFFFFFFFFFFFF NOT AND DUP4 DUP3 DUP2 MLOAD DUP2 LT PUSH2 0x5C4 JUMPI PUSH2 0x5C3 PUSH2 0x20EA JUMP JUMPDEST JUMPDEST PUSH1 0x20 ADD ADD MLOAD PUSH1 0xF8 SHR PUSH1 0xF8 SHL PUSH31 0xFFFFFFFFFFFFFFFFFFFFFFFFFFFFFFFFFFFFFFFFFFFFFFFFFFFFFFFFFFFFFF NOT AND SUB PUSH2 0x7AA JUMPI DUP3 MLOAD PUSH1 0x1 DUP3 PUSH2 0x605 SWAP2 SWAP1 PUSH2 0x2144 JUMP JUMPDEST LT DUP1 ISZERO PUSH2 0x69E JUMPI POP PUSH32 0x4300000000000000000000000000000000000000000000000000000000000000 PUSH31 0xFFFFFFFFFFFFFFFFFFFFFFFFFFFFFFFFFFFFFFFFFFFFFFFFFFFFFFFFFFFFFF NOT AND DUP4 PUSH1 0x1 DUP4 PUSH2 0x65E SWAP2 SWAP1 PUSH2 0x2144 JUMP JUMPDEST DUP2 MLOAD DUP2 LT PUSH2 0x66F JUMPI PUSH2 0x66E PUSH2 0x20EA JUMP JUMPDEST JUMPDEST PUSH1 0x20 ADD ADD MLOAD PUSH1 0xF8 SHR PUSH1 0xF8 SHL PUSH31 0xFFFFFFFFFFFFFFFFFFFFFFFFFFFFFFFFFFFFFFFFFFFFFFFFFFFFFFFFFFFFFF NOT AND EQ JUMPDEST ISZERO PUSH2 0x6C5 JUMPI PUSH1 0x5A DUP3 PUSH2 0x6B0 SWAP2 SWAP1 PUSH2 0x2144 JUMP JUMPDEST SWAP2 POP DUP1 DUP1 PUSH2 0x6BD SWAP1 PUSH2 0x2177 JUMP JUMPDEST SWAP2 POP POP PUSH2 0x7A5 JUMP JUMPDEST DUP3 MLOAD PUSH1 0x1 DUP3 PUSH2 0x6D4 SWAP2 SWAP1 PUSH2 0x2144 JUMP JUMPDEST LT DUP1 ISZERO PUSH2 0x76D JUMPI POP PUSH32 0x4C00000000000000000000000000000000000000000000000000000000000000 PUSH31 0xFFFFFFFFFFFFFFFFFFFFFFFFFFFFFFFFFFFFFFFFFFFFFFFFFFFFFFFFFFFFFF NOT AND DUP4 PUSH1 0x1 DUP4 PUSH2 0x72D SWAP2 SWAP1 PUSH2 0x2144 JUMP JUMPDEST DUP2 MLOAD DUP2 LT PUSH2 0x73E JUMPI PUSH2 0x73D PUSH2 0x20EA JUMP JUMPDEST JUMPDEST PUSH1 0x20 ADD ADD MLOAD PUSH1 0xF8 SHR PUSH1 0xF8 SHL PUSH31 0xFFFFFFFFFFFFFFFFFFFFFFFFFFFFFFFFFFFFFFFFFFFFFFFFFFFFFFFFFFFFFF NOT AND EQ JUMPDEST ISZERO PUSH2 0x794 JUMPI PUSH1 0x28 DUP3 PUSH2 0x77F SWAP2 SWAP1 PUSH2 0x2144 JUMP JUMPDEST SWAP2 POP DUP1 DUP1 PUSH2 0x78C SWAP1 PUSH2 0x2177 JUMP JUMPDEST SWAP2 POP POP PUSH2 0x7A4 JUMP JUMPDEST PUSH1 0xA DUP3 PUSH2 0x7A1 SWAP2 SWAP1 PUSH2 0x2144 JUMP JUMPDEST SWAP2 POP JUMPDEST JUMPDEST PUSH2 0xA80 JUMP JUMPDEST PUSH32 0x5600000000000000000000000000000000000000000000000000000000000000 PUSH31 0xFFFFFFFFFFFFFFFFFFFFFFFFFFFFFFFFFFFFFFFFFFFFFFFFFFFFFFFFFFFFFF NOT AND DUP4 DUP3 DUP2 MLOAD DUP2 LT PUSH2 0x800 JUMPI PUSH2 0x7FF PUSH2 0x20EA JUMP JUMPDEST JUMPDEST PUSH1 0x20 ADD ADD MLOAD PUSH1 0xF8 SHR PUSH1 0xF8 SHL PUSH31 0xFFFFFFFFFFFFFFFFFFFFFFFFFFFFFFFFFFFFFFFFFFFFFFFFFFFFFFFFFFFFFF NOT AND SUB PUSH2 0x846 JUMPI PUSH1 0x5 DUP3 PUSH2 0x83F SWAP2 SWAP1 PUSH2 0x2144 JUMP JUMPDEST SWAP2 POP PUSH2 0xA7F JUMP JUMPDEST PUSH32 0x4900000000000000000000000000000000000000000000000000000000000000 PUSH31 0xFFFFFFFFFFFFFFFFFFFFFFFFFFFFFFFFFFFFFFFFFFFFFFFFFFFFFFFFFFFFFF NOT AND DUP4 DUP3 DUP2 MLOAD DUP2 LT PUSH2 0x89C JUMPI PUSH2 0x89B PUSH2 0x20EA JUMP JUMPDEST JUMPDEST PUSH1 0x20 ADD ADD MLOAD PUSH1 0xF8 SHR PUSH1 0xF8 SHL PUSH31 0xFFFFFFFFFFFFFFFFFFFFFFFFFFFFFFFFFFFFFFFFFFFFFFFFFFFFFFFFFFFFFF NOT AND SUB PUSH2 0xA7E JUMPI DUP3 MLOAD PUSH1 0x1 DUP3 PUSH2 0x8DD SWAP2 SWAP1 PUSH2 0x2144 JUMP JUMPDEST LT DUP1 ISZERO PUSH2 0x976 JUMPI POP PUSH32 0x5800000000000000000000000000000000000000000000000000000000000000 PUSH31 0xFFFFFFFFFFFFFFFFFFFFFFFFFFFFFFFFFFFFFFFFFFFFFFFFFFFFFFFFFFFFFF NOT AND DUP4 PUSH1 0x1 DUP4 PUSH2 0x936 SWAP2 SWAP1 PUSH2 0x2144 JUMP JUMPDEST DUP2 MLOAD DUP2 LT PUSH2 0x947 JUMPI PUSH2 0x946 PUSH2 0x20EA JUMP JUMPDEST JUMPDEST PUSH1 0x20 ADD ADD MLOAD PUSH1 0xF8 SHR PUSH1 0xF8 SHL PUSH31 0xFFFFFFFFFFFFFFFFFFFFFFFFFFFFFFFFFFFFFFFFFFFFFFFFFFFFFFFFFFFFFF NOT AND EQ JUMPDEST ISZERO PUSH2 0x99D JUMPI PUSH1 0x9 DUP3 PUSH2 0x988 SWAP2 SWAP1 PUSH2 0x2144 JUMP JUMPDEST SWAP2 POP DUP1 DUP1 PUSH2 0x995 SWAP1 PUSH2 0x2177 JUMP JUMPDEST SWAP2 POP POP PUSH2 0xA7D JUMP JUMPDEST DUP3 MLOAD PUSH1 0x1 DUP3 PUSH2 0x9AC SWAP2 SWAP1 PUSH2 0x2144 JUMP JUMPDEST LT DUP1 ISZERO PUSH2 0xA45 JUMPI POP PUSH32 0x5600000000000000000000000000000000000000000000000000000000000000 PUSH31 0xFFFFFFFFFFFFFFFFFFFFFFFFFFFFFFFFFFFFFFFFFFFFFFFFFFFFFFFFFFFFFF NOT AND DUP4 PUSH1 0x1 DUP4 PUSH2 0xA05 SWAP2 SWAP1 PUSH2 0x2144 JUMP JUMPDEST DUP2 MLOAD DUP2 LT PUSH2 0xA16 JUMPI PUSH2 0xA15 PUSH2 0x20EA JUMP JUMPDEST JUMPDEST PUSH1 0x20 ADD ADD MLOAD PUSH1 0xF8 SHR PUSH1 0xF8 SHL PUSH31 0xFFFFFFFFFFFFFFFFFFFFFFFFFFFFFFFFFFFFFFFFFFFFFFFFFFFFFFFFFFFFFF NOT AND EQ JUMPDEST ISZERO PUSH2 0xA6C JUMPI PUSH1 0x4 DUP3 PUSH2 0xA57 SWAP2 SWAP1 PUSH2 0x2144 JUMP JUMPDEST SWAP2 POP DUP1 DUP1 PUSH2 0xA64 SWAP1 PUSH2 0x2177 JUMP JUMPDEST SWAP2 POP POP PUSH2 0xA7C JUMP JUMPDEST PUSH1 0x1 DUP3 PUSH2 0xA79 SWAP2 SWAP1 PUSH2 0x2144 JUMP JUMPDEST SWAP2 POP JUMPDEST JUMPDEST JUMPDEST JUMPDEST JUMPDEST JUMPDEST JUMPDEST JUMPDEST JUMPDEST DUP1 DUP1 PUSH2 0xA8F SWAP1 PUSH2 0x2177 JUMP JUMPDEST SWAP2 POP POP PUSH2 0x151 JUMP JUMPDEST POP DUP1 SWAP3 POP POP POP SWAP2 SWAP1 POP JUMP JUMPDEST PUSH1 0x60 PUSH1 0x1 DUP3 LT DUP1 PUSH2 0xAB4 JUMPI POP PUSH2 0xF9F DUP3 GT JUMPDEST ISZERO PUSH2 0xAF4 JUMPI PUSH1 0x40 MLOAD PUSH32 0x8C379A000000000000000000000000000000000000000000000000000000000 DUP2 MSTORE PUSH1 0x4 ADD PUSH2 0xAEB SWAP1 PUSH2 0x2208 JUMP JUMPDEST PUSH1 0x40 MLOAD DUP1 SWAP2 SUB SWAP1 REVERT JUMPDEST PUSH0 PUSH2 0x3E8 DUP4 PUSH2 0xB03 SWAP2 SWAP1 PUSH2 0x2253 JUMP JUMPDEST SWAP1 POP PUSH0 PUSH1 0x64 PUSH2 0x3E8 DUP4 PUSH2 0xB16 SWAP2 SWAP1 PUSH2 0x2283 JUMP JUMPDEST DUP6 PUSH2 0xB21 SWAP2 SWAP1 PUSH2 0x22C4 JUMP JUMPDEST PUSH2 0xB2B SWAP2 SWAP1 PUSH2 0x2253 JUMP JUMPDEST SWAP1 POP PUSH0 PUSH1 0xA PUSH1 0x64 DUP4 PUSH2 0xB3D SWAP2 SWAP1 PUSH2 0x2283 JUMP JUMPDEST PUSH2 0x3E8 DUP6 PUSH2 0xB4B SWAP2 SWAP1 PUSH2 0x2283 JUMP JUMPDEST DUP8 PUSH2 0xB56 SWAP2 SWAP1 PUSH2 0x22C4 JUMP JUMPDEST PUSH2 0xB60 SWAP2 SWAP1 PUSH2 0x22C4 JUMP JUMPDEST PUSH2 0xB6A SWAP2 SWAP1 PUSH2 0x2253 JUMP JUMPDEST SWAP1 POP PUSH0 PUSH1 0xA DUP3 PUSH2 0xB7A SWAP2 SWAP1 PUSH2 0x2283 JUMP JUMPDEST PUSH1 0x64 DUP5 PUSH2 0xB87 SWAP2 SWAP1 PUSH2 0x2283 JUMP JUMPDEST PUSH2 0x3E8 DUP7 PUSH2 0xB95 SWAP2 SWAP1 PUSH2 0x2283 JUMP JUMPDEST DUP9 PUSH2 0xBA0 SWAP2 SWAP1 PUSH2 0x22C4 JUMP JUMPDEST PUSH2 0xBAA SWAP2 SWAP1 PUSH2 0x22C4 JUMP JUMPDEST PUSH2 0xBB4 SWAP2 SWAP1 PUSH2 0x22C4 JUMP JUMPDEST SWAP1 POP PUSH0 PUSH1 0x10 PUSH8 0xFFFFFFFFFFFFFFFF DUP2 GT ISZERO PUSH2 0xBD2 JUMPI PUSH2 0xBD1 PUSH2 0x1C0E JUMP JUMPDEST JUMPDEST PUSH1 0x40 MLOAD SWAP1 DUP1 DUP3 MSTORE DUP1 PUSH1 0x1F ADD PUSH1 0x1F NOT AND PUSH1 0x20 ADD DUP3 ADD PUSH1 0x40 MSTORE DUP1 ISZERO PUSH2 0xC04 JUMPI DUP2 PUSH1 0x20 ADD PUSH1 0x1 DUP3 MUL DUP1 CALLDATASIZE DUP4 CALLDATACOPY DUP1 DUP3 ADD SWAP2 POP POP SWAP1 POP JUMPDEST POP SWAP1 POP PUSH0 DUP1 DUP7 GT ISZERO PUSH2 0xC97 JUMPI PUSH0 JUMPDEST DUP7 DUP2 LT ISZERO PUSH2 0xC95 JUMPI PUSH32 0x4D00000000000000000000000000000000000000000000000000000000000000 DUP4 DUP4 DUP1 PUSH2 0xC47 SWAP1 PUSH2 0x2177 JUMP JUMPDEST SWAP5 POP DUP2 MLOAD DUP2 LT PUSH2 0xC5A JUMPI PUSH2 0xC59 PUSH2 0x20EA JUMP JUMPDEST JUMPDEST PUSH1 0x20 ADD ADD SWAP1 PUSH31 0xFFFFFFFFFFFFFFFFFFFFFFFFFFFFFFFFFFFFFFFFFFFFFFFFFFFFFFFFFFFFFF NOT AND SWAP1 DUP2 PUSH0 BYTE SWAP1 MSTORE8 POP DUP1 DUP1 PUSH1 0x1 ADD SWAP2 POP POP PUSH2 0xC12 JUMP JUMPDEST POP JUMPDEST PUSH0 DUP6 GT ISZERO PUSH2 0x1008 JUMPI PUSH1 0x9 DUP6 SUB PUSH2 0xD88 JUMPI PUSH32 0x4300000000000000000000000000000000000000000000000000000000000000 DUP3 DUP3 DUP1 PUSH2 0xCD4 SWAP1 PUSH2 0x2177 JUMP JUMPDEST SWAP4 POP DUP2 MLOAD DUP2 LT PUSH2 0xCE7 JUMPI PUSH2 0xCE6 PUSH2 0x20EA JUMP JUMPDEST JUMPDEST PUSH1 0x20 ADD ADD SWAP1 PUSH31 0xFFFFFFFFFFFFFFFFFFFFFFFFFFFFFFFFFFFFFFFFFFFFFFFFFFFFFFFFFFFFFF NOT AND SWAP1 DUP2 PUSH0 BYTE SWAP1 MSTORE8 POP PUSH32 0x4D00000000000000000000000000000000000000000000000000000000000000 DUP3 DUP3 DUP1 PUSH2 0xD42 SWAP1 PUSH2 0x2177 JUMP JUMPDEST SWAP4 POP DUP2 MLOAD DUP2 LT PUSH2 0xD55 JUMPI PUSH2 0xD54 PUSH2 0x20EA JUMP JUMPDEST JUMPDEST PUSH1 0x20 ADD ADD SWAP1 PUSH31 0xFFFFFFFFFFFFFFFFFFFFFFFFFFFFFFFFFFFFFFFFFFFFFFFFFFFFFFFFFFFFFF NOT AND SWAP1 DUP2 PUSH0 BYTE SWAP1 MSTORE8 POP PUSH2 0x1007 JUMP JUMPDEST PUSH1 0x5 DUP6 LT PUSH2 0xE95 JUMPI PUSH32 0x4400000000000000000000000000000000000000000000000000000000000000 DUP3 DUP3 DUP1 PUSH2 0xDBD SWAP1 PUSH2 0x2177 JUMP JUMPDEST SWAP4 POP DUP2 MLOAD DUP2 LT PUSH2 0xDD0 JUMPI PUSH2 0xDCF PUSH2 0x20EA JUMP JUMPDEST JUMPDEST PUSH1 0x20 ADD ADD SWAP1 PUSH31 0xFFFFFFFFFFFFFFFFFFFFFFFFFFFFFFFFFFFFFFFFFFFFFFFFFFFFFFFFFFFFFF NOT AND SWAP1 DUP2 PUSH0 BYTE SWAP1 MSTORE8 POP PUSH0 JUMPDEST PUSH1 0x5 DUP7 PUSH2 0xE0D SWAP2 SWAP1 PUSH2 0x22C4 JUMP JUMPDEST DUP2 LT ISZERO PUSH2 0xE8F JUMPI PUSH32 0x4300000000000000000000000000000000000000000000000000000000000000 DUP4 DUP4 DUP1 PUSH2 0xE41 SWAP1 PUSH2 0x2177 JUMP JUMPDEST SWAP5 POP DUP2 MLOAD DUP2 LT PUSH2 0xE54 JUMPI PUSH2 0xE53 PUSH2 0x20EA JUMP JUMPDEST JUMPDEST PUSH1 0x20 ADD ADD SWAP1 PUSH31 0xFFFFFFFFFFFFFFFFFFFFFFFFFFFFFFFFFFFFFFFFFFFFFFFFFFFFFFFFFFFFFF NOT AND SWAP1 DUP2 PUSH0 BYTE SWAP1 MSTORE8 POP DUP1 DUP1 PUSH1 0x1 ADD SWAP2 POP POP PUSH2 0xE00 JUMP JUMPDEST POP PUSH2 0x1006 JUMP JUMPDEST PUSH1 0x4 DUP6 SUB PUSH2 0xF7E JUMPI PUSH32 0x4300000000000000000000000000000000000000000000000000000000000000 DUP3 DUP3 DUP1 PUSH2 0xECA SWAP1 PUSH2 0x2177 JUMP JUMPDEST SWAP4 POP DUP2 MLOAD DUP2 LT PUSH2 0xEDD JUMPI PUSH2 0xEDC PUSH2 0x20EA JUMP JUMPDEST JUMPDEST PUSH1 0x20 ADD ADD SWAP1 PUSH31 0xFFFFFFFFFFFFFFFFFFFFFFFFFFFFFFFFFFFFFFFFFFFFFFFFFFFFFFFFFFFFFF NOT AND SWAP1 DUP2 PUSH0 BYTE SWAP1 MSTORE8 POP PUSH32 0x4400000000000000000000000000000000000000000000000000000000000000 DUP3 DUP3 DUP1 PUSH2 0xF38 SWAP1 PUSH2 0x2177 JUMP JUMPDEST SWAP4 POP DUP2 MLOAD DUP2 LT PUSH2 0xF4B JUMPI PUSH2 0xF4A PUSH2 0x20EA JUMP JUMPDEST JUMPDEST PUSH1 0x20 ADD ADD SWAP1 PUSH31 0xFFFFFFFFFFFFFFFFFFFFFFFFFFFFFFFFFFFFFFFFFFFFFFFFFFFFFFFFFFFFFF NOT AND SWAP1 DUP2 PUSH0 BYTE SWAP1 MSTORE8 POP PUSH2 0x1005 JUMP JUMPDEST PUSH0 JUMPDEST DUP6 DUP2 LT ISZERO PUSH2 0x1003 JUMPI PUSH32 0x4300000000000000000000000000000000000000000000000000000000000000 DUP4 DUP4 DUP1 PUSH2 0xFB5 SWAP1 PUSH2 0x2177 JUMP JUMPDEST SWAP5 POP DUP2 MLOAD DUP2 LT PUSH2 0xFC8 JUMPI PUSH2 0xFC7 PUSH2 0x20EA JUMP JUMPDEST JUMPDEST PUSH1 0x20 ADD ADD SWAP1 PUSH31 0xFFFFFFFFFFFFFFFFFFFFFFFFFFFFFFFFFFFFFFFFFFFFFFFFFFFFFFFFFFFFFF NOT AND SWAP1 DUP2 PUSH0 BYTE SWAP1 MSTORE8 POP DUP1 DUP1 PUSH1 0x1 ADD SWAP2 POP POP PUSH2 0xF80 JUMP JUMPDEST POP JUMPDEST JUMPDEST JUMPDEST JUMPDEST PUSH0 DUP5 GT ISZERO PUSH2 0x1379 JUMPI PUSH1 0x9 DUP5 SUB PUSH2 0x10F9 JUMPI PUSH32 0x5800000000000000000000000000000000000000000000000000000000000000 DUP3 DUP3 DUP1 PUSH2 0x1045 SWAP1 PUSH2 0x2177 JUMP JUMPDEST SWAP4 POP DUP2 MLOAD DUP2 LT PUSH2 0x1058 JUMPI PUSH2 0x1057 PUSH2 0x20EA JUMP JUMPDEST JUMPDEST PUSH1 0x20 ADD ADD SWAP1 PUSH31 0xFFFFFFFFFFFFFFFFFFFFFFFFFFFFFFFFFFFFFFFFFFFFFFFFFFFFFFFFFFFFFF NOT AND SWAP1 DUP2 PUSH0 BYTE SWAP1 MSTORE8 POP PUSH32 0x4300000000000000000000000000000000000000000000000000000000000000 DUP3 DUP3 DUP1 PUSH2 0x10B3 SWAP1 PUSH2 0x2177 JUMP JUMPDEST SWAP4 POP DUP2 MLOAD DUP2 LT PUSH2 0x10C6 JUMPI PUSH2 0x10C5 PUSH2 0x20EA JUMP JUMPDEST JUMPDEST PUSH1 0x20 ADD ADD SWAP1 PUSH31 0xFFFFFFFFFFFFFFFFFFFFFFFFFFFFFFFFFFFFFFFFFFFFFFFFFFFFFFFFFFFFFF NOT AND SWAP1 DUP2 PUSH0 BYTE SWAP1 MSTORE8 POP PUSH2 0x1378 JUMP JUMPDEST PUSH1 0x5 DUP5 LT PUSH2 0x1206 JUMPI PUSH32 0x4C00000000000000000000000000000000000000000000000000000000000000 DUP3 DUP3 DUP1 PUSH2 0x112E SWAP1 PUSH2 0x2177 JUMP JUMPDEST SWAP4 POP DUP2 MLOAD DUP2 LT PUSH2 0x1141 JUMPI PUSH2 0x1140 PUSH2 0x20EA JUMP JUMPDEST JUMPDEST PUSH1 0x20 ADD ADD SWAP1 PUSH31 0xFFFFFFFFFFFFFFFFFFFFFFFFFFFFFFFFFFFFFFFFFFFFFFFFFFFFFFFFFFFFFF NOT AND SWAP1 DUP2 PUSH0 BYTE SWAP1 MSTORE8 POP PUSH0 JUMPDEST PUSH1 0x5 DUP6 PUSH2 0x117E SWAP2 SWAP1 PUSH2 0x22C4 JUMP JUMPDEST DUP2 LT ISZERO PUSH2 0x1200 JUMPI PUSH32 0x5800000000000000000000000000000000000000000000000000000000000000 DUP4 DUP4 DUP1 PUSH2 0x11B2 SWAP1 PUSH2 0x2177 JUMP JUMPDEST SWAP5 POP DUP2 MLOAD DUP2 LT PUSH2 0x11C5 JUMPI PUSH2 0x11C4 PUSH2 0x20EA JUMP JUMPDEST JUMPDEST PUSH1 0x20 ADD ADD SWAP1 PUSH31 0xFFFFFFFFFFFFFFFFFFFFFFFFFFFFFFFFFFFFFFFFFFFFFFFFFFFFFFFFFFFFFF NOT AND SWAP1 DUP2 PUSH0 BYTE SWAP1 MSTORE8 POP DUP1 DUP1 PUSH1 0x1 ADD SWAP2 POP POP PUSH2 0x1171 JUMP JUMPDEST POP PUSH2 0x1377 JUMP JUMPDEST PUSH1 0x4 DUP5 SUB PUSH2 0x12EF JUMPI PUSH32 0x5800000000000000000000000000000000000000000000000000000000000000 DUP3 DUP3 DUP1 PUSH2 0x123B SWAP1 PUSH2 0x2177 JUMP JUMPDEST SWAP4 POP DUP2 MLOAD DUP2 LT PUSH2 0x124E JUMPI PUSH2 0x124D PUSH2 0x20EA JUMP JUMPDEST JUMPDEST PUSH1 0x20 ADD ADD SWAP1 PUSH31 0xFFFFFFFFFFFFFFFFFFFFFFFFFFFFFFFFFFFFFFFFFFFFFFFFFFFFFFFFFFFFFF NOT AND SWAP1 DUP2 PUSH0 BYTE SWAP1 MSTORE8 POP PUSH32 0x4C00000000000000000000000000000000000000000000000000000000000000 DUP3 DUP3 DUP1 PUSH2 0x12A9 SWAP1 PUSH2 0x2177 JUMP JUMPDEST SWAP4 POP DUP2 MLOAD DUP2 LT PUSH2 0x12BC JUMPI PUSH2 0x12BB PUSH2 0x20EA JUMP JUMPDEST JUMPDEST PUSH1 0x20 ADD ADD SWAP1 PUSH31 0xFFFFFFFFFFFFFFFFFFFFFFFFFFFFFFFFFFFFFFFFFFFFFFFFFFFFFFFFFFFFFF NOT AND SWAP1 DUP2 PUSH0 BYTE SWAP1 MSTORE8 POP PUSH2 0x1376 JUMP JUMPDEST PUSH0 JUMPDEST DUP5 DUP2 LT ISZERO PUSH2 0x1374 JUMPI PUSH32 0x5800000000000000000000000000000000000000000000000000000000000000 DUP4 DUP4 DUP1 PUSH2 0x1326 SWAP1 PUSH2 0x2177 JUMP JUMPDEST SWAP5 POP DUP2 MLOAD DUP2 LT PUSH2 0x1339 JUMPI PUSH2 0x1338 PUSH2 0x20EA JUMP JUMPDEST JUMPDEST PUSH1 0x20 ADD ADD SWAP1 PUSH31 0xFFFFFFFFFFFFFFFFFFFFFFFFFFFFFFFFFFFFFFFFFFFFFFFFFFFFFFFFFFFFFF NOT AND SWAP1 DUP2 PUSH0 BYTE SWAP1 MSTORE8 POP DUP1 DUP1 PUSH1 0x1 ADD SWAP2 POP POP PUSH2 0x12F1 JUMP JUMPDEST POP JUMPDEST JUMPDEST JUMPDEST JUMPDEST PUSH0 DUP4 GT ISZERO PUSH2 0x16EA JUMPI PUSH1 0x9 DUP4 SUB PUSH2 0x146A JUMPI PUSH32 0x4900000000000000000000000000000000000000000000000000000000000000 DUP3 DUP3 DUP1 PUSH2 0x13B6 SWAP1 PUSH2 0x2177 JUMP JUMPDEST SWAP4 POP DUP2 MLOAD DUP2 LT PUSH2 0x13C9 JUMPI PUSH2 0x13C8 PUSH2 0x20EA JUMP JUMPDEST JUMPDEST PUSH1 0x20 ADD ADD SWAP1 PUSH31 0xFFFFFFFFFFFFFFFFFFFFFFFFFFFFFFFFFFFFFFFFFFFFFFFFFFFFFFFFFFFFFF NOT AND SWAP1 DUP2 PUSH0 BYTE SWAP1 MSTORE8 POP PUSH32 0x5800000000000000000000000000000000000000000000000000000000000000 DUP3 DUP3 DUP1 PUSH2 0x1424 SWAP1 PUSH2 0x2177 JUMP JUMPDEST SWAP4 POP DUP2 MLOAD DUP2 LT PUSH2 0x1437 JUMPI PUSH2 0x1436 PUSH2 0x20EA JUMP JUMPDEST JUMPDEST PUSH1 0x20 ADD ADD SWAP1 PUSH31 0xFFFFFFFFFFFFFFFFFFFFFFFFFFFFFFFFFFFFFFFFFFFFFFFFFFFFFFFFFFFFFF NOT AND SWAP1 DUP2 PUSH0 BYTE SWAP1 MSTORE8 POP PUSH2 0x16E9 JUMP JUMPDEST PUSH1 0x5 DUP4 LT PUSH2 0x1577 JUMPI PUSH32 0x5600000000000000000000000000000000000000000000000000000000000000 DUP3 DUP3 DUP1 PUSH2 0x149F SWAP1 PUSH2 0x2177 JUMP JUMPDEST SWAP4 POP DUP2 MLOAD DUP2 LT PUSH2 0x14B2 JUMPI PUSH2 0x14B1 PUSH2 0x20EA JUMP JUMPDEST JUMPDEST PUSH1 0x20 ADD ADD SWAP1 PUSH31 0xFFFFFFFFFFFFFFFFFFFFFFFFFFFFFFFFFFFFFFFFFFFFFFFFFFFFFFFFFFFFFF NOT AND SWAP1 DUP2 PUSH0 BYTE SWAP1 MSTORE8 POP PUSH0 JUMPDEST PUSH1 0x5 DUP5 PUSH2 0x14EF SWAP2 SWAP1 PUSH2 0x22C4 JUMP JUMPDEST DUP2 LT ISZERO PUSH2 0x1571 JUMPI PUSH32 0x4900000000000000000000000000000000000000000000000000000000000000 DUP4 DUP4 DUP1 PUSH2 0x1523 SWAP1 PUSH2 0x2177 JUMP JUMPDEST SWAP5 POP DUP2 MLOAD DUP2 LT PUSH2 0x1536 JUMPI PUSH2 0x1535 PUSH2 0x20EA JUMP JUMPDEST JUMPDEST PUSH1 0x20 ADD ADD SWAP1 PUSH31 0xFFFFFFFFFFFFFFFFFFFFFFFFFFFFFFFFFFFFFFFFFFFFFFFFFFFFFFFFFFFFFF NOT AND SWAP1 DUP2 PUSH0 BYTE SWAP1 MSTORE8 POP DUP1 DUP1 PUSH1 0x1 ADD SWAP2 POP POP PUSH2 0x14E2 JUMP JUMPDEST POP PUSH2 0x16E8 JUMP JUMPDEST PUSH1 0x4 DUP4 SUB PUSH2 0x1660 JUMPI PUSH32 0x4900000000000000000000000000000000000000000000000000000000000000 DUP3 DUP3 DUP1 PUSH2 0x15AC SWAP1 PUSH2 0x2177 JUMP JUMPDEST SWAP4 POP DUP2 MLOAD DUP2 LT PUSH2 0x15BF JUMPI PUSH2 0x15BE PUSH2 0x20EA JUMP JUMPDEST JUMPDEST PUSH1 0x20 ADD ADD SWAP1 PUSH31 0xFFFFFFFFFFFFFFFFFFFFFFFFFFFFFFFFFFFFFFFFFFFFFFFFFFFFFFFFFFFFFF NOT AND SWAP1 DUP2 PUSH0 BYTE SWAP1 MSTORE8 POP PUSH32 0x5600000000000000000000000000000000000000000000000000000000000000 DUP3 DUP3 DUP1 PUSH2 0x161A SWAP1 PUSH2 0x2177 JUMP JUMPDEST SWAP4 POP DUP2 MLOAD DUP2 LT PUSH2 0x162D JUMPI PUSH2 0x162C PUSH2 0x20EA JUMP JUMPDEST JUMPDEST PUSH1 0x20 ADD ADD SWAP1 PUSH31 0xFFFFFFFFFFFFFFFFFFFFFFFFFFFFFFFFFFFFFFFFFFFFFFFFFFFFFFFFFFFFFF NOT AND SWAP1 DUP2 PUSH0 BYTE SWAP1 MSTORE8 POP PUSH2 0x16E7 JUMP JUMPDEST PUSH0 JUMPDEST DUP4 DUP2 LT ISZERO PUSH2 0x16E5 JUMPI PUSH32 0x4900000000000000000000000000000000000000000000000000000000000000 DUP4 DUP4 DUP1 PUSH2 0x1697 SWAP1 PUSH2 0x2177 JUMP JUMPDEST SWAP5 POP DUP2 MLOAD DUP2 LT PUSH2 0x16AA JUMPI PUSH2 0x16A9 PUSH2 0x20EA JUMP JUMPDEST JUMPDEST PUSH1 0x20 ADD ADD SWAP1 PUSH31 0xFFFFFFFFFFFFFFFFFFFFFFFFFFFFFFFFFFFFFFFFFFFFFFFFFFFFFFFFFFFFFF NOT AND SWAP1 DUP2 PUSH0 BYTE SWAP1 MSTORE8 POP DUP1 DUP1 PUSH1 0x1 ADD SWAP2 POP POP PUSH2 0x1662 JUMP JUMPDEST POP JUMPDEST JUMPDEST JUMPDEST JUMPDEST PUSH0 DUP2 PUSH8 0xFFFFFFFFFFFFFFFF DUP2 GT ISZERO PUSH2 0x1705 JUMPI PUSH2 0x1704 PUSH2 0x1C0E JUMP JUMPDEST JUMPDEST PUSH1 0x40 MLOAD SWAP1 DUP1 DUP3 MSTORE DUP1 PUSH1 0x1F ADD PUSH1 0x1F NOT AND PUSH1 0x20 ADD DUP3 ADD PUSH1 0x40 MSTORE DUP1 ISZERO PUSH2 0x1737 JUMPI DUP2 PUSH1 0x20 ADD PUSH1 0x1 DUP3 MUL DUP1 CALLDATASIZE DUP4 CALLDATACOPY DUP1 DUP3 ADD SWAP2 POP POP SWAP1 POP JUMPDEST POP SWAP1 POP PUSH0 JUMPDEST DUP3 DUP2 LT ISZERO PUSH2 0x17B0 JUMPI DUP4 DUP2 DUP2 MLOAD DUP2 LT PUSH2 0x1757 JUMPI PUSH2 0x1756 PUSH2 0x20EA JUMP JUMPDEST JUMPDEST PUSH1 0x20 ADD ADD MLOAD PUSH1 0xF8 SHR PUSH1 0xF8 SHL DUP3 DUP3 DUP2 MLOAD DUP2 LT PUSH2 0x1775 JUMPI PUSH2 0x1774 PUSH2 0x20EA JUMP JUMPDEST JUMPDEST PUSH1 0x20 ADD ADD SWAP1 PUSH31 0xFFFFFFFFFFFFFFFFFFFFFFFFFFFFFFFFFFFFFFFFFFFFFFFFFFFFFFFFFFFFFF NOT AND SWAP1 DUP2 PUSH0 BYTE SWAP1 MSTORE8 POP DUP1 DUP1 PUSH1 0x1 ADD SWAP2 POP POP PUSH2 0x173C JUMP JUMPDEST POP DUP1 SWAP8 POP POP POP POP POP POP POP POP SWAP2 SWAP1 POP JUMP JUMPDEST PUSH1 0x60 PUSH0 DUP3 SWAP1 POP PUSH0 JUMPDEST PUSH1 0x2 DUP3 MLOAD PUSH2 0x17D6 SWAP2 SWAP1 PUSH2 0x2253 JUMP JUMPDEST DUP2 LT ISZERO PUSH2 0x18D4 JUMPI DUP2 PUSH1 0x1 DUP3 DUP5 MLOAD PUSH2 0x17ED SWAP2 SWAP1 PUSH2 0x22C4 JUMP JUMPDEST PUSH2 0x17F7 SWAP2 SWAP1 PUSH2 0x22C4 JUMP JUMPDEST DUP2 MLOAD DUP2 LT PUSH2 0x1808 JUMPI PUSH2 0x1807 PUSH2 0x20EA JUMP JUMPDEST JUMPDEST PUSH1 0x20 ADD ADD MLOAD PUSH1 0xF8 SHR PUSH1 0xF8 SHL DUP3 DUP3 DUP2 MLOAD DUP2 LT PUSH2 0x1826 JUMPI PUSH2 0x1825 PUSH2 0x20EA JUMP JUMPDEST JUMPDEST PUSH1 0x20 ADD ADD MLOAD PUSH1 0xF8 SHR PUSH1 0xF8 SHL DUP4 DUP4 DUP2 MLOAD DUP2 LT PUSH2 0x1844 JUMPI PUSH2 0x1843 PUSH2 0x20EA JUMP JUMPDEST JUMPDEST PUSH1 0x20 ADD ADD DUP5 PUSH1 0x1 DUP6 DUP8 MLOAD PUSH2 0x1858 SWAP2 SWAP1 PUSH2 0x22C4 JUMP JUMPDEST PUSH2 0x1862 SWAP2 SWAP1 PUSH2 0x22C4 JUMP JUMPDEST DUP2 MLOAD DUP2 LT PUSH2 0x1873 JUMPI PUSH2 0x1872 PUSH2 0x20EA JUMP JUMPDEST JUMPDEST PUSH1 0x20 ADD ADD DUP3 PUSH31 0xFFFFFFFFFFFFFFFFFFFFFFFFFFFFFFFFFFFFFFFFFFFFFFFFFFFFFFFFFFFFFF NOT AND PUSH0 BYTE SWAP1 MSTORE8 DUP3 PUSH31 0xFFFFFFFFFFFFFFFFFFFFFFFFFFFFFFFFFFFFFFFFFFFFFFFFFFFFFFFFFFFFFF NOT AND PUSH0 BYTE SWAP1 MSTORE8 POP POP DUP1 DUP1 PUSH1 0x1 ADD SWAP2 POP POP PUSH2 0x17C8 JUMP JUMPDEST POP DUP1 SWAP2 POP POP SWAP2 SWAP1 POP JUMP JUMPDEST PUSH0 DUP1 PUSH0 SWAP1 POP PUSH0 PUSH1 0x1 DUP6 MLOAD PUSH2 0x18F2 SWAP2 SWAP1 PUSH2 0x22C4 JUMP JUMPDEST SWAP1 POP PUSH0 PUSH1 0x2 DUP3 DUP5 PUSH2 0x1903 SWAP2 SWAP1 PUSH2 0x2144 JUMP JUMPDEST PUSH2 0x190D SWAP2 SWAP1 PUSH2 0x2253 JUMP JUMPDEST SWAP1 POP JUMPDEST DUP3 DUP2 LT PUSH2 0x19A8 JUMPI DUP5 DUP7 DUP3 DUP2 MLOAD DUP2 LT PUSH2 0x192B JUMPI PUSH2 0x192A PUSH2 0x20EA JUMP JUMPDEST JUMPDEST PUSH1 0x20 MUL PUSH1 0x20 ADD ADD MLOAD SUB PUSH2 0x1943 JUMPI DUP1 SWAP4 POP POP POP POP PUSH2 0x19AF JUMP JUMPDEST DUP5 DUP7 DUP3 DUP2 MLOAD DUP2 LT PUSH2 0x1957 JUMPI PUSH2 0x1956 PUSH2 0x20EA JUMP JUMPDEST JUMPDEST PUSH1 0x20 MUL PUSH1 0x20 ADD ADD MLOAD LT ISZERO PUSH2 0x1979 JUMPI PUSH1 0x1 DUP2 PUSH2 0x1972 SWAP2 SWAP1 PUSH2 0x2144 JUMP JUMPDEST SWAP3 POP PUSH2 0x1989 JUMP JUMPDEST PUSH1 0x1 DUP2 PUSH2 0x1986 SWAP2 SWAP1 PUSH2 0x22C4 JUMP JUMPDEST SWAP2 POP JUMPDEST PUSH1 0x2 DUP3 DUP5 PUSH2 0x1997 SWAP2 SWAP1 PUSH2 0x2144 JUMP JUMPDEST PUSH2 0x19A1 SWAP2 SWAP1 PUSH2 0x2253 JUMP JUMPDEST SWAP1 POP PUSH2 0x1910 JUMP JUMPDEST POP PUSH0 SWAP3 POP POP POP JUMPDEST SWAP3 SWAP2 POP POP JUMP JUMPDEST PUSH1 0x60 PUSH0 DUP3 MLOAD DUP5 MLOAD PUSH2 0x19C6 SWAP2 SWAP1 PUSH2 0x2144 JUMP JUMPDEST PUSH8 0xFFFFFFFFFFFFFFFF DUP2 GT ISZERO PUSH2 0x19DF JUMPI PUSH2 0x19DE PUSH2 0x1C0E JUMP JUMPDEST JUMPDEST PUSH1 0x40 MLOAD SWAP1 DUP1 DUP3 MSTORE DUP1 PUSH1 0x20 MUL PUSH1 0x20 ADD DUP3 ADD PUSH1 0x40 MSTORE DUP1 ISZERO PUSH2 0x1A0D JUMPI DUP2 PUSH1 0x20 ADD PUSH1 0x20 DUP3 MUL DUP1 CALLDATASIZE DUP4 CALLDATACOPY DUP1 DUP3 ADD SWAP2 POP POP SWAP1 POP JUMPDEST POP SWAP1 POP PUSH0 DUP1 PUSH0 JUMPDEST DUP7 MLOAD DUP4 LT DUP1 ISZERO PUSH2 0x1A24 JUMPI POP DUP6 MLOAD DUP3 LT JUMPDEST ISZERO PUSH2 0x1B0E JUMPI DUP6 DUP3 DUP2 MLOAD DUP2 LT PUSH2 0x1A3C JUMPI PUSH2 0x1A3B PUSH2 0x20EA JUMP JUMPDEST JUMPDEST PUSH1 0x20 MUL PUSH1 0x20 ADD ADD MLOAD DUP8 DUP5 DUP2 MLOAD DUP2 LT PUSH2 0x1A57 JUMPI PUSH2 0x1A56 PUSH2 0x20EA JUMP JUMPDEST JUMPDEST PUSH1 0x20 MUL PUSH1 0x20 ADD ADD MLOAD LT ISZERO PUSH2 0x1AB2 JUMPI DUP7 DUP4 DUP2 MLOAD DUP2 LT PUSH2 0x1A78 JUMPI PUSH2 0x1A77 PUSH2 0x20EA JUMP JUMPDEST JUMPDEST PUSH1 0x20 MUL PUSH1 0x20 ADD ADD MLOAD DUP5 DUP3 DUP2 MLOAD DUP2 LT PUSH2 0x1A93 JUMPI PUSH2 0x1A92 PUSH2 0x20EA JUMP JUMPDEST JUMPDEST PUSH1 0x20 MUL PUSH1 0x20 ADD ADD DUP2 DUP2 MSTORE POP POP DUP3 DUP1 PUSH2 0x1AAA SWAP1 PUSH2 0x2177 JUMP JUMPDEST SWAP4 POP POP PUSH2 0x1AFB JUMP JUMPDEST DUP6 DUP3 DUP2 MLOAD DUP2 LT PUSH2 0x1AC5 JUMPI PUSH2 0x1AC4 PUSH2 0x20EA JUMP JUMPDEST JUMPDEST PUSH1 0x20 MUL PUSH1 0x20 ADD ADD MLOAD DUP5 DUP3 DUP2 MLOAD DUP2 LT PUSH2 0x1AE0 JUMPI PUSH2 0x1ADF PUSH2 0x20EA JUMP JUMPDEST JUMPDEST PUSH1 0x20 MUL PUSH1 0x20 ADD ADD DUP2 DUP2 MSTORE POP POP DUP2 DUP1 PUSH2 0x1AF7 SWAP1 PUSH2 0x2177 JUMP JUMPDEST SWAP3 POP POP JUMPDEST DUP1 DUP1 PUSH2 0x1B06 SWAP1 PUSH2 0x2177 JUMP JUMPDEST SWAP2 POP POP PUSH2 0x1A14 JUMP JUMPDEST JUMPDEST DUP7 MLOAD DUP4 LT ISZERO PUSH2 0x1B73 JUMPI DUP7 DUP4 DUP2 MLOAD DUP2 LT PUSH2 0x1B2B JUMPI PUSH2 0x1B2A PUSH2 0x20EA JUMP JUMPDEST JUMPDEST PUSH1 0x20 MUL PUSH1 0x20 ADD ADD MLOAD DUP5 DUP3 DUP2 MLOAD DUP2 LT PUSH2 0x1B46 JUMPI PUSH2 0x1B45 PUSH2 0x20EA JUMP JUMPDEST JUMPDEST PUSH1 0x20 MUL PUSH1 0x20 ADD ADD DUP2 DUP2 MSTORE POP POP DUP3 DUP1 PUSH2 0x1B5D SWAP1 PUSH2 0x2177 JUMP JUMPDEST SWAP4 POP POP DUP1 DUP1 PUSH2 0x1B6B SWAP1 PUSH2 0x2177 JUMP JUMPDEST SWAP2 POP POP PUSH2 0x1B0F JUMP JUMPDEST JUMPDEST DUP6 MLOAD DUP3 LT ISZERO PUSH2 0x1BD8 JUMPI DUP6 DUP3 DUP2 MLOAD DUP2 LT PUSH2 0x1B90 JUMPI PUSH2 0x1B8F PUSH2 0x20EA JUMP JUMPDEST JUMPDEST PUSH1 0x20 MUL PUSH1 0x20 ADD ADD MLOAD DUP5 DUP3 DUP2 MLOAD DUP2 LT PUSH2 0x1BAB JUMPI PUSH2 0x1BAA PUSH2 0x20EA JUMP JUMPDEST JUMPDEST PUSH1 0x20 MUL PUSH1 0x20 ADD ADD DUP2 DUP2 MSTORE POP POP DUP2 DUP1 PUSH2 0x1BC2 SWAP1 PUSH2 0x2177 JUMP JUMPDEST SWAP3 POP POP DUP1 DUP1 PUSH2 0x1BD0 SWAP1 PUSH2 0x2177 JUMP JUMPDEST SWAP2 POP POP PUSH2 0x1B74 JUMP JUMPDEST DUP4 SWAP5 POP POP POP POP POP SWAP3 SWAP2 POP POP JUMP JUMPDEST PUSH0 PUSH1 0x40 MLOAD SWAP1 POP SWAP1 JUMP JUMPDEST PUSH0 DUP1 REVERT JUMPDEST PUSH0 DUP1 REVERT JUMPDEST PUSH0 DUP1 REVERT JUMPDEST PUSH0 DUP1 REVERT JUMPDEST PUSH0 PUSH1 0x1F NOT PUSH1 0x1F DUP4 ADD AND SWAP1 POP SWAP2 SWAP1 POP JUMP JUMPDEST PUSH32 0x4E487B7100000000000000000000000000000000000000000000000000000000 PUSH0 MSTORE PUSH1 0x41 PUSH1 0x4 MSTORE PUSH1 0x24 PUSH0 REVERT JUMPDEST PUSH2 0x1C44 DUP3 PUSH2 0x1BFE JUMP JUMPDEST DUP2 ADD DUP2 DUP2 LT PUSH8 0xFFFFFFFFFFFFFFFF DUP3 GT OR ISZERO PUSH2 0x1C63 JUMPI PUSH2 0x1C62 PUSH2 0x1C0E JUMP JUMPDEST JUMPDEST DUP1 PUSH1 0x40 MSTORE POP POP POP JUMP JUMPDEST PUSH0 PUSH2 0x1C75 PUSH2 0x1BE5 JUMP JUMPDEST SWAP1 POP PUSH2 0x1C81 DUP3 DUP3 PUSH2 0x1C3B JUMP JUMPDEST SWAP2 SWAP1 POP JUMP JUMPDEST PUSH0 PUSH8 0xFFFFFFFFFFFFFFFF DUP3 GT ISZERO PUSH2 0x1CA0 JUMPI PUSH2 0x1C9F PUSH2 0x1C0E JUMP JUMPDEST JUMPDEST PUSH2 0x1CA9 DUP3 PUSH2 0x1BFE JUMP JUMPDEST SWAP1 POP PUSH1 0x20 DUP2 ADD SWAP1 POP SWAP2 SWAP1 POP JUMP JUMPDEST DUP3 DUP2 DUP4 CALLDATACOPY PUSH0 DUP4 DUP4 ADD MSTORE POP POP POP JUMP JUMPDEST PUSH0 PUSH2 0x1CD6 PUSH2 0x1CD1 DUP5 PUSH2 0x1C86 JUMP JUMPDEST PUSH2 0x1C6C JUMP JUMPDEST SWAP1 POP DUP3 DUP2 MSTORE PUSH1 0x20 DUP2 ADD DUP5 DUP5 DUP5 ADD GT ISZERO PUSH2 0x1CF2 JUMPI PUSH2 0x1CF1 PUSH2 0x1BFA JUMP JUMPDEST JUMPDEST PUSH2 0x1CFD DUP5 DUP3 DUP6 PUSH2 0x1CB6 JUMP JUMPDEST POP SWAP4 SWAP3 POP POP POP JUMP JUMPDEST PUSH0 DUP3 PUSH1 0x1F DUP4 ADD SLT PUSH2 0x1D19 JUMPI PUSH2 0x1D18 PUSH2 0x1BF6 JUMP JUMPDEST JUMPDEST DUP2 CALLDATALOAD PUSH2 0x1D29 DUP5 DUP3 PUSH1 0x20 DUP7 ADD PUSH2 0x1CC4 JUMP JUMPDEST SWAP2 POP POP SWAP3 SWAP2 POP POP JUMP JUMPDEST PUSH0 PUSH1 0x20 DUP3 DUP5 SUB SLT ISZERO PUSH2 0x1D47 JUMPI PUSH2 0x1D46 PUSH2 0x1BEE JUMP JUMPDEST JUMPDEST PUSH0 DUP3 ADD CALLDATALOAD PUSH8 0xFFFFFFFFFFFFFFFF DUP2 GT ISZERO PUSH2 0x1D64 JUMPI PUSH2 0x1D63 PUSH2 0x1BF2 JUMP JUMPDEST JUMPDEST PUSH2 0x1D70 DUP5 DUP3 DUP6 ADD PUSH2 0x1D05 JUMP JUMPDEST SWAP2 POP POP SWAP3 SWAP2 POP POP JUMP JUMPDEST PUSH0 DUP2 SWAP1 POP SWAP2 SWAP1 POP JUMP JUMPDEST PUSH2 0x1D8B DUP2 PUSH2 0x1D79 JUMP JUMPDEST DUP3 MSTORE POP POP JUMP JUMPDEST PUSH0 PUSH1 0x20 DUP3 ADD SWAP1 POP PUSH2 0x1DA4 PUSH0 DUP4 ADD DUP5 PUSH2 0x1D82 JUMP JUMPDEST SWAP3 SWAP2 POP POP JUMP JUMPDEST PUSH2 0x1DB3 DUP2 PUSH2 0x1D79 JUMP JUMPDEST DUP2 EQ PUSH2 0x1DBD JUMPI PUSH0 DUP1 REVERT JUMPDEST POP JUMP JUMPDEST PUSH0 DUP2 CALLDATALOAD SWAP1 POP PUSH2 0x1DCE DUP2 PUSH2 0x1DAA JUMP JUMPDEST SWAP3 SWAP2 POP POP JUMP JUMPDEST PUSH0 PUSH1 0x20 DUP3 DUP5 SUB SLT ISZERO PUSH2 0x1DE9 JUMPI PUSH2 0x1DE8 PUSH2 0x1BEE JUMP JUMPDEST JUMPDEST PUSH0 PUSH2 0x1DF6 DUP5 DUP3 DUP6 ADD PUSH2 0x1DC0 JUMP JUMPDEST SWAP2 POP POP SWAP3 SWAP2 POP POP JUMP JUMPDEST PUSH0 DUP2 MLOAD SWAP1 POP SWAP2 SWAP1 POP JUMP JUMPDEST PUSH0 DUP3 DUP3 MSTORE PUSH1 0x20 DUP3 ADD SWAP1 POP SWAP3 SWAP2 POP POP JUMP JUMPDEST DUP3 DUP2 DUP4 MCOPY PUSH0 DUP4 DUP4 ADD MSTORE POP POP POP JUMP JUMPDEST PUSH0 PUSH2 0x1E31 DUP3 PUSH2 0x1DFF JUMP JUMPDEST PUSH2 0x1E3B DUP2 DUP6 PUSH2 0x1E09 JUMP JUMPDEST SWAP4 POP PUSH2 0x1E4B DUP2 DUP6 PUSH1 0x20 DUP7 ADD PUSH2 0x1E19 JUMP JUMPDEST PUSH2 0x1E54 DUP2 PUSH2 0x1BFE JUMP JUMPDEST DUP5 ADD SWAP2 POP POP SWAP3 SWAP2 POP POP JUMP JUMPDEST PUSH0 PUSH1 0x20 DUP3 ADD SWAP1 POP DUP2 DUP2 SUB PUSH0 DUP4 ADD MSTORE PUSH2 0x1E77 DUP2 DUP5 PUSH2 0x1E27 JUMP JUMPDEST SWAP1 POP SWAP3 SWAP2 POP POP JUMP JUMPDEST PUSH0 PUSH8 0xFFFFFFFFFFFFFFFF DUP3 GT ISZERO PUSH2 0x1E99 JUMPI PUSH2 0x1E98 PUSH2 0x1C0E JUMP JUMPDEST JUMPDEST PUSH1 0x20 DUP3 MUL SWAP1 POP PUSH1 0x20 DUP2 ADD SWAP1 POP SWAP2 SWAP1 POP JUMP JUMPDEST PUSH0 DUP1 REVERT JUMPDEST PUSH0 PUSH2 0x1EC0 PUSH2 0x1EBB DUP5 PUSH2 0x1E7F JUMP JUMPDEST PUSH2 0x1C6C JUMP JUMPDEST SWAP1 POP DUP1 DUP4 DUP3 MSTORE PUSH1 0x20 DUP3 ADD SWAP1 POP PUSH1 0x20 DUP5 MUL DUP4 ADD DUP6 DUP2 GT ISZERO PUSH2 0x1EE3 JUMPI PUSH2 0x1EE2 PUSH2 0x1EAA JUMP JUMPDEST JUMPDEST DUP4 JUMPDEST DUP2 DUP2 LT ISZERO PUSH2 0x1F0C JUMPI DUP1 PUSH2 0x1EF8 DUP9 DUP3 PUSH2 0x1DC0 JUMP JUMPDEST DUP5 MSTORE PUSH1 0x20 DUP5 ADD SWAP4 POP POP PUSH1 0x20 DUP2 ADD SWAP1 POP PUSH2 0x1EE5 JUMP JUMPDEST POP POP POP SWAP4 SWAP3 POP POP POP JUMP JUMPDEST PUSH0 DUP3 PUSH1 0x1F DUP4 ADD SLT PUSH2 0x1F2A JUMPI PUSH2 0x1F29 PUSH2 0x1BF6 JUMP JUMPDEST JUMPDEST DUP2 CALLDATALOAD PUSH2 0x1F3A DUP5 DUP3 PUSH1 0x20 DUP7 ADD PUSH2 0x1EAE JUMP JUMPDEST SWAP2 POP POP SWAP3 SWAP2 POP POP JUMP JUMPDEST PUSH0 DUP1 PUSH1 0x40 DUP4 DUP6 SUB SLT ISZERO PUSH2 0x1F59 JUMPI PUSH2 0x1F58 PUSH2 0x1BEE JUMP JUMPDEST JUMPDEST PUSH0 DUP4 ADD CALLDATALOAD PUSH8 0xFFFFFFFFFFFFFFFF DUP2 GT ISZERO PUSH2 0x1F76 JUMPI PUSH2 0x1F75 PUSH2 0x1BF2 JUMP JUMPDEST JUMPDEST PUSH2 0x1F82 DUP6 DUP3 DUP7 ADD PUSH2 0x1F16 JUMP JUMPDEST SWAP3 POP POP PUSH1 0x20 PUSH2 0x1F93 DUP6 DUP3 DUP7 ADD PUSH2 0x1DC0 JUMP JUMPDEST SWAP2 POP POP SWAP3 POP SWAP3 SWAP1 POP JUMP JUMPDEST PUSH0 DUP1 PUSH1 0x40 DUP4 DUP6 SUB SLT ISZERO PUSH2 0x1FB3 JUMPI PUSH2 0x1FB2 PUSH2 0x1BEE JUMP JUMPDEST JUMPDEST PUSH0 DUP4 ADD CALLDATALOAD PUSH8 0xFFFFFFFFFFFFFFFF DUP2 GT ISZERO PUSH2 0x1FD0 JUMPI PUSH2 0x1FCF PUSH2 0x1BF2 JUMP JUMPDEST JUMPDEST PUSH2 0x1FDC DUP6 DUP3 DUP7 ADD PUSH2 0x1F16 JUMP JUMPDEST SWAP3 POP POP PUSH1 0x20 DUP4 ADD CALLDATALOAD PUSH8 0xFFFFFFFFFFFFFFFF DUP2 GT ISZERO PUSH2 0x1FFD JUMPI PUSH2 0x1FFC PUSH2 0x1BF2 JUMP JUMPDEST JUMPDEST PUSH2 0x2009 DUP6 DUP3 DUP7 ADD PUSH2 0x1F16 JUMP JUMPDEST SWAP2 POP POP SWAP3 POP SWAP3 SWAP1 POP JUMP JUMPDEST PUSH0 DUP2 MLOAD SWAP1 POP SWAP2 SWAP1 POP JUMP JUMPDEST PUSH0 DUP3 DUP3 MSTORE PUSH1 0x20 DUP3 ADD SWAP1 POP SWAP3 SWAP2 POP POP JUMP JUMPDEST PUSH0 DUP2 SWAP1 POP PUSH1 0x20 DUP3 ADD SWAP1 POP SWAP2 SWAP1 POP JUMP JUMPDEST PUSH2 0x2045 DUP2 PUSH2 0x1D79 JUMP JUMPDEST DUP3 MSTORE POP POP JUMP JUMPDEST PUSH0 PUSH2 0x2056 DUP4 DUP4 PUSH2 0x203C JUMP JUMPDEST PUSH1 0x20 DUP4 ADD SWAP1 POP SWAP3 SWAP2 POP POP JUMP JUMPDEST PUSH0 PUSH1 0x20 DUP3 ADD SWAP1 POP SWAP2 SWAP1 POP JUMP JUMPDEST PUSH0 PUSH2 0x2078 DUP3 PUSH2 0x2013 JUMP JUMPDEST PUSH2 0x2082 DUP2 DUP6 PUSH2 0x201D JUMP JUMPDEST SWAP4 POP PUSH2 0x208D DUP4 PUSH2 0x202D JUMP JUMPDEST DUP1 PUSH0 JUMPDEST DUP4 DUP2 LT ISZERO PUSH2 0x20BD JUMPI DUP2 MLOAD PUSH2 0x20A4 DUP9 DUP3 PUSH2 0x204B JUMP JUMPDEST SWAP8 POP PUSH2 0x20AF DUP4 PUSH2 0x2062 JUMP JUMPDEST SWAP3 POP POP PUSH1 0x1 DUP2 ADD SWAP1 POP PUSH2 0x2090 JUMP JUMPDEST POP DUP6 SWAP4 POP POP POP POP SWAP3 SWAP2 POP POP JUMP JUMPDEST PUSH0 PUSH1 0x20 DUP3 ADD SWAP1 POP DUP2 DUP2 SUB PUSH0 DUP4 ADD MSTORE PUSH2 0x20E2 DUP2 DUP5 PUSH2 0x206E JUMP JUMPDEST SWAP1 POP SWAP3 SWAP2 POP POP JUMP JUMPDEST PUSH32 0x4E487B7100000000000000000000000000000000000000000000000000000000 PUSH0 MSTORE PUSH1 0x32 PUSH1 0x4 MSTORE PUSH1 0x24 PUSH0 REVERT JUMPDEST PUSH32 0x4E487B7100000000000000000000000000000000000000000000000000000000 PUSH0 MSTORE PUSH1 0x11 PUSH1 0x4 MSTORE PUSH1 0x24 PUSH0 REVERT JUMPDEST PUSH0 PUSH2 0x214E DUP3 PUSH2 0x1D79 JUMP JUMPDEST SWAP2 POP PUSH2 0x2159 DUP4 PUSH2 0x1D79 JUMP JUMPDEST SWAP3 POP DUP3 DUP3 ADD SWAP1 POP DUP1 DUP3 GT ISZERO PUSH2 0x2171 JUMPI PUSH2 0x2170 PUSH2 0x2117 JUMP JUMPDEST JUMPDEST SWAP3 SWAP2 POP POP JUMP JUMPDEST PUSH0 PUSH2 0x2181 DUP3 PUSH2 0x1D79 JUMP JUMPDEST SWAP2 POP PUSH32 0xFFFFFFFFFFFFFFFFFFFFFFFFFFFFFFFFFFFFFFFFFFFFFFFFFFFFFFFFFFFFFFFF DUP3 SUB PUSH2 0x21B3 JUMPI PUSH2 0x21B2 PUSH2 0x2117 JUMP JUMPDEST JUMPDEST PUSH1 0x1 DUP3 ADD SWAP1 POP SWAP2 SWAP1 POP JUMP JUMPDEST PUSH32 0x496E76616C696420696E70757400000000000000000000000000000000000000 PUSH0 DUP3 ADD MSTORE POP JUMP JUMPDEST PUSH0 PUSH2 0x21F2 PUSH1 0xD DUP4 PUSH2 0x1E09 JUMP JUMPDEST SWAP2 POP PUSH2 0x21FD DUP3 PUSH2 0x21BE JUMP JUMPDEST PUSH1 0x20 DUP3 ADD SWAP1 POP SWAP2 SWAP1 POP JUMP JUMPDEST PUSH0 PUSH1 0x20 DUP3 ADD SWAP1 POP DUP2 DUP2 SUB PUSH0 DUP4 ADD MSTORE PUSH2 0x221F DUP2 PUSH2 0x21E6 JUMP JUMPDEST SWAP1 POP SWAP2 SWAP1 POP JUMP JUMPDEST PUSH32 0x4E487B7100000000000000000000000000000000000000000000000000000000 PUSH0 MSTORE PUSH1 0x12 PUSH1 0x4 MSTORE PUSH1 0x24 PUSH0 REVERT JUMPDEST PUSH0 PUSH2 0x225D DUP3 PUSH2 0x1D79 JUMP JUMPDEST SWAP2 POP PUSH2 0x2268 DUP4 PUSH2 0x1D79 JUMP JUMPDEST SWAP3 POP DUP3 PUSH2 0x2278 JUMPI PUSH2 0x2277 PUSH2 0x2226 JUMP JUMPDEST JUMPDEST DUP3 DUP3 DIV SWAP1 POP SWAP3 SWAP2 POP POP JUMP JUMPDEST PUSH0 PUSH2 0x228D DUP3 PUSH2 0x1D79 JUMP JUMPDEST SWAP2 POP PUSH2 0x2298 DUP4 PUSH2 0x1D79 JUMP JUMPDEST SWAP3 POP DUP3 DUP3 MUL PUSH2 0x22A6 DUP2 PUSH2 0x1D79 JUMP JUMPDEST SWAP2 POP DUP3 DUP3 DIV DUP5 EQ DUP4 ISZERO OR PUSH2 0x22BD JUMPI PUSH2 0x22BC PUSH2 0x2117 JUMP JUMPDEST JUMPDEST POP SWAP3 SWAP2 POP POP JUMP JUMPDEST PUSH0 PUSH2 0x22CE DUP3 PUSH2 0x1D79 JUMP JUMPDEST SWAP2 POP PUSH2 0x22D9 DUP4 PUSH2 0x1D79 JUMP JUMPDEST SWAP3 POP DUP3 DUP3 SUB SWAP1 POP DUP2 DUP2 GT ISZERO PUSH2 0x22F1 JUMPI PUSH2 0x22F0 PUSH2 0x2117 JUMP JUMPDEST JUMPDEST SWAP3 SWAP2 POP POP JUMP INVALID LOG2 PUSH5 0x6970667358 0x22 SLT KECCAK256 0x27 0xD SHR STOP 0xD2 SWAP8 PREVRANDAO 0xEF PUSH22 0x904FF9AEDACC777B2BA4E4179B26A2ADB8B75FCB18D7 0xDD PUSH5 0x736F6C6343 STOP ADDMOD BYTE STOP CALLER "
				},
				"gasEstimates": {
					"creation": {
						"codeDepositCost": "1801000",
						"executionCost": "1896",
						"totalCost": "1802896"
					},
					"external": {
						"BinarySearch(uint256[],uint256)": "infinite",
						"IntToRoma(uint256)": "infinite",
						"MergeArr(uint256[],uint256[])": "infinite",
						"RomaToInt(string)": "infinite",
						"reverseString(string)": "infinite"
					}
				},
				"methodIdentifiers": {
					"BinarySearch(uint256[],uint256)": "e35d0f99",
					"IntToRoma(uint256)": "55d278e0",
					"MergeArr(uint256[],uint256[])": "feb465d9",
					"RomaToInt(string)": "3407abd0",
					"reverseString(string)": "5729c211"
				}
			},
			"storageLayout": {
				"storage": [],
				"types": null
			},
			"userdoc": {
				"kind": "user",
				"methods": {},
				"version": 1
			}
		}
	}
}