{
	"solidity/homework/inherittest.sol": {
		"ElectricCar": {
			"abi": [
				{
					"inputs": [],
					"stateMutability": "nonpayable",
					"type": "constructor"
				},
				{
					"inputs": [],
					"name": "drive",
					"outputs": [
						{
							"internalType": "uint256",
							"name": "",
							"type": "uint256"
						},
						{
							"internalType": "uint256",
							"name": "",
							"type": "uint256"
						}
					],
					"stateMutability": "view",
					"type": "function"
				}
			],
			"devdoc": {
				"kind": "dev",
				"methods": {},
				"version": 1
			},
			"evm": {
				"assembly": "    /* \"solidity/homework/inherittest.sol\":216:445  contract ElectricCar is Car{... */\n  mstore(0x40, 0x80)\n    /* \"solidity/homework/inherittest.sol\":273:329  constructor() Car(10) {... */\n  callvalue\n  dup1\n  iszero\n  tag_1\n  jumpi\n  0x00\n  dup1\n  revert\ntag_1:\n  pop\n    /* \"solidity/homework/inherittest.sol\":291:293  10 */\n  0x0a\n    /* \"solidity/homework/inherittest.sol\":137:143  _speed */\n  dup1\n    /* \"solidity/homework/inherittest.sol\":129:134  speed */\n  0x00\n    /* \"solidity/homework/inherittest.sol\":129:143  speed = _speed */\n  dup2\n  swap1\n  sstore\n  pop\n    /* \"solidity/homework/inherittest.sol\":94:151  constructor(uint _speed){... */\n  pop\n    /* \"solidity/homework/inherittest.sol\":320:321  2 */\n  0x02\n    /* \"solidity/homework/inherittest.sol\":306:317  batterLevel */\n  0x01\n    /* \"solidity/homework/inherittest.sol\":306:321  batterLevel = 2 */\n  dup2\n  swap1\n  sstore\n  pop\n    /* \"solidity/homework/inherittest.sol\":216:445  contract ElectricCar is Car{... */\n  dataSize(sub_0)\n  dup1\n  dataOffset(sub_0)\n  0x00\n  codecopy\n  0x00\n  return\nstop\n\nsub_0: assembly {\n        /* \"solidity/homework/inherittest.sol\":216:445  contract ElectricCar is Car{... */\n      mstore(0x40, 0x80)\n      callvalue\n      dup1\n      iszero\n      tag_1\n      jumpi\n      0x00\n      dup1\n      revert\n    tag_1:\n      pop\n      jumpi(tag_2, lt(calldatasize, 0x04))\n      shr(0xe0, calldataload(0x00))\n      dup1\n      0xa54580f2\n      eq\n      tag_3\n      jumpi\n    tag_2:\n      0x00\n      dup1\n      revert\n        /* \"solidity/homework/inherittest.sol\":335:442  function drive() public view override returns(uint, uint){... */\n    tag_3:\n      tag_4\n      tag_5\n      jump\t// in\n    tag_4:\n      mload(0x40)\n      tag_6\n      swap3\n      swap2\n      swap1\n      tag_7\n      jump\t// in\n    tag_6:\n      mload(0x40)\n      dup1\n      swap2\n      sub\n      swap1\n      return\n    tag_5:\n        /* \"solidity/homework/inherittest.sol\":381:385  uint */\n      0x00\n        /* \"solidity/homework/inherittest.sol\":387:391  uint */\n      dup1\n        /* \"solidity/homework/inherittest.sol\":411:422  batterLevel */\n      sload(0x01)\n        /* \"solidity/homework/inherittest.sol\":424:433  Car.speed */\n      sload(0x00)\n        /* \"solidity/homework/inherittest.sol\":403:434  return (batterLevel, Car.speed) */\n      swap2\n      pop\n      swap2\n      pop\n        /* \"solidity/homework/inherittest.sol\":335:442  function drive() public view override returns(uint, uint){... */\n      swap1\n      swap2\n      jump\t// out\n        /* \"#utility.yul\":7:84   */\n    tag_9:\n        /* \"#utility.yul\":44:51   */\n      0x00\n        /* \"#utility.yul\":73:78   */\n      dup2\n        /* \"#utility.yul\":62:78   */\n      swap1\n      pop\n        /* \"#utility.yul\":7:84   */\n      swap2\n      swap1\n      pop\n      jump\t// out\n        /* \"#utility.yul\":90:208   */\n    tag_10:\n        /* \"#utility.yul\":177:201   */\n      tag_14\n        /* \"#utility.yul\":195:200   */\n      dup2\n        /* \"#utility.yul\":177:201   */\n      tag_9\n      jump\t// in\n    tag_14:\n        /* \"#utility.yul\":172:175   */\n      dup3\n        /* \"#utility.yul\":165:202   */\n      mstore\n        /* \"#utility.yul\":90:208   */\n      pop\n      pop\n      jump\t// out\n        /* \"#utility.yul\":214:546   */\n    tag_7:\n        /* \"#utility.yul\":335:339   */\n      0x00\n        /* \"#utility.yul\":373:375   */\n      0x40\n        /* \"#utility.yul\":362:371   */\n      dup3\n        /* \"#utility.yul\":358:376   */\n      add\n        /* \"#utility.yul\":350:376   */\n      swap1\n      pop\n        /* \"#utility.yul\":386:457   */\n      tag_16\n        /* \"#utility.yul\":454:455   */\n      0x00\n        /* \"#utility.yul\":443:452   */\n      dup4\n        /* \"#utility.yul\":439:456   */\n      add\n        /* \"#utility.yul\":430:436   */\n      dup6\n        /* \"#utility.yul\":386:457   */\n      tag_10\n      jump\t// in\n    tag_16:\n        /* \"#utility.yul\":467:539   */\n      tag_17\n        /* \"#utility.yul\":535:537   */\n      0x20\n        /* \"#utility.yul\":524:533   */\n      dup4\n        /* \"#utility.yul\":520:538   */\n      add\n        /* \"#utility.yul\":511:517   */\n      dup5\n        /* \"#utility.yul\":467:539   */\n      tag_10\n      jump\t// in\n    tag_17:\n        /* \"#utility.yul\":214:546   */\n      swap4\n      swap3\n      pop\n      pop\n      pop\n      jump\t// out\n\n    auxdata: 0xa2646970667358221220d3ab0c36a0e14284440a2390618c031fff31aab4d2e0a16b840c8af349b7e97264736f6c634300081a0033\n}\n",
				"bytecode": {
					"linkReferences": {},
					"object": "6080604052348015600e575f80fd5b50600a805f8190555050600260018190555060c380602b5f395ff3fe6080604052348015600e575f80fd5b50600436106026575f3560e01c8063a54580f214602a575b5f80fd5b60306045565b604051603c929190606a565b60405180910390f35b5f806001545f54915091509091565b5f819050919050565b6064816054565b82525050565b5f604082019050607b5f830185605d565b60866020830184605d565b939250505056fea2646970667358221220d3ab0c36a0e14284440a2390618c031fff31aab4d2e0a16b840c8af349b7e97264736f6c634300081a0033",
					"opcodes": "PUSH1 0x80 PUSH1 0x40 MSTORE CALLVALUE DUP1 ISZERO PUSH1 0xE JUMPI PUSH0 DUP1 REVERT JUMPDEST POP PUSH1 0xA DUP1 PUSH0 DUP2 SWAP1 SSTORE POP POP PUSH1 0x2 PUSH1 0x1 DUP2 SWAP1 SSTORE POP PUSH1 0xC3 DUP1 PUSH1 0x2B PUSH0 CODECOPY PUSH0 RETURN INVALID PUSH1 0x80 PUSH1 0x40 MSTORE CALLVALUE DUP1 ISZERO PUSH1 0xE JUMPI PUSH0 DUP1 REVERT JUMPDEST POP PUSH1 0x4 CALLDATASIZE LT PUSH1 0x26 JUMPI PUSH0 CALLDATALOAD PUSH1 0xE0 SHR DUP1 PUSH4 0xA54580F2 EQ PUSH1 0x2A JUMPI JUMPDEST PUSH0 DUP1 REVERT JUMPDEST PUSH1 0x30 PUSH1 0x45 JUMP JUMPDEST PUSH1 0x40 MLOAD PUSH1 0x3C SWAP3 SWAP2 SWAP1 PUSH1 0x6A JUMP JUMPDEST PUSH1 0x40 MLOAD DUP1 SWAP2 SUB SWAP1 RETURN JUMPDEST PUSH0 DUP1 PUSH1 0x1 SLOAD PUSH0 SLOAD SWAP2 POP SWAP2 POP SWAP1 SWAP2 JUMP JUMPDEST PUSH0 DUP2 SWAP1 POP SWAP2 SWAP1 POP JUMP JUMPDEST PUSH1 0x64 DUP2 PUSH1 0x54 JUMP JUMPDEST DUP3 MSTORE POP POP JUMP JUMPDEST PUSH0 PUSH1 0x40 DUP3 ADD SWAP1 POP PUSH1 0x7B PUSH0 DUP4 ADD DUP6 PUSH1 0x5D JUMP JUMPDEST PUSH1 0x86 PUSH1 0x20 DUP4 ADD DUP5 PUSH1 0x5D JUMP JUMPDEST SWAP4 SWAP3 POP POP POP JUMP INVALID LOG2 PUSH5 0x6970667358 0x22 SLT KECCAK256 0xD3 0xAB 0xC CALLDATASIZE LOG0 0xE1 TIMESTAMP DUP5 PREVRANDAO EXP 0x23 SWAP1 PUSH2 0x8C03 0x1F SELFDESTRUCT BALANCE 0xAA 0xB4 0xD2 0xE0 LOG1 PUSH12 0x840C8AF349B7E97264736F6C PUSH4 0x4300081A STOP CALLER "
				},
				"gasEstimates": {
					"creation": {
						"codeDepositCost": "39000",
						"executionCost": "44323",
						"totalCost": "83323"
					},
					"external": {
						"drive()": "infinite"
					}
				},
				"methodIdentifiers": {
					"drive()": "a54580f2"
				}
			},
			"storageLayout": {
				"storage": [
					{
						"astId": 3,
						"contract": "solidity/homework/inherittest.sol:ElectricCar",
						"label": "speed",
						"offset": 0,
						"slot": "0",
						"type": "t_uint256"
					},
					{
						"astId": 26,
						"contract": "solidity/homework/inherittest.sol:ElectricCar",
						"label": "batterLevel",
						"offset": 0,
						"slot": "1",
						"type": "t_uint256"
					}
				],
				"types": {
					"t_uint256": {
						"encoding": "inplace",
						"label": "uint256",
						"numberOfBytes": "32"
					}
				}
			},
			"userdoc": {
				"kind": "user",
				"methods": {},
				"version": 1
			}
		}
	}
}