{
	"solidity/soliditybase/encode.sol": {
		"CallWithSelector": {
			"abi": [
				{
					"inputs": [
						{
							"internalType": "address",
							"name": "contractAddress",
							"type": "address"
						},
						{
							"internalType": "bytes4",
							"name": "selector",
							"type": "bytes4"
						}
					],
					"name": "callIt",
					"outputs": [
						{
							"internalType": "uint256",
							"name": "result",
							"type": "uint256"
						}
					],
					"stateMutability": "view",
					"type": "function"
				}
			],
			"devdoc": {
				"kind": "dev",
				"methods": {},
				"version": 1
			},
			"evm": {
				"assembly": "    /* \"solidity/soliditybase/encode.sol\":58:437  contract CallWithSelector{... */\n  mstore(0x40, 0x80)\n  callvalue\n  dup1\n  iszero\n  tag_1\n  jumpi\n  0x00\n  dup1\n  revert\ntag_1:\n  pop\n  dataSize(sub_0)\n  dup1\n  dataOffset(sub_0)\n  0x00\n  codecopy\n  0x00\n  return\nstop\n\nsub_0: assembly {\n        /* \"solidity/soliditybase/encode.sol\":58:437  contract CallWithSelector{... */\n      mstore(0x40, 0x80)\n      callvalue\n      dup1\n      iszero\n      tag_1\n      jumpi\n      0x00\n      dup1\n      revert\n    tag_1:\n      pop\n      jumpi(tag_2, lt(calldatasize, 0x04))\n      shr(0xe0, calldataload(0x00))\n      dup1\n      0x94570ce3\n      eq\n      tag_3\n      jumpi\n    tag_2:\n      0x00\n      dup1\n      revert\n        /* \"solidity/soliditybase/encode.sol\":90:434  function callIt(address contractAddress, bytes4 selector) public view returns(uint256 result){... */\n    tag_3:\n      tag_4\n      0x04\n      dup1\n      calldatasize\n      sub\n      dup2\n      add\n      swap1\n      tag_5\n      swap2\n      swap1\n      tag_6\n      jump\t// in\n    tag_5:\n      tag_7\n      jump\t// in\n    tag_4:\n      mload(0x40)\n      tag_8\n      swap2\n      swap1\n      tag_9\n      jump\t// in\n    tag_8:\n      mload(0x40)\n      dup1\n      swap2\n      sub\n      swap1\n      return\n    tag_7:\n        /* \"solidity/soliditybase/encode.sol\":168:182  uint256 result */\n      0x00\n        /* \"solidity/soliditybase/encode.sol\":194:211  bytes memory data */\n      dup1\n        /* \"solidity/soliditybase/encode.sol\":237:245  selector */\n      dup3\n        /* \"solidity/soliditybase/encode.sol\":214:246  abi.encodeWithSelector(selector) */\n      add(0x24, mload(0x40))\n      mload(0x40)\n      0x20\n      dup2\n      dup4\n      sub\n      sub\n      dup2\n      mstore\n      swap1\n      0x40\n      mstore\n      swap1\n      not(0xffffffffffffffffffffffffffffffffffffffffffffffffffffffff)\n      and\n      0x20\n      dup3\n      add\n      dup1\n      mload\n      0xffffffffffffffffffffffffffffffffffffffffffffffffffffffff\n      dup4\n      dup2\n      dup4\n      and\n      or\n      dup4\n      mstore\n      pop\n      pop\n      pop\n      pop\n        /* \"solidity/soliditybase/encode.sol\":194:246  bytes memory data = abi.encodeWithSelector(selector) */\n      swap1\n      pop\n        /* \"solidity/soliditybase/encode.sol\":260:272  bool success */\n      0x00\n        /* \"solidity/soliditybase/encode.sol\":274:299  bytes memory returnedData */\n      dup1\n        /* \"solidity/soliditybase/encode.sol\":311:326  contractAddress */\n      dup6\n        /* \"solidity/soliditybase/encode.sol\":303:338  address(contractAddress).staticcall */\n      0xffffffffffffffffffffffffffffffffffffffff\n      and\n        /* \"solidity/soliditybase/encode.sol\":339:343  data */\n      dup4\n        /* \"solidity/soliditybase/encode.sol\":303:344  address(contractAddress).staticcall(data) */\n      mload(0x40)\n      tag_11\n      swap2\n      swap1\n      tag_12\n      jump\t// in\n    tag_11:\n      0x00\n      mload(0x40)\n      dup1\n      dup4\n      sub\n      dup2\n      dup6\n      gas\n      staticcall\n      swap2\n      pop\n      pop\n      returndatasize\n      dup1\n      0x00\n      dup2\n      eq\n      tag_15\n      jumpi\n      mload(0x40)\n      swap2\n      pop\n      and(add(returndatasize, 0x3f), not(0x1f))\n      dup3\n      add\n      0x40\n      mstore\n      returndatasize\n      dup3\n      mstore\n      returndatasize\n      0x00\n      0x20\n      dup5\n      add\n      returndatacopy\n      jump(tag_14)\n    tag_15:\n      0x60\n      swap2\n      pop\n    tag_14:\n      pop\n        /* \"solidity/soliditybase/encode.sol\":259:344  (bool success, bytes memory returnedData) = address(contractAddress).staticcall(data) */\n      swap2\n      pop\n      swap2\n      pop\n        /* \"solidity/soliditybase/encode.sol\":363:370  success */\n      dup2\n        /* \"solidity/soliditybase/encode.sol\":355:371  require(success) */\n      tag_16\n      jumpi\n      0x00\n      dup1\n      revert\n    tag_16:\n        /* \"solidity/soliditybase/encode.sol\":402:414  returnedData */\n      dup1\n        /* \"solidity/soliditybase/encode.sol\":391:426  abi.decode(returnedData, (uint256)) */\n      dup1\n      0x20\n      add\n      swap1\n      mload\n      dup2\n      add\n      swap1\n      tag_17\n      swap2\n      swap1\n      tag_18\n      jump\t// in\n    tag_17:\n        /* \"solidity/soliditybase/encode.sol\":384:426  return abi.decode(returnedData, (uint256)) */\n      swap4\n      pop\n      pop\n      pop\n      pop\n        /* \"solidity/soliditybase/encode.sol\":90:434  function callIt(address contractAddress, bytes4 selector) public view returns(uint256 result){... */\n      swap3\n      swap2\n      pop\n      pop\n      jump\t// out\n        /* \"#utility.yul\":88:205   */\n    tag_20:\n        /* \"#utility.yul\":197:198   */\n      0x00\n        /* \"#utility.yul\":194:195   */\n      dup1\n        /* \"#utility.yul\":187:199   */\n      revert\n        /* \"#utility.yul\":334:460   */\n    tag_22:\n        /* \"#utility.yul\":371:378   */\n      0x00\n        /* \"#utility.yul\":411:453   */\n      0xffffffffffffffffffffffffffffffffffffffff\n        /* \"#utility.yul\":404:409   */\n      dup3\n        /* \"#utility.yul\":400:454   */\n      and\n        /* \"#utility.yul\":389:454   */\n      swap1\n      pop\n        /* \"#utility.yul\":334:460   */\n      swap2\n      swap1\n      pop\n      jump\t// out\n        /* \"#utility.yul\":466:562   */\n    tag_23:\n        /* \"#utility.yul\":503:510   */\n      0x00\n        /* \"#utility.yul\":532:556   */\n      tag_43\n        /* \"#utility.yul\":550:555   */\n      dup3\n        /* \"#utility.yul\":532:556   */\n      tag_22\n      jump\t// in\n    tag_43:\n        /* \"#utility.yul\":521:556   */\n      swap1\n      pop\n        /* \"#utility.yul\":466:562   */\n      swap2\n      swap1\n      pop\n      jump\t// out\n        /* \"#utility.yul\":568:690   */\n    tag_24:\n        /* \"#utility.yul\":641:665   */\n      tag_45\n        /* \"#utility.yul\":659:664   */\n      dup2\n        /* \"#utility.yul\":641:665   */\n      tag_23\n      jump\t// in\n    tag_45:\n        /* \"#utility.yul\":634:639   */\n      dup2\n        /* \"#utility.yul\":631:666   */\n      eq\n        /* \"#utility.yul\":621:684   */\n      tag_46\n      jumpi\n        /* \"#utility.yul\":680:681   */\n      0x00\n        /* \"#utility.yul\":677:678   */\n      dup1\n        /* \"#utility.yul\":670:682   */\n      revert\n        /* \"#utility.yul\":621:684   */\n    tag_46:\n        /* \"#utility.yul\":568:690   */\n      pop\n      jump\t// out\n        /* \"#utility.yul\":696:835   */\n    tag_25:\n        /* \"#utility.yul\":742:747   */\n      0x00\n        /* \"#utility.yul\":780:786   */\n      dup2\n        /* \"#utility.yul\":767:787   */\n      calldataload\n        /* \"#utility.yul\":758:787   */\n      swap1\n      pop\n        /* \"#utility.yul\":796:829   */\n      tag_48\n        /* \"#utility.yul\":823:828   */\n      dup2\n        /* \"#utility.yul\":796:829   */\n      tag_24\n      jump\t// in\n    tag_48:\n        /* \"#utility.yul\":696:835   */\n      swap3\n      swap2\n      pop\n      pop\n      jump\t// out\n        /* \"#utility.yul\":841:990   */\n    tag_26:\n        /* \"#utility.yul\":877:884   */\n      0x00\n        /* \"#utility.yul\":917:983   */\n      0xffffffff00000000000000000000000000000000000000000000000000000000\n        /* \"#utility.yul\":910:915   */\n      dup3\n        /* \"#utility.yul\":906:984   */\n      and\n        /* \"#utility.yul\":895:984   */\n      swap1\n      pop\n        /* \"#utility.yul\":841:990   */\n      swap2\n      swap1\n      pop\n      jump\t// out\n        /* \"#utility.yul\":996:1116   */\n    tag_27:\n        /* \"#utility.yul\":1068:1091   */\n      tag_51\n        /* \"#utility.yul\":1085:1090   */\n      dup2\n        /* \"#utility.yul\":1068:1091   */\n      tag_26\n      jump\t// in\n    tag_51:\n        /* \"#utility.yul\":1061:1066   */\n      dup2\n        /* \"#utility.yul\":1058:1092   */\n      eq\n        /* \"#utility.yul\":1048:1110   */\n      tag_52\n      jumpi\n        /* \"#utility.yul\":1106:1107   */\n      0x00\n        /* \"#utility.yul\":1103:1104   */\n      dup1\n        /* \"#utility.yul\":1096:1108   */\n      revert\n        /* \"#utility.yul\":1048:1110   */\n    tag_52:\n        /* \"#utility.yul\":996:1116   */\n      pop\n      jump\t// out\n        /* \"#utility.yul\":1122:1259   */\n    tag_28:\n        /* \"#utility.yul\":1167:1172   */\n      0x00\n        /* \"#utility.yul\":1205:1211   */\n      dup2\n        /* \"#utility.yul\":1192:1212   */\n      calldataload\n        /* \"#utility.yul\":1183:1212   */\n      swap1\n      pop\n        /* \"#utility.yul\":1221:1253   */\n      tag_54\n        /* \"#utility.yul\":1247:1252   */\n      dup2\n        /* \"#utility.yul\":1221:1253   */\n      tag_27\n      jump\t// in\n    tag_54:\n        /* \"#utility.yul\":1122:1259   */\n      swap3\n      swap2\n      pop\n      pop\n      jump\t// out\n        /* \"#utility.yul\":1265:1737   */\n    tag_6:\n        /* \"#utility.yul\":1332:1338   */\n      0x00\n        /* \"#utility.yul\":1340:1346   */\n      dup1\n        /* \"#utility.yul\":1389:1391   */\n      0x40\n        /* \"#utility.yul\":1377:1386   */\n      dup4\n        /* \"#utility.yul\":1368:1375   */\n      dup6\n        /* \"#utility.yul\":1364:1387   */\n      sub\n        /* \"#utility.yul\":1360:1392   */\n      slt\n        /* \"#utility.yul\":1357:1476   */\n      iszero\n      tag_56\n      jumpi\n        /* \"#utility.yul\":1395:1474   */\n      tag_57\n      tag_20\n      jump\t// in\n    tag_57:\n        /* \"#utility.yul\":1357:1476   */\n    tag_56:\n        /* \"#utility.yul\":1515:1516   */\n      0x00\n        /* \"#utility.yul\":1540:1593   */\n      tag_58\n        /* \"#utility.yul\":1585:1592   */\n      dup6\n        /* \"#utility.yul\":1576:1582   */\n      dup3\n        /* \"#utility.yul\":1565:1574   */\n      dup7\n        /* \"#utility.yul\":1561:1583   */\n      add\n        /* \"#utility.yul\":1540:1593   */\n      tag_25\n      jump\t// in\n    tag_58:\n        /* \"#utility.yul\":1530:1593   */\n      swap3\n      pop\n        /* \"#utility.yul\":1486:1603   */\n      pop\n        /* \"#utility.yul\":1642:1644   */\n      0x20\n        /* \"#utility.yul\":1668:1720   */\n      tag_59\n        /* \"#utility.yul\":1712:1719   */\n      dup6\n        /* \"#utility.yul\":1703:1709   */\n      dup3\n        /* \"#utility.yul\":1692:1701   */\n      dup7\n        /* \"#utility.yul\":1688:1710   */\n      add\n        /* \"#utility.yul\":1668:1720   */\n      tag_28\n      jump\t// in\n    tag_59:\n        /* \"#utility.yul\":1658:1720   */\n      swap2\n      pop\n        /* \"#utility.yul\":1613:1730   */\n      pop\n        /* \"#utility.yul\":1265:1737   */\n      swap3\n      pop\n      swap3\n      swap1\n      pop\n      jump\t// out\n        /* \"#utility.yul\":1743:1820   */\n    tag_29:\n        /* \"#utility.yul\":1780:1787   */\n      0x00\n        /* \"#utility.yul\":1809:1814   */\n      dup2\n        /* \"#utility.yul\":1798:1814   */\n      swap1\n      pop\n        /* \"#utility.yul\":1743:1820   */\n      swap2\n      swap1\n      pop\n      jump\t// out\n        /* \"#utility.yul\":1826:1944   */\n    tag_30:\n        /* \"#utility.yul\":1913:1937   */\n      tag_62\n        /* \"#utility.yul\":1931:1936   */\n      dup2\n        /* \"#utility.yul\":1913:1937   */\n      tag_29\n      jump\t// in\n    tag_62:\n        /* \"#utility.yul\":1908:1911   */\n      dup3\n        /* \"#utility.yul\":1901:1938   */\n      mstore\n        /* \"#utility.yul\":1826:1944   */\n      pop\n      pop\n      jump\t// out\n        /* \"#utility.yul\":1950:2172   */\n    tag_9:\n        /* \"#utility.yul\":2043:2047   */\n      0x00\n        /* \"#utility.yul\":2081:2083   */\n      0x20\n        /* \"#utility.yul\":2070:2079   */\n      dup3\n        /* \"#utility.yul\":2066:2084   */\n      add\n        /* \"#utility.yul\":2058:2084   */\n      swap1\n      pop\n        /* \"#utility.yul\":2094:2165   */\n      tag_64\n        /* \"#utility.yul\":2162:2163   */\n      0x00\n        /* \"#utility.yul\":2151:2160   */\n      dup4\n        /* \"#utility.yul\":2147:2164   */\n      add\n        /* \"#utility.yul\":2138:2144   */\n      dup5\n        /* \"#utility.yul\":2094:2165   */\n      tag_30\n      jump\t// in\n    tag_64:\n        /* \"#utility.yul\":1950:2172   */\n      swap3\n      swap2\n      pop\n      pop\n      jump\t// out\n        /* \"#utility.yul\":2178:2276   */\n    tag_31:\n        /* \"#utility.yul\":2229:2235   */\n      0x00\n        /* \"#utility.yul\":2263:2268   */\n      dup2\n        /* \"#utility.yul\":2257:2269   */\n      mload\n        /* \"#utility.yul\":2247:2269   */\n      swap1\n      pop\n        /* \"#utility.yul\":2178:2276   */\n      swap2\n      swap1\n      pop\n      jump\t// out\n        /* \"#utility.yul\":2282:2429   */\n    tag_32:\n        /* \"#utility.yul\":2383:2394   */\n      0x00\n        /* \"#utility.yul\":2420:2423   */\n      dup2\n        /* \"#utility.yul\":2405:2423   */\n      swap1\n      pop\n        /* \"#utility.yul\":2282:2429   */\n      swap3\n      swap2\n      pop\n      pop\n      jump\t// out\n        /* \"#utility.yul\":2435:2574   */\n    tag_33:\n        /* \"#utility.yul\":2524:2530   */\n      dup3\n        /* \"#utility.yul\":2519:2522   */\n      dup2\n        /* \"#utility.yul\":2514:2517   */\n      dup4\n        /* \"#utility.yul\":2508:2531   */\n      mcopy\n        /* \"#utility.yul\":2565:2566   */\n      0x00\n        /* \"#utility.yul\":2556:2562   */\n      dup4\n        /* \"#utility.yul\":2551:2554   */\n      dup4\n        /* \"#utility.yul\":2547:2563   */\n      add\n        /* \"#utility.yul\":2540:2567   */\n      mstore\n        /* \"#utility.yul\":2435:2574   */\n      pop\n      pop\n      pop\n      jump\t// out\n        /* \"#utility.yul\":2580:2966   */\n    tag_34:\n        /* \"#utility.yul\":2684:2687   */\n      0x00\n        /* \"#utility.yul\":2712:2750   */\n      tag_69\n        /* \"#utility.yul\":2744:2749   */\n      dup3\n        /* \"#utility.yul\":2712:2750   */\n      tag_31\n      jump\t// in\n    tag_69:\n        /* \"#utility.yul\":2766:2854   */\n      tag_70\n        /* \"#utility.yul\":2847:2853   */\n      dup2\n        /* \"#utility.yul\":2842:2845   */\n      dup6\n        /* \"#utility.yul\":2766:2854   */\n      tag_32\n      jump\t// in\n    tag_70:\n        /* \"#utility.yul\":2759:2854   */\n      swap4\n      pop\n        /* \"#utility.yul\":2863:2928   */\n      tag_71\n        /* \"#utility.yul\":2921:2927   */\n      dup2\n        /* \"#utility.yul\":2916:2919   */\n      dup6\n        /* \"#utility.yul\":2909:2913   */\n      0x20\n        /* \"#utility.yul\":2902:2907   */\n      dup7\n        /* \"#utility.yul\":2898:2914   */\n      add\n        /* \"#utility.yul\":2863:2928   */\n      tag_33\n      jump\t// in\n    tag_71:\n        /* \"#utility.yul\":2953:2959   */\n      dup1\n        /* \"#utility.yul\":2948:2951   */\n      dup5\n        /* \"#utility.yul\":2944:2960   */\n      add\n        /* \"#utility.yul\":2937:2960   */\n      swap2\n      pop\n        /* \"#utility.yul\":2688:2966   */\n      pop\n        /* \"#utility.yul\":2580:2966   */\n      swap3\n      swap2\n      pop\n      pop\n      jump\t// out\n        /* \"#utility.yul\":2972:3243   */\n    tag_12:\n        /* \"#utility.yul\":3102:3105   */\n      0x00\n        /* \"#utility.yul\":3124:3217   */\n      tag_73\n        /* \"#utility.yul\":3213:3216   */\n      dup3\n        /* \"#utility.yul\":3204:3210   */\n      dup5\n        /* \"#utility.yul\":3124:3217   */\n      tag_34\n      jump\t// in\n    tag_73:\n        /* \"#utility.yul\":3117:3217   */\n      swap2\n      pop\n        /* \"#utility.yul\":3234:3237   */\n      dup2\n        /* \"#utility.yul\":3227:3237   */\n      swap1\n      pop\n        /* \"#utility.yul\":2972:3243   */\n      swap3\n      swap2\n      pop\n      pop\n      jump\t// out\n        /* \"#utility.yul\":3249:3371   */\n    tag_35:\n        /* \"#utility.yul\":3322:3346   */\n      tag_75\n        /* \"#utility.yul\":3340:3345   */\n      dup2\n        /* \"#utility.yul\":3322:3346   */\n      tag_29\n      jump\t// in\n    tag_75:\n        /* \"#utility.yul\":3315:3320   */\n      dup2\n        /* \"#utility.yul\":3312:3347   */\n      eq\n        /* \"#utility.yul\":3302:3365   */\n      tag_76\n      jumpi\n        /* \"#utility.yul\":3361:3362   */\n      0x00\n        /* \"#utility.yul\":3358:3359   */\n      dup1\n        /* \"#utility.yul\":3351:3363   */\n      revert\n        /* \"#utility.yul\":3302:3365   */\n    tag_76:\n        /* \"#utility.yul\":3249:3371   */\n      pop\n      jump\t// out\n        /* \"#utility.yul\":3377:3520   */\n    tag_36:\n        /* \"#utility.yul\":3434:3439   */\n      0x00\n        /* \"#utility.yul\":3465:3471   */\n      dup2\n        /* \"#utility.yul\":3459:3472   */\n      mload\n        /* \"#utility.yul\":3450:3472   */\n      swap1\n      pop\n        /* \"#utility.yul\":3481:3514   */\n      tag_78\n        /* \"#utility.yul\":3508:3513   */\n      dup2\n        /* \"#utility.yul\":3481:3514   */\n      tag_35\n      jump\t// in\n    tag_78:\n        /* \"#utility.yul\":3377:3520   */\n      swap3\n      swap2\n      pop\n      pop\n      jump\t// out\n        /* \"#utility.yul\":3526:3877   */\n    tag_18:\n        /* \"#utility.yul\":3596:3602   */\n      0x00\n        /* \"#utility.yul\":3645:3647   */\n      0x20\n        /* \"#utility.yul\":3633:3642   */\n      dup3\n        /* \"#utility.yul\":3624:3631   */\n      dup5\n        /* \"#utility.yul\":3620:3643   */\n      sub\n        /* \"#utility.yul\":3616:3648   */\n      slt\n        /* \"#utility.yul\":3613:3732   */\n      iszero\n      tag_80\n      jumpi\n        /* \"#utility.yul\":3651:3730   */\n      tag_81\n      tag_20\n      jump\t// in\n    tag_81:\n        /* \"#utility.yul\":3613:3732   */\n    tag_80:\n        /* \"#utility.yul\":3771:3772   */\n      0x00\n        /* \"#utility.yul\":3796:3860   */\n      tag_82\n        /* \"#utility.yul\":3852:3859   */\n      dup5\n        /* \"#utility.yul\":3843:3849   */\n      dup3\n        /* \"#utility.yul\":3832:3841   */\n      dup6\n        /* \"#utility.yul\":3828:3850   */\n      add\n        /* \"#utility.yul\":3796:3860   */\n      tag_36\n      jump\t// in\n    tag_82:\n        /* \"#utility.yul\":3786:3860   */\n      swap2\n      pop\n        /* \"#utility.yul\":3742:3870   */\n      pop\n        /* \"#utility.yul\":3526:3877   */\n      swap3\n      swap2\n      pop\n      pop\n      jump\t// out\n\n    auxdata: 0xa264697066735822122045ae958954e5f18797470ed66219423ec0cf32a73d7e8efc6db0b012a693cf5364736f6c634300081a0033\n}\n",
				"bytecode": {
					"linkReferences": {},
					"object": "6080604052348015600e575f80fd5b5061036b8061001c5f395ff3fe608060405234801561000f575f80fd5b5060043610610029575f3560e01c806394570ce31461002d575b5f80fd5b61004760048036038101906100429190610209565b61005d565b604051610054919061025f565b60405180910390f35b5f8082604051602401604051602081830303815290604052907bffffffffffffffffffffffffffffffffffffffffffffffffffffffff19166020820180517bffffffffffffffffffffffffffffffffffffffffffffffffffffffff838183161783525050505090505f808573ffffffffffffffffffffffffffffffffffffffff16836040516100ec91906102ca565b5f60405180830381855afa9150503d805f8114610124576040519150601f19603f3d011682016040523d82523d5f602084013e610129565b606091505b509150915081610137575f80fd5b8080602001905181019061014b919061030a565b935050505092915050565b5f80fd5b5f73ffffffffffffffffffffffffffffffffffffffff82169050919050565b5f6101838261015a565b9050919050565b61019381610179565b811461019d575f80fd5b50565b5f813590506101ae8161018a565b92915050565b5f7fffffffff0000000000000000000000000000000000000000000000000000000082169050919050565b6101e8816101b4565b81146101f2575f80fd5b50565b5f81359050610203816101df565b92915050565b5f806040838503121561021f5761021e610156565b5b5f61022c858286016101a0565b925050602061023d858286016101f5565b9150509250929050565b5f819050919050565b61025981610247565b82525050565b5f6020820190506102725f830184610250565b92915050565b5f81519050919050565b5f81905092915050565b8281835e5f83830152505050565b5f6102a482610278565b6102ae8185610282565b93506102be81856020860161028c565b80840191505092915050565b5f6102d5828461029a565b915081905092915050565b6102e981610247565b81146102f3575f80fd5b50565b5f81519050610304816102e0565b92915050565b5f6020828403121561031f5761031e610156565b5b5f61032c848285016102f6565b9150509291505056fea264697066735822122045ae958954e5f18797470ed66219423ec0cf32a73d7e8efc6db0b012a693cf5364736f6c634300081a0033",
					"opcodes": "PUSH1 0x80 PUSH1 0x40 MSTORE CALLVALUE DUP1 ISZERO PUSH1 0xE JUMPI PUSH0 DUP1 REVERT JUMPDEST POP PUSH2 0x36B DUP1 PUSH2 0x1C PUSH0 CODECOPY PUSH0 RETURN INVALID PUSH1 0x80 PUSH1 0x40 MSTORE CALLVALUE DUP1 ISZERO PUSH2 0xF JUMPI PUSH0 DUP1 REVERT JUMPDEST POP PUSH1 0x4 CALLDATASIZE LT PUSH2 0x29 JUMPI PUSH0 CALLDATALOAD PUSH1 0xE0 SHR DUP1 PUSH4 0x94570CE3 EQ PUSH2 0x2D JUMPI JUMPDEST PUSH0 DUP1 REVERT JUMPDEST PUSH2 0x47 PUSH1 0x4 DUP1 CALLDATASIZE SUB DUP2 ADD SWAP1 PUSH2 0x42 SWAP2 SWAP1 PUSH2 0x209 JUMP JUMPDEST PUSH2 0x5D JUMP JUMPDEST PUSH1 0x40 MLOAD PUSH2 0x54 SWAP2 SWAP1 PUSH2 0x25F JUMP JUMPDEST PUSH1 0x40 MLOAD DUP1 SWAP2 SUB SWAP1 RETURN JUMPDEST PUSH0 DUP1 DUP3 PUSH1 0x40 MLOAD PUSH1 0x24 ADD PUSH1 0x40 MLOAD PUSH1 0x20 DUP2 DUP4 SUB SUB DUP2 MSTORE SWAP1 PUSH1 0x40 MSTORE SWAP1 PUSH28 0xFFFFFFFFFFFFFFFFFFFFFFFFFFFFFFFFFFFFFFFFFFFFFFFFFFFFFFFF NOT AND PUSH1 0x20 DUP3 ADD DUP1 MLOAD PUSH28 0xFFFFFFFFFFFFFFFFFFFFFFFFFFFFFFFFFFFFFFFFFFFFFFFFFFFFFFFF DUP4 DUP2 DUP4 AND OR DUP4 MSTORE POP POP POP POP SWAP1 POP PUSH0 DUP1 DUP6 PUSH20 0xFFFFFFFFFFFFFFFFFFFFFFFFFFFFFFFFFFFFFFFF AND DUP4 PUSH1 0x40 MLOAD PUSH2 0xEC SWAP2 SWAP1 PUSH2 0x2CA JUMP JUMPDEST PUSH0 PUSH1 0x40 MLOAD DUP1 DUP4 SUB DUP2 DUP6 GAS STATICCALL SWAP2 POP POP RETURNDATASIZE DUP1 PUSH0 DUP2 EQ PUSH2 0x124 JUMPI PUSH1 0x40 MLOAD SWAP2 POP PUSH1 0x1F NOT PUSH1 0x3F RETURNDATASIZE ADD AND DUP3 ADD PUSH1 0x40 MSTORE RETURNDATASIZE DUP3 MSTORE RETURNDATASIZE PUSH0 PUSH1 0x20 DUP5 ADD RETURNDATACOPY PUSH2 0x129 JUMP JUMPDEST PUSH1 0x60 SWAP2 POP JUMPDEST POP SWAP2 POP SWAP2 POP DUP2 PUSH2 0x137 JUMPI PUSH0 DUP1 REVERT JUMPDEST DUP1 DUP1 PUSH1 0x20 ADD SWAP1 MLOAD DUP2 ADD SWAP1 PUSH2 0x14B SWAP2 SWAP1 PUSH2 0x30A JUMP JUMPDEST SWAP4 POP POP POP POP SWAP3 SWAP2 POP POP JUMP JUMPDEST PUSH0 DUP1 REVERT JUMPDEST PUSH0 PUSH20 0xFFFFFFFFFFFFFFFFFFFFFFFFFFFFFFFFFFFFFFFF DUP3 AND SWAP1 POP SWAP2 SWAP1 POP JUMP JUMPDEST PUSH0 PUSH2 0x183 DUP3 PUSH2 0x15A JUMP JUMPDEST SWAP1 POP SWAP2 SWAP1 POP JUMP JUMPDEST PUSH2 0x193 DUP2 PUSH2 0x179 JUMP JUMPDEST DUP2 EQ PUSH2 0x19D JUMPI PUSH0 DUP1 REVERT JUMPDEST POP JUMP JUMPDEST PUSH0 DUP2 CALLDATALOAD SWAP1 POP PUSH2 0x1AE DUP2 PUSH2 0x18A JUMP JUMPDEST SWAP3 SWAP2 POP POP JUMP JUMPDEST PUSH0 PUSH32 0xFFFFFFFF00000000000000000000000000000000000000000000000000000000 DUP3 AND SWAP1 POP SWAP2 SWAP1 POP JUMP JUMPDEST PUSH2 0x1E8 DUP2 PUSH2 0x1B4 JUMP JUMPDEST DUP2 EQ PUSH2 0x1F2 JUMPI PUSH0 DUP1 REVERT JUMPDEST POP JUMP JUMPDEST PUSH0 DUP2 CALLDATALOAD SWAP1 POP PUSH2 0x203 DUP2 PUSH2 0x1DF JUMP JUMPDEST SWAP3 SWAP2 POP POP JUMP JUMPDEST PUSH0 DUP1 PUSH1 0x40 DUP4 DUP6 SUB SLT ISZERO PUSH2 0x21F JUMPI PUSH2 0x21E PUSH2 0x156 JUMP JUMPDEST JUMPDEST PUSH0 PUSH2 0x22C DUP6 DUP3 DUP7 ADD PUSH2 0x1A0 JUMP JUMPDEST SWAP3 POP POP PUSH1 0x20 PUSH2 0x23D DUP6 DUP3 DUP7 ADD PUSH2 0x1F5 JUMP JUMPDEST SWAP2 POP POP SWAP3 POP SWAP3 SWAP1 POP JUMP JUMPDEST PUSH0 DUP2 SWAP1 POP SWAP2 SWAP1 POP JUMP JUMPDEST PUSH2 0x259 DUP2 PUSH2 0x247 JUMP JUMPDEST DUP3 MSTORE POP POP JUMP JUMPDEST PUSH0 PUSH1 0x20 DUP3 ADD SWAP1 POP PUSH2 0x272 PUSH0 DUP4 ADD DUP5 PUSH2 0x250 JUMP JUMPDEST SWAP3 SWAP2 POP POP JUMP JUMPDEST PUSH0 DUP2 MLOAD SWAP1 POP SWAP2 SWAP1 POP JUMP JUMPDEST PUSH0 DUP2 SWAP1 POP SWAP3 SWAP2 POP POP JUMP JUMPDEST DUP3 DUP2 DUP4 MCOPY PUSH0 DUP4 DUP4 ADD MSTORE POP POP POP JUMP JUMPDEST PUSH0 PUSH2 0x2A4 DUP3 PUSH2 0x278 JUMP JUMPDEST PUSH2 0x2AE DUP2 DUP6 PUSH2 0x282 JUMP JUMPDEST SWAP4 POP PUSH2 0x2BE DUP2 DUP6 PUSH1 0x20 DUP7 ADD PUSH2 0x28C JUMP JUMPDEST DUP1 DUP5 ADD SWAP2 POP POP SWAP3 SWAP2 POP POP JUMP JUMPDEST PUSH0 PUSH2 0x2D5 DUP3 DUP5 PUSH2 0x29A JUMP JUMPDEST SWAP2 POP DUP2 SWAP1 POP SWAP3 SWAP2 POP POP JUMP JUMPDEST PUSH2 0x2E9 DUP2 PUSH2 0x247 JUMP JUMPDEST DUP2 EQ PUSH2 0x2F3 JUMPI PUSH0 DUP1 REVERT JUMPDEST POP JUMP JUMPDEST PUSH0 DUP2 MLOAD SWAP1 POP PUSH2 0x304 DUP2 PUSH2 0x2E0 JUMP JUMPDEST SWAP3 SWAP2 POP POP JUMP JUMPDEST PUSH0 PUSH1 0x20 DUP3 DUP5 SUB SLT ISZERO PUSH2 0x31F JUMPI PUSH2 0x31E PUSH2 0x156 JUMP JUMPDEST JUMPDEST PUSH0 PUSH2 0x32C DUP5 DUP3 DUP6 ADD PUSH2 0x2F6 JUMP JUMPDEST SWAP2 POP POP SWAP3 SWAP2 POP POP JUMP INVALID LOG2 PUSH5 0x6970667358 0x22 SLT KECCAK256 GASLIMIT 0xAE SWAP6 DUP10 SLOAD 0xE5 CALL DUP8 SWAP8 SELFBALANCE 0xE 0xD6 PUSH3 0x19423E 0xC0 0xCF ORIGIN 0xA7 RETURNDATASIZE PUSH31 0x8EFC6DB0B012A693CF5364736F6C634300081A003300000000000000000000 "
				},
				"gasEstimates": {
					"creation": {
						"codeDepositCost": "175000",
						"executionCost": "218",
						"totalCost": "175218"
					},
					"external": {
						"callIt(address,bytes4)": "infinite"
					}
				},
				"methodIdentifiers": {
					"callIt(address,bytes4)": "94570ce3"
				}
			},
			"storageLayout": {
				"storage": [],
				"types": null
			},
			"userdoc": {
				"kind": "user",
				"methods": {},
				"version": 1
			}
		}
	}
}