{
	"solidity/homework/lintest.sol": {
		"MathLib": {
			"abi": [
				{
					"inputs": [
						{
							"internalType": "uint256",
							"name": "x",
							"type": "uint256"
						},
						{
							"internalType": "uint256",
							"name": "y",
							"type": "uint256"
						}
					],
					"name": "add",
					"outputs": [
						{
							"internalType": "uint256",
							"name": "",
							"type": "uint256"
						}
					],
					"stateMutability": "pure",
					"type": "function"
				},
				{
					"inputs": [
						{
							"internalType": "uint256",
							"name": "x",
							"type": "uint256"
						},
						{
							"internalType": "uint256",
							"name": "y",
							"type": "uint256"
						}
					],
					"name": "mul",
					"outputs": [
						{
							"internalType": "uint256",
							"name": "",
							"type": "uint256"
						}
					],
					"stateMutability": "pure",
					"type": "function"
				},
				{
					"inputs": [
						{
							"internalType": "uint256",
							"name": "x",
							"type": "uint256"
						},
						{
							"internalType": "uint256",
							"name": "y",
							"type": "uint256"
						}
					],
					"name": "sub",
					"outputs": [
						{
							"internalType": "uint256",
							"name": "",
							"type": "uint256"
						}
					],
					"stateMutability": "pure",
					"type": "function"
				}
			],
			"devdoc": {
				"kind": "dev",
				"methods": {},
				"version": 1
			},
			"evm": {
				"assembly": "    /* \"solidity/homework/lintest.sol\":58:870  library MathLib{... */\n  dataSize(sub_0)\n  dataOffset(sub_0)\n  0x0b\n  dup3\n  dup3\n  dup3\n  codecopy\n  dup1\n  mload\n  0x00\n  byte\n  0x73\n  eq\n  tag_1\n  jumpi\n  mstore(0x00, 0x4e487b7100000000000000000000000000000000000000000000000000000000)\n  mstore(0x04, 0x00)\n  revert(0x00, 0x24)\ntag_1:\n  mstore(0x00, address)\n  0x73\n  dup2\n  mstore8\n  dup3\n  dup2\n  return\nstop\n\nsub_0: assembly {\n        /* \"solidity/homework/lintest.sol\":58:870  library MathLib{... */\n      eq(address, deployTimeAddress())\n      mstore(0x40, 0x80)\n      jumpi(tag_1, lt(calldatasize, 0x04))\n      shr(0xe0, calldataload(0x00))\n      dup1\n      0x771602f7\n      eq\n      tag_2\n      jumpi\n      dup1\n      0xb67d77c5\n      eq\n      tag_3\n      jumpi\n      dup1\n      0xc8a4ac9c\n      eq\n      tag_4\n      jumpi\n    tag_1:\n      0x00\n      dup1\n      revert\n        /* \"solidity/homework/lintest.sol\":418:503  function add(uint x,uint y) external  pure returns(uint){... */\n    tag_2:\n      tag_5\n      0x04\n      dup1\n      calldatasize\n      sub\n      dup2\n      add\n      swap1\n      tag_6\n      swap2\n      swap1\n      tag_7\n      jump\t// in\n    tag_6:\n      tag_8\n      jump\t// in\n    tag_5:\n      mload(0x40)\n      tag_9\n      swap2\n      swap1\n      tag_10\n      jump\t// in\n    tag_9:\n      mload(0x40)\n      dup1\n      swap2\n      sub\n      swap1\n      return\n        /* \"solidity/homework/lintest.sol\":509:631  function sub(uint x,uint y) external pure returns(uint){... */\n    tag_3:\n      tag_11\n      0x04\n      dup1\n      calldatasize\n      sub\n      dup2\n      add\n      swap1\n      tag_12\n      swap2\n      swap1\n      tag_7\n      jump\t// in\n    tag_12:\n      tag_13\n      jump\t// in\n    tag_11:\n      mload(0x40)\n      tag_14\n      swap2\n      swap1\n      tag_10\n      jump\t// in\n    tag_14:\n      mload(0x40)\n      dup1\n      swap2\n      sub\n      swap1\n      return\n        /* \"solidity/homework/lintest.sol\":783:867  function mul(uint x,uint y) external pure returns(uint){... */\n    tag_4:\n      tag_15\n      0x04\n      dup1\n      calldatasize\n      sub\n      dup2\n      add\n      swap1\n      tag_16\n      swap2\n      swap1\n      tag_7\n      jump\t// in\n    tag_16:\n      tag_17\n      jump\t// in\n    tag_15:\n      mload(0x40)\n      tag_18\n      swap2\n      swap1\n      tag_10\n      jump\t// in\n    tag_18:\n      mload(0x40)\n      dup1\n      swap2\n      sub\n      swap1\n      return\n        /* \"solidity/homework/lintest.sol\":418:503  function add(uint x,uint y) external  pure returns(uint){... */\n    tag_8:\n        /* \"solidity/homework/lintest.sol\":469:473  uint */\n      0x00\n        /* \"solidity/homework/lintest.sol\":494:495  y */\n      dup2\n        /* \"solidity/homework/lintest.sol\":492:493  x */\n      dup4\n        /* \"solidity/homework/lintest.sol\":492:495  x+y */\n      tag_20\n      swap2\n      swap1\n      tag_21\n      jump\t// in\n    tag_20:\n        /* \"solidity/homework/lintest.sol\":485:495  return x+y */\n      swap1\n      pop\n        /* \"solidity/homework/lintest.sol\":418:503  function add(uint x,uint y) external  pure returns(uint){... */\n      swap3\n      swap2\n      pop\n      pop\n      jump\t// out\n        /* \"solidity/homework/lintest.sol\":509:631  function sub(uint x,uint y) external pure returns(uint){... */\n    tag_13:\n        /* \"solidity/homework/lintest.sol\":559:563  uint */\n      0x00\n        /* \"solidity/homework/lintest.sol\":587:588  y */\n      dup2\n        /* \"solidity/homework/lintest.sol\":584:585  x */\n      dup4\n        /* \"solidity/homework/lintest.sol\":584:588  x >y */\n      gt\n        /* \"solidity/homework/lintest.sol\":584:602  x >y ? (x,y):(y,x) */\n      tag_23\n      jumpi\n        /* \"solidity/homework/lintest.sol\":598:599  y */\n      dup2\n        /* \"solidity/homework/lintest.sol\":600:601  x */\n      dup4\n        /* \"solidity/homework/lintest.sol\":584:602  x >y ? (x,y):(y,x) */\n      jump(tag_24)\n    tag_23:\n        /* \"solidity/homework/lintest.sol\":592:593  x */\n      dup3\n        /* \"solidity/homework/lintest.sol\":594:595  y */\n      dup3\n        /* \"solidity/homework/lintest.sol\":584:602  x >y ? (x,y):(y,x) */\n    tag_24:\n        /* \"solidity/homework/lintest.sol\":575:602  (x, y) = x >y ? (x,y):(y,x) */\n      dup1\n      swap4\n      pop\n      dup2\n      swap5\n      pop\n      pop\n      pop\n        /* \"solidity/homework/lintest.sol\":622:623  y */\n      dup2\n        /* \"solidity/homework/lintest.sol\":620:621  x */\n      dup4\n        /* \"solidity/homework/lintest.sol\":620:623  x-y */\n      tag_25\n      swap2\n      swap1\n      tag_26\n      jump\t// in\n    tag_25:\n        /* \"solidity/homework/lintest.sol\":613:623  return x-y */\n      swap1\n      pop\n        /* \"solidity/homework/lintest.sol\":509:631  function sub(uint x,uint y) external pure returns(uint){... */\n      swap3\n      swap2\n      pop\n      pop\n      jump\t// out\n        /* \"solidity/homework/lintest.sol\":783:867  function mul(uint x,uint y) external pure returns(uint){... */\n    tag_17:\n        /* \"solidity/homework/lintest.sol\":833:837  uint */\n      0x00\n        /* \"solidity/homework/lintest.sol\":858:859  y */\n      dup2\n        /* \"solidity/homework/lintest.sol\":856:857  x */\n      dup4\n        /* \"solidity/homework/lintest.sol\":856:859  x*y */\n      tag_28\n      swap2\n      swap1\n      tag_29\n      jump\t// in\n    tag_28:\n        /* \"solidity/homework/lintest.sol\":849:859  return x*y */\n      swap1\n      pop\n        /* \"solidity/homework/lintest.sol\":783:867  function mul(uint x,uint y) external pure returns(uint){... */\n      swap3\n      swap2\n      pop\n      pop\n      jump\t// out\n        /* \"#utility.yul\":88:205   */\n    tag_31:\n        /* \"#utility.yul\":197:198   */\n      0x00\n        /* \"#utility.yul\":194:195   */\n      dup1\n        /* \"#utility.yul\":187:199   */\n      revert\n        /* \"#utility.yul\":334:411   */\n    tag_33:\n        /* \"#utility.yul\":371:378   */\n      0x00\n        /* \"#utility.yul\":400:405   */\n      dup2\n        /* \"#utility.yul\":389:405   */\n      swap1\n      pop\n        /* \"#utility.yul\":334:411   */\n      swap2\n      swap1\n      pop\n      jump\t// out\n        /* \"#utility.yul\":417:539   */\n    tag_34:\n        /* \"#utility.yul\":490:514   */\n      tag_44\n        /* \"#utility.yul\":508:513   */\n      dup2\n        /* \"#utility.yul\":490:514   */\n      tag_33\n      jump\t// in\n    tag_44:\n        /* \"#utility.yul\":483:488   */\n      dup2\n        /* \"#utility.yul\":480:515   */\n      eq\n        /* \"#utility.yul\":470:533   */\n      tag_45\n      jumpi\n        /* \"#utility.yul\":529:530   */\n      0x00\n        /* \"#utility.yul\":526:527   */\n      dup1\n        /* \"#utility.yul\":519:531   */\n      revert\n        /* \"#utility.yul\":470:533   */\n    tag_45:\n        /* \"#utility.yul\":417:539   */\n      pop\n      jump\t// out\n        /* \"#utility.yul\":545:684   */\n    tag_35:\n        /* \"#utility.yul\":591:596   */\n      0x00\n        /* \"#utility.yul\":629:635   */\n      dup2\n        /* \"#utility.yul\":616:636   */\n      calldataload\n        /* \"#utility.yul\":607:636   */\n      swap1\n      pop\n        /* \"#utility.yul\":645:678   */\n      tag_47\n        /* \"#utility.yul\":672:677   */\n      dup2\n        /* \"#utility.yul\":645:678   */\n      tag_34\n      jump\t// in\n    tag_47:\n        /* \"#utility.yul\":545:684   */\n      swap3\n      swap2\n      pop\n      pop\n      jump\t// out\n        /* \"#utility.yul\":690:1164   */\n    tag_7:\n        /* \"#utility.yul\":758:764   */\n      0x00\n        /* \"#utility.yul\":766:772   */\n      dup1\n        /* \"#utility.yul\":815:817   */\n      0x40\n        /* \"#utility.yul\":803:812   */\n      dup4\n        /* \"#utility.yul\":794:801   */\n      dup6\n        /* \"#utility.yul\":790:813   */\n      sub\n        /* \"#utility.yul\":786:818   */\n      slt\n        /* \"#utility.yul\":783:902   */\n      iszero\n      tag_49\n      jumpi\n        /* \"#utility.yul\":821:900   */\n      tag_50\n      tag_31\n      jump\t// in\n    tag_50:\n        /* \"#utility.yul\":783:902   */\n    tag_49:\n        /* \"#utility.yul\":941:942   */\n      0x00\n        /* \"#utility.yul\":966:1019   */\n      tag_51\n        /* \"#utility.yul\":1011:1018   */\n      dup6\n        /* \"#utility.yul\":1002:1008   */\n      dup3\n        /* \"#utility.yul\":991:1000   */\n      dup7\n        /* \"#utility.yul\":987:1009   */\n      add\n        /* \"#utility.yul\":966:1019   */\n      tag_35\n      jump\t// in\n    tag_51:\n        /* \"#utility.yul\":956:1019   */\n      swap3\n      pop\n        /* \"#utility.yul\":912:1029   */\n      pop\n        /* \"#utility.yul\":1068:1070   */\n      0x20\n        /* \"#utility.yul\":1094:1147   */\n      tag_52\n        /* \"#utility.yul\":1139:1146   */\n      dup6\n        /* \"#utility.yul\":1130:1136   */\n      dup3\n        /* \"#utility.yul\":1119:1128   */\n      dup7\n        /* \"#utility.yul\":1115:1137   */\n      add\n        /* \"#utility.yul\":1094:1147   */\n      tag_35\n      jump\t// in\n    tag_52:\n        /* \"#utility.yul\":1084:1147   */\n      swap2\n      pop\n        /* \"#utility.yul\":1039:1157   */\n      pop\n        /* \"#utility.yul\":690:1164   */\n      swap3\n      pop\n      swap3\n      swap1\n      pop\n      jump\t// out\n        /* \"#utility.yul\":1170:1296   */\n    tag_36:\n        /* \"#utility.yul\":1265:1289   */\n      tag_54\n        /* \"#utility.yul\":1283:1288   */\n      dup2\n        /* \"#utility.yul\":1265:1289   */\n      tag_33\n      jump\t// in\n    tag_54:\n        /* \"#utility.yul\":1260:1263   */\n      dup3\n        /* \"#utility.yul\":1253:1290   */\n      mstore\n        /* \"#utility.yul\":1170:1296   */\n      pop\n      pop\n      jump\t// out\n        /* \"#utility.yul\":1302:1540   */\n    tag_10:\n        /* \"#utility.yul\":1403:1407   */\n      0x00\n        /* \"#utility.yul\":1441:1443   */\n      0x20\n        /* \"#utility.yul\":1430:1439   */\n      dup3\n        /* \"#utility.yul\":1426:1444   */\n      add\n        /* \"#utility.yul\":1418:1444   */\n      swap1\n      pop\n        /* \"#utility.yul\":1454:1533   */\n      tag_56\n        /* \"#utility.yul\":1530:1531   */\n      0x00\n        /* \"#utility.yul\":1519:1528   */\n      dup4\n        /* \"#utility.yul\":1515:1532   */\n      add\n        /* \"#utility.yul\":1506:1512   */\n      dup5\n        /* \"#utility.yul\":1454:1533   */\n      tag_36\n      jump\t// in\n    tag_56:\n        /* \"#utility.yul\":1302:1540   */\n      swap3\n      swap2\n      pop\n      pop\n      jump\t// out\n        /* \"#utility.yul\":1546:1726   */\n    tag_37:\n        /* \"#utility.yul\":1594:1671   */\n      0x4e487b7100000000000000000000000000000000000000000000000000000000\n        /* \"#utility.yul\":1591:1592   */\n      0x00\n        /* \"#utility.yul\":1584:1672   */\n      mstore\n        /* \"#utility.yul\":1691:1695   */\n      0x11\n        /* \"#utility.yul\":1688:1689   */\n      0x04\n        /* \"#utility.yul\":1681:1696   */\n      mstore\n        /* \"#utility.yul\":1715:1719   */\n      0x24\n        /* \"#utility.yul\":1712:1713   */\n      0x00\n        /* \"#utility.yul\":1705:1720   */\n      revert\n        /* \"#utility.yul\":1732:1923   */\n    tag_21:\n        /* \"#utility.yul\":1772:1775   */\n      0x00\n        /* \"#utility.yul\":1791:1811   */\n      tag_59\n        /* \"#utility.yul\":1809:1810   */\n      dup3\n        /* \"#utility.yul\":1791:1811   */\n      tag_33\n      jump\t// in\n    tag_59:\n        /* \"#utility.yul\":1786:1811   */\n      swap2\n      pop\n        /* \"#utility.yul\":1825:1845   */\n      tag_60\n        /* \"#utility.yul\":1843:1844   */\n      dup4\n        /* \"#utility.yul\":1825:1845   */\n      tag_33\n      jump\t// in\n    tag_60:\n        /* \"#utility.yul\":1820:1845   */\n      swap3\n      pop\n        /* \"#utility.yul\":1868:1869   */\n      dup3\n        /* \"#utility.yul\":1865:1866   */\n      dup3\n        /* \"#utility.yul\":1861:1870   */\n      add\n        /* \"#utility.yul\":1854:1870   */\n      swap1\n      pop\n        /* \"#utility.yul\":1889:1892   */\n      dup1\n        /* \"#utility.yul\":1886:1887   */\n      dup3\n        /* \"#utility.yul\":1883:1893   */\n      gt\n        /* \"#utility.yul\":1880:1916   */\n      iszero\n      tag_61\n      jumpi\n        /* \"#utility.yul\":1896:1914   */\n      tag_62\n      tag_37\n      jump\t// in\n    tag_62:\n        /* \"#utility.yul\":1880:1916   */\n    tag_61:\n        /* \"#utility.yul\":1732:1923   */\n      swap3\n      swap2\n      pop\n      pop\n      jump\t// out\n        /* \"#utility.yul\":1929:2123   */\n    tag_26:\n        /* \"#utility.yul\":1969:1973   */\n      0x00\n        /* \"#utility.yul\":1989:2009   */\n      tag_64\n        /* \"#utility.yul\":2007:2008   */\n      dup3\n        /* \"#utility.yul\":1989:2009   */\n      tag_33\n      jump\t// in\n    tag_64:\n        /* \"#utility.yul\":1984:2009   */\n      swap2\n      pop\n        /* \"#utility.yul\":2023:2043   */\n      tag_65\n        /* \"#utility.yul\":2041:2042   */\n      dup4\n        /* \"#utility.yul\":2023:2043   */\n      tag_33\n      jump\t// in\n    tag_65:\n        /* \"#utility.yul\":2018:2043   */\n      swap3\n      pop\n        /* \"#utility.yul\":2067:2068   */\n      dup3\n        /* \"#utility.yul\":2064:2065   */\n      dup3\n        /* \"#utility.yul\":2060:2069   */\n      sub\n        /* \"#utility.yul\":2052:2069   */\n      swap1\n      pop\n        /* \"#utility.yul\":2091:2092   */\n      dup2\n        /* \"#utility.yul\":2085:2089   */\n      dup2\n        /* \"#utility.yul\":2082:2093   */\n      gt\n        /* \"#utility.yul\":2079:2116   */\n      iszero\n      tag_66\n      jumpi\n        /* \"#utility.yul\":2096:2114   */\n      tag_67\n      tag_37\n      jump\t// in\n    tag_67:\n        /* \"#utility.yul\":2079:2116   */\n    tag_66:\n        /* \"#utility.yul\":1929:2123   */\n      swap3\n      swap2\n      pop\n      pop\n      jump\t// out\n        /* \"#utility.yul\":2129:2539   */\n    tag_29:\n        /* \"#utility.yul\":2169:2176   */\n      0x00\n        /* \"#utility.yul\":2192:2212   */\n      tag_69\n        /* \"#utility.yul\":2210:2211   */\n      dup3\n        /* \"#utility.yul\":2192:2212   */\n      tag_33\n      jump\t// in\n    tag_69:\n        /* \"#utility.yul\":2187:2212   */\n      swap2\n      pop\n        /* \"#utility.yul\":2226:2246   */\n      tag_70\n        /* \"#utility.yul\":2244:2245   */\n      dup4\n        /* \"#utility.yul\":2226:2246   */\n      tag_33\n      jump\t// in\n    tag_70:\n        /* \"#utility.yul\":2221:2246   */\n      swap3\n      pop\n        /* \"#utility.yul\":2281:2282   */\n      dup3\n        /* \"#utility.yul\":2278:2279   */\n      dup3\n        /* \"#utility.yul\":2274:2283   */\n      mul\n        /* \"#utility.yul\":2303:2333   */\n      tag_71\n        /* \"#utility.yul\":2321:2332   */\n      dup2\n        /* \"#utility.yul\":2303:2333   */\n      tag_33\n      jump\t// in\n    tag_71:\n        /* \"#utility.yul\":2292:2333   */\n      swap2\n      pop\n        /* \"#utility.yul\":2482:2483   */\n      dup3\n        /* \"#utility.yul\":2473:2480   */\n      dup3\n        /* \"#utility.yul\":2469:2484   */\n      div\n        /* \"#utility.yul\":2466:2467   */\n      dup5\n        /* \"#utility.yul\":2463:2485   */\n      eq\n        /* \"#utility.yul\":2443:2444   */\n      dup4\n        /* \"#utility.yul\":2436:2445   */\n      iszero\n        /* \"#utility.yul\":2416:2499   */\n      or\n        /* \"#utility.yul\":2393:2532   */\n      tag_72\n      jumpi\n        /* \"#utility.yul\":2512:2530   */\n      tag_73\n      tag_37\n      jump\t// in\n    tag_73:\n        /* \"#utility.yul\":2393:2532   */\n    tag_72:\n        /* \"#utility.yul\":2177:2539   */\n      pop\n        /* \"#utility.yul\":2129:2539   */\n      swap3\n      swap2\n      pop\n      pop\n      jump\t// out\n\n    auxdata: 0xa2646970667358221220b12a9d0bdcf01323e4f7643f981da0be87ce71c7d9f0d87d8122b215103d214e64736f6c634300081a0033\n}\n",
				"bytecode": {
					"linkReferences": {},
					"object": "6102dd61004d600b8282823980515f1a6073146041577f4e487b71000000000000000000000000000000000000000000000000000000005f525f60045260245ffd5b305f52607381538281f3fe730000000000000000000000000000000000000000301460806040526004361061004a575f3560e01c8063771602f71461004e578063b67d77c51461007e578063c8a4ac9c146100ae575b5f80fd5b6100686004803603810190610063919061016d565b6100de565b60405161007591906101ba565b60405180910390f35b6100986004803603810190610093919061016d565b6100f3565b6040516100a591906101ba565b60405180910390f35b6100c860048036038101906100c3919061016d565b610121565b6040516100d591906101ba565b60405180910390f35b5f81836100eb9190610200565b905092915050565b5f818311610102578183610105565b82825b809350819450505081836101199190610233565b905092915050565b5f818361012e9190610266565b905092915050565b5f80fd5b5f819050919050565b61014c8161013a565b8114610156575f80fd5b50565b5f8135905061016781610143565b92915050565b5f806040838503121561018357610182610136565b5b5f61019085828601610159565b92505060206101a185828601610159565b9150509250929050565b6101b48161013a565b82525050565b5f6020820190506101cd5f8301846101ab565b92915050565b7f4e487b71000000000000000000000000000000000000000000000000000000005f52601160045260245ffd5b5f61020a8261013a565b91506102158361013a565b925082820190508082111561022d5761022c6101d3565b5b92915050565b5f61023d8261013a565b91506102488361013a565b92508282039050818111156102605761025f6101d3565b5b92915050565b5f6102708261013a565b915061027b8361013a565b92508282026102898161013a565b915082820484148315176102a05761029f6101d3565b5b509291505056fea2646970667358221220b12a9d0bdcf01323e4f7643f981da0be87ce71c7d9f0d87d8122b215103d214e64736f6c634300081a0033",
					"opcodes": "PUSH2 0x2DD PUSH2 0x4D PUSH1 0xB DUP3 DUP3 DUP3 CODECOPY DUP1 MLOAD PUSH0 BYTE PUSH1 0x73 EQ PUSH1 0x41 JUMPI PUSH32 0x4E487B7100000000000000000000000000000000000000000000000000000000 PUSH0 MSTORE PUSH0 PUSH1 0x4 MSTORE PUSH1 0x24 PUSH0 REVERT JUMPDEST ADDRESS PUSH0 MSTORE PUSH1 0x73 DUP2 MSTORE8 DUP3 DUP2 RETURN INVALID PUSH20 0x0 ADDRESS EQ PUSH1 0x80 PUSH1 0x40 MSTORE PUSH1 0x4 CALLDATASIZE LT PUSH2 0x4A JUMPI PUSH0 CALLDATALOAD PUSH1 0xE0 SHR DUP1 PUSH4 0x771602F7 EQ PUSH2 0x4E JUMPI DUP1 PUSH4 0xB67D77C5 EQ PUSH2 0x7E JUMPI DUP1 PUSH4 0xC8A4AC9C EQ PUSH2 0xAE JUMPI JUMPDEST PUSH0 DUP1 REVERT JUMPDEST PUSH2 0x68 PUSH1 0x4 DUP1 CALLDATASIZE SUB DUP2 ADD SWAP1 PUSH2 0x63 SWAP2 SWAP1 PUSH2 0x16D JUMP JUMPDEST PUSH2 0xDE JUMP JUMPDEST PUSH1 0x40 MLOAD PUSH2 0x75 SWAP2 SWAP1 PUSH2 0x1BA JUMP JUMPDEST PUSH1 0x40 MLOAD DUP1 SWAP2 SUB SWAP1 RETURN JUMPDEST PUSH2 0x98 PUSH1 0x4 DUP1 CALLDATASIZE SUB DUP2 ADD SWAP1 PUSH2 0x93 SWAP2 SWAP1 PUSH2 0x16D JUMP JUMPDEST PUSH2 0xF3 JUMP JUMPDEST PUSH1 0x40 MLOAD PUSH2 0xA5 SWAP2 SWAP1 PUSH2 0x1BA JUMP JUMPDEST PUSH1 0x40 MLOAD DUP1 SWAP2 SUB SWAP1 RETURN JUMPDEST PUSH2 0xC8 PUSH1 0x4 DUP1 CALLDATASIZE SUB DUP2 ADD SWAP1 PUSH2 0xC3 SWAP2 SWAP1 PUSH2 0x16D JUMP JUMPDEST PUSH2 0x121 JUMP JUMPDEST PUSH1 0x40 MLOAD PUSH2 0xD5 SWAP2 SWAP1 PUSH2 0x1BA JUMP JUMPDEST PUSH1 0x40 MLOAD DUP1 SWAP2 SUB SWAP1 RETURN JUMPDEST PUSH0 DUP2 DUP4 PUSH2 0xEB SWAP2 SWAP1 PUSH2 0x200 JUMP JUMPDEST SWAP1 POP SWAP3 SWAP2 POP POP JUMP JUMPDEST PUSH0 DUP2 DUP4 GT PUSH2 0x102 JUMPI DUP2 DUP4 PUSH2 0x105 JUMP JUMPDEST DUP3 DUP3 JUMPDEST DUP1 SWAP4 POP DUP2 SWAP5 POP POP POP DUP2 DUP4 PUSH2 0x119 SWAP2 SWAP1 PUSH2 0x233 JUMP JUMPDEST SWAP1 POP SWAP3 SWAP2 POP POP JUMP JUMPDEST PUSH0 DUP2 DUP4 PUSH2 0x12E SWAP2 SWAP1 PUSH2 0x266 JUMP JUMPDEST SWAP1 POP SWAP3 SWAP2 POP POP JUMP JUMPDEST PUSH0 DUP1 REVERT JUMPDEST PUSH0 DUP2 SWAP1 POP SWAP2 SWAP1 POP JUMP JUMPDEST PUSH2 0x14C DUP2 PUSH2 0x13A JUMP JUMPDEST DUP2 EQ PUSH2 0x156 JUMPI PUSH0 DUP1 REVERT JUMPDEST POP JUMP JUMPDEST PUSH0 DUP2 CALLDATALOAD SWAP1 POP PUSH2 0x167 DUP2 PUSH2 0x143 JUMP JUMPDEST SWAP3 SWAP2 POP POP JUMP JUMPDEST PUSH0 DUP1 PUSH1 0x40 DUP4 DUP6 SUB SLT ISZERO PUSH2 0x183 JUMPI PUSH2 0x182 PUSH2 0x136 JUMP JUMPDEST JUMPDEST PUSH0 PUSH2 0x190 DUP6 DUP3 DUP7 ADD PUSH2 0x159 JUMP JUMPDEST SWAP3 POP POP PUSH1 0x20 PUSH2 0x1A1 DUP6 DUP3 DUP7 ADD PUSH2 0x159 JUMP JUMPDEST SWAP2 POP POP SWAP3 POP SWAP3 SWAP1 POP JUMP JUMPDEST PUSH2 0x1B4 DUP2 PUSH2 0x13A JUMP JUMPDEST DUP3 MSTORE POP POP JUMP JUMPDEST PUSH0 PUSH1 0x20 DUP3 ADD SWAP1 POP PUSH2 0x1CD PUSH0 DUP4 ADD DUP5 PUSH2 0x1AB JUMP JUMPDEST SWAP3 SWAP2 POP POP JUMP JUMPDEST PUSH32 0x4E487B7100000000000000000000000000000000000000000000000000000000 PUSH0 MSTORE PUSH1 0x11 PUSH1 0x4 MSTORE PUSH1 0x24 PUSH0 REVERT JUMPDEST PUSH0 PUSH2 0x20A DUP3 PUSH2 0x13A JUMP JUMPDEST SWAP2 POP PUSH2 0x215 DUP4 PUSH2 0x13A JUMP JUMPDEST SWAP3 POP DUP3 DUP3 ADD SWAP1 POP DUP1 DUP3 GT ISZERO PUSH2 0x22D JUMPI PUSH2 0x22C PUSH2 0x1D3 JUMP JUMPDEST JUMPDEST SWAP3 SWAP2 POP POP JUMP JUMPDEST PUSH0 PUSH2 0x23D DUP3 PUSH2 0x13A JUMP JUMPDEST SWAP2 POP PUSH2 0x248 DUP4 PUSH2 0x13A JUMP JUMPDEST SWAP3 POP DUP3 DUP3 SUB SWAP1 POP DUP2 DUP2 GT ISZERO PUSH2 0x260 JUMPI PUSH2 0x25F PUSH2 0x1D3 JUMP JUMPDEST JUMPDEST SWAP3 SWAP2 POP POP JUMP JUMPDEST PUSH0 PUSH2 0x270 DUP3 PUSH2 0x13A JUMP JUMPDEST SWAP2 POP PUSH2 0x27B DUP4 PUSH2 0x13A JUMP JUMPDEST SWAP3 POP DUP3 DUP3 MUL PUSH2 0x289 DUP2 PUSH2 0x13A JUMP JUMPDEST SWAP2 POP DUP3 DUP3 DIV DUP5 EQ DUP4 ISZERO OR PUSH2 0x2A0 JUMPI PUSH2 0x29F PUSH2 0x1D3 JUMP JUMPDEST JUMPDEST POP SWAP3 SWAP2 POP POP JUMP INVALID LOG2 PUSH5 0x6970667358 0x22 SLT KECCAK256 0xB1 0x2A SWAP14 SIGNEXTEND 0xDC CREATE SGT 0x23 0xE4 0xF7 PUSH5 0x3F981DA0BE DUP8 0xCE PUSH18 0xC7D9F0D87D8122B215103D214E64736F6C63 NUMBER STOP ADDMOD BYTE STOP CALLER "
				},
				"gasEstimates": {
					"creation": {
						"codeDepositCost": "146600",
						"executionCost": "216",
						"totalCost": "146816"
					},
					"external": {
						"add(uint256,uint256)": "infinite",
						"mul(uint256,uint256)": "infinite",
						"sub(uint256,uint256)": "infinite"
					}
				},
				"methodIdentifiers": {
					"add(uint256,uint256)": "771602f7",
					"mul(uint256,uint256)": "c8a4ac9c",
					"sub(uint256,uint256)": "b67d77c5"
				}
			},
			"storageLayout": {
				"storage": [],
				"types": null
			},
			"userdoc": {
				"kind": "user",
				"methods": {},
				"version": 1
			}
		}
	}
}