{
	"solidity/homework/arraytest.sol": {
		"ArrayTest": {
			"abi": [
				{
					"inputs": [
						{
							"internalType": "uint256[]",
							"name": "nums",
							"type": "uint256[]"
						}
					],
					"name": "Sumarray",
					"outputs": [
						{
							"internalType": "uint256",
							"name": "sum",
							"type": "uint256"
						}
					],
					"stateMutability": "pure",
					"type": "function"
				},
				{
					"inputs": [
						{
							"internalType": "address",
							"name": "target",
							"type": "address"
						}
					],
					"name": "delTest",
					"outputs": [
						{
							"internalType": "address[]",
							"name": "",
							"type": "address[]"
						}
					],
					"stateMutability": "nonpayable",
					"type": "function"
				},
				{
					"inputs": [
						{
							"internalType": "bytes",
							"name": "bs",
							"type": "bytes"
						},
						{
							"internalType": "string",
							"name": "str",
							"type": "string"
						}
					],
					"name": "opstr",
					"outputs": [
						{
							"internalType": "string",
							"name": "",
							"type": "string"
						},
						{
							"internalType": "string",
							"name": "",
							"type": "string"
						}
					],
					"stateMutability": "pure",
					"type": "function"
				},
				{
					"inputs": [
						{
							"internalType": "address[]",
							"name": "maddrs",
							"type": "address[]"
						}
					],
					"name": "setArray",
					"outputs": [],
					"stateMutability": "nonpayable",
					"type": "function"
				}
			],
			"devdoc": {
				"kind": "dev",
				"methods": {},
				"version": 1
			},
			"evm": {
				"assembly": "    /* \"solidity/homework/arraytest.sol\":58:926  contract ArrayTest{... */\n  mstore(0x40, 0x80)\n  callvalue\n  dup1\n  iszero\n  tag_1\n  jumpi\n  0x00\n  dup1\n  revert\ntag_1:\n  pop\n  dataSize(sub_0)\n  dup1\n  dataOffset(sub_0)\n  0x00\n  codecopy\n  0x00\n  return\nstop\n\nsub_0: assembly {\n        /* \"solidity/homework/arraytest.sol\":58:926  contract ArrayTest{... */\n      mstore(0x40, 0x80)\n      callvalue\n      dup1\n      iszero\n      tag_1\n      jumpi\n      0x00\n      dup1\n      revert\n    tag_1:\n      pop\n      jumpi(tag_2, lt(calldatasize, 0x04))\n      shr(0xe0, calldataload(0x00))\n      dup1\n      0x0243cad5\n      eq\n      tag_3\n      jumpi\n      dup1\n      0x384bc172\n      eq\n      tag_4\n      jumpi\n      dup1\n      0x9f494991\n      eq\n      tag_5\n      jumpi\n      dup1\n      0xd01ee72a\n      eq\n      tag_6\n      jumpi\n    tag_2:\n      0x00\n      dup1\n      revert\n        /* \"solidity/homework/arraytest.sol\":104:264  function Sumarray(uint[] calldata nums) public pure returns(uint sum){... */\n    tag_3:\n      tag_7\n      0x04\n      dup1\n      calldatasize\n      sub\n      dup2\n      add\n      swap1\n      tag_8\n      swap2\n      swap1\n      tag_9\n      jump\t// in\n    tag_8:\n      tag_10\n      jump\t// in\n    tag_7:\n      mload(0x40)\n      tag_11\n      swap2\n      swap1\n      tag_12\n      jump\t// in\n    tag_11:\n      mload(0x40)\n      dup1\n      swap2\n      sub\n      swap1\n      return\n        /* \"solidity/homework/arraytest.sol\":358:706  function delTest(address target) public returns(address[] memory){... */\n    tag_4:\n      tag_13\n      0x04\n      dup1\n      calldatasize\n      sub\n      dup2\n      add\n      swap1\n      tag_14\n      swap2\n      swap1\n      tag_15\n      jump\t// in\n    tag_14:\n      tag_16\n      jump\t// in\n    tag_13:\n      mload(0x40)\n      tag_17\n      swap2\n      swap1\n      tag_18\n      jump\t// in\n    tag_17:\n      mload(0x40)\n      dup1\n      swap2\n      sub\n      swap1\n      return\n        /* \"solidity/homework/arraytest.sol\":270:352  function setArray(address[] memory maddrs) public {... */\n    tag_5:\n      tag_19\n      0x04\n      dup1\n      calldatasize\n      sub\n      dup2\n      add\n      swap1\n      tag_20\n      swap2\n      swap1\n      tag_21\n      jump\t// in\n    tag_20:\n      tag_22\n      jump\t// in\n    tag_19:\n      stop\n        /* \"solidity/homework/arraytest.sol\":714:923  function opstr(bytes memory bs, string memory str) public pure returns(string memory,string memory){... */\n    tag_6:\n      tag_23\n      0x04\n      dup1\n      calldatasize\n      sub\n      dup2\n      add\n      swap1\n      tag_24\n      swap2\n      swap1\n      tag_25\n      jump\t// in\n    tag_24:\n      tag_26\n      jump\t// in\n    tag_23:\n      mload(0x40)\n      tag_27\n      swap3\n      swap2\n      swap1\n      tag_28\n      jump\t// in\n    tag_27:\n      mload(0x40)\n      dup1\n      swap2\n      sub\n      swap1\n      return\n        /* \"solidity/homework/arraytest.sol\":104:264  function Sumarray(uint[] calldata nums) public pure returns(uint sum){... */\n    tag_10:\n        /* \"solidity/homework/arraytest.sol\":164:172  uint sum */\n      0x00\n        /* \"solidity/homework/arraytest.sol\":189:195  uint i */\n      dup1\n        /* \"solidity/homework/arraytest.sol\":196:197  0 */\n      0x00\n        /* \"solidity/homework/arraytest.sol\":189:197  uint i=0 */\n      swap1\n      pop\n        /* \"solidity/homework/arraytest.sol\":184:257  for (uint i=0;i<nums.length;i++){... */\n    tag_30:\n        /* \"solidity/homework/arraytest.sol\":200:204  nums */\n      dup4\n      dup4\n        /* \"solidity/homework/arraytest.sol\":200:211  nums.length */\n      swap1\n      pop\n        /* \"solidity/homework/arraytest.sol\":198:199  i */\n      dup2\n        /* \"solidity/homework/arraytest.sol\":198:211  i<nums.length */\n      lt\n        /* \"solidity/homework/arraytest.sol\":184:257  for (uint i=0;i<nums.length;i++){... */\n      iszero\n      tag_31\n      jumpi\n        /* \"solidity/homework/arraytest.sol\":238:242  nums */\n      dup4\n      dup4\n        /* \"solidity/homework/arraytest.sol\":243:244  i */\n      dup3\n        /* \"solidity/homework/arraytest.sol\":238:245  nums[i] */\n      dup2\n      dup2\n      lt\n      tag_33\n      jumpi\n      tag_34\n      tag_35\n      jump\t// in\n    tag_34:\n    tag_33:\n      swap1\n      pop\n      0x20\n      mul\n      add\n      calldataload\n        /* \"solidity/homework/arraytest.sol\":231:245  sum += nums[i] */\n      dup3\n      tag_36\n      swap2\n      swap1\n      tag_37\n      jump\t// in\n    tag_36:\n      swap2\n      pop\n        /* \"solidity/homework/arraytest.sol\":212:215  i++ */\n      dup1\n      dup1\n      0x01\n      add\n      swap2\n      pop\n      pop\n        /* \"solidity/homework/arraytest.sol\":184:257  for (uint i=0;i<nums.length;i++){... */\n      jump(tag_30)\n    tag_31:\n      pop\n        /* \"solidity/homework/arraytest.sol\":104:264  function Sumarray(uint[] calldata nums) public pure returns(uint sum){... */\n      swap3\n      swap2\n      pop\n      pop\n      jump\t// out\n        /* \"solidity/homework/arraytest.sol\":358:706  function delTest(address target) public returns(address[] memory){... */\n    tag_16:\n        /* \"solidity/homework/arraytest.sol\":406:422  address[] memory */\n      0x60\n        /* \"solidity/homework/arraytest.sol\":439:445  uint i */\n      0x00\n        /* \"solidity/homework/arraytest.sol\":434:650  for (uint i=0;i<adds.length;i++){... */\n    tag_39:\n        /* \"solidity/homework/arraytest.sol\":450:454  adds */\n      0x00\n        /* \"solidity/homework/arraytest.sol\":450:461  adds.length */\n      dup1\n      sload\n      swap1\n      pop\n        /* \"solidity/homework/arraytest.sol\":448:449  i */\n      dup2\n        /* \"solidity/homework/arraytest.sol\":448:461  i<adds.length */\n      lt\n        /* \"solidity/homework/arraytest.sol\":434:650  for (uint i=0;i<adds.length;i++){... */\n      iszero\n      tag_40\n      jumpi\n        /* \"solidity/homework/arraytest.sol\":496:502  target */\n      dup3\n        /* \"solidity/homework/arraytest.sol\":485:502  adds[i] == target */\n      0xffffffffffffffffffffffffffffffffffffffff\n      and\n        /* \"solidity/homework/arraytest.sol\":485:489  adds */\n      0x00\n        /* \"solidity/homework/arraytest.sol\":490:491  i */\n      dup3\n        /* \"solidity/homework/arraytest.sol\":485:492  adds[i] */\n      dup2\n      sload\n      dup2\n      lt\n      tag_42\n      jumpi\n      tag_43\n      tag_35\n      jump\t// in\n    tag_43:\n    tag_42:\n      swap1\n      0x00\n      mstore\n      keccak256(0x00, 0x20)\n      add\n      0x00\n      swap1\n      sload\n      swap1\n      0x0100\n      exp\n      swap1\n      div\n      0xffffffffffffffffffffffffffffffffffffffff\n      and\n        /* \"solidity/homework/arraytest.sol\":485:502  adds[i] == target */\n      0xffffffffffffffffffffffffffffffffffffffff\n      and\n      sub\n        /* \"solidity/homework/arraytest.sol\":481:625  if (adds[i] == target){... */\n      tag_45\n      jumpi\n        /* \"solidity/homework/arraytest.sol\":556:560  adds */\n      0x00\n        /* \"solidity/homework/arraytest.sol\":573:574  1 */\n      0x01\n        /* \"solidity/homework/arraytest.sol\":561:565  adds */\n      0x00\n        /* \"solidity/homework/arraytest.sol\":561:572  adds.length */\n      dup1\n      sload\n      swap1\n      pop\n        /* \"solidity/homework/arraytest.sol\":561:574  adds.length-1 */\n      tag_46\n      swap2\n      swap1\n      tag_47\n      jump\t// in\n    tag_46:\n        /* \"solidity/homework/arraytest.sol\":556:575  adds[adds.length-1] */\n      dup2\n      sload\n      dup2\n      lt\n      tag_48\n      jumpi\n      tag_49\n      tag_35\n      jump\t// in\n    tag_49:\n    tag_48:\n      swap1\n      0x00\n      mstore\n      keccak256(0x00, 0x20)\n      add\n      0x00\n      swap1\n      sload\n      swap1\n      0x0100\n      exp\n      swap1\n      div\n      0xffffffffffffffffffffffffffffffffffffffff\n      and\n        /* \"solidity/homework/arraytest.sol\":577:581  adds */\n      0x00\n        /* \"solidity/homework/arraytest.sol\":582:583  i */\n      dup3\n        /* \"solidity/homework/arraytest.sol\":577:584  adds[i] */\n      dup2\n      sload\n      dup2\n      lt\n      tag_51\n      jumpi\n      tag_52\n      tag_35\n      jump\t// in\n    tag_52:\n    tag_51:\n      swap1\n      0x00\n      mstore\n      keccak256(0x00, 0x20)\n      add\n      0x00\n      swap1\n      sload\n      swap1\n      0x0100\n      exp\n      swap1\n      div\n      0xffffffffffffffffffffffffffffffffffffffff\n      and\n        /* \"solidity/homework/arraytest.sol\":523:527  adds */\n      0x00\n        /* \"solidity/homework/arraytest.sol\":528:529  i */\n      dup4\n        /* \"solidity/homework/arraytest.sol\":523:530  adds[i] */\n      dup2\n      sload\n      dup2\n      lt\n      tag_54\n      jumpi\n      tag_55\n      tag_35\n      jump\t// in\n    tag_55:\n    tag_54:\n      swap1\n      0x00\n      mstore\n      keccak256(0x00, 0x20)\n      add\n      0x00\n        /* \"solidity/homework/arraytest.sol\":532:536  adds */\n      dup1\n        /* \"solidity/homework/arraytest.sol\":549:550  1 */\n      0x01\n        /* \"solidity/homework/arraytest.sol\":537:541  adds */\n      0x00\n        /* \"solidity/homework/arraytest.sol\":537:548  adds.length */\n      dup1\n      sload\n      swap1\n      pop\n        /* \"solidity/homework/arraytest.sol\":537:550  adds.length-1 */\n      tag_57\n      swap2\n      swap1\n      tag_47\n      jump\t// in\n    tag_57:\n        /* \"solidity/homework/arraytest.sol\":532:551  adds[adds.length-1] */\n      dup2\n      sload\n      dup2\n      lt\n      tag_58\n      jumpi\n      tag_59\n      tag_35\n      jump\t// in\n    tag_59:\n    tag_58:\n      swap1\n      0x00\n      mstore\n      keccak256(0x00, 0x20)\n      add\n      0x00\n        /* \"solidity/homework/arraytest.sol\":522:585  (adds[i], adds[adds.length-1]) = (adds[adds.length-1], adds[i]) */\n      dup5\n      swap2\n      swap1\n      0x0100\n      exp\n      dup2\n      sload\n      dup2\n      0xffffffffffffffffffffffffffffffffffffffff\n      mul\n      not\n      and\n      swap1\n      dup4\n      0xffffffffffffffffffffffffffffffffffffffff\n      and\n      mul\n      or\n      swap1\n      sstore\n      pop\n      dup4\n      swap2\n      swap1\n      0x0100\n      exp\n      dup2\n      sload\n      dup2\n      0xffffffffffffffffffffffffffffffffffffffff\n      mul\n      not\n      and\n      swap1\n      dup4\n      0xffffffffffffffffffffffffffffffffffffffff\n      and\n      mul\n      or\n      swap1\n      sstore\n      pop\n      pop\n      pop\n        /* \"solidity/homework/arraytest.sol\":604:609  break */\n      jump(tag_40)\n        /* \"solidity/homework/arraytest.sol\":481:625  if (adds[i] == target){... */\n    tag_45:\n        /* \"solidity/homework/arraytest.sol\":462:465  i++ */\n      dup1\n      dup1\n      0x01\n      add\n      swap2\n      pop\n      pop\n        /* \"solidity/homework/arraytest.sol\":434:650  for (uint i=0;i<adds.length;i++){... */\n      jump(tag_39)\n    tag_40:\n      pop\n        /* \"solidity/homework/arraytest.sol\":660:664  adds */\n      0x00\n        /* \"solidity/homework/arraytest.sol\":660:670  adds.pop() */\n      dup1\n      sload\n      dup1\n      tag_61\n      jumpi\n      tag_62\n      tag_63\n      jump\t// in\n    tag_62:\n    tag_61:\n      0x01\n      swap1\n      sub\n      dup2\n      dup2\n      swap1\n      0x00\n      mstore\n      keccak256(0x00, 0x20)\n      add\n      exp(0x0100, 0x00)\n      dup2\n      sload\n      swap1\n      0xffffffffffffffffffffffffffffffffffffffff\n      mul\n      not\n      and\n      swap1\n      sstore\n      swap1\n      sstore\n        /* \"solidity/homework/arraytest.sol\":688:692  adds */\n      0x00\n        /* \"solidity/homework/arraytest.sol\":681:692  return adds */\n      dup1\n      sload\n      dup1\n      0x20\n      mul\n      0x20\n      add\n      mload(0x40)\n      swap1\n      dup2\n      add\n      0x40\n      mstore\n      dup1\n      swap3\n      swap2\n      swap1\n      dup2\n      dup2\n      mstore\n      0x20\n      add\n      dup3\n      dup1\n      sload\n      dup1\n      iszero\n      tag_65\n      jumpi\n      0x20\n      mul\n      dup3\n      add\n      swap2\n      swap1\n      0x00\n      mstore\n      keccak256(0x00, 0x20)\n      swap1\n    tag_66:\n      dup2\n      0x00\n      swap1\n      sload\n      swap1\n      0x0100\n      exp\n      swap1\n      div\n      0xffffffffffffffffffffffffffffffffffffffff\n      and\n      0xffffffffffffffffffffffffffffffffffffffff\n      and\n      dup2\n      mstore\n      0x20\n      add\n      swap1\n      0x01\n      add\n      swap1\n      dup1\n      dup4\n      gt\n      tag_66\n      jumpi\n    tag_65:\n      pop\n      pop\n      pop\n      pop\n      pop\n      swap1\n      pop\n        /* \"solidity/homework/arraytest.sol\":358:706  function delTest(address target) public returns(address[] memory){... */\n      swap2\n      swap1\n      pop\n      jump\t// out\n        /* \"solidity/homework/arraytest.sol\":270:352  function setArray(address[] memory maddrs) public {... */\n    tag_22:\n        /* \"solidity/homework/arraytest.sol\":338:344  maddrs */\n      dup1\n        /* \"solidity/homework/arraytest.sol\":331:335  adds */\n      0x00\n        /* \"solidity/homework/arraytest.sol\":331:344  adds = maddrs */\n      swap1\n      dup1\n      mload\n      swap1\n      0x20\n      add\n      swap1\n      tag_68\n      swap3\n      swap2\n      swap1\n      tag_69\n      jump\t// in\n    tag_68:\n      pop\n        /* \"solidity/homework/arraytest.sol\":270:352  function setArray(address[] memory maddrs) public {... */\n      pop\n      jump\t// out\n        /* \"solidity/homework/arraytest.sol\":714:923  function opstr(bytes memory bs, string memory str) public pure returns(string memory,string memory){... */\n    tag_26:\n        /* \"solidity/homework/arraytest.sol\":785:798  string memory */\n      0x60\n        /* \"solidity/homework/arraytest.sol\":799:812  string memory */\n      dup1\n        /* \"solidity/homework/arraytest.sol\":832:843  bytes1(\"H\") */\n      0x4800000000000000000000000000000000000000000000000000000000000000\n        /* \"solidity/homework/arraytest.sol\":824:826  bs */\n      dup5\n        /* \"solidity/homework/arraytest.sol\":827:828  0 */\n      0x00\n        /* \"solidity/homework/arraytest.sol\":824:829  bs[0] */\n      dup2\n      mload\n      dup2\n      lt\n      tag_71\n      jumpi\n      tag_72\n      tag_35\n      jump\t// in\n    tag_72:\n    tag_71:\n      0x20\n      add\n      add\n        /* \"solidity/homework/arraytest.sol\":824:843  bs[0] = bytes1(\"H\") */\n      swap1\n      not(0xffffffffffffffffffffffffffffffffffffffffffffffffffffffffffffff)\n      and\n      swap1\n      dup2\n      0x00\n      byte\n      swap1\n      mstore8\n      pop\n        /* \"solidity/homework/arraytest.sol\":904:906  bs */\n      dup4\n        /* \"solidity/homework/arraytest.sol\":909:912  str */\n      dup4\n        /* \"solidity/homework/arraytest.sol\":889:913  return (string(bs), str) */\n      swap2\n      pop\n      swap2\n      pop\n        /* \"solidity/homework/arraytest.sol\":714:923  function opstr(bytes memory bs, string memory str) public pure returns(string memory,string memory){... */\n      swap3\n      pop\n      swap3\n      swap1\n      pop\n      jump\t// out\n    tag_69:\n      dup3\n      dup1\n      sload\n      dup3\n      dup3\n      sstore\n      swap1\n      0x00\n      mstore\n      keccak256(0x00, 0x20)\n      swap1\n      dup2\n      add\n      swap3\n      dup3\n      iszero\n      tag_73\n      jumpi\n      swap2\n      0x20\n      mul\n      dup3\n      add\n    tag_74:\n      dup3\n      dup2\n      gt\n      iszero\n      tag_75\n      jumpi\n      dup3\n      mload\n      dup3\n      exp(0x0100, 0x00)\n      dup2\n      sload\n      dup2\n      0xffffffffffffffffffffffffffffffffffffffff\n      mul\n      not\n      and\n      swap1\n      dup4\n      0xffffffffffffffffffffffffffffffffffffffff\n      and\n      mul\n      or\n      swap1\n      sstore\n      pop\n      swap2\n      0x20\n      add\n      swap2\n      swap1\n      0x01\n      add\n      swap1\n      jump(tag_74)\n    tag_75:\n    tag_73:\n      pop\n      swap1\n      pop\n      tag_76\n      swap2\n      swap1\n      tag_77\n      jump\t// in\n    tag_76:\n      pop\n      swap1\n      jump\t// out\n    tag_77:\n    tag_78:\n      dup1\n      dup3\n      gt\n      iszero\n      tag_79\n      jumpi\n      0x00\n      dup2\n      0x00\n      swap1\n      sstore\n      pop\n      0x01\n      add\n      jump(tag_78)\n    tag_79:\n      pop\n      swap1\n      jump\t// out\n        /* \"#utility.yul\":7:82   */\n    tag_80:\n        /* \"#utility.yul\":40:46   */\n      0x00\n        /* \"#utility.yul\":73:75   */\n      0x40\n        /* \"#utility.yul\":67:76   */\n      mload\n        /* \"#utility.yul\":57:76   */\n      swap1\n      pop\n        /* \"#utility.yul\":7:82   */\n      swap1\n      jump\t// out\n        /* \"#utility.yul\":88:205   */\n    tag_81:\n        /* \"#utility.yul\":197:198   */\n      0x00\n        /* \"#utility.yul\":194:195   */\n      dup1\n        /* \"#utility.yul\":187:199   */\n      revert\n        /* \"#utility.yul\":211:328   */\n    tag_82:\n        /* \"#utility.yul\":320:321   */\n      0x00\n        /* \"#utility.yul\":317:318   */\n      dup1\n        /* \"#utility.yul\":310:322   */\n      revert\n        /* \"#utility.yul\":334:451   */\n    tag_83:\n        /* \"#utility.yul\":443:444   */\n      0x00\n        /* \"#utility.yul\":440:441   */\n      dup1\n        /* \"#utility.yul\":433:445   */\n      revert\n        /* \"#utility.yul\":457:574   */\n    tag_84:\n        /* \"#utility.yul\":566:567   */\n      0x00\n        /* \"#utility.yul\":563:564   */\n      dup1\n        /* \"#utility.yul\":556:568   */\n      revert\n        /* \"#utility.yul\":580:697   */\n    tag_85:\n        /* \"#utility.yul\":689:690   */\n      0x00\n        /* \"#utility.yul\":686:687   */\n      dup1\n        /* \"#utility.yul\":679:691   */\n      revert\n        /* \"#utility.yul\":720:1288   */\n    tag_86:\n        /* \"#utility.yul\":793:801   */\n      0x00\n        /* \"#utility.yul\":803:809   */\n      dup1\n        /* \"#utility.yul\":853:856   */\n      dup4\n        /* \"#utility.yul\":846:850   */\n      0x1f\n        /* \"#utility.yul\":838:844   */\n      dup5\n        /* \"#utility.yul\":834:851   */\n      add\n        /* \"#utility.yul\":830:857   */\n      slt\n        /* \"#utility.yul\":820:942   */\n      tag_128\n      jumpi\n        /* \"#utility.yul\":861:940   */\n      tag_129\n      tag_83\n      jump\t// in\n    tag_129:\n        /* \"#utility.yul\":820:942   */\n    tag_128:\n        /* \"#utility.yul\":974:980   */\n      dup3\n        /* \"#utility.yul\":961:981   */\n      calldataload\n        /* \"#utility.yul\":951:981   */\n      swap1\n      pop\n        /* \"#utility.yul\":1004:1022   */\n      0xffffffffffffffff\n        /* \"#utility.yul\":996:1002   */\n      dup2\n        /* \"#utility.yul\":993:1023   */\n      gt\n        /* \"#utility.yul\":990:1107   */\n      iszero\n      tag_130\n      jumpi\n        /* \"#utility.yul\":1026:1105   */\n      tag_131\n      tag_84\n      jump\t// in\n    tag_131:\n        /* \"#utility.yul\":990:1107   */\n    tag_130:\n        /* \"#utility.yul\":1140:1144   */\n      0x20\n        /* \"#utility.yul\":1132:1138   */\n      dup4\n        /* \"#utility.yul\":1128:1145   */\n      add\n        /* \"#utility.yul\":1116:1145   */\n      swap2\n      pop\n        /* \"#utility.yul\":1194:1197   */\n      dup4\n        /* \"#utility.yul\":1186:1190   */\n      0x20\n        /* \"#utility.yul\":1178:1184   */\n      dup3\n        /* \"#utility.yul\":1174:1191   */\n      mul\n        /* \"#utility.yul\":1164:1172   */\n      dup4\n        /* \"#utility.yul\":1160:1192   */\n      add\n        /* \"#utility.yul\":1157:1198   */\n      gt\n        /* \"#utility.yul\":1154:1282   */\n      iszero\n      tag_132\n      jumpi\n        /* \"#utility.yul\":1201:1280   */\n      tag_133\n      tag_85\n      jump\t// in\n    tag_133:\n        /* \"#utility.yul\":1154:1282   */\n    tag_132:\n        /* \"#utility.yul\":720:1288   */\n      swap3\n      pop\n      swap3\n      swap1\n      pop\n      jump\t// out\n        /* \"#utility.yul\":1294:1853   */\n    tag_9:\n        /* \"#utility.yul\":1380:1386   */\n      0x00\n        /* \"#utility.yul\":1388:1394   */\n      dup1\n        /* \"#utility.yul\":1437:1439   */\n      0x20\n        /* \"#utility.yul\":1425:1434   */\n      dup4\n        /* \"#utility.yul\":1416:1423   */\n      dup6\n        /* \"#utility.yul\":1412:1435   */\n      sub\n        /* \"#utility.yul\":1408:1440   */\n      slt\n        /* \"#utility.yul\":1405:1524   */\n      iszero\n      tag_135\n      jumpi\n        /* \"#utility.yul\":1443:1522   */\n      tag_136\n      tag_81\n      jump\t// in\n    tag_136:\n        /* \"#utility.yul\":1405:1524   */\n    tag_135:\n        /* \"#utility.yul\":1591:1592   */\n      0x00\n        /* \"#utility.yul\":1580:1589   */\n      dup4\n        /* \"#utility.yul\":1576:1593   */\n      add\n        /* \"#utility.yul\":1563:1594   */\n      calldataload\n        /* \"#utility.yul\":1621:1639   */\n      0xffffffffffffffff\n        /* \"#utility.yul\":1613:1619   */\n      dup2\n        /* \"#utility.yul\":1610:1640   */\n      gt\n        /* \"#utility.yul\":1607:1724   */\n      iszero\n      tag_137\n      jumpi\n        /* \"#utility.yul\":1643:1722   */\n      tag_138\n      tag_82\n      jump\t// in\n    tag_138:\n        /* \"#utility.yul\":1607:1724   */\n    tag_137:\n        /* \"#utility.yul\":1756:1836   */\n      tag_139\n        /* \"#utility.yul\":1828:1835   */\n      dup6\n        /* \"#utility.yul\":1819:1825   */\n      dup3\n        /* \"#utility.yul\":1808:1817   */\n      dup7\n        /* \"#utility.yul\":1804:1826   */\n      add\n        /* \"#utility.yul\":1756:1836   */\n      tag_86\n      jump\t// in\n    tag_139:\n        /* \"#utility.yul\":1738:1836   */\n      swap3\n      pop\n      swap3\n      pop\n        /* \"#utility.yul\":1534:1846   */\n      pop\n        /* \"#utility.yul\":1294:1853   */\n      swap3\n      pop\n      swap3\n      swap1\n      pop\n      jump\t// out\n        /* \"#utility.yul\":1859:1936   */\n    tag_87:\n        /* \"#utility.yul\":1896:1903   */\n      0x00\n        /* \"#utility.yul\":1925:1930   */\n      dup2\n        /* \"#utility.yul\":1914:1930   */\n      swap1\n      pop\n        /* \"#utility.yul\":1859:1936   */\n      swap2\n      swap1\n      pop\n      jump\t// out\n        /* \"#utility.yul\":1942:2060   */\n    tag_88:\n        /* \"#utility.yul\":2029:2053   */\n      tag_142\n        /* \"#utility.yul\":2047:2052   */\n      dup2\n        /* \"#utility.yul\":2029:2053   */\n      tag_87\n      jump\t// in\n    tag_142:\n        /* \"#utility.yul\":2024:2027   */\n      dup3\n        /* \"#utility.yul\":2017:2054   */\n      mstore\n        /* \"#utility.yul\":1942:2060   */\n      pop\n      pop\n      jump\t// out\n        /* \"#utility.yul\":2066:2288   */\n    tag_12:\n        /* \"#utility.yul\":2159:2163   */\n      0x00\n        /* \"#utility.yul\":2197:2199   */\n      0x20\n        /* \"#utility.yul\":2186:2195   */\n      dup3\n        /* \"#utility.yul\":2182:2200   */\n      add\n        /* \"#utility.yul\":2174:2200   */\n      swap1\n      pop\n        /* \"#utility.yul\":2210:2281   */\n      tag_144\n        /* \"#utility.yul\":2278:2279   */\n      0x00\n        /* \"#utility.yul\":2267:2276   */\n      dup4\n        /* \"#utility.yul\":2263:2280   */\n      add\n        /* \"#utility.yul\":2254:2260   */\n      dup5\n        /* \"#utility.yul\":2210:2281   */\n      tag_88\n      jump\t// in\n    tag_144:\n        /* \"#utility.yul\":2066:2288   */\n      swap3\n      swap2\n      pop\n      pop\n      jump\t// out\n        /* \"#utility.yul\":2294:2420   */\n    tag_89:\n        /* \"#utility.yul\":2331:2338   */\n      0x00\n        /* \"#utility.yul\":2371:2413   */\n      0xffffffffffffffffffffffffffffffffffffffff\n        /* \"#utility.yul\":2364:2369   */\n      dup3\n        /* \"#utility.yul\":2360:2414   */\n      and\n        /* \"#utility.yul\":2349:2414   */\n      swap1\n      pop\n        /* \"#utility.yul\":2294:2420   */\n      swap2\n      swap1\n      pop\n      jump\t// out\n        /* \"#utility.yul\":2426:2522   */\n    tag_90:\n        /* \"#utility.yul\":2463:2470   */\n      0x00\n        /* \"#utility.yul\":2492:2516   */\n      tag_147\n        /* \"#utility.yul\":2510:2515   */\n      dup3\n        /* \"#utility.yul\":2492:2516   */\n      tag_89\n      jump\t// in\n    tag_147:\n        /* \"#utility.yul\":2481:2516   */\n      swap1\n      pop\n        /* \"#utility.yul\":2426:2522   */\n      swap2\n      swap1\n      pop\n      jump\t// out\n        /* \"#utility.yul\":2528:2650   */\n    tag_91:\n        /* \"#utility.yul\":2601:2625   */\n      tag_149\n        /* \"#utility.yul\":2619:2624   */\n      dup2\n        /* \"#utility.yul\":2601:2625   */\n      tag_90\n      jump\t// in\n    tag_149:\n        /* \"#utility.yul\":2594:2599   */\n      dup2\n        /* \"#utility.yul\":2591:2626   */\n      eq\n        /* \"#utility.yul\":2581:2644   */\n      tag_150\n      jumpi\n        /* \"#utility.yul\":2640:2641   */\n      0x00\n        /* \"#utility.yul\":2637:2638   */\n      dup1\n        /* \"#utility.yul\":2630:2642   */\n      revert\n        /* \"#utility.yul\":2581:2644   */\n    tag_150:\n        /* \"#utility.yul\":2528:2650   */\n      pop\n      jump\t// out\n        /* \"#utility.yul\":2656:2795   */\n    tag_92:\n        /* \"#utility.yul\":2702:2707   */\n      0x00\n        /* \"#utility.yul\":2740:2746   */\n      dup2\n        /* \"#utility.yul\":2727:2747   */\n      calldataload\n        /* \"#utility.yul\":2718:2747   */\n      swap1\n      pop\n        /* \"#utility.yul\":2756:2789   */\n      tag_152\n        /* \"#utility.yul\":2783:2788   */\n      dup2\n        /* \"#utility.yul\":2756:2789   */\n      tag_91\n      jump\t// in\n    tag_152:\n        /* \"#utility.yul\":2656:2795   */\n      swap3\n      swap2\n      pop\n      pop\n      jump\t// out\n        /* \"#utility.yul\":2801:3130   */\n    tag_15:\n        /* \"#utility.yul\":2860:2866   */\n      0x00\n        /* \"#utility.yul\":2909:2911   */\n      0x20\n        /* \"#utility.yul\":2897:2906   */\n      dup3\n        /* \"#utility.yul\":2888:2895   */\n      dup5\n        /* \"#utility.yul\":2884:2907   */\n      sub\n        /* \"#utility.yul\":2880:2912   */\n      slt\n        /* \"#utility.yul\":2877:2996   */\n      iszero\n      tag_154\n      jumpi\n        /* \"#utility.yul\":2915:2994   */\n      tag_155\n      tag_81\n      jump\t// in\n    tag_155:\n        /* \"#utility.yul\":2877:2996   */\n    tag_154:\n        /* \"#utility.yul\":3035:3036   */\n      0x00\n        /* \"#utility.yul\":3060:3113   */\n      tag_156\n        /* \"#utility.yul\":3105:3112   */\n      dup5\n        /* \"#utility.yul\":3096:3102   */\n      dup3\n        /* \"#utility.yul\":3085:3094   */\n      dup6\n        /* \"#utility.yul\":3081:3103   */\n      add\n        /* \"#utility.yul\":3060:3113   */\n      tag_92\n      jump\t// in\n    tag_156:\n        /* \"#utility.yul\":3050:3113   */\n      swap2\n      pop\n        /* \"#utility.yul\":3006:3123   */\n      pop\n        /* \"#utility.yul\":2801:3130   */\n      swap3\n      swap2\n      pop\n      pop\n      jump\t// out\n        /* \"#utility.yul\":3136:3250   */\n    tag_93:\n        /* \"#utility.yul\":3203:3209   */\n      0x00\n        /* \"#utility.yul\":3237:3242   */\n      dup2\n        /* \"#utility.yul\":3231:3243   */\n      mload\n        /* \"#utility.yul\":3221:3243   */\n      swap1\n      pop\n        /* \"#utility.yul\":3136:3250   */\n      swap2\n      swap1\n      pop\n      jump\t// out\n        /* \"#utility.yul\":3256:3440   */\n    tag_94:\n        /* \"#utility.yul\":3355:3366   */\n      0x00\n        /* \"#utility.yul\":3389:3395   */\n      dup3\n        /* \"#utility.yul\":3384:3387   */\n      dup3\n        /* \"#utility.yul\":3377:3396   */\n      mstore\n        /* \"#utility.yul\":3429:3433   */\n      0x20\n        /* \"#utility.yul\":3424:3427   */\n      dup3\n        /* \"#utility.yul\":3420:3434   */\n      add\n        /* \"#utility.yul\":3405:3434   */\n      swap1\n      pop\n        /* \"#utility.yul\":3256:3440   */\n      swap3\n      swap2\n      pop\n      pop\n      jump\t// out\n        /* \"#utility.yul\":3446:3578   */\n    tag_95:\n        /* \"#utility.yul\":3513:3517   */\n      0x00\n        /* \"#utility.yul\":3536:3539   */\n      dup2\n        /* \"#utility.yul\":3528:3539   */\n      swap1\n      pop\n        /* \"#utility.yul\":3566:3570   */\n      0x20\n        /* \"#utility.yul\":3561:3564   */\n      dup3\n        /* \"#utility.yul\":3557:3571   */\n      add\n        /* \"#utility.yul\":3549:3571   */\n      swap1\n      pop\n        /* \"#utility.yul\":3446:3578   */\n      swap2\n      swap1\n      pop\n      jump\t// out\n        /* \"#utility.yul\":3584:3692   */\n    tag_96:\n        /* \"#utility.yul\":3661:3685   */\n      tag_161\n        /* \"#utility.yul\":3679:3684   */\n      dup2\n        /* \"#utility.yul\":3661:3685   */\n      tag_90\n      jump\t// in\n    tag_161:\n        /* \"#utility.yul\":3656:3659   */\n      dup3\n        /* \"#utility.yul\":3649:3686   */\n      mstore\n        /* \"#utility.yul\":3584:3692   */\n      pop\n      pop\n      jump\t// out\n        /* \"#utility.yul\":3698:3877   */\n    tag_97:\n        /* \"#utility.yul\":3767:3777   */\n      0x00\n        /* \"#utility.yul\":3788:3834   */\n      tag_163\n        /* \"#utility.yul\":3830:3833   */\n      dup4\n        /* \"#utility.yul\":3822:3828   */\n      dup4\n        /* \"#utility.yul\":3788:3834   */\n      tag_96\n      jump\t// in\n    tag_163:\n        /* \"#utility.yul\":3866:3870   */\n      0x20\n        /* \"#utility.yul\":3861:3864   */\n      dup4\n        /* \"#utility.yul\":3857:3871   */\n      add\n        /* \"#utility.yul\":3843:3871   */\n      swap1\n      pop\n        /* \"#utility.yul\":3698:3877   */\n      swap3\n      swap2\n      pop\n      pop\n      jump\t// out\n        /* \"#utility.yul\":3883:3996   */\n    tag_98:\n        /* \"#utility.yul\":3953:3957   */\n      0x00\n        /* \"#utility.yul\":3985:3989   */\n      0x20\n        /* \"#utility.yul\":3980:3983   */\n      dup3\n        /* \"#utility.yul\":3976:3990   */\n      add\n        /* \"#utility.yul\":3968:3990   */\n      swap1\n      pop\n        /* \"#utility.yul\":3883:3996   */\n      swap2\n      swap1\n      pop\n      jump\t// out\n        /* \"#utility.yul\":4032:4764   */\n    tag_99:\n        /* \"#utility.yul\":4151:4154   */\n      0x00\n        /* \"#utility.yul\":4180:4234   */\n      tag_166\n        /* \"#utility.yul\":4228:4233   */\n      dup3\n        /* \"#utility.yul\":4180:4234   */\n      tag_93\n      jump\t// in\n    tag_166:\n        /* \"#utility.yul\":4250:4336   */\n      tag_167\n        /* \"#utility.yul\":4329:4335   */\n      dup2\n        /* \"#utility.yul\":4324:4327   */\n      dup6\n        /* \"#utility.yul\":4250:4336   */\n      tag_94\n      jump\t// in\n    tag_167:\n        /* \"#utility.yul\":4243:4336   */\n      swap4\n      pop\n        /* \"#utility.yul\":4360:4416   */\n      tag_168\n        /* \"#utility.yul\":4410:4415   */\n      dup4\n        /* \"#utility.yul\":4360:4416   */\n      tag_95\n      jump\t// in\n    tag_168:\n        /* \"#utility.yul\":4439:4446   */\n      dup1\n        /* \"#utility.yul\":4470:4471   */\n      0x00\n        /* \"#utility.yul\":4455:4739   */\n    tag_169:\n        /* \"#utility.yul\":4480:4486   */\n      dup4\n        /* \"#utility.yul\":4477:4478   */\n      dup2\n        /* \"#utility.yul\":4474:4487   */\n      lt\n        /* \"#utility.yul\":4455:4739   */\n      iszero\n      tag_171\n      jumpi\n        /* \"#utility.yul\":4556:4562   */\n      dup2\n        /* \"#utility.yul\":4550:4563   */\n      mload\n        /* \"#utility.yul\":4583:4646   */\n      tag_172\n        /* \"#utility.yul\":4642:4645   */\n      dup9\n        /* \"#utility.yul\":4627:4640   */\n      dup3\n        /* \"#utility.yul\":4583:4646   */\n      tag_97\n      jump\t// in\n    tag_172:\n        /* \"#utility.yul\":4576:4646   */\n      swap8\n      pop\n        /* \"#utility.yul\":4669:4729   */\n      tag_173\n        /* \"#utility.yul\":4722:4728   */\n      dup4\n        /* \"#utility.yul\":4669:4729   */\n      tag_98\n      jump\t// in\n    tag_173:\n        /* \"#utility.yul\":4659:4729   */\n      swap3\n      pop\n        /* \"#utility.yul\":4515:4739   */\n      pop\n        /* \"#utility.yul\":4502:4503   */\n      0x01\n        /* \"#utility.yul\":4499:4500   */\n      dup2\n        /* \"#utility.yul\":4495:4504   */\n      add\n        /* \"#utility.yul\":4490:4504   */\n      swap1\n      pop\n        /* \"#utility.yul\":4455:4739   */\n      jump(tag_169)\n    tag_171:\n        /* \"#utility.yul\":4459:4473   */\n      pop\n        /* \"#utility.yul\":4755:4758   */\n      dup6\n        /* \"#utility.yul\":4748:4758   */\n      swap4\n      pop\n        /* \"#utility.yul\":4156:4764   */\n      pop\n      pop\n      pop\n        /* \"#utility.yul\":4032:4764   */\n      swap3\n      swap2\n      pop\n      pop\n      jump\t// out\n        /* \"#utility.yul\":4770:5143   */\n    tag_18:\n        /* \"#utility.yul\":4913:4917   */\n      0x00\n        /* \"#utility.yul\":4951:4953   */\n      0x20\n        /* \"#utility.yul\":4940:4949   */\n      dup3\n        /* \"#utility.yul\":4936:4954   */\n      add\n        /* \"#utility.yul\":4928:4954   */\n      swap1\n      pop\n        /* \"#utility.yul\":5000:5009   */\n      dup2\n        /* \"#utility.yul\":4994:4998   */\n      dup2\n        /* \"#utility.yul\":4990:5010   */\n      sub\n        /* \"#utility.yul\":4986:4987   */\n      0x00\n        /* \"#utility.yul\":4975:4984   */\n      dup4\n        /* \"#utility.yul\":4971:4988   */\n      add\n        /* \"#utility.yul\":4964:5011   */\n      mstore\n        /* \"#utility.yul\":5028:5136   */\n      tag_175\n        /* \"#utility.yul\":5131:5135   */\n      dup2\n        /* \"#utility.yul\":5122:5128   */\n      dup5\n        /* \"#utility.yul\":5028:5136   */\n      tag_99\n      jump\t// in\n    tag_175:\n        /* \"#utility.yul\":5020:5136   */\n      swap1\n      pop\n        /* \"#utility.yul\":4770:5143   */\n      swap3\n      swap2\n      pop\n      pop\n      jump\t// out\n        /* \"#utility.yul\":5149:5251   */\n    tag_100:\n        /* \"#utility.yul\":5190:5196   */\n      0x00\n        /* \"#utility.yul\":5241:5243   */\n      0x1f\n        /* \"#utility.yul\":5237:5244   */\n      not\n        /* \"#utility.yul\":5232:5234   */\n      0x1f\n        /* \"#utility.yul\":5225:5230   */\n      dup4\n        /* \"#utility.yul\":5221:5235   */\n      add\n        /* \"#utility.yul\":5217:5245   */\n      and\n        /* \"#utility.yul\":5207:5245   */\n      swap1\n      pop\n        /* \"#utility.yul\":5149:5251   */\n      swap2\n      swap1\n      pop\n      jump\t// out\n        /* \"#utility.yul\":5257:5437   */\n    tag_101:\n        /* \"#utility.yul\":5305:5382   */\n      0x4e487b7100000000000000000000000000000000000000000000000000000000\n        /* \"#utility.yul\":5302:5303   */\n      0x00\n        /* \"#utility.yul\":5295:5383   */\n      mstore\n        /* \"#utility.yul\":5402:5406   */\n      0x41\n        /* \"#utility.yul\":5399:5400   */\n      0x04\n        /* \"#utility.yul\":5392:5407   */\n      mstore\n        /* \"#utility.yul\":5426:5430   */\n      0x24\n        /* \"#utility.yul\":5423:5424   */\n      0x00\n        /* \"#utility.yul\":5416:5431   */\n      revert\n        /* \"#utility.yul\":5443:5724   */\n    tag_102:\n        /* \"#utility.yul\":5526:5553   */\n      tag_179\n        /* \"#utility.yul\":5548:5552   */\n      dup3\n        /* \"#utility.yul\":5526:5553   */\n      tag_100\n      jump\t// in\n    tag_179:\n        /* \"#utility.yul\":5518:5524   */\n      dup2\n        /* \"#utility.yul\":5514:5554   */\n      add\n        /* \"#utility.yul\":5656:5662   */\n      dup2\n        /* \"#utility.yul\":5644:5654   */\n      dup2\n        /* \"#utility.yul\":5641:5663   */\n      lt\n        /* \"#utility.yul\":5620:5638   */\n      0xffffffffffffffff\n        /* \"#utility.yul\":5608:5618   */\n      dup3\n        /* \"#utility.yul\":5605:5639   */\n      gt\n        /* \"#utility.yul\":5602:5664   */\n      or\n        /* \"#utility.yul\":5599:5687   */\n      iszero\n      tag_180\n      jumpi\n        /* \"#utility.yul\":5667:5685   */\n      tag_181\n      tag_101\n      jump\t// in\n    tag_181:\n        /* \"#utility.yul\":5599:5687   */\n    tag_180:\n        /* \"#utility.yul\":5707:5717   */\n      dup1\n        /* \"#utility.yul\":5703:5705   */\n      0x40\n        /* \"#utility.yul\":5696:5718   */\n      mstore\n        /* \"#utility.yul\":5486:5724   */\n      pop\n        /* \"#utility.yul\":5443:5724   */\n      pop\n      pop\n      jump\t// out\n        /* \"#utility.yul\":5730:5859   */\n    tag_103:\n        /* \"#utility.yul\":5764:5770   */\n      0x00\n        /* \"#utility.yul\":5791:5811   */\n      tag_183\n      tag_80\n      jump\t// in\n    tag_183:\n        /* \"#utility.yul\":5781:5811   */\n      swap1\n      pop\n        /* \"#utility.yul\":5820:5853   */\n      tag_184\n        /* \"#utility.yul\":5848:5852   */\n      dup3\n        /* \"#utility.yul\":5840:5846   */\n      dup3\n        /* \"#utility.yul\":5820:5853   */\n      tag_102\n      jump\t// in\n    tag_184:\n        /* \"#utility.yul\":5730:5859   */\n      swap2\n      swap1\n      pop\n      jump\t// out\n        /* \"#utility.yul\":5865:6176   */\n    tag_104:\n        /* \"#utility.yul\":5942:5946   */\n      0x00\n        /* \"#utility.yul\":6032:6050   */\n      0xffffffffffffffff\n        /* \"#utility.yul\":6024:6030   */\n      dup3\n        /* \"#utility.yul\":6021:6051   */\n      gt\n        /* \"#utility.yul\":6018:6074   */\n      iszero\n      tag_186\n      jumpi\n        /* \"#utility.yul\":6054:6072   */\n      tag_187\n      tag_101\n      jump\t// in\n    tag_187:\n        /* \"#utility.yul\":6018:6074   */\n    tag_186:\n        /* \"#utility.yul\":6104:6108   */\n      0x20\n        /* \"#utility.yul\":6096:6102   */\n      dup3\n        /* \"#utility.yul\":6092:6109   */\n      mul\n        /* \"#utility.yul\":6084:6109   */\n      swap1\n      pop\n        /* \"#utility.yul\":6164:6168   */\n      0x20\n        /* \"#utility.yul\":6158:6162   */\n      dup2\n        /* \"#utility.yul\":6154:6169   */\n      add\n        /* \"#utility.yul\":6146:6169   */\n      swap1\n      pop\n        /* \"#utility.yul\":5865:6176   */\n      swap2\n      swap1\n      pop\n      jump\t// out\n        /* \"#utility.yul\":6199:6909   */\n    tag_105:\n        /* \"#utility.yul\":6295:6300   */\n      0x00\n        /* \"#utility.yul\":6320:6401   */\n      tag_189\n        /* \"#utility.yul\":6336:6400   */\n      tag_190\n        /* \"#utility.yul\":6393:6399   */\n      dup5\n        /* \"#utility.yul\":6336:6400   */\n      tag_104\n      jump\t// in\n    tag_190:\n        /* \"#utility.yul\":6320:6401   */\n      tag_103\n      jump\t// in\n    tag_189:\n        /* \"#utility.yul\":6311:6401   */\n      swap1\n      pop\n        /* \"#utility.yul\":6421:6426   */\n      dup1\n        /* \"#utility.yul\":6450:6456   */\n      dup4\n        /* \"#utility.yul\":6443:6448   */\n      dup3\n        /* \"#utility.yul\":6436:6457   */\n      mstore\n        /* \"#utility.yul\":6484:6488   */\n      0x20\n        /* \"#utility.yul\":6477:6482   */\n      dup3\n        /* \"#utility.yul\":6473:6489   */\n      add\n        /* \"#utility.yul\":6466:6489   */\n      swap1\n      pop\n        /* \"#utility.yul\":6537:6541   */\n      0x20\n        /* \"#utility.yul\":6529:6535   */\n      dup5\n        /* \"#utility.yul\":6525:6542   */\n      mul\n        /* \"#utility.yul\":6517:6523   */\n      dup4\n        /* \"#utility.yul\":6513:6543   */\n      add\n        /* \"#utility.yul\":6566:6569   */\n      dup6\n        /* \"#utility.yul\":6558:6564   */\n      dup2\n        /* \"#utility.yul\":6555:6570   */\n      gt\n        /* \"#utility.yul\":6552:6674   */\n      iszero\n      tag_191\n      jumpi\n        /* \"#utility.yul\":6585:6664   */\n      tag_192\n      tag_85\n      jump\t// in\n    tag_192:\n        /* \"#utility.yul\":6552:6674   */\n    tag_191:\n        /* \"#utility.yul\":6700:6706   */\n      dup4\n        /* \"#utility.yul\":6683:6903   */\n    tag_193:\n        /* \"#utility.yul\":6717:6723   */\n      dup2\n        /* \"#utility.yul\":6712:6715   */\n      dup2\n        /* \"#utility.yul\":6709:6724   */\n      lt\n        /* \"#utility.yul\":6683:6903   */\n      iszero\n      tag_195\n      jumpi\n        /* \"#utility.yul\":6792:6795   */\n      dup1\n        /* \"#utility.yul\":6821:6858   */\n      tag_196\n        /* \"#utility.yul\":6854:6857   */\n      dup9\n        /* \"#utility.yul\":6842:6852   */\n      dup3\n        /* \"#utility.yul\":6821:6858   */\n      tag_92\n      jump\t// in\n    tag_196:\n        /* \"#utility.yul\":6816:6819   */\n      dup5\n        /* \"#utility.yul\":6809:6859   */\n      mstore\n        /* \"#utility.yul\":6888:6892   */\n      0x20\n        /* \"#utility.yul\":6883:6886   */\n      dup5\n        /* \"#utility.yul\":6879:6893   */\n      add\n        /* \"#utility.yul\":6872:6893   */\n      swap4\n      pop\n        /* \"#utility.yul\":6759:6903   */\n      pop\n        /* \"#utility.yul\":6743:6747   */\n      0x20\n        /* \"#utility.yul\":6738:6741   */\n      dup2\n        /* \"#utility.yul\":6734:6748   */\n      add\n        /* \"#utility.yul\":6727:6748   */\n      swap1\n      pop\n        /* \"#utility.yul\":6683:6903   */\n      jump(tag_193)\n    tag_195:\n        /* \"#utility.yul\":6687:6708   */\n      pop\n        /* \"#utility.yul\":6301:6909   */\n      pop\n      pop\n        /* \"#utility.yul\":6199:6909   */\n      swap4\n      swap3\n      pop\n      pop\n      pop\n      jump\t// out\n        /* \"#utility.yul\":6932:7302   */\n    tag_106:\n        /* \"#utility.yul\":7003:7008   */\n      0x00\n        /* \"#utility.yul\":7052:7055   */\n      dup3\n        /* \"#utility.yul\":7045:7049   */\n      0x1f\n        /* \"#utility.yul\":7037:7043   */\n      dup4\n        /* \"#utility.yul\":7033:7050   */\n      add\n        /* \"#utility.yul\":7029:7056   */\n      slt\n        /* \"#utility.yul\":7019:7141   */\n      tag_198\n      jumpi\n        /* \"#utility.yul\":7060:7139   */\n      tag_199\n      tag_83\n      jump\t// in\n    tag_199:\n        /* \"#utility.yul\":7019:7141   */\n    tag_198:\n        /* \"#utility.yul\":7177:7183   */\n      dup2\n        /* \"#utility.yul\":7164:7184   */\n      calldataload\n        /* \"#utility.yul\":7202:7296   */\n      tag_200\n        /* \"#utility.yul\":7292:7295   */\n      dup5\n        /* \"#utility.yul\":7284:7290   */\n      dup3\n        /* \"#utility.yul\":7277:7281   */\n      0x20\n        /* \"#utility.yul\":7269:7275   */\n      dup7\n        /* \"#utility.yul\":7265:7282   */\n      add\n        /* \"#utility.yul\":7202:7296   */\n      tag_105\n      jump\t// in\n    tag_200:\n        /* \"#utility.yul\":7193:7296   */\n      swap2\n      pop\n        /* \"#utility.yul\":7009:7302   */\n      pop\n        /* \"#utility.yul\":6932:7302   */\n      swap3\n      swap2\n      pop\n      pop\n      jump\t// out\n        /* \"#utility.yul\":7308:7847   */\n    tag_21:\n        /* \"#utility.yul\":7392:7398   */\n      0x00\n        /* \"#utility.yul\":7441:7443   */\n      0x20\n        /* \"#utility.yul\":7429:7438   */\n      dup3\n        /* \"#utility.yul\":7420:7427   */\n      dup5\n        /* \"#utility.yul\":7416:7439   */\n      sub\n        /* \"#utility.yul\":7412:7444   */\n      slt\n        /* \"#utility.yul\":7409:7528   */\n      iszero\n      tag_202\n      jumpi\n        /* \"#utility.yul\":7447:7526   */\n      tag_203\n      tag_81\n      jump\t// in\n    tag_203:\n        /* \"#utility.yul\":7409:7528   */\n    tag_202:\n        /* \"#utility.yul\":7595:7596   */\n      0x00\n        /* \"#utility.yul\":7584:7593   */\n      dup3\n        /* \"#utility.yul\":7580:7597   */\n      add\n        /* \"#utility.yul\":7567:7598   */\n      calldataload\n        /* \"#utility.yul\":7625:7643   */\n      0xffffffffffffffff\n        /* \"#utility.yul\":7617:7623   */\n      dup2\n        /* \"#utility.yul\":7614:7644   */\n      gt\n        /* \"#utility.yul\":7611:7728   */\n      iszero\n      tag_204\n      jumpi\n        /* \"#utility.yul\":7647:7726   */\n      tag_205\n      tag_82\n      jump\t// in\n    tag_205:\n        /* \"#utility.yul\":7611:7728   */\n    tag_204:\n        /* \"#utility.yul\":7752:7830   */\n      tag_206\n        /* \"#utility.yul\":7822:7829   */\n      dup5\n        /* \"#utility.yul\":7813:7819   */\n      dup3\n        /* \"#utility.yul\":7802:7811   */\n      dup6\n        /* \"#utility.yul\":7798:7820   */\n      add\n        /* \"#utility.yul\":7752:7830   */\n      tag_106\n      jump\t// in\n    tag_206:\n        /* \"#utility.yul\":7742:7830   */\n      swap2\n      pop\n        /* \"#utility.yul\":7538:7840   */\n      pop\n        /* \"#utility.yul\":7308:7847   */\n      swap3\n      swap2\n      pop\n      pop\n      jump\t// out\n        /* \"#utility.yul\":7853:7970   */\n    tag_107:\n        /* \"#utility.yul\":7962:7963   */\n      0x00\n        /* \"#utility.yul\":7959:7960   */\n      dup1\n        /* \"#utility.yul\":7952:7964   */\n      revert\n        /* \"#utility.yul\":7976:8283   */\n    tag_108:\n        /* \"#utility.yul\":8037:8041   */\n      0x00\n        /* \"#utility.yul\":8127:8145   */\n      0xffffffffffffffff\n        /* \"#utility.yul\":8119:8125   */\n      dup3\n        /* \"#utility.yul\":8116:8146   */\n      gt\n        /* \"#utility.yul\":8113:8169   */\n      iszero\n      tag_209\n      jumpi\n        /* \"#utility.yul\":8149:8167   */\n      tag_210\n      tag_101\n      jump\t// in\n    tag_210:\n        /* \"#utility.yul\":8113:8169   */\n    tag_209:\n        /* \"#utility.yul\":8187:8216   */\n      tag_211\n        /* \"#utility.yul\":8209:8215   */\n      dup3\n        /* \"#utility.yul\":8187:8216   */\n      tag_100\n      jump\t// in\n    tag_211:\n        /* \"#utility.yul\":8179:8216   */\n      swap1\n      pop\n        /* \"#utility.yul\":8271:8275   */\n      0x20\n        /* \"#utility.yul\":8265:8269   */\n      dup2\n        /* \"#utility.yul\":8261:8276   */\n      add\n        /* \"#utility.yul\":8253:8276   */\n      swap1\n      pop\n        /* \"#utility.yul\":7976:8283   */\n      swap2\n      swap1\n      pop\n      jump\t// out\n        /* \"#utility.yul\":8289:8437   */\n    tag_109:\n        /* \"#utility.yul\":8387:8393   */\n      dup3\n        /* \"#utility.yul\":8382:8385   */\n      dup2\n        /* \"#utility.yul\":8377:8380   */\n      dup4\n        /* \"#utility.yul\":8364:8394   */\n      calldatacopy\n        /* \"#utility.yul\":8428:8429   */\n      0x00\n        /* \"#utility.yul\":8419:8425   */\n      dup4\n        /* \"#utility.yul\":8414:8417   */\n      dup4\n        /* \"#utility.yul\":8410:8426   */\n      add\n        /* \"#utility.yul\":8403:8430   */\n      mstore\n        /* \"#utility.yul\":8289:8437   */\n      pop\n      pop\n      pop\n      jump\t// out\n        /* \"#utility.yul\":8443:8866   */\n    tag_110:\n        /* \"#utility.yul\":8520:8525   */\n      0x00\n        /* \"#utility.yul\":8545:8610   */\n      tag_214\n        /* \"#utility.yul\":8561:8609   */\n      tag_215\n        /* \"#utility.yul\":8602:8608   */\n      dup5\n        /* \"#utility.yul\":8561:8609   */\n      tag_108\n      jump\t// in\n    tag_215:\n        /* \"#utility.yul\":8545:8610   */\n      tag_103\n      jump\t// in\n    tag_214:\n        /* \"#utility.yul\":8536:8610   */\n      swap1\n      pop\n        /* \"#utility.yul\":8633:8639   */\n      dup3\n        /* \"#utility.yul\":8626:8631   */\n      dup2\n        /* \"#utility.yul\":8619:8640   */\n      mstore\n        /* \"#utility.yul\":8671:8675   */\n      0x20\n        /* \"#utility.yul\":8664:8669   */\n      dup2\n        /* \"#utility.yul\":8660:8676   */\n      add\n        /* \"#utility.yul\":8709:8712   */\n      dup5\n        /* \"#utility.yul\":8700:8706   */\n      dup5\n        /* \"#utility.yul\":8695:8698   */\n      dup5\n        /* \"#utility.yul\":8691:8707   */\n      add\n        /* \"#utility.yul\":8688:8713   */\n      gt\n        /* \"#utility.yul\":8685:8797   */\n      iszero\n      tag_216\n      jumpi\n        /* \"#utility.yul\":8716:8795   */\n      tag_217\n      tag_107\n      jump\t// in\n    tag_217:\n        /* \"#utility.yul\":8685:8797   */\n    tag_216:\n        /* \"#utility.yul\":8806:8860   */\n      tag_218\n        /* \"#utility.yul\":8853:8859   */\n      dup5\n        /* \"#utility.yul\":8848:8851   */\n      dup3\n        /* \"#utility.yul\":8843:8846   */\n      dup6\n        /* \"#utility.yul\":8806:8860   */\n      tag_109\n      jump\t// in\n    tag_218:\n        /* \"#utility.yul\":8526:8866   */\n      pop\n        /* \"#utility.yul\":8443:8866   */\n      swap4\n      swap3\n      pop\n      pop\n      pop\n      jump\t// out\n        /* \"#utility.yul\":8885:9223   */\n    tag_111:\n        /* \"#utility.yul\":8940:8945   */\n      0x00\n        /* \"#utility.yul\":8989:8992   */\n      dup3\n        /* \"#utility.yul\":8982:8986   */\n      0x1f\n        /* \"#utility.yul\":8974:8980   */\n      dup4\n        /* \"#utility.yul\":8970:8987   */\n      add\n        /* \"#utility.yul\":8966:8993   */\n      slt\n        /* \"#utility.yul\":8956:9078   */\n      tag_220\n      jumpi\n        /* \"#utility.yul\":8997:9076   */\n      tag_221\n      tag_83\n      jump\t// in\n    tag_221:\n        /* \"#utility.yul\":8956:9078   */\n    tag_220:\n        /* \"#utility.yul\":9114:9120   */\n      dup2\n        /* \"#utility.yul\":9101:9121   */\n      calldataload\n        /* \"#utility.yul\":9139:9217   */\n      tag_222\n        /* \"#utility.yul\":9213:9216   */\n      dup5\n        /* \"#utility.yul\":9205:9211   */\n      dup3\n        /* \"#utility.yul\":9198:9202   */\n      0x20\n        /* \"#utility.yul\":9190:9196   */\n      dup7\n        /* \"#utility.yul\":9186:9203   */\n      add\n        /* \"#utility.yul\":9139:9217   */\n      tag_110\n      jump\t// in\n    tag_222:\n        /* \"#utility.yul\":9130:9217   */\n      swap2\n      pop\n        /* \"#utility.yul\":8946:9223   */\n      pop\n        /* \"#utility.yul\":8885:9223   */\n      swap3\n      swap2\n      pop\n      pop\n      jump\t// out\n        /* \"#utility.yul\":9229:9537   */\n    tag_112:\n        /* \"#utility.yul\":9291:9295   */\n      0x00\n        /* \"#utility.yul\":9381:9399   */\n      0xffffffffffffffff\n        /* \"#utility.yul\":9373:9379   */\n      dup3\n        /* \"#utility.yul\":9370:9400   */\n      gt\n        /* \"#utility.yul\":9367:9423   */\n      iszero\n      tag_224\n      jumpi\n        /* \"#utility.yul\":9403:9421   */\n      tag_225\n      tag_101\n      jump\t// in\n    tag_225:\n        /* \"#utility.yul\":9367:9423   */\n    tag_224:\n        /* \"#utility.yul\":9441:9470   */\n      tag_226\n        /* \"#utility.yul\":9463:9469   */\n      dup3\n        /* \"#utility.yul\":9441:9470   */\n      tag_100\n      jump\t// in\n    tag_226:\n        /* \"#utility.yul\":9433:9470   */\n      swap1\n      pop\n        /* \"#utility.yul\":9525:9529   */\n      0x20\n        /* \"#utility.yul\":9519:9523   */\n      dup2\n        /* \"#utility.yul\":9515:9530   */\n      add\n        /* \"#utility.yul\":9507:9530   */\n      swap1\n      pop\n        /* \"#utility.yul\":9229:9537   */\n      swap2\n      swap1\n      pop\n      jump\t// out\n        /* \"#utility.yul\":9543:9968   */\n    tag_113:\n        /* \"#utility.yul\":9621:9626   */\n      0x00\n        /* \"#utility.yul\":9646:9712   */\n      tag_228\n        /* \"#utility.yul\":9662:9711   */\n      tag_229\n        /* \"#utility.yul\":9704:9710   */\n      dup5\n        /* \"#utility.yul\":9662:9711   */\n      tag_112\n      jump\t// in\n    tag_229:\n        /* \"#utility.yul\":9646:9712   */\n      tag_103\n      jump\t// in\n    tag_228:\n        /* \"#utility.yul\":9637:9712   */\n      swap1\n      pop\n        /* \"#utility.yul\":9735:9741   */\n      dup3\n        /* \"#utility.yul\":9728:9733   */\n      dup2\n        /* \"#utility.yul\":9721:9742   */\n      mstore\n        /* \"#utility.yul\":9773:9777   */\n      0x20\n        /* \"#utility.yul\":9766:9771   */\n      dup2\n        /* \"#utility.yul\":9762:9778   */\n      add\n        /* \"#utility.yul\":9811:9814   */\n      dup5\n        /* \"#utility.yul\":9802:9808   */\n      dup5\n        /* \"#utility.yul\":9797:9800   */\n      dup5\n        /* \"#utility.yul\":9793:9809   */\n      add\n        /* \"#utility.yul\":9790:9815   */\n      gt\n        /* \"#utility.yul\":9787:9899   */\n      iszero\n      tag_230\n      jumpi\n        /* \"#utility.yul\":9818:9897   */\n      tag_231\n      tag_107\n      jump\t// in\n    tag_231:\n        /* \"#utility.yul\":9787:9899   */\n    tag_230:\n        /* \"#utility.yul\":9908:9962   */\n      tag_232\n        /* \"#utility.yul\":9955:9961   */\n      dup5\n        /* \"#utility.yul\":9950:9953   */\n      dup3\n        /* \"#utility.yul\":9945:9948   */\n      dup6\n        /* \"#utility.yul\":9908:9962   */\n      tag_109\n      jump\t// in\n    tag_232:\n        /* \"#utility.yul\":9627:9968   */\n      pop\n        /* \"#utility.yul\":9543:9968   */\n      swap4\n      swap3\n      pop\n      pop\n      pop\n      jump\t// out\n        /* \"#utility.yul\":9988:10328   */\n    tag_114:\n        /* \"#utility.yul\":10044:10049   */\n      0x00\n        /* \"#utility.yul\":10093:10096   */\n      dup3\n        /* \"#utility.yul\":10086:10090   */\n      0x1f\n        /* \"#utility.yul\":10078:10084   */\n      dup4\n        /* \"#utility.yul\":10074:10091   */\n      add\n        /* \"#utility.yul\":10070:10097   */\n      slt\n        /* \"#utility.yul\":10060:10182   */\n      tag_234\n      jumpi\n        /* \"#utility.yul\":10101:10180   */\n      tag_235\n      tag_83\n      jump\t// in\n    tag_235:\n        /* \"#utility.yul\":10060:10182   */\n    tag_234:\n        /* \"#utility.yul\":10218:10224   */\n      dup2\n        /* \"#utility.yul\":10205:10225   */\n      calldataload\n        /* \"#utility.yul\":10243:10322   */\n      tag_236\n        /* \"#utility.yul\":10318:10321   */\n      dup5\n        /* \"#utility.yul\":10310:10316   */\n      dup3\n        /* \"#utility.yul\":10303:10307   */\n      0x20\n        /* \"#utility.yul\":10295:10301   */\n      dup7\n        /* \"#utility.yul\":10291:10308   */\n      add\n        /* \"#utility.yul\":10243:10322   */\n      tag_113\n      jump\t// in\n    tag_236:\n        /* \"#utility.yul\":10234:10322   */\n      swap2\n      pop\n        /* \"#utility.yul\":10050:10328   */\n      pop\n        /* \"#utility.yul\":9988:10328   */\n      swap3\n      swap2\n      pop\n      pop\n      jump\t// out\n        /* \"#utility.yul\":10334:11166   */\n    tag_25:\n        /* \"#utility.yul\":10421:10427   */\n      0x00\n        /* \"#utility.yul\":10429:10435   */\n      dup1\n        /* \"#utility.yul\":10478:10480   */\n      0x40\n        /* \"#utility.yul\":10466:10475   */\n      dup4\n        /* \"#utility.yul\":10457:10464   */\n      dup6\n        /* \"#utility.yul\":10453:10476   */\n      sub\n        /* \"#utility.yul\":10449:10481   */\n      slt\n        /* \"#utility.yul\":10446:10565   */\n      iszero\n      tag_238\n      jumpi\n        /* \"#utility.yul\":10484:10563   */\n      tag_239\n      tag_81\n      jump\t// in\n    tag_239:\n        /* \"#utility.yul\":10446:10565   */\n    tag_238:\n        /* \"#utility.yul\":10632:10633   */\n      0x00\n        /* \"#utility.yul\":10621:10630   */\n      dup4\n        /* \"#utility.yul\":10617:10634   */\n      add\n        /* \"#utility.yul\":10604:10635   */\n      calldataload\n        /* \"#utility.yul\":10662:10680   */\n      0xffffffffffffffff\n        /* \"#utility.yul\":10654:10660   */\n      dup2\n        /* \"#utility.yul\":10651:10681   */\n      gt\n        /* \"#utility.yul\":10648:10765   */\n      iszero\n      tag_240\n      jumpi\n        /* \"#utility.yul\":10684:10763   */\n      tag_241\n      tag_82\n      jump\t// in\n    tag_241:\n        /* \"#utility.yul\":10648:10765   */\n    tag_240:\n        /* \"#utility.yul\":10789:10851   */\n      tag_242\n        /* \"#utility.yul\":10843:10850   */\n      dup6\n        /* \"#utility.yul\":10834:10840   */\n      dup3\n        /* \"#utility.yul\":10823:10832   */\n      dup7\n        /* \"#utility.yul\":10819:10841   */\n      add\n        /* \"#utility.yul\":10789:10851   */\n      tag_111\n      jump\t// in\n    tag_242:\n        /* \"#utility.yul\":10779:10851   */\n      swap3\n      pop\n        /* \"#utility.yul\":10575:10861   */\n      pop\n        /* \"#utility.yul\":10928:10930   */\n      0x20\n        /* \"#utility.yul\":10917:10926   */\n      dup4\n        /* \"#utility.yul\":10913:10931   */\n      add\n        /* \"#utility.yul\":10900:10932   */\n      calldataload\n        /* \"#utility.yul\":10959:10977   */\n      0xffffffffffffffff\n        /* \"#utility.yul\":10951:10957   */\n      dup2\n        /* \"#utility.yul\":10948:10978   */\n      gt\n        /* \"#utility.yul\":10945:11062   */\n      iszero\n      tag_243\n      jumpi\n        /* \"#utility.yul\":10981:11060   */\n      tag_244\n      tag_82\n      jump\t// in\n    tag_244:\n        /* \"#utility.yul\":10945:11062   */\n    tag_243:\n        /* \"#utility.yul\":11086:11149   */\n      tag_245\n        /* \"#utility.yul\":11141:11148   */\n      dup6\n        /* \"#utility.yul\":11132:11138   */\n      dup3\n        /* \"#utility.yul\":11121:11130   */\n      dup7\n        /* \"#utility.yul\":11117:11139   */\n      add\n        /* \"#utility.yul\":11086:11149   */\n      tag_114\n      jump\t// in\n    tag_245:\n        /* \"#utility.yul\":11076:11149   */\n      swap2\n      pop\n        /* \"#utility.yul\":10871:11159   */\n      pop\n        /* \"#utility.yul\":10334:11166   */\n      swap3\n      pop\n      swap3\n      swap1\n      pop\n      jump\t// out\n        /* \"#utility.yul\":11172:11271   */\n    tag_115:\n        /* \"#utility.yul\":11224:11230   */\n      0x00\n        /* \"#utility.yul\":11258:11263   */\n      dup2\n        /* \"#utility.yul\":11252:11264   */\n      mload\n        /* \"#utility.yul\":11242:11264   */\n      swap1\n      pop\n        /* \"#utility.yul\":11172:11271   */\n      swap2\n      swap1\n      pop\n      jump\t// out\n        /* \"#utility.yul\":11277:11446   */\n    tag_116:\n        /* \"#utility.yul\":11361:11372   */\n      0x00\n        /* \"#utility.yul\":11395:11401   */\n      dup3\n        /* \"#utility.yul\":11390:11393   */\n      dup3\n        /* \"#utility.yul\":11383:11402   */\n      mstore\n        /* \"#utility.yul\":11435:11439   */\n      0x20\n        /* \"#utility.yul\":11430:11433   */\n      dup3\n        /* \"#utility.yul\":11426:11440   */\n      add\n        /* \"#utility.yul\":11411:11440   */\n      swap1\n      pop\n        /* \"#utility.yul\":11277:11446   */\n      swap3\n      swap2\n      pop\n      pop\n      jump\t// out\n        /* \"#utility.yul\":11452:11591   */\n    tag_117:\n        /* \"#utility.yul\":11541:11547   */\n      dup3\n        /* \"#utility.yul\":11536:11539   */\n      dup2\n        /* \"#utility.yul\":11531:11534   */\n      dup4\n        /* \"#utility.yul\":11525:11548   */\n      mcopy\n        /* \"#utility.yul\":11582:11583   */\n      0x00\n        /* \"#utility.yul\":11573:11579   */\n      dup4\n        /* \"#utility.yul\":11568:11571   */\n      dup4\n        /* \"#utility.yul\":11564:11580   */\n      add\n        /* \"#utility.yul\":11557:11584   */\n      mstore\n        /* \"#utility.yul\":11452:11591   */\n      pop\n      pop\n      pop\n      jump\t// out\n        /* \"#utility.yul\":11597:11974   */\n    tag_118:\n        /* \"#utility.yul\":11685:11688   */\n      0x00\n        /* \"#utility.yul\":11713:11752   */\n      tag_250\n        /* \"#utility.yul\":11746:11751   */\n      dup3\n        /* \"#utility.yul\":11713:11752   */\n      tag_115\n      jump\t// in\n    tag_250:\n        /* \"#utility.yul\":11768:11839   */\n      tag_251\n        /* \"#utility.yul\":11832:11838   */\n      dup2\n        /* \"#utility.yul\":11827:11830   */\n      dup6\n        /* \"#utility.yul\":11768:11839   */\n      tag_116\n      jump\t// in\n    tag_251:\n        /* \"#utility.yul\":11761:11839   */\n      swap4\n      pop\n        /* \"#utility.yul\":11848:11913   */\n      tag_252\n        /* \"#utility.yul\":11906:11912   */\n      dup2\n        /* \"#utility.yul\":11901:11904   */\n      dup6\n        /* \"#utility.yul\":11894:11898   */\n      0x20\n        /* \"#utility.yul\":11887:11892   */\n      dup7\n        /* \"#utility.yul\":11883:11899   */\n      add\n        /* \"#utility.yul\":11848:11913   */\n      tag_117\n      jump\t// in\n    tag_252:\n        /* \"#utility.yul\":11938:11967   */\n      tag_253\n        /* \"#utility.yul\":11960:11966   */\n      dup2\n        /* \"#utility.yul\":11938:11967   */\n      tag_100\n      jump\t// in\n    tag_253:\n        /* \"#utility.yul\":11933:11936   */\n      dup5\n        /* \"#utility.yul\":11929:11968   */\n      add\n        /* \"#utility.yul\":11922:11968   */\n      swap2\n      pop\n        /* \"#utility.yul\":11689:11974   */\n      pop\n        /* \"#utility.yul\":11597:11974   */\n      swap3\n      swap2\n      pop\n      pop\n      jump\t// out\n        /* \"#utility.yul\":11980:12494   */\n    tag_28:\n        /* \"#utility.yul\":12141:12145   */\n      0x00\n        /* \"#utility.yul\":12179:12181   */\n      0x40\n        /* \"#utility.yul\":12168:12177   */\n      dup3\n        /* \"#utility.yul\":12164:12182   */\n      add\n        /* \"#utility.yul\":12156:12182   */\n      swap1\n      pop\n        /* \"#utility.yul\":12228:12237   */\n      dup2\n        /* \"#utility.yul\":12222:12226   */\n      dup2\n        /* \"#utility.yul\":12218:12238   */\n      sub\n        /* \"#utility.yul\":12214:12215   */\n      0x00\n        /* \"#utility.yul\":12203:12212   */\n      dup4\n        /* \"#utility.yul\":12199:12216   */\n      add\n        /* \"#utility.yul\":12192:12239   */\n      mstore\n        /* \"#utility.yul\":12256:12334   */\n      tag_255\n        /* \"#utility.yul\":12329:12333   */\n      dup2\n        /* \"#utility.yul\":12320:12326   */\n      dup6\n        /* \"#utility.yul\":12256:12334   */\n      tag_118\n      jump\t// in\n    tag_255:\n        /* \"#utility.yul\":12248:12334   */\n      swap1\n      pop\n        /* \"#utility.yul\":12381:12390   */\n      dup2\n        /* \"#utility.yul\":12375:12379   */\n      dup2\n        /* \"#utility.yul\":12371:12391   */\n      sub\n        /* \"#utility.yul\":12366:12368   */\n      0x20\n        /* \"#utility.yul\":12355:12364   */\n      dup4\n        /* \"#utility.yul\":12351:12369   */\n      add\n        /* \"#utility.yul\":12344:12392   */\n      mstore\n        /* \"#utility.yul\":12409:12487   */\n      tag_256\n        /* \"#utility.yul\":12482:12486   */\n      dup2\n        /* \"#utility.yul\":12473:12479   */\n      dup5\n        /* \"#utility.yul\":12409:12487   */\n      tag_118\n      jump\t// in\n    tag_256:\n        /* \"#utility.yul\":12401:12487   */\n      swap1\n      pop\n        /* \"#utility.yul\":11980:12494   */\n      swap4\n      swap3\n      pop\n      pop\n      pop\n      jump\t// out\n        /* \"#utility.yul\":12500:12680   */\n    tag_35:\n        /* \"#utility.yul\":12548:12625   */\n      0x4e487b7100000000000000000000000000000000000000000000000000000000\n        /* \"#utility.yul\":12545:12546   */\n      0x00\n        /* \"#utility.yul\":12538:12626   */\n      mstore\n        /* \"#utility.yul\":12645:12649   */\n      0x32\n        /* \"#utility.yul\":12642:12643   */\n      0x04\n        /* \"#utility.yul\":12635:12650   */\n      mstore\n        /* \"#utility.yul\":12669:12673   */\n      0x24\n        /* \"#utility.yul\":12666:12667   */\n      0x00\n        /* \"#utility.yul\":12659:12674   */\n      revert\n        /* \"#utility.yul\":12686:12866   */\n    tag_119:\n        /* \"#utility.yul\":12734:12811   */\n      0x4e487b7100000000000000000000000000000000000000000000000000000000\n        /* \"#utility.yul\":12731:12732   */\n      0x00\n        /* \"#utility.yul\":12724:12812   */\n      mstore\n        /* \"#utility.yul\":12831:12835   */\n      0x11\n        /* \"#utility.yul\":12828:12829   */\n      0x04\n        /* \"#utility.yul\":12821:12836   */\n      mstore\n        /* \"#utility.yul\":12855:12859   */\n      0x24\n        /* \"#utility.yul\":12852:12853   */\n      0x00\n        /* \"#utility.yul\":12845:12860   */\n      revert\n        /* \"#utility.yul\":12872:13063   */\n    tag_37:\n        /* \"#utility.yul\":12912:12915   */\n      0x00\n        /* \"#utility.yul\":12931:12951   */\n      tag_260\n        /* \"#utility.yul\":12949:12950   */\n      dup3\n        /* \"#utility.yul\":12931:12951   */\n      tag_87\n      jump\t// in\n    tag_260:\n        /* \"#utility.yul\":12926:12951   */\n      swap2\n      pop\n        /* \"#utility.yul\":12965:12985   */\n      tag_261\n        /* \"#utility.yul\":12983:12984   */\n      dup4\n        /* \"#utility.yul\":12965:12985   */\n      tag_87\n      jump\t// in\n    tag_261:\n        /* \"#utility.yul\":12960:12985   */\n      swap3\n      pop\n        /* \"#utility.yul\":13008:13009   */\n      dup3\n        /* \"#utility.yul\":13005:13006   */\n      dup3\n        /* \"#utility.yul\":13001:13010   */\n      add\n        /* \"#utility.yul\":12994:13010   */\n      swap1\n      pop\n        /* \"#utility.yul\":13029:13032   */\n      dup1\n        /* \"#utility.yul\":13026:13027   */\n      dup3\n        /* \"#utility.yul\":13023:13033   */\n      gt\n        /* \"#utility.yul\":13020:13056   */\n      iszero\n      tag_262\n      jumpi\n        /* \"#utility.yul\":13036:13054   */\n      tag_263\n      tag_119\n      jump\t// in\n    tag_263:\n        /* \"#utility.yul\":13020:13056   */\n    tag_262:\n        /* \"#utility.yul\":12872:13063   */\n      swap3\n      swap2\n      pop\n      pop\n      jump\t// out\n        /* \"#utility.yul\":13069:13263   */\n    tag_47:\n        /* \"#utility.yul\":13109:13113   */\n      0x00\n        /* \"#utility.yul\":13129:13149   */\n      tag_265\n        /* \"#utility.yul\":13147:13148   */\n      dup3\n        /* \"#utility.yul\":13129:13149   */\n      tag_87\n      jump\t// in\n    tag_265:\n        /* \"#utility.yul\":13124:13149   */\n      swap2\n      pop\n        /* \"#utility.yul\":13163:13183   */\n      tag_266\n        /* \"#utility.yul\":13181:13182   */\n      dup4\n        /* \"#utility.yul\":13163:13183   */\n      tag_87\n      jump\t// in\n    tag_266:\n        /* \"#utility.yul\":13158:13183   */\n      swap3\n      pop\n        /* \"#utility.yul\":13207:13208   */\n      dup3\n        /* \"#utility.yul\":13204:13205   */\n      dup3\n        /* \"#utility.yul\":13200:13209   */\n      sub\n        /* \"#utility.yul\":13192:13209   */\n      swap1\n      pop\n        /* \"#utility.yul\":13231:13232   */\n      dup2\n        /* \"#utility.yul\":13225:13229   */\n      dup2\n        /* \"#utility.yul\":13222:13233   */\n      gt\n        /* \"#utility.yul\":13219:13256   */\n      iszero\n      tag_267\n      jumpi\n        /* \"#utility.yul\":13236:13254   */\n      tag_268\n      tag_119\n      jump\t// in\n    tag_268:\n        /* \"#utility.yul\":13219:13256   */\n    tag_267:\n        /* \"#utility.yul\":13069:13263   */\n      swap3\n      swap2\n      pop\n      pop\n      jump\t// out\n        /* \"#utility.yul\":13269:13449   */\n    tag_63:\n        /* \"#utility.yul\":13317:13394   */\n      0x4e487b7100000000000000000000000000000000000000000000000000000000\n        /* \"#utility.yul\":13314:13315   */\n      0x00\n        /* \"#utility.yul\":13307:13395   */\n      mstore\n        /* \"#utility.yul\":13414:13418   */\n      0x31\n        /* \"#utility.yul\":13411:13412   */\n      0x04\n        /* \"#utility.yul\":13404:13419   */\n      mstore\n        /* \"#utility.yul\":13438:13442   */\n      0x24\n        /* \"#utility.yul\":13435:13436   */\n      0x00\n        /* \"#utility.yul\":13428:13443   */\n      revert\n\n    auxdata: 0xa264697066735822122063e5799238df0bbf1da3ca310305f1445627f92eb24409f480c71fc7051bf63864736f6c634300081a0033\n}\n",
				"bytecode": {
					"linkReferences": {},
					"object": "6080604052348015600e575f80fd5b50610c748061001c5f395ff3fe608060405234801561000f575f80fd5b506004361061004a575f3560e01c80630243cad51461004e578063384bc1721461007e5780639f494991146100ae578063d01ee72a146100ca575b5f80fd5b61006860048036038101906100639190610591565b6100fb565b60405161007591906105f4565b60405180910390f35b61009860048036038101906100939190610667565b610147565b6040516100a59190610749565b60405180910390f35b6100c860048036038101906100c391906108b1565b6103f2565b005b6100e460048036038101906100df9190610a46565b61040b565b6040516100f2929190610b1c565b60405180910390f35b5f805f90505b838390508110156101405783838281811061011f5761011e610b51565b5b90506020020135826101319190610bab565b91508080600101915050610101565b5092915050565b60605f5b5f80549050811015610324578273ffffffffffffffffffffffffffffffffffffffff165f828154811061018157610180610b51565b5b905f5260205f20015f9054906101000a900473ffffffffffffffffffffffffffffffffffffffff1673ffffffffffffffffffffffffffffffffffffffff1603610317575f60015f805490506101d69190610bde565b815481106101e7576101e6610b51565b5b905f5260205f20015f9054906101000a900473ffffffffffffffffffffffffffffffffffffffff165f828154811061022257610221610b51565b5b905f5260205f20015f9054906101000a900473ffffffffffffffffffffffffffffffffffffffff165f838154811061025d5761025c610b51565b5b905f5260205f20015f8060015f805490506102789190610bde565b8154811061028957610288610b51565b5b905f5260205f20015f8491906101000a81548173ffffffffffffffffffffffffffffffffffffffff021916908373ffffffffffffffffffffffffffffffffffffffff1602179055508391906101000a81548173ffffffffffffffffffffffffffffffffffffffff021916908373ffffffffffffffffffffffffffffffffffffffff1602179055505050610324565b808060010191505061014b565b505f80548061033657610335610c11565b5b600190038181905f5260205f20015f6101000a81549073ffffffffffffffffffffffffffffffffffffffff021916905590555f8054806020026020016040519081016040528092919081815260200182805480156103e657602002820191905f5260205f20905b815f9054906101000a900473ffffffffffffffffffffffffffffffffffffffff1673ffffffffffffffffffffffffffffffffffffffff168152602001906001019080831161039d575b50505050509050919050565b805f908051906020019061040792919061047d565b5050565b6060807f4800000000000000000000000000000000000000000000000000000000000000845f8151811061044257610441610b51565b5b60200101907effffffffffffffffffffffffffffffffffffffffffffffffffffffffffffff191690815f1a9053508383915091509250929050565b828054828255905f5260205f209081019282156104f3579160200282015b828111156104f2578251825f6101000a81548173ffffffffffffffffffffffffffffffffffffffff021916908373ffffffffffffffffffffffffffffffffffffffff1602179055509160200191906001019061049b565b5b5090506105009190610504565b5090565b5b8082111561051b575f815f905550600101610505565b5090565b5f604051905090565b5f80fd5b5f80fd5b5f80fd5b5f80fd5b5f80fd5b5f8083601f84011261055157610550610530565b5b8235905067ffffffffffffffff81111561056e5761056d610534565b5b60208301915083602082028301111561058a57610589610538565b5b9250929050565b5f80602083850312156105a7576105a6610528565b5b5f83013567ffffffffffffffff8111156105c4576105c361052c565b5b6105d08582860161053c565b92509250509250929050565b5f819050919050565b6105ee816105dc565b82525050565b5f6020820190506106075f8301846105e5565b92915050565b5f73ffffffffffffffffffffffffffffffffffffffff82169050919050565b5f6106368261060d565b9050919050565b6106468161062c565b8114610650575f80fd5b50565b5f813590506106618161063d565b92915050565b5f6020828403121561067c5761067b610528565b5b5f61068984828501610653565b91505092915050565b5f81519050919050565b5f82825260208201905092915050565b5f819050602082019050919050565b6106c48161062c565b82525050565b5f6106d583836106bb565b60208301905092915050565b5f602082019050919050565b5f6106f782610692565b610701818561069c565b935061070c836106ac565b805f5b8381101561073c57815161072388826106ca565b975061072e836106e1565b92505060018101905061070f565b5085935050505092915050565b5f6020820190508181035f83015261076181846106ed565b905092915050565b5f601f19601f8301169050919050565b7f4e487b71000000000000000000000000000000000000000000000000000000005f52604160045260245ffd5b6107af82610769565b810181811067ffffffffffffffff821117156107ce576107cd610779565b5b80604052505050565b5f6107e061051f565b90506107ec82826107a6565b919050565b5f67ffffffffffffffff82111561080b5761080a610779565b5b602082029050602081019050919050565b5f61082e610829846107f1565b6107d7565b9050808382526020820190506020840283018581111561085157610850610538565b5b835b8181101561087a57806108668882610653565b845260208401935050602081019050610853565b5050509392505050565b5f82601f83011261089857610897610530565b5b81356108a884826020860161081c565b91505092915050565b5f602082840312156108c6576108c5610528565b5b5f82013567ffffffffffffffff8111156108e3576108e261052c565b5b6108ef84828501610884565b91505092915050565b5f80fd5b5f67ffffffffffffffff82111561091657610915610779565b5b61091f82610769565b9050602081019050919050565b828183375f83830152505050565b5f61094c610947846108fc565b6107d7565b905082815260208101848484011115610968576109676108f8565b5b61097384828561092c565b509392505050565b5f82601f83011261098f5761098e610530565b5b813561099f84826020860161093a565b91505092915050565b5f67ffffffffffffffff8211156109c2576109c1610779565b5b6109cb82610769565b9050602081019050919050565b5f6109ea6109e5846109a8565b6107d7565b905082815260208101848484011115610a0657610a056108f8565b5b610a1184828561092c565b509392505050565b5f82601f830112610a2d57610a2c610530565b5b8135610a3d8482602086016109d8565b91505092915050565b5f8060408385031215610a5c57610a5b610528565b5b5f83013567ffffffffffffffff811115610a7957610a7861052c565b5b610a858582860161097b565b925050602083013567ffffffffffffffff811115610aa657610aa561052c565b5b610ab285828601610a19565b9150509250929050565b5f81519050919050565b5f82825260208201905092915050565b8281835e5f83830152505050565b5f610aee82610abc565b610af88185610ac6565b9350610b08818560208601610ad6565b610b1181610769565b840191505092915050565b5f6040820190508181035f830152610b348185610ae4565b90508181036020830152610b488184610ae4565b90509392505050565b7f4e487b71000000000000000000000000000000000000000000000000000000005f52603260045260245ffd5b7f4e487b71000000000000000000000000000000000000000000000000000000005f52601160045260245ffd5b5f610bb5826105dc565b9150610bc0836105dc565b9250828201905080821115610bd857610bd7610b7e565b5b92915050565b5f610be8826105dc565b9150610bf3836105dc565b9250828203905081811115610c0b57610c0a610b7e565b5b92915050565b7f4e487b71000000000000000000000000000000000000000000000000000000005f52603160045260245ffdfea264697066735822122063e5799238df0bbf1da3ca310305f1445627f92eb24409f480c71fc7051bf63864736f6c634300081a0033",
					"opcodes": "PUSH1 0x80 PUSH1 0x40 MSTORE CALLVALUE DUP1 ISZERO PUSH1 0xE JUMPI PUSH0 DUP1 REVERT JUMPDEST POP PUSH2 0xC74 DUP1 PUSH2 0x1C PUSH0 CODECOPY PUSH0 RETURN INVALID PUSH1 0x80 PUSH1 0x40 MSTORE CALLVALUE DUP1 ISZERO PUSH2 0xF JUMPI PUSH0 DUP1 REVERT JUMPDEST POP PUSH1 0x4 CALLDATASIZE LT PUSH2 0x4A JUMPI PUSH0 CALLDATALOAD PUSH1 0xE0 SHR DUP1 PUSH4 0x243CAD5 EQ PUSH2 0x4E JUMPI DUP1 PUSH4 0x384BC172 EQ PUSH2 0x7E JUMPI DUP1 PUSH4 0x9F494991 EQ PUSH2 0xAE JUMPI DUP1 PUSH4 0xD01EE72A EQ PUSH2 0xCA JUMPI JUMPDEST PUSH0 DUP1 REVERT JUMPDEST PUSH2 0x68 PUSH1 0x4 DUP1 CALLDATASIZE SUB DUP2 ADD SWAP1 PUSH2 0x63 SWAP2 SWAP1 PUSH2 0x591 JUMP JUMPDEST PUSH2 0xFB JUMP JUMPDEST PUSH1 0x40 MLOAD PUSH2 0x75 SWAP2 SWAP1 PUSH2 0x5F4 JUMP JUMPDEST PUSH1 0x40 MLOAD DUP1 SWAP2 SUB SWAP1 RETURN JUMPDEST PUSH2 0x98 PUSH1 0x4 DUP1 CALLDATASIZE SUB DUP2 ADD SWAP1 PUSH2 0x93 SWAP2 SWAP1 PUSH2 0x667 JUMP JUMPDEST PUSH2 0x147 JUMP JUMPDEST PUSH1 0x40 MLOAD PUSH2 0xA5 SWAP2 SWAP1 PUSH2 0x749 JUMP JUMPDEST PUSH1 0x40 MLOAD DUP1 SWAP2 SUB SWAP1 RETURN JUMPDEST PUSH2 0xC8 PUSH1 0x4 DUP1 CALLDATASIZE SUB DUP2 ADD SWAP1 PUSH2 0xC3 SWAP2 SWAP1 PUSH2 0x8B1 JUMP JUMPDEST PUSH2 0x3F2 JUMP JUMPDEST STOP JUMPDEST PUSH2 0xE4 PUSH1 0x4 DUP1 CALLDATASIZE SUB DUP2 ADD SWAP1 PUSH2 0xDF SWAP2 SWAP1 PUSH2 0xA46 JUMP JUMPDEST PUSH2 0x40B JUMP JUMPDEST PUSH1 0x40 MLOAD PUSH2 0xF2 SWAP3 SWAP2 SWAP1 PUSH2 0xB1C JUMP JUMPDEST PUSH1 0x40 MLOAD DUP1 SWAP2 SUB SWAP1 RETURN JUMPDEST PUSH0 DUP1 PUSH0 SWAP1 POP JUMPDEST DUP4 DUP4 SWAP1 POP DUP2 LT ISZERO PUSH2 0x140 JUMPI DUP4 DUP4 DUP3 DUP2 DUP2 LT PUSH2 0x11F JUMPI PUSH2 0x11E PUSH2 0xB51 JUMP JUMPDEST JUMPDEST SWAP1 POP PUSH1 0x20 MUL ADD CALLDATALOAD DUP3 PUSH2 0x131 SWAP2 SWAP1 PUSH2 0xBAB JUMP JUMPDEST SWAP2 POP DUP1 DUP1 PUSH1 0x1 ADD SWAP2 POP POP PUSH2 0x101 JUMP JUMPDEST POP SWAP3 SWAP2 POP POP JUMP JUMPDEST PUSH1 0x60 PUSH0 JUMPDEST PUSH0 DUP1 SLOAD SWAP1 POP DUP2 LT ISZERO PUSH2 0x324 JUMPI DUP3 PUSH20 0xFFFFFFFFFFFFFFFFFFFFFFFFFFFFFFFFFFFFFFFF AND PUSH0 DUP3 DUP2 SLOAD DUP2 LT PUSH2 0x181 JUMPI PUSH2 0x180 PUSH2 0xB51 JUMP JUMPDEST JUMPDEST SWAP1 PUSH0 MSTORE PUSH1 0x20 PUSH0 KECCAK256 ADD PUSH0 SWAP1 SLOAD SWAP1 PUSH2 0x100 EXP SWAP1 DIV PUSH20 0xFFFFFFFFFFFFFFFFFFFFFFFFFFFFFFFFFFFFFFFF AND PUSH20 0xFFFFFFFFFFFFFFFFFFFFFFFFFFFFFFFFFFFFFFFF AND SUB PUSH2 0x317 JUMPI PUSH0 PUSH1 0x1 PUSH0 DUP1 SLOAD SWAP1 POP PUSH2 0x1D6 SWAP2 SWAP1 PUSH2 0xBDE JUMP JUMPDEST DUP2 SLOAD DUP2 LT PUSH2 0x1E7 JUMPI PUSH2 0x1E6 PUSH2 0xB51 JUMP JUMPDEST JUMPDEST SWAP1 PUSH0 MSTORE PUSH1 0x20 PUSH0 KECCAK256 ADD PUSH0 SWAP1 SLOAD SWAP1 PUSH2 0x100 EXP SWAP1 DIV PUSH20 0xFFFFFFFFFFFFFFFFFFFFFFFFFFFFFFFFFFFFFFFF AND PUSH0 DUP3 DUP2 SLOAD DUP2 LT PUSH2 0x222 JUMPI PUSH2 0x221 PUSH2 0xB51 JUMP JUMPDEST JUMPDEST SWAP1 PUSH0 MSTORE PUSH1 0x20 PUSH0 KECCAK256 ADD PUSH0 SWAP1 SLOAD SWAP1 PUSH2 0x100 EXP SWAP1 DIV PUSH20 0xFFFFFFFFFFFFFFFFFFFFFFFFFFFFFFFFFFFFFFFF AND PUSH0 DUP4 DUP2 SLOAD DUP2 LT PUSH2 0x25D JUMPI PUSH2 0x25C PUSH2 0xB51 JUMP JUMPDEST JUMPDEST SWAP1 PUSH0 MSTORE PUSH1 0x20 PUSH0 KECCAK256 ADD PUSH0 DUP1 PUSH1 0x1 PUSH0 DUP1 SLOAD SWAP1 POP PUSH2 0x278 SWAP2 SWAP1 PUSH2 0xBDE JUMP JUMPDEST DUP2 SLOAD DUP2 LT PUSH2 0x289 JUMPI PUSH2 0x288 PUSH2 0xB51 JUMP JUMPDEST JUMPDEST SWAP1 PUSH0 MSTORE PUSH1 0x20 PUSH0 KECCAK256 ADD PUSH0 DUP5 SWAP2 SWAP1 PUSH2 0x100 EXP DUP2 SLOAD DUP2 PUSH20 0xFFFFFFFFFFFFFFFFFFFFFFFFFFFFFFFFFFFFFFFF MUL NOT AND SWAP1 DUP4 PUSH20 0xFFFFFFFFFFFFFFFFFFFFFFFFFFFFFFFFFFFFFFFF AND MUL OR SWAP1 SSTORE POP DUP4 SWAP2 SWAP1 PUSH2 0x100 EXP DUP2 SLOAD DUP2 PUSH20 0xFFFFFFFFFFFFFFFFFFFFFFFFFFFFFFFFFFFFFFFF MUL NOT AND SWAP1 DUP4 PUSH20 0xFFFFFFFFFFFFFFFFFFFFFFFFFFFFFFFFFFFFFFFF AND MUL OR SWAP1 SSTORE POP POP POP PUSH2 0x324 JUMP JUMPDEST DUP1 DUP1 PUSH1 0x1 ADD SWAP2 POP POP PUSH2 0x14B JUMP JUMPDEST POP PUSH0 DUP1 SLOAD DUP1 PUSH2 0x336 JUMPI PUSH2 0x335 PUSH2 0xC11 JUMP JUMPDEST JUMPDEST PUSH1 0x1 SWAP1 SUB DUP2 DUP2 SWAP1 PUSH0 MSTORE PUSH1 0x20 PUSH0 KECCAK256 ADD PUSH0 PUSH2 0x100 EXP DUP2 SLOAD SWAP1 PUSH20 0xFFFFFFFFFFFFFFFFFFFFFFFFFFFFFFFFFFFFFFFF MUL NOT AND SWAP1 SSTORE SWAP1 SSTORE PUSH0 DUP1 SLOAD DUP1 PUSH1 0x20 MUL PUSH1 0x20 ADD PUSH1 0x40 MLOAD SWAP1 DUP2 ADD PUSH1 0x40 MSTORE DUP1 SWAP3 SWAP2 SWAP1 DUP2 DUP2 MSTORE PUSH1 0x20 ADD DUP3 DUP1 SLOAD DUP1 ISZERO PUSH2 0x3E6 JUMPI PUSH1 0x20 MUL DUP3 ADD SWAP2 SWAP1 PUSH0 MSTORE PUSH1 0x20 PUSH0 KECCAK256 SWAP1 JUMPDEST DUP2 PUSH0 SWAP1 SLOAD SWAP1 PUSH2 0x100 EXP SWAP1 DIV PUSH20 0xFFFFFFFFFFFFFFFFFFFFFFFFFFFFFFFFFFFFFFFF AND PUSH20 0xFFFFFFFFFFFFFFFFFFFFFFFFFFFFFFFFFFFFFFFF AND DUP2 MSTORE PUSH1 0x20 ADD SWAP1 PUSH1 0x1 ADD SWAP1 DUP1 DUP4 GT PUSH2 0x39D JUMPI JUMPDEST POP POP POP POP POP SWAP1 POP SWAP2 SWAP1 POP JUMP JUMPDEST DUP1 PUSH0 SWAP1 DUP1 MLOAD SWAP1 PUSH1 0x20 ADD SWAP1 PUSH2 0x407 SWAP3 SWAP2 SWAP1 PUSH2 0x47D JUMP JUMPDEST POP POP JUMP JUMPDEST PUSH1 0x60 DUP1 PUSH32 0x4800000000000000000000000000000000000000000000000000000000000000 DUP5 PUSH0 DUP2 MLOAD DUP2 LT PUSH2 0x442 JUMPI PUSH2 0x441 PUSH2 0xB51 JUMP JUMPDEST JUMPDEST PUSH1 0x20 ADD ADD SWAP1 PUSH31 0xFFFFFFFFFFFFFFFFFFFFFFFFFFFFFFFFFFFFFFFFFFFFFFFFFFFFFFFFFFFFFF NOT AND SWAP1 DUP2 PUSH0 BYTE SWAP1 MSTORE8 POP DUP4 DUP4 SWAP2 POP SWAP2 POP SWAP3 POP SWAP3 SWAP1 POP JUMP JUMPDEST DUP3 DUP1 SLOAD DUP3 DUP3 SSTORE SWAP1 PUSH0 MSTORE PUSH1 0x20 PUSH0 KECCAK256 SWAP1 DUP2 ADD SWAP3 DUP3 ISZERO PUSH2 0x4F3 JUMPI SWAP2 PUSH1 0x20 MUL DUP3 ADD JUMPDEST DUP3 DUP2 GT ISZERO PUSH2 0x4F2 JUMPI DUP3 MLOAD DUP3 PUSH0 PUSH2 0x100 EXP DUP2 SLOAD DUP2 PUSH20 0xFFFFFFFFFFFFFFFFFFFFFFFFFFFFFFFFFFFFFFFF MUL NOT AND SWAP1 DUP4 PUSH20 0xFFFFFFFFFFFFFFFFFFFFFFFFFFFFFFFFFFFFFFFF AND MUL OR SWAP1 SSTORE POP SWAP2 PUSH1 0x20 ADD SWAP2 SWAP1 PUSH1 0x1 ADD SWAP1 PUSH2 0x49B JUMP JUMPDEST JUMPDEST POP SWAP1 POP PUSH2 0x500 SWAP2 SWAP1 PUSH2 0x504 JUMP JUMPDEST POP SWAP1 JUMP JUMPDEST JUMPDEST DUP1 DUP3 GT ISZERO PUSH2 0x51B JUMPI PUSH0 DUP2 PUSH0 SWAP1 SSTORE POP PUSH1 0x1 ADD PUSH2 0x505 JUMP JUMPDEST POP SWAP1 JUMP JUMPDEST PUSH0 PUSH1 0x40 MLOAD SWAP1 POP SWAP1 JUMP JUMPDEST PUSH0 DUP1 REVERT JUMPDEST PUSH0 DUP1 REVERT JUMPDEST PUSH0 DUP1 REVERT JUMPDEST PUSH0 DUP1 REVERT JUMPDEST PUSH0 DUP1 REVERT JUMPDEST PUSH0 DUP1 DUP4 PUSH1 0x1F DUP5 ADD SLT PUSH2 0x551 JUMPI PUSH2 0x550 PUSH2 0x530 JUMP JUMPDEST JUMPDEST DUP3 CALLDATALOAD SWAP1 POP PUSH8 0xFFFFFFFFFFFFFFFF DUP2 GT ISZERO PUSH2 0x56E JUMPI PUSH2 0x56D PUSH2 0x534 JUMP JUMPDEST JUMPDEST PUSH1 0x20 DUP4 ADD SWAP2 POP DUP4 PUSH1 0x20 DUP3 MUL DUP4 ADD GT ISZERO PUSH2 0x58A JUMPI PUSH2 0x589 PUSH2 0x538 JUMP JUMPDEST JUMPDEST SWAP3 POP SWAP3 SWAP1 POP JUMP JUMPDEST PUSH0 DUP1 PUSH1 0x20 DUP4 DUP6 SUB SLT ISZERO PUSH2 0x5A7 JUMPI PUSH2 0x5A6 PUSH2 0x528 JUMP JUMPDEST JUMPDEST PUSH0 DUP4 ADD CALLDATALOAD PUSH8 0xFFFFFFFFFFFFFFFF DUP2 GT ISZERO PUSH2 0x5C4 JUMPI PUSH2 0x5C3 PUSH2 0x52C JUMP JUMPDEST JUMPDEST PUSH2 0x5D0 DUP6 DUP3 DUP7 ADD PUSH2 0x53C JUMP JUMPDEST SWAP3 POP SWAP3 POP POP SWAP3 POP SWAP3 SWAP1 POP JUMP JUMPDEST PUSH0 DUP2 SWAP1 POP SWAP2 SWAP1 POP JUMP JUMPDEST PUSH2 0x5EE DUP2 PUSH2 0x5DC JUMP JUMPDEST DUP3 MSTORE POP POP JUMP JUMPDEST PUSH0 PUSH1 0x20 DUP3 ADD SWAP1 POP PUSH2 0x607 PUSH0 DUP4 ADD DUP5 PUSH2 0x5E5 JUMP JUMPDEST SWAP3 SWAP2 POP POP JUMP JUMPDEST PUSH0 PUSH20 0xFFFFFFFFFFFFFFFFFFFFFFFFFFFFFFFFFFFFFFFF DUP3 AND SWAP1 POP SWAP2 SWAP1 POP JUMP JUMPDEST PUSH0 PUSH2 0x636 DUP3 PUSH2 0x60D JUMP JUMPDEST SWAP1 POP SWAP2 SWAP1 POP JUMP JUMPDEST PUSH2 0x646 DUP2 PUSH2 0x62C JUMP JUMPDEST DUP2 EQ PUSH2 0x650 JUMPI PUSH0 DUP1 REVERT JUMPDEST POP JUMP JUMPDEST PUSH0 DUP2 CALLDATALOAD SWAP1 POP PUSH2 0x661 DUP2 PUSH2 0x63D JUMP JUMPDEST SWAP3 SWAP2 POP POP JUMP JUMPDEST PUSH0 PUSH1 0x20 DUP3 DUP5 SUB SLT ISZERO PUSH2 0x67C JUMPI PUSH2 0x67B PUSH2 0x528 JUMP JUMPDEST JUMPDEST PUSH0 PUSH2 0x689 DUP5 DUP3 DUP6 ADD PUSH2 0x653 JUMP JUMPDEST SWAP2 POP POP SWAP3 SWAP2 POP POP JUMP JUMPDEST PUSH0 DUP2 MLOAD SWAP1 POP SWAP2 SWAP1 POP JUMP JUMPDEST PUSH0 DUP3 DUP3 MSTORE PUSH1 0x20 DUP3 ADD SWAP1 POP SWAP3 SWAP2 POP POP JUMP JUMPDEST PUSH0 DUP2 SWAP1 POP PUSH1 0x20 DUP3 ADD SWAP1 POP SWAP2 SWAP1 POP JUMP JUMPDEST PUSH2 0x6C4 DUP2 PUSH2 0x62C JUMP JUMPDEST DUP3 MSTORE POP POP JUMP JUMPDEST PUSH0 PUSH2 0x6D5 DUP4 DUP4 PUSH2 0x6BB JUMP JUMPDEST PUSH1 0x20 DUP4 ADD SWAP1 POP SWAP3 SWAP2 POP POP JUMP JUMPDEST PUSH0 PUSH1 0x20 DUP3 ADD SWAP1 POP SWAP2 SWAP1 POP JUMP JUMPDEST PUSH0 PUSH2 0x6F7 DUP3 PUSH2 0x692 JUMP JUMPDEST PUSH2 0x701 DUP2 DUP6 PUSH2 0x69C JUMP JUMPDEST SWAP4 POP PUSH2 0x70C DUP4 PUSH2 0x6AC JUMP JUMPDEST DUP1 PUSH0 JUMPDEST DUP4 DUP2 LT ISZERO PUSH2 0x73C JUMPI DUP2 MLOAD PUSH2 0x723 DUP9 DUP3 PUSH2 0x6CA JUMP JUMPDEST SWAP8 POP PUSH2 0x72E DUP4 PUSH2 0x6E1 JUMP JUMPDEST SWAP3 POP POP PUSH1 0x1 DUP2 ADD SWAP1 POP PUSH2 0x70F JUMP JUMPDEST POP DUP6 SWAP4 POP POP POP POP SWAP3 SWAP2 POP POP JUMP JUMPDEST PUSH0 PUSH1 0x20 DUP3 ADD SWAP1 POP DUP2 DUP2 SUB PUSH0 DUP4 ADD MSTORE PUSH2 0x761 DUP2 DUP5 PUSH2 0x6ED JUMP JUMPDEST SWAP1 POP SWAP3 SWAP2 POP POP JUMP JUMPDEST PUSH0 PUSH1 0x1F NOT PUSH1 0x1F DUP4 ADD AND SWAP1 POP SWAP2 SWAP1 POP JUMP JUMPDEST PUSH32 0x4E487B7100000000000000000000000000000000000000000000000000000000 PUSH0 MSTORE PUSH1 0x41 PUSH1 0x4 MSTORE PUSH1 0x24 PUSH0 REVERT JUMPDEST PUSH2 0x7AF DUP3 PUSH2 0x769 JUMP JUMPDEST DUP2 ADD DUP2 DUP2 LT PUSH8 0xFFFFFFFFFFFFFFFF DUP3 GT OR ISZERO PUSH2 0x7CE JUMPI PUSH2 0x7CD PUSH2 0x779 JUMP JUMPDEST JUMPDEST DUP1 PUSH1 0x40 MSTORE POP POP POP JUMP JUMPDEST PUSH0 PUSH2 0x7E0 PUSH2 0x51F JUMP JUMPDEST SWAP1 POP PUSH2 0x7EC DUP3 DUP3 PUSH2 0x7A6 JUMP JUMPDEST SWAP2 SWAP1 POP JUMP JUMPDEST PUSH0 PUSH8 0xFFFFFFFFFFFFFFFF DUP3 GT ISZERO PUSH2 0x80B JUMPI PUSH2 0x80A PUSH2 0x779 JUMP JUMPDEST JUMPDEST PUSH1 0x20 DUP3 MUL SWAP1 POP PUSH1 0x20 DUP2 ADD SWAP1 POP SWAP2 SWAP1 POP JUMP JUMPDEST PUSH0 PUSH2 0x82E PUSH2 0x829 DUP5 PUSH2 0x7F1 JUMP JUMPDEST PUSH2 0x7D7 JUMP JUMPDEST SWAP1 POP DUP1 DUP4 DUP3 MSTORE PUSH1 0x20 DUP3 ADD SWAP1 POP PUSH1 0x20 DUP5 MUL DUP4 ADD DUP6 DUP2 GT ISZERO PUSH2 0x851 JUMPI PUSH2 0x850 PUSH2 0x538 JUMP JUMPDEST JUMPDEST DUP4 JUMPDEST DUP2 DUP2 LT ISZERO PUSH2 0x87A JUMPI DUP1 PUSH2 0x866 DUP9 DUP3 PUSH2 0x653 JUMP JUMPDEST DUP5 MSTORE PUSH1 0x20 DUP5 ADD SWAP4 POP POP PUSH1 0x20 DUP2 ADD SWAP1 POP PUSH2 0x853 JUMP JUMPDEST POP POP POP SWAP4 SWAP3 POP POP POP JUMP JUMPDEST PUSH0 DUP3 PUSH1 0x1F DUP4 ADD SLT PUSH2 0x898 JUMPI PUSH2 0x897 PUSH2 0x530 JUMP JUMPDEST JUMPDEST DUP2 CALLDATALOAD PUSH2 0x8A8 DUP5 DUP3 PUSH1 0x20 DUP7 ADD PUSH2 0x81C JUMP JUMPDEST SWAP2 POP POP SWAP3 SWAP2 POP POP JUMP JUMPDEST PUSH0 PUSH1 0x20 DUP3 DUP5 SUB SLT ISZERO PUSH2 0x8C6 JUMPI PUSH2 0x8C5 PUSH2 0x528 JUMP JUMPDEST JUMPDEST PUSH0 DUP3 ADD CALLDATALOAD PUSH8 0xFFFFFFFFFFFFFFFF DUP2 GT ISZERO PUSH2 0x8E3 JUMPI PUSH2 0x8E2 PUSH2 0x52C JUMP JUMPDEST JUMPDEST PUSH2 0x8EF DUP5 DUP3 DUP6 ADD PUSH2 0x884 JUMP JUMPDEST SWAP2 POP POP SWAP3 SWAP2 POP POP JUMP JUMPDEST PUSH0 DUP1 REVERT JUMPDEST PUSH0 PUSH8 0xFFFFFFFFFFFFFFFF DUP3 GT ISZERO PUSH2 0x916 JUMPI PUSH2 0x915 PUSH2 0x779 JUMP JUMPDEST JUMPDEST PUSH2 0x91F DUP3 PUSH2 0x769 JUMP JUMPDEST SWAP1 POP PUSH1 0x20 DUP2 ADD SWAP1 POP SWAP2 SWAP1 POP JUMP JUMPDEST DUP3 DUP2 DUP4 CALLDATACOPY PUSH0 DUP4 DUP4 ADD MSTORE POP POP POP JUMP JUMPDEST PUSH0 PUSH2 0x94C PUSH2 0x947 DUP5 PUSH2 0x8FC JUMP JUMPDEST PUSH2 0x7D7 JUMP JUMPDEST SWAP1 POP DUP3 DUP2 MSTORE PUSH1 0x20 DUP2 ADD DUP5 DUP5 DUP5 ADD GT ISZERO PUSH2 0x968 JUMPI PUSH2 0x967 PUSH2 0x8F8 JUMP JUMPDEST JUMPDEST PUSH2 0x973 DUP5 DUP3 DUP6 PUSH2 0x92C JUMP JUMPDEST POP SWAP4 SWAP3 POP POP POP JUMP JUMPDEST PUSH0 DUP3 PUSH1 0x1F DUP4 ADD SLT PUSH2 0x98F JUMPI PUSH2 0x98E PUSH2 0x530 JUMP JUMPDEST JUMPDEST DUP2 CALLDATALOAD PUSH2 0x99F DUP5 DUP3 PUSH1 0x20 DUP7 ADD PUSH2 0x93A JUMP JUMPDEST SWAP2 POP POP SWAP3 SWAP2 POP POP JUMP JUMPDEST PUSH0 PUSH8 0xFFFFFFFFFFFFFFFF DUP3 GT ISZERO PUSH2 0x9C2 JUMPI PUSH2 0x9C1 PUSH2 0x779 JUMP JUMPDEST JUMPDEST PUSH2 0x9CB DUP3 PUSH2 0x769 JUMP JUMPDEST SWAP1 POP PUSH1 0x20 DUP2 ADD SWAP1 POP SWAP2 SWAP1 POP JUMP JUMPDEST PUSH0 PUSH2 0x9EA PUSH2 0x9E5 DUP5 PUSH2 0x9A8 JUMP JUMPDEST PUSH2 0x7D7 JUMP JUMPDEST SWAP1 POP DUP3 DUP2 MSTORE PUSH1 0x20 DUP2 ADD DUP5 DUP5 DUP5 ADD GT ISZERO PUSH2 0xA06 JUMPI PUSH2 0xA05 PUSH2 0x8F8 JUMP JUMPDEST JUMPDEST PUSH2 0xA11 DUP5 DUP3 DUP6 PUSH2 0x92C JUMP JUMPDEST POP SWAP4 SWAP3 POP POP POP JUMP JUMPDEST PUSH0 DUP3 PUSH1 0x1F DUP4 ADD SLT PUSH2 0xA2D JUMPI PUSH2 0xA2C PUSH2 0x530 JUMP JUMPDEST JUMPDEST DUP2 CALLDATALOAD PUSH2 0xA3D DUP5 DUP3 PUSH1 0x20 DUP7 ADD PUSH2 0x9D8 JUMP JUMPDEST SWAP2 POP POP SWAP3 SWAP2 POP POP JUMP JUMPDEST PUSH0 DUP1 PUSH1 0x40 DUP4 DUP6 SUB SLT ISZERO PUSH2 0xA5C JUMPI PUSH2 0xA5B PUSH2 0x528 JUMP JUMPDEST JUMPDEST PUSH0 DUP4 ADD CALLDATALOAD PUSH8 0xFFFFFFFFFFFFFFFF DUP2 GT ISZERO PUSH2 0xA79 JUMPI PUSH2 0xA78 PUSH2 0x52C JUMP JUMPDEST JUMPDEST PUSH2 0xA85 DUP6 DUP3 DUP7 ADD PUSH2 0x97B JUMP JUMPDEST SWAP3 POP POP PUSH1 0x20 DUP4 ADD CALLDATALOAD PUSH8 0xFFFFFFFFFFFFFFFF DUP2 GT ISZERO PUSH2 0xAA6 JUMPI PUSH2 0xAA5 PUSH2 0x52C JUMP JUMPDEST JUMPDEST PUSH2 0xAB2 DUP6 DUP3 DUP7 ADD PUSH2 0xA19 JUMP JUMPDEST SWAP2 POP POP SWAP3 POP SWAP3 SWAP1 POP JUMP JUMPDEST PUSH0 DUP2 MLOAD SWAP1 POP SWAP2 SWAP1 POP JUMP JUMPDEST PUSH0 DUP3 DUP3 MSTORE PUSH1 0x20 DUP3 ADD SWAP1 POP SWAP3 SWAP2 POP POP JUMP JUMPDEST DUP3 DUP2 DUP4 MCOPY PUSH0 DUP4 DUP4 ADD MSTORE POP POP POP JUMP JUMPDEST PUSH0 PUSH2 0xAEE DUP3 PUSH2 0xABC JUMP JUMPDEST PUSH2 0xAF8 DUP2 DUP6 PUSH2 0xAC6 JUMP JUMPDEST SWAP4 POP PUSH2 0xB08 DUP2 DUP6 PUSH1 0x20 DUP7 ADD PUSH2 0xAD6 JUMP JUMPDEST PUSH2 0xB11 DUP2 PUSH2 0x769 JUMP JUMPDEST DUP5 ADD SWAP2 POP POP SWAP3 SWAP2 POP POP JUMP JUMPDEST PUSH0 PUSH1 0x40 DUP3 ADD SWAP1 POP DUP2 DUP2 SUB PUSH0 DUP4 ADD MSTORE PUSH2 0xB34 DUP2 DUP6 PUSH2 0xAE4 JUMP JUMPDEST SWAP1 POP DUP2 DUP2 SUB PUSH1 0x20 DUP4 ADD MSTORE PUSH2 0xB48 DUP2 DUP5 PUSH2 0xAE4 JUMP JUMPDEST SWAP1 POP SWAP4 SWAP3 POP POP POP JUMP JUMPDEST PUSH32 0x4E487B7100000000000000000000000000000000000000000000000000000000 PUSH0 MSTORE PUSH1 0x32 PUSH1 0x4 MSTORE PUSH1 0x24 PUSH0 REVERT JUMPDEST PUSH32 0x4E487B7100000000000000000000000000000000000000000000000000000000 PUSH0 MSTORE PUSH1 0x11 PUSH1 0x4 MSTORE PUSH1 0x24 PUSH0 REVERT JUMPDEST PUSH0 PUSH2 0xBB5 DUP3 PUSH2 0x5DC JUMP JUMPDEST SWAP2 POP PUSH2 0xBC0 DUP4 PUSH2 0x5DC JUMP JUMPDEST SWAP3 POP DUP3 DUP3 ADD SWAP1 POP DUP1 DUP3 GT ISZERO PUSH2 0xBD8 JUMPI PUSH2 0xBD7 PUSH2 0xB7E JUMP JUMPDEST JUMPDEST SWAP3 SWAP2 POP POP JUMP JUMPDEST PUSH0 PUSH2 0xBE8 DUP3 PUSH2 0x5DC JUMP JUMPDEST SWAP2 POP PUSH2 0xBF3 DUP4 PUSH2 0x5DC JUMP JUMPDEST SWAP3 POP DUP3 DUP3 SUB SWAP1 POP DUP2 DUP2 GT ISZERO PUSH2 0xC0B JUMPI PUSH2 0xC0A PUSH2 0xB7E JUMP JUMPDEST JUMPDEST SWAP3 SWAP2 POP POP JUMP JUMPDEST PUSH32 0x4E487B7100000000000000000000000000000000000000000000000000000000 PUSH0 MSTORE PUSH1 0x31 PUSH1 0x4 MSTORE PUSH1 0x24 PUSH0 REVERT INVALID LOG2 PUSH5 0x6970667358 0x22 SLT KECCAK256 PUSH4 0xE5799238 0xDF SIGNEXTEND 0xBF SAR LOG3 0xCA BALANCE SUB SDIV CALL PREVRANDAO JUMP 0x27 0xF9 0x2E 0xB2 PREVRANDAO MULMOD DELEGATECALL DUP1 0xC7 0x1F 0xC7 SDIV SHL 0xF6 CODESIZE PUSH5 0x736F6C6343 STOP ADDMOD BYTE STOP CALLER "
				},
				"gasEstimates": {
					"creation": {
						"codeDepositCost": "637600",
						"executionCost": "668",
						"totalCost": "638268"
					},
					"external": {
						"Sumarray(uint256[])": "infinite",
						"delTest(address)": "infinite",
						"opstr(bytes,string)": "infinite",
						"setArray(address[])": "infinite"
					}
				},
				"methodIdentifiers": {
					"Sumarray(uint256[])": "0243cad5",
					"delTest(address)": "384bc172",
					"opstr(bytes,string)": "d01ee72a",
					"setArray(address[])": "9f494991"
				}
			},
			"storageLayout": {
				"storage": [
					{
						"astId": 4,
						"contract": "solidity/homework/arraytest.sol:ArrayTest",
						"label": "adds",
						"offset": 0,
						"slot": "0",
						"type": "t_array(t_address)dyn_storage"
					}
				],
				"types": {
					"t_address": {
						"encoding": "inplace",
						"label": "address",
						"numberOfBytes": "20"
					},
					"t_array(t_address)dyn_storage": {
						"base": "t_address",
						"encoding": "dynamic_array",
						"label": "address[]",
						"numberOfBytes": "32"
					}
				}
			},
			"userdoc": {
				"kind": "user",
				"methods": {},
				"version": 1
			}
		}
	}
}