{
	"solidity/soliditybase/selector.sol": {
		"selector": {
			"abi": [
				{
					"anonymous": false,
					"inputs": [
						{
							"indexed": false,
							"internalType": "bytes",
							"name": "data",
							"type": "bytes"
						}
					],
					"name": "Log",
					"type": "event"
				},
				{
					"anonymous": false,
					"inputs": [
						{
							"indexed": false,
							"internalType": "bytes4",
							"name": "data",
							"type": "bytes4"
						}
					],
					"name": "SelectorEvent",
					"type": "event"
				},
				{
					"anonymous": false,
					"inputs": [
						{
							"indexed": false,
							"internalType": "address",
							"name": "",
							"type": "address"
						},
						{
							"indexed": false,
							"internalType": "address",
							"name": "",
							"type": "address"
						},
						{
							"indexed": false,
							"internalType": "uint256",
							"name": "",
							"type": "uint256"
						}
					],
					"name": "Transfer",
					"type": "event"
				},
				{
					"inputs": [
						{
							"internalType": "contract DemoContract",
							"name": "demo",
							"type": "address"
						},
						{
							"components": [
								{
									"internalType": "uint256",
									"name": "id",
									"type": "uint256"
								},
								{
									"internalType": "bytes",
									"name": "name",
									"type": "bytes"
								}
							],
							"internalType": "struct selector.User",
							"name": "user",
							"type": "tuple"
						},
						{
							"internalType": "uint256[]",
							"name": "count",
							"type": "uint256[]"
						},
						{
							"internalType": "enum selector.School",
							"name": "myschool",
							"type": "uint8"
						}
					],
					"name": "mappingParamSector",
					"outputs": [
						{
							"internalType": "bytes4",
							"name": "",
							"type": "bytes4"
						}
					],
					"stateMutability": "nonpayable",
					"type": "function"
				},
				{
					"inputs": [
						{
							"internalType": "address",
							"name": "to",
							"type": "address"
						}
					],
					"name": "mint",
					"outputs": [],
					"stateMutability": "nonpayable",
					"type": "function"
				},
				{
					"inputs": [],
					"name": "mintSelector",
					"outputs": [
						{
							"internalType": "bytes4",
							"name": "",
							"type": "bytes4"
						}
					],
					"stateMutability": "pure",
					"type": "function"
				},
				{
					"inputs": [
						{
							"internalType": "address",
							"name": "recipient",
							"type": "address"
						},
						{
							"internalType": "uint256",
							"name": "amount",
							"type": "uint256"
						}
					],
					"name": "transfer",
					"outputs": [
						{
							"internalType": "bool",
							"name": "",
							"type": "bool"
						}
					],
					"stateMutability": "nonpayable",
					"type": "function"
				}
			],
			"devdoc": {
				"kind": "dev",
				"methods": {},
				"version": 1
			},
			"evm": {
				"assembly": "    /* \"solidity/soliditybase/selector.sol\":85:10664  contract selector{... */\n  mstore(0x40, 0x80)\n  callvalue\n  dup1\n  iszero\n  tag_1\n  jumpi\n  0x00\n  dup1\n  revert\ntag_1:\n  pop\n  dataSize(sub_0)\n  dup1\n  dataOffset(sub_0)\n  0x00\n  codecopy\n  0x00\n  return\nstop\n\nsub_0: assembly {\n        /* \"solidity/soliditybase/selector.sol\":85:10664  contract selector{... */\n      mstore(0x40, 0x80)\n      callvalue\n      dup1\n      iszero\n      tag_1\n      jumpi\n      0x00\n      dup1\n      revert\n    tag_1:\n      pop\n      jumpi(tag_2, lt(calldatasize, 0x04))\n      shr(0xe0, calldataload(0x00))\n      dup1\n      0x046dab16\n      eq\n      tag_3\n      jumpi\n      dup1\n      0x62ae717c\n      eq\n      tag_4\n      jumpi\n      dup1\n      0x6a627842\n      eq\n      tag_5\n      jumpi\n      dup1\n      0xa9059cbb\n      eq\n      tag_6\n      jumpi\n    tag_2:\n      0x00\n      dup1\n      revert\n        /* \"solidity/soliditybase/selector.sol\":384:497  function mintSelector() external pure returns(bytes4){... */\n    tag_3:\n      tag_7\n      tag_8\n      jump\t// in\n    tag_7:\n      mload(0x40)\n      tag_9\n      swap2\n      swap1\n      tag_10\n      jump\t// in\n    tag_9:\n      mload(0x40)\n      dup1\n      swap2\n      sub\n      swap1\n      return\n        /* \"solidity/soliditybase/selector.sol\":10064:10368  function mappingParamSector(DemoContract demo, User memory user, uint256[] memory count, School myschool) external returns(bytes4){... */\n    tag_4:\n      tag_11\n      0x04\n      dup1\n      calldatasize\n      sub\n      dup2\n      add\n      swap1\n      tag_12\n      swap2\n      swap1\n      tag_13\n      jump\t// in\n    tag_12:\n      tag_14\n      jump\t// in\n    tag_11:\n      mload(0x40)\n      tag_15\n      swap2\n      swap1\n      tag_10\n      jump\t// in\n    tag_15:\n      mload(0x40)\n      dup1\n      swap2\n      sub\n      swap1\n      return\n        /* \"solidity/soliditybase/selector.sol\":304:376  function mint(address to) external {... */\n    tag_5:\n      tag_16\n      0x04\n      dup1\n      calldatasize\n      sub\n      dup2\n      add\n      swap1\n      tag_17\n      swap2\n      swap1\n      tag_18\n      jump\t// in\n    tag_17:\n      tag_19\n      jump\t// in\n    tag_16:\n      stop\n        /* \"solidity/soliditybase/selector.sol\":10417:10659  function transfer(address recipient, uint amount) external returns (bool) {... */\n    tag_6:\n      tag_20\n      0x04\n      dup1\n      calldatasize\n      sub\n      dup2\n      add\n      swap1\n      tag_21\n      swap2\n      swap1\n      tag_22\n      jump\t// in\n    tag_21:\n      tag_23\n      jump\t// in\n    tag_20:\n      mload(0x40)\n      tag_24\n      swap2\n      swap1\n      tag_25\n      jump\t// in\n    tag_24:\n      mload(0x40)\n      dup1\n      swap2\n      sub\n      swap1\n      return\n        /* \"solidity/soliditybase/selector.sol\":384:497  function mintSelector() external pure returns(bytes4){... */\n    tag_8:\n        /* \"solidity/soliditybase/selector.sol\":430:436  bytes4 */\n      0x00\n        /* \"solidity/soliditybase/selector.sol\":462:488  keccak256(\"mint(address)\") */\n      0x6a627842f752de95745ef8f3ca67858982b5f585d752f8163e5855050041cb3c\n        /* \"solidity/soliditybase/selector.sol\":448:489  return bytes4(keccak256(\"mint(address)\")) */\n      swap1\n      pop\n        /* \"solidity/soliditybase/selector.sol\":384:497  function mintSelector() external pure returns(bytes4){... */\n      swap1\n      jump\t// out\n        /* \"solidity/soliditybase/selector.sol\":10064:10368  function mappingParamSector(DemoContract demo, User memory user, uint256[] memory count, School myschool) external returns(bytes4){... */\n    tag_14:\n        /* \"solidity/soliditybase/selector.sol\":10187:10193  bytes4 */\n      0x00\n        /* \"solidity/soliditybase/selector.sol\":10210:10257  SelectorEvent(this.mappingParamSector.selector) */\n      0x87c76683e354abe8640b03c72d02c9175d9a00a6c0101d5bc4be081b9b8199eb\n        /* \"solidity/soliditybase/selector.sol\":10224:10256  this.mappingParamSector.selector */\n      shl(0xe0, 0x62ae717c)\n        /* \"solidity/soliditybase/selector.sol\":10210:10257  SelectorEvent(this.mappingParamSector.selector) */\n      mload(0x40)\n      tag_28\n      swap2\n      swap1\n      tag_10\n      jump\t// in\n    tag_28:\n      mload(0x40)\n      dup1\n      swap2\n      sub\n      swap1\n      log1\n        /* \"solidity/soliditybase/selector.sol\":10282:10359  keccak256(\"mappingParamSector(DemoContract,(uint256,bytes),uint256[],uint8)\") */\n      0xfe987ac889990b10c3631981b37897713095ac1644fa75c34bba26f89a138c9b\n        /* \"solidity/soliditybase/selector.sol\":10268:10360  return bytes4(keccak256(\"mappingParamSector(DemoContract,(uint256,bytes),uint256[],uint8)\")) */\n      swap1\n      pop\n        /* \"solidity/soliditybase/selector.sol\":10064:10368  function mappingParamSector(DemoContract demo, User memory user, uint256[] memory count, School myschool) external returns(bytes4){... */\n      swap5\n      swap4\n      pop\n      pop\n      pop\n      pop\n      jump\t// out\n        /* \"solidity/soliditybase/selector.sol\":304:376  function mint(address to) external {... */\n    tag_19:\n        /* \"solidity/soliditybase/selector.sol\":355:368  Log(msg.data) */\n      0xafabcf2dd47e06a477a89e49c03f8ebe8e0a7e94f775b25bbb24227c9d0110b2\n        /* \"solidity/soliditybase/selector.sol\":359:367  msg.data */\n      0x00\n      calldatasize\n        /* \"solidity/soliditybase/selector.sol\":355:368  Log(msg.data) */\n      mload(0x40)\n      tag_30\n      swap3\n      swap2\n      swap1\n      tag_31\n      jump\t// in\n    tag_30:\n      mload(0x40)\n      dup1\n      swap2\n      sub\n      swap1\n      log1\n        /* \"solidity/soliditybase/selector.sol\":304:376  function mint(address to) external {... */\n      pop\n      jump\t// out\n        /* \"solidity/soliditybase/selector.sol\":10417:10659  function transfer(address recipient, uint amount) external returns (bool) {... */\n    tag_23:\n        /* \"solidity/soliditybase/selector.sol\":10485:10489  bool */\n      0x00\n        /* \"solidity/soliditybase/selector.sol\":10527:10533  amount */\n      dup2\n        /* \"solidity/soliditybase/selector.sol\":10502:10511  balanceOf */\n      0x00\n        /* \"solidity/soliditybase/selector.sol\":10502:10523  balanceOf[msg.sender] */\n      dup1\n        /* \"solidity/soliditybase/selector.sol\":10512:10522  msg.sender */\n      caller\n        /* \"solidity/soliditybase/selector.sol\":10502:10523  balanceOf[msg.sender] */\n      0xffffffffffffffffffffffffffffffffffffffff\n      and\n      0xffffffffffffffffffffffffffffffffffffffff\n      and\n      dup2\n      mstore\n      0x20\n      add\n      swap1\n      dup2\n      mstore\n      0x20\n      add\n      0x00\n      keccak256\n      0x00\n        /* \"solidity/soliditybase/selector.sol\":10502:10533  balanceOf[msg.sender] -= amount */\n      dup3\n      dup3\n      sload\n      tag_33\n      swap2\n      swap1\n      tag_34\n      jump\t// in\n    tag_33:\n      swap3\n      pop\n      pop\n      dup2\n      swap1\n      sstore\n      pop\n        /* \"solidity/soliditybase/selector.sol\":10568:10574  amount */\n      dup2\n        /* \"solidity/soliditybase/selector.sol\":10544:10553  balanceOf */\n      0x00\n        /* \"solidity/soliditybase/selector.sol\":10544:10564  balanceOf[recipient] */\n      dup1\n        /* \"solidity/soliditybase/selector.sol\":10554:10563  recipient */\n      dup6\n        /* \"solidity/soliditybase/selector.sol\":10544:10564  balanceOf[recipient] */\n      0xffffffffffffffffffffffffffffffffffffffff\n      and\n      0xffffffffffffffffffffffffffffffffffffffff\n      and\n      dup2\n      mstore\n      0x20\n      add\n      swap1\n      dup2\n      mstore\n      0x20\n      add\n      0x00\n      keccak256\n      0x00\n        /* \"solidity/soliditybase/selector.sol\":10544:10574  balanceOf[recipient] += amount */\n      dup3\n      dup3\n      sload\n      tag_35\n      swap2\n      swap1\n      tag_36\n      jump\t// in\n    tag_35:\n      swap3\n      pop\n      pop\n      dup2\n      swap1\n      sstore\n      pop\n        /* \"solidity/soliditybase/selector.sol\":10590:10629  Transfer(msg.sender, recipient, amount) */\n      0xddf252ad1be2c89b69c2b068fc378daa952ba7f163c4a11628f55a4df523b3ef\n        /* \"solidity/soliditybase/selector.sol\":10599:10609  msg.sender */\n      caller\n        /* \"solidity/soliditybase/selector.sol\":10611:10620  recipient */\n      dup5\n        /* \"solidity/soliditybase/selector.sol\":10622:10628  amount */\n      dup5\n        /* \"solidity/soliditybase/selector.sol\":10590:10629  Transfer(msg.sender, recipient, amount) */\n      mload(0x40)\n      tag_37\n      swap4\n      swap3\n      swap2\n      swap1\n      tag_38\n      jump\t// in\n    tag_37:\n      mload(0x40)\n      dup1\n      swap2\n      sub\n      swap1\n      log1\n        /* \"solidity/soliditybase/selector.sol\":10647:10651  true */\n      0x01\n        /* \"solidity/soliditybase/selector.sol\":10640:10651  return true */\n      swap1\n      pop\n        /* \"solidity/soliditybase/selector.sol\":10417:10659  function transfer(address recipient, uint amount) external returns (bool) {... */\n      swap3\n      swap2\n      pop\n      pop\n      jump\t// out\n        /* \"#utility.yul\":7:156   */\n    tag_39:\n        /* \"#utility.yul\":43:50   */\n      0x00\n        /* \"#utility.yul\":83:149   */\n      0xffffffff00000000000000000000000000000000000000000000000000000000\n        /* \"#utility.yul\":76:81   */\n      dup3\n        /* \"#utility.yul\":72:150   */\n      and\n        /* \"#utility.yul\":61:150   */\n      swap1\n      pop\n        /* \"#utility.yul\":7:156   */\n      swap2\n      swap1\n      pop\n      jump\t// out\n        /* \"#utility.yul\":162:277   */\n    tag_40:\n        /* \"#utility.yul\":247:270   */\n      tag_83\n        /* \"#utility.yul\":264:269   */\n      dup2\n        /* \"#utility.yul\":247:270   */\n      tag_39\n      jump\t// in\n    tag_83:\n        /* \"#utility.yul\":242:245   */\n      dup3\n        /* \"#utility.yul\":235:271   */\n      mstore\n        /* \"#utility.yul\":162:277   */\n      pop\n      pop\n      jump\t// out\n        /* \"#utility.yul\":283:501   */\n    tag_10:\n        /* \"#utility.yul\":374:378   */\n      0x00\n        /* \"#utility.yul\":412:414   */\n      0x20\n        /* \"#utility.yul\":401:410   */\n      dup3\n        /* \"#utility.yul\":397:415   */\n      add\n        /* \"#utility.yul\":389:415   */\n      swap1\n      pop\n        /* \"#utility.yul\":425:494   */\n      tag_85\n        /* \"#utility.yul\":491:492   */\n      0x00\n        /* \"#utility.yul\":480:489   */\n      dup4\n        /* \"#utility.yul\":476:493   */\n      add\n        /* \"#utility.yul\":467:473   */\n      dup5\n        /* \"#utility.yul\":425:494   */\n      tag_40\n      jump\t// in\n    tag_85:\n        /* \"#utility.yul\":283:501   */\n      swap3\n      swap2\n      pop\n      pop\n      jump\t// out\n        /* \"#utility.yul\":507:582   */\n    tag_41:\n        /* \"#utility.yul\":540:546   */\n      0x00\n        /* \"#utility.yul\":573:575   */\n      0x40\n        /* \"#utility.yul\":567:576   */\n      mload\n        /* \"#utility.yul\":557:576   */\n      swap1\n      pop\n        /* \"#utility.yul\":507:582   */\n      swap1\n      jump\t// out\n        /* \"#utility.yul\":588:705   */\n    tag_42:\n        /* \"#utility.yul\":697:698   */\n      0x00\n        /* \"#utility.yul\":694:695   */\n      dup1\n        /* \"#utility.yul\":687:699   */\n      revert\n        /* \"#utility.yul\":711:828   */\n    tag_43:\n        /* \"#utility.yul\":820:821   */\n      0x00\n        /* \"#utility.yul\":817:818   */\n      dup1\n        /* \"#utility.yul\":810:822   */\n      revert\n        /* \"#utility.yul\":834:960   */\n    tag_44:\n        /* \"#utility.yul\":871:878   */\n      0x00\n        /* \"#utility.yul\":911:953   */\n      0xffffffffffffffffffffffffffffffffffffffff\n        /* \"#utility.yul\":904:909   */\n      dup3\n        /* \"#utility.yul\":900:954   */\n      and\n        /* \"#utility.yul\":889:954   */\n      swap1\n      pop\n        /* \"#utility.yul\":834:960   */\n      swap2\n      swap1\n      pop\n      jump\t// out\n        /* \"#utility.yul\":966:1062   */\n    tag_45:\n        /* \"#utility.yul\":1003:1010   */\n      0x00\n        /* \"#utility.yul\":1032:1056   */\n      tag_91\n        /* \"#utility.yul\":1050:1055   */\n      dup3\n        /* \"#utility.yul\":1032:1056   */\n      tag_44\n      jump\t// in\n    tag_91:\n        /* \"#utility.yul\":1021:1056   */\n      swap1\n      pop\n        /* \"#utility.yul\":966:1062   */\n      swap2\n      swap1\n      pop\n      jump\t// out\n        /* \"#utility.yul\":1068:1182   */\n    tag_46:\n        /* \"#utility.yul\":1123:1130   */\n      0x00\n        /* \"#utility.yul\":1152:1176   */\n      tag_93\n        /* \"#utility.yul\":1170:1175   */\n      dup3\n        /* \"#utility.yul\":1152:1176   */\n      tag_45\n      jump\t// in\n    tag_93:\n        /* \"#utility.yul\":1141:1176   */\n      swap1\n      pop\n        /* \"#utility.yul\":1068:1182   */\n      swap2\n      swap1\n      pop\n      jump\t// out\n        /* \"#utility.yul\":1188:1346   */\n    tag_47:\n        /* \"#utility.yul\":1279:1321   */\n      tag_95\n        /* \"#utility.yul\":1315:1320   */\n      dup2\n        /* \"#utility.yul\":1279:1321   */\n      tag_46\n      jump\t// in\n    tag_95:\n        /* \"#utility.yul\":1272:1277   */\n      dup2\n        /* \"#utility.yul\":1269:1322   */\n      eq\n        /* \"#utility.yul\":1259:1340   */\n      tag_96\n      jumpi\n        /* \"#utility.yul\":1336:1337   */\n      0x00\n        /* \"#utility.yul\":1333:1334   */\n      dup1\n        /* \"#utility.yul\":1326:1338   */\n      revert\n        /* \"#utility.yul\":1259:1340   */\n    tag_96:\n        /* \"#utility.yul\":1188:1346   */\n      pop\n      jump\t// out\n        /* \"#utility.yul\":1352:1527   */\n    tag_48:\n        /* \"#utility.yul\":1416:1421   */\n      0x00\n        /* \"#utility.yul\":1454:1460   */\n      dup2\n        /* \"#utility.yul\":1441:1461   */\n      calldataload\n        /* \"#utility.yul\":1432:1461   */\n      swap1\n      pop\n        /* \"#utility.yul\":1470:1521   */\n      tag_98\n        /* \"#utility.yul\":1515:1520   */\n      dup2\n        /* \"#utility.yul\":1470:1521   */\n      tag_47\n      jump\t// in\n    tag_98:\n        /* \"#utility.yul\":1352:1527   */\n      swap3\n      swap2\n      pop\n      pop\n      jump\t// out\n        /* \"#utility.yul\":1533:1650   */\n    tag_49:\n        /* \"#utility.yul\":1642:1643   */\n      0x00\n        /* \"#utility.yul\":1639:1640   */\n      dup1\n        /* \"#utility.yul\":1632:1644   */\n      revert\n        /* \"#utility.yul\":1656:1758   */\n    tag_50:\n        /* \"#utility.yul\":1697:1703   */\n      0x00\n        /* \"#utility.yul\":1748:1750   */\n      0x1f\n        /* \"#utility.yul\":1744:1751   */\n      not\n        /* \"#utility.yul\":1739:1741   */\n      0x1f\n        /* \"#utility.yul\":1732:1737   */\n      dup4\n        /* \"#utility.yul\":1728:1742   */\n      add\n        /* \"#utility.yul\":1724:1752   */\n      and\n        /* \"#utility.yul\":1714:1752   */\n      swap1\n      pop\n        /* \"#utility.yul\":1656:1758   */\n      swap2\n      swap1\n      pop\n      jump\t// out\n        /* \"#utility.yul\":1764:1944   */\n    tag_51:\n        /* \"#utility.yul\":1812:1889   */\n      0x4e487b7100000000000000000000000000000000000000000000000000000000\n        /* \"#utility.yul\":1809:1810   */\n      0x00\n        /* \"#utility.yul\":1802:1890   */\n      mstore\n        /* \"#utility.yul\":1909:1913   */\n      0x41\n        /* \"#utility.yul\":1906:1907   */\n      0x04\n        /* \"#utility.yul\":1899:1914   */\n      mstore\n        /* \"#utility.yul\":1933:1937   */\n      0x24\n        /* \"#utility.yul\":1930:1931   */\n      0x00\n        /* \"#utility.yul\":1923:1938   */\n      revert\n        /* \"#utility.yul\":1950:2231   */\n    tag_52:\n        /* \"#utility.yul\":2033:2060   */\n      tag_103\n        /* \"#utility.yul\":2055:2059   */\n      dup3\n        /* \"#utility.yul\":2033:2060   */\n      tag_50\n      jump\t// in\n    tag_103:\n        /* \"#utility.yul\":2025:2031   */\n      dup2\n        /* \"#utility.yul\":2021:2061   */\n      add\n        /* \"#utility.yul\":2163:2169   */\n      dup2\n        /* \"#utility.yul\":2151:2161   */\n      dup2\n        /* \"#utility.yul\":2148:2170   */\n      lt\n        /* \"#utility.yul\":2127:2145   */\n      0xffffffffffffffff\n        /* \"#utility.yul\":2115:2125   */\n      dup3\n        /* \"#utility.yul\":2112:2146   */\n      gt\n        /* \"#utility.yul\":2109:2171   */\n      or\n        /* \"#utility.yul\":2106:2194   */\n      iszero\n      tag_104\n      jumpi\n        /* \"#utility.yul\":2174:2192   */\n      tag_105\n      tag_51\n      jump\t// in\n    tag_105:\n        /* \"#utility.yul\":2106:2194   */\n    tag_104:\n        /* \"#utility.yul\":2214:2224   */\n      dup1\n        /* \"#utility.yul\":2210:2212   */\n      0x40\n        /* \"#utility.yul\":2203:2225   */\n      mstore\n        /* \"#utility.yul\":1993:2231   */\n      pop\n        /* \"#utility.yul\":1950:2231   */\n      pop\n      pop\n      jump\t// out\n        /* \"#utility.yul\":2237:2366   */\n    tag_53:\n        /* \"#utility.yul\":2271:2277   */\n      0x00\n        /* \"#utility.yul\":2298:2318   */\n      tag_107\n      tag_41\n      jump\t// in\n    tag_107:\n        /* \"#utility.yul\":2288:2318   */\n      swap1\n      pop\n        /* \"#utility.yul\":2327:2360   */\n      tag_108\n        /* \"#utility.yul\":2355:2359   */\n      dup3\n        /* \"#utility.yul\":2347:2353   */\n      dup3\n        /* \"#utility.yul\":2327:2360   */\n      tag_52\n      jump\t// in\n    tag_108:\n        /* \"#utility.yul\":2237:2366   */\n      swap2\n      swap1\n      pop\n      jump\t// out\n        /* \"#utility.yul\":2372:2489   */\n    tag_54:\n        /* \"#utility.yul\":2481:2482   */\n      0x00\n        /* \"#utility.yul\":2478:2479   */\n      dup1\n        /* \"#utility.yul\":2471:2483   */\n      revert\n        /* \"#utility.yul\":2495:2572   */\n    tag_55:\n        /* \"#utility.yul\":2532:2539   */\n      0x00\n        /* \"#utility.yul\":2561:2566   */\n      dup2\n        /* \"#utility.yul\":2550:2566   */\n      swap1\n      pop\n        /* \"#utility.yul\":2495:2572   */\n      swap2\n      swap1\n      pop\n      jump\t// out\n        /* \"#utility.yul\":2578:2700   */\n    tag_56:\n        /* \"#utility.yul\":2651:2675   */\n      tag_112\n        /* \"#utility.yul\":2669:2674   */\n      dup2\n        /* \"#utility.yul\":2651:2675   */\n      tag_55\n      jump\t// in\n    tag_112:\n        /* \"#utility.yul\":2644:2649   */\n      dup2\n        /* \"#utility.yul\":2641:2676   */\n      eq\n        /* \"#utility.yul\":2631:2694   */\n      tag_113\n      jumpi\n        /* \"#utility.yul\":2690:2691   */\n      0x00\n        /* \"#utility.yul\":2687:2688   */\n      dup1\n        /* \"#utility.yul\":2680:2692   */\n      revert\n        /* \"#utility.yul\":2631:2694   */\n    tag_113:\n        /* \"#utility.yul\":2578:2700   */\n      pop\n      jump\t// out\n        /* \"#utility.yul\":2706:2845   */\n    tag_57:\n        /* \"#utility.yul\":2752:2757   */\n      0x00\n        /* \"#utility.yul\":2790:2796   */\n      dup2\n        /* \"#utility.yul\":2777:2797   */\n      calldataload\n        /* \"#utility.yul\":2768:2797   */\n      swap1\n      pop\n        /* \"#utility.yul\":2806:2839   */\n      tag_115\n        /* \"#utility.yul\":2833:2838   */\n      dup2\n        /* \"#utility.yul\":2806:2839   */\n      tag_56\n      jump\t// in\n    tag_115:\n        /* \"#utility.yul\":2706:2845   */\n      swap3\n      swap2\n      pop\n      pop\n      jump\t// out\n        /* \"#utility.yul\":2851:2968   */\n    tag_58:\n        /* \"#utility.yul\":2960:2961   */\n      0x00\n        /* \"#utility.yul\":2957:2958   */\n      dup1\n        /* \"#utility.yul\":2950:2962   */\n      revert\n        /* \"#utility.yul\":2974:3091   */\n    tag_59:\n        /* \"#utility.yul\":3083:3084   */\n      0x00\n        /* \"#utility.yul\":3080:3081   */\n      dup1\n        /* \"#utility.yul\":3073:3085   */\n      revert\n        /* \"#utility.yul\":3097:3404   */\n    tag_60:\n        /* \"#utility.yul\":3158:3162   */\n      0x00\n        /* \"#utility.yul\":3248:3266   */\n      0xffffffffffffffff\n        /* \"#utility.yul\":3240:3246   */\n      dup3\n        /* \"#utility.yul\":3237:3267   */\n      gt\n        /* \"#utility.yul\":3234:3290   */\n      iszero\n      tag_119\n      jumpi\n        /* \"#utility.yul\":3270:3288   */\n      tag_120\n      tag_51\n      jump\t// in\n    tag_120:\n        /* \"#utility.yul\":3234:3290   */\n    tag_119:\n        /* \"#utility.yul\":3308:3337   */\n      tag_121\n        /* \"#utility.yul\":3330:3336   */\n      dup3\n        /* \"#utility.yul\":3308:3337   */\n      tag_50\n      jump\t// in\n    tag_121:\n        /* \"#utility.yul\":3300:3337   */\n      swap1\n      pop\n        /* \"#utility.yul\":3392:3396   */\n      0x20\n        /* \"#utility.yul\":3386:3390   */\n      dup2\n        /* \"#utility.yul\":3382:3397   */\n      add\n        /* \"#utility.yul\":3374:3397   */\n      swap1\n      pop\n        /* \"#utility.yul\":3097:3404   */\n      swap2\n      swap1\n      pop\n      jump\t// out\n        /* \"#utility.yul\":3410:3558   */\n    tag_61:\n        /* \"#utility.yul\":3508:3514   */\n      dup3\n        /* \"#utility.yul\":3503:3506   */\n      dup2\n        /* \"#utility.yul\":3498:3501   */\n      dup4\n        /* \"#utility.yul\":3485:3515   */\n      calldatacopy\n        /* \"#utility.yul\":3549:3550   */\n      0x00\n        /* \"#utility.yul\":3540:3546   */\n      dup4\n        /* \"#utility.yul\":3535:3538   */\n      dup4\n        /* \"#utility.yul\":3531:3547   */\n      add\n        /* \"#utility.yul\":3524:3551   */\n      mstore\n        /* \"#utility.yul\":3410:3558   */\n      pop\n      pop\n      pop\n      jump\t// out\n        /* \"#utility.yul\":3564:3987   */\n    tag_62:\n        /* \"#utility.yul\":3641:3646   */\n      0x00\n        /* \"#utility.yul\":3666:3731   */\n      tag_124\n        /* \"#utility.yul\":3682:3730   */\n      tag_125\n        /* \"#utility.yul\":3723:3729   */\n      dup5\n        /* \"#utility.yul\":3682:3730   */\n      tag_60\n      jump\t// in\n    tag_125:\n        /* \"#utility.yul\":3666:3731   */\n      tag_53\n      jump\t// in\n    tag_124:\n        /* \"#utility.yul\":3657:3731   */\n      swap1\n      pop\n        /* \"#utility.yul\":3754:3760   */\n      dup3\n        /* \"#utility.yul\":3747:3752   */\n      dup2\n        /* \"#utility.yul\":3740:3761   */\n      mstore\n        /* \"#utility.yul\":3792:3796   */\n      0x20\n        /* \"#utility.yul\":3785:3790   */\n      dup2\n        /* \"#utility.yul\":3781:3797   */\n      add\n        /* \"#utility.yul\":3830:3833   */\n      dup5\n        /* \"#utility.yul\":3821:3827   */\n      dup5\n        /* \"#utility.yul\":3816:3819   */\n      dup5\n        /* \"#utility.yul\":3812:3828   */\n      add\n        /* \"#utility.yul\":3809:3834   */\n      gt\n        /* \"#utility.yul\":3806:3918   */\n      iszero\n      tag_126\n      jumpi\n        /* \"#utility.yul\":3837:3916   */\n      tag_127\n      tag_59\n      jump\t// in\n    tag_127:\n        /* \"#utility.yul\":3806:3918   */\n    tag_126:\n        /* \"#utility.yul\":3927:3981   */\n      tag_128\n        /* \"#utility.yul\":3974:3980   */\n      dup5\n        /* \"#utility.yul\":3969:3972   */\n      dup3\n        /* \"#utility.yul\":3964:3967   */\n      dup6\n        /* \"#utility.yul\":3927:3981   */\n      tag_61\n      jump\t// in\n    tag_128:\n        /* \"#utility.yul\":3647:3987   */\n      pop\n        /* \"#utility.yul\":3564:3987   */\n      swap4\n      swap3\n      pop\n      pop\n      pop\n      jump\t// out\n        /* \"#utility.yul\":4006:4344   */\n    tag_63:\n        /* \"#utility.yul\":4061:4066   */\n      0x00\n        /* \"#utility.yul\":4110:4113   */\n      dup3\n        /* \"#utility.yul\":4103:4107   */\n      0x1f\n        /* \"#utility.yul\":4095:4101   */\n      dup4\n        /* \"#utility.yul\":4091:4108   */\n      add\n        /* \"#utility.yul\":4087:4114   */\n      slt\n        /* \"#utility.yul\":4077:4199   */\n      tag_130\n      jumpi\n        /* \"#utility.yul\":4118:4197   */\n      tag_131\n      tag_58\n      jump\t// in\n    tag_131:\n        /* \"#utility.yul\":4077:4199   */\n    tag_130:\n        /* \"#utility.yul\":4235:4241   */\n      dup2\n        /* \"#utility.yul\":4222:4242   */\n      calldataload\n        /* \"#utility.yul\":4260:4338   */\n      tag_132\n        /* \"#utility.yul\":4334:4337   */\n      dup5\n        /* \"#utility.yul\":4326:4332   */\n      dup3\n        /* \"#utility.yul\":4319:4323   */\n      0x20\n        /* \"#utility.yul\":4311:4317   */\n      dup7\n        /* \"#utility.yul\":4307:4324   */\n      add\n        /* \"#utility.yul\":4260:4338   */\n      tag_62\n      jump\t// in\n    tag_132:\n        /* \"#utility.yul\":4251:4338   */\n      swap2\n      pop\n        /* \"#utility.yul\":4067:4344   */\n      pop\n        /* \"#utility.yul\":4006:4344   */\n      swap3\n      swap2\n      pop\n      pop\n      jump\t// out\n        /* \"#utility.yul\":4378:5114   */\n    tag_64:\n        /* \"#utility.yul\":4447:4452   */\n      0x00\n        /* \"#utility.yul\":4491:4495   */\n      0x40\n        /* \"#utility.yul\":4479:4488   */\n      dup3\n        /* \"#utility.yul\":4474:4477   */\n      dup5\n        /* \"#utility.yul\":4470:4489   */\n      sub\n        /* \"#utility.yul\":4466:4496   */\n      slt\n        /* \"#utility.yul\":4463:4580   */\n      iszero\n      tag_134\n      jumpi\n        /* \"#utility.yul\":4499:4578   */\n      tag_135\n      tag_49\n      jump\t// in\n    tag_135:\n        /* \"#utility.yul\":4463:4580   */\n    tag_134:\n        /* \"#utility.yul\":4598:4619   */\n      tag_136\n        /* \"#utility.yul\":4614:4618   */\n      0x40\n        /* \"#utility.yul\":4598:4619   */\n      tag_53\n      jump\t// in\n    tag_136:\n        /* \"#utility.yul\":4589:4619   */\n      swap1\n      pop\n        /* \"#utility.yul\":4676:4677   */\n      0x00\n        /* \"#utility.yul\":4716:4765   */\n      tag_137\n        /* \"#utility.yul\":4761:4764   */\n      dup5\n        /* \"#utility.yul\":4752:4758   */\n      dup3\n        /* \"#utility.yul\":4741:4750   */\n      dup6\n        /* \"#utility.yul\":4737:4759   */\n      add\n        /* \"#utility.yul\":4716:4765   */\n      tag_57\n      jump\t// in\n    tag_137:\n        /* \"#utility.yul\":4709:4713   */\n      0x00\n        /* \"#utility.yul\":4702:4707   */\n      dup4\n        /* \"#utility.yul\":4698:4714   */\n      add\n        /* \"#utility.yul\":4691:4766   */\n      mstore\n        /* \"#utility.yul\":4629:4777   */\n      pop\n        /* \"#utility.yul\":4864:4866   */\n      0x20\n        /* \"#utility.yul\":4853:4862   */\n      dup3\n        /* \"#utility.yul\":4849:4867   */\n      add\n        /* \"#utility.yul\":4836:4868   */\n      calldataload\n        /* \"#utility.yul\":4895:4913   */\n      0xffffffffffffffff\n        /* \"#utility.yul\":4887:4893   */\n      dup2\n        /* \"#utility.yul\":4884:4914   */\n      gt\n        /* \"#utility.yul\":4881:4998   */\n      iszero\n      tag_138\n      jumpi\n        /* \"#utility.yul\":4917:4996   */\n      tag_139\n      tag_54\n      jump\t// in\n    tag_139:\n        /* \"#utility.yul\":4881:4998   */\n    tag_138:\n        /* \"#utility.yul\":5037:5095   */\n      tag_140\n        /* \"#utility.yul\":5091:5094   */\n      dup5\n        /* \"#utility.yul\":5082:5088   */\n      dup3\n        /* \"#utility.yul\":5071:5080   */\n      dup6\n        /* \"#utility.yul\":5067:5089   */\n      add\n        /* \"#utility.yul\":5037:5095   */\n      tag_63\n      jump\t// in\n    tag_140:\n        /* \"#utility.yul\":5030:5034   */\n      0x20\n        /* \"#utility.yul\":5023:5028   */\n      dup4\n        /* \"#utility.yul\":5019:5035   */\n      add\n        /* \"#utility.yul\":5012:5096   */\n      mstore\n        /* \"#utility.yul\":4787:5107   */\n      pop\n        /* \"#utility.yul\":4378:5114   */\n      swap3\n      swap2\n      pop\n      pop\n      jump\t// out\n        /* \"#utility.yul\":5120:5431   */\n    tag_65:\n        /* \"#utility.yul\":5197:5201   */\n      0x00\n        /* \"#utility.yul\":5287:5305   */\n      0xffffffffffffffff\n        /* \"#utility.yul\":5279:5285   */\n      dup3\n        /* \"#utility.yul\":5276:5306   */\n      gt\n        /* \"#utility.yul\":5273:5329   */\n      iszero\n      tag_142\n      jumpi\n        /* \"#utility.yul\":5309:5327   */\n      tag_143\n      tag_51\n      jump\t// in\n    tag_143:\n        /* \"#utility.yul\":5273:5329   */\n    tag_142:\n        /* \"#utility.yul\":5359:5363   */\n      0x20\n        /* \"#utility.yul\":5351:5357   */\n      dup3\n        /* \"#utility.yul\":5347:5364   */\n      mul\n        /* \"#utility.yul\":5339:5364   */\n      swap1\n      pop\n        /* \"#utility.yul\":5419:5423   */\n      0x20\n        /* \"#utility.yul\":5413:5417   */\n      dup2\n        /* \"#utility.yul\":5409:5424   */\n      add\n        /* \"#utility.yul\":5401:5424   */\n      swap1\n      pop\n        /* \"#utility.yul\":5120:5431   */\n      swap2\n      swap1\n      pop\n      jump\t// out\n        /* \"#utility.yul\":5437:5554   */\n    tag_66:\n        /* \"#utility.yul\":5546:5547   */\n      0x00\n        /* \"#utility.yul\":5543:5544   */\n      dup1\n        /* \"#utility.yul\":5536:5548   */\n      revert\n        /* \"#utility.yul\":5577:6287   */\n    tag_67:\n        /* \"#utility.yul\":5673:5678   */\n      0x00\n        /* \"#utility.yul\":5698:5779   */\n      tag_146\n        /* \"#utility.yul\":5714:5778   */\n      tag_147\n        /* \"#utility.yul\":5771:5777   */\n      dup5\n        /* \"#utility.yul\":5714:5778   */\n      tag_65\n      jump\t// in\n    tag_147:\n        /* \"#utility.yul\":5698:5779   */\n      tag_53\n      jump\t// in\n    tag_146:\n        /* \"#utility.yul\":5689:5779   */\n      swap1\n      pop\n        /* \"#utility.yul\":5799:5804   */\n      dup1\n        /* \"#utility.yul\":5828:5834   */\n      dup4\n        /* \"#utility.yul\":5821:5826   */\n      dup3\n        /* \"#utility.yul\":5814:5835   */\n      mstore\n        /* \"#utility.yul\":5862:5866   */\n      0x20\n        /* \"#utility.yul\":5855:5860   */\n      dup3\n        /* \"#utility.yul\":5851:5867   */\n      add\n        /* \"#utility.yul\":5844:5867   */\n      swap1\n      pop\n        /* \"#utility.yul\":5915:5919   */\n      0x20\n        /* \"#utility.yul\":5907:5913   */\n      dup5\n        /* \"#utility.yul\":5903:5920   */\n      mul\n        /* \"#utility.yul\":5895:5901   */\n      dup4\n        /* \"#utility.yul\":5891:5921   */\n      add\n        /* \"#utility.yul\":5944:5947   */\n      dup6\n        /* \"#utility.yul\":5936:5942   */\n      dup2\n        /* \"#utility.yul\":5933:5948   */\n      gt\n        /* \"#utility.yul\":5930:6052   */\n      iszero\n      tag_148\n      jumpi\n        /* \"#utility.yul\":5963:6042   */\n      tag_149\n      tag_66\n      jump\t// in\n    tag_149:\n        /* \"#utility.yul\":5930:6052   */\n    tag_148:\n        /* \"#utility.yul\":6078:6084   */\n      dup4\n        /* \"#utility.yul\":6061:6281   */\n    tag_150:\n        /* \"#utility.yul\":6095:6101   */\n      dup2\n        /* \"#utility.yul\":6090:6093   */\n      dup2\n        /* \"#utility.yul\":6087:6102   */\n      lt\n        /* \"#utility.yul\":6061:6281   */\n      iszero\n      tag_152\n      jumpi\n        /* \"#utility.yul\":6170:6173   */\n      dup1\n        /* \"#utility.yul\":6199:6236   */\n      tag_153\n        /* \"#utility.yul\":6232:6235   */\n      dup9\n        /* \"#utility.yul\":6220:6230   */\n      dup3\n        /* \"#utility.yul\":6199:6236   */\n      tag_57\n      jump\t// in\n    tag_153:\n        /* \"#utility.yul\":6194:6197   */\n      dup5\n        /* \"#utility.yul\":6187:6237   */\n      mstore\n        /* \"#utility.yul\":6266:6270   */\n      0x20\n        /* \"#utility.yul\":6261:6264   */\n      dup5\n        /* \"#utility.yul\":6257:6271   */\n      add\n        /* \"#utility.yul\":6250:6271   */\n      swap4\n      pop\n        /* \"#utility.yul\":6137:6281   */\n      pop\n        /* \"#utility.yul\":6121:6125   */\n      0x20\n        /* \"#utility.yul\":6116:6119   */\n      dup2\n        /* \"#utility.yul\":6112:6126   */\n      add\n        /* \"#utility.yul\":6105:6126   */\n      swap1\n      pop\n        /* \"#utility.yul\":6061:6281   */\n      jump(tag_150)\n    tag_152:\n        /* \"#utility.yul\":6065:6086   */\n      pop\n        /* \"#utility.yul\":5679:6287   */\n      pop\n      pop\n        /* \"#utility.yul\":5577:6287   */\n      swap4\n      swap3\n      pop\n      pop\n      pop\n      jump\t// out\n        /* \"#utility.yul\":6310:6680   */\n    tag_68:\n        /* \"#utility.yul\":6381:6386   */\n      0x00\n        /* \"#utility.yul\":6430:6433   */\n      dup3\n        /* \"#utility.yul\":6423:6427   */\n      0x1f\n        /* \"#utility.yul\":6415:6421   */\n      dup4\n        /* \"#utility.yul\":6411:6428   */\n      add\n        /* \"#utility.yul\":6407:6434   */\n      slt\n        /* \"#utility.yul\":6397:6519   */\n      tag_155\n      jumpi\n        /* \"#utility.yul\":6438:6517   */\n      tag_156\n      tag_58\n      jump\t// in\n    tag_156:\n        /* \"#utility.yul\":6397:6519   */\n    tag_155:\n        /* \"#utility.yul\":6555:6561   */\n      dup2\n        /* \"#utility.yul\":6542:6562   */\n      calldataload\n        /* \"#utility.yul\":6580:6674   */\n      tag_157\n        /* \"#utility.yul\":6670:6673   */\n      dup5\n        /* \"#utility.yul\":6662:6668   */\n      dup3\n        /* \"#utility.yul\":6655:6659   */\n      0x20\n        /* \"#utility.yul\":6647:6653   */\n      dup7\n        /* \"#utility.yul\":6643:6660   */\n      add\n        /* \"#utility.yul\":6580:6674   */\n      tag_67\n      jump\t// in\n    tag_157:\n        /* \"#utility.yul\":6571:6674   */\n      swap2\n      pop\n        /* \"#utility.yul\":6387:6680   */\n      pop\n        /* \"#utility.yul\":6310:6680   */\n      swap3\n      swap2\n      pop\n      pop\n      jump\t// out\n        /* \"#utility.yul\":6686:6794   */\n    tag_69:\n        /* \"#utility.yul\":6768:6769   */\n      0x05\n        /* \"#utility.yul\":6761:6766   */\n      dup2\n        /* \"#utility.yul\":6758:6770   */\n      lt\n        /* \"#utility.yul\":6748:6788   */\n      tag_159\n      jumpi\n        /* \"#utility.yul\":6784:6785   */\n      0x00\n        /* \"#utility.yul\":6781:6782   */\n      dup1\n        /* \"#utility.yul\":6774:6786   */\n      revert\n        /* \"#utility.yul\":6748:6788   */\n    tag_159:\n        /* \"#utility.yul\":6686:6794   */\n      pop\n      jump\t// out\n        /* \"#utility.yul\":6800:6957   */\n    tag_70:\n        /* \"#utility.yul\":6855:6860   */\n      0x00\n        /* \"#utility.yul\":6893:6899   */\n      dup2\n        /* \"#utility.yul\":6880:6900   */\n      calldataload\n        /* \"#utility.yul\":6871:6900   */\n      swap1\n      pop\n        /* \"#utility.yul\":6909:6951   */\n      tag_161\n        /* \"#utility.yul\":6945:6950   */\n      dup2\n        /* \"#utility.yul\":6909:6951   */\n      tag_69\n      jump\t// in\n    tag_161:\n        /* \"#utility.yul\":6800:6957   */\n      swap3\n      swap2\n      pop\n      pop\n      jump\t// out\n        /* \"#utility.yul\":6963:8192   */\n    tag_13:\n        /* \"#utility.yul\":7121:7127   */\n      0x00\n        /* \"#utility.yul\":7129:7135   */\n      dup1\n        /* \"#utility.yul\":7137:7143   */\n      0x00\n        /* \"#utility.yul\":7145:7151   */\n      dup1\n        /* \"#utility.yul\":7194:7197   */\n      0x80\n        /* \"#utility.yul\":7182:7191   */\n      dup6\n        /* \"#utility.yul\":7173:7180   */\n      dup8\n        /* \"#utility.yul\":7169:7192   */\n      sub\n        /* \"#utility.yul\":7165:7198   */\n      slt\n        /* \"#utility.yul\":7162:7282   */\n      iszero\n      tag_163\n      jumpi\n        /* \"#utility.yul\":7201:7280   */\n      tag_164\n      tag_42\n      jump\t// in\n    tag_164:\n        /* \"#utility.yul\":7162:7282   */\n    tag_163:\n        /* \"#utility.yul\":7321:7322   */\n      0x00\n        /* \"#utility.yul\":7346:7417   */\n      tag_165\n        /* \"#utility.yul\":7409:7416   */\n      dup8\n        /* \"#utility.yul\":7400:7406   */\n      dup3\n        /* \"#utility.yul\":7389:7398   */\n      dup9\n        /* \"#utility.yul\":7385:7407   */\n      add\n        /* \"#utility.yul\":7346:7417   */\n      tag_48\n      jump\t// in\n    tag_165:\n        /* \"#utility.yul\":7336:7417   */\n      swap5\n      pop\n        /* \"#utility.yul\":7292:7427   */\n      pop\n        /* \"#utility.yul\":7494:7496   */\n      0x20\n        /* \"#utility.yul\":7483:7492   */\n      dup6\n        /* \"#utility.yul\":7479:7497   */\n      add\n        /* \"#utility.yul\":7466:7498   */\n      calldataload\n        /* \"#utility.yul\":7525:7543   */\n      0xffffffffffffffff\n        /* \"#utility.yul\":7517:7523   */\n      dup2\n        /* \"#utility.yul\":7514:7544   */\n      gt\n        /* \"#utility.yul\":7511:7628   */\n      iszero\n      tag_166\n      jumpi\n        /* \"#utility.yul\":7547:7626   */\n      tag_167\n      tag_43\n      jump\t// in\n    tag_167:\n        /* \"#utility.yul\":7511:7628   */\n    tag_166:\n        /* \"#utility.yul\":7652:7725   */\n      tag_168\n        /* \"#utility.yul\":7717:7724   */\n      dup8\n        /* \"#utility.yul\":7708:7714   */\n      dup3\n        /* \"#utility.yul\":7697:7706   */\n      dup9\n        /* \"#utility.yul\":7693:7715   */\n      add\n        /* \"#utility.yul\":7652:7725   */\n      tag_64\n      jump\t// in\n    tag_168:\n        /* \"#utility.yul\":7642:7725   */\n      swap4\n      pop\n        /* \"#utility.yul\":7437:7735   */\n      pop\n        /* \"#utility.yul\":7802:7804   */\n      0x40\n        /* \"#utility.yul\":7791:7800   */\n      dup6\n        /* \"#utility.yul\":7787:7805   */\n      add\n        /* \"#utility.yul\":7774:7806   */\n      calldataload\n        /* \"#utility.yul\":7833:7851   */\n      0xffffffffffffffff\n        /* \"#utility.yul\":7825:7831   */\n      dup2\n        /* \"#utility.yul\":7822:7852   */\n      gt\n        /* \"#utility.yul\":7819:7936   */\n      iszero\n      tag_169\n      jumpi\n        /* \"#utility.yul\":7855:7934   */\n      tag_170\n      tag_43\n      jump\t// in\n    tag_170:\n        /* \"#utility.yul\":7819:7936   */\n    tag_169:\n        /* \"#utility.yul\":7960:8038   */\n      tag_171\n        /* \"#utility.yul\":8030:8037   */\n      dup8\n        /* \"#utility.yul\":8021:8027   */\n      dup3\n        /* \"#utility.yul\":8010:8019   */\n      dup9\n        /* \"#utility.yul\":8006:8028   */\n      add\n        /* \"#utility.yul\":7960:8038   */\n      tag_68\n      jump\t// in\n    tag_171:\n        /* \"#utility.yul\":7950:8038   */\n      swap3\n      pop\n        /* \"#utility.yul\":7745:8048   */\n      pop\n        /* \"#utility.yul\":8087:8089   */\n      0x60\n        /* \"#utility.yul\":8113:8175   */\n      tag_172\n        /* \"#utility.yul\":8167:8174   */\n      dup8\n        /* \"#utility.yul\":8158:8164   */\n      dup3\n        /* \"#utility.yul\":8147:8156   */\n      dup9\n        /* \"#utility.yul\":8143:8165   */\n      add\n        /* \"#utility.yul\":8113:8175   */\n      tag_70\n      jump\t// in\n    tag_172:\n        /* \"#utility.yul\":8103:8175   */\n      swap2\n      pop\n        /* \"#utility.yul\":8058:8185   */\n      pop\n        /* \"#utility.yul\":6963:8192   */\n      swap3\n      swap6\n      swap2\n      swap5\n      pop\n      swap3\n      pop\n      jump\t// out\n        /* \"#utility.yul\":8198:8320   */\n    tag_71:\n        /* \"#utility.yul\":8271:8295   */\n      tag_174\n        /* \"#utility.yul\":8289:8294   */\n      dup2\n        /* \"#utility.yul\":8271:8295   */\n      tag_45\n      jump\t// in\n    tag_174:\n        /* \"#utility.yul\":8264:8269   */\n      dup2\n        /* \"#utility.yul\":8261:8296   */\n      eq\n        /* \"#utility.yul\":8251:8314   */\n      tag_175\n      jumpi\n        /* \"#utility.yul\":8310:8311   */\n      0x00\n        /* \"#utility.yul\":8307:8308   */\n      dup1\n        /* \"#utility.yul\":8300:8312   */\n      revert\n        /* \"#utility.yul\":8251:8314   */\n    tag_175:\n        /* \"#utility.yul\":8198:8320   */\n      pop\n      jump\t// out\n        /* \"#utility.yul\":8326:8465   */\n    tag_72:\n        /* \"#utility.yul\":8372:8377   */\n      0x00\n        /* \"#utility.yul\":8410:8416   */\n      dup2\n        /* \"#utility.yul\":8397:8417   */\n      calldataload\n        /* \"#utility.yul\":8388:8417   */\n      swap1\n      pop\n        /* \"#utility.yul\":8426:8459   */\n      tag_177\n        /* \"#utility.yul\":8453:8458   */\n      dup2\n        /* \"#utility.yul\":8426:8459   */\n      tag_71\n      jump\t// in\n    tag_177:\n        /* \"#utility.yul\":8326:8465   */\n      swap3\n      swap2\n      pop\n      pop\n      jump\t// out\n        /* \"#utility.yul\":8471:8800   */\n    tag_18:\n        /* \"#utility.yul\":8530:8536   */\n      0x00\n        /* \"#utility.yul\":8579:8581   */\n      0x20\n        /* \"#utility.yul\":8567:8576   */\n      dup3\n        /* \"#utility.yul\":8558:8565   */\n      dup5\n        /* \"#utility.yul\":8554:8577   */\n      sub\n        /* \"#utility.yul\":8550:8582   */\n      slt\n        /* \"#utility.yul\":8547:8666   */\n      iszero\n      tag_179\n      jumpi\n        /* \"#utility.yul\":8585:8664   */\n      tag_180\n      tag_42\n      jump\t// in\n    tag_180:\n        /* \"#utility.yul\":8547:8666   */\n    tag_179:\n        /* \"#utility.yul\":8705:8706   */\n      0x00\n        /* \"#utility.yul\":8730:8783   */\n      tag_181\n        /* \"#utility.yul\":8775:8782   */\n      dup5\n        /* \"#utility.yul\":8766:8772   */\n      dup3\n        /* \"#utility.yul\":8755:8764   */\n      dup6\n        /* \"#utility.yul\":8751:8773   */\n      add\n        /* \"#utility.yul\":8730:8783   */\n      tag_72\n      jump\t// in\n    tag_181:\n        /* \"#utility.yul\":8720:8783   */\n      swap2\n      pop\n        /* \"#utility.yul\":8676:8793   */\n      pop\n        /* \"#utility.yul\":8471:8800   */\n      swap3\n      swap2\n      pop\n      pop\n      jump\t// out\n        /* \"#utility.yul\":8806:9280   */\n    tag_22:\n        /* \"#utility.yul\":8874:8880   */\n      0x00\n        /* \"#utility.yul\":8882:8888   */\n      dup1\n        /* \"#utility.yul\":8931:8933   */\n      0x40\n        /* \"#utility.yul\":8919:8928   */\n      dup4\n        /* \"#utility.yul\":8910:8917   */\n      dup6\n        /* \"#utility.yul\":8906:8929   */\n      sub\n        /* \"#utility.yul\":8902:8934   */\n      slt\n        /* \"#utility.yul\":8899:9018   */\n      iszero\n      tag_183\n      jumpi\n        /* \"#utility.yul\":8937:9016   */\n      tag_184\n      tag_42\n      jump\t// in\n    tag_184:\n        /* \"#utility.yul\":8899:9018   */\n    tag_183:\n        /* \"#utility.yul\":9057:9058   */\n      0x00\n        /* \"#utility.yul\":9082:9135   */\n      tag_185\n        /* \"#utility.yul\":9127:9134   */\n      dup6\n        /* \"#utility.yul\":9118:9124   */\n      dup3\n        /* \"#utility.yul\":9107:9116   */\n      dup7\n        /* \"#utility.yul\":9103:9125   */\n      add\n        /* \"#utility.yul\":9082:9135   */\n      tag_72\n      jump\t// in\n    tag_185:\n        /* \"#utility.yul\":9072:9135   */\n      swap3\n      pop\n        /* \"#utility.yul\":9028:9145   */\n      pop\n        /* \"#utility.yul\":9184:9186   */\n      0x20\n        /* \"#utility.yul\":9210:9263   */\n      tag_186\n        /* \"#utility.yul\":9255:9262   */\n      dup6\n        /* \"#utility.yul\":9246:9252   */\n      dup3\n        /* \"#utility.yul\":9235:9244   */\n      dup7\n        /* \"#utility.yul\":9231:9253   */\n      add\n        /* \"#utility.yul\":9210:9263   */\n      tag_57\n      jump\t// in\n    tag_186:\n        /* \"#utility.yul\":9200:9263   */\n      swap2\n      pop\n        /* \"#utility.yul\":9155:9273   */\n      pop\n        /* \"#utility.yul\":8806:9280   */\n      swap3\n      pop\n      swap3\n      swap1\n      pop\n      jump\t// out\n        /* \"#utility.yul\":9286:9376   */\n    tag_73:\n        /* \"#utility.yul\":9320:9327   */\n      0x00\n        /* \"#utility.yul\":9363:9368   */\n      dup2\n        /* \"#utility.yul\":9356:9369   */\n      iszero\n        /* \"#utility.yul\":9349:9370   */\n      iszero\n        /* \"#utility.yul\":9338:9370   */\n      swap1\n      pop\n        /* \"#utility.yul\":9286:9376   */\n      swap2\n      swap1\n      pop\n      jump\t// out\n        /* \"#utility.yul\":9382:9491   */\n    tag_74:\n        /* \"#utility.yul\":9463:9484   */\n      tag_189\n        /* \"#utility.yul\":9478:9483   */\n      dup2\n        /* \"#utility.yul\":9463:9484   */\n      tag_73\n      jump\t// in\n    tag_189:\n        /* \"#utility.yul\":9458:9461   */\n      dup3\n        /* \"#utility.yul\":9451:9485   */\n      mstore\n        /* \"#utility.yul\":9382:9491   */\n      pop\n      pop\n      jump\t// out\n        /* \"#utility.yul\":9497:9707   */\n    tag_25:\n        /* \"#utility.yul\":9584:9588   */\n      0x00\n        /* \"#utility.yul\":9622:9624   */\n      0x20\n        /* \"#utility.yul\":9611:9620   */\n      dup3\n        /* \"#utility.yul\":9607:9625   */\n      add\n        /* \"#utility.yul\":9599:9625   */\n      swap1\n      pop\n        /* \"#utility.yul\":9635:9700   */\n      tag_191\n        /* \"#utility.yul\":9697:9698   */\n      0x00\n        /* \"#utility.yul\":9686:9695   */\n      dup4\n        /* \"#utility.yul\":9682:9699   */\n      add\n        /* \"#utility.yul\":9673:9679   */\n      dup5\n        /* \"#utility.yul\":9635:9700   */\n      tag_74\n      jump\t// in\n    tag_191:\n        /* \"#utility.yul\":9497:9707   */\n      swap3\n      swap2\n      pop\n      pop\n      jump\t// out\n        /* \"#utility.yul\":9713:9881   */\n    tag_75:\n        /* \"#utility.yul\":9796:9807   */\n      0x00\n        /* \"#utility.yul\":9830:9836   */\n      dup3\n        /* \"#utility.yul\":9825:9828   */\n      dup3\n        /* \"#utility.yul\":9818:9837   */\n      mstore\n        /* \"#utility.yul\":9870:9874   */\n      0x20\n        /* \"#utility.yul\":9865:9868   */\n      dup3\n        /* \"#utility.yul\":9861:9875   */\n      add\n        /* \"#utility.yul\":9846:9875   */\n      swap1\n      pop\n        /* \"#utility.yul\":9713:9881   */\n      swap3\n      swap2\n      pop\n      pop\n      jump\t// out\n        /* \"#utility.yul\":9909:10223   */\n    tag_76:\n        /* \"#utility.yul\":10005:10008   */\n      0x00\n        /* \"#utility.yul\":10026:10096   */\n      tag_194\n        /* \"#utility.yul\":10089:10095   */\n      dup4\n        /* \"#utility.yul\":10084:10087   */\n      dup6\n        /* \"#utility.yul\":10026:10096   */\n      tag_75\n      jump\t// in\n    tag_194:\n        /* \"#utility.yul\":10019:10096   */\n      swap4\n      pop\n        /* \"#utility.yul\":10106:10162   */\n      tag_195\n        /* \"#utility.yul\":10155:10161   */\n      dup4\n        /* \"#utility.yul\":10150:10153   */\n      dup6\n        /* \"#utility.yul\":10143:10148   */\n      dup5\n        /* \"#utility.yul\":10106:10162   */\n      tag_61\n      jump\t// in\n    tag_195:\n        /* \"#utility.yul\":10187:10216   */\n      tag_196\n        /* \"#utility.yul\":10209:10215   */\n      dup4\n        /* \"#utility.yul\":10187:10216   */\n      tag_50\n      jump\t// in\n    tag_196:\n        /* \"#utility.yul\":10182:10185   */\n      dup5\n        /* \"#utility.yul\":10178:10217   */\n      add\n        /* \"#utility.yul\":10171:10217   */\n      swap1\n      pop\n        /* \"#utility.yul\":9909:10223   */\n      swap4\n      swap3\n      pop\n      pop\n      pop\n      jump\t// out\n        /* \"#utility.yul\":10229:10558   */\n    tag_31:\n        /* \"#utility.yul\":10350:10354   */\n      0x00\n        /* \"#utility.yul\":10388:10390   */\n      0x20\n        /* \"#utility.yul\":10377:10386   */\n      dup3\n        /* \"#utility.yul\":10373:10391   */\n      add\n        /* \"#utility.yul\":10365:10391   */\n      swap1\n      pop\n        /* \"#utility.yul\":10437:10446   */\n      dup2\n        /* \"#utility.yul\":10431:10435   */\n      dup2\n        /* \"#utility.yul\":10427:10447   */\n      sub\n        /* \"#utility.yul\":10423:10424   */\n      0x00\n        /* \"#utility.yul\":10412:10421   */\n      dup4\n        /* \"#utility.yul\":10408:10425   */\n      add\n        /* \"#utility.yul\":10401:10448   */\n      mstore\n        /* \"#utility.yul\":10465:10551   */\n      tag_198\n        /* \"#utility.yul\":10546:10550   */\n      dup2\n        /* \"#utility.yul\":10537:10543   */\n      dup5\n        /* \"#utility.yul\":10529:10535   */\n      dup7\n        /* \"#utility.yul\":10465:10551   */\n      tag_76\n      jump\t// in\n    tag_198:\n        /* \"#utility.yul\":10457:10551   */\n      swap1\n      pop\n        /* \"#utility.yul\":10229:10558   */\n      swap4\n      swap3\n      pop\n      pop\n      pop\n      jump\t// out\n        /* \"#utility.yul\":10564:10744   */\n    tag_77:\n        /* \"#utility.yul\":10612:10689   */\n      0x4e487b7100000000000000000000000000000000000000000000000000000000\n        /* \"#utility.yul\":10609:10610   */\n      0x00\n        /* \"#utility.yul\":10602:10690   */\n      mstore\n        /* \"#utility.yul\":10709:10713   */\n      0x11\n        /* \"#utility.yul\":10706:10707   */\n      0x04\n        /* \"#utility.yul\":10699:10714   */\n      mstore\n        /* \"#utility.yul\":10733:10737   */\n      0x24\n        /* \"#utility.yul\":10730:10731   */\n      0x00\n        /* \"#utility.yul\":10723:10738   */\n      revert\n        /* \"#utility.yul\":10750:10944   */\n    tag_34:\n        /* \"#utility.yul\":10790:10794   */\n      0x00\n        /* \"#utility.yul\":10810:10830   */\n      tag_201\n        /* \"#utility.yul\":10828:10829   */\n      dup3\n        /* \"#utility.yul\":10810:10830   */\n      tag_55\n      jump\t// in\n    tag_201:\n        /* \"#utility.yul\":10805:10830   */\n      swap2\n      pop\n        /* \"#utility.yul\":10844:10864   */\n      tag_202\n        /* \"#utility.yul\":10862:10863   */\n      dup4\n        /* \"#utility.yul\":10844:10864   */\n      tag_55\n      jump\t// in\n    tag_202:\n        /* \"#utility.yul\":10839:10864   */\n      swap3\n      pop\n        /* \"#utility.yul\":10888:10889   */\n      dup3\n        /* \"#utility.yul\":10885:10886   */\n      dup3\n        /* \"#utility.yul\":10881:10890   */\n      sub\n        /* \"#utility.yul\":10873:10890   */\n      swap1\n      pop\n        /* \"#utility.yul\":10912:10913   */\n      dup2\n        /* \"#utility.yul\":10906:10910   */\n      dup2\n        /* \"#utility.yul\":10903:10914   */\n      gt\n        /* \"#utility.yul\":10900:10937   */\n      iszero\n      tag_203\n      jumpi\n        /* \"#utility.yul\":10917:10935   */\n      tag_204\n      tag_77\n      jump\t// in\n    tag_204:\n        /* \"#utility.yul\":10900:10937   */\n    tag_203:\n        /* \"#utility.yul\":10750:10944   */\n      swap3\n      swap2\n      pop\n      pop\n      jump\t// out\n        /* \"#utility.yul\":10950:11141   */\n    tag_36:\n        /* \"#utility.yul\":10990:10993   */\n      0x00\n        /* \"#utility.yul\":11009:11029   */\n      tag_206\n        /* \"#utility.yul\":11027:11028   */\n      dup3\n        /* \"#utility.yul\":11009:11029   */\n      tag_55\n      jump\t// in\n    tag_206:\n        /* \"#utility.yul\":11004:11029   */\n      swap2\n      pop\n        /* \"#utility.yul\":11043:11063   */\n      tag_207\n        /* \"#utility.yul\":11061:11062   */\n      dup4\n        /* \"#utility.yul\":11043:11063   */\n      tag_55\n      jump\t// in\n    tag_207:\n        /* \"#utility.yul\":11038:11063   */\n      swap3\n      pop\n        /* \"#utility.yul\":11086:11087   */\n      dup3\n        /* \"#utility.yul\":11083:11084   */\n      dup3\n        /* \"#utility.yul\":11079:11088   */\n      add\n        /* \"#utility.yul\":11072:11088   */\n      swap1\n      pop\n        /* \"#utility.yul\":11107:11110   */\n      dup1\n        /* \"#utility.yul\":11104:11105   */\n      dup3\n        /* \"#utility.yul\":11101:11111   */\n      gt\n        /* \"#utility.yul\":11098:11134   */\n      iszero\n      tag_208\n      jumpi\n        /* \"#utility.yul\":11114:11132   */\n      tag_209\n      tag_77\n      jump\t// in\n    tag_209:\n        /* \"#utility.yul\":11098:11134   */\n    tag_208:\n        /* \"#utility.yul\":10950:11141   */\n      swap3\n      swap2\n      pop\n      pop\n      jump\t// out\n        /* \"#utility.yul\":11147:11265   */\n    tag_78:\n        /* \"#utility.yul\":11234:11258   */\n      tag_211\n        /* \"#utility.yul\":11252:11257   */\n      dup2\n        /* \"#utility.yul\":11234:11258   */\n      tag_45\n      jump\t// in\n    tag_211:\n        /* \"#utility.yul\":11229:11232   */\n      dup3\n        /* \"#utility.yul\":11222:11259   */\n      mstore\n        /* \"#utility.yul\":11147:11265   */\n      pop\n      pop\n      jump\t// out\n        /* \"#utility.yul\":11271:11389   */\n    tag_79:\n        /* \"#utility.yul\":11358:11382   */\n      tag_213\n        /* \"#utility.yul\":11376:11381   */\n      dup2\n        /* \"#utility.yul\":11358:11382   */\n      tag_55\n      jump\t// in\n    tag_213:\n        /* \"#utility.yul\":11353:11356   */\n      dup3\n        /* \"#utility.yul\":11346:11383   */\n      mstore\n        /* \"#utility.yul\":11271:11389   */\n      pop\n      pop\n      jump\t// out\n        /* \"#utility.yul\":11395:11837   */\n    tag_38:\n        /* \"#utility.yul\":11544:11548   */\n      0x00\n        /* \"#utility.yul\":11582:11584   */\n      0x60\n        /* \"#utility.yul\":11571:11580   */\n      dup3\n        /* \"#utility.yul\":11567:11585   */\n      add\n        /* \"#utility.yul\":11559:11585   */\n      swap1\n      pop\n        /* \"#utility.yul\":11595:11666   */\n      tag_215\n        /* \"#utility.yul\":11663:11664   */\n      0x00\n        /* \"#utility.yul\":11652:11661   */\n      dup4\n        /* \"#utility.yul\":11648:11665   */\n      add\n        /* \"#utility.yul\":11639:11645   */\n      dup7\n        /* \"#utility.yul\":11595:11666   */\n      tag_78\n      jump\t// in\n    tag_215:\n        /* \"#utility.yul\":11676:11748   */\n      tag_216\n        /* \"#utility.yul\":11744:11746   */\n      0x20\n        /* \"#utility.yul\":11733:11742   */\n      dup4\n        /* \"#utility.yul\":11729:11747   */\n      add\n        /* \"#utility.yul\":11720:11726   */\n      dup6\n        /* \"#utility.yul\":11676:11748   */\n      tag_78\n      jump\t// in\n    tag_216:\n        /* \"#utility.yul\":11758:11830   */\n      tag_217\n        /* \"#utility.yul\":11826:11828   */\n      0x40\n        /* \"#utility.yul\":11815:11824   */\n      dup4\n        /* \"#utility.yul\":11811:11829   */\n      add\n        /* \"#utility.yul\":11802:11808   */\n      dup5\n        /* \"#utility.yul\":11758:11830   */\n      tag_79\n      jump\t// in\n    tag_217:\n        /* \"#utility.yul\":11395:11837   */\n      swap5\n      swap4\n      pop\n      pop\n      pop\n      pop\n      jump\t// out\n\n    auxdata: 0xa26469706673582212209e8d8b5283e60d0b415fe379d43a8ba68820f505387e56551a48ffcda1d310c864736f6c634300081a0033\n}\n",
				"bytecode": {
					"linkReferences": {},
					"object": "6080604052348015600e575f80fd5b506109118061001c5f395ff3fe608060405234801561000f575f80fd5b506004361061004a575f3560e01c8063046dab161461004e57806362ae717c1461006c5780636a6278421461009c578063a9059cbb146100b8575b5f80fd5b6100566100e8565b60405161006391906102d9565b60405180910390f35b61008660048036038101906100819190610635565b61010f565b60405161009391906102d9565b60405180910390f35b6100b660048036038101906100b191906106fb565b610179565b005b6100d260048036038101906100cd9190610726565b6101b5565b6040516100df919061077e565b60405180910390f35b5f7f6a627842f752de95745ef8f3ca67858982b5f585d752f8163e5855050041cb3c905090565b5f7f87c76683e354abe8640b03c72d02c9175d9a00a6c0101d5bc4be081b9b8199eb6362ae717c60e01b60405161014691906102d9565b60405180910390a17ffe987ac889990b10c3631981b37897713095ac1644fa75c34bba26f89a138c9b9050949350505050565b7fafabcf2dd47e06a477a89e49c03f8ebe8e0a7e94f775b25bbb24227c9d0110b25f366040516101aa9291906107d3565b60405180910390a150565b5f815f803373ffffffffffffffffffffffffffffffffffffffff1673ffffffffffffffffffffffffffffffffffffffff1681526020019081526020015f205f8282546102019190610822565b92505081905550815f808573ffffffffffffffffffffffffffffffffffffffff1673ffffffffffffffffffffffffffffffffffffffff1681526020019081526020015f205f8282546102539190610855565b925050819055507fddf252ad1be2c89b69c2b068fc378daa952ba7f163c4a11628f55a4df523b3ef33848460405161028d939291906108a6565b60405180910390a16001905092915050565b5f7fffffffff0000000000000000000000000000000000000000000000000000000082169050919050565b6102d38161029f565b82525050565b5f6020820190506102ec5f8301846102ca565b92915050565b5f604051905090565b5f80fd5b5f80fd5b5f73ffffffffffffffffffffffffffffffffffffffff82169050919050565b5f61032c82610303565b9050919050565b5f61033d82610322565b9050919050565b61034d81610333565b8114610357575f80fd5b50565b5f8135905061036881610344565b92915050565b5f80fd5b5f601f19601f8301169050919050565b7f4e487b71000000000000000000000000000000000000000000000000000000005f52604160045260245ffd5b6103b882610372565b810181811067ffffffffffffffff821117156103d7576103d6610382565b5b80604052505050565b5f6103e96102f2565b90506103f582826103af565b919050565b5f80fd5b5f819050919050565b610410816103fe565b811461041a575f80fd5b50565b5f8135905061042b81610407565b92915050565b5f80fd5b5f80fd5b5f67ffffffffffffffff82111561045357610452610382565b5b61045c82610372565b9050602081019050919050565b828183375f83830152505050565b5f61048961048484610439565b6103e0565b9050828152602081018484840111156104a5576104a4610435565b5b6104b0848285610469565b509392505050565b5f82601f8301126104cc576104cb610431565b5b81356104dc848260208601610477565b91505092915050565b5f604082840312156104fa576104f961036e565b5b61050460406103e0565b90505f6105138482850161041d565b5f83015250602082013567ffffffffffffffff811115610536576105356103fa565b5b610542848285016104b8565b60208301525092915050565b5f67ffffffffffffffff82111561056857610567610382565b5b602082029050602081019050919050565b5f80fd5b5f61058f61058a8461054e565b6103e0565b905080838252602082019050602084028301858111156105b2576105b1610579565b5b835b818110156105db57806105c7888261041d565b8452602084019350506020810190506105b4565b5050509392505050565b5f82601f8301126105f9576105f8610431565b5b813561060984826020860161057d565b91505092915050565b6005811061061e575f80fd5b50565b5f8135905061062f81610612565b92915050565b5f805f806080858703121561064d5761064c6102fb565b5b5f61065a8782880161035a565b945050602085013567ffffffffffffffff81111561067b5761067a6102ff565b5b610687878288016104e5565b935050604085013567ffffffffffffffff8111156106a8576106a76102ff565b5b6106b4878288016105e5565b92505060606106c587828801610621565b91505092959194509250565b6106da81610322565b81146106e4575f80fd5b50565b5f813590506106f5816106d1565b92915050565b5f602082840312156107105761070f6102fb565b5b5f61071d848285016106e7565b91505092915050565b5f806040838503121561073c5761073b6102fb565b5b5f610749858286016106e7565b925050602061075a8582860161041d565b9150509250929050565b5f8115159050919050565b61077881610764565b82525050565b5f6020820190506107915f83018461076f565b92915050565b5f82825260208201905092915050565b5f6107b28385610797565b93506107bf838584610469565b6107c883610372565b840190509392505050565b5f6020820190508181035f8301526107ec8184866107a7565b90509392505050565b7f4e487b71000000000000000000000000000000000000000000000000000000005f52601160045260245ffd5b5f61082c826103fe565b9150610837836103fe565b925082820390508181111561084f5761084e6107f5565b5b92915050565b5f61085f826103fe565b915061086a836103fe565b9250828201905080821115610882576108816107f5565b5b92915050565b61089181610322565b82525050565b6108a0816103fe565b82525050565b5f6060820190506108b95f830186610888565b6108c66020830185610888565b6108d36040830184610897565b94935050505056fea26469706673582212209e8d8b5283e60d0b415fe379d43a8ba68820f505387e56551a48ffcda1d310c864736f6c634300081a0033",
					"opcodes": "PUSH1 0x80 PUSH1 0x40 MSTORE CALLVALUE DUP1 ISZERO PUSH1 0xE JUMPI PUSH0 DUP1 REVERT JUMPDEST POP PUSH2 0x911 DUP1 PUSH2 0x1C PUSH0 CODECOPY PUSH0 RETURN INVALID PUSH1 0x80 PUSH1 0x40 MSTORE CALLVALUE DUP1 ISZERO PUSH2 0xF JUMPI PUSH0 DUP1 REVERT JUMPDEST POP PUSH1 0x4 CALLDATASIZE LT PUSH2 0x4A JUMPI PUSH0 CALLDATALOAD PUSH1 0xE0 SHR DUP1 PUSH4 0x46DAB16 EQ PUSH2 0x4E JUMPI DUP1 PUSH4 0x62AE717C EQ PUSH2 0x6C JUMPI DUP1 PUSH4 0x6A627842 EQ PUSH2 0x9C JUMPI DUP1 PUSH4 0xA9059CBB EQ PUSH2 0xB8 JUMPI JUMPDEST PUSH0 DUP1 REVERT JUMPDEST PUSH2 0x56 PUSH2 0xE8 JUMP JUMPDEST PUSH1 0x40 MLOAD PUSH2 0x63 SWAP2 SWAP1 PUSH2 0x2D9 JUMP JUMPDEST PUSH1 0x40 MLOAD DUP1 SWAP2 SUB SWAP1 RETURN JUMPDEST PUSH2 0x86 PUSH1 0x4 DUP1 CALLDATASIZE SUB DUP2 ADD SWAP1 PUSH2 0x81 SWAP2 SWAP1 PUSH2 0x635 JUMP JUMPDEST PUSH2 0x10F JUMP JUMPDEST PUSH1 0x40 MLOAD PUSH2 0x93 SWAP2 SWAP1 PUSH2 0x2D9 JUMP JUMPDEST PUSH1 0x40 MLOAD DUP1 SWAP2 SUB SWAP1 RETURN JUMPDEST PUSH2 0xB6 PUSH1 0x4 DUP1 CALLDATASIZE SUB DUP2 ADD SWAP1 PUSH2 0xB1 SWAP2 SWAP1 PUSH2 0x6FB JUMP JUMPDEST PUSH2 0x179 JUMP JUMPDEST STOP JUMPDEST PUSH2 0xD2 PUSH1 0x4 DUP1 CALLDATASIZE SUB DUP2 ADD SWAP1 PUSH2 0xCD SWAP2 SWAP1 PUSH2 0x726 JUMP JUMPDEST PUSH2 0x1B5 JUMP JUMPDEST PUSH1 0x40 MLOAD PUSH2 0xDF SWAP2 SWAP1 PUSH2 0x77E JUMP JUMPDEST PUSH1 0x40 MLOAD DUP1 SWAP2 SUB SWAP1 RETURN JUMPDEST PUSH0 PUSH32 0x6A627842F752DE95745EF8F3CA67858982B5F585D752F8163E5855050041CB3C SWAP1 POP SWAP1 JUMP JUMPDEST PUSH0 PUSH32 0x87C76683E354ABE8640B03C72D02C9175D9A00A6C0101D5BC4BE081B9B8199EB PUSH4 0x62AE717C PUSH1 0xE0 SHL PUSH1 0x40 MLOAD PUSH2 0x146 SWAP2 SWAP1 PUSH2 0x2D9 JUMP JUMPDEST PUSH1 0x40 MLOAD DUP1 SWAP2 SUB SWAP1 LOG1 PUSH32 0xFE987AC889990B10C3631981B37897713095AC1644FA75C34BBA26F89A138C9B SWAP1 POP SWAP5 SWAP4 POP POP POP POP JUMP JUMPDEST PUSH32 0xAFABCF2DD47E06A477A89E49C03F8EBE8E0A7E94F775B25BBB24227C9D0110B2 PUSH0 CALLDATASIZE PUSH1 0x40 MLOAD PUSH2 0x1AA SWAP3 SWAP2 SWAP1 PUSH2 0x7D3 JUMP JUMPDEST PUSH1 0x40 MLOAD DUP1 SWAP2 SUB SWAP1 LOG1 POP JUMP JUMPDEST PUSH0 DUP2 PUSH0 DUP1 CALLER PUSH20 0xFFFFFFFFFFFFFFFFFFFFFFFFFFFFFFFFFFFFFFFF AND PUSH20 0xFFFFFFFFFFFFFFFFFFFFFFFFFFFFFFFFFFFFFFFF AND DUP2 MSTORE PUSH1 0x20 ADD SWAP1 DUP2 MSTORE PUSH1 0x20 ADD PUSH0 KECCAK256 PUSH0 DUP3 DUP3 SLOAD PUSH2 0x201 SWAP2 SWAP1 PUSH2 0x822 JUMP JUMPDEST SWAP3 POP POP DUP2 SWAP1 SSTORE POP DUP2 PUSH0 DUP1 DUP6 PUSH20 0xFFFFFFFFFFFFFFFFFFFFFFFFFFFFFFFFFFFFFFFF AND PUSH20 0xFFFFFFFFFFFFFFFFFFFFFFFFFFFFFFFFFFFFFFFF AND DUP2 MSTORE PUSH1 0x20 ADD SWAP1 DUP2 MSTORE PUSH1 0x20 ADD PUSH0 KECCAK256 PUSH0 DUP3 DUP3 SLOAD PUSH2 0x253 SWAP2 SWAP1 PUSH2 0x855 JUMP JUMPDEST SWAP3 POP POP DUP2 SWAP1 SSTORE POP PUSH32 0xDDF252AD1BE2C89B69C2B068FC378DAA952BA7F163C4A11628F55A4DF523B3EF CALLER DUP5 DUP5 PUSH1 0x40 MLOAD PUSH2 0x28D SWAP4 SWAP3 SWAP2 SWAP1 PUSH2 0x8A6 JUMP JUMPDEST PUSH1 0x40 MLOAD DUP1 SWAP2 SUB SWAP1 LOG1 PUSH1 0x1 SWAP1 POP SWAP3 SWAP2 POP POP JUMP JUMPDEST PUSH0 PUSH32 0xFFFFFFFF00000000000000000000000000000000000000000000000000000000 DUP3 AND SWAP1 POP SWAP2 SWAP1 POP JUMP JUMPDEST PUSH2 0x2D3 DUP2 PUSH2 0x29F JUMP JUMPDEST DUP3 MSTORE POP POP JUMP JUMPDEST PUSH0 PUSH1 0x20 DUP3 ADD SWAP1 POP PUSH2 0x2EC PUSH0 DUP4 ADD DUP5 PUSH2 0x2CA JUMP JUMPDEST SWAP3 SWAP2 POP POP JUMP JUMPDEST PUSH0 PUSH1 0x40 MLOAD SWAP1 POP SWAP1 JUMP JUMPDEST PUSH0 DUP1 REVERT JUMPDEST PUSH0 DUP1 REVERT JUMPDEST PUSH0 PUSH20 0xFFFFFFFFFFFFFFFFFFFFFFFFFFFFFFFFFFFFFFFF DUP3 AND SWAP1 POP SWAP2 SWAP1 POP JUMP JUMPDEST PUSH0 PUSH2 0x32C DUP3 PUSH2 0x303 JUMP JUMPDEST SWAP1 POP SWAP2 SWAP1 POP JUMP JUMPDEST PUSH0 PUSH2 0x33D DUP3 PUSH2 0x322 JUMP JUMPDEST SWAP1 POP SWAP2 SWAP1 POP JUMP JUMPDEST PUSH2 0x34D DUP2 PUSH2 0x333 JUMP JUMPDEST DUP2 EQ PUSH2 0x357 JUMPI PUSH0 DUP1 REVERT JUMPDEST POP JUMP JUMPDEST PUSH0 DUP2 CALLDATALOAD SWAP1 POP PUSH2 0x368 DUP2 PUSH2 0x344 JUMP JUMPDEST SWAP3 SWAP2 POP POP JUMP JUMPDEST PUSH0 DUP1 REVERT JUMPDEST PUSH0 PUSH1 0x1F NOT PUSH1 0x1F DUP4 ADD AND SWAP1 POP SWAP2 SWAP1 POP JUMP JUMPDEST PUSH32 0x4E487B7100000000000000000000000000000000000000000000000000000000 PUSH0 MSTORE PUSH1 0x41 PUSH1 0x4 MSTORE PUSH1 0x24 PUSH0 REVERT JUMPDEST PUSH2 0x3B8 DUP3 PUSH2 0x372 JUMP JUMPDEST DUP2 ADD DUP2 DUP2 LT PUSH8 0xFFFFFFFFFFFFFFFF DUP3 GT OR ISZERO PUSH2 0x3D7 JUMPI PUSH2 0x3D6 PUSH2 0x382 JUMP JUMPDEST JUMPDEST DUP1 PUSH1 0x40 MSTORE POP POP POP JUMP JUMPDEST PUSH0 PUSH2 0x3E9 PUSH2 0x2F2 JUMP JUMPDEST SWAP1 POP PUSH2 0x3F5 DUP3 DUP3 PUSH2 0x3AF JUMP JUMPDEST SWAP2 SWAP1 POP JUMP JUMPDEST PUSH0 DUP1 REVERT JUMPDEST PUSH0 DUP2 SWAP1 POP SWAP2 SWAP1 POP JUMP JUMPDEST PUSH2 0x410 DUP2 PUSH2 0x3FE JUMP JUMPDEST DUP2 EQ PUSH2 0x41A JUMPI PUSH0 DUP1 REVERT JUMPDEST POP JUMP JUMPDEST PUSH0 DUP2 CALLDATALOAD SWAP1 POP PUSH2 0x42B DUP2 PUSH2 0x407 JUMP JUMPDEST SWAP3 SWAP2 POP POP JUMP JUMPDEST PUSH0 DUP1 REVERT JUMPDEST PUSH0 DUP1 REVERT JUMPDEST PUSH0 PUSH8 0xFFFFFFFFFFFFFFFF DUP3 GT ISZERO PUSH2 0x453 JUMPI PUSH2 0x452 PUSH2 0x382 JUMP JUMPDEST JUMPDEST PUSH2 0x45C DUP3 PUSH2 0x372 JUMP JUMPDEST SWAP1 POP PUSH1 0x20 DUP2 ADD SWAP1 POP SWAP2 SWAP1 POP JUMP JUMPDEST DUP3 DUP2 DUP4 CALLDATACOPY PUSH0 DUP4 DUP4 ADD MSTORE POP POP POP JUMP JUMPDEST PUSH0 PUSH2 0x489 PUSH2 0x484 DUP5 PUSH2 0x439 JUMP JUMPDEST PUSH2 0x3E0 JUMP JUMPDEST SWAP1 POP DUP3 DUP2 MSTORE PUSH1 0x20 DUP2 ADD DUP5 DUP5 DUP5 ADD GT ISZERO PUSH2 0x4A5 JUMPI PUSH2 0x4A4 PUSH2 0x435 JUMP JUMPDEST JUMPDEST PUSH2 0x4B0 DUP5 DUP3 DUP6 PUSH2 0x469 JUMP JUMPDEST POP SWAP4 SWAP3 POP POP POP JUMP JUMPDEST PUSH0 DUP3 PUSH1 0x1F DUP4 ADD SLT PUSH2 0x4CC JUMPI PUSH2 0x4CB PUSH2 0x431 JUMP JUMPDEST JUMPDEST DUP2 CALLDATALOAD PUSH2 0x4DC DUP5 DUP3 PUSH1 0x20 DUP7 ADD PUSH2 0x477 JUMP JUMPDEST SWAP2 POP POP SWAP3 SWAP2 POP POP JUMP JUMPDEST PUSH0 PUSH1 0x40 DUP3 DUP5 SUB SLT ISZERO PUSH2 0x4FA JUMPI PUSH2 0x4F9 PUSH2 0x36E JUMP JUMPDEST JUMPDEST PUSH2 0x504 PUSH1 0x40 PUSH2 0x3E0 JUMP JUMPDEST SWAP1 POP PUSH0 PUSH2 0x513 DUP5 DUP3 DUP6 ADD PUSH2 0x41D JUMP JUMPDEST PUSH0 DUP4 ADD MSTORE POP PUSH1 0x20 DUP3 ADD CALLDATALOAD PUSH8 0xFFFFFFFFFFFFFFFF DUP2 GT ISZERO PUSH2 0x536 JUMPI PUSH2 0x535 PUSH2 0x3FA JUMP JUMPDEST JUMPDEST PUSH2 0x542 DUP5 DUP3 DUP6 ADD PUSH2 0x4B8 JUMP JUMPDEST PUSH1 0x20 DUP4 ADD MSTORE POP SWAP3 SWAP2 POP POP JUMP JUMPDEST PUSH0 PUSH8 0xFFFFFFFFFFFFFFFF DUP3 GT ISZERO PUSH2 0x568 JUMPI PUSH2 0x567 PUSH2 0x382 JUMP JUMPDEST JUMPDEST PUSH1 0x20 DUP3 MUL SWAP1 POP PUSH1 0x20 DUP2 ADD SWAP1 POP SWAP2 SWAP1 POP JUMP JUMPDEST PUSH0 DUP1 REVERT JUMPDEST PUSH0 PUSH2 0x58F PUSH2 0x58A DUP5 PUSH2 0x54E JUMP JUMPDEST PUSH2 0x3E0 JUMP JUMPDEST SWAP1 POP DUP1 DUP4 DUP3 MSTORE PUSH1 0x20 DUP3 ADD SWAP1 POP PUSH1 0x20 DUP5 MUL DUP4 ADD DUP6 DUP2 GT ISZERO PUSH2 0x5B2 JUMPI PUSH2 0x5B1 PUSH2 0x579 JUMP JUMPDEST JUMPDEST DUP4 JUMPDEST DUP2 DUP2 LT ISZERO PUSH2 0x5DB JUMPI DUP1 PUSH2 0x5C7 DUP9 DUP3 PUSH2 0x41D JUMP JUMPDEST DUP5 MSTORE PUSH1 0x20 DUP5 ADD SWAP4 POP POP PUSH1 0x20 DUP2 ADD SWAP1 POP PUSH2 0x5B4 JUMP JUMPDEST POP POP POP SWAP4 SWAP3 POP POP POP JUMP JUMPDEST PUSH0 DUP3 PUSH1 0x1F DUP4 ADD SLT PUSH2 0x5F9 JUMPI PUSH2 0x5F8 PUSH2 0x431 JUMP JUMPDEST JUMPDEST DUP2 CALLDATALOAD PUSH2 0x609 DUP5 DUP3 PUSH1 0x20 DUP7 ADD PUSH2 0x57D JUMP JUMPDEST SWAP2 POP POP SWAP3 SWAP2 POP POP JUMP JUMPDEST PUSH1 0x5 DUP2 LT PUSH2 0x61E JUMPI PUSH0 DUP1 REVERT JUMPDEST POP JUMP JUMPDEST PUSH0 DUP2 CALLDATALOAD SWAP1 POP PUSH2 0x62F DUP2 PUSH2 0x612 JUMP JUMPDEST SWAP3 SWAP2 POP POP JUMP JUMPDEST PUSH0 DUP1 PUSH0 DUP1 PUSH1 0x80 DUP6 DUP8 SUB SLT ISZERO PUSH2 0x64D JUMPI PUSH2 0x64C PUSH2 0x2FB JUMP JUMPDEST JUMPDEST PUSH0 PUSH2 0x65A DUP8 DUP3 DUP9 ADD PUSH2 0x35A JUMP JUMPDEST SWAP5 POP POP PUSH1 0x20 DUP6 ADD CALLDATALOAD PUSH8 0xFFFFFFFFFFFFFFFF DUP2 GT ISZERO PUSH2 0x67B JUMPI PUSH2 0x67A PUSH2 0x2FF JUMP JUMPDEST JUMPDEST PUSH2 0x687 DUP8 DUP3 DUP9 ADD PUSH2 0x4E5 JUMP JUMPDEST SWAP4 POP POP PUSH1 0x40 DUP6 ADD CALLDATALOAD PUSH8 0xFFFFFFFFFFFFFFFF DUP2 GT ISZERO PUSH2 0x6A8 JUMPI PUSH2 0x6A7 PUSH2 0x2FF JUMP JUMPDEST JUMPDEST PUSH2 0x6B4 DUP8 DUP3 DUP9 ADD PUSH2 0x5E5 JUMP JUMPDEST SWAP3 POP POP PUSH1 0x60 PUSH2 0x6C5 DUP8 DUP3 DUP9 ADD PUSH2 0x621 JUMP JUMPDEST SWAP2 POP POP SWAP3 SWAP6 SWAP2 SWAP5 POP SWAP3 POP JUMP JUMPDEST PUSH2 0x6DA DUP2 PUSH2 0x322 JUMP JUMPDEST DUP2 EQ PUSH2 0x6E4 JUMPI PUSH0 DUP1 REVERT JUMPDEST POP JUMP JUMPDEST PUSH0 DUP2 CALLDATALOAD SWAP1 POP PUSH2 0x6F5 DUP2 PUSH2 0x6D1 JUMP JUMPDEST SWAP3 SWAP2 POP POP JUMP JUMPDEST PUSH0 PUSH1 0x20 DUP3 DUP5 SUB SLT ISZERO PUSH2 0x710 JUMPI PUSH2 0x70F PUSH2 0x2FB JUMP JUMPDEST JUMPDEST PUSH0 PUSH2 0x71D DUP5 DUP3 DUP6 ADD PUSH2 0x6E7 JUMP JUMPDEST SWAP2 POP POP SWAP3 SWAP2 POP POP JUMP JUMPDEST PUSH0 DUP1 PUSH1 0x40 DUP4 DUP6 SUB SLT ISZERO PUSH2 0x73C JUMPI PUSH2 0x73B PUSH2 0x2FB JUMP JUMPDEST JUMPDEST PUSH0 PUSH2 0x749 DUP6 DUP3 DUP7 ADD PUSH2 0x6E7 JUMP JUMPDEST SWAP3 POP POP PUSH1 0x20 PUSH2 0x75A DUP6 DUP3 DUP7 ADD PUSH2 0x41D JUMP JUMPDEST SWAP2 POP POP SWAP3 POP SWAP3 SWAP1 POP JUMP JUMPDEST PUSH0 DUP2 ISZERO ISZERO SWAP1 POP SWAP2 SWAP1 POP JUMP JUMPDEST PUSH2 0x778 DUP2 PUSH2 0x764 JUMP JUMPDEST DUP3 MSTORE POP POP JUMP JUMPDEST PUSH0 PUSH1 0x20 DUP3 ADD SWAP1 POP PUSH2 0x791 PUSH0 DUP4 ADD DUP5 PUSH2 0x76F JUMP JUMPDEST SWAP3 SWAP2 POP POP JUMP JUMPDEST PUSH0 DUP3 DUP3 MSTORE PUSH1 0x20 DUP3 ADD SWAP1 POP SWAP3 SWAP2 POP POP JUMP JUMPDEST PUSH0 PUSH2 0x7B2 DUP4 DUP6 PUSH2 0x797 JUMP JUMPDEST SWAP4 POP PUSH2 0x7BF DUP4 DUP6 DUP5 PUSH2 0x469 JUMP JUMPDEST PUSH2 0x7C8 DUP4 PUSH2 0x372 JUMP JUMPDEST DUP5 ADD SWAP1 POP SWAP4 SWAP3 POP POP POP JUMP JUMPDEST PUSH0 PUSH1 0x20 DUP3 ADD SWAP1 POP DUP2 DUP2 SUB PUSH0 DUP4 ADD MSTORE PUSH2 0x7EC DUP2 DUP5 DUP7 PUSH2 0x7A7 JUMP JUMPDEST SWAP1 POP SWAP4 SWAP3 POP POP POP JUMP JUMPDEST PUSH32 0x4E487B7100000000000000000000000000000000000000000000000000000000 PUSH0 MSTORE PUSH1 0x11 PUSH1 0x4 MSTORE PUSH1 0x24 PUSH0 REVERT JUMPDEST PUSH0 PUSH2 0x82C DUP3 PUSH2 0x3FE JUMP JUMPDEST SWAP2 POP PUSH2 0x837 DUP4 PUSH2 0x3FE JUMP JUMPDEST SWAP3 POP DUP3 DUP3 SUB SWAP1 POP DUP2 DUP2 GT ISZERO PUSH2 0x84F JUMPI PUSH2 0x84E PUSH2 0x7F5 JUMP JUMPDEST JUMPDEST SWAP3 SWAP2 POP POP JUMP JUMPDEST PUSH0 PUSH2 0x85F DUP3 PUSH2 0x3FE JUMP JUMPDEST SWAP2 POP PUSH2 0x86A DUP4 PUSH2 0x3FE JUMP JUMPDEST SWAP3 POP DUP3 DUP3 ADD SWAP1 POP DUP1 DUP3 GT ISZERO PUSH2 0x882 JUMPI PUSH2 0x881 PUSH2 0x7F5 JUMP JUMPDEST JUMPDEST SWAP3 SWAP2 POP POP JUMP JUMPDEST PUSH2 0x891 DUP2 PUSH2 0x322 JUMP JUMPDEST DUP3 MSTORE POP POP JUMP JUMPDEST PUSH2 0x8A0 DUP2 PUSH2 0x3FE JUMP JUMPDEST DUP3 MSTORE POP POP JUMP JUMPDEST PUSH0 PUSH1 0x60 DUP3 ADD SWAP1 POP PUSH2 0x8B9 PUSH0 DUP4 ADD DUP7 PUSH2 0x888 JUMP JUMPDEST PUSH2 0x8C6 PUSH1 0x20 DUP4 ADD DUP6 PUSH2 0x888 JUMP JUMPDEST PUSH2 0x8D3 PUSH1 0x40 DUP4 ADD DUP5 PUSH2 0x897 JUMP JUMPDEST SWAP5 SWAP4 POP POP POP POP JUMP INVALID LOG2 PUSH5 0x6970667358 0x22 SLT KECCAK256 SWAP15 DUP14 DUP12 MSTORE DUP4 0xE6 0xD SIGNEXTEND COINBASE PUSH0 0xE3 PUSH26 0xD43A8BA68820F505387E56551A48FFCDA1D310C864736F6C6343 STOP ADDMOD BYTE STOP CALLER "
				},
				"gasEstimates": {
					"creation": {
						"codeDepositCost": "464200",
						"executionCost": "497",
						"totalCost": "464697"
					},
					"external": {
						"mappingParamSector(address,(uint256,bytes),uint256[],uint8)": "infinite",
						"mint(address)": "infinite",
						"mintSelector()": "316",
						"transfer(address,uint256)": "infinite"
					}
				},
				"methodIdentifiers": {
					"mappingParamSector(address,(uint256,bytes),uint256[],uint8)": "62ae717c",
					"mint(address)": "6a627842",
					"mintSelector()": "046dab16",
					"transfer(address,uint256)": "a9059cbb"
				}
			},
			"storageLayout": {
				"storage": [
					{
						"astId": 88,
						"contract": "solidity/soliditybase/selector.sol:selector",
						"label": "balanceOf",
						"offset": 0,
						"slot": "0",
						"type": "t_mapping(t_address,t_uint256)"
					}
				],
				"types": {
					"t_address": {
						"encoding": "inplace",
						"label": "address",
						"numberOfBytes": "20"
					},
					"t_mapping(t_address,t_uint256)": {
						"encoding": "mapping",
						"key": "t_address",
						"label": "mapping(address => uint256)",
						"numberOfBytes": "32",
						"value": "t_uint256"
					},
					"t_uint256": {
						"encoding": "inplace",
						"label": "uint256",
						"numberOfBytes": "32"
					}
				}
			},
			"userdoc": {
				"kind": "user",
				"methods": {},
				"version": 1
			}
		}
	}
}