{
	"solidity/task2/ERC20task.sol": {
		"ERC20Test": {
			"abi": [
				{
					"inputs": [
						{
							"internalType": "string",
							"name": "_name",
							"type": "string"
						},
						{
							"internalType": "string",
							"name": "_symbol",
							"type": "string"
						},
						{
							"internalType": "uint8",
							"name": "_decimals",
							"type": "uint8"
						}
					],
					"stateMutability": "nonpayable",
					"type": "constructor"
				},
				{
					"anonymous": false,
					"inputs": [
						{
							"indexed": true,
							"internalType": "address",
							"name": "_owner",
							"type": "address"
						},
						{
							"indexed": true,
							"internalType": "address",
							"name": "_spender",
							"type": "address"
						},
						{
							"indexed": false,
							"internalType": "uint256",
							"name": "_value2",
							"type": "uint256"
						}
					],
					"name": "SApproval",
					"type": "event"
				},
				{
					"anonymous": false,
					"inputs": [
						{
							"indexed": true,
							"internalType": "address",
							"name": "_from",
							"type": "address"
						},
						{
							"indexed": true,
							"internalType": "address",
							"name": "_to",
							"type": "address"
						},
						{
							"indexed": false,
							"internalType": "uint256",
							"name": "_value",
							"type": "uint256"
						}
					],
					"name": "STransfer",
					"type": "event"
				},
				{
					"inputs": [
						{
							"internalType": "address",
							"name": "spender",
							"type": "address"
						},
						{
							"internalType": "uint256",
							"name": "amount",
							"type": "uint256"
						}
					],
					"name": "appro",
					"outputs": [
						{
							"internalType": "bool",
							"name": "",
							"type": "bool"
						}
					],
					"stateMutability": "nonpayable",
					"type": "function"
				},
				{
					"inputs": [],
					"name": "decimals",
					"outputs": [
						{
							"internalType": "uint8",
							"name": "",
							"type": "uint8"
						}
					],
					"stateMutability": "view",
					"type": "function"
				},
				{
					"inputs": [
						{
							"internalType": "address",
							"name": "addr",
							"type": "address"
						}
					],
					"name": "getbalance",
					"outputs": [
						{
							"internalType": "uint256",
							"name": "",
							"type": "uint256"
						}
					],
					"stateMutability": "view",
					"type": "function"
				},
				{
					"inputs": [
						{
							"internalType": "address",
							"name": "to",
							"type": "address"
						},
						{
							"internalType": "uint256",
							"name": "amount",
							"type": "uint256"
						}
					],
					"name": "mint",
					"outputs": [],
					"stateMutability": "nonpayable",
					"type": "function"
				},
				{
					"inputs": [],
					"name": "name",
					"outputs": [
						{
							"internalType": "string",
							"name": "",
							"type": "string"
						}
					],
					"stateMutability": "view",
					"type": "function"
				},
				{
					"inputs": [],
					"name": "owner",
					"outputs": [
						{
							"internalType": "address",
							"name": "",
							"type": "address"
						}
					],
					"stateMutability": "view",
					"type": "function"
				},
				{
					"inputs": [],
					"name": "symbol",
					"outputs": [
						{
							"internalType": "string",
							"name": "",
							"type": "string"
						}
					],
					"stateMutability": "view",
					"type": "function"
				},
				{
					"inputs": [],
					"name": "totalSupply",
					"outputs": [
						{
							"internalType": "uint256",
							"name": "",
							"type": "uint256"
						}
					],
					"stateMutability": "view",
					"type": "function"
				},
				{
					"inputs": [
						{
							"internalType": "address",
							"name": "to",
							"type": "address"
						},
						{
							"internalType": "uint256",
							"name": "amount",
							"type": "uint256"
						}
					],
					"name": "trans",
					"outputs": [
						{
							"internalType": "bool",
							"name": "",
							"type": "bool"
						}
					],
					"stateMutability": "nonpayable",
					"type": "function"
				},
				{
					"inputs": [
						{
							"internalType": "address",
							"name": "from",
							"type": "address"
						},
						{
							"internalType": "address",
							"name": "to",
							"type": "address"
						},
						{
							"internalType": "uint256",
							"name": "amount",
							"type": "uint256"
						}
					],
					"name": "transfrom",
					"outputs": [
						{
							"internalType": "bool",
							"name": "",
							"type": "bool"
						}
					],
					"stateMutability": "nonpayable",
					"type": "function"
				}
			],
			"devdoc": {
				"kind": "dev",
				"methods": {},
				"version": 1
			},
			"evm": {
				"assembly": "    /* \"solidity/task2/ERC20task.sol\":58:2455  contract ERC20Test {... */\n  mstore(0x40, 0x80)\n    /* \"solidity/task2/ERC20task.sol\":220:230  msg.sender */\n  caller\n    /* \"solidity/task2/ERC20task.sol\":197:230  address public owner = msg.sender */\n  0x04\n  exp(0x0100, 0x00)\n  dup2\n  sload\n  dup2\n  0xffffffffffffffffffffffffffffffffffffffff\n  mul\n  not\n  and\n  swap1\n  dup4\n  0xffffffffffffffffffffffffffffffffffffffff\n  and\n  mul\n  or\n  swap1\n  sstore\n  pop\n    /* \"solidity/task2/ERC20task.sol\":237:398  constructor(string memory _name, string memory _symbol, uint8 _decimals){... */\n  callvalue\n  dup1\n  iszero\n  tag_1\n  jumpi\n  0x00\n  dup1\n  revert\ntag_1:\n  pop\n  mload(0x40)\n  sub(codesize, bytecodeSize)\n  dup1\n  bytecodeSize\n  dup4\n  codecopy\n  dup2\n  dup2\n  add\n  0x40\n  mstore\n  dup2\n  add\n  swap1\n  tag_2\n  swap2\n  swap1\n  tag_3\n  jump\t// in\ntag_2:\n    /* \"solidity/task2/ERC20task.sol\":327:332  _name */\n  dup3\n    /* \"solidity/task2/ERC20task.sol\":320:324  name */\n  0x00\n    /* \"solidity/task2/ERC20task.sol\":320:332  name = _name */\n  swap1\n  dup2\n  tag_6\n  swap2\n  swap1\n  tag_7\n  jump\t// in\ntag_6:\n  pop\n    /* \"solidity/task2/ERC20task.sol\":352:359  _symbol */\n  dup2\n    /* \"solidity/task2/ERC20task.sol\":343:349  symbol */\n  0x01\n    /* \"solidity/task2/ERC20task.sol\":343:359  symbol = _symbol */\n  swap1\n  dup2\n  tag_8\n  swap2\n  swap1\n  tag_7\n  jump\t// in\ntag_8:\n  pop\n    /* \"solidity/task2/ERC20task.sol\":381:390  _decimals */\n  dup1\n    /* \"solidity/task2/ERC20task.sol\":370:378  decimals */\n  0x02\n  0x00\n    /* \"solidity/task2/ERC20task.sol\":370:390  decimals = _decimals */\n  0x0100\n  exp\n  dup2\n  sload\n  dup2\n  0xff\n  mul\n  not\n  and\n  swap1\n  dup4\n  0xff\n  and\n  mul\n  or\n  swap1\n  sstore\n  pop\n    /* \"solidity/task2/ERC20task.sol\":237:398  constructor(string memory _name, string memory _symbol, uint8 _decimals){... */\n  pop\n  pop\n  pop\n    /* \"solidity/task2/ERC20task.sol\":58:2455  contract ERC20Test {... */\n  jump(tag_9)\n    /* \"#utility.yul\":7:82   */\ntag_10:\n    /* \"#utility.yul\":40:46   */\n  0x00\n    /* \"#utility.yul\":73:75   */\n  0x40\n    /* \"#utility.yul\":67:76   */\n  mload\n    /* \"#utility.yul\":57:76   */\n  swap1\n  pop\n    /* \"#utility.yul\":7:82   */\n  swap1\n  jump\t// out\n    /* \"#utility.yul\":88:205   */\ntag_11:\n    /* \"#utility.yul\":197:198   */\n  0x00\n    /* \"#utility.yul\":194:195   */\n  dup1\n    /* \"#utility.yul\":187:199   */\n  revert\n    /* \"#utility.yul\":211:328   */\ntag_12:\n    /* \"#utility.yul\":320:321   */\n  0x00\n    /* \"#utility.yul\":317:318   */\n  dup1\n    /* \"#utility.yul\":310:322   */\n  revert\n    /* \"#utility.yul\":334:451   */\ntag_13:\n    /* \"#utility.yul\":443:444   */\n  0x00\n    /* \"#utility.yul\":440:441   */\n  dup1\n    /* \"#utility.yul\":433:445   */\n  revert\n    /* \"#utility.yul\":457:574   */\ntag_14:\n    /* \"#utility.yul\":566:567   */\n  0x00\n    /* \"#utility.yul\":563:564   */\n  dup1\n    /* \"#utility.yul\":556:568   */\n  revert\n    /* \"#utility.yul\":580:682   */\ntag_15:\n    /* \"#utility.yul\":621:627   */\n  0x00\n    /* \"#utility.yul\":672:674   */\n  0x1f\n    /* \"#utility.yul\":668:675   */\n  not\n    /* \"#utility.yul\":663:665   */\n  0x1f\n    /* \"#utility.yul\":656:661   */\n  dup4\n    /* \"#utility.yul\":652:666   */\n  add\n    /* \"#utility.yul\":648:676   */\n  and\n    /* \"#utility.yul\":638:676   */\n  swap1\n  pop\n    /* \"#utility.yul\":580:682   */\n  swap2\n  swap1\n  pop\n  jump\t// out\n    /* \"#utility.yul\":688:868   */\ntag_16:\n    /* \"#utility.yul\":736:813   */\n  0x4e487b7100000000000000000000000000000000000000000000000000000000\n    /* \"#utility.yul\":733:734   */\n  0x00\n    /* \"#utility.yul\":726:814   */\n  mstore\n    /* \"#utility.yul\":833:837   */\n  0x41\n    /* \"#utility.yul\":830:831   */\n  0x04\n    /* \"#utility.yul\":823:838   */\n  mstore\n    /* \"#utility.yul\":857:861   */\n  0x24\n    /* \"#utility.yul\":854:855   */\n  0x00\n    /* \"#utility.yul\":847:862   */\n  revert\n    /* \"#utility.yul\":874:1155   */\ntag_17:\n    /* \"#utility.yul\":957:984   */\n  tag_54\n    /* \"#utility.yul\":979:983   */\n  dup3\n    /* \"#utility.yul\":957:984   */\n  tag_15\n  jump\t// in\ntag_54:\n    /* \"#utility.yul\":949:955   */\n  dup2\n    /* \"#utility.yul\":945:985   */\n  add\n    /* \"#utility.yul\":1087:1093   */\n  dup2\n    /* \"#utility.yul\":1075:1085   */\n  dup2\n    /* \"#utility.yul\":1072:1094   */\n  lt\n    /* \"#utility.yul\":1051:1069   */\n  0xffffffffffffffff\n    /* \"#utility.yul\":1039:1049   */\n  dup3\n    /* \"#utility.yul\":1036:1070   */\n  gt\n    /* \"#utility.yul\":1033:1095   */\n  or\n    /* \"#utility.yul\":1030:1118   */\n  iszero\n  tag_55\n  jumpi\n    /* \"#utility.yul\":1098:1116   */\n  tag_56\n  tag_16\n  jump\t// in\ntag_56:\n    /* \"#utility.yul\":1030:1118   */\ntag_55:\n    /* \"#utility.yul\":1138:1148   */\n  dup1\n    /* \"#utility.yul\":1134:1136   */\n  0x40\n    /* \"#utility.yul\":1127:1149   */\n  mstore\n    /* \"#utility.yul\":917:1155   */\n  pop\n    /* \"#utility.yul\":874:1155   */\n  pop\n  pop\n  jump\t// out\n    /* \"#utility.yul\":1161:1290   */\ntag_18:\n    /* \"#utility.yul\":1195:1201   */\n  0x00\n    /* \"#utility.yul\":1222:1242   */\n  tag_58\n  tag_10\n  jump\t// in\ntag_58:\n    /* \"#utility.yul\":1212:1242   */\n  swap1\n  pop\n    /* \"#utility.yul\":1251:1284   */\n  tag_59\n    /* \"#utility.yul\":1279:1283   */\n  dup3\n    /* \"#utility.yul\":1271:1277   */\n  dup3\n    /* \"#utility.yul\":1251:1284   */\n  tag_17\n  jump\t// in\ntag_59:\n    /* \"#utility.yul\":1161:1290   */\n  swap2\n  swap1\n  pop\n  jump\t// out\n    /* \"#utility.yul\":1296:1604   */\ntag_19:\n    /* \"#utility.yul\":1358:1362   */\n  0x00\n    /* \"#utility.yul\":1448:1466   */\n  0xffffffffffffffff\n    /* \"#utility.yul\":1440:1446   */\n  dup3\n    /* \"#utility.yul\":1437:1467   */\n  gt\n    /* \"#utility.yul\":1434:1490   */\n  iszero\n  tag_61\n  jumpi\n    /* \"#utility.yul\":1470:1488   */\n  tag_62\n  tag_16\n  jump\t// in\ntag_62:\n    /* \"#utility.yul\":1434:1490   */\ntag_61:\n    /* \"#utility.yul\":1508:1537   */\n  tag_63\n    /* \"#utility.yul\":1530:1536   */\n  dup3\n    /* \"#utility.yul\":1508:1537   */\n  tag_15\n  jump\t// in\ntag_63:\n    /* \"#utility.yul\":1500:1537   */\n  swap1\n  pop\n    /* \"#utility.yul\":1592:1596   */\n  0x20\n    /* \"#utility.yul\":1586:1590   */\n  dup2\n    /* \"#utility.yul\":1582:1597   */\n  add\n    /* \"#utility.yul\":1574:1597   */\n  swap1\n  pop\n    /* \"#utility.yul\":1296:1604   */\n  swap2\n  swap1\n  pop\n  jump\t// out\n    /* \"#utility.yul\":1610:1749   */\ntag_20:\n    /* \"#utility.yul\":1699:1705   */\n  dup3\n    /* \"#utility.yul\":1694:1697   */\n  dup2\n    /* \"#utility.yul\":1689:1692   */\n  dup4\n    /* \"#utility.yul\":1683:1706   */\n  mcopy\n    /* \"#utility.yul\":1740:1741   */\n  0x00\n    /* \"#utility.yul\":1731:1737   */\n  dup4\n    /* \"#utility.yul\":1726:1729   */\n  dup4\n    /* \"#utility.yul\":1722:1738   */\n  add\n    /* \"#utility.yul\":1715:1742   */\n  mstore\n    /* \"#utility.yul\":1610:1749   */\n  pop\n  pop\n  pop\n  jump\t// out\n    /* \"#utility.yul\":1755:2189   */\ntag_21:\n    /* \"#utility.yul\":1844:1849   */\n  0x00\n    /* \"#utility.yul\":1869:1935   */\n  tag_66\n    /* \"#utility.yul\":1885:1934   */\n  tag_67\n    /* \"#utility.yul\":1927:1933   */\n  dup5\n    /* \"#utility.yul\":1885:1934   */\n  tag_19\n  jump\t// in\ntag_67:\n    /* \"#utility.yul\":1869:1935   */\n  tag_18\n  jump\t// in\ntag_66:\n    /* \"#utility.yul\":1860:1935   */\n  swap1\n  pop\n    /* \"#utility.yul\":1958:1964   */\n  dup3\n    /* \"#utility.yul\":1951:1956   */\n  dup2\n    /* \"#utility.yul\":1944:1965   */\n  mstore\n    /* \"#utility.yul\":1996:2000   */\n  0x20\n    /* \"#utility.yul\":1989:1994   */\n  dup2\n    /* \"#utility.yul\":1985:2001   */\n  add\n    /* \"#utility.yul\":2034:2037   */\n  dup5\n    /* \"#utility.yul\":2025:2031   */\n  dup5\n    /* \"#utility.yul\":2020:2023   */\n  dup5\n    /* \"#utility.yul\":2016:2032   */\n  add\n    /* \"#utility.yul\":2013:2038   */\n  gt\n    /* \"#utility.yul\":2010:2122   */\n  iszero\n  tag_68\n  jumpi\n    /* \"#utility.yul\":2041:2120   */\n  tag_69\n  tag_14\n  jump\t// in\ntag_69:\n    /* \"#utility.yul\":2010:2122   */\ntag_68:\n    /* \"#utility.yul\":2131:2183   */\n  tag_70\n    /* \"#utility.yul\":2176:2182   */\n  dup5\n    /* \"#utility.yul\":2171:2174   */\n  dup3\n    /* \"#utility.yul\":2166:2169   */\n  dup6\n    /* \"#utility.yul\":2131:2183   */\n  tag_20\n  jump\t// in\ntag_70:\n    /* \"#utility.yul\":1850:2189   */\n  pop\n    /* \"#utility.yul\":1755:2189   */\n  swap4\n  swap3\n  pop\n  pop\n  pop\n  jump\t// out\n    /* \"#utility.yul\":2209:2564   */\ntag_22:\n    /* \"#utility.yul\":2276:2281   */\n  0x00\n    /* \"#utility.yul\":2325:2328   */\n  dup3\n    /* \"#utility.yul\":2318:2322   */\n  0x1f\n    /* \"#utility.yul\":2310:2316   */\n  dup4\n    /* \"#utility.yul\":2306:2323   */\n  add\n    /* \"#utility.yul\":2302:2329   */\n  slt\n    /* \"#utility.yul\":2292:2414   */\n  tag_72\n  jumpi\n    /* \"#utility.yul\":2333:2412   */\n  tag_73\n  tag_13\n  jump\t// in\ntag_73:\n    /* \"#utility.yul\":2292:2414   */\ntag_72:\n    /* \"#utility.yul\":2443:2449   */\n  dup2\n    /* \"#utility.yul\":2437:2450   */\n  mload\n    /* \"#utility.yul\":2468:2558   */\n  tag_74\n    /* \"#utility.yul\":2554:2557   */\n  dup5\n    /* \"#utility.yul\":2546:2552   */\n  dup3\n    /* \"#utility.yul\":2539:2543   */\n  0x20\n    /* \"#utility.yul\":2531:2537   */\n  dup7\n    /* \"#utility.yul\":2527:2544   */\n  add\n    /* \"#utility.yul\":2468:2558   */\n  tag_21\n  jump\t// in\ntag_74:\n    /* \"#utility.yul\":2459:2558   */\n  swap2\n  pop\n    /* \"#utility.yul\":2282:2564   */\n  pop\n    /* \"#utility.yul\":2209:2564   */\n  swap3\n  swap2\n  pop\n  pop\n  jump\t// out\n    /* \"#utility.yul\":2570:2656   */\ntag_23:\n    /* \"#utility.yul\":2605:2612   */\n  0x00\n    /* \"#utility.yul\":2645:2649   */\n  0xff\n    /* \"#utility.yul\":2638:2643   */\n  dup3\n    /* \"#utility.yul\":2634:2650   */\n  and\n    /* \"#utility.yul\":2623:2650   */\n  swap1\n  pop\n    /* \"#utility.yul\":2570:2656   */\n  swap2\n  swap1\n  pop\n  jump\t// out\n    /* \"#utility.yul\":2662:2780   */\ntag_24:\n    /* \"#utility.yul\":2733:2755   */\n  tag_77\n    /* \"#utility.yul\":2749:2754   */\n  dup2\n    /* \"#utility.yul\":2733:2755   */\n  tag_23\n  jump\t// in\ntag_77:\n    /* \"#utility.yul\":2726:2731   */\n  dup2\n    /* \"#utility.yul\":2723:2756   */\n  eq\n    /* \"#utility.yul\":2713:2774   */\n  tag_78\n  jumpi\n    /* \"#utility.yul\":2770:2771   */\n  0x00\n    /* \"#utility.yul\":2767:2768   */\n  dup1\n    /* \"#utility.yul\":2760:2772   */\n  revert\n    /* \"#utility.yul\":2713:2774   */\ntag_78:\n    /* \"#utility.yul\":2662:2780   */\n  pop\n  jump\t// out\n    /* \"#utility.yul\":2786:2925   */\ntag_25:\n    /* \"#utility.yul\":2841:2846   */\n  0x00\n    /* \"#utility.yul\":2872:2878   */\n  dup2\n    /* \"#utility.yul\":2866:2879   */\n  mload\n    /* \"#utility.yul\":2857:2879   */\n  swap1\n  pop\n    /* \"#utility.yul\":2888:2919   */\n  tag_80\n    /* \"#utility.yul\":2913:2918   */\n  dup2\n    /* \"#utility.yul\":2888:2919   */\n  tag_24\n  jump\t// in\ntag_80:\n    /* \"#utility.yul\":2786:2925   */\n  swap3\n  swap2\n  pop\n  pop\n  jump\t// out\n    /* \"#utility.yul\":2931:3936   */\ntag_3:\n    /* \"#utility.yul\":3037:3043   */\n  0x00\n    /* \"#utility.yul\":3045:3051   */\n  dup1\n    /* \"#utility.yul\":3053:3059   */\n  0x00\n    /* \"#utility.yul\":3102:3104   */\n  0x60\n    /* \"#utility.yul\":3090:3099   */\n  dup5\n    /* \"#utility.yul\":3081:3088   */\n  dup7\n    /* \"#utility.yul\":3077:3100   */\n  sub\n    /* \"#utility.yul\":3073:3105   */\n  slt\n    /* \"#utility.yul\":3070:3189   */\n  iszero\n  tag_82\n  jumpi\n    /* \"#utility.yul\":3108:3187   */\n  tag_83\n  tag_11\n  jump\t// in\ntag_83:\n    /* \"#utility.yul\":3070:3189   */\ntag_82:\n    /* \"#utility.yul\":3249:3250   */\n  0x00\n    /* \"#utility.yul\":3238:3247   */\n  dup5\n    /* \"#utility.yul\":3234:3251   */\n  add\n    /* \"#utility.yul\":3228:3252   */\n  mload\n    /* \"#utility.yul\":3279:3297   */\n  0xffffffffffffffff\n    /* \"#utility.yul\":3271:3277   */\n  dup2\n    /* \"#utility.yul\":3268:3298   */\n  gt\n    /* \"#utility.yul\":3265:3382   */\n  iszero\n  tag_84\n  jumpi\n    /* \"#utility.yul\":3301:3380   */\n  tag_85\n  tag_12\n  jump\t// in\ntag_85:\n    /* \"#utility.yul\":3265:3382   */\ntag_84:\n    /* \"#utility.yul\":3406:3480   */\n  tag_86\n    /* \"#utility.yul\":3472:3479   */\n  dup7\n    /* \"#utility.yul\":3463:3469   */\n  dup3\n    /* \"#utility.yul\":3452:3461   */\n  dup8\n    /* \"#utility.yul\":3448:3470   */\n  add\n    /* \"#utility.yul\":3406:3480   */\n  tag_22\n  jump\t// in\ntag_86:\n    /* \"#utility.yul\":3396:3480   */\n  swap4\n  pop\n    /* \"#utility.yul\":3199:3490   */\n  pop\n    /* \"#utility.yul\":3550:3552   */\n  0x20\n    /* \"#utility.yul\":3539:3548   */\n  dup5\n    /* \"#utility.yul\":3535:3553   */\n  add\n    /* \"#utility.yul\":3529:3554   */\n  mload\n    /* \"#utility.yul\":3581:3599   */\n  0xffffffffffffffff\n    /* \"#utility.yul\":3573:3579   */\n  dup2\n    /* \"#utility.yul\":3570:3600   */\n  gt\n    /* \"#utility.yul\":3567:3684   */\n  iszero\n  tag_87\n  jumpi\n    /* \"#utility.yul\":3603:3682   */\n  tag_88\n  tag_12\n  jump\t// in\ntag_88:\n    /* \"#utility.yul\":3567:3684   */\ntag_87:\n    /* \"#utility.yul\":3708:3782   */\n  tag_89\n    /* \"#utility.yul\":3774:3781   */\n  dup7\n    /* \"#utility.yul\":3765:3771   */\n  dup3\n    /* \"#utility.yul\":3754:3763   */\n  dup8\n    /* \"#utility.yul\":3750:3772   */\n  add\n    /* \"#utility.yul\":3708:3782   */\n  tag_22\n  jump\t// in\ntag_89:\n    /* \"#utility.yul\":3698:3782   */\n  swap3\n  pop\n    /* \"#utility.yul\":3500:3792   */\n  pop\n    /* \"#utility.yul\":3831:3833   */\n  0x40\n    /* \"#utility.yul\":3857:3919   */\n  tag_90\n    /* \"#utility.yul\":3911:3918   */\n  dup7\n    /* \"#utility.yul\":3902:3908   */\n  dup3\n    /* \"#utility.yul\":3891:3900   */\n  dup8\n    /* \"#utility.yul\":3887:3909   */\n  add\n    /* \"#utility.yul\":3857:3919   */\n  tag_25\n  jump\t// in\ntag_90:\n    /* \"#utility.yul\":3847:3919   */\n  swap2\n  pop\n    /* \"#utility.yul\":3802:3929   */\n  pop\n    /* \"#utility.yul\":2931:3936   */\n  swap3\n  pop\n  swap3\n  pop\n  swap3\n  jump\t// out\n    /* \"#utility.yul\":3942:4041   */\ntag_26:\n    /* \"#utility.yul\":3994:4000   */\n  0x00\n    /* \"#utility.yul\":4028:4033   */\n  dup2\n    /* \"#utility.yul\":4022:4034   */\n  mload\n    /* \"#utility.yul\":4012:4034   */\n  swap1\n  pop\n    /* \"#utility.yul\":3942:4041   */\n  swap2\n  swap1\n  pop\n  jump\t// out\n    /* \"#utility.yul\":4047:4227   */\ntag_27:\n    /* \"#utility.yul\":4095:4172   */\n  0x4e487b7100000000000000000000000000000000000000000000000000000000\n    /* \"#utility.yul\":4092:4093   */\n  0x00\n    /* \"#utility.yul\":4085:4173   */\n  mstore\n    /* \"#utility.yul\":4192:4196   */\n  0x22\n    /* \"#utility.yul\":4189:4190   */\n  0x04\n    /* \"#utility.yul\":4182:4197   */\n  mstore\n    /* \"#utility.yul\":4216:4220   */\n  0x24\n    /* \"#utility.yul\":4213:4214   */\n  0x00\n    /* \"#utility.yul\":4206:4221   */\n  revert\n    /* \"#utility.yul\":4233:4553   */\ntag_28:\n    /* \"#utility.yul\":4277:4283   */\n  0x00\n    /* \"#utility.yul\":4314:4315   */\n  0x02\n    /* \"#utility.yul\":4308:4312   */\n  dup3\n    /* \"#utility.yul\":4304:4316   */\n  div\n    /* \"#utility.yul\":4294:4316   */\n  swap1\n  pop\n    /* \"#utility.yul\":4361:4362   */\n  0x01\n    /* \"#utility.yul\":4355:4359   */\n  dup3\n    /* \"#utility.yul\":4351:4363   */\n  and\n    /* \"#utility.yul\":4382:4400   */\n  dup1\n    /* \"#utility.yul\":4372:4453   */\n  tag_94\n  jumpi\n    /* \"#utility.yul\":4438:4442   */\n  0x7f\n    /* \"#utility.yul\":4430:4436   */\n  dup3\n    /* \"#utility.yul\":4426:4443   */\n  and\n    /* \"#utility.yul\":4416:4443   */\n  swap2\n  pop\n    /* \"#utility.yul\":4372:4453   */\ntag_94:\n    /* \"#utility.yul\":4500:4502   */\n  0x20\n    /* \"#utility.yul\":4492:4498   */\n  dup3\n    /* \"#utility.yul\":4489:4503   */\n  lt\n    /* \"#utility.yul\":4469:4487   */\n  dup2\n    /* \"#utility.yul\":4466:4504   */\n  sub\n    /* \"#utility.yul\":4463:4547   */\n  tag_95\n  jumpi\n    /* \"#utility.yul\":4519:4537   */\n  tag_96\n  tag_27\n  jump\t// in\ntag_96:\n    /* \"#utility.yul\":4463:4547   */\ntag_95:\n    /* \"#utility.yul\":4284:4553   */\n  pop\n    /* \"#utility.yul\":4233:4553   */\n  swap2\n  swap1\n  pop\n  jump\t// out\n    /* \"#utility.yul\":4559:4700   */\ntag_29:\n    /* \"#utility.yul\":4608:4612   */\n  0x00\n    /* \"#utility.yul\":4631:4634   */\n  dup2\n    /* \"#utility.yul\":4623:4634   */\n  swap1\n  pop\n    /* \"#utility.yul\":4654:4657   */\n  dup2\n    /* \"#utility.yul\":4651:4652   */\n  0x00\n    /* \"#utility.yul\":4644:4658   */\n  mstore\n    /* \"#utility.yul\":4688:4692   */\n  0x20\n    /* \"#utility.yul\":4685:4686   */\n  0x00\n    /* \"#utility.yul\":4675:4693   */\n  keccak256\n    /* \"#utility.yul\":4667:4693   */\n  swap1\n  pop\n    /* \"#utility.yul\":4559:4700   */\n  swap2\n  swap1\n  pop\n  jump\t// out\n    /* \"#utility.yul\":4706:4799   */\ntag_30:\n    /* \"#utility.yul\":4743:4749   */\n  0x00\n    /* \"#utility.yul\":4790:4792   */\n  0x20\n    /* \"#utility.yul\":4785:4787   */\n  0x1f\n    /* \"#utility.yul\":4778:4783   */\n  dup4\n    /* \"#utility.yul\":4774:4788   */\n  add\n    /* \"#utility.yul\":4770:4793   */\n  div\n    /* \"#utility.yul\":4760:4793   */\n  swap1\n  pop\n    /* \"#utility.yul\":4706:4799   */\n  swap2\n  swap1\n  pop\n  jump\t// out\n    /* \"#utility.yul\":4805:4912   */\ntag_31:\n    /* \"#utility.yul\":4849:4857   */\n  0x00\n    /* \"#utility.yul\":4899:4904   */\n  dup3\n    /* \"#utility.yul\":4893:4897   */\n  dup3\n    /* \"#utility.yul\":4889:4905   */\n  shl\n    /* \"#utility.yul\":4868:4905   */\n  swap1\n  pop\n    /* \"#utility.yul\":4805:4912   */\n  swap3\n  swap2\n  pop\n  pop\n  jump\t// out\n    /* \"#utility.yul\":4918:5311   */\ntag_32:\n    /* \"#utility.yul\":4987:4993   */\n  0x00\n    /* \"#utility.yul\":5037:5038   */\n  0x08\n    /* \"#utility.yul\":5025:5035   */\n  dup4\n    /* \"#utility.yul\":5021:5039   */\n  mul\n    /* \"#utility.yul\":5060:5157   */\n  tag_101\n    /* \"#utility.yul\":5090:5156   */\n  0xffffffffffffffffffffffffffffffffffffffffffffffffffffffffffffffff\n    /* \"#utility.yul\":5079:5088   */\n  dup3\n    /* \"#utility.yul\":5060:5157   */\n  tag_31\n  jump\t// in\ntag_101:\n    /* \"#utility.yul\":5178:5217   */\n  tag_102\n    /* \"#utility.yul\":5208:5216   */\n  dup7\n    /* \"#utility.yul\":5197:5206   */\n  dup4\n    /* \"#utility.yul\":5178:5217   */\n  tag_31\n  jump\t// in\ntag_102:\n    /* \"#utility.yul\":5166:5217   */\n  swap6\n  pop\n    /* \"#utility.yul\":5250:5254   */\n  dup1\n    /* \"#utility.yul\":5246:5255   */\n  not\n    /* \"#utility.yul\":5239:5244   */\n  dup5\n    /* \"#utility.yul\":5235:5256   */\n  and\n    /* \"#utility.yul\":5226:5256   */\n  swap4\n  pop\n    /* \"#utility.yul\":5299:5303   */\n  dup1\n    /* \"#utility.yul\":5289:5297   */\n  dup7\n    /* \"#utility.yul\":5285:5304   */\n  and\n    /* \"#utility.yul\":5278:5283   */\n  dup5\n    /* \"#utility.yul\":5275:5305   */\n  or\n    /* \"#utility.yul\":5265:5305   */\n  swap3\n  pop\n    /* \"#utility.yul\":4994:5311   */\n  pop\n  pop\n    /* \"#utility.yul\":4918:5311   */\n  swap4\n  swap3\n  pop\n  pop\n  pop\n  jump\t// out\n    /* \"#utility.yul\":5317:5394   */\ntag_33:\n    /* \"#utility.yul\":5354:5361   */\n  0x00\n    /* \"#utility.yul\":5383:5388   */\n  dup2\n    /* \"#utility.yul\":5372:5388   */\n  swap1\n  pop\n    /* \"#utility.yul\":5317:5394   */\n  swap2\n  swap1\n  pop\n  jump\t// out\n    /* \"#utility.yul\":5400:5460   */\ntag_34:\n    /* \"#utility.yul\":5428:5431   */\n  0x00\n    /* \"#utility.yul\":5449:5454   */\n  dup2\n    /* \"#utility.yul\":5442:5454   */\n  swap1\n  pop\n    /* \"#utility.yul\":5400:5460   */\n  swap2\n  swap1\n  pop\n  jump\t// out\n    /* \"#utility.yul\":5466:5608   */\ntag_35:\n    /* \"#utility.yul\":5516:5525   */\n  0x00\n    /* \"#utility.yul\":5549:5602   */\n  tag_106\n    /* \"#utility.yul\":5567:5601   */\n  tag_107\n    /* \"#utility.yul\":5576:5600   */\n  tag_108\n    /* \"#utility.yul\":5594:5599   */\n  dup5\n    /* \"#utility.yul\":5576:5600   */\n  tag_33\n  jump\t// in\ntag_108:\n    /* \"#utility.yul\":5567:5601   */\n  tag_34\n  jump\t// in\ntag_107:\n    /* \"#utility.yul\":5549:5602   */\n  tag_33\n  jump\t// in\ntag_106:\n    /* \"#utility.yul\":5536:5602   */\n  swap1\n  pop\n    /* \"#utility.yul\":5466:5608   */\n  swap2\n  swap1\n  pop\n  jump\t// out\n    /* \"#utility.yul\":5614:5689   */\ntag_36:\n    /* \"#utility.yul\":5657:5660   */\n  0x00\n    /* \"#utility.yul\":5678:5683   */\n  dup2\n    /* \"#utility.yul\":5671:5683   */\n  swap1\n  pop\n    /* \"#utility.yul\":5614:5689   */\n  swap2\n  swap1\n  pop\n  jump\t// out\n    /* \"#utility.yul\":5695:5964   */\ntag_37:\n    /* \"#utility.yul\":5805:5844   */\n  tag_111\n    /* \"#utility.yul\":5836:5843   */\n  dup4\n    /* \"#utility.yul\":5805:5844   */\n  tag_35\n  jump\t// in\ntag_111:\n    /* \"#utility.yul\":5866:5957   */\n  tag_112\n    /* \"#utility.yul\":5915:5956   */\n  tag_113\n    /* \"#utility.yul\":5939:5955   */\n  dup3\n    /* \"#utility.yul\":5915:5956   */\n  tag_36\n  jump\t// in\ntag_113:\n    /* \"#utility.yul\":5907:5913   */\n  dup5\n    /* \"#utility.yul\":5900:5904   */\n  dup5\n    /* \"#utility.yul\":5894:5905   */\n  sload\n    /* \"#utility.yul\":5866:5957   */\n  tag_32\n  jump\t// in\ntag_112:\n    /* \"#utility.yul\":5860:5864   */\n  dup3\n    /* \"#utility.yul\":5853:5958   */\n  sstore\n    /* \"#utility.yul\":5771:5964   */\n  pop\n    /* \"#utility.yul\":5695:5964   */\n  pop\n  pop\n  pop\n  jump\t// out\n    /* \"#utility.yul\":5970:6043   */\ntag_38:\n    /* \"#utility.yul\":6015:6018   */\n  0x00\n    /* \"#utility.yul\":5970:6043   */\n  swap1\n  jump\t// out\n    /* \"#utility.yul\":6049:6238   */\ntag_39:\n    /* \"#utility.yul\":6126:6158   */\n  tag_116\n  tag_38\n  jump\t// in\ntag_116:\n    /* \"#utility.yul\":6167:6232   */\n  tag_117\n    /* \"#utility.yul\":6225:6231   */\n  dup2\n    /* \"#utility.yul\":6217:6223   */\n  dup5\n    /* \"#utility.yul\":6211:6215   */\n  dup5\n    /* \"#utility.yul\":6167:6232   */\n  tag_37\n  jump\t// in\ntag_117:\n    /* \"#utility.yul\":6102:6238   */\n  pop\n    /* \"#utility.yul\":6049:6238   */\n  pop\n  pop\n  jump\t// out\n    /* \"#utility.yul\":6244:6430   */\ntag_40:\n    /* \"#utility.yul\":6304:6424   */\ntag_119:\n    /* \"#utility.yul\":6321:6324   */\n  dup2\n    /* \"#utility.yul\":6314:6319   */\n  dup2\n    /* \"#utility.yul\":6311:6325   */\n  lt\n    /* \"#utility.yul\":6304:6424   */\n  iszero\n  tag_121\n  jumpi\n    /* \"#utility.yul\":6375:6414   */\n  tag_122\n    /* \"#utility.yul\":6412:6413   */\n  0x00\n    /* \"#utility.yul\":6405:6410   */\n  dup3\n    /* \"#utility.yul\":6375:6414   */\n  tag_39\n  jump\t// in\ntag_122:\n    /* \"#utility.yul\":6348:6349   */\n  0x01\n    /* \"#utility.yul\":6341:6346   */\n  dup2\n    /* \"#utility.yul\":6337:6350   */\n  add\n    /* \"#utility.yul\":6328:6350   */\n  swap1\n  pop\n    /* \"#utility.yul\":6304:6424   */\n  jump(tag_119)\ntag_121:\n    /* \"#utility.yul\":6244:6430   */\n  pop\n  pop\n  jump\t// out\n    /* \"#utility.yul\":6436:6979   */\ntag_41:\n    /* \"#utility.yul\":6537:6539   */\n  0x1f\n    /* \"#utility.yul\":6532:6535   */\n  dup3\n    /* \"#utility.yul\":6529:6540   */\n  gt\n    /* \"#utility.yul\":6526:6972   */\n  iszero\n  tag_124\n  jumpi\n    /* \"#utility.yul\":6571:6609   */\n  tag_125\n    /* \"#utility.yul\":6603:6608   */\n  dup2\n    /* \"#utility.yul\":6571:6609   */\n  tag_29\n  jump\t// in\ntag_125:\n    /* \"#utility.yul\":6655:6684   */\n  tag_126\n    /* \"#utility.yul\":6673:6683   */\n  dup5\n    /* \"#utility.yul\":6655:6684   */\n  tag_30\n  jump\t// in\ntag_126:\n    /* \"#utility.yul\":6645:6653   */\n  dup2\n    /* \"#utility.yul\":6641:6685   */\n  add\n    /* \"#utility.yul\":6838:6840   */\n  0x20\n    /* \"#utility.yul\":6826:6836   */\n  dup6\n    /* \"#utility.yul\":6823:6841   */\n  lt\n    /* \"#utility.yul\":6820:6869   */\n  iszero\n  tag_127\n  jumpi\n    /* \"#utility.yul\":6859:6867   */\n  dup2\n    /* \"#utility.yul\":6844:6867   */\n  swap1\n  pop\n    /* \"#utility.yul\":6820:6869   */\ntag_127:\n    /* \"#utility.yul\":6882:6962   */\n  tag_128\n    /* \"#utility.yul\":6938:6960   */\n  tag_129\n    /* \"#utility.yul\":6956:6959   */\n  dup6\n    /* \"#utility.yul\":6938:6960   */\n  tag_30\n  jump\t// in\ntag_129:\n    /* \"#utility.yul\":6928:6936   */\n  dup4\n    /* \"#utility.yul\":6924:6961   */\n  add\n    /* \"#utility.yul\":6911:6922   */\n  dup3\n    /* \"#utility.yul\":6882:6962   */\n  tag_40\n  jump\t// in\ntag_128:\n    /* \"#utility.yul\":6541:6972   */\n  pop\n  pop\n    /* \"#utility.yul\":6526:6972   */\ntag_124:\n    /* \"#utility.yul\":6436:6979   */\n  pop\n  pop\n  pop\n  jump\t// out\n    /* \"#utility.yul\":6985:7102   */\ntag_42:\n    /* \"#utility.yul\":7039:7047   */\n  0x00\n    /* \"#utility.yul\":7089:7094   */\n  dup3\n    /* \"#utility.yul\":7083:7087   */\n  dup3\n    /* \"#utility.yul\":7079:7095   */\n  shr\n    /* \"#utility.yul\":7058:7095   */\n  swap1\n  pop\n    /* \"#utility.yul\":6985:7102   */\n  swap3\n  swap2\n  pop\n  pop\n  jump\t// out\n    /* \"#utility.yul\":7108:7277   */\ntag_43:\n    /* \"#utility.yul\":7152:7158   */\n  0x00\n    /* \"#utility.yul\":7185:7236   */\n  tag_132\n    /* \"#utility.yul\":7233:7234   */\n  0x00\n    /* \"#utility.yul\":7229:7235   */\n  not\n    /* \"#utility.yul\":7221:7226   */\n  dup5\n    /* \"#utility.yul\":7218:7219   */\n  0x08\n    /* \"#utility.yul\":7214:7227   */\n  mul\n    /* \"#utility.yul\":7185:7236   */\n  tag_42\n  jump\t// in\ntag_132:\n    /* \"#utility.yul\":7181:7237   */\n  not\n    /* \"#utility.yul\":7266:7270   */\n  dup1\n    /* \"#utility.yul\":7260:7264   */\n  dup4\n    /* \"#utility.yul\":7256:7271   */\n  and\n    /* \"#utility.yul\":7246:7271   */\n  swap2\n  pop\n    /* \"#utility.yul\":7159:7277   */\n  pop\n    /* \"#utility.yul\":7108:7277   */\n  swap3\n  swap2\n  pop\n  pop\n  jump\t// out\n    /* \"#utility.yul\":7282:7577   */\ntag_44:\n    /* \"#utility.yul\":7358:7362   */\n  0x00\n    /* \"#utility.yul\":7504:7533   */\n  tag_134\n    /* \"#utility.yul\":7529:7532   */\n  dup4\n    /* \"#utility.yul\":7523:7527   */\n  dup4\n    /* \"#utility.yul\":7504:7533   */\n  tag_43\n  jump\t// in\ntag_134:\n    /* \"#utility.yul\":7496:7533   */\n  swap2\n  pop\n    /* \"#utility.yul\":7566:7569   */\n  dup3\n    /* \"#utility.yul\":7563:7564   */\n  0x02\n    /* \"#utility.yul\":7559:7570   */\n  mul\n    /* \"#utility.yul\":7553:7557   */\n  dup3\n    /* \"#utility.yul\":7550:7571   */\n  or\n    /* \"#utility.yul\":7542:7571   */\n  swap1\n  pop\n    /* \"#utility.yul\":7282:7577   */\n  swap3\n  swap2\n  pop\n  pop\n  jump\t// out\n    /* \"#utility.yul\":7582:8977   */\ntag_7:\n    /* \"#utility.yul\":7699:7736   */\n  tag_136\n    /* \"#utility.yul\":7732:7735   */\n  dup3\n    /* \"#utility.yul\":7699:7736   */\n  tag_26\n  jump\t// in\ntag_136:\n    /* \"#utility.yul\":7801:7819   */\n  0xffffffffffffffff\n    /* \"#utility.yul\":7793:7799   */\n  dup2\n    /* \"#utility.yul\":7790:7820   */\n  gt\n    /* \"#utility.yul\":7787:7843   */\n  iszero\n  tag_137\n  jumpi\n    /* \"#utility.yul\":7823:7841   */\n  tag_138\n  tag_16\n  jump\t// in\ntag_138:\n    /* \"#utility.yul\":7787:7843   */\ntag_137:\n    /* \"#utility.yul\":7867:7905   */\n  tag_139\n    /* \"#utility.yul\":7899:7903   */\n  dup3\n    /* \"#utility.yul\":7893:7904   */\n  sload\n    /* \"#utility.yul\":7867:7905   */\n  tag_28\n  jump\t// in\ntag_139:\n    /* \"#utility.yul\":7952:8019   */\n  tag_140\n    /* \"#utility.yul\":8012:8018   */\n  dup3\n    /* \"#utility.yul\":8004:8010   */\n  dup3\n    /* \"#utility.yul\":7998:8002   */\n  dup6\n    /* \"#utility.yul\":7952:8019   */\n  tag_41\n  jump\t// in\ntag_140:\n    /* \"#utility.yul\":8046:8047   */\n  0x00\n    /* \"#utility.yul\":8070:8074   */\n  0x20\n    /* \"#utility.yul\":8057:8074   */\n  swap1\n  pop\n    /* \"#utility.yul\":8102:8104   */\n  0x1f\n    /* \"#utility.yul\":8094:8100   */\n  dup4\n    /* \"#utility.yul\":8091:8105   */\n  gt\n    /* \"#utility.yul\":8119:8120   */\n  0x01\n    /* \"#utility.yul\":8114:8732   */\n  dup2\n  eq\n  tag_142\n  jumpi\n    /* \"#utility.yul\":8776:8777   */\n  0x00\n    /* \"#utility.yul\":8793:8799   */\n  dup5\n    /* \"#utility.yul\":8790:8867   */\n  iszero\n  tag_143\n  jumpi\n    /* \"#utility.yul\":8842:8851   */\n  dup3\n    /* \"#utility.yul\":8837:8840   */\n  dup8\n    /* \"#utility.yul\":8833:8852   */\n  add\n    /* \"#utility.yul\":8827:8853   */\n  mload\n    /* \"#utility.yul\":8818:8853   */\n  swap1\n  pop\n    /* \"#utility.yul\":8790:8867   */\ntag_143:\n    /* \"#utility.yul\":8893:8960   */\n  tag_144\n    /* \"#utility.yul\":8953:8959   */\n  dup6\n    /* \"#utility.yul\":8946:8951   */\n  dup3\n    /* \"#utility.yul\":8893:8960   */\n  tag_44\n  jump\t// in\ntag_144:\n    /* \"#utility.yul\":8887:8891   */\n  dup7\n    /* \"#utility.yul\":8880:8961   */\n  sstore\n    /* \"#utility.yul\":8749:8971   */\n  pop\n    /* \"#utility.yul\":8084:8971   */\n  jump(tag_141)\n    /* \"#utility.yul\":8114:8732   */\ntag_142:\n    /* \"#utility.yul\":8166:8170   */\n  0x1f\n    /* \"#utility.yul\":8162:8171   */\n  not\n    /* \"#utility.yul\":8154:8160   */\n  dup5\n    /* \"#utility.yul\":8150:8172   */\n  and\n    /* \"#utility.yul\":8200:8237   */\n  tag_145\n    /* \"#utility.yul\":8232:8236   */\n  dup7\n    /* \"#utility.yul\":8200:8237   */\n  tag_29\n  jump\t// in\ntag_145:\n    /* \"#utility.yul\":8259:8260   */\n  0x00\n    /* \"#utility.yul\":8273:8481   */\ntag_146:\n    /* \"#utility.yul\":8287:8294   */\n  dup3\n    /* \"#utility.yul\":8284:8285   */\n  dup2\n    /* \"#utility.yul\":8281:8295   */\n  lt\n    /* \"#utility.yul\":8273:8481   */\n  iszero\n  tag_148\n  jumpi\n    /* \"#utility.yul\":8366:8375   */\n  dup5\n    /* \"#utility.yul\":8361:8364   */\n  dup10\n    /* \"#utility.yul\":8357:8376   */\n  add\n    /* \"#utility.yul\":8351:8377   */\n  mload\n    /* \"#utility.yul\":8343:8349   */\n  dup3\n    /* \"#utility.yul\":8336:8378   */\n  sstore\n    /* \"#utility.yul\":8417:8418   */\n  0x01\n    /* \"#utility.yul\":8409:8415   */\n  dup3\n    /* \"#utility.yul\":8405:8419   */\n  add\n    /* \"#utility.yul\":8395:8419   */\n  swap2\n  pop\n    /* \"#utility.yul\":8464:8466   */\n  0x20\n    /* \"#utility.yul\":8453:8462   */\n  dup6\n    /* \"#utility.yul\":8449:8467   */\n  add\n    /* \"#utility.yul\":8436:8467   */\n  swap5\n  pop\n    /* \"#utility.yul\":8310:8314   */\n  0x20\n    /* \"#utility.yul\":8307:8308   */\n  dup2\n    /* \"#utility.yul\":8303:8315   */\n  add\n    /* \"#utility.yul\":8298:8315   */\n  swap1\n  pop\n    /* \"#utility.yul\":8273:8481   */\n  jump(tag_146)\ntag_148:\n    /* \"#utility.yul\":8509:8515   */\n  dup7\n    /* \"#utility.yul\":8500:8507   */\n  dup4\n    /* \"#utility.yul\":8497:8516   */\n  lt\n    /* \"#utility.yul\":8494:8673   */\n  iszero\n  tag_149\n  jumpi\n    /* \"#utility.yul\":8567:8576   */\n  dup5\n    /* \"#utility.yul\":8562:8565   */\n  dup10\n    /* \"#utility.yul\":8558:8577   */\n  add\n    /* \"#utility.yul\":8552:8578   */\n  mload\n    /* \"#utility.yul\":8610:8658   */\n  tag_150\n    /* \"#utility.yul\":8652:8656   */\n  0x1f\n    /* \"#utility.yul\":8644:8650   */\n  dup10\n    /* \"#utility.yul\":8640:8657   */\n  and\n    /* \"#utility.yul\":8629:8638   */\n  dup3\n    /* \"#utility.yul\":8610:8658   */\n  tag_43\n  jump\t// in\ntag_150:\n    /* \"#utility.yul\":8602:8608   */\n  dup4\n    /* \"#utility.yul\":8595:8659   */\n  sstore\n    /* \"#utility.yul\":8517:8673   */\n  pop\n    /* \"#utility.yul\":8494:8673   */\ntag_149:\n    /* \"#utility.yul\":8719:8720   */\n  0x01\n    /* \"#utility.yul\":8715:8716   */\n  0x02\n    /* \"#utility.yul\":8707:8713   */\n  dup9\n    /* \"#utility.yul\":8703:8717   */\n  mul\n    /* \"#utility.yul\":8699:8721   */\n  add\n    /* \"#utility.yul\":8693:8697   */\n  dup9\n    /* \"#utility.yul\":8686:8722   */\n  sstore\n    /* \"#utility.yul\":8121:8732   */\n  pop\n  pop\n  pop\n    /* \"#utility.yul\":8084:8971   */\ntag_141:\n  pop\n    /* \"#utility.yul\":7674:8977   */\n  pop\n  pop\n  pop\n    /* \"#utility.yul\":7582:8977   */\n  pop\n  pop\n  jump\t// out\n    /* \"solidity/task2/ERC20task.sol\":58:2455  contract ERC20Test {... */\ntag_9:\n  dataSize(sub_0)\n  dup1\n  dataOffset(sub_0)\n  0x00\n  codecopy\n  0x00\n  return\nstop\n\nsub_0: assembly {\n        /* \"solidity/task2/ERC20task.sol\":58:2455  contract ERC20Test {... */\n      mstore(0x40, 0x80)\n      callvalue\n      dup1\n      iszero\n      tag_1\n      jumpi\n      0x00\n      dup1\n      revert\n    tag_1:\n      pop\n      jumpi(tag_2, lt(calldatasize, 0x04))\n      shr(0xe0, calldataload(0x00))\n      dup1\n      0x527d765f\n      gt\n      tag_13\n      jumpi\n      dup1\n      0x527d765f\n      eq\n      tag_8\n      jumpi\n      dup1\n      0x68116177\n      eq\n      tag_9\n      jumpi\n      dup1\n      0x8da5cb5b\n      eq\n      tag_10\n      jumpi\n      dup1\n      0x95d89b41\n      eq\n      tag_11\n      jumpi\n      dup1\n      0xfbe76c4d\n      eq\n      tag_12\n      jumpi\n      jump(tag_2)\n    tag_13:\n      dup1\n      0x06fdde03\n      eq\n      tag_3\n      jumpi\n      dup1\n      0x18160ddd\n      eq\n      tag_4\n      jumpi\n      dup1\n      0x313ce567\n      eq\n      tag_5\n      jumpi\n      dup1\n      0x3d2bc6de\n      eq\n      tag_6\n      jumpi\n      dup1\n      0x40c10f19\n      eq\n      tag_7\n      jumpi\n    tag_2:\n      0x00\n      dup1\n      revert\n        /* \"solidity/task2/ERC20task.sol\":84:102  string public name */\n    tag_3:\n      tag_14\n      tag_15\n      jump\t// in\n    tag_14:\n      mload(0x40)\n      tag_16\n      swap2\n      swap1\n      tag_17\n      jump\t// in\n    tag_16:\n      mload(0x40)\n      dup1\n      swap2\n      sub\n      swap1\n      return\n        /* \"solidity/task2/ERC20task.sol\":164:190  uint256 public totalSupply */\n    tag_4:\n      tag_18\n      tag_19\n      jump\t// in\n    tag_18:\n      mload(0x40)\n      tag_20\n      swap2\n      swap1\n      tag_21\n      jump\t// in\n    tag_20:\n      mload(0x40)\n      dup1\n      swap2\n      sub\n      swap1\n      return\n        /* \"solidity/task2/ERC20task.sol\":136:157  uint8 public decimals */\n    tag_5:\n      tag_22\n      tag_23\n      jump\t// in\n    tag_22:\n      mload(0x40)\n      tag_24\n      swap2\n      swap1\n      tag_25\n      jump\t// in\n    tag_24:\n      mload(0x40)\n      dup1\n      swap2\n      sub\n      swap1\n      return\n        /* \"solidity/task2/ERC20task.sol\":849:1207  function trans(address to, uint256 amount) public returns(bool){... */\n    tag_6:\n      tag_26\n      0x04\n      dup1\n      calldatasize\n      sub\n      dup2\n      add\n      swap1\n      tag_27\n      swap2\n      swap1\n      tag_28\n      jump\t// in\n    tag_27:\n      tag_29\n      jump\t// in\n    tag_26:\n      mload(0x40)\n      tag_30\n      swap2\n      swap1\n      tag_31\n      jump\t// in\n    tag_30:\n      mload(0x40)\n      dup1\n      swap2\n      sub\n      swap1\n      return\n        /* \"solidity/task2/ERC20task.sol\":2238:2452  function mint(address to, uint amount) public Onlyowner{... */\n    tag_7:\n      tag_32\n      0x04\n      dup1\n      calldatasize\n      sub\n      dup2\n      add\n      swap1\n      tag_33\n      swap2\n      swap1\n      tag_28\n      jump\t// in\n    tag_33:\n      tag_34\n      jump\t// in\n    tag_32:\n      stop\n        /* \"solidity/task2/ERC20task.sol\":1227:1497  function appro(address spender, uint256 amount) public returns(bool){... */\n    tag_8:\n      tag_35\n      0x04\n      dup1\n      calldatasize\n      sub\n      dup2\n      add\n      swap1\n      tag_36\n      swap2\n      swap1\n      tag_28\n      jump\t// in\n    tag_36:\n      tag_37\n      jump\t// in\n    tag_35:\n      mload(0x40)\n      tag_38\n      swap2\n      swap1\n      tag_31\n      jump\t// in\n    tag_38:\n      mload(0x40)\n      dup1\n      swap2\n      sub\n      swap1\n      return\n        /* \"solidity/task2/ERC20task.sol\":726:828  function getbalance(address addr) public view returns(uint256){... */\n    tag_9:\n      tag_39\n      0x04\n      dup1\n      calldatasize\n      sub\n      dup2\n      add\n      swap1\n      tag_40\n      swap2\n      swap1\n      tag_41\n      jump\t// in\n    tag_40:\n      tag_42\n      jump\t// in\n    tag_39:\n      mload(0x40)\n      tag_43\n      swap2\n      swap1\n      tag_21\n      jump\t// in\n    tag_43:\n      mload(0x40)\n      dup1\n      swap2\n      sub\n      swap1\n      return\n        /* \"solidity/task2/ERC20task.sol\":197:230  address public owner = msg.sender */\n    tag_10:\n      tag_44\n      tag_45\n      jump\t// in\n    tag_44:\n      mload(0x40)\n      tag_46\n      swap2\n      swap1\n      tag_47\n      jump\t// in\n    tag_46:\n      mload(0x40)\n      dup1\n      swap2\n      sub\n      swap1\n      return\n        /* \"solidity/task2/ERC20task.sol\":109:129  string public symbol */\n    tag_11:\n      tag_48\n      tag_49\n      jump\t// in\n    tag_48:\n      mload(0x40)\n      tag_50\n      swap2\n      swap1\n      tag_17\n      jump\t// in\n    tag_50:\n      mload(0x40)\n      dup1\n      swap2\n      sub\n      swap1\n      return\n        /* \"solidity/task2/ERC20task.sol\":1523:2089  function transfrom(address from, address to, uint256 amount) public returns(bool){... */\n    tag_12:\n      tag_51\n      0x04\n      dup1\n      calldatasize\n      sub\n      dup2\n      add\n      swap1\n      tag_52\n      swap2\n      swap1\n      tag_53\n      jump\t// in\n    tag_52:\n      tag_54\n      jump\t// in\n    tag_51:\n      mload(0x40)\n      tag_55\n      swap2\n      swap1\n      tag_31\n      jump\t// in\n    tag_55:\n      mload(0x40)\n      dup1\n      swap2\n      sub\n      swap1\n      return\n        /* \"solidity/task2/ERC20task.sol\":84:102  string public name */\n    tag_15:\n      0x00\n      dup1\n      sload\n      tag_56\n      swap1\n      tag_57\n      jump\t// in\n    tag_56:\n      dup1\n      0x1f\n      add\n      0x20\n      dup1\n      swap2\n      div\n      mul\n      0x20\n      add\n      mload(0x40)\n      swap1\n      dup2\n      add\n      0x40\n      mstore\n      dup1\n      swap3\n      swap2\n      swap1\n      dup2\n      dup2\n      mstore\n      0x20\n      add\n      dup3\n      dup1\n      sload\n      tag_58\n      swap1\n      tag_57\n      jump\t// in\n    tag_58:\n      dup1\n      iszero\n      tag_59\n      jumpi\n      dup1\n      0x1f\n      lt\n      tag_60\n      jumpi\n      0x0100\n      dup1\n      dup4\n      sload\n      div\n      mul\n      dup4\n      mstore\n      swap2\n      0x20\n      add\n      swap2\n      jump(tag_59)\n    tag_60:\n      dup3\n      add\n      swap2\n      swap1\n      0x00\n      mstore\n      keccak256(0x00, 0x20)\n      swap1\n    tag_61:\n      dup2\n      sload\n      dup2\n      mstore\n      swap1\n      0x01\n      add\n      swap1\n      0x20\n      add\n      dup1\n      dup4\n      gt\n      tag_61\n      jumpi\n      dup3\n      swap1\n      sub\n      0x1f\n      and\n      dup3\n      add\n      swap2\n    tag_59:\n      pop\n      pop\n      pop\n      pop\n      pop\n      dup2\n      jump\t// out\n        /* \"solidity/task2/ERC20task.sol\":164:190  uint256 public totalSupply */\n    tag_19:\n      sload(0x03)\n      dup2\n      jump\t// out\n        /* \"solidity/task2/ERC20task.sol\":136:157  uint8 public decimals */\n    tag_23:\n      0x02\n      0x00\n      swap1\n      sload\n      swap1\n      0x0100\n      exp\n      swap1\n      div\n      0xff\n      and\n      dup2\n      jump\t// out\n        /* \"solidity/task2/ERC20task.sol\":849:1207  function trans(address to, uint256 amount) public returns(bool){... */\n    tag_29:\n        /* \"solidity/task2/ERC20task.sol\":907:911  bool */\n      0x00\n        /* \"solidity/task2/ERC20task.sol\":945:946  0 */\n      dup1\n        /* \"solidity/task2/ERC20task.sol\":931:947  to != address(0) */\n      0xffffffffffffffffffffffffffffffffffffffff\n      and\n        /* \"solidity/task2/ERC20task.sol\":931:933  to */\n      dup4\n        /* \"solidity/task2/ERC20task.sol\":931:947  to != address(0) */\n      0xffffffffffffffffffffffffffffffffffffffff\n      and\n      sub\n        /* \"solidity/task2/ERC20task.sol\":923:970  require(to != address(0), \"to is zero address\") */\n      tag_63\n      jumpi\n      mload(0x40)\n      0x08c379a000000000000000000000000000000000000000000000000000000000\n      dup2\n      mstore\n      0x04\n      add\n      tag_64\n      swap1\n      tag_65\n      jump\t// in\n    tag_64:\n      mload(0x40)\n      dup1\n      swap2\n      sub\n      swap1\n      revert\n    tag_63:\n        /* \"solidity/task2/ERC20task.sol\":1013:1019  amount */\n      dup2\n        /* \"solidity/task2/ERC20task.sol\":989:997  balances */\n      0x05\n        /* \"solidity/task2/ERC20task.sol\":989:1009  balances[msg.sender] */\n      0x00\n        /* \"solidity/task2/ERC20task.sol\":998:1008  msg.sender */\n      caller\n        /* \"solidity/task2/ERC20task.sol\":989:1009  balances[msg.sender] */\n      0xffffffffffffffffffffffffffffffffffffffff\n      and\n      0xffffffffffffffffffffffffffffffffffffffff\n      and\n      dup2\n      mstore\n      0x20\n      add\n      swap1\n      dup2\n      mstore\n      0x20\n      add\n      0x00\n      keccak256\n      sload\n        /* \"solidity/task2/ERC20task.sol\":989:1019  balances[msg.sender] >= amount */\n      lt\n      iszero\n        /* \"solidity/task2/ERC20task.sol\":981:1054  require(balances[msg.sender] >= amount, \"left less than current balance\") */\n      tag_66\n      jumpi\n      mload(0x40)\n      0x08c379a000000000000000000000000000000000000000000000000000000000\n      dup2\n      mstore\n      0x04\n      add\n      tag_67\n      swap1\n      tag_68\n      jump\t// in\n    tag_67:\n      mload(0x40)\n      dup1\n      swap2\n      sub\n      swap1\n      revert\n    tag_66:\n        /* \"solidity/task2/ERC20task.sol\":1092:1094  to */\n      dup3\n        /* \"solidity/task2/ERC20task.sol\":1070:1103  STransfer(msg.sender, to, amount) */\n      0xffffffffffffffffffffffffffffffffffffffff\n      and\n        /* \"solidity/task2/ERC20task.sol\":1080:1090  msg.sender */\n      caller\n        /* \"solidity/task2/ERC20task.sol\":1070:1103  STransfer(msg.sender, to, amount) */\n      0xffffffffffffffffffffffffffffffffffffffff\n      and\n      0x11bed6238792339bbf31423e9e0c55016283657e2817f9dfe2cd8ad8661e72e9\n        /* \"solidity/task2/ERC20task.sol\":1096:1102  amount */\n      dup5\n        /* \"solidity/task2/ERC20task.sol\":1070:1103  STransfer(msg.sender, to, amount) */\n      mload(0x40)\n      tag_69\n      swap2\n      swap1\n      tag_21\n      jump\t// in\n    tag_69:\n      mload(0x40)\n      dup1\n      swap2\n      sub\n      swap1\n      log3\n        /* \"solidity/task2/ERC20task.sol\":1138:1144  amount */\n      dup2\n        /* \"solidity/task2/ERC20task.sol\":1114:1122  balances */\n      0x05\n        /* \"solidity/task2/ERC20task.sol\":1114:1134  balances[msg.sender] */\n      0x00\n        /* \"solidity/task2/ERC20task.sol\":1123:1133  msg.sender */\n      caller\n        /* \"solidity/task2/ERC20task.sol\":1114:1134  balances[msg.sender] */\n      0xffffffffffffffffffffffffffffffffffffffff\n      and\n      0xffffffffffffffffffffffffffffffffffffffff\n      and\n      dup2\n      mstore\n      0x20\n      add\n      swap1\n      dup2\n      mstore\n      0x20\n      add\n      0x00\n      keccak256\n      0x00\n        /* \"solidity/task2/ERC20task.sol\":1114:1144  balances[msg.sender] -= amount */\n      dup3\n      dup3\n      sload\n      tag_70\n      swap2\n      swap1\n      tag_71\n      jump\t// in\n    tag_70:\n      swap3\n      pop\n      pop\n      dup2\n      swap1\n      sstore\n      pop\n        /* \"solidity/task2/ERC20task.sol\":1171:1177  amount */\n      dup2\n        /* \"solidity/task2/ERC20task.sol\":1155:1163  balances */\n      0x05\n        /* \"solidity/task2/ERC20task.sol\":1155:1167  balances[to] */\n      0x00\n        /* \"solidity/task2/ERC20task.sol\":1164:1166  to */\n      dup6\n        /* \"solidity/task2/ERC20task.sol\":1155:1167  balances[to] */\n      0xffffffffffffffffffffffffffffffffffffffff\n      and\n      0xffffffffffffffffffffffffffffffffffffffff\n      and\n      dup2\n      mstore\n      0x20\n      add\n      swap1\n      dup2\n      mstore\n      0x20\n      add\n      0x00\n      keccak256\n      0x00\n        /* \"solidity/task2/ERC20task.sol\":1155:1177  balances[to] += amount */\n      dup3\n      dup3\n      sload\n      tag_72\n      swap2\n      swap1\n      tag_73\n      jump\t// in\n    tag_72:\n      swap3\n      pop\n      pop\n      dup2\n      swap1\n      sstore\n      pop\n        /* \"solidity/task2/ERC20task.sol\":1195:1199  true */\n      0x01\n        /* \"solidity/task2/ERC20task.sol\":1188:1199  return true */\n      swap1\n      pop\n        /* \"solidity/task2/ERC20task.sol\":849:1207  function trans(address to, uint256 amount) public returns(bool){... */\n      swap3\n      swap2\n      pop\n      pop\n      jump\t// out\n        /* \"solidity/task2/ERC20task.sol\":2238:2452  function mint(address to, uint amount) public Onlyowner{... */\n    tag_34:\n        /* \"solidity/task2/ERC20task.sol\":2146:2151  owner */\n      0x04\n      0x00\n      swap1\n      sload\n      swap1\n      0x0100\n      exp\n      swap1\n      div\n      0xffffffffffffffffffffffffffffffffffffffff\n      and\n        /* \"solidity/task2/ERC20task.sol\":2132:2151  msg.sender == owner */\n      0xffffffffffffffffffffffffffffffffffffffff\n      and\n        /* \"solidity/task2/ERC20task.sol\":2132:2142  msg.sender */\n      caller\n        /* \"solidity/task2/ERC20task.sol\":2132:2151  msg.sender == owner */\n      0xffffffffffffffffffffffffffffffffffffffff\n      and\n      eq\n        /* \"solidity/task2/ERC20task.sol\":2124:2177  require(msg.sender == owner, \"NOT is contract owner\") */\n      tag_75\n      jumpi\n      mload(0x40)\n      0x08c379a000000000000000000000000000000000000000000000000000000000\n      dup2\n      mstore\n      0x04\n      add\n      tag_76\n      swap1\n      tag_77\n      jump\t// in\n    tag_76:\n      mload(0x40)\n      dup1\n      swap2\n      sub\n      swap1\n      revert\n    tag_75:\n        /* \"solidity/task2/ERC20task.sol\":2312:2314  to */\n      dup2\n        /* \"solidity/task2/ERC20task.sol\":2304:2309  owner */\n      0x04\n      0x00\n        /* \"solidity/task2/ERC20task.sol\":2304:2314  owner = to */\n      0x0100\n      exp\n      dup2\n      sload\n      dup2\n      0xffffffffffffffffffffffffffffffffffffffff\n      mul\n      not\n      and\n      swap1\n      dup4\n      0xffffffffffffffffffffffffffffffffffffffff\n      and\n      mul\n      or\n      swap1\n      sstore\n      pop\n        /* \"solidity/task2/ERC20task.sol\":2340:2346  amount */\n      dup1\n        /* \"solidity/task2/ERC20task.sol\":2325:2336  totalSupply */\n      0x03\n      0x00\n        /* \"solidity/task2/ERC20task.sol\":2325:2346  totalSupply += amount */\n      dup3\n      dup3\n      sload\n      tag_79\n      swap2\n      swap1\n      tag_73\n      jump\t// in\n    tag_79:\n      swap3\n      pop\n      pop\n      dup2\n      swap1\n      sstore\n      pop\n        /* \"solidity/task2/ERC20task.sol\":2381:2387  amount */\n      dup1\n        /* \"solidity/task2/ERC20task.sol\":2357:2365  balances */\n      0x05\n        /* \"solidity/task2/ERC20task.sol\":2357:2377  balances[msg.sender] */\n      0x00\n        /* \"solidity/task2/ERC20task.sol\":2366:2376  msg.sender */\n      caller\n        /* \"solidity/task2/ERC20task.sol\":2357:2377  balances[msg.sender] */\n      0xffffffffffffffffffffffffffffffffffffffff\n      and\n      0xffffffffffffffffffffffffffffffffffffffff\n      and\n      dup2\n      mstore\n      0x20\n      add\n      swap1\n      dup2\n      mstore\n      0x20\n      add\n      0x00\n      keccak256\n      0x00\n        /* \"solidity/task2/ERC20task.sol\":2357:2387  balances[msg.sender] += amount */\n      dup3\n      dup3\n      sload\n      tag_80\n      swap2\n      swap1\n      tag_73\n      jump\t// in\n    tag_80:\n      swap3\n      pop\n      pop\n      dup2\n      swap1\n      sstore\n      pop\n        /* \"solidity/task2/ERC20task.sol\":2425:2435  msg.sender */\n      caller\n        /* \"solidity/task2/ERC20task.sol\":2403:2444  STransfer(address(0), msg.sender, amount) */\n      0xffffffffffffffffffffffffffffffffffffffff\n      and\n        /* \"solidity/task2/ERC20task.sol\":2421:2422  0 */\n      0x00\n        /* \"solidity/task2/ERC20task.sol\":2403:2444  STransfer(address(0), msg.sender, amount) */\n      0xffffffffffffffffffffffffffffffffffffffff\n      and\n      0x11bed6238792339bbf31423e9e0c55016283657e2817f9dfe2cd8ad8661e72e9\n        /* \"solidity/task2/ERC20task.sol\":2437:2443  amount */\n      dup4\n        /* \"solidity/task2/ERC20task.sol\":2403:2444  STransfer(address(0), msg.sender, amount) */\n      mload(0x40)\n      tag_81\n      swap2\n      swap1\n      tag_21\n      jump\t// in\n    tag_81:\n      mload(0x40)\n      dup1\n      swap2\n      sub\n      swap1\n      log3\n        /* \"solidity/task2/ERC20task.sol\":2238:2452  function mint(address to, uint amount) public Onlyowner{... */\n      pop\n      pop\n      jump\t// out\n        /* \"solidity/task2/ERC20task.sol\":1227:1497  function appro(address spender, uint256 amount) public returns(bool){... */\n    tag_37:\n        /* \"solidity/task2/ERC20task.sol\":1290:1294  bool */\n      0x00\n        /* \"solidity/task2/ERC20task.sol\":1333:1334  0 */\n      dup1\n        /* \"solidity/task2/ERC20task.sol\":1314:1335  spender != address(0) */\n      0xffffffffffffffffffffffffffffffffffffffff\n      and\n        /* \"solidity/task2/ERC20task.sol\":1314:1321  spender */\n      dup4\n        /* \"solidity/task2/ERC20task.sol\":1314:1335  spender != address(0) */\n      0xffffffffffffffffffffffffffffffffffffffff\n      and\n      sub\n        /* \"solidity/task2/ERC20task.sol\":1306:1363  require(spender != address(0), \"spender is zero address\") */\n      tag_83\n      jumpi\n      mload(0x40)\n      0x08c379a000000000000000000000000000000000000000000000000000000000\n      dup2\n      mstore\n      0x04\n      add\n      tag_84\n      swap1\n      tag_85\n      jump\t// in\n    tag_84:\n      mload(0x40)\n      dup1\n      swap2\n      sub\n      swap1\n      revert\n    tag_83:\n        /* \"solidity/task2/ERC20task.sol\":1401:1408  spender */\n      dup3\n        /* \"solidity/task2/ERC20task.sol\":1379:1417  SApproval(msg.sender, spender, amount) */\n      0xffffffffffffffffffffffffffffffffffffffff\n      and\n        /* \"solidity/task2/ERC20task.sol\":1389:1399  msg.sender */\n      caller\n        /* \"solidity/task2/ERC20task.sol\":1379:1417  SApproval(msg.sender, spender, amount) */\n      0xffffffffffffffffffffffffffffffffffffffff\n      and\n      0x57a00d724bba41b4fa72a808967c8e461f721d919d08851c5feb997352e20f99\n        /* \"solidity/task2/ERC20task.sol\":1410:1416  amount */\n      dup5\n        /* \"solidity/task2/ERC20task.sol\":1379:1417  SApproval(msg.sender, spender, amount) */\n      mload(0x40)\n      tag_86\n      swap2\n      swap1\n      tag_21\n      jump\t// in\n    tag_86:\n      mload(0x40)\n      dup1\n      swap2\n      sub\n      swap1\n      log3\n        /* \"solidity/task2/ERC20task.sol\":1461:1467  amount */\n      dup2\n        /* \"solidity/task2/ERC20task.sol\":1428:1437  allowance */\n      0x06\n        /* \"solidity/task2/ERC20task.sol\":1428:1449  allowance[msg.sender] */\n      0x00\n        /* \"solidity/task2/ERC20task.sol\":1438:1448  msg.sender */\n      caller\n        /* \"solidity/task2/ERC20task.sol\":1428:1449  allowance[msg.sender] */\n      0xffffffffffffffffffffffffffffffffffffffff\n      and\n      0xffffffffffffffffffffffffffffffffffffffff\n      and\n      dup2\n      mstore\n      0x20\n      add\n      swap1\n      dup2\n      mstore\n      0x20\n      add\n      0x00\n      keccak256\n        /* \"solidity/task2/ERC20task.sol\":1428:1458  allowance[msg.sender][spender] */\n      0x00\n        /* \"solidity/task2/ERC20task.sol\":1450:1457  spender */\n      dup6\n        /* \"solidity/task2/ERC20task.sol\":1428:1458  allowance[msg.sender][spender] */\n      0xffffffffffffffffffffffffffffffffffffffff\n      and\n      0xffffffffffffffffffffffffffffffffffffffff\n      and\n      dup2\n      mstore\n      0x20\n      add\n      swap1\n      dup2\n      mstore\n      0x20\n      add\n      0x00\n      keccak256\n        /* \"solidity/task2/ERC20task.sol\":1428:1467  allowance[msg.sender][spender] = amount */\n      dup2\n      swap1\n      sstore\n      pop\n        /* \"solidity/task2/ERC20task.sol\":1485:1489  true */\n      0x01\n        /* \"solidity/task2/ERC20task.sol\":1478:1489  return true */\n      swap1\n      pop\n        /* \"solidity/task2/ERC20task.sol\":1227:1497  function appro(address spender, uint256 amount) public returns(bool){... */\n      swap3\n      swap2\n      pop\n      pop\n      jump\t// out\n        /* \"solidity/task2/ERC20task.sol\":726:828  function getbalance(address addr) public view returns(uint256){... */\n    tag_42:\n        /* \"solidity/task2/ERC20task.sol\":780:787  uint256 */\n      0x00\n        /* \"solidity/task2/ERC20task.sol\":806:814  balances */\n      0x05\n        /* \"solidity/task2/ERC20task.sol\":806:820  balances[addr] */\n      0x00\n        /* \"solidity/task2/ERC20task.sol\":815:819  addr */\n      dup4\n        /* \"solidity/task2/ERC20task.sol\":806:820  balances[addr] */\n      0xffffffffffffffffffffffffffffffffffffffff\n      and\n      0xffffffffffffffffffffffffffffffffffffffff\n      and\n      dup2\n      mstore\n      0x20\n      add\n      swap1\n      dup2\n      mstore\n      0x20\n      add\n      0x00\n      keccak256\n      sload\n        /* \"solidity/task2/ERC20task.sol\":799:820  return balances[addr] */\n      swap1\n      pop\n        /* \"solidity/task2/ERC20task.sol\":726:828  function getbalance(address addr) public view returns(uint256){... */\n      swap2\n      swap1\n      pop\n      jump\t// out\n        /* \"solidity/task2/ERC20task.sol\":197:230  address public owner = msg.sender */\n    tag_45:\n      0x04\n      0x00\n      swap1\n      sload\n      swap1\n      0x0100\n      exp\n      swap1\n      div\n      0xffffffffffffffffffffffffffffffffffffffff\n      and\n      dup2\n      jump\t// out\n        /* \"solidity/task2/ERC20task.sol\":109:129  string public symbol */\n    tag_49:\n      0x01\n      dup1\n      sload\n      tag_88\n      swap1\n      tag_57\n      jump\t// in\n    tag_88:\n      dup1\n      0x1f\n      add\n      0x20\n      dup1\n      swap2\n      div\n      mul\n      0x20\n      add\n      mload(0x40)\n      swap1\n      dup2\n      add\n      0x40\n      mstore\n      dup1\n      swap3\n      swap2\n      swap1\n      dup2\n      dup2\n      mstore\n      0x20\n      add\n      dup3\n      dup1\n      sload\n      tag_89\n      swap1\n      tag_57\n      jump\t// in\n    tag_89:\n      dup1\n      iszero\n      tag_90\n      jumpi\n      dup1\n      0x1f\n      lt\n      tag_91\n      jumpi\n      0x0100\n      dup1\n      dup4\n      sload\n      div\n      mul\n      dup4\n      mstore\n      swap2\n      0x20\n      add\n      swap2\n      jump(tag_90)\n    tag_91:\n      dup3\n      add\n      swap2\n      swap1\n      0x00\n      mstore\n      keccak256(0x00, 0x20)\n      swap1\n    tag_92:\n      dup2\n      sload\n      dup2\n      mstore\n      swap1\n      0x01\n      add\n      swap1\n      0x20\n      add\n      dup1\n      dup4\n      gt\n      tag_92\n      jumpi\n      dup3\n      swap1\n      sub\n      0x1f\n      and\n      dup3\n      add\n      swap2\n    tag_90:\n      pop\n      pop\n      pop\n      pop\n      pop\n      dup2\n      jump\t// out\n        /* \"solidity/task2/ERC20task.sol\":1523:2089  function transfrom(address from, address to, uint256 amount) public returns(bool){... */\n    tag_54:\n        /* \"solidity/task2/ERC20task.sol\":1599:1603  bool */\n      0x00\n        /* \"solidity/task2/ERC20task.sol\":1639:1640  0 */\n      dup1\n        /* \"solidity/task2/ERC20task.sol\":1623:1641  from != address(0) */\n      0xffffffffffffffffffffffffffffffffffffffff\n      and\n        /* \"solidity/task2/ERC20task.sol\":1623:1627  from */\n      dup5\n        /* \"solidity/task2/ERC20task.sol\":1623:1641  from != address(0) */\n      0xffffffffffffffffffffffffffffffffffffffff\n      and\n      sub\n        /* \"solidity/task2/ERC20task.sol\":1615:1666  require(from != address(0), \"from is zero address\") */\n      tag_94\n      jumpi\n      mload(0x40)\n      0x08c379a000000000000000000000000000000000000000000000000000000000\n      dup2\n      mstore\n      0x04\n      add\n      tag_95\n      swap1\n      tag_96\n      jump\t// in\n    tag_95:\n      mload(0x40)\n      dup1\n      swap2\n      sub\n      swap1\n      revert\n    tag_94:\n        /* \"solidity/task2/ERC20task.sol\":1699:1700  0 */\n      0x00\n        /* \"solidity/task2/ERC20task.sol\":1685:1701  to != address(0) */\n      0xffffffffffffffffffffffffffffffffffffffff\n      and\n        /* \"solidity/task2/ERC20task.sol\":1685:1687  to */\n      dup4\n        /* \"solidity/task2/ERC20task.sol\":1685:1701  to != address(0) */\n      0xffffffffffffffffffffffffffffffffffffffff\n      and\n      sub\n        /* \"solidity/task2/ERC20task.sol\":1677:1724  require(to != address(0), \"to is zero address\") */\n      tag_97\n      jumpi\n      mload(0x40)\n      0x08c379a000000000000000000000000000000000000000000000000000000000\n      dup2\n      mstore\n      0x04\n      add\n      tag_98\n      swap1\n      tag_65\n      jump\t// in\n    tag_98:\n      mload(0x40)\n      dup1\n      swap2\n      sub\n      swap1\n      revert\n    tag_97:\n        /* \"solidity/task2/ERC20task.sol\":1761:1767  amount */\n      dup2\n        /* \"solidity/task2/ERC20task.sol\":1743:1751  balances */\n      0x05\n        /* \"solidity/task2/ERC20task.sol\":1743:1757  balances[from] */\n      0x00\n        /* \"solidity/task2/ERC20task.sol\":1752:1756  from */\n      dup7\n        /* \"solidity/task2/ERC20task.sol\":1743:1757  balances[from] */\n      0xffffffffffffffffffffffffffffffffffffffff\n      and\n      0xffffffffffffffffffffffffffffffffffffffff\n      and\n      dup2\n      mstore\n      0x20\n      add\n      swap1\n      dup2\n      mstore\n      0x20\n      add\n      0x00\n      keccak256\n      sload\n        /* \"solidity/task2/ERC20task.sol\":1743:1767  balances[from] >= amount */\n      lt\n      iszero\n        /* \"solidity/task2/ERC20task.sol\":1735:1802  require(balances[from] >= amount, \"left less than current balance\") */\n      tag_99\n      jumpi\n      mload(0x40)\n      0x08c379a000000000000000000000000000000000000000000000000000000000\n      dup2\n      mstore\n      0x04\n      add\n      tag_100\n      swap1\n      tag_68\n      jump\t// in\n    tag_100:\n      mload(0x40)\n      dup1\n      swap2\n      sub\n      swap1\n      revert\n    tag_99:\n        /* \"solidity/task2/ERC20task.sol\":1852:1858  amount */\n      dup2\n        /* \"solidity/task2/ERC20task.sol\":1821:1830  allowance */\n      0x06\n        /* \"solidity/task2/ERC20task.sol\":1821:1842  allowance[msg.sender] */\n      0x00\n        /* \"solidity/task2/ERC20task.sol\":1831:1841  msg.sender */\n      caller\n        /* \"solidity/task2/ERC20task.sol\":1821:1842  allowance[msg.sender] */\n      0xffffffffffffffffffffffffffffffffffffffff\n      and\n      0xffffffffffffffffffffffffffffffffffffffff\n      and\n      dup2\n      mstore\n      0x20\n      add\n      swap1\n      dup2\n      mstore\n      0x20\n      add\n      0x00\n      keccak256\n        /* \"solidity/task2/ERC20task.sol\":1821:1848  allowance[msg.sender][from] */\n      0x00\n        /* \"solidity/task2/ERC20task.sol\":1843:1847  from */\n      dup7\n        /* \"solidity/task2/ERC20task.sol\":1821:1848  allowance[msg.sender][from] */\n      0xffffffffffffffffffffffffffffffffffffffff\n      and\n      0xffffffffffffffffffffffffffffffffffffffff\n      and\n      dup2\n      mstore\n      0x20\n      add\n      swap1\n      dup2\n      mstore\n      0x20\n      add\n      0x00\n      keccak256\n      sload\n        /* \"solidity/task2/ERC20task.sol\":1821:1858  allowance[msg.sender][from] >= amount */\n      lt\n      iszero\n        /* \"solidity/task2/ERC20task.sol\":1813:1898  require(allowance[msg.sender][from] >= amount, \"auth left less than current balance\") */\n      tag_101\n      jumpi\n      mload(0x40)\n      0x08c379a000000000000000000000000000000000000000000000000000000000\n      dup2\n      mstore\n      0x04\n      add\n      tag_102\n      swap1\n      tag_103\n      jump\t// in\n    tag_102:\n      mload(0x40)\n      dup1\n      swap2\n      sub\n      swap1\n      revert\n    tag_101:\n        /* \"solidity/task2/ERC20task.sol\":1930:1932  to */\n      dup3\n        /* \"solidity/task2/ERC20task.sol\":1914:1941  STransfer(from, to, amount) */\n      0xffffffffffffffffffffffffffffffffffffffff\n      and\n        /* \"solidity/task2/ERC20task.sol\":1924:1928  from */\n      dup5\n        /* \"solidity/task2/ERC20task.sol\":1914:1941  STransfer(from, to, amount) */\n      0xffffffffffffffffffffffffffffffffffffffff\n      and\n      0x11bed6238792339bbf31423e9e0c55016283657e2817f9dfe2cd8ad8661e72e9\n        /* \"solidity/task2/ERC20task.sol\":1934:1940  amount */\n      dup5\n        /* \"solidity/task2/ERC20task.sol\":1914:1941  STransfer(from, to, amount) */\n      mload(0x40)\n      tag_104\n      swap2\n      swap1\n      tag_21\n      jump\t// in\n    tag_104:\n      mload(0x40)\n      dup1\n      swap2\n      sub\n      swap1\n      log3\n        /* \"solidity/task2/ERC20task.sol\":1970:1976  amount */\n      dup2\n        /* \"solidity/task2/ERC20task.sol\":1952:1960  balances */\n      0x05\n        /* \"solidity/task2/ERC20task.sol\":1952:1966  balances[from] */\n      0x00\n        /* \"solidity/task2/ERC20task.sol\":1961:1965  from */\n      dup7\n        /* \"solidity/task2/ERC20task.sol\":1952:1966  balances[from] */\n      0xffffffffffffffffffffffffffffffffffffffff\n      and\n      0xffffffffffffffffffffffffffffffffffffffff\n      and\n      dup2\n      mstore\n      0x20\n      add\n      swap1\n      dup2\n      mstore\n      0x20\n      add\n      0x00\n      keccak256\n      0x00\n        /* \"solidity/task2/ERC20task.sol\":1952:1976  balances[from] -= amount */\n      dup3\n      dup3\n      sload\n      tag_105\n      swap2\n      swap1\n      tag_71\n      jump\t// in\n    tag_105:\n      swap3\n      pop\n      pop\n      dup2\n      swap1\n      sstore\n      pop\n        /* \"solidity/task2/ERC20task.sol\":2003:2009  amount */\n      dup2\n        /* \"solidity/task2/ERC20task.sol\":1987:1995  balances */\n      0x05\n        /* \"solidity/task2/ERC20task.sol\":1987:1999  balances[to] */\n      0x00\n        /* \"solidity/task2/ERC20task.sol\":1996:1998  to */\n      dup6\n        /* \"solidity/task2/ERC20task.sol\":1987:1999  balances[to] */\n      0xffffffffffffffffffffffffffffffffffffffff\n      and\n      0xffffffffffffffffffffffffffffffffffffffff\n      and\n      dup2\n      mstore\n      0x20\n      add\n      swap1\n      dup2\n      mstore\n      0x20\n      add\n      0x00\n      keccak256\n      0x00\n        /* \"solidity/task2/ERC20task.sol\":1987:2009  balances[to] += amount */\n      dup3\n      dup3\n      sload\n      tag_106\n      swap2\n      swap1\n      tag_73\n      jump\t// in\n    tag_106:\n      swap3\n      pop\n      pop\n      dup2\n      swap1\n      sstore\n      pop\n        /* \"solidity/task2/ERC20task.sol\":2051:2057  amount */\n      dup2\n        /* \"solidity/task2/ERC20task.sol\":2020:2029  allowance */\n      0x06\n        /* \"solidity/task2/ERC20task.sol\":2020:2041  allowance[msg.sender] */\n      0x00\n        /* \"solidity/task2/ERC20task.sol\":2030:2040  msg.sender */\n      caller\n        /* \"solidity/task2/ERC20task.sol\":2020:2041  allowance[msg.sender] */\n      0xffffffffffffffffffffffffffffffffffffffff\n      and\n      0xffffffffffffffffffffffffffffffffffffffff\n      and\n      dup2\n      mstore\n      0x20\n      add\n      swap1\n      dup2\n      mstore\n      0x20\n      add\n      0x00\n      keccak256\n        /* \"solidity/task2/ERC20task.sol\":2020:2047  allowance[msg.sender][from] */\n      0x00\n        /* \"solidity/task2/ERC20task.sol\":2042:2046  from */\n      dup7\n        /* \"solidity/task2/ERC20task.sol\":2020:2047  allowance[msg.sender][from] */\n      0xffffffffffffffffffffffffffffffffffffffff\n      and\n      0xffffffffffffffffffffffffffffffffffffffff\n      and\n      dup2\n      mstore\n      0x20\n      add\n      swap1\n      dup2\n      mstore\n      0x20\n      add\n      0x00\n      keccak256\n      0x00\n        /* \"solidity/task2/ERC20task.sol\":2020:2057  allowance[msg.sender][from] -= amount */\n      dup3\n      dup3\n      sload\n      tag_107\n      swap2\n      swap1\n      tag_71\n      jump\t// in\n    tag_107:\n      swap3\n      pop\n      pop\n      dup2\n      swap1\n      sstore\n      pop\n        /* \"solidity/task2/ERC20task.sol\":2077:2081  true */\n      0x01\n        /* \"solidity/task2/ERC20task.sol\":2070:2081  return true */\n      swap1\n      pop\n        /* \"solidity/task2/ERC20task.sol\":1523:2089  function transfrom(address from, address to, uint256 amount) public returns(bool){... */\n      swap4\n      swap3\n      pop\n      pop\n      pop\n      jump\t// out\n        /* \"#utility.yul\":7:106   */\n    tag_108:\n        /* \"#utility.yul\":59:65   */\n      0x00\n        /* \"#utility.yul\":93:98   */\n      dup2\n        /* \"#utility.yul\":87:99   */\n      mload\n        /* \"#utility.yul\":77:99   */\n      swap1\n      pop\n        /* \"#utility.yul\":7:106   */\n      swap2\n      swap1\n      pop\n      jump\t// out\n        /* \"#utility.yul\":112:281   */\n    tag_109:\n        /* \"#utility.yul\":196:207   */\n      0x00\n        /* \"#utility.yul\":230:236   */\n      dup3\n        /* \"#utility.yul\":225:228   */\n      dup3\n        /* \"#utility.yul\":218:237   */\n      mstore\n        /* \"#utility.yul\":270:274   */\n      0x20\n        /* \"#utility.yul\":265:268   */\n      dup3\n        /* \"#utility.yul\":261:275   */\n      add\n        /* \"#utility.yul\":246:275   */\n      swap1\n      pop\n        /* \"#utility.yul\":112:281   */\n      swap3\n      swap2\n      pop\n      pop\n      jump\t// out\n        /* \"#utility.yul\":287:426   */\n    tag_110:\n        /* \"#utility.yul\":376:382   */\n      dup3\n        /* \"#utility.yul\":371:374   */\n      dup2\n        /* \"#utility.yul\":366:369   */\n      dup4\n        /* \"#utility.yul\":360:383   */\n      mcopy\n        /* \"#utility.yul\":417:418   */\n      0x00\n        /* \"#utility.yul\":408:414   */\n      dup4\n        /* \"#utility.yul\":403:406   */\n      dup4\n        /* \"#utility.yul\":399:415   */\n      add\n        /* \"#utility.yul\":392:419   */\n      mstore\n        /* \"#utility.yul\":287:426   */\n      pop\n      pop\n      pop\n      jump\t// out\n        /* \"#utility.yul\":432:534   */\n    tag_111:\n        /* \"#utility.yul\":473:479   */\n      0x00\n        /* \"#utility.yul\":524:526   */\n      0x1f\n        /* \"#utility.yul\":520:527   */\n      not\n        /* \"#utility.yul\":515:517   */\n      0x1f\n        /* \"#utility.yul\":508:513   */\n      dup4\n        /* \"#utility.yul\":504:518   */\n      add\n        /* \"#utility.yul\":500:528   */\n      and\n        /* \"#utility.yul\":490:528   */\n      swap1\n      pop\n        /* \"#utility.yul\":432:534   */\n      swap2\n      swap1\n      pop\n      jump\t// out\n        /* \"#utility.yul\":540:917   */\n    tag_112:\n        /* \"#utility.yul\":628:631   */\n      0x00\n        /* \"#utility.yul\":656:695   */\n      tag_149\n        /* \"#utility.yul\":689:694   */\n      dup3\n        /* \"#utility.yul\":656:695   */\n      tag_108\n      jump\t// in\n    tag_149:\n        /* \"#utility.yul\":711:782   */\n      tag_150\n        /* \"#utility.yul\":775:781   */\n      dup2\n        /* \"#utility.yul\":770:773   */\n      dup6\n        /* \"#utility.yul\":711:782   */\n      tag_109\n      jump\t// in\n    tag_150:\n        /* \"#utility.yul\":704:782   */\n      swap4\n      pop\n        /* \"#utility.yul\":791:856   */\n      tag_151\n        /* \"#utility.yul\":849:855   */\n      dup2\n        /* \"#utility.yul\":844:847   */\n      dup6\n        /* \"#utility.yul\":837:841   */\n      0x20\n        /* \"#utility.yul\":830:835   */\n      dup7\n        /* \"#utility.yul\":826:842   */\n      add\n        /* \"#utility.yul\":791:856   */\n      tag_110\n      jump\t// in\n    tag_151:\n        /* \"#utility.yul\":881:910   */\n      tag_152\n        /* \"#utility.yul\":903:909   */\n      dup2\n        /* \"#utility.yul\":881:910   */\n      tag_111\n      jump\t// in\n    tag_152:\n        /* \"#utility.yul\":876:879   */\n      dup5\n        /* \"#utility.yul\":872:911   */\n      add\n        /* \"#utility.yul\":865:911   */\n      swap2\n      pop\n        /* \"#utility.yul\":632:917   */\n      pop\n        /* \"#utility.yul\":540:917   */\n      swap3\n      swap2\n      pop\n      pop\n      jump\t// out\n        /* \"#utility.yul\":923:1236   */\n    tag_17:\n        /* \"#utility.yul\":1036:1040   */\n      0x00\n        /* \"#utility.yul\":1074:1076   */\n      0x20\n        /* \"#utility.yul\":1063:1072   */\n      dup3\n        /* \"#utility.yul\":1059:1077   */\n      add\n        /* \"#utility.yul\":1051:1077   */\n      swap1\n      pop\n        /* \"#utility.yul\":1123:1132   */\n      dup2\n        /* \"#utility.yul\":1117:1121   */\n      dup2\n        /* \"#utility.yul\":1113:1133   */\n      sub\n        /* \"#utility.yul\":1109:1110   */\n      0x00\n        /* \"#utility.yul\":1098:1107   */\n      dup4\n        /* \"#utility.yul\":1094:1111   */\n      add\n        /* \"#utility.yul\":1087:1134   */\n      mstore\n        /* \"#utility.yul\":1151:1229   */\n      tag_154\n        /* \"#utility.yul\":1224:1228   */\n      dup2\n        /* \"#utility.yul\":1215:1221   */\n      dup5\n        /* \"#utility.yul\":1151:1229   */\n      tag_112\n      jump\t// in\n    tag_154:\n        /* \"#utility.yul\":1143:1229   */\n      swap1\n      pop\n        /* \"#utility.yul\":923:1236   */\n      swap3\n      swap2\n      pop\n      pop\n      jump\t// out\n        /* \"#utility.yul\":1242:1319   */\n    tag_113:\n        /* \"#utility.yul\":1279:1286   */\n      0x00\n        /* \"#utility.yul\":1308:1313   */\n      dup2\n        /* \"#utility.yul\":1297:1313   */\n      swap1\n      pop\n        /* \"#utility.yul\":1242:1319   */\n      swap2\n      swap1\n      pop\n      jump\t// out\n        /* \"#utility.yul\":1325:1443   */\n    tag_114:\n        /* \"#utility.yul\":1412:1436   */\n      tag_157\n        /* \"#utility.yul\":1430:1435   */\n      dup2\n        /* \"#utility.yul\":1412:1436   */\n      tag_113\n      jump\t// in\n    tag_157:\n        /* \"#utility.yul\":1407:1410   */\n      dup3\n        /* \"#utility.yul\":1400:1437   */\n      mstore\n        /* \"#utility.yul\":1325:1443   */\n      pop\n      pop\n      jump\t// out\n        /* \"#utility.yul\":1449:1671   */\n    tag_21:\n        /* \"#utility.yul\":1542:1546   */\n      0x00\n        /* \"#utility.yul\":1580:1582   */\n      0x20\n        /* \"#utility.yul\":1569:1578   */\n      dup3\n        /* \"#utility.yul\":1565:1583   */\n      add\n        /* \"#utility.yul\":1557:1583   */\n      swap1\n      pop\n        /* \"#utility.yul\":1593:1664   */\n      tag_159\n        /* \"#utility.yul\":1661:1662   */\n      0x00\n        /* \"#utility.yul\":1650:1659   */\n      dup4\n        /* \"#utility.yul\":1646:1663   */\n      add\n        /* \"#utility.yul\":1637:1643   */\n      dup5\n        /* \"#utility.yul\":1593:1664   */\n      tag_114\n      jump\t// in\n    tag_159:\n        /* \"#utility.yul\":1449:1671   */\n      swap3\n      swap2\n      pop\n      pop\n      jump\t// out\n        /* \"#utility.yul\":1677:1763   */\n    tag_115:\n        /* \"#utility.yul\":1712:1719   */\n      0x00\n        /* \"#utility.yul\":1752:1756   */\n      0xff\n        /* \"#utility.yul\":1745:1750   */\n      dup3\n        /* \"#utility.yul\":1741:1757   */\n      and\n        /* \"#utility.yul\":1730:1757   */\n      swap1\n      pop\n        /* \"#utility.yul\":1677:1763   */\n      swap2\n      swap1\n      pop\n      jump\t// out\n        /* \"#utility.yul\":1769:1881   */\n    tag_116:\n        /* \"#utility.yul\":1852:1874   */\n      tag_162\n        /* \"#utility.yul\":1868:1873   */\n      dup2\n        /* \"#utility.yul\":1852:1874   */\n      tag_115\n      jump\t// in\n    tag_162:\n        /* \"#utility.yul\":1847:1850   */\n      dup3\n        /* \"#utility.yul\":1840:1875   */\n      mstore\n        /* \"#utility.yul\":1769:1881   */\n      pop\n      pop\n      jump\t// out\n        /* \"#utility.yul\":1887:2101   */\n    tag_25:\n        /* \"#utility.yul\":1976:1980   */\n      0x00\n        /* \"#utility.yul\":2014:2016   */\n      0x20\n        /* \"#utility.yul\":2003:2012   */\n      dup3\n        /* \"#utility.yul\":1999:2017   */\n      add\n        /* \"#utility.yul\":1991:2017   */\n      swap1\n      pop\n        /* \"#utility.yul\":2027:2094   */\n      tag_164\n        /* \"#utility.yul\":2091:2092   */\n      0x00\n        /* \"#utility.yul\":2080:2089   */\n      dup4\n        /* \"#utility.yul\":2076:2093   */\n      add\n        /* \"#utility.yul\":2067:2073   */\n      dup5\n        /* \"#utility.yul\":2027:2094   */\n      tag_116\n      jump\t// in\n    tag_164:\n        /* \"#utility.yul\":1887:2101   */\n      swap3\n      swap2\n      pop\n      pop\n      jump\t// out\n        /* \"#utility.yul\":2188:2305   */\n    tag_118:\n        /* \"#utility.yul\":2297:2298   */\n      0x00\n        /* \"#utility.yul\":2294:2295   */\n      dup1\n        /* \"#utility.yul\":2287:2299   */\n      revert\n        /* \"#utility.yul\":2434:2560   */\n    tag_120:\n        /* \"#utility.yul\":2471:2478   */\n      0x00\n        /* \"#utility.yul\":2511:2553   */\n      0xffffffffffffffffffffffffffffffffffffffff\n        /* \"#utility.yul\":2504:2509   */\n      dup3\n        /* \"#utility.yul\":2500:2554   */\n      and\n        /* \"#utility.yul\":2489:2554   */\n      swap1\n      pop\n        /* \"#utility.yul\":2434:2560   */\n      swap2\n      swap1\n      pop\n      jump\t// out\n        /* \"#utility.yul\":2566:2662   */\n    tag_121:\n        /* \"#utility.yul\":2603:2610   */\n      0x00\n        /* \"#utility.yul\":2632:2656   */\n      tag_170\n        /* \"#utility.yul\":2650:2655   */\n      dup3\n        /* \"#utility.yul\":2632:2656   */\n      tag_120\n      jump\t// in\n    tag_170:\n        /* \"#utility.yul\":2621:2656   */\n      swap1\n      pop\n        /* \"#utility.yul\":2566:2662   */\n      swap2\n      swap1\n      pop\n      jump\t// out\n        /* \"#utility.yul\":2668:2790   */\n    tag_122:\n        /* \"#utility.yul\":2741:2765   */\n      tag_172\n        /* \"#utility.yul\":2759:2764   */\n      dup2\n        /* \"#utility.yul\":2741:2765   */\n      tag_121\n      jump\t// in\n    tag_172:\n        /* \"#utility.yul\":2734:2739   */\n      dup2\n        /* \"#utility.yul\":2731:2766   */\n      eq\n        /* \"#utility.yul\":2721:2784   */\n      tag_173\n      jumpi\n        /* \"#utility.yul\":2780:2781   */\n      0x00\n        /* \"#utility.yul\":2777:2778   */\n      dup1\n        /* \"#utility.yul\":2770:2782   */\n      revert\n        /* \"#utility.yul\":2721:2784   */\n    tag_173:\n        /* \"#utility.yul\":2668:2790   */\n      pop\n      jump\t// out\n        /* \"#utility.yul\":2796:2935   */\n    tag_123:\n        /* \"#utility.yul\":2842:2847   */\n      0x00\n        /* \"#utility.yul\":2880:2886   */\n      dup2\n        /* \"#utility.yul\":2867:2887   */\n      calldataload\n        /* \"#utility.yul\":2858:2887   */\n      swap1\n      pop\n        /* \"#utility.yul\":2896:2929   */\n      tag_175\n        /* \"#utility.yul\":2923:2928   */\n      dup2\n        /* \"#utility.yul\":2896:2929   */\n      tag_122\n      jump\t// in\n    tag_175:\n        /* \"#utility.yul\":2796:2935   */\n      swap3\n      swap2\n      pop\n      pop\n      jump\t// out\n        /* \"#utility.yul\":2941:3063   */\n    tag_124:\n        /* \"#utility.yul\":3014:3038   */\n      tag_177\n        /* \"#utility.yul\":3032:3037   */\n      dup2\n        /* \"#utility.yul\":3014:3038   */\n      tag_113\n      jump\t// in\n    tag_177:\n        /* \"#utility.yul\":3007:3012   */\n      dup2\n        /* \"#utility.yul\":3004:3039   */\n      eq\n        /* \"#utility.yul\":2994:3057   */\n      tag_178\n      jumpi\n        /* \"#utility.yul\":3053:3054   */\n      0x00\n        /* \"#utility.yul\":3050:3051   */\n      dup1\n        /* \"#utility.yul\":3043:3055   */\n      revert\n        /* \"#utility.yul\":2994:3057   */\n    tag_178:\n        /* \"#utility.yul\":2941:3063   */\n      pop\n      jump\t// out\n        /* \"#utility.yul\":3069:3208   */\n    tag_125:\n        /* \"#utility.yul\":3115:3120   */\n      0x00\n        /* \"#utility.yul\":3153:3159   */\n      dup2\n        /* \"#utility.yul\":3140:3160   */\n      calldataload\n        /* \"#utility.yul\":3131:3160   */\n      swap1\n      pop\n        /* \"#utility.yul\":3169:3202   */\n      tag_180\n        /* \"#utility.yul\":3196:3201   */\n      dup2\n        /* \"#utility.yul\":3169:3202   */\n      tag_124\n      jump\t// in\n    tag_180:\n        /* \"#utility.yul\":3069:3208   */\n      swap3\n      swap2\n      pop\n      pop\n      jump\t// out\n        /* \"#utility.yul\":3214:3688   */\n    tag_28:\n        /* \"#utility.yul\":3282:3288   */\n      0x00\n        /* \"#utility.yul\":3290:3296   */\n      dup1\n        /* \"#utility.yul\":3339:3341   */\n      0x40\n        /* \"#utility.yul\":3327:3336   */\n      dup4\n        /* \"#utility.yul\":3318:3325   */\n      dup6\n        /* \"#utility.yul\":3314:3337   */\n      sub\n        /* \"#utility.yul\":3310:3342   */\n      slt\n        /* \"#utility.yul\":3307:3426   */\n      iszero\n      tag_182\n      jumpi\n        /* \"#utility.yul\":3345:3424   */\n      tag_183\n      tag_118\n      jump\t// in\n    tag_183:\n        /* \"#utility.yul\":3307:3426   */\n    tag_182:\n        /* \"#utility.yul\":3465:3466   */\n      0x00\n        /* \"#utility.yul\":3490:3543   */\n      tag_184\n        /* \"#utility.yul\":3535:3542   */\n      dup6\n        /* \"#utility.yul\":3526:3532   */\n      dup3\n        /* \"#utility.yul\":3515:3524   */\n      dup7\n        /* \"#utility.yul\":3511:3533   */\n      add\n        /* \"#utility.yul\":3490:3543   */\n      tag_123\n      jump\t// in\n    tag_184:\n        /* \"#utility.yul\":3480:3543   */\n      swap3\n      pop\n        /* \"#utility.yul\":3436:3553   */\n      pop\n        /* \"#utility.yul\":3592:3594   */\n      0x20\n        /* \"#utility.yul\":3618:3671   */\n      tag_185\n        /* \"#utility.yul\":3663:3670   */\n      dup6\n        /* \"#utility.yul\":3654:3660   */\n      dup3\n        /* \"#utility.yul\":3643:3652   */\n      dup7\n        /* \"#utility.yul\":3639:3661   */\n      add\n        /* \"#utility.yul\":3618:3671   */\n      tag_125\n      jump\t// in\n    tag_185:\n        /* \"#utility.yul\":3608:3671   */\n      swap2\n      pop\n        /* \"#utility.yul\":3563:3681   */\n      pop\n        /* \"#utility.yul\":3214:3688   */\n      swap3\n      pop\n      swap3\n      swap1\n      pop\n      jump\t// out\n        /* \"#utility.yul\":3694:3784   */\n    tag_126:\n        /* \"#utility.yul\":3728:3735   */\n      0x00\n        /* \"#utility.yul\":3771:3776   */\n      dup2\n        /* \"#utility.yul\":3764:3777   */\n      iszero\n        /* \"#utility.yul\":3757:3778   */\n      iszero\n        /* \"#utility.yul\":3746:3778   */\n      swap1\n      pop\n        /* \"#utility.yul\":3694:3784   */\n      swap2\n      swap1\n      pop\n      jump\t// out\n        /* \"#utility.yul\":3790:3899   */\n    tag_127:\n        /* \"#utility.yul\":3871:3892   */\n      tag_188\n        /* \"#utility.yul\":3886:3891   */\n      dup2\n        /* \"#utility.yul\":3871:3892   */\n      tag_126\n      jump\t// in\n    tag_188:\n        /* \"#utility.yul\":3866:3869   */\n      dup3\n        /* \"#utility.yul\":3859:3893   */\n      mstore\n        /* \"#utility.yul\":3790:3899   */\n      pop\n      pop\n      jump\t// out\n        /* \"#utility.yul\":3905:4115   */\n    tag_31:\n        /* \"#utility.yul\":3992:3996   */\n      0x00\n        /* \"#utility.yul\":4030:4032   */\n      0x20\n        /* \"#utility.yul\":4019:4028   */\n      dup3\n        /* \"#utility.yul\":4015:4033   */\n      add\n        /* \"#utility.yul\":4007:4033   */\n      swap1\n      pop\n        /* \"#utility.yul\":4043:4108   */\n      tag_190\n        /* \"#utility.yul\":4105:4106   */\n      0x00\n        /* \"#utility.yul\":4094:4103   */\n      dup4\n        /* \"#utility.yul\":4090:4107   */\n      add\n        /* \"#utility.yul\":4081:4087   */\n      dup5\n        /* \"#utility.yul\":4043:4108   */\n      tag_127\n      jump\t// in\n    tag_190:\n        /* \"#utility.yul\":3905:4115   */\n      swap3\n      swap2\n      pop\n      pop\n      jump\t// out\n        /* \"#utility.yul\":4121:4450   */\n    tag_41:\n        /* \"#utility.yul\":4180:4186   */\n      0x00\n        /* \"#utility.yul\":4229:4231   */\n      0x20\n        /* \"#utility.yul\":4217:4226   */\n      dup3\n        /* \"#utility.yul\":4208:4215   */\n      dup5\n        /* \"#utility.yul\":4204:4227   */\n      sub\n        /* \"#utility.yul\":4200:4232   */\n      slt\n        /* \"#utility.yul\":4197:4316   */\n      iszero\n      tag_192\n      jumpi\n        /* \"#utility.yul\":4235:4314   */\n      tag_193\n      tag_118\n      jump\t// in\n    tag_193:\n        /* \"#utility.yul\":4197:4316   */\n    tag_192:\n        /* \"#utility.yul\":4355:4356   */\n      0x00\n        /* \"#utility.yul\":4380:4433   */\n      tag_194\n        /* \"#utility.yul\":4425:4432   */\n      dup5\n        /* \"#utility.yul\":4416:4422   */\n      dup3\n        /* \"#utility.yul\":4405:4414   */\n      dup6\n        /* \"#utility.yul\":4401:4423   */\n      add\n        /* \"#utility.yul\":4380:4433   */\n      tag_123\n      jump\t// in\n    tag_194:\n        /* \"#utility.yul\":4370:4433   */\n      swap2\n      pop\n        /* \"#utility.yul\":4326:4443   */\n      pop\n        /* \"#utility.yul\":4121:4450   */\n      swap3\n      swap2\n      pop\n      pop\n      jump\t// out\n        /* \"#utility.yul\":4456:4574   */\n    tag_128:\n        /* \"#utility.yul\":4543:4567   */\n      tag_196\n        /* \"#utility.yul\":4561:4566   */\n      dup2\n        /* \"#utility.yul\":4543:4567   */\n      tag_121\n      jump\t// in\n    tag_196:\n        /* \"#utility.yul\":4538:4541   */\n      dup3\n        /* \"#utility.yul\":4531:4568   */\n      mstore\n        /* \"#utility.yul\":4456:4574   */\n      pop\n      pop\n      jump\t// out\n        /* \"#utility.yul\":4580:4802   */\n    tag_47:\n        /* \"#utility.yul\":4673:4677   */\n      0x00\n        /* \"#utility.yul\":4711:4713   */\n      0x20\n        /* \"#utility.yul\":4700:4709   */\n      dup3\n        /* \"#utility.yul\":4696:4714   */\n      add\n        /* \"#utility.yul\":4688:4714   */\n      swap1\n      pop\n        /* \"#utility.yul\":4724:4795   */\n      tag_198\n        /* \"#utility.yul\":4792:4793   */\n      0x00\n        /* \"#utility.yul\":4781:4790   */\n      dup4\n        /* \"#utility.yul\":4777:4794   */\n      add\n        /* \"#utility.yul\":4768:4774   */\n      dup5\n        /* \"#utility.yul\":4724:4795   */\n      tag_128\n      jump\t// in\n    tag_198:\n        /* \"#utility.yul\":4580:4802   */\n      swap3\n      swap2\n      pop\n      pop\n      jump\t// out\n        /* \"#utility.yul\":4808:5427   */\n    tag_53:\n        /* \"#utility.yul\":4885:4891   */\n      0x00\n        /* \"#utility.yul\":4893:4899   */\n      dup1\n        /* \"#utility.yul\":4901:4907   */\n      0x00\n        /* \"#utility.yul\":4950:4952   */\n      0x60\n        /* \"#utility.yul\":4938:4947   */\n      dup5\n        /* \"#utility.yul\":4929:4936   */\n      dup7\n        /* \"#utility.yul\":4925:4948   */\n      sub\n        /* \"#utility.yul\":4921:4953   */\n      slt\n        /* \"#utility.yul\":4918:5037   */\n      iszero\n      tag_200\n      jumpi\n        /* \"#utility.yul\":4956:5035   */\n      tag_201\n      tag_118\n      jump\t// in\n    tag_201:\n        /* \"#utility.yul\":4918:5037   */\n    tag_200:\n        /* \"#utility.yul\":5076:5077   */\n      0x00\n        /* \"#utility.yul\":5101:5154   */\n      tag_202\n        /* \"#utility.yul\":5146:5153   */\n      dup7\n        /* \"#utility.yul\":5137:5143   */\n      dup3\n        /* \"#utility.yul\":5126:5135   */\n      dup8\n        /* \"#utility.yul\":5122:5144   */\n      add\n        /* \"#utility.yul\":5101:5154   */\n      tag_123\n      jump\t// in\n    tag_202:\n        /* \"#utility.yul\":5091:5154   */\n      swap4\n      pop\n        /* \"#utility.yul\":5047:5164   */\n      pop\n        /* \"#utility.yul\":5203:5205   */\n      0x20\n        /* \"#utility.yul\":5229:5282   */\n      tag_203\n        /* \"#utility.yul\":5274:5281   */\n      dup7\n        /* \"#utility.yul\":5265:5271   */\n      dup3\n        /* \"#utility.yul\":5254:5263   */\n      dup8\n        /* \"#utility.yul\":5250:5272   */\n      add\n        /* \"#utility.yul\":5229:5282   */\n      tag_123\n      jump\t// in\n    tag_203:\n        /* \"#utility.yul\":5219:5282   */\n      swap3\n      pop\n        /* \"#utility.yul\":5174:5292   */\n      pop\n        /* \"#utility.yul\":5331:5333   */\n      0x40\n        /* \"#utility.yul\":5357:5410   */\n      tag_204\n        /* \"#utility.yul\":5402:5409   */\n      dup7\n        /* \"#utility.yul\":5393:5399   */\n      dup3\n        /* \"#utility.yul\":5382:5391   */\n      dup8\n        /* \"#utility.yul\":5378:5400   */\n      add\n        /* \"#utility.yul\":5357:5410   */\n      tag_125\n      jump\t// in\n    tag_204:\n        /* \"#utility.yul\":5347:5410   */\n      swap2\n      pop\n        /* \"#utility.yul\":5302:5420   */\n      pop\n        /* \"#utility.yul\":4808:5427   */\n      swap3\n      pop\n      swap3\n      pop\n      swap3\n      jump\t// out\n        /* \"#utility.yul\":5433:5613   */\n    tag_129:\n        /* \"#utility.yul\":5481:5558   */\n      0x4e487b7100000000000000000000000000000000000000000000000000000000\n        /* \"#utility.yul\":5478:5479   */\n      0x00\n        /* \"#utility.yul\":5471:5559   */\n      mstore\n        /* \"#utility.yul\":5578:5582   */\n      0x22\n        /* \"#utility.yul\":5575:5576   */\n      0x04\n        /* \"#utility.yul\":5568:5583   */\n      mstore\n        /* \"#utility.yul\":5602:5606   */\n      0x24\n        /* \"#utility.yul\":5599:5600   */\n      0x00\n        /* \"#utility.yul\":5592:5607   */\n      revert\n        /* \"#utility.yul\":5619:5939   */\n    tag_57:\n        /* \"#utility.yul\":5663:5669   */\n      0x00\n        /* \"#utility.yul\":5700:5701   */\n      0x02\n        /* \"#utility.yul\":5694:5698   */\n      dup3\n        /* \"#utility.yul\":5690:5702   */\n      div\n        /* \"#utility.yul\":5680:5702   */\n      swap1\n      pop\n        /* \"#utility.yul\":5747:5748   */\n      0x01\n        /* \"#utility.yul\":5741:5745   */\n      dup3\n        /* \"#utility.yul\":5737:5749   */\n      and\n        /* \"#utility.yul\":5768:5786   */\n      dup1\n        /* \"#utility.yul\":5758:5839   */\n      tag_207\n      jumpi\n        /* \"#utility.yul\":5824:5828   */\n      0x7f\n        /* \"#utility.yul\":5816:5822   */\n      dup3\n        /* \"#utility.yul\":5812:5829   */\n      and\n        /* \"#utility.yul\":5802:5829   */\n      swap2\n      pop\n        /* \"#utility.yul\":5758:5839   */\n    tag_207:\n        /* \"#utility.yul\":5886:5888   */\n      0x20\n        /* \"#utility.yul\":5878:5884   */\n      dup3\n        /* \"#utility.yul\":5875:5889   */\n      lt\n        /* \"#utility.yul\":5855:5873   */\n      dup2\n        /* \"#utility.yul\":5852:5890   */\n      sub\n        /* \"#utility.yul\":5849:5933   */\n      tag_208\n      jumpi\n        /* \"#utility.yul\":5905:5923   */\n      tag_209\n      tag_129\n      jump\t// in\n    tag_209:\n        /* \"#utility.yul\":5849:5933   */\n    tag_208:\n        /* \"#utility.yul\":5670:5939   */\n      pop\n        /* \"#utility.yul\":5619:5939   */\n      swap2\n      swap1\n      pop\n      jump\t// out\n        /* \"#utility.yul\":5945:6113   */\n    tag_130:\n        /* \"#utility.yul\":6085:6105   */\n      0x746f206973207a65726f20616464726573730000000000000000000000000000\n        /* \"#utility.yul\":6081:6082   */\n      0x00\n        /* \"#utility.yul\":6073:6079   */\n      dup3\n        /* \"#utility.yul\":6069:6083   */\n      add\n        /* \"#utility.yul\":6062:6106   */\n      mstore\n        /* \"#utility.yul\":5945:6113   */\n      pop\n      jump\t// out\n        /* \"#utility.yul\":6119:6485   */\n    tag_131:\n        /* \"#utility.yul\":6261:6264   */\n      0x00\n        /* \"#utility.yul\":6282:6349   */\n      tag_212\n        /* \"#utility.yul\":6346:6348   */\n      0x12\n        /* \"#utility.yul\":6341:6344   */\n      dup4\n        /* \"#utility.yul\":6282:6349   */\n      tag_109\n      jump\t// in\n    tag_212:\n        /* \"#utility.yul\":6275:6349   */\n      swap2\n      pop\n        /* \"#utility.yul\":6358:6451   */\n      tag_213\n        /* \"#utility.yul\":6447:6450   */\n      dup3\n        /* \"#utility.yul\":6358:6451   */\n      tag_130\n      jump\t// in\n    tag_213:\n        /* \"#utility.yul\":6476:6478   */\n      0x20\n        /* \"#utility.yul\":6471:6474   */\n      dup3\n        /* \"#utility.yul\":6467:6479   */\n      add\n        /* \"#utility.yul\":6460:6479   */\n      swap1\n      pop\n        /* \"#utility.yul\":6119:6485   */\n      swap2\n      swap1\n      pop\n      jump\t// out\n        /* \"#utility.yul\":6491:6910   */\n    tag_65:\n        /* \"#utility.yul\":6657:6661   */\n      0x00\n        /* \"#utility.yul\":6695:6697   */\n      0x20\n        /* \"#utility.yul\":6684:6693   */\n      dup3\n        /* \"#utility.yul\":6680:6698   */\n      add\n        /* \"#utility.yul\":6672:6698   */\n      swap1\n      pop\n        /* \"#utility.yul\":6744:6753   */\n      dup2\n        /* \"#utility.yul\":6738:6742   */\n      dup2\n        /* \"#utility.yul\":6734:6754   */\n      sub\n        /* \"#utility.yul\":6730:6731   */\n      0x00\n        /* \"#utility.yul\":6719:6728   */\n      dup4\n        /* \"#utility.yul\":6715:6732   */\n      add\n        /* \"#utility.yul\":6708:6755   */\n      mstore\n        /* \"#utility.yul\":6772:6903   */\n      tag_215\n        /* \"#utility.yul\":6898:6902   */\n      dup2\n        /* \"#utility.yul\":6772:6903   */\n      tag_131\n      jump\t// in\n    tag_215:\n        /* \"#utility.yul\":6764:6903   */\n      swap1\n      pop\n        /* \"#utility.yul\":6491:6910   */\n      swap2\n      swap1\n      pop\n      jump\t// out\n        /* \"#utility.yul\":6916:7096   */\n    tag_132:\n        /* \"#utility.yul\":7056:7088   */\n      0x6c656674206c657373207468616e2063757272656e742062616c616e63650000\n        /* \"#utility.yul\":7052:7053   */\n      0x00\n        /* \"#utility.yul\":7044:7050   */\n      dup3\n        /* \"#utility.yul\":7040:7054   */\n      add\n        /* \"#utility.yul\":7033:7089   */\n      mstore\n        /* \"#utility.yul\":6916:7096   */\n      pop\n      jump\t// out\n        /* \"#utility.yul\":7102:7468   */\n    tag_133:\n        /* \"#utility.yul\":7244:7247   */\n      0x00\n        /* \"#utility.yul\":7265:7332   */\n      tag_218\n        /* \"#utility.yul\":7329:7331   */\n      0x1e\n        /* \"#utility.yul\":7324:7327   */\n      dup4\n        /* \"#utility.yul\":7265:7332   */\n      tag_109\n      jump\t// in\n    tag_218:\n        /* \"#utility.yul\":7258:7332   */\n      swap2\n      pop\n        /* \"#utility.yul\":7341:7434   */\n      tag_219\n        /* \"#utility.yul\":7430:7433   */\n      dup3\n        /* \"#utility.yul\":7341:7434   */\n      tag_132\n      jump\t// in\n    tag_219:\n        /* \"#utility.yul\":7459:7461   */\n      0x20\n        /* \"#utility.yul\":7454:7457   */\n      dup3\n        /* \"#utility.yul\":7450:7462   */\n      add\n        /* \"#utility.yul\":7443:7462   */\n      swap1\n      pop\n        /* \"#utility.yul\":7102:7468   */\n      swap2\n      swap1\n      pop\n      jump\t// out\n        /* \"#utility.yul\":7474:7893   */\n    tag_68:\n        /* \"#utility.yul\":7640:7644   */\n      0x00\n        /* \"#utility.yul\":7678:7680   */\n      0x20\n        /* \"#utility.yul\":7667:7676   */\n      dup3\n        /* \"#utility.yul\":7663:7681   */\n      add\n        /* \"#utility.yul\":7655:7681   */\n      swap1\n      pop\n        /* \"#utility.yul\":7727:7736   */\n      dup2\n        /* \"#utility.yul\":7721:7725   */\n      dup2\n        /* \"#utility.yul\":7717:7737   */\n      sub\n        /* \"#utility.yul\":7713:7714   */\n      0x00\n        /* \"#utility.yul\":7702:7711   */\n      dup4\n        /* \"#utility.yul\":7698:7715   */\n      add\n        /* \"#utility.yul\":7691:7738   */\n      mstore\n        /* \"#utility.yul\":7755:7886   */\n      tag_221\n        /* \"#utility.yul\":7881:7885   */\n      dup2\n        /* \"#utility.yul\":7755:7886   */\n      tag_133\n      jump\t// in\n    tag_221:\n        /* \"#utility.yul\":7747:7886   */\n      swap1\n      pop\n        /* \"#utility.yul\":7474:7893   */\n      swap2\n      swap1\n      pop\n      jump\t// out\n        /* \"#utility.yul\":7899:8079   */\n    tag_134:\n        /* \"#utility.yul\":7947:8024   */\n      0x4e487b7100000000000000000000000000000000000000000000000000000000\n        /* \"#utility.yul\":7944:7945   */\n      0x00\n        /* \"#utility.yul\":7937:8025   */\n      mstore\n        /* \"#utility.yul\":8044:8048   */\n      0x11\n        /* \"#utility.yul\":8041:8042   */\n      0x04\n        /* \"#utility.yul\":8034:8049   */\n      mstore\n        /* \"#utility.yul\":8068:8072   */\n      0x24\n        /* \"#utility.yul\":8065:8066   */\n      0x00\n        /* \"#utility.yul\":8058:8073   */\n      revert\n        /* \"#utility.yul\":8085:8279   */\n    tag_71:\n        /* \"#utility.yul\":8125:8129   */\n      0x00\n        /* \"#utility.yul\":8145:8165   */\n      tag_224\n        /* \"#utility.yul\":8163:8164   */\n      dup3\n        /* \"#utility.yul\":8145:8165   */\n      tag_113\n      jump\t// in\n    tag_224:\n        /* \"#utility.yul\":8140:8165   */\n      swap2\n      pop\n        /* \"#utility.yul\":8179:8199   */\n      tag_225\n        /* \"#utility.yul\":8197:8198   */\n      dup4\n        /* \"#utility.yul\":8179:8199   */\n      tag_113\n      jump\t// in\n    tag_225:\n        /* \"#utility.yul\":8174:8199   */\n      swap3\n      pop\n        /* \"#utility.yul\":8223:8224   */\n      dup3\n        /* \"#utility.yul\":8220:8221   */\n      dup3\n        /* \"#utility.yul\":8216:8225   */\n      sub\n        /* \"#utility.yul\":8208:8225   */\n      swap1\n      pop\n        /* \"#utility.yul\":8247:8248   */\n      dup2\n        /* \"#utility.yul\":8241:8245   */\n      dup2\n        /* \"#utility.yul\":8238:8249   */\n      gt\n        /* \"#utility.yul\":8235:8272   */\n      iszero\n      tag_226\n      jumpi\n        /* \"#utility.yul\":8252:8270   */\n      tag_227\n      tag_134\n      jump\t// in\n    tag_227:\n        /* \"#utility.yul\":8235:8272   */\n    tag_226:\n        /* \"#utility.yul\":8085:8279   */\n      swap3\n      swap2\n      pop\n      pop\n      jump\t// out\n        /* \"#utility.yul\":8285:8476   */\n    tag_73:\n        /* \"#utility.yul\":8325:8328   */\n      0x00\n        /* \"#utility.yul\":8344:8364   */\n      tag_229\n        /* \"#utility.yul\":8362:8363   */\n      dup3\n        /* \"#utility.yul\":8344:8364   */\n      tag_113\n      jump\t// in\n    tag_229:\n        /* \"#utility.yul\":8339:8364   */\n      swap2\n      pop\n        /* \"#utility.yul\":8378:8398   */\n      tag_230\n        /* \"#utility.yul\":8396:8397   */\n      dup4\n        /* \"#utility.yul\":8378:8398   */\n      tag_113\n      jump\t// in\n    tag_230:\n        /* \"#utility.yul\":8373:8398   */\n      swap3\n      pop\n        /* \"#utility.yul\":8421:8422   */\n      dup3\n        /* \"#utility.yul\":8418:8419   */\n      dup3\n        /* \"#utility.yul\":8414:8423   */\n      add\n        /* \"#utility.yul\":8407:8423   */\n      swap1\n      pop\n        /* \"#utility.yul\":8442:8445   */\n      dup1\n        /* \"#utility.yul\":8439:8440   */\n      dup3\n        /* \"#utility.yul\":8436:8446   */\n      gt\n        /* \"#utility.yul\":8433:8469   */\n      iszero\n      tag_231\n      jumpi\n        /* \"#utility.yul\":8449:8467   */\n      tag_232\n      tag_134\n      jump\t// in\n    tag_232:\n        /* \"#utility.yul\":8433:8469   */\n    tag_231:\n        /* \"#utility.yul\":8285:8476   */\n      swap3\n      swap2\n      pop\n      pop\n      jump\t// out\n        /* \"#utility.yul\":8482:8653   */\n    tag_135:\n        /* \"#utility.yul\":8622:8645   */\n      0x4e4f5420697320636f6e7472616374206f776e65720000000000000000000000\n        /* \"#utility.yul\":8618:8619   */\n      0x00\n        /* \"#utility.yul\":8610:8616   */\n      dup3\n        /* \"#utility.yul\":8606:8620   */\n      add\n        /* \"#utility.yul\":8599:8646   */\n      mstore\n        /* \"#utility.yul\":8482:8653   */\n      pop\n      jump\t// out\n        /* \"#utility.yul\":8659:9025   */\n    tag_136:\n        /* \"#utility.yul\":8801:8804   */\n      0x00\n        /* \"#utility.yul\":8822:8889   */\n      tag_235\n        /* \"#utility.yul\":8886:8888   */\n      0x15\n        /* \"#utility.yul\":8881:8884   */\n      dup4\n        /* \"#utility.yul\":8822:8889   */\n      tag_109\n      jump\t// in\n    tag_235:\n        /* \"#utility.yul\":8815:8889   */\n      swap2\n      pop\n        /* \"#utility.yul\":8898:8991   */\n      tag_236\n        /* \"#utility.yul\":8987:8990   */\n      dup3\n        /* \"#utility.yul\":8898:8991   */\n      tag_135\n      jump\t// in\n    tag_236:\n        /* \"#utility.yul\":9016:9018   */\n      0x20\n        /* \"#utility.yul\":9011:9014   */\n      dup3\n        /* \"#utility.yul\":9007:9019   */\n      add\n        /* \"#utility.yul\":9000:9019   */\n      swap1\n      pop\n        /* \"#utility.yul\":8659:9025   */\n      swap2\n      swap1\n      pop\n      jump\t// out\n        /* \"#utility.yul\":9031:9450   */\n    tag_77:\n        /* \"#utility.yul\":9197:9201   */\n      0x00\n        /* \"#utility.yul\":9235:9237   */\n      0x20\n        /* \"#utility.yul\":9224:9233   */\n      dup3\n        /* \"#utility.yul\":9220:9238   */\n      add\n        /* \"#utility.yul\":9212:9238   */\n      swap1\n      pop\n        /* \"#utility.yul\":9284:9293   */\n      dup2\n        /* \"#utility.yul\":9278:9282   */\n      dup2\n        /* \"#utility.yul\":9274:9294   */\n      sub\n        /* \"#utility.yul\":9270:9271   */\n      0x00\n        /* \"#utility.yul\":9259:9268   */\n      dup4\n        /* \"#utility.yul\":9255:9272   */\n      add\n        /* \"#utility.yul\":9248:9295   */\n      mstore\n        /* \"#utility.yul\":9312:9443   */\n      tag_238\n        /* \"#utility.yul\":9438:9442   */\n      dup2\n        /* \"#utility.yul\":9312:9443   */\n      tag_136\n      jump\t// in\n    tag_238:\n        /* \"#utility.yul\":9304:9443   */\n      swap1\n      pop\n        /* \"#utility.yul\":9031:9450   */\n      swap2\n      swap1\n      pop\n      jump\t// out\n        /* \"#utility.yul\":9456:9629   */\n    tag_137:\n        /* \"#utility.yul\":9596:9621   */\n      0x7370656e646572206973207a65726f2061646472657373000000000000000000\n        /* \"#utility.yul\":9592:9593   */\n      0x00\n        /* \"#utility.yul\":9584:9590   */\n      dup3\n        /* \"#utility.yul\":9580:9594   */\n      add\n        /* \"#utility.yul\":9573:9622   */\n      mstore\n        /* \"#utility.yul\":9456:9629   */\n      pop\n      jump\t// out\n        /* \"#utility.yul\":9635:10001   */\n    tag_138:\n        /* \"#utility.yul\":9777:9780   */\n      0x00\n        /* \"#utility.yul\":9798:9865   */\n      tag_241\n        /* \"#utility.yul\":9862:9864   */\n      0x17\n        /* \"#utility.yul\":9857:9860   */\n      dup4\n        /* \"#utility.yul\":9798:9865   */\n      tag_109\n      jump\t// in\n    tag_241:\n        /* \"#utility.yul\":9791:9865   */\n      swap2\n      pop\n        /* \"#utility.yul\":9874:9967   */\n      tag_242\n        /* \"#utility.yul\":9963:9966   */\n      dup3\n        /* \"#utility.yul\":9874:9967   */\n      tag_137\n      jump\t// in\n    tag_242:\n        /* \"#utility.yul\":9992:9994   */\n      0x20\n        /* \"#utility.yul\":9987:9990   */\n      dup3\n        /* \"#utility.yul\":9983:9995   */\n      add\n        /* \"#utility.yul\":9976:9995   */\n      swap1\n      pop\n        /* \"#utility.yul\":9635:10001   */\n      swap2\n      swap1\n      pop\n      jump\t// out\n        /* \"#utility.yul\":10007:10426   */\n    tag_85:\n        /* \"#utility.yul\":10173:10177   */\n      0x00\n        /* \"#utility.yul\":10211:10213   */\n      0x20\n        /* \"#utility.yul\":10200:10209   */\n      dup3\n        /* \"#utility.yul\":10196:10214   */\n      add\n        /* \"#utility.yul\":10188:10214   */\n      swap1\n      pop\n        /* \"#utility.yul\":10260:10269   */\n      dup2\n        /* \"#utility.yul\":10254:10258   */\n      dup2\n        /* \"#utility.yul\":10250:10270   */\n      sub\n        /* \"#utility.yul\":10246:10247   */\n      0x00\n        /* \"#utility.yul\":10235:10244   */\n      dup4\n        /* \"#utility.yul\":10231:10248   */\n      add\n        /* \"#utility.yul\":10224:10271   */\n      mstore\n        /* \"#utility.yul\":10288:10419   */\n      tag_244\n        /* \"#utility.yul\":10414:10418   */\n      dup2\n        /* \"#utility.yul\":10288:10419   */\n      tag_138\n      jump\t// in\n    tag_244:\n        /* \"#utility.yul\":10280:10419   */\n      swap1\n      pop\n        /* \"#utility.yul\":10007:10426   */\n      swap2\n      swap1\n      pop\n      jump\t// out\n        /* \"#utility.yul\":10432:10602   */\n    tag_139:\n        /* \"#utility.yul\":10572:10594   */\n      0x66726f6d206973207a65726f2061646472657373000000000000000000000000\n        /* \"#utility.yul\":10568:10569   */\n      0x00\n        /* \"#utility.yul\":10560:10566   */\n      dup3\n        /* \"#utility.yul\":10556:10570   */\n      add\n        /* \"#utility.yul\":10549:10595   */\n      mstore\n        /* \"#utility.yul\":10432:10602   */\n      pop\n      jump\t// out\n        /* \"#utility.yul\":10608:10974   */\n    tag_140:\n        /* \"#utility.yul\":10750:10753   */\n      0x00\n        /* \"#utility.yul\":10771:10838   */\n      tag_247\n        /* \"#utility.yul\":10835:10837   */\n      0x14\n        /* \"#utility.yul\":10830:10833   */\n      dup4\n        /* \"#utility.yul\":10771:10838   */\n      tag_109\n      jump\t// in\n    tag_247:\n        /* \"#utility.yul\":10764:10838   */\n      swap2\n      pop\n        /* \"#utility.yul\":10847:10940   */\n      tag_248\n        /* \"#utility.yul\":10936:10939   */\n      dup3\n        /* \"#utility.yul\":10847:10940   */\n      tag_139\n      jump\t// in\n    tag_248:\n        /* \"#utility.yul\":10965:10967   */\n      0x20\n        /* \"#utility.yul\":10960:10963   */\n      dup3\n        /* \"#utility.yul\":10956:10968   */\n      add\n        /* \"#utility.yul\":10949:10968   */\n      swap1\n      pop\n        /* \"#utility.yul\":10608:10974   */\n      swap2\n      swap1\n      pop\n      jump\t// out\n        /* \"#utility.yul\":10980:11399   */\n    tag_96:\n        /* \"#utility.yul\":11146:11150   */\n      0x00\n        /* \"#utility.yul\":11184:11186   */\n      0x20\n        /* \"#utility.yul\":11173:11182   */\n      dup3\n        /* \"#utility.yul\":11169:11187   */\n      add\n        /* \"#utility.yul\":11161:11187   */\n      swap1\n      pop\n        /* \"#utility.yul\":11233:11242   */\n      dup2\n        /* \"#utility.yul\":11227:11231   */\n      dup2\n        /* \"#utility.yul\":11223:11243   */\n      sub\n        /* \"#utility.yul\":11219:11220   */\n      0x00\n        /* \"#utility.yul\":11208:11217   */\n      dup4\n        /* \"#utility.yul\":11204:11221   */\n      add\n        /* \"#utility.yul\":11197:11244   */\n      mstore\n        /* \"#utility.yul\":11261:11392   */\n      tag_250\n        /* \"#utility.yul\":11387:11391   */\n      dup2\n        /* \"#utility.yul\":11261:11392   */\n      tag_140\n      jump\t// in\n    tag_250:\n        /* \"#utility.yul\":11253:11392   */\n      swap1\n      pop\n        /* \"#utility.yul\":10980:11399   */\n      swap2\n      swap1\n      pop\n      jump\t// out\n        /* \"#utility.yul\":11405:11627   */\n    tag_141:\n        /* \"#utility.yul\":11545:11579   */\n      0x61757468206c656674206c657373207468616e2063757272656e742062616c61\n        /* \"#utility.yul\":11541:11542   */\n      0x00\n        /* \"#utility.yul\":11533:11539   */\n      dup3\n        /* \"#utility.yul\":11529:11543   */\n      add\n        /* \"#utility.yul\":11522:11580   */\n      mstore\n        /* \"#utility.yul\":11614:11619   */\n      0x6e63650000000000000000000000000000000000000000000000000000000000\n        /* \"#utility.yul\":11609:11611   */\n      0x20\n        /* \"#utility.yul\":11601:11607   */\n      dup3\n        /* \"#utility.yul\":11597:11612   */\n      add\n        /* \"#utility.yul\":11590:11620   */\n      mstore\n        /* \"#utility.yul\":11405:11627   */\n      pop\n      jump\t// out\n        /* \"#utility.yul\":11633:11999   */\n    tag_142:\n        /* \"#utility.yul\":11775:11778   */\n      0x00\n        /* \"#utility.yul\":11796:11863   */\n      tag_253\n        /* \"#utility.yul\":11860:11862   */\n      0x23\n        /* \"#utility.yul\":11855:11858   */\n      dup4\n        /* \"#utility.yul\":11796:11863   */\n      tag_109\n      jump\t// in\n    tag_253:\n        /* \"#utility.yul\":11789:11863   */\n      swap2\n      pop\n        /* \"#utility.yul\":11872:11965   */\n      tag_254\n        /* \"#utility.yul\":11961:11964   */\n      dup3\n        /* \"#utility.yul\":11872:11965   */\n      tag_141\n      jump\t// in\n    tag_254:\n        /* \"#utility.yul\":11990:11992   */\n      0x40\n        /* \"#utility.yul\":11985:11988   */\n      dup3\n        /* \"#utility.yul\":11981:11993   */\n      add\n        /* \"#utility.yul\":11974:11993   */\n      swap1\n      pop\n        /* \"#utility.yul\":11633:11999   */\n      swap2\n      swap1\n      pop\n      jump\t// out\n        /* \"#utility.yul\":12005:12424   */\n    tag_103:\n        /* \"#utility.yul\":12171:12175   */\n      0x00\n        /* \"#utility.yul\":12209:12211   */\n      0x20\n        /* \"#utility.yul\":12198:12207   */\n      dup3\n        /* \"#utility.yul\":12194:12212   */\n      add\n        /* \"#utility.yul\":12186:12212   */\n      swap1\n      pop\n        /* \"#utility.yul\":12258:12267   */\n      dup2\n        /* \"#utility.yul\":12252:12256   */\n      dup2\n        /* \"#utility.yul\":12248:12268   */\n      sub\n        /* \"#utility.yul\":12244:12245   */\n      0x00\n        /* \"#utility.yul\":12233:12242   */\n      dup4\n        /* \"#utility.yul\":12229:12246   */\n      add\n        /* \"#utility.yul\":12222:12269   */\n      mstore\n        /* \"#utility.yul\":12286:12417   */\n      tag_256\n        /* \"#utility.yul\":12412:12416   */\n      dup2\n        /* \"#utility.yul\":12286:12417   */\n      tag_142\n      jump\t// in\n    tag_256:\n        /* \"#utility.yul\":12278:12417   */\n      swap1\n      pop\n        /* \"#utility.yul\":12005:12424   */\n      swap2\n      swap1\n      pop\n      jump\t// out\n\n    auxdata: 0xa26469706673582212204dfbe9c012b3a438b8224ab4a49874095cec2029e8cc4f79938d9007f906329064736f6c634300081a0033\n}\n",
				"bytecode": {
					"linkReferences": {},
					"object": "60806040523360045f6101000a81548173ffffffffffffffffffffffffffffffffffffffff021916908373ffffffffffffffffffffffffffffffffffffffff16021790555034801561004f575f80fd5b5060405161185d38038061185d83398181016040528101906100719190610235565b825f908161007f91906104ca565b50816001908161008f91906104ca565b508060025f6101000a81548160ff021916908360ff160217905550505050610599565b5f604051905090565b5f80fd5b5f80fd5b5f80fd5b5f80fd5b5f601f19601f8301169050919050565b7f4e487b71000000000000000000000000000000000000000000000000000000005f52604160045260245ffd5b610111826100cb565b810181811067ffffffffffffffff821117156101305761012f6100db565b5b80604052505050565b5f6101426100b2565b905061014e8282610108565b919050565b5f67ffffffffffffffff82111561016d5761016c6100db565b5b610176826100cb565b9050602081019050919050565b8281835e5f83830152505050565b5f6101a361019e84610153565b610139565b9050828152602081018484840111156101bf576101be6100c7565b5b6101ca848285610183565b509392505050565b5f82601f8301126101e6576101e56100c3565b5b81516101f6848260208601610191565b91505092915050565b5f60ff82169050919050565b610214816101ff565b811461021e575f80fd5b50565b5f8151905061022f8161020b565b92915050565b5f805f6060848603121561024c5761024b6100bb565b5b5f84015167ffffffffffffffff811115610269576102686100bf565b5b610275868287016101d2565b935050602084015167ffffffffffffffff811115610296576102956100bf565b5b6102a2868287016101d2565b92505060406102b386828701610221565b9150509250925092565b5f81519050919050565b7f4e487b71000000000000000000000000000000000000000000000000000000005f52602260045260245ffd5b5f600282049050600182168061030b57607f821691505b60208210810361031e5761031d6102c7565b5b50919050565b5f819050815f5260205f209050919050565b5f6020601f8301049050919050565b5f82821b905092915050565b5f600883026103807fffffffffffffffffffffffffffffffffffffffffffffffffffffffffffffffff82610345565b61038a8683610345565b95508019841693508086168417925050509392505050565b5f819050919050565b5f819050919050565b5f6103ce6103c96103c4846103a2565b6103ab565b6103a2565b9050919050565b5f819050919050565b6103e7836103b4565b6103fb6103f3826103d5565b848454610351565b825550505050565b5f90565b61040f610403565b61041a8184846103de565b505050565b5b8181101561043d576104325f82610407565b600181019050610420565b5050565b601f8211156104825761045381610324565b61045c84610336565b8101602085101561046b578190505b61047f61047785610336565b83018261041f565b50505b505050565b5f82821c905092915050565b5f6104a25f1984600802610487565b1980831691505092915050565b5f6104ba8383610493565b9150826002028217905092915050565b6104d3826102bd565b67ffffffffffffffff8111156104ec576104eb6100db565b5b6104f682546102f4565b610501828285610441565b5f60209050601f831160018114610532575f8415610520578287015190505b61052a85826104af565b865550610591565b601f19841661054086610324565b5f5b8281101561056757848901518255600182019150602085019450602081019050610542565b868310156105845784890151610580601f891682610493565b8355505b6001600288020188555050505b505050505050565b6112b7806105a65f395ff3fe608060405234801561000f575f80fd5b506004361061009c575f3560e01c8063527d765f11610064578063527d765f1461014657806368116177146101765780638da5cb5b146101a657806395d89b41146101c4578063fbe76c4d146101e25761009c565b806306fdde03146100a057806318160ddd146100be578063313ce567146100dc5780633d2bc6de146100fa57806340c10f191461012a575b5f80fd5b6100a8610212565b6040516100b59190610cda565b60405180910390f35b6100c661029d565b6040516100d39190610d12565b60405180910390f35b6100e46102a3565b6040516100f19190610d46565b60405180910390f35b610114600480360381019061010f9190610de7565b6102b5565b6040516101219190610e3f565b60405180910390f35b610144600480360381019061013f9190610de7565b6104b9565b005b610160600480360381019061015b9190610de7565b61065c565b60405161016d9190610e3f565b60405180910390f35b610190600480360381019061018b9190610e58565b6107b7565b60405161019d9190610d12565b60405180910390f35b6101ae6107fd565b6040516101bb9190610e92565b60405180910390f35b6101cc610822565b6040516101d99190610cda565b60405180910390f35b6101fc60048036038101906101f79190610eab565b6108ae565b6040516102099190610e3f565b60405180910390f35b5f805461021e90610f28565b80601f016020809104026020016040519081016040528092919081815260200182805461024a90610f28565b80156102955780601f1061026c57610100808354040283529160200191610295565b820191905f5260205f20905b81548152906001019060200180831161027857829003601f168201915b505050505081565b60035481565b60025f9054906101000a900460ff1681565b5f8073ffffffffffffffffffffffffffffffffffffffff168373ffffffffffffffffffffffffffffffffffffffff1603610324576040517f08c379a000000000000000000000000000000000000000000000000000000000815260040161031b90610fa2565b60405180910390fd5b8160055f3373ffffffffffffffffffffffffffffffffffffffff1673ffffffffffffffffffffffffffffffffffffffff1681526020019081526020015f205410156103a4576040517f08c379a000000000000000000000000000000000000000000000000000000000815260040161039b9061100a565b60405180910390fd5b8273ffffffffffffffffffffffffffffffffffffffff163373ffffffffffffffffffffffffffffffffffffffff167f11bed6238792339bbf31423e9e0c55016283657e2817f9dfe2cd8ad8661e72e9846040516104019190610d12565b60405180910390a38160055f3373ffffffffffffffffffffffffffffffffffffffff1673ffffffffffffffffffffffffffffffffffffffff1681526020019081526020015f205f8282546104559190611055565b925050819055508160055f8573ffffffffffffffffffffffffffffffffffffffff1673ffffffffffffffffffffffffffffffffffffffff1681526020019081526020015f205f8282546104a89190611088565b925050819055506001905092915050565b60045f9054906101000a900473ffffffffffffffffffffffffffffffffffffffff1673ffffffffffffffffffffffffffffffffffffffff163373ffffffffffffffffffffffffffffffffffffffff1614610548576040517f08c379a000000000000000000000000000000000000000000000000000000000815260040161053f90611105565b60405180910390fd5b8160045f6101000a81548173ffffffffffffffffffffffffffffffffffffffff021916908373ffffffffffffffffffffffffffffffffffffffff1602179055508060035f8282546105999190611088565b925050819055508060055f3373ffffffffffffffffffffffffffffffffffffffff1673ffffffffffffffffffffffffffffffffffffffff1681526020019081526020015f205f8282546105ec9190611088565b925050819055503373ffffffffffffffffffffffffffffffffffffffff165f73ffffffffffffffffffffffffffffffffffffffff167f11bed6238792339bbf31423e9e0c55016283657e2817f9dfe2cd8ad8661e72e9836040516106509190610d12565b60405180910390a35050565b5f8073ffffffffffffffffffffffffffffffffffffffff168373ffffffffffffffffffffffffffffffffffffffff16036106cb576040517f08c379a00000000000000000000000000000000000000000000000000000000081526004016106c29061116d565b60405180910390fd5b8273ffffffffffffffffffffffffffffffffffffffff163373ffffffffffffffffffffffffffffffffffffffff167f57a00d724bba41b4fa72a808967c8e461f721d919d08851c5feb997352e20f99846040516107289190610d12565b60405180910390a38160065f3373ffffffffffffffffffffffffffffffffffffffff1673ffffffffffffffffffffffffffffffffffffffff1681526020019081526020015f205f8573ffffffffffffffffffffffffffffffffffffffff1673ffffffffffffffffffffffffffffffffffffffff1681526020019081526020015f20819055506001905092915050565b5f60055f8373ffffffffffffffffffffffffffffffffffffffff1673ffffffffffffffffffffffffffffffffffffffff1681526020019081526020015f20549050919050565b60045f9054906101000a900473ffffffffffffffffffffffffffffffffffffffff1681565b6001805461082f90610f28565b80601f016020809104026020016040519081016040528092919081815260200182805461085b90610f28565b80156108a65780601f1061087d576101008083540402835291602001916108a6565b820191905f5260205f20905b81548152906001019060200180831161088957829003601f168201915b505050505081565b5f8073ffffffffffffffffffffffffffffffffffffffff168473ffffffffffffffffffffffffffffffffffffffff160361091d576040517f08c379a0000000000000000000000000000000000000000000000000000000008152600401610914906111d5565b60405180910390fd5b5f73ffffffffffffffffffffffffffffffffffffffff168373ffffffffffffffffffffffffffffffffffffffff160361098b576040517f08c379a000000000000000000000000000000000000000000000000000000000815260040161098290610fa2565b60405180910390fd5b8160055f8673ffffffffffffffffffffffffffffffffffffffff1673ffffffffffffffffffffffffffffffffffffffff1681526020019081526020015f20541015610a0b576040517f08c379a0000000000000000000000000000000000000000000000000000000008152600401610a029061100a565b60405180910390fd5b8160065f3373ffffffffffffffffffffffffffffffffffffffff1673ffffffffffffffffffffffffffffffffffffffff1681526020019081526020015f205f8673ffffffffffffffffffffffffffffffffffffffff1673ffffffffffffffffffffffffffffffffffffffff1681526020019081526020015f20541015610ac6576040517f08c379a0000000000000000000000000000000000000000000000000000000008152600401610abd90611263565b60405180910390fd5b8273ffffffffffffffffffffffffffffffffffffffff168473ffffffffffffffffffffffffffffffffffffffff167f11bed6238792339bbf31423e9e0c55016283657e2817f9dfe2cd8ad8661e72e984604051610b239190610d12565b60405180910390a38160055f8673ffffffffffffffffffffffffffffffffffffffff1673ffffffffffffffffffffffffffffffffffffffff1681526020019081526020015f205f828254610b779190611055565b925050819055508160055f8573ffffffffffffffffffffffffffffffffffffffff1673ffffffffffffffffffffffffffffffffffffffff1681526020019081526020015f205f828254610bca9190611088565b925050819055508160065f3373ffffffffffffffffffffffffffffffffffffffff1673ffffffffffffffffffffffffffffffffffffffff1681526020019081526020015f205f8673ffffffffffffffffffffffffffffffffffffffff1673ffffffffffffffffffffffffffffffffffffffff1681526020019081526020015f205f828254610c589190611055565b92505081905550600190509392505050565b5f81519050919050565b5f82825260208201905092915050565b8281835e5f83830152505050565b5f601f19601f8301169050919050565b5f610cac82610c6a565b610cb68185610c74565b9350610cc6818560208601610c84565b610ccf81610c92565b840191505092915050565b5f6020820190508181035f830152610cf28184610ca2565b905092915050565b5f819050919050565b610d0c81610cfa565b82525050565b5f602082019050610d255f830184610d03565b92915050565b5f60ff82169050919050565b610d4081610d2b565b82525050565b5f602082019050610d595f830184610d37565b92915050565b5f80fd5b5f73ffffffffffffffffffffffffffffffffffffffff82169050919050565b5f610d8c82610d63565b9050919050565b610d9c81610d82565b8114610da6575f80fd5b50565b5f81359050610db781610d93565b92915050565b610dc681610cfa565b8114610dd0575f80fd5b50565b5f81359050610de181610dbd565b92915050565b5f8060408385031215610dfd57610dfc610d5f565b5b5f610e0a85828601610da9565b9250506020610e1b85828601610dd3565b9150509250929050565b5f8115159050919050565b610e3981610e25565b82525050565b5f602082019050610e525f830184610e30565b92915050565b5f60208284031215610e6d57610e6c610d5f565b5b5f610e7a84828501610da9565b91505092915050565b610e8c81610d82565b82525050565b5f602082019050610ea55f830184610e83565b92915050565b5f805f60608486031215610ec257610ec1610d5f565b5b5f610ecf86828701610da9565b9350506020610ee086828701610da9565b9250506040610ef186828701610dd3565b9150509250925092565b7f4e487b71000000000000000000000000000000000000000000000000000000005f52602260045260245ffd5b5f6002820490506001821680610f3f57607f821691505b602082108103610f5257610f51610efb565b5b50919050565b7f746f206973207a65726f206164647265737300000000000000000000000000005f82015250565b5f610f8c601283610c74565b9150610f9782610f58565b602082019050919050565b5f6020820190508181035f830152610fb981610f80565b9050919050565b7f6c656674206c657373207468616e2063757272656e742062616c616e636500005f82015250565b5f610ff4601e83610c74565b9150610fff82610fc0565b602082019050919050565b5f6020820190508181035f83015261102181610fe8565b9050919050565b7f4e487b71000000000000000000000000000000000000000000000000000000005f52601160045260245ffd5b5f61105f82610cfa565b915061106a83610cfa565b925082820390508181111561108257611081611028565b5b92915050565b5f61109282610cfa565b915061109d83610cfa565b92508282019050808211156110b5576110b4611028565b5b92915050565b7f4e4f5420697320636f6e7472616374206f776e657200000000000000000000005f82015250565b5f6110ef601583610c74565b91506110fa826110bb565b602082019050919050565b5f6020820190508181035f83015261111c816110e3565b9050919050565b7f7370656e646572206973207a65726f20616464726573730000000000000000005f82015250565b5f611157601783610c74565b915061116282611123565b602082019050919050565b5f6020820190508181035f8301526111848161114b565b9050919050565b7f66726f6d206973207a65726f20616464726573730000000000000000000000005f82015250565b5f6111bf601483610c74565b91506111ca8261118b565b602082019050919050565b5f6020820190508181035f8301526111ec816111b3565b9050919050565b7f61757468206c656674206c657373207468616e2063757272656e742062616c615f8201527f6e63650000000000000000000000000000000000000000000000000000000000602082015250565b5f61124d602383610c74565b9150611258826111f3565b604082019050919050565b5f6020820190508181035f83015261127a81611241565b905091905056fea26469706673582212204dfbe9c012b3a438b8224ab4a49874095cec2029e8cc4f79938d9007f906329064736f6c634300081a0033",
					"opcodes": "PUSH1 0x80 PUSH1 0x40 MSTORE CALLER PUSH1 0x4 PUSH0 PUSH2 0x100 EXP DUP2 SLOAD DUP2 PUSH20 0xFFFFFFFFFFFFFFFFFFFFFFFFFFFFFFFFFFFFFFFF MUL NOT AND SWAP1 DUP4 PUSH20 0xFFFFFFFFFFFFFFFFFFFFFFFFFFFFFFFFFFFFFFFF AND MUL OR SWAP1 SSTORE POP CALLVALUE DUP1 ISZERO PUSH2 0x4F JUMPI PUSH0 DUP1 REVERT JUMPDEST POP PUSH1 0x40 MLOAD PUSH2 0x185D CODESIZE SUB DUP1 PUSH2 0x185D DUP4 CODECOPY DUP2 DUP2 ADD PUSH1 0x40 MSTORE DUP2 ADD SWAP1 PUSH2 0x71 SWAP2 SWAP1 PUSH2 0x235 JUMP JUMPDEST DUP3 PUSH0 SWAP1 DUP2 PUSH2 0x7F SWAP2 SWAP1 PUSH2 0x4CA JUMP JUMPDEST POP DUP2 PUSH1 0x1 SWAP1 DUP2 PUSH2 0x8F SWAP2 SWAP1 PUSH2 0x4CA JUMP JUMPDEST POP DUP1 PUSH1 0x2 PUSH0 PUSH2 0x100 EXP DUP2 SLOAD DUP2 PUSH1 0xFF MUL NOT AND SWAP1 DUP4 PUSH1 0xFF AND MUL OR SWAP1 SSTORE POP POP POP POP PUSH2 0x599 JUMP JUMPDEST PUSH0 PUSH1 0x40 MLOAD SWAP1 POP SWAP1 JUMP JUMPDEST PUSH0 DUP1 REVERT JUMPDEST PUSH0 DUP1 REVERT JUMPDEST PUSH0 DUP1 REVERT JUMPDEST PUSH0 DUP1 REVERT JUMPDEST PUSH0 PUSH1 0x1F NOT PUSH1 0x1F DUP4 ADD AND SWAP1 POP SWAP2 SWAP1 POP JUMP JUMPDEST PUSH32 0x4E487B7100000000000000000000000000000000000000000000000000000000 PUSH0 MSTORE PUSH1 0x41 PUSH1 0x4 MSTORE PUSH1 0x24 PUSH0 REVERT JUMPDEST PUSH2 0x111 DUP3 PUSH2 0xCB JUMP JUMPDEST DUP2 ADD DUP2 DUP2 LT PUSH8 0xFFFFFFFFFFFFFFFF DUP3 GT OR ISZERO PUSH2 0x130 JUMPI PUSH2 0x12F PUSH2 0xDB JUMP JUMPDEST JUMPDEST DUP1 PUSH1 0x40 MSTORE POP POP POP JUMP JUMPDEST PUSH0 PUSH2 0x142 PUSH2 0xB2 JUMP JUMPDEST SWAP1 POP PUSH2 0x14E DUP3 DUP3 PUSH2 0x108 JUMP JUMPDEST SWAP2 SWAP1 POP JUMP JUMPDEST PUSH0 PUSH8 0xFFFFFFFFFFFFFFFF DUP3 GT ISZERO PUSH2 0x16D JUMPI PUSH2 0x16C PUSH2 0xDB JUMP JUMPDEST JUMPDEST PUSH2 0x176 DUP3 PUSH2 0xCB JUMP JUMPDEST SWAP1 POP PUSH1 0x20 DUP2 ADD SWAP1 POP SWAP2 SWAP1 POP JUMP JUMPDEST DUP3 DUP2 DUP4 MCOPY PUSH0 DUP4 DUP4 ADD MSTORE POP POP POP JUMP JUMPDEST PUSH0 PUSH2 0x1A3 PUSH2 0x19E DUP5 PUSH2 0x153 JUMP JUMPDEST PUSH2 0x139 JUMP JUMPDEST SWAP1 POP DUP3 DUP2 MSTORE PUSH1 0x20 DUP2 ADD DUP5 DUP5 DUP5 ADD GT ISZERO PUSH2 0x1BF JUMPI PUSH2 0x1BE PUSH2 0xC7 JUMP JUMPDEST JUMPDEST PUSH2 0x1CA DUP5 DUP3 DUP6 PUSH2 0x183 JUMP JUMPDEST POP SWAP4 SWAP3 POP POP POP JUMP JUMPDEST PUSH0 DUP3 PUSH1 0x1F DUP4 ADD SLT PUSH2 0x1E6 JUMPI PUSH2 0x1E5 PUSH2 0xC3 JUMP JUMPDEST JUMPDEST DUP2 MLOAD PUSH2 0x1F6 DUP5 DUP3 PUSH1 0x20 DUP7 ADD PUSH2 0x191 JUMP JUMPDEST SWAP2 POP POP SWAP3 SWAP2 POP POP JUMP JUMPDEST PUSH0 PUSH1 0xFF DUP3 AND SWAP1 POP SWAP2 SWAP1 POP JUMP JUMPDEST PUSH2 0x214 DUP2 PUSH2 0x1FF JUMP JUMPDEST DUP2 EQ PUSH2 0x21E JUMPI PUSH0 DUP1 REVERT JUMPDEST POP JUMP JUMPDEST PUSH0 DUP2 MLOAD SWAP1 POP PUSH2 0x22F DUP2 PUSH2 0x20B JUMP JUMPDEST SWAP3 SWAP2 POP POP JUMP JUMPDEST PUSH0 DUP1 PUSH0 PUSH1 0x60 DUP5 DUP7 SUB SLT ISZERO PUSH2 0x24C JUMPI PUSH2 0x24B PUSH2 0xBB JUMP JUMPDEST JUMPDEST PUSH0 DUP5 ADD MLOAD PUSH8 0xFFFFFFFFFFFFFFFF DUP2 GT ISZERO PUSH2 0x269 JUMPI PUSH2 0x268 PUSH2 0xBF JUMP JUMPDEST JUMPDEST PUSH2 0x275 DUP7 DUP3 DUP8 ADD PUSH2 0x1D2 JUMP JUMPDEST SWAP4 POP POP PUSH1 0x20 DUP5 ADD MLOAD PUSH8 0xFFFFFFFFFFFFFFFF DUP2 GT ISZERO PUSH2 0x296 JUMPI PUSH2 0x295 PUSH2 0xBF JUMP JUMPDEST JUMPDEST PUSH2 0x2A2 DUP7 DUP3 DUP8 ADD PUSH2 0x1D2 JUMP JUMPDEST SWAP3 POP POP PUSH1 0x40 PUSH2 0x2B3 DUP7 DUP3 DUP8 ADD PUSH2 0x221 JUMP JUMPDEST SWAP2 POP POP SWAP3 POP SWAP3 POP SWAP3 JUMP JUMPDEST PUSH0 DUP2 MLOAD SWAP1 POP SWAP2 SWAP1 POP JUMP JUMPDEST PUSH32 0x4E487B7100000000000000000000000000000000000000000000000000000000 PUSH0 MSTORE PUSH1 0x22 PUSH1 0x4 MSTORE PUSH1 0x24 PUSH0 REVERT JUMPDEST PUSH0 PUSH1 0x2 DUP3 DIV SWAP1 POP PUSH1 0x1 DUP3 AND DUP1 PUSH2 0x30B JUMPI PUSH1 0x7F DUP3 AND SWAP2 POP JUMPDEST PUSH1 0x20 DUP3 LT DUP2 SUB PUSH2 0x31E JUMPI PUSH2 0x31D PUSH2 0x2C7 JUMP JUMPDEST JUMPDEST POP SWAP2 SWAP1 POP JUMP JUMPDEST PUSH0 DUP2 SWAP1 POP DUP2 PUSH0 MSTORE PUSH1 0x20 PUSH0 KECCAK256 SWAP1 POP SWAP2 SWAP1 POP JUMP JUMPDEST PUSH0 PUSH1 0x20 PUSH1 0x1F DUP4 ADD DIV SWAP1 POP SWAP2 SWAP1 POP JUMP JUMPDEST PUSH0 DUP3 DUP3 SHL SWAP1 POP SWAP3 SWAP2 POP POP JUMP JUMPDEST PUSH0 PUSH1 0x8 DUP4 MUL PUSH2 0x380 PUSH32 0xFFFFFFFFFFFFFFFFFFFFFFFFFFFFFFFFFFFFFFFFFFFFFFFFFFFFFFFFFFFFFFFF DUP3 PUSH2 0x345 JUMP JUMPDEST PUSH2 0x38A DUP7 DUP4 PUSH2 0x345 JUMP JUMPDEST SWAP6 POP DUP1 NOT DUP5 AND SWAP4 POP DUP1 DUP7 AND DUP5 OR SWAP3 POP POP POP SWAP4 SWAP3 POP POP POP JUMP JUMPDEST PUSH0 DUP2 SWAP1 POP SWAP2 SWAP1 POP JUMP JUMPDEST PUSH0 DUP2 SWAP1 POP SWAP2 SWAP1 POP JUMP JUMPDEST PUSH0 PUSH2 0x3CE PUSH2 0x3C9 PUSH2 0x3C4 DUP5 PUSH2 0x3A2 JUMP JUMPDEST PUSH2 0x3AB JUMP JUMPDEST PUSH2 0x3A2 JUMP JUMPDEST SWAP1 POP SWAP2 SWAP1 POP JUMP JUMPDEST PUSH0 DUP2 SWAP1 POP SWAP2 SWAP1 POP JUMP JUMPDEST PUSH2 0x3E7 DUP4 PUSH2 0x3B4 JUMP JUMPDEST PUSH2 0x3FB PUSH2 0x3F3 DUP3 PUSH2 0x3D5 JUMP JUMPDEST DUP5 DUP5 SLOAD PUSH2 0x351 JUMP JUMPDEST DUP3 SSTORE POP POP POP POP JUMP JUMPDEST PUSH0 SWAP1 JUMP JUMPDEST PUSH2 0x40F PUSH2 0x403 JUMP JUMPDEST PUSH2 0x41A DUP2 DUP5 DUP5 PUSH2 0x3DE JUMP JUMPDEST POP POP POP JUMP JUMPDEST JUMPDEST DUP2 DUP2 LT ISZERO PUSH2 0x43D JUMPI PUSH2 0x432 PUSH0 DUP3 PUSH2 0x407 JUMP JUMPDEST PUSH1 0x1 DUP2 ADD SWAP1 POP PUSH2 0x420 JUMP JUMPDEST POP POP JUMP JUMPDEST PUSH1 0x1F DUP3 GT ISZERO PUSH2 0x482 JUMPI PUSH2 0x453 DUP2 PUSH2 0x324 JUMP JUMPDEST PUSH2 0x45C DUP5 PUSH2 0x336 JUMP JUMPDEST DUP2 ADD PUSH1 0x20 DUP6 LT ISZERO PUSH2 0x46B JUMPI DUP2 SWAP1 POP JUMPDEST PUSH2 0x47F PUSH2 0x477 DUP6 PUSH2 0x336 JUMP JUMPDEST DUP4 ADD DUP3 PUSH2 0x41F JUMP JUMPDEST POP POP JUMPDEST POP POP POP JUMP JUMPDEST PUSH0 DUP3 DUP3 SHR SWAP1 POP SWAP3 SWAP2 POP POP JUMP JUMPDEST PUSH0 PUSH2 0x4A2 PUSH0 NOT DUP5 PUSH1 0x8 MUL PUSH2 0x487 JUMP JUMPDEST NOT DUP1 DUP4 AND SWAP2 POP POP SWAP3 SWAP2 POP POP JUMP JUMPDEST PUSH0 PUSH2 0x4BA DUP4 DUP4 PUSH2 0x493 JUMP JUMPDEST SWAP2 POP DUP3 PUSH1 0x2 MUL DUP3 OR SWAP1 POP SWAP3 SWAP2 POP POP JUMP JUMPDEST PUSH2 0x4D3 DUP3 PUSH2 0x2BD JUMP JUMPDEST PUSH8 0xFFFFFFFFFFFFFFFF DUP2 GT ISZERO PUSH2 0x4EC JUMPI PUSH2 0x4EB PUSH2 0xDB JUMP JUMPDEST JUMPDEST PUSH2 0x4F6 DUP3 SLOAD PUSH2 0x2F4 JUMP JUMPDEST PUSH2 0x501 DUP3 DUP3 DUP6 PUSH2 0x441 JUMP JUMPDEST PUSH0 PUSH1 0x20 SWAP1 POP PUSH1 0x1F DUP4 GT PUSH1 0x1 DUP2 EQ PUSH2 0x532 JUMPI PUSH0 DUP5 ISZERO PUSH2 0x520 JUMPI DUP3 DUP8 ADD MLOAD SWAP1 POP JUMPDEST PUSH2 0x52A DUP6 DUP3 PUSH2 0x4AF JUMP JUMPDEST DUP7 SSTORE POP PUSH2 0x591 JUMP JUMPDEST PUSH1 0x1F NOT DUP5 AND PUSH2 0x540 DUP7 PUSH2 0x324 JUMP JUMPDEST PUSH0 JUMPDEST DUP3 DUP2 LT ISZERO PUSH2 0x567 JUMPI DUP5 DUP10 ADD MLOAD DUP3 SSTORE PUSH1 0x1 DUP3 ADD SWAP2 POP PUSH1 0x20 DUP6 ADD SWAP5 POP PUSH1 0x20 DUP2 ADD SWAP1 POP PUSH2 0x542 JUMP JUMPDEST DUP7 DUP4 LT ISZERO PUSH2 0x584 JUMPI DUP5 DUP10 ADD MLOAD PUSH2 0x580 PUSH1 0x1F DUP10 AND DUP3 PUSH2 0x493 JUMP JUMPDEST DUP4 SSTORE POP JUMPDEST PUSH1 0x1 PUSH1 0x2 DUP9 MUL ADD DUP9 SSTORE POP POP POP JUMPDEST POP POP POP POP POP POP JUMP JUMPDEST PUSH2 0x12B7 DUP1 PUSH2 0x5A6 PUSH0 CODECOPY PUSH0 RETURN INVALID PUSH1 0x80 PUSH1 0x40 MSTORE CALLVALUE DUP1 ISZERO PUSH2 0xF JUMPI PUSH0 DUP1 REVERT JUMPDEST POP PUSH1 0x4 CALLDATASIZE LT PUSH2 0x9C JUMPI PUSH0 CALLDATALOAD PUSH1 0xE0 SHR DUP1 PUSH4 0x527D765F GT PUSH2 0x64 JUMPI DUP1 PUSH4 0x527D765F EQ PUSH2 0x146 JUMPI DUP1 PUSH4 0x68116177 EQ PUSH2 0x176 JUMPI DUP1 PUSH4 0x8DA5CB5B EQ PUSH2 0x1A6 JUMPI DUP1 PUSH4 0x95D89B41 EQ PUSH2 0x1C4 JUMPI DUP1 PUSH4 0xFBE76C4D EQ PUSH2 0x1E2 JUMPI PUSH2 0x9C JUMP JUMPDEST DUP1 PUSH4 0x6FDDE03 EQ PUSH2 0xA0 JUMPI DUP1 PUSH4 0x18160DDD EQ PUSH2 0xBE JUMPI DUP1 PUSH4 0x313CE567 EQ PUSH2 0xDC JUMPI DUP1 PUSH4 0x3D2BC6DE EQ PUSH2 0xFA JUMPI DUP1 PUSH4 0x40C10F19 EQ PUSH2 0x12A JUMPI JUMPDEST PUSH0 DUP1 REVERT JUMPDEST PUSH2 0xA8 PUSH2 0x212 JUMP JUMPDEST PUSH1 0x40 MLOAD PUSH2 0xB5 SWAP2 SWAP1 PUSH2 0xCDA JUMP JUMPDEST PUSH1 0x40 MLOAD DUP1 SWAP2 SUB SWAP1 RETURN JUMPDEST PUSH2 0xC6 PUSH2 0x29D JUMP JUMPDEST PUSH1 0x40 MLOAD PUSH2 0xD3 SWAP2 SWAP1 PUSH2 0xD12 JUMP JUMPDEST PUSH1 0x40 MLOAD DUP1 SWAP2 SUB SWAP1 RETURN JUMPDEST PUSH2 0xE4 PUSH2 0x2A3 JUMP JUMPDEST PUSH1 0x40 MLOAD PUSH2 0xF1 SWAP2 SWAP1 PUSH2 0xD46 JUMP JUMPDEST PUSH1 0x40 MLOAD DUP1 SWAP2 SUB SWAP1 RETURN JUMPDEST PUSH2 0x114 PUSH1 0x4 DUP1 CALLDATASIZE SUB DUP2 ADD SWAP1 PUSH2 0x10F SWAP2 SWAP1 PUSH2 0xDE7 JUMP JUMPDEST PUSH2 0x2B5 JUMP JUMPDEST PUSH1 0x40 MLOAD PUSH2 0x121 SWAP2 SWAP1 PUSH2 0xE3F JUMP JUMPDEST PUSH1 0x40 MLOAD DUP1 SWAP2 SUB SWAP1 RETURN JUMPDEST PUSH2 0x144 PUSH1 0x4 DUP1 CALLDATASIZE SUB DUP2 ADD SWAP1 PUSH2 0x13F SWAP2 SWAP1 PUSH2 0xDE7 JUMP JUMPDEST PUSH2 0x4B9 JUMP JUMPDEST STOP JUMPDEST PUSH2 0x160 PUSH1 0x4 DUP1 CALLDATASIZE SUB DUP2 ADD SWAP1 PUSH2 0x15B SWAP2 SWAP1 PUSH2 0xDE7 JUMP JUMPDEST PUSH2 0x65C JUMP JUMPDEST PUSH1 0x40 MLOAD PUSH2 0x16D SWAP2 SWAP1 PUSH2 0xE3F JUMP JUMPDEST PUSH1 0x40 MLOAD DUP1 SWAP2 SUB SWAP1 RETURN JUMPDEST PUSH2 0x190 PUSH1 0x4 DUP1 CALLDATASIZE SUB DUP2 ADD SWAP1 PUSH2 0x18B SWAP2 SWAP1 PUSH2 0xE58 JUMP JUMPDEST PUSH2 0x7B7 JUMP JUMPDEST PUSH1 0x40 MLOAD PUSH2 0x19D SWAP2 SWAP1 PUSH2 0xD12 JUMP JUMPDEST PUSH1 0x40 MLOAD DUP1 SWAP2 SUB SWAP1 RETURN JUMPDEST PUSH2 0x1AE PUSH2 0x7FD JUMP JUMPDEST PUSH1 0x40 MLOAD PUSH2 0x1BB SWAP2 SWAP1 PUSH2 0xE92 JUMP JUMPDEST PUSH1 0x40 MLOAD DUP1 SWAP2 SUB SWAP1 RETURN JUMPDEST PUSH2 0x1CC PUSH2 0x822 JUMP JUMPDEST PUSH1 0x40 MLOAD PUSH2 0x1D9 SWAP2 SWAP1 PUSH2 0xCDA JUMP JUMPDEST PUSH1 0x40 MLOAD DUP1 SWAP2 SUB SWAP1 RETURN JUMPDEST PUSH2 0x1FC PUSH1 0x4 DUP1 CALLDATASIZE SUB DUP2 ADD SWAP1 PUSH2 0x1F7 SWAP2 SWAP1 PUSH2 0xEAB JUMP JUMPDEST PUSH2 0x8AE JUMP JUMPDEST PUSH1 0x40 MLOAD PUSH2 0x209 SWAP2 SWAP1 PUSH2 0xE3F JUMP JUMPDEST PUSH1 0x40 MLOAD DUP1 SWAP2 SUB SWAP1 RETURN JUMPDEST PUSH0 DUP1 SLOAD PUSH2 0x21E SWAP1 PUSH2 0xF28 JUMP JUMPDEST DUP1 PUSH1 0x1F ADD PUSH1 0x20 DUP1 SWAP2 DIV MUL PUSH1 0x20 ADD PUSH1 0x40 MLOAD SWAP1 DUP2 ADD PUSH1 0x40 MSTORE DUP1 SWAP3 SWAP2 SWAP1 DUP2 DUP2 MSTORE PUSH1 0x20 ADD DUP3 DUP1 SLOAD PUSH2 0x24A SWAP1 PUSH2 0xF28 JUMP JUMPDEST DUP1 ISZERO PUSH2 0x295 JUMPI DUP1 PUSH1 0x1F LT PUSH2 0x26C JUMPI PUSH2 0x100 DUP1 DUP4 SLOAD DIV MUL DUP4 MSTORE SWAP2 PUSH1 0x20 ADD SWAP2 PUSH2 0x295 JUMP JUMPDEST DUP3 ADD SWAP2 SWAP1 PUSH0 MSTORE PUSH1 0x20 PUSH0 KECCAK256 SWAP1 JUMPDEST DUP2 SLOAD DUP2 MSTORE SWAP1 PUSH1 0x1 ADD SWAP1 PUSH1 0x20 ADD DUP1 DUP4 GT PUSH2 0x278 JUMPI DUP3 SWAP1 SUB PUSH1 0x1F AND DUP3 ADD SWAP2 JUMPDEST POP POP POP POP POP DUP2 JUMP JUMPDEST PUSH1 0x3 SLOAD DUP2 JUMP JUMPDEST PUSH1 0x2 PUSH0 SWAP1 SLOAD SWAP1 PUSH2 0x100 EXP SWAP1 DIV PUSH1 0xFF AND DUP2 JUMP JUMPDEST PUSH0 DUP1 PUSH20 0xFFFFFFFFFFFFFFFFFFFFFFFFFFFFFFFFFFFFFFFF AND DUP4 PUSH20 0xFFFFFFFFFFFFFFFFFFFFFFFFFFFFFFFFFFFFFFFF AND SUB PUSH2 0x324 JUMPI PUSH1 0x40 MLOAD PUSH32 0x8C379A000000000000000000000000000000000000000000000000000000000 DUP2 MSTORE PUSH1 0x4 ADD PUSH2 0x31B SWAP1 PUSH2 0xFA2 JUMP JUMPDEST PUSH1 0x40 MLOAD DUP1 SWAP2 SUB SWAP1 REVERT JUMPDEST DUP2 PUSH1 0x5 PUSH0 CALLER PUSH20 0xFFFFFFFFFFFFFFFFFFFFFFFFFFFFFFFFFFFFFFFF AND PUSH20 0xFFFFFFFFFFFFFFFFFFFFFFFFFFFFFFFFFFFFFFFF AND DUP2 MSTORE PUSH1 0x20 ADD SWAP1 DUP2 MSTORE PUSH1 0x20 ADD PUSH0 KECCAK256 SLOAD LT ISZERO PUSH2 0x3A4 JUMPI PUSH1 0x40 MLOAD PUSH32 0x8C379A000000000000000000000000000000000000000000000000000000000 DUP2 MSTORE PUSH1 0x4 ADD PUSH2 0x39B SWAP1 PUSH2 0x100A JUMP JUMPDEST PUSH1 0x40 MLOAD DUP1 SWAP2 SUB SWAP1 REVERT JUMPDEST DUP3 PUSH20 0xFFFFFFFFFFFFFFFFFFFFFFFFFFFFFFFFFFFFFFFF AND CALLER PUSH20 0xFFFFFFFFFFFFFFFFFFFFFFFFFFFFFFFFFFFFFFFF AND PUSH32 0x11BED6238792339BBF31423E9E0C55016283657E2817F9DFE2CD8AD8661E72E9 DUP5 PUSH1 0x40 MLOAD PUSH2 0x401 SWAP2 SWAP1 PUSH2 0xD12 JUMP JUMPDEST PUSH1 0x40 MLOAD DUP1 SWAP2 SUB SWAP1 LOG3 DUP2 PUSH1 0x5 PUSH0 CALLER PUSH20 0xFFFFFFFFFFFFFFFFFFFFFFFFFFFFFFFFFFFFFFFF AND PUSH20 0xFFFFFFFFFFFFFFFFFFFFFFFFFFFFFFFFFFFFFFFF AND DUP2 MSTORE PUSH1 0x20 ADD SWAP1 DUP2 MSTORE PUSH1 0x20 ADD PUSH0 KECCAK256 PUSH0 DUP3 DUP3 SLOAD PUSH2 0x455 SWAP2 SWAP1 PUSH2 0x1055 JUMP JUMPDEST SWAP3 POP POP DUP2 SWAP1 SSTORE POP DUP2 PUSH1 0x5 PUSH0 DUP6 PUSH20 0xFFFFFFFFFFFFFFFFFFFFFFFFFFFFFFFFFFFFFFFF AND PUSH20 0xFFFFFFFFFFFFFFFFFFFFFFFFFFFFFFFFFFFFFFFF AND DUP2 MSTORE PUSH1 0x20 ADD SWAP1 DUP2 MSTORE PUSH1 0x20 ADD PUSH0 KECCAK256 PUSH0 DUP3 DUP3 SLOAD PUSH2 0x4A8 SWAP2 SWAP1 PUSH2 0x1088 JUMP JUMPDEST SWAP3 POP POP DUP2 SWAP1 SSTORE POP PUSH1 0x1 SWAP1 POP SWAP3 SWAP2 POP POP JUMP JUMPDEST PUSH1 0x4 PUSH0 SWAP1 SLOAD SWAP1 PUSH2 0x100 EXP SWAP1 DIV PUSH20 0xFFFFFFFFFFFFFFFFFFFFFFFFFFFFFFFFFFFFFFFF AND PUSH20 0xFFFFFFFFFFFFFFFFFFFFFFFFFFFFFFFFFFFFFFFF AND CALLER PUSH20 0xFFFFFFFFFFFFFFFFFFFFFFFFFFFFFFFFFFFFFFFF AND EQ PUSH2 0x548 JUMPI PUSH1 0x40 MLOAD PUSH32 0x8C379A000000000000000000000000000000000000000000000000000000000 DUP2 MSTORE PUSH1 0x4 ADD PUSH2 0x53F SWAP1 PUSH2 0x1105 JUMP JUMPDEST PUSH1 0x40 MLOAD DUP1 SWAP2 SUB SWAP1 REVERT JUMPDEST DUP2 PUSH1 0x4 PUSH0 PUSH2 0x100 EXP DUP2 SLOAD DUP2 PUSH20 0xFFFFFFFFFFFFFFFFFFFFFFFFFFFFFFFFFFFFFFFF MUL NOT AND SWAP1 DUP4 PUSH20 0xFFFFFFFFFFFFFFFFFFFFFFFFFFFFFFFFFFFFFFFF AND MUL OR SWAP1 SSTORE POP DUP1 PUSH1 0x3 PUSH0 DUP3 DUP3 SLOAD PUSH2 0x599 SWAP2 SWAP1 PUSH2 0x1088 JUMP JUMPDEST SWAP3 POP POP DUP2 SWAP1 SSTORE POP DUP1 PUSH1 0x5 PUSH0 CALLER PUSH20 0xFFFFFFFFFFFFFFFFFFFFFFFFFFFFFFFFFFFFFFFF AND PUSH20 0xFFFFFFFFFFFFFFFFFFFFFFFFFFFFFFFFFFFFFFFF AND DUP2 MSTORE PUSH1 0x20 ADD SWAP1 DUP2 MSTORE PUSH1 0x20 ADD PUSH0 KECCAK256 PUSH0 DUP3 DUP3 SLOAD PUSH2 0x5EC SWAP2 SWAP1 PUSH2 0x1088 JUMP JUMPDEST SWAP3 POP POP DUP2 SWAP1 SSTORE POP CALLER PUSH20 0xFFFFFFFFFFFFFFFFFFFFFFFFFFFFFFFFFFFFFFFF AND PUSH0 PUSH20 0xFFFFFFFFFFFFFFFFFFFFFFFFFFFFFFFFFFFFFFFF AND PUSH32 0x11BED6238792339BBF31423E9E0C55016283657E2817F9DFE2CD8AD8661E72E9 DUP4 PUSH1 0x40 MLOAD PUSH2 0x650 SWAP2 SWAP1 PUSH2 0xD12 JUMP JUMPDEST PUSH1 0x40 MLOAD DUP1 SWAP2 SUB SWAP1 LOG3 POP POP JUMP JUMPDEST PUSH0 DUP1 PUSH20 0xFFFFFFFFFFFFFFFFFFFFFFFFFFFFFFFFFFFFFFFF AND DUP4 PUSH20 0xFFFFFFFFFFFFFFFFFFFFFFFFFFFFFFFFFFFFFFFF AND SUB PUSH2 0x6CB JUMPI PUSH1 0x40 MLOAD PUSH32 0x8C379A000000000000000000000000000000000000000000000000000000000 DUP2 MSTORE PUSH1 0x4 ADD PUSH2 0x6C2 SWAP1 PUSH2 0x116D JUMP JUMPDEST PUSH1 0x40 MLOAD DUP1 SWAP2 SUB SWAP1 REVERT JUMPDEST DUP3 PUSH20 0xFFFFFFFFFFFFFFFFFFFFFFFFFFFFFFFFFFFFFFFF AND CALLER PUSH20 0xFFFFFFFFFFFFFFFFFFFFFFFFFFFFFFFFFFFFFFFF AND PUSH32 0x57A00D724BBA41B4FA72A808967C8E461F721D919D08851C5FEB997352E20F99 DUP5 PUSH1 0x40 MLOAD PUSH2 0x728 SWAP2 SWAP1 PUSH2 0xD12 JUMP JUMPDEST PUSH1 0x40 MLOAD DUP1 SWAP2 SUB SWAP1 LOG3 DUP2 PUSH1 0x6 PUSH0 CALLER PUSH20 0xFFFFFFFFFFFFFFFFFFFFFFFFFFFFFFFFFFFFFFFF AND PUSH20 0xFFFFFFFFFFFFFFFFFFFFFFFFFFFFFFFFFFFFFFFF AND DUP2 MSTORE PUSH1 0x20 ADD SWAP1 DUP2 MSTORE PUSH1 0x20 ADD PUSH0 KECCAK256 PUSH0 DUP6 PUSH20 0xFFFFFFFFFFFFFFFFFFFFFFFFFFFFFFFFFFFFFFFF AND PUSH20 0xFFFFFFFFFFFFFFFFFFFFFFFFFFFFFFFFFFFFFFFF AND DUP2 MSTORE PUSH1 0x20 ADD SWAP1 DUP2 MSTORE PUSH1 0x20 ADD PUSH0 KECCAK256 DUP2 SWAP1 SSTORE POP PUSH1 0x1 SWAP1 POP SWAP3 SWAP2 POP POP JUMP JUMPDEST PUSH0 PUSH1 0x5 PUSH0 DUP4 PUSH20 0xFFFFFFFFFFFFFFFFFFFFFFFFFFFFFFFFFFFFFFFF AND PUSH20 0xFFFFFFFFFFFFFFFFFFFFFFFFFFFFFFFFFFFFFFFF AND DUP2 MSTORE PUSH1 0x20 ADD SWAP1 DUP2 MSTORE PUSH1 0x20 ADD PUSH0 KECCAK256 SLOAD SWAP1 POP SWAP2 SWAP1 POP JUMP JUMPDEST PUSH1 0x4 PUSH0 SWAP1 SLOAD SWAP1 PUSH2 0x100 EXP SWAP1 DIV PUSH20 0xFFFFFFFFFFFFFFFFFFFFFFFFFFFFFFFFFFFFFFFF AND DUP2 JUMP JUMPDEST PUSH1 0x1 DUP1 SLOAD PUSH2 0x82F SWAP1 PUSH2 0xF28 JUMP JUMPDEST DUP1 PUSH1 0x1F ADD PUSH1 0x20 DUP1 SWAP2 DIV MUL PUSH1 0x20 ADD PUSH1 0x40 MLOAD SWAP1 DUP2 ADD PUSH1 0x40 MSTORE DUP1 SWAP3 SWAP2 SWAP1 DUP2 DUP2 MSTORE PUSH1 0x20 ADD DUP3 DUP1 SLOAD PUSH2 0x85B SWAP1 PUSH2 0xF28 JUMP JUMPDEST DUP1 ISZERO PUSH2 0x8A6 JUMPI DUP1 PUSH1 0x1F LT PUSH2 0x87D JUMPI PUSH2 0x100 DUP1 DUP4 SLOAD DIV MUL DUP4 MSTORE SWAP2 PUSH1 0x20 ADD SWAP2 PUSH2 0x8A6 JUMP JUMPDEST DUP3 ADD SWAP2 SWAP1 PUSH0 MSTORE PUSH1 0x20 PUSH0 KECCAK256 SWAP1 JUMPDEST DUP2 SLOAD DUP2 MSTORE SWAP1 PUSH1 0x1 ADD SWAP1 PUSH1 0x20 ADD DUP1 DUP4 GT PUSH2 0x889 JUMPI DUP3 SWAP1 SUB PUSH1 0x1F AND DUP3 ADD SWAP2 JUMPDEST POP POP POP POP POP DUP2 JUMP JUMPDEST PUSH0 DUP1 PUSH20 0xFFFFFFFFFFFFFFFFFFFFFFFFFFFFFFFFFFFFFFFF AND DUP5 PUSH20 0xFFFFFFFFFFFFFFFFFFFFFFFFFFFFFFFFFFFFFFFF AND SUB PUSH2 0x91D JUMPI PUSH1 0x40 MLOAD PUSH32 0x8C379A000000000000000000000000000000000000000000000000000000000 DUP2 MSTORE PUSH1 0x4 ADD PUSH2 0x914 SWAP1 PUSH2 0x11D5 JUMP JUMPDEST PUSH1 0x40 MLOAD DUP1 SWAP2 SUB SWAP1 REVERT JUMPDEST PUSH0 PUSH20 0xFFFFFFFFFFFFFFFFFFFFFFFFFFFFFFFFFFFFFFFF AND DUP4 PUSH20 0xFFFFFFFFFFFFFFFFFFFFFFFFFFFFFFFFFFFFFFFF AND SUB PUSH2 0x98B JUMPI PUSH1 0x40 MLOAD PUSH32 0x8C379A000000000000000000000000000000000000000000000000000000000 DUP2 MSTORE PUSH1 0x4 ADD PUSH2 0x982 SWAP1 PUSH2 0xFA2 JUMP JUMPDEST PUSH1 0x40 MLOAD DUP1 SWAP2 SUB SWAP1 REVERT JUMPDEST DUP2 PUSH1 0x5 PUSH0 DUP7 PUSH20 0xFFFFFFFFFFFFFFFFFFFFFFFFFFFFFFFFFFFFFFFF AND PUSH20 0xFFFFFFFFFFFFFFFFFFFFFFFFFFFFFFFFFFFFFFFF AND DUP2 MSTORE PUSH1 0x20 ADD SWAP1 DUP2 MSTORE PUSH1 0x20 ADD PUSH0 KECCAK256 SLOAD LT ISZERO PUSH2 0xA0B JUMPI PUSH1 0x40 MLOAD PUSH32 0x8C379A000000000000000000000000000000000000000000000000000000000 DUP2 MSTORE PUSH1 0x4 ADD PUSH2 0xA02 SWAP1 PUSH2 0x100A JUMP JUMPDEST PUSH1 0x40 MLOAD DUP1 SWAP2 SUB SWAP1 REVERT JUMPDEST DUP2 PUSH1 0x6 PUSH0 CALLER PUSH20 0xFFFFFFFFFFFFFFFFFFFFFFFFFFFFFFFFFFFFFFFF AND PUSH20 0xFFFFFFFFFFFFFFFFFFFFFFFFFFFFFFFFFFFFFFFF AND DUP2 MSTORE PUSH1 0x20 ADD SWAP1 DUP2 MSTORE PUSH1 0x20 ADD PUSH0 KECCAK256 PUSH0 DUP7 PUSH20 0xFFFFFFFFFFFFFFFFFFFFFFFFFFFFFFFFFFFFFFFF AND PUSH20 0xFFFFFFFFFFFFFFFFFFFFFFFFFFFFFFFFFFFFFFFF AND DUP2 MSTORE PUSH1 0x20 ADD SWAP1 DUP2 MSTORE PUSH1 0x20 ADD PUSH0 KECCAK256 SLOAD LT ISZERO PUSH2 0xAC6 JUMPI PUSH1 0x40 MLOAD PUSH32 0x8C379A000000000000000000000000000000000000000000000000000000000 DUP2 MSTORE PUSH1 0x4 ADD PUSH2 0xABD SWAP1 PUSH2 0x1263 JUMP JUMPDEST PUSH1 0x40 MLOAD DUP1 SWAP2 SUB SWAP1 REVERT JUMPDEST DUP3 PUSH20 0xFFFFFFFFFFFFFFFFFFFFFFFFFFFFFFFFFFFFFFFF AND DUP5 PUSH20 0xFFFFFFFFFFFFFFFFFFFFFFFFFFFFFFFFFFFFFFFF AND PUSH32 0x11BED6238792339BBF31423E9E0C55016283657E2817F9DFE2CD8AD8661E72E9 DUP5 PUSH1 0x40 MLOAD PUSH2 0xB23 SWAP2 SWAP1 PUSH2 0xD12 JUMP JUMPDEST PUSH1 0x40 MLOAD DUP1 SWAP2 SUB SWAP1 LOG3 DUP2 PUSH1 0x5 PUSH0 DUP7 PUSH20 0xFFFFFFFFFFFFFFFFFFFFFFFFFFFFFFFFFFFFFFFF AND PUSH20 0xFFFFFFFFFFFFFFFFFFFFFFFFFFFFFFFFFFFFFFFF AND DUP2 MSTORE PUSH1 0x20 ADD SWAP1 DUP2 MSTORE PUSH1 0x20 ADD PUSH0 KECCAK256 PUSH0 DUP3 DUP3 SLOAD PUSH2 0xB77 SWAP2 SWAP1 PUSH2 0x1055 JUMP JUMPDEST SWAP3 POP POP DUP2 SWAP1 SSTORE POP DUP2 PUSH1 0x5 PUSH0 DUP6 PUSH20 0xFFFFFFFFFFFFFFFFFFFFFFFFFFFFFFFFFFFFFFFF AND PUSH20 0xFFFFFFFFFFFFFFFFFFFFFFFFFFFFFFFFFFFFFFFF AND DUP2 MSTORE PUSH1 0x20 ADD SWAP1 DUP2 MSTORE PUSH1 0x20 ADD PUSH0 KECCAK256 PUSH0 DUP3 DUP3 SLOAD PUSH2 0xBCA SWAP2 SWAP1 PUSH2 0x1088 JUMP JUMPDEST SWAP3 POP POP DUP2 SWAP1 SSTORE POP DUP2 PUSH1 0x6 PUSH0 CALLER PUSH20 0xFFFFFFFFFFFFFFFFFFFFFFFFFFFFFFFFFFFFFFFF AND PUSH20 0xFFFFFFFFFFFFFFFFFFFFFFFFFFFFFFFFFFFFFFFF AND DUP2 MSTORE PUSH1 0x20 ADD SWAP1 DUP2 MSTORE PUSH1 0x20 ADD PUSH0 KECCAK256 PUSH0 DUP7 PUSH20 0xFFFFFFFFFFFFFFFFFFFFFFFFFFFFFFFFFFFFFFFF AND PUSH20 0xFFFFFFFFFFFFFFFFFFFFFFFFFFFFFFFFFFFFFFFF AND DUP2 MSTORE PUSH1 0x20 ADD SWAP1 DUP2 MSTORE PUSH1 0x20 ADD PUSH0 KECCAK256 PUSH0 DUP3 DUP3 SLOAD PUSH2 0xC58 SWAP2 SWAP1 PUSH2 0x1055 JUMP JUMPDEST SWAP3 POP POP DUP2 SWAP1 SSTORE POP PUSH1 0x1 SWAP1 POP SWAP4 SWAP3 POP POP POP JUMP JUMPDEST PUSH0 DUP2 MLOAD SWAP1 POP SWAP2 SWAP1 POP JUMP JUMPDEST PUSH0 DUP3 DUP3 MSTORE PUSH1 0x20 DUP3 ADD SWAP1 POP SWAP3 SWAP2 POP POP JUMP JUMPDEST DUP3 DUP2 DUP4 MCOPY PUSH0 DUP4 DUP4 ADD MSTORE POP POP POP JUMP JUMPDEST PUSH0 PUSH1 0x1F NOT PUSH1 0x1F DUP4 ADD AND SWAP1 POP SWAP2 SWAP1 POP JUMP JUMPDEST PUSH0 PUSH2 0xCAC DUP3 PUSH2 0xC6A JUMP JUMPDEST PUSH2 0xCB6 DUP2 DUP6 PUSH2 0xC74 JUMP JUMPDEST SWAP4 POP PUSH2 0xCC6 DUP2 DUP6 PUSH1 0x20 DUP7 ADD PUSH2 0xC84 JUMP JUMPDEST PUSH2 0xCCF DUP2 PUSH2 0xC92 JUMP JUMPDEST DUP5 ADD SWAP2 POP POP SWAP3 SWAP2 POP POP JUMP JUMPDEST PUSH0 PUSH1 0x20 DUP3 ADD SWAP1 POP DUP2 DUP2 SUB PUSH0 DUP4 ADD MSTORE PUSH2 0xCF2 DUP2 DUP5 PUSH2 0xCA2 JUMP JUMPDEST SWAP1 POP SWAP3 SWAP2 POP POP JUMP JUMPDEST PUSH0 DUP2 SWAP1 POP SWAP2 SWAP1 POP JUMP JUMPDEST PUSH2 0xD0C DUP2 PUSH2 0xCFA JUMP JUMPDEST DUP3 MSTORE POP POP JUMP JUMPDEST PUSH0 PUSH1 0x20 DUP3 ADD SWAP1 POP PUSH2 0xD25 PUSH0 DUP4 ADD DUP5 PUSH2 0xD03 JUMP JUMPDEST SWAP3 SWAP2 POP POP JUMP JUMPDEST PUSH0 PUSH1 0xFF DUP3 AND SWAP1 POP SWAP2 SWAP1 POP JUMP JUMPDEST PUSH2 0xD40 DUP2 PUSH2 0xD2B JUMP JUMPDEST DUP3 MSTORE POP POP JUMP JUMPDEST PUSH0 PUSH1 0x20 DUP3 ADD SWAP1 POP PUSH2 0xD59 PUSH0 DUP4 ADD DUP5 PUSH2 0xD37 JUMP JUMPDEST SWAP3 SWAP2 POP POP JUMP JUMPDEST PUSH0 DUP1 REVERT JUMPDEST PUSH0 PUSH20 0xFFFFFFFFFFFFFFFFFFFFFFFFFFFFFFFFFFFFFFFF DUP3 AND SWAP1 POP SWAP2 SWAP1 POP JUMP JUMPDEST PUSH0 PUSH2 0xD8C DUP3 PUSH2 0xD63 JUMP JUMPDEST SWAP1 POP SWAP2 SWAP1 POP JUMP JUMPDEST PUSH2 0xD9C DUP2 PUSH2 0xD82 JUMP JUMPDEST DUP2 EQ PUSH2 0xDA6 JUMPI PUSH0 DUP1 REVERT JUMPDEST POP JUMP JUMPDEST PUSH0 DUP2 CALLDATALOAD SWAP1 POP PUSH2 0xDB7 DUP2 PUSH2 0xD93 JUMP JUMPDEST SWAP3 SWAP2 POP POP JUMP JUMPDEST PUSH2 0xDC6 DUP2 PUSH2 0xCFA JUMP JUMPDEST DUP2 EQ PUSH2 0xDD0 JUMPI PUSH0 DUP1 REVERT JUMPDEST POP JUMP JUMPDEST PUSH0 DUP2 CALLDATALOAD SWAP1 POP PUSH2 0xDE1 DUP2 PUSH2 0xDBD JUMP JUMPDEST SWAP3 SWAP2 POP POP JUMP JUMPDEST PUSH0 DUP1 PUSH1 0x40 DUP4 DUP6 SUB SLT ISZERO PUSH2 0xDFD JUMPI PUSH2 0xDFC PUSH2 0xD5F JUMP JUMPDEST JUMPDEST PUSH0 PUSH2 0xE0A DUP6 DUP3 DUP7 ADD PUSH2 0xDA9 JUMP JUMPDEST SWAP3 POP POP PUSH1 0x20 PUSH2 0xE1B DUP6 DUP3 DUP7 ADD PUSH2 0xDD3 JUMP JUMPDEST SWAP2 POP POP SWAP3 POP SWAP3 SWAP1 POP JUMP JUMPDEST PUSH0 DUP2 ISZERO ISZERO SWAP1 POP SWAP2 SWAP1 POP JUMP JUMPDEST PUSH2 0xE39 DUP2 PUSH2 0xE25 JUMP JUMPDEST DUP3 MSTORE POP POP JUMP JUMPDEST PUSH0 PUSH1 0x20 DUP3 ADD SWAP1 POP PUSH2 0xE52 PUSH0 DUP4 ADD DUP5 PUSH2 0xE30 JUMP JUMPDEST SWAP3 SWAP2 POP POP JUMP JUMPDEST PUSH0 PUSH1 0x20 DUP3 DUP5 SUB SLT ISZERO PUSH2 0xE6D JUMPI PUSH2 0xE6C PUSH2 0xD5F JUMP JUMPDEST JUMPDEST PUSH0 PUSH2 0xE7A DUP5 DUP3 DUP6 ADD PUSH2 0xDA9 JUMP JUMPDEST SWAP2 POP POP SWAP3 SWAP2 POP POP JUMP JUMPDEST PUSH2 0xE8C DUP2 PUSH2 0xD82 JUMP JUMPDEST DUP3 MSTORE POP POP JUMP JUMPDEST PUSH0 PUSH1 0x20 DUP3 ADD SWAP1 POP PUSH2 0xEA5 PUSH0 DUP4 ADD DUP5 PUSH2 0xE83 JUMP JUMPDEST SWAP3 SWAP2 POP POP JUMP JUMPDEST PUSH0 DUP1 PUSH0 PUSH1 0x60 DUP5 DUP7 SUB SLT ISZERO PUSH2 0xEC2 JUMPI PUSH2 0xEC1 PUSH2 0xD5F JUMP JUMPDEST JUMPDEST PUSH0 PUSH2 0xECF DUP7 DUP3 DUP8 ADD PUSH2 0xDA9 JUMP JUMPDEST SWAP4 POP POP PUSH1 0x20 PUSH2 0xEE0 DUP7 DUP3 DUP8 ADD PUSH2 0xDA9 JUMP JUMPDEST SWAP3 POP POP PUSH1 0x40 PUSH2 0xEF1 DUP7 DUP3 DUP8 ADD PUSH2 0xDD3 JUMP JUMPDEST SWAP2 POP POP SWAP3 POP SWAP3 POP SWAP3 JUMP JUMPDEST PUSH32 0x4E487B7100000000000000000000000000000000000000000000000000000000 PUSH0 MSTORE PUSH1 0x22 PUSH1 0x4 MSTORE PUSH1 0x24 PUSH0 REVERT JUMPDEST PUSH0 PUSH1 0x2 DUP3 DIV SWAP1 POP PUSH1 0x1 DUP3 AND DUP1 PUSH2 0xF3F JUMPI PUSH1 0x7F DUP3 AND SWAP2 POP JUMPDEST PUSH1 0x20 DUP3 LT DUP2 SUB PUSH2 0xF52 JUMPI PUSH2 0xF51 PUSH2 0xEFB JUMP JUMPDEST JUMPDEST POP SWAP2 SWAP1 POP JUMP JUMPDEST PUSH32 0x746F206973207A65726F20616464726573730000000000000000000000000000 PUSH0 DUP3 ADD MSTORE POP JUMP JUMPDEST PUSH0 PUSH2 0xF8C PUSH1 0x12 DUP4 PUSH2 0xC74 JUMP JUMPDEST SWAP2 POP PUSH2 0xF97 DUP3 PUSH2 0xF58 JUMP JUMPDEST PUSH1 0x20 DUP3 ADD SWAP1 POP SWAP2 SWAP1 POP JUMP JUMPDEST PUSH0 PUSH1 0x20 DUP3 ADD SWAP1 POP DUP2 DUP2 SUB PUSH0 DUP4 ADD MSTORE PUSH2 0xFB9 DUP2 PUSH2 0xF80 JUMP JUMPDEST SWAP1 POP SWAP2 SWAP1 POP JUMP JUMPDEST PUSH32 0x6C656674206C657373207468616E2063757272656E742062616C616E63650000 PUSH0 DUP3 ADD MSTORE POP JUMP JUMPDEST PUSH0 PUSH2 0xFF4 PUSH1 0x1E DUP4 PUSH2 0xC74 JUMP JUMPDEST SWAP2 POP PUSH2 0xFFF DUP3 PUSH2 0xFC0 JUMP JUMPDEST PUSH1 0x20 DUP3 ADD SWAP1 POP SWAP2 SWAP1 POP JUMP JUMPDEST PUSH0 PUSH1 0x20 DUP3 ADD SWAP1 POP DUP2 DUP2 SUB PUSH0 DUP4 ADD MSTORE PUSH2 0x1021 DUP2 PUSH2 0xFE8 JUMP JUMPDEST SWAP1 POP SWAP2 SWAP1 POP JUMP JUMPDEST PUSH32 0x4E487B7100000000000000000000000000000000000000000000000000000000 PUSH0 MSTORE PUSH1 0x11 PUSH1 0x4 MSTORE PUSH1 0x24 PUSH0 REVERT JUMPDEST PUSH0 PUSH2 0x105F DUP3 PUSH2 0xCFA JUMP JUMPDEST SWAP2 POP PUSH2 0x106A DUP4 PUSH2 0xCFA JUMP JUMPDEST SWAP3 POP DUP3 DUP3 SUB SWAP1 POP DUP2 DUP2 GT ISZERO PUSH2 0x1082 JUMPI PUSH2 0x1081 PUSH2 0x1028 JUMP JUMPDEST JUMPDEST SWAP3 SWAP2 POP POP JUMP JUMPDEST PUSH0 PUSH2 0x1092 DUP3 PUSH2 0xCFA JUMP JUMPDEST SWAP2 POP PUSH2 0x109D DUP4 PUSH2 0xCFA JUMP JUMPDEST SWAP3 POP DUP3 DUP3 ADD SWAP1 POP DUP1 DUP3 GT ISZERO PUSH2 0x10B5 JUMPI PUSH2 0x10B4 PUSH2 0x1028 JUMP JUMPDEST JUMPDEST SWAP3 SWAP2 POP POP JUMP JUMPDEST PUSH32 0x4E4F5420697320636F6E7472616374206F776E65720000000000000000000000 PUSH0 DUP3 ADD MSTORE POP JUMP JUMPDEST PUSH0 PUSH2 0x10EF PUSH1 0x15 DUP4 PUSH2 0xC74 JUMP JUMPDEST SWAP2 POP PUSH2 0x10FA DUP3 PUSH2 0x10BB JUMP JUMPDEST PUSH1 0x20 DUP3 ADD SWAP1 POP SWAP2 SWAP1 POP JUMP JUMPDEST PUSH0 PUSH1 0x20 DUP3 ADD SWAP1 POP DUP2 DUP2 SUB PUSH0 DUP4 ADD MSTORE PUSH2 0x111C DUP2 PUSH2 0x10E3 JUMP JUMPDEST SWAP1 POP SWAP2 SWAP1 POP JUMP JUMPDEST PUSH32 0x7370656E646572206973207A65726F2061646472657373000000000000000000 PUSH0 DUP3 ADD MSTORE POP JUMP JUMPDEST PUSH0 PUSH2 0x1157 PUSH1 0x17 DUP4 PUSH2 0xC74 JUMP JUMPDEST SWAP2 POP PUSH2 0x1162 DUP3 PUSH2 0x1123 JUMP JUMPDEST PUSH1 0x20 DUP3 ADD SWAP1 POP SWAP2 SWAP1 POP JUMP JUMPDEST PUSH0 PUSH1 0x20 DUP3 ADD SWAP1 POP DUP2 DUP2 SUB PUSH0 DUP4 ADD MSTORE PUSH2 0x1184 DUP2 PUSH2 0x114B JUMP JUMPDEST SWAP1 POP SWAP2 SWAP1 POP JUMP JUMPDEST PUSH32 0x66726F6D206973207A65726F2061646472657373000000000000000000000000 PUSH0 DUP3 ADD MSTORE POP JUMP JUMPDEST PUSH0 PUSH2 0x11BF PUSH1 0x14 DUP4 PUSH2 0xC74 JUMP JUMPDEST SWAP2 POP PUSH2 0x11CA DUP3 PUSH2 0x118B JUMP JUMPDEST PUSH1 0x20 DUP3 ADD SWAP1 POP SWAP2 SWAP1 POP JUMP JUMPDEST PUSH0 PUSH1 0x20 DUP3 ADD SWAP1 POP DUP2 DUP2 SUB PUSH0 DUP4 ADD MSTORE PUSH2 0x11EC DUP2 PUSH2 0x11B3 JUMP JUMPDEST SWAP1 POP SWAP2 SWAP1 POP JUMP JUMPDEST PUSH32 0x61757468206C656674206C657373207468616E2063757272656E742062616C61 PUSH0 DUP3 ADD MSTORE PUSH32 0x6E63650000000000000000000000000000000000000000000000000000000000 PUSH1 0x20 DUP3 ADD MSTORE POP JUMP JUMPDEST PUSH0 PUSH2 0x124D PUSH1 0x23 DUP4 PUSH2 0xC74 JUMP JUMPDEST SWAP2 POP PUSH2 0x1258 DUP3 PUSH2 0x11F3 JUMP JUMPDEST PUSH1 0x40 DUP3 ADD SWAP1 POP SWAP2 SWAP1 POP JUMP JUMPDEST PUSH0 PUSH1 0x20 DUP3 ADD SWAP1 POP DUP2 DUP2 SUB PUSH0 DUP4 ADD MSTORE PUSH2 0x127A DUP2 PUSH2 0x1241 JUMP JUMPDEST SWAP1 POP SWAP2 SWAP1 POP JUMP INVALID LOG2 PUSH5 0x6970667358 0x22 SLT KECCAK256 0x4D 0xFB 0xE9 0xC0 SLT 0xB3 LOG4 CODESIZE 0xB8 0x22 BLOBBASEFEE 0xB4 LOG4 SWAP9 PUSH21 0x95CEC2029E8CC4F79938D9007F906329064736F6C PUSH4 0x4300081A STOP CALLER "
				},
				"gasEstimates": {
					"creation": {
						"codeDepositCost": "958200",
						"executionCost": "infinite",
						"totalCost": "infinite"
					},
					"external": {
						"appro(address,uint256)": "infinite",
						"decimals()": "2511",
						"getbalance(address)": "2851",
						"mint(address,uint256)": "infinite",
						"name()": "infinite",
						"owner()": "2552",
						"symbol()": "infinite",
						"totalSupply()": "2448",
						"trans(address,uint256)": "infinite",
						"transfrom(address,address,uint256)": "infinite"
					}
				},
				"methodIdentifiers": {
					"appro(address,uint256)": "527d765f",
					"decimals()": "313ce567",
					"getbalance(address)": "68116177",
					"mint(address,uint256)": "40c10f19",
					"name()": "06fdde03",
					"owner()": "8da5cb5b",
					"symbol()": "95d89b41",
					"totalSupply()": "18160ddd",
					"trans(address,uint256)": "3d2bc6de",
					"transfrom(address,address,uint256)": "fbe76c4d"
				}
			},
			"storageLayout": {
				"storage": [
					{
						"astId": 3,
						"contract": "solidity/task2/ERC20task.sol:ERC20Test",
						"label": "name",
						"offset": 0,
						"slot": "0",
						"type": "t_string_storage"
					},
					{
						"astId": 5,
						"contract": "solidity/task2/ERC20task.sol:ERC20Test",
						"label": "symbol",
						"offset": 0,
						"slot": "1",
						"type": "t_string_storage"
					},
					{
						"astId": 7,
						"contract": "solidity/task2/ERC20task.sol:ERC20Test",
						"label": "decimals",
						"offset": 0,
						"slot": "2",
						"type": "t_uint8"
					},
					{
						"astId": 9,
						"contract": "solidity/task2/ERC20task.sol:ERC20Test",
						"label": "totalSupply",
						"offset": 0,
						"slot": "3",
						"type": "t_uint256"
					},
					{
						"astId": 13,
						"contract": "solidity/task2/ERC20task.sol:ERC20Test",
						"label": "owner",
						"offset": 0,
						"slot": "4",
						"type": "t_address"
					},
					{
						"astId": 39,
						"contract": "solidity/task2/ERC20task.sol:ERC20Test",
						"label": "balances",
						"offset": 0,
						"slot": "5",
						"type": "t_mapping(t_address,t_uint256)"
					},
					{
						"astId": 45,
						"contract": "solidity/task2/ERC20task.sol:ERC20Test",
						"label": "allowance",
						"offset": 0,
						"slot": "6",
						"type": "t_mapping(t_address,t_mapping(t_address,t_uint256))"
					}
				],
				"types": {
					"t_address": {
						"encoding": "inplace",
						"label": "address",
						"numberOfBytes": "20"
					},
					"t_mapping(t_address,t_mapping(t_address,t_uint256))": {
						"encoding": "mapping",
						"key": "t_address",
						"label": "mapping(address => mapping(address => uint256))",
						"numberOfBytes": "32",
						"value": "t_mapping(t_address,t_uint256)"
					},
					"t_mapping(t_address,t_uint256)": {
						"encoding": "mapping",
						"key": "t_address",
						"label": "mapping(address => uint256)",
						"numberOfBytes": "32",
						"value": "t_uint256"
					},
					"t_string_storage": {
						"encoding": "bytes",
						"label": "string",
						"numberOfBytes": "32"
					},
					"t_uint256": {
						"encoding": "inplace",
						"label": "uint256",
						"numberOfBytes": "32"
					},
					"t_uint8": {
						"encoding": "inplace",
						"label": "uint8",
						"numberOfBytes": "1"
					}
				}
			},
			"userdoc": {
				"kind": "user",
				"methods": {},
				"version": 1
			}
		}
	}
}