{
	"solidity/soliditybase/banktest.sol": {
		"Bank": {
			"abi": [
				{
					"anonymous": false,
					"inputs": [
						{
							"indexed": false,
							"internalType": "bytes",
							"name": "input",
							"type": "bytes"
						},
						{
							"indexed": false,
							"internalType": "bytes",
							"name": "output",
							"type": "bytes"
						}
					],
					"name": "Calllog",
					"type": "event"
				},
				{
					"inputs": [
						{
							"internalType": "bytes",
							"name": "input",
							"type": "bytes"
						}
					],
					"name": "withdrawWithCall",
					"outputs": [],
					"stateMutability": "nonpayable",
					"type": "function"
				},
				{
					"inputs": [],
					"name": "withdrawWithSend",
					"outputs": [],
					"stateMutability": "nonpayable",
					"type": "function"
				},
				{
					"inputs": [],
					"name": "withdrawWithTransfer",
					"outputs": [],
					"stateMutability": "nonpayable",
					"type": "function"
				},
				{
					"stateMutability": "payable",
					"type": "receive"
				}
			],
			"devdoc": {
				"kind": "dev",
				"methods": {},
				"version": 1
			},
			"evm": {
				"assembly": "    /* \"solidity/soliditybase/banktest.sol\":58:638  contract Bank{... */\n  mstore(0x40, 0x80)\n  callvalue\n  dup1\n  iszero\n  tag_1\n  jumpi\n  0x00\n  dup1\n  revert\ntag_1:\n  pop\n  dataSize(sub_0)\n  dup1\n  dataOffset(sub_0)\n  0x00\n  codecopy\n  0x00\n  return\nstop\n\nsub_0: assembly {\n        /* \"solidity/soliditybase/banktest.sol\":58:638  contract Bank{... */\n      mstore(0x40, 0x80)\n      jumpi(tag_1, lt(calldatasize, 0x04))\n      shr(0xe0, calldataload(0x00))\n      dup1\n      0x2f364213\n      eq\n      tag_3\n      jumpi\n      dup1\n      0x3dc31f50\n      eq\n      tag_4\n      jumpi\n      dup1\n      0x8d85ffa0\n      eq\n      tag_5\n      jumpi\n      jump(tag_2)\n    tag_1:\n      jumpi(tag_2, calldatasize)\n      stop\n    tag_2:\n      0x00\n      dup1\n      revert\n        /* \"solidity/soliditybase/banktest.sol\":265:402  function withdrawWithSend() external{... */\n    tag_3:\n      callvalue\n      dup1\n      iszero\n      tag_8\n      jumpi\n      0x00\n      dup1\n      revert\n    tag_8:\n      pop\n      tag_9\n      tag_10\n      jump\t// in\n    tag_9:\n      stop\n        /* \"solidity/soliditybase/banktest.sol\":408:633  function withdrawWithCall(bytes memory input) external{... */\n    tag_4:\n      callvalue\n      dup1\n      iszero\n      tag_11\n      jumpi\n      0x00\n      dup1\n      revert\n    tag_11:\n      pop\n      tag_12\n      0x04\n      dup1\n      calldatasize\n      sub\n      dup2\n      add\n      swap1\n      tag_13\n      swap2\n      swap1\n      tag_14\n      jump\t// in\n    tag_13:\n      tag_15\n      jump\t// in\n    tag_12:\n      stop\n        /* \"solidity/soliditybase/banktest.sol\":163:259  function withdrawWithTransfer() external{... */\n    tag_5:\n      callvalue\n      dup1\n      iszero\n      tag_16\n      jumpi\n      0x00\n      dup1\n      revert\n    tag_16:\n      pop\n      tag_17\n      tag_18\n      jump\t// in\n    tag_17:\n      stop\n        /* \"solidity/soliditybase/banktest.sol\":265:402  function withdrawWithSend() external{... */\n    tag_10:\n        /* \"solidity/soliditybase/banktest.sol\":312:320  bool suc */\n      0x00\n        /* \"solidity/soliditybase/banktest.sol\":331:341  msg.sender */\n      caller\n        /* \"solidity/soliditybase/banktest.sol\":323:347  payable(msg.sender).send */\n      0xffffffffffffffffffffffffffffffffffffffff\n      and\n        /* \"solidity/soliditybase/banktest.sol\":323:356  payable(msg.sender).send(1 ether) */\n      0x08fc\n        /* \"solidity/soliditybase/banktest.sol\":348:355  1 ether */\n      0x0de0b6b3a7640000\n        /* \"solidity/soliditybase/banktest.sol\":323:356  payable(msg.sender).send(1 ether) */\n      swap1\n      dup2\n      iszero\n      mul\n      swap1\n      mload(0x40)\n      0x00\n      mload(0x40)\n      dup1\n      dup4\n      sub\n      dup2\n      dup6\n      dup9\n      dup9\n      call\n      swap4\n      pop\n      pop\n      pop\n      pop\n        /* \"solidity/soliditybase/banktest.sol\":312:356  bool suc = payable(msg.sender).send(1 ether) */\n      swap1\n      pop\n        /* \"solidity/soliditybase/banktest.sol\":375:378  suc */\n      dup1\n        /* \"solidity/soliditybase/banktest.sol\":367:394  require(suc, \"send failed\") */\n      tag_21\n      jumpi\n      mload(0x40)\n      0x08c379a000000000000000000000000000000000000000000000000000000000\n      dup2\n      mstore\n      0x04\n      add\n      tag_22\n      swap1\n      tag_23\n      jump\t// in\n    tag_22:\n      mload(0x40)\n      dup1\n      swap2\n      sub\n      swap1\n      revert\n    tag_21:\n        /* \"solidity/soliditybase/banktest.sol\":301:402  {... */\n      pop\n        /* \"solidity/soliditybase/banktest.sol\":265:402  function withdrawWithSend() external{... */\n      jump\t// out\n        /* \"solidity/soliditybase/banktest.sol\":408:633  function withdrawWithCall(bytes memory input) external{... */\n    tag_15:\n        /* \"solidity/soliditybase/banktest.sol\":474:482  bool suc */\n      0x00\n        /* \"solidity/soliditybase/banktest.sol\":483:500  bytes memory data */\n      dup1\n        /* \"solidity/soliditybase/banktest.sol\":512:522  msg.sender */\n      caller\n        /* \"solidity/soliditybase/banktest.sol\":504:528  payable(msg.sender).call */\n      0xffffffffffffffffffffffffffffffffffffffff\n      and\n        /* \"solidity/soliditybase/banktest.sol\":536:543  1 ether */\n      0x0de0b6b3a7640000\n        /* \"solidity/soliditybase/banktest.sol\":545:550  input */\n      dup5\n        /* \"solidity/soliditybase/banktest.sol\":504:551  payable(msg.sender).call{value: 1 ether}(input) */\n      mload(0x40)\n      tag_25\n      swap2\n      swap1\n      tag_26\n      jump\t// in\n    tag_25:\n      0x00\n      mload(0x40)\n      dup1\n      dup4\n      sub\n      dup2\n      dup6\n      dup8\n      gas\n      call\n      swap3\n      pop\n      pop\n      pop\n      returndatasize\n      dup1\n      0x00\n      dup2\n      eq\n      tag_29\n      jumpi\n      mload(0x40)\n      swap2\n      pop\n      and(add(returndatasize, 0x3f), not(0x1f))\n      dup3\n      add\n      0x40\n      mstore\n      returndatasize\n      dup3\n      mstore\n      returndatasize\n      0x00\n      0x20\n      dup5\n      add\n      returndatacopy\n      jump(tag_28)\n    tag_29:\n      0x60\n      swap2\n      pop\n    tag_28:\n      pop\n        /* \"solidity/soliditybase/banktest.sol\":473:551  (bool suc,bytes memory data) = payable(msg.sender).call{value: 1 ether}(input) */\n      swap2\n      pop\n      swap2\n      pop\n        /* \"solidity/soliditybase/banktest.sol\":570:573  suc */\n      dup2\n        /* \"solidity/soliditybase/banktest.sol\":562:589  require(suc, \"call failed\") */\n      tag_30\n      jumpi\n      mload(0x40)\n      0x08c379a000000000000000000000000000000000000000000000000000000000\n      dup2\n      mstore\n      0x04\n      add\n      tag_31\n      swap1\n      tag_32\n      jump\t// in\n    tag_31:\n      mload(0x40)\n      dup1\n      swap2\n      sub\n      swap1\n      revert\n    tag_30:\n        /* \"solidity/soliditybase/banktest.sol\":605:625  Calllog(input, data) */\n      0x03f56ef7f4dc3bae43391899b5c0096cb80a6510bb5931b0f97dc14b940d5159\n        /* \"solidity/soliditybase/banktest.sol\":613:618  input */\n      dup4\n        /* \"solidity/soliditybase/banktest.sol\":620:624  data */\n      dup3\n        /* \"solidity/soliditybase/banktest.sol\":605:625  Calllog(input, data) */\n      mload(0x40)\n      tag_33\n      swap3\n      swap2\n      swap1\n      tag_34\n      jump\t// in\n    tag_33:\n      mload(0x40)\n      dup1\n      swap2\n      sub\n      swap1\n      log1\n        /* \"solidity/soliditybase/banktest.sol\":462:633  {... */\n      pop\n      pop\n        /* \"solidity/soliditybase/banktest.sol\":408:633  function withdrawWithCall(bytes memory input) external{... */\n      pop\n      jump\t// out\n        /* \"solidity/soliditybase/banktest.sol\":163:259  function withdrawWithTransfer() external{... */\n    tag_18:\n        /* \"solidity/soliditybase/banktest.sol\":222:232  msg.sender */\n      caller\n        /* \"solidity/soliditybase/banktest.sol\":214:242  payable(msg.sender).transfer */\n      0xffffffffffffffffffffffffffffffffffffffff\n      and\n        /* \"solidity/soliditybase/banktest.sol\":214:251  payable(msg.sender).transfer(1 ether) */\n      0x08fc\n        /* \"solidity/soliditybase/banktest.sol\":243:250  1 ether */\n      0x0de0b6b3a7640000\n        /* \"solidity/soliditybase/banktest.sol\":214:251  payable(msg.sender).transfer(1 ether) */\n      swap1\n      dup2\n      iszero\n      mul\n      swap1\n      mload(0x40)\n      0x00\n      mload(0x40)\n      dup1\n      dup4\n      sub\n      dup2\n      dup6\n      dup9\n      dup9\n      call\n      swap4\n      pop\n      pop\n      pop\n      pop\n      iszero\n      dup1\n      iszero\n      tag_37\n      jumpi\n      returndatasize\n      0x00\n      dup1\n      returndatacopy\n      revert(0x00, returndatasize)\n    tag_37:\n      pop\n        /* \"solidity/soliditybase/banktest.sol\":163:259  function withdrawWithTransfer() external{... */\n      jump\t// out\n        /* \"#utility.yul\":7:82   */\n    tag_38:\n        /* \"#utility.yul\":40:46   */\n      0x00\n        /* \"#utility.yul\":73:75   */\n      0x40\n        /* \"#utility.yul\":67:76   */\n      mload\n        /* \"#utility.yul\":57:76   */\n      swap1\n      pop\n        /* \"#utility.yul\":7:82   */\n      swap1\n      jump\t// out\n        /* \"#utility.yul\":88:205   */\n    tag_39:\n        /* \"#utility.yul\":197:198   */\n      0x00\n        /* \"#utility.yul\":194:195   */\n      dup1\n        /* \"#utility.yul\":187:199   */\n      revert\n        /* \"#utility.yul\":211:328   */\n    tag_40:\n        /* \"#utility.yul\":320:321   */\n      0x00\n        /* \"#utility.yul\":317:318   */\n      dup1\n        /* \"#utility.yul\":310:322   */\n      revert\n        /* \"#utility.yul\":334:451   */\n    tag_41:\n        /* \"#utility.yul\":443:444   */\n      0x00\n        /* \"#utility.yul\":440:441   */\n      dup1\n        /* \"#utility.yul\":433:445   */\n      revert\n        /* \"#utility.yul\":457:574   */\n    tag_42:\n        /* \"#utility.yul\":566:567   */\n      0x00\n        /* \"#utility.yul\":563:564   */\n      dup1\n        /* \"#utility.yul\":556:568   */\n      revert\n        /* \"#utility.yul\":580:682   */\n    tag_43:\n        /* \"#utility.yul\":621:627   */\n      0x00\n        /* \"#utility.yul\":672:674   */\n      0x1f\n        /* \"#utility.yul\":668:675   */\n      not\n        /* \"#utility.yul\":663:665   */\n      0x1f\n        /* \"#utility.yul\":656:661   */\n      dup4\n        /* \"#utility.yul\":652:666   */\n      add\n        /* \"#utility.yul\":648:676   */\n      and\n        /* \"#utility.yul\":638:676   */\n      swap1\n      pop\n        /* \"#utility.yul\":580:682   */\n      swap2\n      swap1\n      pop\n      jump\t// out\n        /* \"#utility.yul\":688:868   */\n    tag_44:\n        /* \"#utility.yul\":736:813   */\n      0x4e487b7100000000000000000000000000000000000000000000000000000000\n        /* \"#utility.yul\":733:734   */\n      0x00\n        /* \"#utility.yul\":726:814   */\n      mstore\n        /* \"#utility.yul\":833:837   */\n      0x41\n        /* \"#utility.yul\":830:831   */\n      0x04\n        /* \"#utility.yul\":823:838   */\n      mstore\n        /* \"#utility.yul\":857:861   */\n      0x24\n        /* \"#utility.yul\":854:855   */\n      0x00\n        /* \"#utility.yul\":847:862   */\n      revert\n        /* \"#utility.yul\":874:1155   */\n    tag_45:\n        /* \"#utility.yul\":957:984   */\n      tag_71\n        /* \"#utility.yul\":979:983   */\n      dup3\n        /* \"#utility.yul\":957:984   */\n      tag_43\n      jump\t// in\n    tag_71:\n        /* \"#utility.yul\":949:955   */\n      dup2\n        /* \"#utility.yul\":945:985   */\n      add\n        /* \"#utility.yul\":1087:1093   */\n      dup2\n        /* \"#utility.yul\":1075:1085   */\n      dup2\n        /* \"#utility.yul\":1072:1094   */\n      lt\n        /* \"#utility.yul\":1051:1069   */\n      0xffffffffffffffff\n        /* \"#utility.yul\":1039:1049   */\n      dup3\n        /* \"#utility.yul\":1036:1070   */\n      gt\n        /* \"#utility.yul\":1033:1095   */\n      or\n        /* \"#utility.yul\":1030:1118   */\n      iszero\n      tag_72\n      jumpi\n        /* \"#utility.yul\":1098:1116   */\n      tag_73\n      tag_44\n      jump\t// in\n    tag_73:\n        /* \"#utility.yul\":1030:1118   */\n    tag_72:\n        /* \"#utility.yul\":1138:1148   */\n      dup1\n        /* \"#utility.yul\":1134:1136   */\n      0x40\n        /* \"#utility.yul\":1127:1149   */\n      mstore\n        /* \"#utility.yul\":917:1155   */\n      pop\n        /* \"#utility.yul\":874:1155   */\n      pop\n      pop\n      jump\t// out\n        /* \"#utility.yul\":1161:1290   */\n    tag_46:\n        /* \"#utility.yul\":1195:1201   */\n      0x00\n        /* \"#utility.yul\":1222:1242   */\n      tag_75\n      tag_38\n      jump\t// in\n    tag_75:\n        /* \"#utility.yul\":1212:1242   */\n      swap1\n      pop\n        /* \"#utility.yul\":1251:1284   */\n      tag_76\n        /* \"#utility.yul\":1279:1283   */\n      dup3\n        /* \"#utility.yul\":1271:1277   */\n      dup3\n        /* \"#utility.yul\":1251:1284   */\n      tag_45\n      jump\t// in\n    tag_76:\n        /* \"#utility.yul\":1161:1290   */\n      swap2\n      swap1\n      pop\n      jump\t// out\n        /* \"#utility.yul\":1296:1603   */\n    tag_47:\n        /* \"#utility.yul\":1357:1361   */\n      0x00\n        /* \"#utility.yul\":1447:1465   */\n      0xffffffffffffffff\n        /* \"#utility.yul\":1439:1445   */\n      dup3\n        /* \"#utility.yul\":1436:1466   */\n      gt\n        /* \"#utility.yul\":1433:1489   */\n      iszero\n      tag_78\n      jumpi\n        /* \"#utility.yul\":1469:1487   */\n      tag_79\n      tag_44\n      jump\t// in\n    tag_79:\n        /* \"#utility.yul\":1433:1489   */\n    tag_78:\n        /* \"#utility.yul\":1507:1536   */\n      tag_80\n        /* \"#utility.yul\":1529:1535   */\n      dup3\n        /* \"#utility.yul\":1507:1536   */\n      tag_43\n      jump\t// in\n    tag_80:\n        /* \"#utility.yul\":1499:1536   */\n      swap1\n      pop\n        /* \"#utility.yul\":1591:1595   */\n      0x20\n        /* \"#utility.yul\":1585:1589   */\n      dup2\n        /* \"#utility.yul\":1581:1596   */\n      add\n        /* \"#utility.yul\":1573:1596   */\n      swap1\n      pop\n        /* \"#utility.yul\":1296:1603   */\n      swap2\n      swap1\n      pop\n      jump\t// out\n        /* \"#utility.yul\":1609:1757   */\n    tag_48:\n        /* \"#utility.yul\":1707:1713   */\n      dup3\n        /* \"#utility.yul\":1702:1705   */\n      dup2\n        /* \"#utility.yul\":1697:1700   */\n      dup4\n        /* \"#utility.yul\":1684:1714   */\n      calldatacopy\n        /* \"#utility.yul\":1748:1749   */\n      0x00\n        /* \"#utility.yul\":1739:1745   */\n      dup4\n        /* \"#utility.yul\":1734:1737   */\n      dup4\n        /* \"#utility.yul\":1730:1746   */\n      add\n        /* \"#utility.yul\":1723:1750   */\n      mstore\n        /* \"#utility.yul\":1609:1757   */\n      pop\n      pop\n      pop\n      jump\t// out\n        /* \"#utility.yul\":1763:2186   */\n    tag_49:\n        /* \"#utility.yul\":1840:1845   */\n      0x00\n        /* \"#utility.yul\":1865:1930   */\n      tag_83\n        /* \"#utility.yul\":1881:1929   */\n      tag_84\n        /* \"#utility.yul\":1922:1928   */\n      dup5\n        /* \"#utility.yul\":1881:1929   */\n      tag_47\n      jump\t// in\n    tag_84:\n        /* \"#utility.yul\":1865:1930   */\n      tag_46\n      jump\t// in\n    tag_83:\n        /* \"#utility.yul\":1856:1930   */\n      swap1\n      pop\n        /* \"#utility.yul\":1953:1959   */\n      dup3\n        /* \"#utility.yul\":1946:1951   */\n      dup2\n        /* \"#utility.yul\":1939:1960   */\n      mstore\n        /* \"#utility.yul\":1991:1995   */\n      0x20\n        /* \"#utility.yul\":1984:1989   */\n      dup2\n        /* \"#utility.yul\":1980:1996   */\n      add\n        /* \"#utility.yul\":2029:2032   */\n      dup5\n        /* \"#utility.yul\":2020:2026   */\n      dup5\n        /* \"#utility.yul\":2015:2018   */\n      dup5\n        /* \"#utility.yul\":2011:2027   */\n      add\n        /* \"#utility.yul\":2008:2033   */\n      gt\n        /* \"#utility.yul\":2005:2117   */\n      iszero\n      tag_85\n      jumpi\n        /* \"#utility.yul\":2036:2115   */\n      tag_86\n      tag_42\n      jump\t// in\n    tag_86:\n        /* \"#utility.yul\":2005:2117   */\n    tag_85:\n        /* \"#utility.yul\":2126:2180   */\n      tag_87\n        /* \"#utility.yul\":2173:2179   */\n      dup5\n        /* \"#utility.yul\":2168:2171   */\n      dup3\n        /* \"#utility.yul\":2163:2166   */\n      dup6\n        /* \"#utility.yul\":2126:2180   */\n      tag_48\n      jump\t// in\n    tag_87:\n        /* \"#utility.yul\":1846:2186   */\n      pop\n        /* \"#utility.yul\":1763:2186   */\n      swap4\n      swap3\n      pop\n      pop\n      pop\n      jump\t// out\n        /* \"#utility.yul\":2205:2543   */\n    tag_50:\n        /* \"#utility.yul\":2260:2265   */\n      0x00\n        /* \"#utility.yul\":2309:2312   */\n      dup3\n        /* \"#utility.yul\":2302:2306   */\n      0x1f\n        /* \"#utility.yul\":2294:2300   */\n      dup4\n        /* \"#utility.yul\":2290:2307   */\n      add\n        /* \"#utility.yul\":2286:2313   */\n      slt\n        /* \"#utility.yul\":2276:2398   */\n      tag_89\n      jumpi\n        /* \"#utility.yul\":2317:2396   */\n      tag_90\n      tag_41\n      jump\t// in\n    tag_90:\n        /* \"#utility.yul\":2276:2398   */\n    tag_89:\n        /* \"#utility.yul\":2434:2440   */\n      dup2\n        /* \"#utility.yul\":2421:2441   */\n      calldataload\n        /* \"#utility.yul\":2459:2537   */\n      tag_91\n        /* \"#utility.yul\":2533:2536   */\n      dup5\n        /* \"#utility.yul\":2525:2531   */\n      dup3\n        /* \"#utility.yul\":2518:2522   */\n      0x20\n        /* \"#utility.yul\":2510:2516   */\n      dup7\n        /* \"#utility.yul\":2506:2523   */\n      add\n        /* \"#utility.yul\":2459:2537   */\n      tag_49\n      jump\t// in\n    tag_91:\n        /* \"#utility.yul\":2450:2537   */\n      swap2\n      pop\n        /* \"#utility.yul\":2266:2543   */\n      pop\n        /* \"#utility.yul\":2205:2543   */\n      swap3\n      swap2\n      pop\n      pop\n      jump\t// out\n        /* \"#utility.yul\":2549:3056   */\n    tag_14:\n        /* \"#utility.yul\":2617:2623   */\n      0x00\n        /* \"#utility.yul\":2666:2668   */\n      0x20\n        /* \"#utility.yul\":2654:2663   */\n      dup3\n        /* \"#utility.yul\":2645:2652   */\n      dup5\n        /* \"#utility.yul\":2641:2664   */\n      sub\n        /* \"#utility.yul\":2637:2669   */\n      slt\n        /* \"#utility.yul\":2634:2753   */\n      iszero\n      tag_93\n      jumpi\n        /* \"#utility.yul\":2672:2751   */\n      tag_94\n      tag_39\n      jump\t// in\n    tag_94:\n        /* \"#utility.yul\":2634:2753   */\n    tag_93:\n        /* \"#utility.yul\":2820:2821   */\n      0x00\n        /* \"#utility.yul\":2809:2818   */\n      dup3\n        /* \"#utility.yul\":2805:2822   */\n      add\n        /* \"#utility.yul\":2792:2823   */\n      calldataload\n        /* \"#utility.yul\":2850:2868   */\n      0xffffffffffffffff\n        /* \"#utility.yul\":2842:2848   */\n      dup2\n        /* \"#utility.yul\":2839:2869   */\n      gt\n        /* \"#utility.yul\":2836:2953   */\n      iszero\n      tag_95\n      jumpi\n        /* \"#utility.yul\":2872:2951   */\n      tag_96\n      tag_40\n      jump\t// in\n    tag_96:\n        /* \"#utility.yul\":2836:2953   */\n    tag_95:\n        /* \"#utility.yul\":2977:3039   */\n      tag_97\n        /* \"#utility.yul\":3031:3038   */\n      dup5\n        /* \"#utility.yul\":3022:3028   */\n      dup3\n        /* \"#utility.yul\":3011:3020   */\n      dup6\n        /* \"#utility.yul\":3007:3029   */\n      add\n        /* \"#utility.yul\":2977:3039   */\n      tag_50\n      jump\t// in\n    tag_97:\n        /* \"#utility.yul\":2967:3039   */\n      swap2\n      pop\n        /* \"#utility.yul\":2763:3049   */\n      pop\n        /* \"#utility.yul\":2549:3056   */\n      swap3\n      swap2\n      pop\n      pop\n      jump\t// out\n        /* \"#utility.yul\":3062:3231   */\n    tag_51:\n        /* \"#utility.yul\":3146:3157   */\n      0x00\n        /* \"#utility.yul\":3180:3186   */\n      dup3\n        /* \"#utility.yul\":3175:3178   */\n      dup3\n        /* \"#utility.yul\":3168:3187   */\n      mstore\n        /* \"#utility.yul\":3220:3224   */\n      0x20\n        /* \"#utility.yul\":3215:3218   */\n      dup3\n        /* \"#utility.yul\":3211:3225   */\n      add\n        /* \"#utility.yul\":3196:3225   */\n      swap1\n      pop\n        /* \"#utility.yul\":3062:3231   */\n      swap3\n      swap2\n      pop\n      pop\n      jump\t// out\n        /* \"#utility.yul\":3237:3398   */\n    tag_52:\n        /* \"#utility.yul\":3377:3390   */\n      0x73656e64206661696c6564000000000000000000000000000000000000000000\n        /* \"#utility.yul\":3373:3374   */\n      0x00\n        /* \"#utility.yul\":3365:3371   */\n      dup3\n        /* \"#utility.yul\":3361:3375   */\n      add\n        /* \"#utility.yul\":3354:3391   */\n      mstore\n        /* \"#utility.yul\":3237:3398   */\n      pop\n      jump\t// out\n        /* \"#utility.yul\":3404:3770   */\n    tag_53:\n        /* \"#utility.yul\":3546:3549   */\n      0x00\n        /* \"#utility.yul\":3567:3634   */\n      tag_101\n        /* \"#utility.yul\":3631:3633   */\n      0x0b\n        /* \"#utility.yul\":3626:3629   */\n      dup4\n        /* \"#utility.yul\":3567:3634   */\n      tag_51\n      jump\t// in\n    tag_101:\n        /* \"#utility.yul\":3560:3634   */\n      swap2\n      pop\n        /* \"#utility.yul\":3643:3736   */\n      tag_102\n        /* \"#utility.yul\":3732:3735   */\n      dup3\n        /* \"#utility.yul\":3643:3736   */\n      tag_52\n      jump\t// in\n    tag_102:\n        /* \"#utility.yul\":3761:3763   */\n      0x20\n        /* \"#utility.yul\":3756:3759   */\n      dup3\n        /* \"#utility.yul\":3752:3764   */\n      add\n        /* \"#utility.yul\":3745:3764   */\n      swap1\n      pop\n        /* \"#utility.yul\":3404:3770   */\n      swap2\n      swap1\n      pop\n      jump\t// out\n        /* \"#utility.yul\":3776:4195   */\n    tag_23:\n        /* \"#utility.yul\":3942:3946   */\n      0x00\n        /* \"#utility.yul\":3980:3982   */\n      0x20\n        /* \"#utility.yul\":3969:3978   */\n      dup3\n        /* \"#utility.yul\":3965:3983   */\n      add\n        /* \"#utility.yul\":3957:3983   */\n      swap1\n      pop\n        /* \"#utility.yul\":4029:4038   */\n      dup2\n        /* \"#utility.yul\":4023:4027   */\n      dup2\n        /* \"#utility.yul\":4019:4039   */\n      sub\n        /* \"#utility.yul\":4015:4016   */\n      0x00\n        /* \"#utility.yul\":4004:4013   */\n      dup4\n        /* \"#utility.yul\":4000:4017   */\n      add\n        /* \"#utility.yul\":3993:4040   */\n      mstore\n        /* \"#utility.yul\":4057:4188   */\n      tag_104\n        /* \"#utility.yul\":4183:4187   */\n      dup2\n        /* \"#utility.yul\":4057:4188   */\n      tag_53\n      jump\t// in\n    tag_104:\n        /* \"#utility.yul\":4049:4188   */\n      swap1\n      pop\n        /* \"#utility.yul\":3776:4195   */\n      swap2\n      swap1\n      pop\n      jump\t// out\n        /* \"#utility.yul\":4201:4299   */\n    tag_54:\n        /* \"#utility.yul\":4252:4258   */\n      0x00\n        /* \"#utility.yul\":4286:4291   */\n      dup2\n        /* \"#utility.yul\":4280:4292   */\n      mload\n        /* \"#utility.yul\":4270:4292   */\n      swap1\n      pop\n        /* \"#utility.yul\":4201:4299   */\n      swap2\n      swap1\n      pop\n      jump\t// out\n        /* \"#utility.yul\":4305:4452   */\n    tag_55:\n        /* \"#utility.yul\":4406:4417   */\n      0x00\n        /* \"#utility.yul\":4443:4446   */\n      dup2\n        /* \"#utility.yul\":4428:4446   */\n      swap1\n      pop\n        /* \"#utility.yul\":4305:4452   */\n      swap3\n      swap2\n      pop\n      pop\n      jump\t// out\n        /* \"#utility.yul\":4458:4597   */\n    tag_56:\n        /* \"#utility.yul\":4547:4553   */\n      dup3\n        /* \"#utility.yul\":4542:4545   */\n      dup2\n        /* \"#utility.yul\":4537:4540   */\n      dup4\n        /* \"#utility.yul\":4531:4554   */\n      mcopy\n        /* \"#utility.yul\":4588:4589   */\n      0x00\n        /* \"#utility.yul\":4579:4585   */\n      dup4\n        /* \"#utility.yul\":4574:4577   */\n      dup4\n        /* \"#utility.yul\":4570:4586   */\n      add\n        /* \"#utility.yul\":4563:4590   */\n      mstore\n        /* \"#utility.yul\":4458:4597   */\n      pop\n      pop\n      pop\n      jump\t// out\n        /* \"#utility.yul\":4603:4989   */\n    tag_57:\n        /* \"#utility.yul\":4707:4710   */\n      0x00\n        /* \"#utility.yul\":4735:4773   */\n      tag_109\n        /* \"#utility.yul\":4767:4772   */\n      dup3\n        /* \"#utility.yul\":4735:4773   */\n      tag_54\n      jump\t// in\n    tag_109:\n        /* \"#utility.yul\":4789:4877   */\n      tag_110\n        /* \"#utility.yul\":4870:4876   */\n      dup2\n        /* \"#utility.yul\":4865:4868   */\n      dup6\n        /* \"#utility.yul\":4789:4877   */\n      tag_55\n      jump\t// in\n    tag_110:\n        /* \"#utility.yul\":4782:4877   */\n      swap4\n      pop\n        /* \"#utility.yul\":4886:4951   */\n      tag_111\n        /* \"#utility.yul\":4944:4950   */\n      dup2\n        /* \"#utility.yul\":4939:4942   */\n      dup6\n        /* \"#utility.yul\":4932:4936   */\n      0x20\n        /* \"#utility.yul\":4925:4930   */\n      dup7\n        /* \"#utility.yul\":4921:4937   */\n      add\n        /* \"#utility.yul\":4886:4951   */\n      tag_56\n      jump\t// in\n    tag_111:\n        /* \"#utility.yul\":4976:4982   */\n      dup1\n        /* \"#utility.yul\":4971:4974   */\n      dup5\n        /* \"#utility.yul\":4967:4983   */\n      add\n        /* \"#utility.yul\":4960:4983   */\n      swap2\n      pop\n        /* \"#utility.yul\":4711:4989   */\n      pop\n        /* \"#utility.yul\":4603:4989   */\n      swap3\n      swap2\n      pop\n      pop\n      jump\t// out\n        /* \"#utility.yul\":4995:5266   */\n    tag_26:\n        /* \"#utility.yul\":5125:5128   */\n      0x00\n        /* \"#utility.yul\":5147:5240   */\n      tag_113\n        /* \"#utility.yul\":5236:5239   */\n      dup3\n        /* \"#utility.yul\":5227:5233   */\n      dup5\n        /* \"#utility.yul\":5147:5240   */\n      tag_57\n      jump\t// in\n    tag_113:\n        /* \"#utility.yul\":5140:5240   */\n      swap2\n      pop\n        /* \"#utility.yul\":5257:5260   */\n      dup2\n        /* \"#utility.yul\":5250:5260   */\n      swap1\n      pop\n        /* \"#utility.yul\":4995:5266   */\n      swap3\n      swap2\n      pop\n      pop\n      jump\t// out\n        /* \"#utility.yul\":5272:5433   */\n    tag_58:\n        /* \"#utility.yul\":5412:5425   */\n      0x63616c6c206661696c6564000000000000000000000000000000000000000000\n        /* \"#utility.yul\":5408:5409   */\n      0x00\n        /* \"#utility.yul\":5400:5406   */\n      dup3\n        /* \"#utility.yul\":5396:5410   */\n      add\n        /* \"#utility.yul\":5389:5426   */\n      mstore\n        /* \"#utility.yul\":5272:5433   */\n      pop\n      jump\t// out\n        /* \"#utility.yul\":5439:5805   */\n    tag_59:\n        /* \"#utility.yul\":5581:5584   */\n      0x00\n        /* \"#utility.yul\":5602:5669   */\n      tag_116\n        /* \"#utility.yul\":5666:5668   */\n      0x0b\n        /* \"#utility.yul\":5661:5664   */\n      dup4\n        /* \"#utility.yul\":5602:5669   */\n      tag_51\n      jump\t// in\n    tag_116:\n        /* \"#utility.yul\":5595:5669   */\n      swap2\n      pop\n        /* \"#utility.yul\":5678:5771   */\n      tag_117\n        /* \"#utility.yul\":5767:5770   */\n      dup3\n        /* \"#utility.yul\":5678:5771   */\n      tag_58\n      jump\t// in\n    tag_117:\n        /* \"#utility.yul\":5796:5798   */\n      0x20\n        /* \"#utility.yul\":5791:5794   */\n      dup3\n        /* \"#utility.yul\":5787:5799   */\n      add\n        /* \"#utility.yul\":5780:5799   */\n      swap1\n      pop\n        /* \"#utility.yul\":5439:5805   */\n      swap2\n      swap1\n      pop\n      jump\t// out\n        /* \"#utility.yul\":5811:6230   */\n    tag_32:\n        /* \"#utility.yul\":5977:5981   */\n      0x00\n        /* \"#utility.yul\":6015:6017   */\n      0x20\n        /* \"#utility.yul\":6004:6013   */\n      dup3\n        /* \"#utility.yul\":6000:6018   */\n      add\n        /* \"#utility.yul\":5992:6018   */\n      swap1\n      pop\n        /* \"#utility.yul\":6064:6073   */\n      dup2\n        /* \"#utility.yul\":6058:6062   */\n      dup2\n        /* \"#utility.yul\":6054:6074   */\n      sub\n        /* \"#utility.yul\":6050:6051   */\n      0x00\n        /* \"#utility.yul\":6039:6048   */\n      dup4\n        /* \"#utility.yul\":6035:6052   */\n      add\n        /* \"#utility.yul\":6028:6075   */\n      mstore\n        /* \"#utility.yul\":6092:6223   */\n      tag_119\n        /* \"#utility.yul\":6218:6222   */\n      dup2\n        /* \"#utility.yul\":6092:6223   */\n      tag_59\n      jump\t// in\n    tag_119:\n        /* \"#utility.yul\":6084:6223   */\n      swap1\n      pop\n        /* \"#utility.yul\":5811:6230   */\n      swap2\n      swap1\n      pop\n      jump\t// out\n        /* \"#utility.yul\":6236:6404   */\n    tag_60:\n        /* \"#utility.yul\":6319:6330   */\n      0x00\n        /* \"#utility.yul\":6353:6359   */\n      dup3\n        /* \"#utility.yul\":6348:6351   */\n      dup3\n        /* \"#utility.yul\":6341:6360   */\n      mstore\n        /* \"#utility.yul\":6393:6397   */\n      0x20\n        /* \"#utility.yul\":6388:6391   */\n      dup3\n        /* \"#utility.yul\":6384:6398   */\n      add\n        /* \"#utility.yul\":6369:6398   */\n      swap1\n      pop\n        /* \"#utility.yul\":6236:6404   */\n      swap3\n      swap2\n      pop\n      pop\n      jump\t// out\n        /* \"#utility.yul\":6410:6783   */\n    tag_61:\n        /* \"#utility.yul\":6496:6499   */\n      0x00\n        /* \"#utility.yul\":6524:6562   */\n      tag_122\n        /* \"#utility.yul\":6556:6561   */\n      dup3\n        /* \"#utility.yul\":6524:6562   */\n      tag_54\n      jump\t// in\n    tag_122:\n        /* \"#utility.yul\":6578:6648   */\n      tag_123\n        /* \"#utility.yul\":6641:6647   */\n      dup2\n        /* \"#utility.yul\":6636:6639   */\n      dup6\n        /* \"#utility.yul\":6578:6648   */\n      tag_60\n      jump\t// in\n    tag_123:\n        /* \"#utility.yul\":6571:6648   */\n      swap4\n      pop\n        /* \"#utility.yul\":6657:6722   */\n      tag_124\n        /* \"#utility.yul\":6715:6721   */\n      dup2\n        /* \"#utility.yul\":6710:6713   */\n      dup6\n        /* \"#utility.yul\":6703:6707   */\n      0x20\n        /* \"#utility.yul\":6696:6701   */\n      dup7\n        /* \"#utility.yul\":6692:6708   */\n      add\n        /* \"#utility.yul\":6657:6722   */\n      tag_56\n      jump\t// in\n    tag_124:\n        /* \"#utility.yul\":6747:6776   */\n      tag_125\n        /* \"#utility.yul\":6769:6775   */\n      dup2\n        /* \"#utility.yul\":6747:6776   */\n      tag_43\n      jump\t// in\n    tag_125:\n        /* \"#utility.yul\":6742:6745   */\n      dup5\n        /* \"#utility.yul\":6738:6777   */\n      add\n        /* \"#utility.yul\":6731:6777   */\n      swap2\n      pop\n        /* \"#utility.yul\":6500:6783   */\n      pop\n        /* \"#utility.yul\":6410:6783   */\n      swap3\n      swap2\n      pop\n      pop\n      jump\t// out\n        /* \"#utility.yul\":6789:7295   */\n    tag_34:\n        /* \"#utility.yul\":6946:6950   */\n      0x00\n        /* \"#utility.yul\":6984:6986   */\n      0x40\n        /* \"#utility.yul\":6973:6982   */\n      dup3\n        /* \"#utility.yul\":6969:6987   */\n      add\n        /* \"#utility.yul\":6961:6987   */\n      swap1\n      pop\n        /* \"#utility.yul\":7033:7042   */\n      dup2\n        /* \"#utility.yul\":7027:7031   */\n      dup2\n        /* \"#utility.yul\":7023:7043   */\n      sub\n        /* \"#utility.yul\":7019:7020   */\n      0x00\n        /* \"#utility.yul\":7008:7017   */\n      dup4\n        /* \"#utility.yul\":7004:7021   */\n      add\n        /* \"#utility.yul\":6997:7044   */\n      mstore\n        /* \"#utility.yul\":7061:7137   */\n      tag_127\n        /* \"#utility.yul\":7132:7136   */\n      dup2\n        /* \"#utility.yul\":7123:7129   */\n      dup6\n        /* \"#utility.yul\":7061:7137   */\n      tag_61\n      jump\t// in\n    tag_127:\n        /* \"#utility.yul\":7053:7137   */\n      swap1\n      pop\n        /* \"#utility.yul\":7184:7193   */\n      dup2\n        /* \"#utility.yul\":7178:7182   */\n      dup2\n        /* \"#utility.yul\":7174:7194   */\n      sub\n        /* \"#utility.yul\":7169:7171   */\n      0x20\n        /* \"#utility.yul\":7158:7167   */\n      dup4\n        /* \"#utility.yul\":7154:7172   */\n      add\n        /* \"#utility.yul\":7147:7195   */\n      mstore\n        /* \"#utility.yul\":7212:7288   */\n      tag_128\n        /* \"#utility.yul\":7283:7287   */\n      dup2\n        /* \"#utility.yul\":7274:7280   */\n      dup5\n        /* \"#utility.yul\":7212:7288   */\n      tag_61\n      jump\t// in\n    tag_128:\n        /* \"#utility.yul\":7204:7288   */\n      swap1\n      pop\n        /* \"#utility.yul\":6789:7295   */\n      swap4\n      swap3\n      pop\n      pop\n      pop\n      jump\t// out\n\n    auxdata: 0xa2646970667358221220e14768acc71e9f391a2fd1a399716e185f0e94d31fbc87a2dd0ce866e036d6c264736f6c634300081a0033\n}\n",
				"bytecode": {
					"linkReferences": {},
					"object": "6080604052348015600e575f80fd5b506105e78061001c5f395ff3fe608060405260043610610037575f3560e01c80632f364213146100425780633dc31f50146100585780638d85ffa0146100805761003e565b3661003e57005b5f80fd5b34801561004d575f80fd5b50610056610096565b005b348015610063575f80fd5b5061007e600480360381019061007991906103a5565b610118565b005b34801561008b575f80fd5b5061009461020a565b005b5f3373ffffffffffffffffffffffffffffffffffffffff166108fc670de0b6b3a764000090811502906040515f60405180830381858888f19350505050905080610115576040517f08c379a000000000000000000000000000000000000000000000000000000000815260040161010c90610446565b60405180910390fd5b50565b5f803373ffffffffffffffffffffffffffffffffffffffff16670de0b6b3a76400008460405161014891906104b6565b5f6040518083038185875af1925050503d805f8114610182576040519150601f19603f3d011682016040523d82523d5f602084013e610187565b606091505b5091509150816101cc576040517f08c379a00000000000000000000000000000000000000000000000000000000081526004016101c390610516565b60405180910390fd5b7f03f56ef7f4dc3bae43391899b5c0096cb80a6510bb5931b0f97dc14b940d515983826040516101fd92919061057c565b60405180910390a1505050565b3373ffffffffffffffffffffffffffffffffffffffff166108fc670de0b6b3a764000090811502906040515f60405180830381858888f19350505050158015610255573d5f803e3d5ffd5b50565b5f604051905090565b5f80fd5b5f80fd5b5f80fd5b5f80fd5b5f601f19601f8301169050919050565b7f4e487b71000000000000000000000000000000000000000000000000000000005f52604160045260245ffd5b6102b782610271565b810181811067ffffffffffffffff821117156102d6576102d5610281565b5b80604052505050565b5f6102e8610258565b90506102f482826102ae565b919050565b5f67ffffffffffffffff82111561031357610312610281565b5b61031c82610271565b9050602081019050919050565b828183375f83830152505050565b5f610349610344846102f9565b6102df565b9050828152602081018484840111156103655761036461026d565b5b610370848285610329565b509392505050565b5f82601f83011261038c5761038b610269565b5b813561039c848260208601610337565b91505092915050565b5f602082840312156103ba576103b9610261565b5b5f82013567ffffffffffffffff8111156103d7576103d6610265565b5b6103e384828501610378565b91505092915050565b5f82825260208201905092915050565b7f73656e64206661696c65640000000000000000000000000000000000000000005f82015250565b5f610430600b836103ec565b915061043b826103fc565b602082019050919050565b5f6020820190508181035f83015261045d81610424565b9050919050565b5f81519050919050565b5f81905092915050565b8281835e5f83830152505050565b5f61049082610464565b61049a818561046e565b93506104aa818560208601610478565b80840191505092915050565b5f6104c18284610486565b915081905092915050565b7f63616c6c206661696c65640000000000000000000000000000000000000000005f82015250565b5f610500600b836103ec565b915061050b826104cc565b602082019050919050565b5f6020820190508181035f83015261052d816104f4565b9050919050565b5f82825260208201905092915050565b5f61054e82610464565b6105588185610534565b9350610568818560208601610478565b61057181610271565b840191505092915050565b5f6040820190508181035f8301526105948185610544565b905081810360208301526105a88184610544565b9050939250505056fea2646970667358221220e14768acc71e9f391a2fd1a399716e185f0e94d31fbc87a2dd0ce866e036d6c264736f6c634300081a0033",
					"opcodes": "PUSH1 0x80 PUSH1 0x40 MSTORE CALLVALUE DUP1 ISZERO PUSH1 0xE JUMPI PUSH0 DUP1 REVERT JUMPDEST POP PUSH2 0x5E7 DUP1 PUSH2 0x1C PUSH0 CODECOPY PUSH0 RETURN INVALID PUSH1 0x80 PUSH1 0x40 MSTORE PUSH1 0x4 CALLDATASIZE LT PUSH2 0x37 JUMPI PUSH0 CALLDATALOAD PUSH1 0xE0 SHR DUP1 PUSH4 0x2F364213 EQ PUSH2 0x42 JUMPI DUP1 PUSH4 0x3DC31F50 EQ PUSH2 0x58 JUMPI DUP1 PUSH4 0x8D85FFA0 EQ PUSH2 0x80 JUMPI PUSH2 0x3E JUMP JUMPDEST CALLDATASIZE PUSH2 0x3E JUMPI STOP JUMPDEST PUSH0 DUP1 REVERT JUMPDEST CALLVALUE DUP1 ISZERO PUSH2 0x4D JUMPI PUSH0 DUP1 REVERT JUMPDEST POP PUSH2 0x56 PUSH2 0x96 JUMP JUMPDEST STOP JUMPDEST CALLVALUE DUP1 ISZERO PUSH2 0x63 JUMPI PUSH0 DUP1 REVERT JUMPDEST POP PUSH2 0x7E PUSH1 0x4 DUP1 CALLDATASIZE SUB DUP2 ADD SWAP1 PUSH2 0x79 SWAP2 SWAP1 PUSH2 0x3A5 JUMP JUMPDEST PUSH2 0x118 JUMP JUMPDEST STOP JUMPDEST CALLVALUE DUP1 ISZERO PUSH2 0x8B JUMPI PUSH0 DUP1 REVERT JUMPDEST POP PUSH2 0x94 PUSH2 0x20A JUMP JUMPDEST STOP JUMPDEST PUSH0 CALLER PUSH20 0xFFFFFFFFFFFFFFFFFFFFFFFFFFFFFFFFFFFFFFFF AND PUSH2 0x8FC PUSH8 0xDE0B6B3A7640000 SWAP1 DUP2 ISZERO MUL SWAP1 PUSH1 0x40 MLOAD PUSH0 PUSH1 0x40 MLOAD DUP1 DUP4 SUB DUP2 DUP6 DUP9 DUP9 CALL SWAP4 POP POP POP POP SWAP1 POP DUP1 PUSH2 0x115 JUMPI PUSH1 0x40 MLOAD PUSH32 0x8C379A000000000000000000000000000000000000000000000000000000000 DUP2 MSTORE PUSH1 0x4 ADD PUSH2 0x10C SWAP1 PUSH2 0x446 JUMP JUMPDEST PUSH1 0x40 MLOAD DUP1 SWAP2 SUB SWAP1 REVERT JUMPDEST POP JUMP JUMPDEST PUSH0 DUP1 CALLER PUSH20 0xFFFFFFFFFFFFFFFFFFFFFFFFFFFFFFFFFFFFFFFF AND PUSH8 0xDE0B6B3A7640000 DUP5 PUSH1 0x40 MLOAD PUSH2 0x148 SWAP2 SWAP1 PUSH2 0x4B6 JUMP JUMPDEST PUSH0 PUSH1 0x40 MLOAD DUP1 DUP4 SUB DUP2 DUP6 DUP8 GAS CALL SWAP3 POP POP POP RETURNDATASIZE DUP1 PUSH0 DUP2 EQ PUSH2 0x182 JUMPI PUSH1 0x40 MLOAD SWAP2 POP PUSH1 0x1F NOT PUSH1 0x3F RETURNDATASIZE ADD AND DUP3 ADD PUSH1 0x40 MSTORE RETURNDATASIZE DUP3 MSTORE RETURNDATASIZE PUSH0 PUSH1 0x20 DUP5 ADD RETURNDATACOPY PUSH2 0x187 JUMP JUMPDEST PUSH1 0x60 SWAP2 POP JUMPDEST POP SWAP2 POP SWAP2 POP DUP2 PUSH2 0x1CC JUMPI PUSH1 0x40 MLOAD PUSH32 0x8C379A000000000000000000000000000000000000000000000000000000000 DUP2 MSTORE PUSH1 0x4 ADD PUSH2 0x1C3 SWAP1 PUSH2 0x516 JUMP JUMPDEST PUSH1 0x40 MLOAD DUP1 SWAP2 SUB SWAP1 REVERT JUMPDEST PUSH32 0x3F56EF7F4DC3BAE43391899B5C0096CB80A6510BB5931B0F97DC14B940D5159 DUP4 DUP3 PUSH1 0x40 MLOAD PUSH2 0x1FD SWAP3 SWAP2 SWAP1 PUSH2 0x57C JUMP JUMPDEST PUSH1 0x40 MLOAD DUP1 SWAP2 SUB SWAP1 LOG1 POP POP POP JUMP JUMPDEST CALLER PUSH20 0xFFFFFFFFFFFFFFFFFFFFFFFFFFFFFFFFFFFFFFFF AND PUSH2 0x8FC PUSH8 0xDE0B6B3A7640000 SWAP1 DUP2 ISZERO MUL SWAP1 PUSH1 0x40 MLOAD PUSH0 PUSH1 0x40 MLOAD DUP1 DUP4 SUB DUP2 DUP6 DUP9 DUP9 CALL SWAP4 POP POP POP POP ISZERO DUP1 ISZERO PUSH2 0x255 JUMPI RETURNDATASIZE PUSH0 DUP1 RETURNDATACOPY RETURNDATASIZE PUSH0 REVERT JUMPDEST POP JUMP JUMPDEST PUSH0 PUSH1 0x40 MLOAD SWAP1 POP SWAP1 JUMP JUMPDEST PUSH0 DUP1 REVERT JUMPDEST PUSH0 DUP1 REVERT JUMPDEST PUSH0 DUP1 REVERT JUMPDEST PUSH0 DUP1 REVERT JUMPDEST PUSH0 PUSH1 0x1F NOT PUSH1 0x1F DUP4 ADD AND SWAP1 POP SWAP2 SWAP1 POP JUMP JUMPDEST PUSH32 0x4E487B7100000000000000000000000000000000000000000000000000000000 PUSH0 MSTORE PUSH1 0x41 PUSH1 0x4 MSTORE PUSH1 0x24 PUSH0 REVERT JUMPDEST PUSH2 0x2B7 DUP3 PUSH2 0x271 JUMP JUMPDEST DUP2 ADD DUP2 DUP2 LT PUSH8 0xFFFFFFFFFFFFFFFF DUP3 GT OR ISZERO PUSH2 0x2D6 JUMPI PUSH2 0x2D5 PUSH2 0x281 JUMP JUMPDEST JUMPDEST DUP1 PUSH1 0x40 MSTORE POP POP POP JUMP JUMPDEST PUSH0 PUSH2 0x2E8 PUSH2 0x258 JUMP JUMPDEST SWAP1 POP PUSH2 0x2F4 DUP3 DUP3 PUSH2 0x2AE JUMP JUMPDEST SWAP2 SWAP1 POP JUMP JUMPDEST PUSH0 PUSH8 0xFFFFFFFFFFFFFFFF DUP3 GT ISZERO PUSH2 0x313 JUMPI PUSH2 0x312 PUSH2 0x281 JUMP JUMPDEST JUMPDEST PUSH2 0x31C DUP3 PUSH2 0x271 JUMP JUMPDEST SWAP1 POP PUSH1 0x20 DUP2 ADD SWAP1 POP SWAP2 SWAP1 POP JUMP JUMPDEST DUP3 DUP2 DUP4 CALLDATACOPY PUSH0 DUP4 DUP4 ADD MSTORE POP POP POP JUMP JUMPDEST PUSH0 PUSH2 0x349 PUSH2 0x344 DUP5 PUSH2 0x2F9 JUMP JUMPDEST PUSH2 0x2DF JUMP JUMPDEST SWAP1 POP DUP3 DUP2 MSTORE PUSH1 0x20 DUP2 ADD DUP5 DUP5 DUP5 ADD GT ISZERO PUSH2 0x365 JUMPI PUSH2 0x364 PUSH2 0x26D JUMP JUMPDEST JUMPDEST PUSH2 0x370 DUP5 DUP3 DUP6 PUSH2 0x329 JUMP JUMPDEST POP SWAP4 SWAP3 POP POP POP JUMP JUMPDEST PUSH0 DUP3 PUSH1 0x1F DUP4 ADD SLT PUSH2 0x38C JUMPI PUSH2 0x38B PUSH2 0x269 JUMP JUMPDEST JUMPDEST DUP2 CALLDATALOAD PUSH2 0x39C DUP5 DUP3 PUSH1 0x20 DUP7 ADD PUSH2 0x337 JUMP JUMPDEST SWAP2 POP POP SWAP3 SWAP2 POP POP JUMP JUMPDEST PUSH0 PUSH1 0x20 DUP3 DUP5 SUB SLT ISZERO PUSH2 0x3BA JUMPI PUSH2 0x3B9 PUSH2 0x261 JUMP JUMPDEST JUMPDEST PUSH0 DUP3 ADD CALLDATALOAD PUSH8 0xFFFFFFFFFFFFFFFF DUP2 GT ISZERO PUSH2 0x3D7 JUMPI PUSH2 0x3D6 PUSH2 0x265 JUMP JUMPDEST JUMPDEST PUSH2 0x3E3 DUP5 DUP3 DUP6 ADD PUSH2 0x378 JUMP JUMPDEST SWAP2 POP POP SWAP3 SWAP2 POP POP JUMP JUMPDEST PUSH0 DUP3 DUP3 MSTORE PUSH1 0x20 DUP3 ADD SWAP1 POP SWAP3 SWAP2 POP POP JUMP JUMPDEST PUSH32 0x73656E64206661696C6564000000000000000000000000000000000000000000 PUSH0 DUP3 ADD MSTORE POP JUMP JUMPDEST PUSH0 PUSH2 0x430 PUSH1 0xB DUP4 PUSH2 0x3EC JUMP JUMPDEST SWAP2 POP PUSH2 0x43B DUP3 PUSH2 0x3FC JUMP JUMPDEST PUSH1 0x20 DUP3 ADD SWAP1 POP SWAP2 SWAP1 POP JUMP JUMPDEST PUSH0 PUSH1 0x20 DUP3 ADD SWAP1 POP DUP2 DUP2 SUB PUSH0 DUP4 ADD MSTORE PUSH2 0x45D DUP2 PUSH2 0x424 JUMP JUMPDEST SWAP1 POP SWAP2 SWAP1 POP JUMP JUMPDEST PUSH0 DUP2 MLOAD SWAP1 POP SWAP2 SWAP1 POP JUMP JUMPDEST PUSH0 DUP2 SWAP1 POP SWAP3 SWAP2 POP POP JUMP JUMPDEST DUP3 DUP2 DUP4 MCOPY PUSH0 DUP4 DUP4 ADD MSTORE POP POP POP JUMP JUMPDEST PUSH0 PUSH2 0x490 DUP3 PUSH2 0x464 JUMP JUMPDEST PUSH2 0x49A DUP2 DUP6 PUSH2 0x46E JUMP JUMPDEST SWAP4 POP PUSH2 0x4AA DUP2 DUP6 PUSH1 0x20 DUP7 ADD PUSH2 0x478 JUMP JUMPDEST DUP1 DUP5 ADD SWAP2 POP POP SWAP3 SWAP2 POP POP JUMP JUMPDEST PUSH0 PUSH2 0x4C1 DUP3 DUP5 PUSH2 0x486 JUMP JUMPDEST SWAP2 POP DUP2 SWAP1 POP SWAP3 SWAP2 POP POP JUMP JUMPDEST PUSH32 0x63616C6C206661696C6564000000000000000000000000000000000000000000 PUSH0 DUP3 ADD MSTORE POP JUMP JUMPDEST PUSH0 PUSH2 0x500 PUSH1 0xB DUP4 PUSH2 0x3EC JUMP JUMPDEST SWAP2 POP PUSH2 0x50B DUP3 PUSH2 0x4CC JUMP JUMPDEST PUSH1 0x20 DUP3 ADD SWAP1 POP SWAP2 SWAP1 POP JUMP JUMPDEST PUSH0 PUSH1 0x20 DUP3 ADD SWAP1 POP DUP2 DUP2 SUB PUSH0 DUP4 ADD MSTORE PUSH2 0x52D DUP2 PUSH2 0x4F4 JUMP JUMPDEST SWAP1 POP SWAP2 SWAP1 POP JUMP JUMPDEST PUSH0 DUP3 DUP3 MSTORE PUSH1 0x20 DUP3 ADD SWAP1 POP SWAP3 SWAP2 POP POP JUMP JUMPDEST PUSH0 PUSH2 0x54E DUP3 PUSH2 0x464 JUMP JUMPDEST PUSH2 0x558 DUP2 DUP6 PUSH2 0x534 JUMP JUMPDEST SWAP4 POP PUSH2 0x568 DUP2 DUP6 PUSH1 0x20 DUP7 ADD PUSH2 0x478 JUMP JUMPDEST PUSH2 0x571 DUP2 PUSH2 0x271 JUMP JUMPDEST DUP5 ADD SWAP2 POP POP SWAP3 SWAP2 POP POP JUMP JUMPDEST PUSH0 PUSH1 0x40 DUP3 ADD SWAP1 POP DUP2 DUP2 SUB PUSH0 DUP4 ADD MSTORE PUSH2 0x594 DUP2 DUP6 PUSH2 0x544 JUMP JUMPDEST SWAP1 POP DUP2 DUP2 SUB PUSH1 0x20 DUP4 ADD MSTORE PUSH2 0x5A8 DUP2 DUP5 PUSH2 0x544 JUMP JUMPDEST SWAP1 POP SWAP4 SWAP3 POP POP POP JUMP INVALID LOG2 PUSH5 0x6970667358 0x22 SLT KECCAK256 0xE1 SELFBALANCE PUSH9 0xACC71E9F391A2FD1A3 SWAP10 PUSH18 0x6E185F0E94D31FBC87A2DD0CE866E036D6C2 PUSH5 0x736F6C6343 STOP ADDMOD BYTE STOP CALLER "
				},
				"gasEstimates": {
					"creation": {
						"codeDepositCost": "302200",
						"executionCost": "341",
						"totalCost": "302541"
					},
					"external": {
						"withdrawWithCall(bytes)": "infinite",
						"withdrawWithSend()": "infinite",
						"withdrawWithTransfer()": "infinite"
					}
				},
				"methodIdentifiers": {
					"withdrawWithCall(bytes)": "3dc31f50",
					"withdrawWithSend()": "2f364213",
					"withdrawWithTransfer()": "8d85ffa0"
				}
			},
			"storageLayout": {
				"storage": [],
				"types": null
			},
			"userdoc": {
				"kind": "user",
				"methods": {},
				"version": 1
			}
		}
	}
}