{
	"solidity/soliditybase/overloading.sol": {
		"overloading": {
			"abi": [
				{
					"inputs": [
						{
							"internalType": "uint8",
							"name": "_in",
							"type": "uint8"
						}
					],
					"name": "f",
					"outputs": [
						{
							"internalType": "uint8",
							"name": "out",
							"type": "uint8"
						}
					],
					"stateMutability": "pure",
					"type": "function"
				},
				{
					"inputs": [
						{
							"internalType": "uint256",
							"name": "_in",
							"type": "uint256"
						}
					],
					"name": "f",
					"outputs": [
						{
							"internalType": "uint256",
							"name": "out",
							"type": "uint256"
						}
					],
					"stateMutability": "pure",
					"type": "function"
				},
				{
					"inputs": [],
					"name": "saysomething",
					"outputs": [
						{
							"internalType": "string",
							"name": "",
							"type": "string"
						}
					],
					"stateMutability": "pure",
					"type": "function"
				},
				{
					"inputs": [
						{
							"internalType": "string",
							"name": "_name",
							"type": "string"
						}
					],
					"name": "saysomething",
					"outputs": [
						{
							"internalType": "string",
							"name": "",
							"type": "string"
						}
					],
					"stateMutability": "pure",
					"type": "function"
				}
			],
			"devdoc": {
				"kind": "dev",
				"methods": {},
				"version": 1
			},
			"evm": {
				"assembly": "    /* \"solidity/soliditybase/overloading.sol\":60:709  contract overloading{... */\n  mstore(0x40, 0x80)\n  callvalue\n  dup1\n  iszero\n  tag_1\n  jumpi\n  0x00\n  dup1\n  revert\ntag_1:\n  pop\n  dataSize(sub_0)\n  dup1\n  dataOffset(sub_0)\n  0x00\n  codecopy\n  0x00\n  return\nstop\n\nsub_0: assembly {\n        /* \"solidity/soliditybase/overloading.sol\":60:709  contract overloading{... */\n      mstore(0x40, 0x80)\n      callvalue\n      dup1\n      iszero\n      tag_1\n      jumpi\n      0x00\n      dup1\n      revert\n    tag_1:\n      pop\n      jumpi(tag_2, lt(calldatasize, 0x04))\n      shr(0xe0, calldataload(0x00))\n      dup1\n      0x3120d434\n      eq\n      tag_3\n      jumpi\n      dup1\n      0xb0c74430\n      eq\n      tag_4\n      jumpi\n      dup1\n      0xb3de648b\n      eq\n      tag_5\n      jumpi\n      dup1\n      0xe3b34a9d\n      eq\n      tag_6\n      jumpi\n    tag_2:\n      0x00\n      dup1\n      revert\n        /* \"solidity/soliditybase/overloading.sol\":536:616  function f(uint8 _in) public pure returns(uint8 out){... */\n    tag_3:\n      tag_7\n      0x04\n      dup1\n      calldatasize\n      sub\n      dup2\n      add\n      swap1\n      tag_8\n      swap2\n      swap1\n      tag_9\n      jump\t// in\n    tag_8:\n      tag_10\n      jump\t// in\n    tag_7:\n      mload(0x40)\n      tag_11\n      swap2\n      swap1\n      tag_12\n      jump\t// in\n    tag_11:\n      mload(0x40)\n      dup1\n      swap2\n      sub\n      swap1\n      return\n        /* \"solidity/soliditybase/overloading.sol\":106:201  function saysomething() public pure returns(string memory){... */\n    tag_4:\n      tag_13\n      tag_14\n      jump\t// in\n    tag_13:\n      mload(0x40)\n      tag_15\n      swap2\n      swap1\n      tag_16\n      jump\t// in\n    tag_15:\n      mload(0x40)\n      dup1\n      swap2\n      sub\n      swap1\n      return\n        /* \"solidity/soliditybase/overloading.sol\":622:706  function f(uint256 _in) public pure returns(uint256 out){... */\n    tag_5:\n      tag_17\n      0x04\n      dup1\n      calldatasize\n      sub\n      dup2\n      add\n      swap1\n      tag_18\n      swap2\n      swap1\n      tag_19\n      jump\t// in\n    tag_18:\n      tag_20\n      jump\t// in\n    tag_17:\n      mload(0x40)\n      tag_21\n      swap2\n      swap1\n      tag_22\n      jump\t// in\n    tag_21:\n      mload(0x40)\n      dup1\n      swap2\n      sub\n      swap1\n      return\n        /* \"solidity/soliditybase/overloading.sol\":418:528  function saysomething(string memory _name) public pure returns(string memory){... */\n    tag_6:\n      tag_23\n      0x04\n      dup1\n      calldatasize\n      sub\n      dup2\n      add\n      swap1\n      tag_24\n      swap2\n      swap1\n      tag_25\n      jump\t// in\n    tag_24:\n      tag_26\n      jump\t// in\n    tag_23:\n      mload(0x40)\n      tag_27\n      swap2\n      swap1\n      tag_16\n      jump\t// in\n    tag_27:\n      mload(0x40)\n      dup1\n      swap2\n      sub\n      swap1\n      return\n        /* \"solidity/soliditybase/overloading.sol\":536:616  function f(uint8 _in) public pure returns(uint8 out){... */\n    tag_10:\n        /* \"solidity/soliditybase/overloading.sol\":578:587  uint8 out */\n      0x00\n        /* \"solidity/soliditybase/overloading.sol\":605:608  _in */\n      dup2\n        /* \"solidity/soliditybase/overloading.sol\":599:608  out = _in */\n      swap1\n      pop\n        /* \"solidity/soliditybase/overloading.sol\":536:616  function f(uint8 _in) public pure returns(uint8 out){... */\n      swap2\n      swap1\n      pop\n      jump\t// out\n        /* \"solidity/soliditybase/overloading.sol\":106:201  function saysomething() public pure returns(string memory){... */\n    tag_14:\n        /* \"solidity/soliditybase/overloading.sol\":150:163  string memory */\n      0x60\n        /* \"solidity/soliditybase/overloading.sol\":175:193  return (\"Nothing\") */\n      mload(0x40)\n      dup1\n      0x40\n      add\n      0x40\n      mstore\n      dup1\n      0x07\n      dup2\n      mstore\n      0x20\n      add\n      0x4e6f7468696e6700000000000000000000000000000000000000000000000000\n      dup2\n      mstore\n      pop\n      swap1\n      pop\n        /* \"solidity/soliditybase/overloading.sol\":106:201  function saysomething() public pure returns(string memory){... */\n      swap1\n      jump\t// out\n        /* \"solidity/soliditybase/overloading.sol\":622:706  function f(uint256 _in) public pure returns(uint256 out){... */\n    tag_20:\n        /* \"solidity/soliditybase/overloading.sol\":666:677  uint256 out */\n      0x00\n        /* \"solidity/soliditybase/overloading.sol\":695:698  _in */\n      dup2\n        /* \"solidity/soliditybase/overloading.sol\":689:698  out = _in */\n      swap1\n      pop\n        /* \"solidity/soliditybase/overloading.sol\":622:706  function f(uint256 _in) public pure returns(uint256 out){... */\n      swap2\n      swap1\n      pop\n      jump\t// out\n        /* \"solidity/soliditybase/overloading.sol\":418:528  function saysomething(string memory _name) public pure returns(string memory){... */\n    tag_26:\n        /* \"solidity/soliditybase/overloading.sol\":481:494  string memory */\n      0x60\n        /* \"solidity/soliditybase/overloading.sol\":514:519  _name */\n      dup2\n        /* \"solidity/soliditybase/overloading.sol\":506:520  return (_name) */\n      swap1\n      pop\n        /* \"solidity/soliditybase/overloading.sol\":418:528  function saysomething(string memory _name) public pure returns(string memory){... */\n      swap2\n      swap1\n      pop\n      jump\t// out\n        /* \"#utility.yul\":7:82   */\n    tag_32:\n        /* \"#utility.yul\":40:46   */\n      0x00\n        /* \"#utility.yul\":73:75   */\n      0x40\n        /* \"#utility.yul\":67:76   */\n      mload\n        /* \"#utility.yul\":57:76   */\n      swap1\n      pop\n        /* \"#utility.yul\":7:82   */\n      swap1\n      jump\t// out\n        /* \"#utility.yul\":88:205   */\n    tag_33:\n        /* \"#utility.yul\":197:198   */\n      0x00\n        /* \"#utility.yul\":194:195   */\n      dup1\n        /* \"#utility.yul\":187:199   */\n      revert\n        /* \"#utility.yul\":211:328   */\n    tag_34:\n        /* \"#utility.yul\":320:321   */\n      0x00\n        /* \"#utility.yul\":317:318   */\n      dup1\n        /* \"#utility.yul\":310:322   */\n      revert\n        /* \"#utility.yul\":334:420   */\n    tag_35:\n        /* \"#utility.yul\":369:376   */\n      0x00\n        /* \"#utility.yul\":409:413   */\n      0xff\n        /* \"#utility.yul\":402:407   */\n      dup3\n        /* \"#utility.yul\":398:414   */\n      and\n        /* \"#utility.yul\":387:414   */\n      swap1\n      pop\n        /* \"#utility.yul\":334:420   */\n      swap2\n      swap1\n      pop\n      jump\t// out\n        /* \"#utility.yul\":426:544   */\n    tag_36:\n        /* \"#utility.yul\":497:519   */\n      tag_63\n        /* \"#utility.yul\":513:518   */\n      dup2\n        /* \"#utility.yul\":497:519   */\n      tag_35\n      jump\t// in\n    tag_63:\n        /* \"#utility.yul\":490:495   */\n      dup2\n        /* \"#utility.yul\":487:520   */\n      eq\n        /* \"#utility.yul\":477:538   */\n      tag_64\n      jumpi\n        /* \"#utility.yul\":534:535   */\n      0x00\n        /* \"#utility.yul\":531:532   */\n      dup1\n        /* \"#utility.yul\":524:536   */\n      revert\n        /* \"#utility.yul\":477:538   */\n    tag_64:\n        /* \"#utility.yul\":426:544   */\n      pop\n      jump\t// out\n        /* \"#utility.yul\":550:685   */\n    tag_37:\n        /* \"#utility.yul\":594:599   */\n      0x00\n        /* \"#utility.yul\":632:638   */\n      dup2\n        /* \"#utility.yul\":619:639   */\n      calldataload\n        /* \"#utility.yul\":610:639   */\n      swap1\n      pop\n        /* \"#utility.yul\":648:679   */\n      tag_66\n        /* \"#utility.yul\":673:678   */\n      dup2\n        /* \"#utility.yul\":648:679   */\n      tag_36\n      jump\t// in\n    tag_66:\n        /* \"#utility.yul\":550:685   */\n      swap3\n      swap2\n      pop\n      pop\n      jump\t// out\n        /* \"#utility.yul\":691:1016   */\n    tag_9:\n        /* \"#utility.yul\":748:754   */\n      0x00\n        /* \"#utility.yul\":797:799   */\n      0x20\n        /* \"#utility.yul\":785:794   */\n      dup3\n        /* \"#utility.yul\":776:783   */\n      dup5\n        /* \"#utility.yul\":772:795   */\n      sub\n        /* \"#utility.yul\":768:800   */\n      slt\n        /* \"#utility.yul\":765:884   */\n      iszero\n      tag_68\n      jumpi\n        /* \"#utility.yul\":803:882   */\n      tag_69\n      tag_33\n      jump\t// in\n    tag_69:\n        /* \"#utility.yul\":765:884   */\n    tag_68:\n        /* \"#utility.yul\":923:924   */\n      0x00\n        /* \"#utility.yul\":948:999   */\n      tag_70\n        /* \"#utility.yul\":991:998   */\n      dup5\n        /* \"#utility.yul\":982:988   */\n      dup3\n        /* \"#utility.yul\":971:980   */\n      dup6\n        /* \"#utility.yul\":967:989   */\n      add\n        /* \"#utility.yul\":948:999   */\n      tag_37\n      jump\t// in\n    tag_70:\n        /* \"#utility.yul\":938:999   */\n      swap2\n      pop\n        /* \"#utility.yul\":894:1009   */\n      pop\n        /* \"#utility.yul\":691:1016   */\n      swap3\n      swap2\n      pop\n      pop\n      jump\t// out\n        /* \"#utility.yul\":1022:1134   */\n    tag_38:\n        /* \"#utility.yul\":1105:1127   */\n      tag_72\n        /* \"#utility.yul\":1121:1126   */\n      dup2\n        /* \"#utility.yul\":1105:1127   */\n      tag_35\n      jump\t// in\n    tag_72:\n        /* \"#utility.yul\":1100:1103   */\n      dup3\n        /* \"#utility.yul\":1093:1128   */\n      mstore\n        /* \"#utility.yul\":1022:1134   */\n      pop\n      pop\n      jump\t// out\n        /* \"#utility.yul\":1140:1354   */\n    tag_12:\n        /* \"#utility.yul\":1229:1233   */\n      0x00\n        /* \"#utility.yul\":1267:1269   */\n      0x20\n        /* \"#utility.yul\":1256:1265   */\n      dup3\n        /* \"#utility.yul\":1252:1270   */\n      add\n        /* \"#utility.yul\":1244:1270   */\n      swap1\n      pop\n        /* \"#utility.yul\":1280:1347   */\n      tag_74\n        /* \"#utility.yul\":1344:1345   */\n      0x00\n        /* \"#utility.yul\":1333:1342   */\n      dup4\n        /* \"#utility.yul\":1329:1346   */\n      add\n        /* \"#utility.yul\":1320:1326   */\n      dup5\n        /* \"#utility.yul\":1280:1347   */\n      tag_38\n      jump\t// in\n    tag_74:\n        /* \"#utility.yul\":1140:1354   */\n      swap3\n      swap2\n      pop\n      pop\n      jump\t// out\n        /* \"#utility.yul\":1360:1459   */\n    tag_39:\n        /* \"#utility.yul\":1412:1418   */\n      0x00\n        /* \"#utility.yul\":1446:1451   */\n      dup2\n        /* \"#utility.yul\":1440:1452   */\n      mload\n        /* \"#utility.yul\":1430:1452   */\n      swap1\n      pop\n        /* \"#utility.yul\":1360:1459   */\n      swap2\n      swap1\n      pop\n      jump\t// out\n        /* \"#utility.yul\":1465:1634   */\n    tag_40:\n        /* \"#utility.yul\":1549:1560   */\n      0x00\n        /* \"#utility.yul\":1583:1589   */\n      dup3\n        /* \"#utility.yul\":1578:1581   */\n      dup3\n        /* \"#utility.yul\":1571:1590   */\n      mstore\n        /* \"#utility.yul\":1623:1627   */\n      0x20\n        /* \"#utility.yul\":1618:1621   */\n      dup3\n        /* \"#utility.yul\":1614:1628   */\n      add\n        /* \"#utility.yul\":1599:1628   */\n      swap1\n      pop\n        /* \"#utility.yul\":1465:1634   */\n      swap3\n      swap2\n      pop\n      pop\n      jump\t// out\n        /* \"#utility.yul\":1640:1779   */\n    tag_41:\n        /* \"#utility.yul\":1729:1735   */\n      dup3\n        /* \"#utility.yul\":1724:1727   */\n      dup2\n        /* \"#utility.yul\":1719:1722   */\n      dup4\n        /* \"#utility.yul\":1713:1736   */\n      mcopy\n        /* \"#utility.yul\":1770:1771   */\n      0x00\n        /* \"#utility.yul\":1761:1767   */\n      dup4\n        /* \"#utility.yul\":1756:1759   */\n      dup4\n        /* \"#utility.yul\":1752:1768   */\n      add\n        /* \"#utility.yul\":1745:1772   */\n      mstore\n        /* \"#utility.yul\":1640:1779   */\n      pop\n      pop\n      pop\n      jump\t// out\n        /* \"#utility.yul\":1785:1887   */\n    tag_42:\n        /* \"#utility.yul\":1826:1832   */\n      0x00\n        /* \"#utility.yul\":1877:1879   */\n      0x1f\n        /* \"#utility.yul\":1873:1880   */\n      not\n        /* \"#utility.yul\":1868:1870   */\n      0x1f\n        /* \"#utility.yul\":1861:1866   */\n      dup4\n        /* \"#utility.yul\":1857:1871   */\n      add\n        /* \"#utility.yul\":1853:1881   */\n      and\n        /* \"#utility.yul\":1843:1881   */\n      swap1\n      pop\n        /* \"#utility.yul\":1785:1887   */\n      swap2\n      swap1\n      pop\n      jump\t// out\n        /* \"#utility.yul\":1893:2270   */\n    tag_43:\n        /* \"#utility.yul\":1981:1984   */\n      0x00\n        /* \"#utility.yul\":2009:2048   */\n      tag_80\n        /* \"#utility.yul\":2042:2047   */\n      dup3\n        /* \"#utility.yul\":2009:2048   */\n      tag_39\n      jump\t// in\n    tag_80:\n        /* \"#utility.yul\":2064:2135   */\n      tag_81\n        /* \"#utility.yul\":2128:2134   */\n      dup2\n        /* \"#utility.yul\":2123:2126   */\n      dup6\n        /* \"#utility.yul\":2064:2135   */\n      tag_40\n      jump\t// in\n    tag_81:\n        /* \"#utility.yul\":2057:2135   */\n      swap4\n      pop\n        /* \"#utility.yul\":2144:2209   */\n      tag_82\n        /* \"#utility.yul\":2202:2208   */\n      dup2\n        /* \"#utility.yul\":2197:2200   */\n      dup6\n        /* \"#utility.yul\":2190:2194   */\n      0x20\n        /* \"#utility.yul\":2183:2188   */\n      dup7\n        /* \"#utility.yul\":2179:2195   */\n      add\n        /* \"#utility.yul\":2144:2209   */\n      tag_41\n      jump\t// in\n    tag_82:\n        /* \"#utility.yul\":2234:2263   */\n      tag_83\n        /* \"#utility.yul\":2256:2262   */\n      dup2\n        /* \"#utility.yul\":2234:2263   */\n      tag_42\n      jump\t// in\n    tag_83:\n        /* \"#utility.yul\":2229:2232   */\n      dup5\n        /* \"#utility.yul\":2225:2264   */\n      add\n        /* \"#utility.yul\":2218:2264   */\n      swap2\n      pop\n        /* \"#utility.yul\":1985:2270   */\n      pop\n        /* \"#utility.yul\":1893:2270   */\n      swap3\n      swap2\n      pop\n      pop\n      jump\t// out\n        /* \"#utility.yul\":2276:2589   */\n    tag_16:\n        /* \"#utility.yul\":2389:2393   */\n      0x00\n        /* \"#utility.yul\":2427:2429   */\n      0x20\n        /* \"#utility.yul\":2416:2425   */\n      dup3\n        /* \"#utility.yul\":2412:2430   */\n      add\n        /* \"#utility.yul\":2404:2430   */\n      swap1\n      pop\n        /* \"#utility.yul\":2476:2485   */\n      dup2\n        /* \"#utility.yul\":2470:2474   */\n      dup2\n        /* \"#utility.yul\":2466:2486   */\n      sub\n        /* \"#utility.yul\":2462:2463   */\n      0x00\n        /* \"#utility.yul\":2451:2460   */\n      dup4\n        /* \"#utility.yul\":2447:2464   */\n      add\n        /* \"#utility.yul\":2440:2487   */\n      mstore\n        /* \"#utility.yul\":2504:2582   */\n      tag_85\n        /* \"#utility.yul\":2577:2581   */\n      dup2\n        /* \"#utility.yul\":2568:2574   */\n      dup5\n        /* \"#utility.yul\":2504:2582   */\n      tag_43\n      jump\t// in\n    tag_85:\n        /* \"#utility.yul\":2496:2582   */\n      swap1\n      pop\n        /* \"#utility.yul\":2276:2589   */\n      swap3\n      swap2\n      pop\n      pop\n      jump\t// out\n        /* \"#utility.yul\":2595:2672   */\n    tag_44:\n        /* \"#utility.yul\":2632:2639   */\n      0x00\n        /* \"#utility.yul\":2661:2666   */\n      dup2\n        /* \"#utility.yul\":2650:2666   */\n      swap1\n      pop\n        /* \"#utility.yul\":2595:2672   */\n      swap2\n      swap1\n      pop\n      jump\t// out\n        /* \"#utility.yul\":2678:2800   */\n    tag_45:\n        /* \"#utility.yul\":2751:2775   */\n      tag_88\n        /* \"#utility.yul\":2769:2774   */\n      dup2\n        /* \"#utility.yul\":2751:2775   */\n      tag_44\n      jump\t// in\n    tag_88:\n        /* \"#utility.yul\":2744:2749   */\n      dup2\n        /* \"#utility.yul\":2741:2776   */\n      eq\n        /* \"#utility.yul\":2731:2794   */\n      tag_89\n      jumpi\n        /* \"#utility.yul\":2790:2791   */\n      0x00\n        /* \"#utility.yul\":2787:2788   */\n      dup1\n        /* \"#utility.yul\":2780:2792   */\n      revert\n        /* \"#utility.yul\":2731:2794   */\n    tag_89:\n        /* \"#utility.yul\":2678:2800   */\n      pop\n      jump\t// out\n        /* \"#utility.yul\":2806:2945   */\n    tag_46:\n        /* \"#utility.yul\":2852:2857   */\n      0x00\n        /* \"#utility.yul\":2890:2896   */\n      dup2\n        /* \"#utility.yul\":2877:2897   */\n      calldataload\n        /* \"#utility.yul\":2868:2897   */\n      swap1\n      pop\n        /* \"#utility.yul\":2906:2939   */\n      tag_91\n        /* \"#utility.yul\":2933:2938   */\n      dup2\n        /* \"#utility.yul\":2906:2939   */\n      tag_45\n      jump\t// in\n    tag_91:\n        /* \"#utility.yul\":2806:2945   */\n      swap3\n      swap2\n      pop\n      pop\n      jump\t// out\n        /* \"#utility.yul\":2951:3280   */\n    tag_19:\n        /* \"#utility.yul\":3010:3016   */\n      0x00\n        /* \"#utility.yul\":3059:3061   */\n      0x20\n        /* \"#utility.yul\":3047:3056   */\n      dup3\n        /* \"#utility.yul\":3038:3045   */\n      dup5\n        /* \"#utility.yul\":3034:3057   */\n      sub\n        /* \"#utility.yul\":3030:3062   */\n      slt\n        /* \"#utility.yul\":3027:3146   */\n      iszero\n      tag_93\n      jumpi\n        /* \"#utility.yul\":3065:3144   */\n      tag_94\n      tag_33\n      jump\t// in\n    tag_94:\n        /* \"#utility.yul\":3027:3146   */\n    tag_93:\n        /* \"#utility.yul\":3185:3186   */\n      0x00\n        /* \"#utility.yul\":3210:3263   */\n      tag_95\n        /* \"#utility.yul\":3255:3262   */\n      dup5\n        /* \"#utility.yul\":3246:3252   */\n      dup3\n        /* \"#utility.yul\":3235:3244   */\n      dup6\n        /* \"#utility.yul\":3231:3253   */\n      add\n        /* \"#utility.yul\":3210:3263   */\n      tag_46\n      jump\t// in\n    tag_95:\n        /* \"#utility.yul\":3200:3263   */\n      swap2\n      pop\n        /* \"#utility.yul\":3156:3273   */\n      pop\n        /* \"#utility.yul\":2951:3280   */\n      swap3\n      swap2\n      pop\n      pop\n      jump\t// out\n        /* \"#utility.yul\":3286:3404   */\n    tag_47:\n        /* \"#utility.yul\":3373:3397   */\n      tag_97\n        /* \"#utility.yul\":3391:3396   */\n      dup2\n        /* \"#utility.yul\":3373:3397   */\n      tag_44\n      jump\t// in\n    tag_97:\n        /* \"#utility.yul\":3368:3371   */\n      dup3\n        /* \"#utility.yul\":3361:3398   */\n      mstore\n        /* \"#utility.yul\":3286:3404   */\n      pop\n      pop\n      jump\t// out\n        /* \"#utility.yul\":3410:3632   */\n    tag_22:\n        /* \"#utility.yul\":3503:3507   */\n      0x00\n        /* \"#utility.yul\":3541:3543   */\n      0x20\n        /* \"#utility.yul\":3530:3539   */\n      dup3\n        /* \"#utility.yul\":3526:3544   */\n      add\n        /* \"#utility.yul\":3518:3544   */\n      swap1\n      pop\n        /* \"#utility.yul\":3554:3625   */\n      tag_99\n        /* \"#utility.yul\":3622:3623   */\n      0x00\n        /* \"#utility.yul\":3611:3620   */\n      dup4\n        /* \"#utility.yul\":3607:3624   */\n      add\n        /* \"#utility.yul\":3598:3604   */\n      dup5\n        /* \"#utility.yul\":3554:3625   */\n      tag_47\n      jump\t// in\n    tag_99:\n        /* \"#utility.yul\":3410:3632   */\n      swap3\n      swap2\n      pop\n      pop\n      jump\t// out\n        /* \"#utility.yul\":3638:3755   */\n    tag_48:\n        /* \"#utility.yul\":3747:3748   */\n      0x00\n        /* \"#utility.yul\":3744:3745   */\n      dup1\n        /* \"#utility.yul\":3737:3749   */\n      revert\n        /* \"#utility.yul\":3761:3878   */\n    tag_49:\n        /* \"#utility.yul\":3870:3871   */\n      0x00\n        /* \"#utility.yul\":3867:3868   */\n      dup1\n        /* \"#utility.yul\":3860:3872   */\n      revert\n        /* \"#utility.yul\":3884:4064   */\n    tag_50:\n        /* \"#utility.yul\":3932:4009   */\n      0x4e487b7100000000000000000000000000000000000000000000000000000000\n        /* \"#utility.yul\":3929:3930   */\n      0x00\n        /* \"#utility.yul\":3922:4010   */\n      mstore\n        /* \"#utility.yul\":4029:4033   */\n      0x41\n        /* \"#utility.yul\":4026:4027   */\n      0x04\n        /* \"#utility.yul\":4019:4034   */\n      mstore\n        /* \"#utility.yul\":4053:4057   */\n      0x24\n        /* \"#utility.yul\":4050:4051   */\n      0x00\n        /* \"#utility.yul\":4043:4058   */\n      revert\n        /* \"#utility.yul\":4070:4351   */\n    tag_51:\n        /* \"#utility.yul\":4153:4180   */\n      tag_104\n        /* \"#utility.yul\":4175:4179   */\n      dup3\n        /* \"#utility.yul\":4153:4180   */\n      tag_42\n      jump\t// in\n    tag_104:\n        /* \"#utility.yul\":4145:4151   */\n      dup2\n        /* \"#utility.yul\":4141:4181   */\n      add\n        /* \"#utility.yul\":4283:4289   */\n      dup2\n        /* \"#utility.yul\":4271:4281   */\n      dup2\n        /* \"#utility.yul\":4268:4290   */\n      lt\n        /* \"#utility.yul\":4247:4265   */\n      0xffffffffffffffff\n        /* \"#utility.yul\":4235:4245   */\n      dup3\n        /* \"#utility.yul\":4232:4266   */\n      gt\n        /* \"#utility.yul\":4229:4291   */\n      or\n        /* \"#utility.yul\":4226:4314   */\n      iszero\n      tag_105\n      jumpi\n        /* \"#utility.yul\":4294:4312   */\n      tag_106\n      tag_50\n      jump\t// in\n    tag_106:\n        /* \"#utility.yul\":4226:4314   */\n    tag_105:\n        /* \"#utility.yul\":4334:4344   */\n      dup1\n        /* \"#utility.yul\":4330:4332   */\n      0x40\n        /* \"#utility.yul\":4323:4345   */\n      mstore\n        /* \"#utility.yul\":4113:4351   */\n      pop\n        /* \"#utility.yul\":4070:4351   */\n      pop\n      pop\n      jump\t// out\n        /* \"#utility.yul\":4357:4486   */\n    tag_52:\n        /* \"#utility.yul\":4391:4397   */\n      0x00\n        /* \"#utility.yul\":4418:4438   */\n      tag_108\n      tag_32\n      jump\t// in\n    tag_108:\n        /* \"#utility.yul\":4408:4438   */\n      swap1\n      pop\n        /* \"#utility.yul\":4447:4480   */\n      tag_109\n        /* \"#utility.yul\":4475:4479   */\n      dup3\n        /* \"#utility.yul\":4467:4473   */\n      dup3\n        /* \"#utility.yul\":4447:4480   */\n      tag_51\n      jump\t// in\n    tag_109:\n        /* \"#utility.yul\":4357:4486   */\n      swap2\n      swap1\n      pop\n      jump\t// out\n        /* \"#utility.yul\":4492:4800   */\n    tag_53:\n        /* \"#utility.yul\":4554:4558   */\n      0x00\n        /* \"#utility.yul\":4644:4662   */\n      0xffffffffffffffff\n        /* \"#utility.yul\":4636:4642   */\n      dup3\n        /* \"#utility.yul\":4633:4663   */\n      gt\n        /* \"#utility.yul\":4630:4686   */\n      iszero\n      tag_111\n      jumpi\n        /* \"#utility.yul\":4666:4684   */\n      tag_112\n      tag_50\n      jump\t// in\n    tag_112:\n        /* \"#utility.yul\":4630:4686   */\n    tag_111:\n        /* \"#utility.yul\":4704:4733   */\n      tag_113\n        /* \"#utility.yul\":4726:4732   */\n      dup3\n        /* \"#utility.yul\":4704:4733   */\n      tag_42\n      jump\t// in\n    tag_113:\n        /* \"#utility.yul\":4696:4733   */\n      swap1\n      pop\n        /* \"#utility.yul\":4788:4792   */\n      0x20\n        /* \"#utility.yul\":4782:4786   */\n      dup2\n        /* \"#utility.yul\":4778:4793   */\n      add\n        /* \"#utility.yul\":4770:4793   */\n      swap1\n      pop\n        /* \"#utility.yul\":4492:4800   */\n      swap2\n      swap1\n      pop\n      jump\t// out\n        /* \"#utility.yul\":4806:4954   */\n    tag_54:\n        /* \"#utility.yul\":4904:4910   */\n      dup3\n        /* \"#utility.yul\":4899:4902   */\n      dup2\n        /* \"#utility.yul\":4894:4897   */\n      dup4\n        /* \"#utility.yul\":4881:4911   */\n      calldatacopy\n        /* \"#utility.yul\":4945:4946   */\n      0x00\n        /* \"#utility.yul\":4936:4942   */\n      dup4\n        /* \"#utility.yul\":4931:4934   */\n      dup4\n        /* \"#utility.yul\":4927:4943   */\n      add\n        /* \"#utility.yul\":4920:4947   */\n      mstore\n        /* \"#utility.yul\":4806:4954   */\n      pop\n      pop\n      pop\n      jump\t// out\n        /* \"#utility.yul\":4960:5385   */\n    tag_55:\n        /* \"#utility.yul\":5038:5043   */\n      0x00\n        /* \"#utility.yul\":5063:5129   */\n      tag_116\n        /* \"#utility.yul\":5079:5128   */\n      tag_117\n        /* \"#utility.yul\":5121:5127   */\n      dup5\n        /* \"#utility.yul\":5079:5128   */\n      tag_53\n      jump\t// in\n    tag_117:\n        /* \"#utility.yul\":5063:5129   */\n      tag_52\n      jump\t// in\n    tag_116:\n        /* \"#utility.yul\":5054:5129   */\n      swap1\n      pop\n        /* \"#utility.yul\":5152:5158   */\n      dup3\n        /* \"#utility.yul\":5145:5150   */\n      dup2\n        /* \"#utility.yul\":5138:5159   */\n      mstore\n        /* \"#utility.yul\":5190:5194   */\n      0x20\n        /* \"#utility.yul\":5183:5188   */\n      dup2\n        /* \"#utility.yul\":5179:5195   */\n      add\n        /* \"#utility.yul\":5228:5231   */\n      dup5\n        /* \"#utility.yul\":5219:5225   */\n      dup5\n        /* \"#utility.yul\":5214:5217   */\n      dup5\n        /* \"#utility.yul\":5210:5226   */\n      add\n        /* \"#utility.yul\":5207:5232   */\n      gt\n        /* \"#utility.yul\":5204:5316   */\n      iszero\n      tag_118\n      jumpi\n        /* \"#utility.yul\":5235:5314   */\n      tag_119\n      tag_49\n      jump\t// in\n    tag_119:\n        /* \"#utility.yul\":5204:5316   */\n    tag_118:\n        /* \"#utility.yul\":5325:5379   */\n      tag_120\n        /* \"#utility.yul\":5372:5378   */\n      dup5\n        /* \"#utility.yul\":5367:5370   */\n      dup3\n        /* \"#utility.yul\":5362:5365   */\n      dup6\n        /* \"#utility.yul\":5325:5379   */\n      tag_54\n      jump\t// in\n    tag_120:\n        /* \"#utility.yul\":5044:5385   */\n      pop\n        /* \"#utility.yul\":4960:5385   */\n      swap4\n      swap3\n      pop\n      pop\n      pop\n      jump\t// out\n        /* \"#utility.yul\":5405:5745   */\n    tag_56:\n        /* \"#utility.yul\":5461:5466   */\n      0x00\n        /* \"#utility.yul\":5510:5513   */\n      dup3\n        /* \"#utility.yul\":5503:5507   */\n      0x1f\n        /* \"#utility.yul\":5495:5501   */\n      dup4\n        /* \"#utility.yul\":5491:5508   */\n      add\n        /* \"#utility.yul\":5487:5514   */\n      slt\n        /* \"#utility.yul\":5477:5599   */\n      tag_122\n      jumpi\n        /* \"#utility.yul\":5518:5597   */\n      tag_123\n      tag_48\n      jump\t// in\n    tag_123:\n        /* \"#utility.yul\":5477:5599   */\n    tag_122:\n        /* \"#utility.yul\":5635:5641   */\n      dup2\n        /* \"#utility.yul\":5622:5642   */\n      calldataload\n        /* \"#utility.yul\":5660:5739   */\n      tag_124\n        /* \"#utility.yul\":5735:5738   */\n      dup5\n        /* \"#utility.yul\":5727:5733   */\n      dup3\n        /* \"#utility.yul\":5720:5724   */\n      0x20\n        /* \"#utility.yul\":5712:5718   */\n      dup7\n        /* \"#utility.yul\":5708:5725   */\n      add\n        /* \"#utility.yul\":5660:5739   */\n      tag_55\n      jump\t// in\n    tag_124:\n        /* \"#utility.yul\":5651:5739   */\n      swap2\n      pop\n        /* \"#utility.yul\":5467:5745   */\n      pop\n        /* \"#utility.yul\":5405:5745   */\n      swap3\n      swap2\n      pop\n      pop\n      jump\t// out\n        /* \"#utility.yul\":5751:6260   */\n    tag_25:\n        /* \"#utility.yul\":5820:5826   */\n      0x00\n        /* \"#utility.yul\":5869:5871   */\n      0x20\n        /* \"#utility.yul\":5857:5866   */\n      dup3\n        /* \"#utility.yul\":5848:5855   */\n      dup5\n        /* \"#utility.yul\":5844:5867   */\n      sub\n        /* \"#utility.yul\":5840:5872   */\n      slt\n        /* \"#utility.yul\":5837:5956   */\n      iszero\n      tag_126\n      jumpi\n        /* \"#utility.yul\":5875:5954   */\n      tag_127\n      tag_33\n      jump\t// in\n    tag_127:\n        /* \"#utility.yul\":5837:5956   */\n    tag_126:\n        /* \"#utility.yul\":6023:6024   */\n      0x00\n        /* \"#utility.yul\":6012:6021   */\n      dup3\n        /* \"#utility.yul\":6008:6025   */\n      add\n        /* \"#utility.yul\":5995:6026   */\n      calldataload\n        /* \"#utility.yul\":6053:6071   */\n      0xffffffffffffffff\n        /* \"#utility.yul\":6045:6051   */\n      dup2\n        /* \"#utility.yul\":6042:6072   */\n      gt\n        /* \"#utility.yul\":6039:6156   */\n      iszero\n      tag_128\n      jumpi\n        /* \"#utility.yul\":6075:6154   */\n      tag_129\n      tag_34\n      jump\t// in\n    tag_129:\n        /* \"#utility.yul\":6039:6156   */\n    tag_128:\n        /* \"#utility.yul\":6180:6243   */\n      tag_130\n        /* \"#utility.yul\":6235:6242   */\n      dup5\n        /* \"#utility.yul\":6226:6232   */\n      dup3\n        /* \"#utility.yul\":6215:6224   */\n      dup6\n        /* \"#utility.yul\":6211:6233   */\n      add\n        /* \"#utility.yul\":6180:6243   */\n      tag_56\n      jump\t// in\n    tag_130:\n        /* \"#utility.yul\":6170:6243   */\n      swap2\n      pop\n        /* \"#utility.yul\":5966:6253   */\n      pop\n        /* \"#utility.yul\":5751:6260   */\n      swap3\n      swap2\n      pop\n      pop\n      jump\t// out\n\n    auxdata: 0xa2646970667358221220cd41361e5f3c90fd9fe24d9fb4491ecf31b85fa340c9c409c89e8da5821dcaee64736f6c634300081a0033\n}\n",
				"bytecode": {
					"linkReferences": {},
					"object": "6080604052348015600e575f80fd5b506104ae8061001c5f395ff3fe608060405234801561000f575f80fd5b506004361061004a575f3560e01c80633120d4341461004e578063b0c744301461007e578063b3de648b1461009c578063e3b34a9d146100cc575b5f80fd5b6100686004803603810190610063919061019c565b6100fc565b60405161007591906101d6565b60405180910390f35b610086610105565b604051610093919061025f565b60405180910390f35b6100b660048036038101906100b191906102b2565b610142565b6040516100c391906102ec565b60405180910390f35b6100e660048036038101906100e19190610431565b61014b565b6040516100f3919061025f565b60405180910390f35b5f819050919050565b60606040518060400160405280600781526020017f4e6f7468696e6700000000000000000000000000000000000000000000000000815250905090565b5f819050919050565b6060819050919050565b5f604051905090565b5f80fd5b5f80fd5b5f60ff82169050919050565b61017b81610166565b8114610185575f80fd5b50565b5f8135905061019681610172565b92915050565b5f602082840312156101b1576101b061015e565b5b5f6101be84828501610188565b91505092915050565b6101d081610166565b82525050565b5f6020820190506101e95f8301846101c7565b92915050565b5f81519050919050565b5f82825260208201905092915050565b8281835e5f83830152505050565b5f601f19601f8301169050919050565b5f610231826101ef565b61023b81856101f9565b935061024b818560208601610209565b61025481610217565b840191505092915050565b5f6020820190508181035f8301526102778184610227565b905092915050565b5f819050919050565b6102918161027f565b811461029b575f80fd5b50565b5f813590506102ac81610288565b92915050565b5f602082840312156102c7576102c661015e565b5b5f6102d48482850161029e565b91505092915050565b6102e68161027f565b82525050565b5f6020820190506102ff5f8301846102dd565b92915050565b5f80fd5b5f80fd5b7f4e487b71000000000000000000000000000000000000000000000000000000005f52604160045260245ffd5b61034382610217565b810181811067ffffffffffffffff821117156103625761036161030d565b5b80604052505050565b5f610374610155565b9050610380828261033a565b919050565b5f67ffffffffffffffff82111561039f5761039e61030d565b5b6103a882610217565b9050602081019050919050565b828183375f83830152505050565b5f6103d56103d084610385565b61036b565b9050828152602081018484840111156103f1576103f0610309565b5b6103fc8482856103b5565b509392505050565b5f82601f83011261041857610417610305565b5b81356104288482602086016103c3565b91505092915050565b5f602082840312156104465761044561015e565b5b5f82013567ffffffffffffffff81111561046357610462610162565b5b61046f84828501610404565b9150509291505056fea2646970667358221220cd41361e5f3c90fd9fe24d9fb4491ecf31b85fa340c9c409c89e8da5821dcaee64736f6c634300081a0033",
					"opcodes": "PUSH1 0x80 PUSH1 0x40 MSTORE CALLVALUE DUP1 ISZERO PUSH1 0xE JUMPI PUSH0 DUP1 REVERT JUMPDEST POP PUSH2 0x4AE DUP1 PUSH2 0x1C PUSH0 CODECOPY PUSH0 RETURN INVALID PUSH1 0x80 PUSH1 0x40 MSTORE CALLVALUE DUP1 ISZERO PUSH2 0xF JUMPI PUSH0 DUP1 REVERT JUMPDEST POP PUSH1 0x4 CALLDATASIZE LT PUSH2 0x4A JUMPI PUSH0 CALLDATALOAD PUSH1 0xE0 SHR DUP1 PUSH4 0x3120D434 EQ PUSH2 0x4E JUMPI DUP1 PUSH4 0xB0C74430 EQ PUSH2 0x7E JUMPI DUP1 PUSH4 0xB3DE648B EQ PUSH2 0x9C JUMPI DUP1 PUSH4 0xE3B34A9D EQ PUSH2 0xCC JUMPI JUMPDEST PUSH0 DUP1 REVERT JUMPDEST PUSH2 0x68 PUSH1 0x4 DUP1 CALLDATASIZE SUB DUP2 ADD SWAP1 PUSH2 0x63 SWAP2 SWAP1 PUSH2 0x19C JUMP JUMPDEST PUSH2 0xFC JUMP JUMPDEST PUSH1 0x40 MLOAD PUSH2 0x75 SWAP2 SWAP1 PUSH2 0x1D6 JUMP JUMPDEST PUSH1 0x40 MLOAD DUP1 SWAP2 SUB SWAP1 RETURN JUMPDEST PUSH2 0x86 PUSH2 0x105 JUMP JUMPDEST PUSH1 0x40 MLOAD PUSH2 0x93 SWAP2 SWAP1 PUSH2 0x25F JUMP JUMPDEST PUSH1 0x40 MLOAD DUP1 SWAP2 SUB SWAP1 RETURN JUMPDEST PUSH2 0xB6 PUSH1 0x4 DUP1 CALLDATASIZE SUB DUP2 ADD SWAP1 PUSH2 0xB1 SWAP2 SWAP1 PUSH2 0x2B2 JUMP JUMPDEST PUSH2 0x142 JUMP JUMPDEST PUSH1 0x40 MLOAD PUSH2 0xC3 SWAP2 SWAP1 PUSH2 0x2EC JUMP JUMPDEST PUSH1 0x40 MLOAD DUP1 SWAP2 SUB SWAP1 RETURN JUMPDEST PUSH2 0xE6 PUSH1 0x4 DUP1 CALLDATASIZE SUB DUP2 ADD SWAP1 PUSH2 0xE1 SWAP2 SWAP1 PUSH2 0x431 JUMP JUMPDEST PUSH2 0x14B JUMP JUMPDEST PUSH1 0x40 MLOAD PUSH2 0xF3 SWAP2 SWAP1 PUSH2 0x25F JUMP JUMPDEST PUSH1 0x40 MLOAD DUP1 SWAP2 SUB SWAP1 RETURN JUMPDEST PUSH0 DUP2 SWAP1 POP SWAP2 SWAP1 POP JUMP JUMPDEST PUSH1 0x60 PUSH1 0x40 MLOAD DUP1 PUSH1 0x40 ADD PUSH1 0x40 MSTORE DUP1 PUSH1 0x7 DUP2 MSTORE PUSH1 0x20 ADD PUSH32 0x4E6F7468696E6700000000000000000000000000000000000000000000000000 DUP2 MSTORE POP SWAP1 POP SWAP1 JUMP JUMPDEST PUSH0 DUP2 SWAP1 POP SWAP2 SWAP1 POP JUMP JUMPDEST PUSH1 0x60 DUP2 SWAP1 POP SWAP2 SWAP1 POP JUMP JUMPDEST PUSH0 PUSH1 0x40 MLOAD SWAP1 POP SWAP1 JUMP JUMPDEST PUSH0 DUP1 REVERT JUMPDEST PUSH0 DUP1 REVERT JUMPDEST PUSH0 PUSH1 0xFF DUP3 AND SWAP1 POP SWAP2 SWAP1 POP JUMP JUMPDEST PUSH2 0x17B DUP2 PUSH2 0x166 JUMP JUMPDEST DUP2 EQ PUSH2 0x185 JUMPI PUSH0 DUP1 REVERT JUMPDEST POP JUMP JUMPDEST PUSH0 DUP2 CALLDATALOAD SWAP1 POP PUSH2 0x196 DUP2 PUSH2 0x172 JUMP JUMPDEST SWAP3 SWAP2 POP POP JUMP JUMPDEST PUSH0 PUSH1 0x20 DUP3 DUP5 SUB SLT ISZERO PUSH2 0x1B1 JUMPI PUSH2 0x1B0 PUSH2 0x15E JUMP JUMPDEST JUMPDEST PUSH0 PUSH2 0x1BE DUP5 DUP3 DUP6 ADD PUSH2 0x188 JUMP JUMPDEST SWAP2 POP POP SWAP3 SWAP2 POP POP JUMP JUMPDEST PUSH2 0x1D0 DUP2 PUSH2 0x166 JUMP JUMPDEST DUP3 MSTORE POP POP JUMP JUMPDEST PUSH0 PUSH1 0x20 DUP3 ADD SWAP1 POP PUSH2 0x1E9 PUSH0 DUP4 ADD DUP5 PUSH2 0x1C7 JUMP JUMPDEST SWAP3 SWAP2 POP POP JUMP JUMPDEST PUSH0 DUP2 MLOAD SWAP1 POP SWAP2 SWAP1 POP JUMP JUMPDEST PUSH0 DUP3 DUP3 MSTORE PUSH1 0x20 DUP3 ADD SWAP1 POP SWAP3 SWAP2 POP POP JUMP JUMPDEST DUP3 DUP2 DUP4 MCOPY PUSH0 DUP4 DUP4 ADD MSTORE POP POP POP JUMP JUMPDEST PUSH0 PUSH1 0x1F NOT PUSH1 0x1F DUP4 ADD AND SWAP1 POP SWAP2 SWAP1 POP JUMP JUMPDEST PUSH0 PUSH2 0x231 DUP3 PUSH2 0x1EF JUMP JUMPDEST PUSH2 0x23B DUP2 DUP6 PUSH2 0x1F9 JUMP JUMPDEST SWAP4 POP PUSH2 0x24B DUP2 DUP6 PUSH1 0x20 DUP7 ADD PUSH2 0x209 JUMP JUMPDEST PUSH2 0x254 DUP2 PUSH2 0x217 JUMP JUMPDEST DUP5 ADD SWAP2 POP POP SWAP3 SWAP2 POP POP JUMP JUMPDEST PUSH0 PUSH1 0x20 DUP3 ADD SWAP1 POP DUP2 DUP2 SUB PUSH0 DUP4 ADD MSTORE PUSH2 0x277 DUP2 DUP5 PUSH2 0x227 JUMP JUMPDEST SWAP1 POP SWAP3 SWAP2 POP POP JUMP JUMPDEST PUSH0 DUP2 SWAP1 POP SWAP2 SWAP1 POP JUMP JUMPDEST PUSH2 0x291 DUP2 PUSH2 0x27F JUMP JUMPDEST DUP2 EQ PUSH2 0x29B JUMPI PUSH0 DUP1 REVERT JUMPDEST POP JUMP JUMPDEST PUSH0 DUP2 CALLDATALOAD SWAP1 POP PUSH2 0x2AC DUP2 PUSH2 0x288 JUMP JUMPDEST SWAP3 SWAP2 POP POP JUMP JUMPDEST PUSH0 PUSH1 0x20 DUP3 DUP5 SUB SLT ISZERO PUSH2 0x2C7 JUMPI PUSH2 0x2C6 PUSH2 0x15E JUMP JUMPDEST JUMPDEST PUSH0 PUSH2 0x2D4 DUP5 DUP3 DUP6 ADD PUSH2 0x29E JUMP JUMPDEST SWAP2 POP POP SWAP3 SWAP2 POP POP JUMP JUMPDEST PUSH2 0x2E6 DUP2 PUSH2 0x27F JUMP JUMPDEST DUP3 MSTORE POP POP JUMP JUMPDEST PUSH0 PUSH1 0x20 DUP3 ADD SWAP1 POP PUSH2 0x2FF PUSH0 DUP4 ADD DUP5 PUSH2 0x2DD JUMP JUMPDEST SWAP3 SWAP2 POP POP JUMP JUMPDEST PUSH0 DUP1 REVERT JUMPDEST PUSH0 DUP1 REVERT JUMPDEST PUSH32 0x4E487B7100000000000000000000000000000000000000000000000000000000 PUSH0 MSTORE PUSH1 0x41 PUSH1 0x4 MSTORE PUSH1 0x24 PUSH0 REVERT JUMPDEST PUSH2 0x343 DUP3 PUSH2 0x217 JUMP JUMPDEST DUP2 ADD DUP2 DUP2 LT PUSH8 0xFFFFFFFFFFFFFFFF DUP3 GT OR ISZERO PUSH2 0x362 JUMPI PUSH2 0x361 PUSH2 0x30D JUMP JUMPDEST JUMPDEST DUP1 PUSH1 0x40 MSTORE POP POP POP JUMP JUMPDEST PUSH0 PUSH2 0x374 PUSH2 0x155 JUMP JUMPDEST SWAP1 POP PUSH2 0x380 DUP3 DUP3 PUSH2 0x33A JUMP JUMPDEST SWAP2 SWAP1 POP JUMP JUMPDEST PUSH0 PUSH8 0xFFFFFFFFFFFFFFFF DUP3 GT ISZERO PUSH2 0x39F JUMPI PUSH2 0x39E PUSH2 0x30D JUMP JUMPDEST JUMPDEST PUSH2 0x3A8 DUP3 PUSH2 0x217 JUMP JUMPDEST SWAP1 POP PUSH1 0x20 DUP2 ADD SWAP1 POP SWAP2 SWAP1 POP JUMP JUMPDEST DUP3 DUP2 DUP4 CALLDATACOPY PUSH0 DUP4 DUP4 ADD MSTORE POP POP POP JUMP JUMPDEST PUSH0 PUSH2 0x3D5 PUSH2 0x3D0 DUP5 PUSH2 0x385 JUMP JUMPDEST PUSH2 0x36B JUMP JUMPDEST SWAP1 POP DUP3 DUP2 MSTORE PUSH1 0x20 DUP2 ADD DUP5 DUP5 DUP5 ADD GT ISZERO PUSH2 0x3F1 JUMPI PUSH2 0x3F0 PUSH2 0x309 JUMP JUMPDEST JUMPDEST PUSH2 0x3FC DUP5 DUP3 DUP6 PUSH2 0x3B5 JUMP JUMPDEST POP SWAP4 SWAP3 POP POP POP JUMP JUMPDEST PUSH0 DUP3 PUSH1 0x1F DUP4 ADD SLT PUSH2 0x418 JUMPI PUSH2 0x417 PUSH2 0x305 JUMP JUMPDEST JUMPDEST DUP2 CALLDATALOAD PUSH2 0x428 DUP5 DUP3 PUSH1 0x20 DUP7 ADD PUSH2 0x3C3 JUMP JUMPDEST SWAP2 POP POP SWAP3 SWAP2 POP POP JUMP JUMPDEST PUSH0 PUSH1 0x20 DUP3 DUP5 SUB SLT ISZERO PUSH2 0x446 JUMPI PUSH2 0x445 PUSH2 0x15E JUMP JUMPDEST JUMPDEST PUSH0 DUP3 ADD CALLDATALOAD PUSH8 0xFFFFFFFFFFFFFFFF DUP2 GT ISZERO PUSH2 0x463 JUMPI PUSH2 0x462 PUSH2 0x162 JUMP JUMPDEST JUMPDEST PUSH2 0x46F DUP5 DUP3 DUP6 ADD PUSH2 0x404 JUMP JUMPDEST SWAP2 POP POP SWAP3 SWAP2 POP POP JUMP INVALID LOG2 PUSH5 0x6970667358 0x22 SLT KECCAK256 0xCD COINBASE CALLDATASIZE 0x1E PUSH0 EXTCODECOPY SWAP1 REVERT SWAP16 0xE2 0x4D SWAP16 0xB4 BLOBHASH 0x1E 0xCF BALANCE 0xB8 PUSH0 LOG3 BLOCKHASH 0xC9 0xC4 MULMOD 0xC8 SWAP15 DUP14 0xA5 DUP3 SAR 0xCA 0xEE PUSH5 0x736F6C6343 STOP ADDMOD BYTE STOP CALLER "
				},
				"gasEstimates": {
					"creation": {
						"codeDepositCost": "239600",
						"executionCost": "279",
						"totalCost": "239879"
					},
					"external": {
						"f(uint256)": "infinite",
						"f(uint8)": "infinite",
						"saysomething()": "infinite",
						"saysomething(string)": "infinite"
					}
				},
				"methodIdentifiers": {
					"f(uint256)": "b3de648b",
					"f(uint8)": "3120d434",
					"saysomething()": "b0c74430",
					"saysomething(string)": "e3b34a9d"
				}
			},
			"storageLayout": {
				"storage": [],
				"types": null
			},
			"userdoc": {
				"kind": "user",
				"methods": {},
				"version": 1
			}
		}
	}
}