{
	"solidity/task2/beggingtest.sol": {
		"BeggingContract": {
			"abi": [
				{
					"anonymous": false,
					"inputs": [
						{
							"indexed": false,
							"internalType": "address",
							"name": "addr",
							"type": "address"
						},
						{
							"indexed": false,
							"internalType": "uint256",
							"name": "amount",
							"type": "uint256"
						}
					],
					"name": "Donation",
					"type": "event"
				},
				{
					"stateMutability": "payable",
					"type": "fallback"
				},
				{
					"inputs": [],
					"name": "donate",
					"outputs": [],
					"stateMutability": "payable",
					"type": "function"
				},
				{
					"inputs": [
						{
							"internalType": "address",
							"name": "addr",
							"type": "address"
						}
					],
					"name": "getDonation",
					"outputs": [
						{
							"internalType": "uint256",
							"name": "",
							"type": "uint256"
						}
					],
					"stateMutability": "view",
					"type": "function"
				},
				{
					"inputs": [],
					"name": "getsortthreeDonations",
					"outputs": [
						{
							"internalType": "address[]",
							"name": "",
							"type": "address[]"
						}
					],
					"stateMutability": "nonpayable",
					"type": "function"
				},
				{
					"inputs": [],
					"name": "owner",
					"outputs": [
						{
							"internalType": "address",
							"name": "",
							"type": "address"
						}
					],
					"stateMutability": "view",
					"type": "function"
				},
				{
					"inputs": [
						{
							"internalType": "address payable",
							"name": "addr",
							"type": "address"
						},
						{
							"internalType": "uint256",
							"name": "amount",
							"type": "uint256"
						}
					],
					"name": "withdrow",
					"outputs": [],
					"stateMutability": "payable",
					"type": "function"
				},
				{
					"stateMutability": "payable",
					"type": "receive"
				}
			],
			"devdoc": {
				"kind": "dev",
				"methods": {},
				"version": 1
			},
			"evm": {
				"assembly": "    /* \"solidity/task2/beggingtest.sol\":58:1916  contract BeggingContract{... */\n  mstore(0x40, 0x80)\n    /* \"solidity/task2/beggingtest.sol\":163:173  msg.sender */\n  caller\n    /* \"solidity/task2/beggingtest.sol\":140:173  address public owner = msg.sender */\n  0x00\n  dup1\n  0x0100\n  exp\n  dup2\n  sload\n  dup2\n  0xffffffffffffffffffffffffffffffffffffffff\n  mul\n  not\n  and\n  swap1\n  dup4\n  0xffffffffffffffffffffffffffffffffffffffff\n  and\n  mul\n  or\n  swap1\n  sstore\n  pop\n    /* \"solidity/task2/beggingtest.sol\":313:323  30 seconds */\n  0x1e\n    /* \"solidity/task2/beggingtest.sol\":295:310  block.timestamp */\n  timestamp\n    /* \"solidity/task2/beggingtest.sol\":295:323  block.timestamp - 30 seconds */\n  tag_1\n  swap2\n  swap1\n  tag_2\n  jump\t// in\ntag_1:\n    /* \"solidity/task2/beggingtest.sol\":277:323  uint permittime = block.timestamp - 30 seconds */\n  0x03\n  sstore\n    /* \"solidity/task2/beggingtest.sol\":58:1916  contract BeggingContract{... */\n  callvalue\n  dup1\n  iszero\n  tag_3\n  jumpi\n  0x00\n  dup1\n  revert\ntag_3:\n  pop\n  jump(tag_4)\n    /* \"#utility.yul\":7:84   */\ntag_5:\n    /* \"#utility.yul\":44:51   */\n  0x00\n    /* \"#utility.yul\":73:78   */\n  dup2\n    /* \"#utility.yul\":62:78   */\n  swap1\n  pop\n    /* \"#utility.yul\":7:84   */\n  swap2\n  swap1\n  pop\n  jump\t// out\n    /* \"#utility.yul\":90:270   */\ntag_6:\n    /* \"#utility.yul\":138:215   */\n  0x4e487b7100000000000000000000000000000000000000000000000000000000\n    /* \"#utility.yul\":135:136   */\n  0x00\n    /* \"#utility.yul\":128:216   */\n  mstore\n    /* \"#utility.yul\":235:239   */\n  0x11\n    /* \"#utility.yul\":232:233   */\n  0x04\n    /* \"#utility.yul\":225:240   */\n  mstore\n    /* \"#utility.yul\":259:263   */\n  0x24\n    /* \"#utility.yul\":256:257   */\n  0x00\n    /* \"#utility.yul\":249:264   */\n  revert\n    /* \"#utility.yul\":276:470   */\ntag_2:\n    /* \"#utility.yul\":316:320   */\n  0x00\n    /* \"#utility.yul\":336:356   */\n  tag_11\n    /* \"#utility.yul\":354:355   */\n  dup3\n    /* \"#utility.yul\":336:356   */\n  tag_5\n  jump\t// in\ntag_11:\n    /* \"#utility.yul\":331:356   */\n  swap2\n  pop\n    /* \"#utility.yul\":370:390   */\n  tag_12\n    /* \"#utility.yul\":388:389   */\n  dup4\n    /* \"#utility.yul\":370:390   */\n  tag_5\n  jump\t// in\ntag_12:\n    /* \"#utility.yul\":365:390   */\n  swap3\n  pop\n    /* \"#utility.yul\":414:415   */\n  dup3\n    /* \"#utility.yul\":411:412   */\n  dup3\n    /* \"#utility.yul\":407:416   */\n  sub\n    /* \"#utility.yul\":399:416   */\n  swap1\n  pop\n    /* \"#utility.yul\":438:439   */\n  dup2\n    /* \"#utility.yul\":432:436   */\n  dup2\n    /* \"#utility.yul\":429:440   */\n  gt\n    /* \"#utility.yul\":426:463   */\n  iszero\n  tag_13\n  jumpi\n    /* \"#utility.yul\":443:461   */\n  tag_14\n  tag_6\n  jump\t// in\ntag_14:\n    /* \"#utility.yul\":426:463   */\ntag_13:\n    /* \"#utility.yul\":276:470   */\n  swap3\n  swap2\n  pop\n  pop\n  jump\t// out\n    /* \"solidity/task2/beggingtest.sol\":58:1916  contract BeggingContract{... */\ntag_4:\n  dataSize(sub_0)\n  dup1\n  dataOffset(sub_0)\n  0x00\n  codecopy\n  0x00\n  return\nstop\n\nsub_0: assembly {\n        /* \"solidity/task2/beggingtest.sol\":58:1916  contract BeggingContract{... */\n      mstore(0x40, 0x80)\n      jumpi(tag_1, lt(calldatasize, 0x04))\n      shr(0xe0, calldataload(0x00))\n      dup1\n      0x410a1d32\n      eq\n      tag_3\n      jumpi\n      dup1\n      0x48c1291d\n      eq\n      tag_4\n      jumpi\n      dup1\n      0x5b56410b\n      eq\n      tag_5\n      jumpi\n      dup1\n      0x8da5cb5b\n      eq\n      tag_6\n      jumpi\n      dup1\n      0xed88c68e\n      eq\n      tag_7\n      jumpi\n      jump(tag_2)\n    tag_1:\n      jumpi(tag_2, calldatasize)\n      stop\n    tag_2:\n      stop\n        /* \"solidity/task2/beggingtest.sol\":1016:1258  function getDonation(address addr) external view returns(uint256){... */\n    tag_3:\n      callvalue\n      dup1\n      iszero\n      tag_12\n      jumpi\n      0x00\n      dup1\n      revert\n    tag_12:\n      pop\n      tag_13\n      0x04\n      dup1\n      calldatasize\n      sub\n      dup2\n      add\n      swap1\n      tag_14\n      swap2\n      swap1\n      tag_15\n      jump\t// in\n    tag_14:\n      tag_16\n      jump\t// in\n    tag_13:\n      mload(0x40)\n      tag_17\n      swap2\n      swap1\n      tag_18\n      jump\t// in\n    tag_17:\n      mload(0x40)\n      dup1\n      swap2\n      sub\n      swap1\n      return\n        /* \"solidity/task2/beggingtest.sol\":1266:1840  function getsortthreeDonations() external returns(address[] memory){... */\n    tag_4:\n      callvalue\n      dup1\n      iszero\n      tag_19\n      jumpi\n      0x00\n      dup1\n      revert\n    tag_19:\n      pop\n      tag_20\n      tag_21\n      jump\t// in\n    tag_20:\n      mload(0x40)\n      tag_22\n      swap2\n      swap1\n      tag_23\n      jump\t// in\n    tag_22:\n      mload(0x40)\n      dup1\n      swap2\n      sub\n      swap1\n      return\n        /* \"solidity/task2/beggingtest.sol\":814:1008  function withdrow(address payable addr, uint256 amount) external payable OnlyOwner{... */\n    tag_5:\n      tag_24\n      0x04\n      dup1\n      calldatasize\n      sub\n      dup2\n      add\n      swap1\n      tag_25\n      swap2\n      swap1\n      tag_26\n      jump\t// in\n    tag_25:\n      tag_27\n      jump\t// in\n    tag_24:\n      stop\n        /* \"solidity/task2/beggingtest.sol\":140:173  address public owner = msg.sender */\n    tag_6:\n      callvalue\n      dup1\n      iszero\n      tag_28\n      jumpi\n      0x00\n      dup1\n      revert\n    tag_28:\n      pop\n      tag_29\n      tag_30\n      jump\t// in\n    tag_29:\n      mload(0x40)\n      tag_31\n      swap2\n      swap1\n      tag_32\n      jump\t// in\n    tag_31:\n      mload(0x40)\n      dup1\n      swap2\n      sub\n      swap1\n      return\n        /* \"solidity/task2/beggingtest.sol\":332:694  function donate() external payable{... */\n    tag_7:\n      tag_33\n      tag_34\n      jump\t// in\n    tag_33:\n      stop\n        /* \"solidity/task2/beggingtest.sol\":1016:1258  function getDonation(address addr) external view returns(uint256){... */\n    tag_16:\n        /* \"solidity/task2/beggingtest.sol\":1073:1080  uint256 */\n      0x00\n        /* \"solidity/task2/beggingtest.sol\":1116:1117  0 */\n      dup1\n        /* \"solidity/task2/beggingtest.sol\":1100:1118  addr != address(0) */\n      0xffffffffffffffffffffffffffffffffffffffff\n      and\n        /* \"solidity/task2/beggingtest.sol\":1100:1104  addr */\n      dup3\n        /* \"solidity/task2/beggingtest.sol\":1100:1118  addr != address(0) */\n      0xffffffffffffffffffffffffffffffffffffffff\n      and\n      sub\n        /* \"solidity/task2/beggingtest.sol\":1092:1138  require(addr != address(0), \"Invalid address\") */\n      tag_36\n      jumpi\n      mload(0x40)\n      0x08c379a000000000000000000000000000000000000000000000000000000000\n      dup2\n      mstore\n      0x04\n      add\n      tag_37\n      swap1\n      tag_38\n      jump\t// in\n    tag_37:\n      mload(0x40)\n      dup1\n      swap2\n      sub\n      swap1\n      revert\n    tag_36:\n        /* \"solidity/task2/beggingtest.sol\":1184:1185  0 */\n      0x00\n        /* \"solidity/task2/beggingtest.sol\":1157:1174  forbeggingAccount */\n      0x01\n        /* \"solidity/task2/beggingtest.sol\":1157:1180  forbeggingAccount[addr] */\n      0x00\n        /* \"solidity/task2/beggingtest.sol\":1175:1179  addr */\n      dup5\n        /* \"solidity/task2/beggingtest.sol\":1157:1180  forbeggingAccount[addr] */\n      0xffffffffffffffffffffffffffffffffffffffff\n      and\n      0xffffffffffffffffffffffffffffffffffffffff\n      and\n      dup2\n      mstore\n      0x20\n      add\n      swap1\n      dup2\n      mstore\n      0x20\n      add\n      0x00\n      keccak256\n      sload\n        /* \"solidity/task2/beggingtest.sol\":1157:1185  forbeggingAccount[addr] != 0 */\n      sub\n        /* \"solidity/task2/beggingtest.sol\":1149:1207  require(forbeggingAccount[addr] != 0, \"you didn't donate\") */\n      tag_39\n      jumpi\n      mload(0x40)\n      0x08c379a000000000000000000000000000000000000000000000000000000000\n      dup2\n      mstore\n      0x04\n      add\n      tag_40\n      swap1\n      tag_41\n      jump\t// in\n    tag_40:\n      mload(0x40)\n      dup1\n      swap2\n      sub\n      swap1\n      revert\n    tag_39:\n        /* \"solidity/task2/beggingtest.sol\":1227:1244  forbeggingAccount */\n      0x01\n        /* \"solidity/task2/beggingtest.sol\":1227:1250  forbeggingAccount[addr] */\n      0x00\n        /* \"solidity/task2/beggingtest.sol\":1245:1249  addr */\n      dup4\n        /* \"solidity/task2/beggingtest.sol\":1227:1250  forbeggingAccount[addr] */\n      0xffffffffffffffffffffffffffffffffffffffff\n      and\n      0xffffffffffffffffffffffffffffffffffffffff\n      and\n      dup2\n      mstore\n      0x20\n      add\n      swap1\n      dup2\n      mstore\n      0x20\n      add\n      0x00\n      keccak256\n      sload\n        /* \"solidity/task2/beggingtest.sol\":1220:1250  return forbeggingAccount[addr] */\n      swap1\n      pop\n        /* \"solidity/task2/beggingtest.sol\":1016:1258  function getDonation(address addr) external view returns(uint256){... */\n      swap2\n      swap1\n      pop\n      jump\t// out\n        /* \"solidity/task2/beggingtest.sol\":1266:1840  function getsortthreeDonations() external returns(address[] memory){... */\n    tag_21:\n        /* \"solidity/task2/beggingtest.sol\":1316:1332  address[] memory */\n      0x60\n        /* \"solidity/task2/beggingtest.sol\":1348:1354  uint i */\n      0x00\n        /* \"solidity/task2/beggingtest.sol\":1344:1613  for(uint i=0;i<addrs.length;i++){... */\n    tag_43:\n        /* \"solidity/task2/beggingtest.sol\":1359:1364  addrs */\n      0x02\n        /* \"solidity/task2/beggingtest.sol\":1359:1371  addrs.length */\n      dup1\n      sload\n      swap1\n      pop\n        /* \"solidity/task2/beggingtest.sol\":1357:1358  i */\n      dup2\n        /* \"solidity/task2/beggingtest.sol\":1357:1371  i<addrs.length */\n      lt\n        /* \"solidity/task2/beggingtest.sol\":1344:1613  for(uint i=0;i<addrs.length;i++){... */\n      iszero\n      tag_44\n      jumpi\n        /* \"solidity/task2/beggingtest.sol\":1395:1401  uint j */\n      0x00\n        /* \"solidity/task2/beggingtest.sol\":1404:1405  1 */\n      0x01\n        /* \"solidity/task2/beggingtest.sol\":1402:1403  i */\n      dup3\n        /* \"solidity/task2/beggingtest.sol\":1402:1405  i+1 */\n      tag_49\n      swap2\n      swap1\n      tag_50\n      jump\t// in\n    tag_49:\n        /* \"solidity/task2/beggingtest.sol\":1395:1405  uint j=i+1 */\n      swap1\n      pop\n        /* \"solidity/task2/beggingtest.sol\":1391:1602  for(uint j=i+1;j<addrs.length;j++){... */\n    tag_46:\n        /* \"solidity/task2/beggingtest.sol\":1408:1413  addrs */\n      0x02\n        /* \"solidity/task2/beggingtest.sol\":1408:1420  addrs.length */\n      dup1\n      sload\n      swap1\n      pop\n        /* \"solidity/task2/beggingtest.sol\":1406:1407  j */\n      dup2\n        /* \"solidity/task2/beggingtest.sol\":1406:1420  j<addrs.length */\n      lt\n        /* \"solidity/task2/beggingtest.sol\":1391:1602  for(uint j=i+1;j<addrs.length;j++){... */\n      iszero\n      tag_47\n      jumpi\n        /* \"solidity/task2/beggingtest.sol\":1475:1492  forbeggingAccount */\n      0x01\n        /* \"solidity/task2/beggingtest.sol\":1475:1502  forbeggingAccount[addrs[j]] */\n      0x00\n        /* \"solidity/task2/beggingtest.sol\":1493:1498  addrs */\n      0x02\n        /* \"solidity/task2/beggingtest.sol\":1499:1500  j */\n      dup4\n        /* \"solidity/task2/beggingtest.sol\":1493:1501  addrs[j] */\n      dup2\n      sload\n      dup2\n      lt\n      tag_51\n      jumpi\n      tag_52\n      tag_53\n      jump\t// in\n    tag_52:\n    tag_51:\n      swap1\n      0x00\n      mstore\n      keccak256(0x00, 0x20)\n      add\n      0x00\n      swap1\n      sload\n      swap1\n      0x0100\n      exp\n      swap1\n      div\n      0xffffffffffffffffffffffffffffffffffffffff\n      and\n        /* \"solidity/task2/beggingtest.sol\":1475:1502  forbeggingAccount[addrs[j]] */\n      0xffffffffffffffffffffffffffffffffffffffff\n      and\n      0xffffffffffffffffffffffffffffffffffffffff\n      and\n      dup2\n      mstore\n      0x20\n      add\n      swap1\n      dup2\n      mstore\n      0x20\n      add\n      0x00\n      keccak256\n      sload\n        /* \"solidity/task2/beggingtest.sol\":1447:1464  forbeggingAccount */\n      0x01\n        /* \"solidity/task2/beggingtest.sol\":1447:1474  forbeggingAccount[addrs[i]] */\n      0x00\n        /* \"solidity/task2/beggingtest.sol\":1465:1470  addrs */\n      0x02\n        /* \"solidity/task2/beggingtest.sol\":1471:1472  i */\n      dup6\n        /* \"solidity/task2/beggingtest.sol\":1465:1473  addrs[i] */\n      dup2\n      sload\n      dup2\n      lt\n      tag_55\n      jumpi\n      tag_56\n      tag_53\n      jump\t// in\n    tag_56:\n    tag_55:\n      swap1\n      0x00\n      mstore\n      keccak256(0x00, 0x20)\n      add\n      0x00\n      swap1\n      sload\n      swap1\n      0x0100\n      exp\n      swap1\n      div\n      0xffffffffffffffffffffffffffffffffffffffff\n      and\n        /* \"solidity/task2/beggingtest.sol\":1447:1474  forbeggingAccount[addrs[i]] */\n      0xffffffffffffffffffffffffffffffffffffffff\n      and\n      0xffffffffffffffffffffffffffffffffffffffff\n      and\n      dup2\n      mstore\n      0x20\n      add\n      swap1\n      dup2\n      mstore\n      0x20\n      add\n      0x00\n      keccak256\n      sload\n        /* \"solidity/task2/beggingtest.sol\":1447:1502  forbeggingAccount[addrs[i]]<forbeggingAccount[addrs[j]] */\n      lt\n        /* \"solidity/task2/beggingtest.sol\":1444:1587  if(forbeggingAccount[addrs[i]]<forbeggingAccount[addrs[j]]){... */\n      iszero\n      tag_58\n      jumpi\n        /* \"solidity/task2/beggingtest.sol\":1549:1554  addrs */\n      0x02\n        /* \"solidity/task2/beggingtest.sol\":1555:1556  j */\n      dup2\n        /* \"solidity/task2/beggingtest.sol\":1549:1557  addrs[j] */\n      dup2\n      sload\n      dup2\n      lt\n      tag_59\n      jumpi\n      tag_60\n      tag_53\n      jump\t// in\n    tag_60:\n    tag_59:\n      swap1\n      0x00\n      mstore\n      keccak256(0x00, 0x20)\n      add\n      0x00\n      swap1\n      sload\n      swap1\n      0x0100\n      exp\n      swap1\n      div\n      0xffffffffffffffffffffffffffffffffffffffff\n      and\n        /* \"solidity/task2/beggingtest.sol\":1558:1563  addrs */\n      0x02\n        /* \"solidity/task2/beggingtest.sol\":1564:1565  i */\n      dup4\n        /* \"solidity/task2/beggingtest.sol\":1558:1566  addrs[i] */\n      dup2\n      sload\n      dup2\n      lt\n      tag_62\n      jumpi\n      tag_63\n      tag_53\n      jump\t// in\n    tag_63:\n    tag_62:\n      swap1\n      0x00\n      mstore\n      keccak256(0x00, 0x20)\n      add\n      0x00\n      swap1\n      sload\n      swap1\n      0x0100\n      exp\n      swap1\n      div\n      0xffffffffffffffffffffffffffffffffffffffff\n      and\n        /* \"solidity/task2/beggingtest.sol\":1527:1532  addrs */\n      0x02\n        /* \"solidity/task2/beggingtest.sol\":1533:1534  i */\n      dup5\n        /* \"solidity/task2/beggingtest.sol\":1527:1535  addrs[i] */\n      dup2\n      sload\n      dup2\n      lt\n      tag_65\n      jumpi\n      tag_66\n      tag_53\n      jump\t// in\n    tag_66:\n    tag_65:\n      swap1\n      0x00\n      mstore\n      keccak256(0x00, 0x20)\n      add\n      0x00\n        /* \"solidity/task2/beggingtest.sol\":1536:1541  addrs */\n      0x02\n        /* \"solidity/task2/beggingtest.sol\":1542:1543  j */\n      dup6\n        /* \"solidity/task2/beggingtest.sol\":1536:1544  addrs[j] */\n      dup2\n      sload\n      dup2\n      lt\n      tag_68\n      jumpi\n      tag_69\n      tag_53\n      jump\t// in\n    tag_69:\n    tag_68:\n      swap1\n      0x00\n      mstore\n      keccak256(0x00, 0x20)\n      add\n      0x00\n        /* \"solidity/task2/beggingtest.sol\":1526:1567  (addrs[i],addrs[j]) = (addrs[j],addrs[i]) */\n      dup5\n      swap2\n      swap1\n      0x0100\n      exp\n      dup2\n      sload\n      dup2\n      0xffffffffffffffffffffffffffffffffffffffff\n      mul\n      not\n      and\n      swap1\n      dup4\n      0xffffffffffffffffffffffffffffffffffffffff\n      and\n      mul\n      or\n      swap1\n      sstore\n      pop\n      dup4\n      swap2\n      swap1\n      0x0100\n      exp\n      dup2\n      sload\n      dup2\n      0xffffffffffffffffffffffffffffffffffffffff\n      mul\n      not\n      and\n      swap1\n      dup4\n      0xffffffffffffffffffffffffffffffffffffffff\n      and\n      mul\n      or\n      swap1\n      sstore\n      pop\n      pop\n      pop\n        /* \"solidity/task2/beggingtest.sol\":1444:1587  if(forbeggingAccount[addrs[i]]<forbeggingAccount[addrs[j]]){... */\n    tag_58:\n        /* \"solidity/task2/beggingtest.sol\":1421:1424  j++ */\n      dup1\n      dup1\n      0x01\n      add\n      swap2\n      pop\n      pop\n        /* \"solidity/task2/beggingtest.sol\":1391:1602  for(uint j=i+1;j<addrs.length;j++){... */\n      jump(tag_46)\n    tag_47:\n      pop\n        /* \"solidity/task2/beggingtest.sol\":1372:1375  i++ */\n      dup1\n      dup1\n      0x01\n      add\n      swap2\n      pop\n      pop\n        /* \"solidity/task2/beggingtest.sol\":1344:1613  for(uint i=0;i<addrs.length;i++){... */\n      jump(tag_43)\n    tag_44:\n      pop\n        /* \"solidity/task2/beggingtest.sol\":1623:1647  address[] memory tmpaddr */\n      0x00\n        /* \"solidity/task2/beggingtest.sol\":1664:1665  3 */\n      0x03\n        /* \"solidity/task2/beggingtest.sol\":1650:1666  new address[](3) */\n      0xffffffffffffffff\n      dup2\n      gt\n      iszero\n      tag_71\n      jumpi\n      tag_72\n      tag_73\n      jump\t// in\n    tag_72:\n    tag_71:\n      mload(0x40)\n      swap1\n      dup1\n      dup3\n      mstore\n      dup1\n      0x20\n      mul\n      0x20\n      add\n      dup3\n      add\n      0x40\n      mstore\n      dup1\n      iszero\n      tag_74\n      jumpi\n      dup2\n      0x20\n      add\n      0x20\n      dup3\n      mul\n      dup1\n      calldatasize\n      dup4\n      calldatacopy\n      dup1\n      dup3\n      add\n      swap2\n      pop\n      pop\n      swap1\n      pop\n    tag_74:\n      pop\n        /* \"solidity/task2/beggingtest.sol\":1623:1666  address[] memory tmpaddr = new address[](3) */\n      swap1\n      pop\n        /* \"solidity/task2/beggingtest.sol\":1677:1688  uint length */\n      0x00\n        /* \"solidity/task2/beggingtest.sol\":1706:1707  3 */\n      0x03\n        /* \"solidity/task2/beggingtest.sol\":1691:1696  addrs */\n      0x02\n        /* \"solidity/task2/beggingtest.sol\":1691:1703  addrs.length */\n      dup1\n      sload\n      swap1\n      pop\n        /* \"solidity/task2/beggingtest.sol\":1691:1707  addrs.length > 3 */\n      gt\n        /* \"solidity/task2/beggingtest.sol\":1691:1723  addrs.length > 3? 3:addrs.length */\n      tag_75\n      jumpi\n        /* \"solidity/task2/beggingtest.sol\":1711:1716  addrs */\n      0x02\n        /* \"solidity/task2/beggingtest.sol\":1711:1723  addrs.length */\n      dup1\n      sload\n      swap1\n      pop\n        /* \"solidity/task2/beggingtest.sol\":1691:1723  addrs.length > 3? 3:addrs.length */\n      jump(tag_76)\n    tag_75:\n        /* \"solidity/task2/beggingtest.sol\":1709:1710  3 */\n      0x03\n        /* \"solidity/task2/beggingtest.sol\":1691:1723  addrs.length > 3? 3:addrs.length */\n    tag_76:\n        /* \"solidity/task2/beggingtest.sol\":1677:1723  uint length = addrs.length > 3? 3:addrs.length */\n      swap1\n      pop\n        /* \"solidity/task2/beggingtest.sol\":1738:1744  uint i */\n      0x00\n        /* \"solidity/task2/beggingtest.sol\":1734:1808  for(uint i=0;i<length;i++){... */\n    tag_77:\n        /* \"solidity/task2/beggingtest.sol\":1749:1755  length */\n      dup2\n        /* \"solidity/task2/beggingtest.sol\":1747:1748  i */\n      dup2\n        /* \"solidity/task2/beggingtest.sol\":1747:1755  i<length */\n      lt\n        /* \"solidity/task2/beggingtest.sol\":1734:1808  for(uint i=0;i<length;i++){... */\n      iszero\n      tag_78\n      jumpi\n        /* \"solidity/task2/beggingtest.sol\":1788:1793  addrs */\n      0x02\n        /* \"solidity/task2/beggingtest.sol\":1794:1795  i */\n      dup2\n        /* \"solidity/task2/beggingtest.sol\":1788:1796  addrs[i] */\n      dup2\n      sload\n      dup2\n      lt\n      tag_80\n      jumpi\n      tag_81\n      tag_53\n      jump\t// in\n    tag_81:\n    tag_80:\n      swap1\n      0x00\n      mstore\n      keccak256(0x00, 0x20)\n      add\n      0x00\n      swap1\n      sload\n      swap1\n      0x0100\n      exp\n      swap1\n      div\n      0xffffffffffffffffffffffffffffffffffffffff\n      and\n        /* \"solidity/task2/beggingtest.sol\":1775:1782  tmpaddr */\n      dup4\n        /* \"solidity/task2/beggingtest.sol\":1783:1784  i */\n      dup3\n        /* \"solidity/task2/beggingtest.sol\":1775:1785  tmpaddr[i] */\n      dup2\n      mload\n      dup2\n      lt\n      tag_83\n      jumpi\n      tag_84\n      tag_53\n      jump\t// in\n    tag_84:\n    tag_83:\n      0x20\n      mul\n      0x20\n      add\n      add\n        /* \"solidity/task2/beggingtest.sol\":1775:1796  tmpaddr[i] = addrs[i] */\n      swap1\n      0xffffffffffffffffffffffffffffffffffffffff\n      and\n      swap1\n      dup2\n      0xffffffffffffffffffffffffffffffffffffffff\n      and\n      dup2\n      mstore\n      pop\n      pop\n        /* \"solidity/task2/beggingtest.sol\":1756:1759  i++ */\n      dup1\n      dup1\n      0x01\n      add\n      swap2\n      pop\n      pop\n        /* \"solidity/task2/beggingtest.sol\":1734:1808  for(uint i=0;i<length;i++){... */\n      jump(tag_77)\n    tag_78:\n      pop\n        /* \"solidity/task2/beggingtest.sol\":1825:1832  tmpaddr */\n      dup2\n        /* \"solidity/task2/beggingtest.sol\":1818:1832  return tmpaddr */\n      swap3\n      pop\n      pop\n      pop\n        /* \"solidity/task2/beggingtest.sol\":1266:1840  function getsortthreeDonations() external returns(address[] memory){... */\n      swap1\n      jump\t// out\n        /* \"solidity/task2/beggingtest.sol\":814:1008  function withdrow(address payable addr, uint256 amount) external payable OnlyOwner{... */\n    tag_27:\n        /* \"solidity/task2/beggingtest.sol\":748:758  msg.sender */\n      caller\n        /* \"solidity/task2/beggingtest.sol\":739:758  owner == msg.sender */\n      0xffffffffffffffffffffffffffffffffffffffff\n      and\n        /* \"solidity/task2/beggingtest.sol\":739:744  owner */\n      0x00\n      dup1\n      sload\n      swap1\n      0x0100\n      exp\n      swap1\n      div\n      0xffffffffffffffffffffffffffffffffffffffff\n      and\n        /* \"solidity/task2/beggingtest.sol\":739:758  owner == msg.sender */\n      0xffffffffffffffffffffffffffffffffffffffff\n      and\n      eq\n        /* \"solidity/task2/beggingtest.sol\":731:786  require(owner == msg.sender, \"Only owner can withdraw\") */\n      tag_86\n      jumpi\n      mload(0x40)\n      0x08c379a000000000000000000000000000000000000000000000000000000000\n      dup2\n      mstore\n      0x04\n      add\n      tag_87\n      swap1\n      tag_88\n      jump\t// in\n    tag_87:\n      mload(0x40)\n      dup1\n      swap2\n      sub\n      swap1\n      revert\n    tag_86:\n        /* \"solidity/task2/beggingtest.sol\":940:941  0 */\n      0x00\n        /* \"solidity/task2/beggingtest.sol\":915:936  address(this).balance */\n      selfbalance\n        /* \"solidity/task2/beggingtest.sol\":915:941  address(this).balance != 0 */\n      sub\n        /* \"solidity/task2/beggingtest.sol\":907:968  require(address(this).balance != 0, \"contract left is empty\") */\n      tag_90\n      jumpi\n      mload(0x40)\n      0x08c379a000000000000000000000000000000000000000000000000000000000\n      dup2\n      mstore\n      0x04\n      add\n      tag_91\n      swap1\n      tag_92\n      jump\t// in\n    tag_91:\n      mload(0x40)\n      dup1\n      swap2\n      sub\n      swap1\n      revert\n    tag_90:\n        /* \"solidity/task2/beggingtest.sol\":979:983  addr */\n      dup2\n        /* \"solidity/task2/beggingtest.sol\":979:992  addr.transfer */\n      0xffffffffffffffffffffffffffffffffffffffff\n      and\n        /* \"solidity/task2/beggingtest.sol\":979:1000  addr.transfer(amount) */\n      0x08fc\n        /* \"solidity/task2/beggingtest.sol\":993:999  amount */\n      dup3\n        /* \"solidity/task2/beggingtest.sol\":979:1000  addr.transfer(amount) */\n      swap1\n      dup2\n      iszero\n      mul\n      swap1\n      mload(0x40)\n      0x00\n      mload(0x40)\n      dup1\n      dup4\n      sub\n      dup2\n      dup6\n      dup9\n      dup9\n      call\n      swap4\n      pop\n      pop\n      pop\n      pop\n      iszero\n      dup1\n      iszero\n      tag_94\n      jumpi\n      returndatasize\n      0x00\n      dup1\n      returndatacopy\n      revert(0x00, returndatasize)\n    tag_94:\n      pop\n        /* \"solidity/task2/beggingtest.sol\":814:1008  function withdrow(address payable addr, uint256 amount) external payable OnlyOwner{... */\n      pop\n      pop\n      jump\t// out\n        /* \"solidity/task2/beggingtest.sol\":140:173  address public owner = msg.sender */\n    tag_30:\n      0x00\n      dup1\n      sload\n      swap1\n      0x0100\n      exp\n      swap1\n      div\n      0xffffffffffffffffffffffffffffffffffffffff\n      and\n      dup2\n      jump\t// out\n        /* \"solidity/task2/beggingtest.sol\":332:694  function donate() external payable{... */\n    tag_34:\n        /* \"solidity/task2/beggingtest.sol\":417:427  30 seconds */\n      0x1e\n        /* \"solidity/task2/beggingtest.sol\":404:414  permittime */\n      sload(0x03)\n        /* \"solidity/task2/beggingtest.sol\":404:427  permittime + 30 seconds */\n      tag_96\n      swap2\n      swap1\n      tag_50\n      jump\t// in\n    tag_96:\n        /* \"solidity/task2/beggingtest.sol\":385:400  block.timestamp */\n      timestamp\n        /* \"solidity/task2/beggingtest.sol\":385:427  block.timestamp >= permittime + 30 seconds */\n      lt\n      iszero\n        /* \"solidity/task2/beggingtest.sol\":377:447  require(block.timestamp >= permittime + 30 seconds, \"Times not reach\") */\n      tag_97\n      jumpi\n      mload(0x40)\n      0x08c379a000000000000000000000000000000000000000000000000000000000\n      dup2\n      mstore\n      0x04\n      add\n      tag_98\n      swap1\n      tag_99\n      jump\t// in\n    tag_98:\n      mload(0x40)\n      dup1\n      swap2\n      sub\n      swap1\n      revert\n    tag_97:\n        /* \"solidity/task2/beggingtest.sol\":471:486  block.timestamp */\n      timestamp\n        /* \"solidity/task2/beggingtest.sol\":458:468  permittime */\n      0x03\n        /* \"solidity/task2/beggingtest.sol\":458:486  permittime = block.timestamp */\n      dup2\n      swap1\n      sstore\n      pop\n        /* \"solidity/task2/beggingtest.sol\":534:535  0 */\n      0x00\n        /* \"solidity/task2/beggingtest.sol\":501:518  forbeggingAccount */\n      0x01\n        /* \"solidity/task2/beggingtest.sol\":501:530  forbeggingAccount[msg.sender] */\n      0x00\n        /* \"solidity/task2/beggingtest.sol\":519:529  msg.sender */\n      caller\n        /* \"solidity/task2/beggingtest.sol\":501:530  forbeggingAccount[msg.sender] */\n      0xffffffffffffffffffffffffffffffffffffffff\n      and\n      0xffffffffffffffffffffffffffffffffffffffff\n      and\n      dup2\n      mstore\n      0x20\n      add\n      swap1\n      dup2\n      mstore\n      0x20\n      add\n      0x00\n      keccak256\n      sload\n        /* \"solidity/task2/beggingtest.sol\":501:535  forbeggingAccount[msg.sender] == 0 */\n      sub\n        /* \"solidity/task2/beggingtest.sol\":497:585  if (forbeggingAccount[msg.sender] == 0){... */\n      tag_100\n      jumpi\n        /* \"solidity/task2/beggingtest.sol\":551:556  addrs */\n      0x02\n        /* \"solidity/task2/beggingtest.sol\":562:572  msg.sender */\n      caller\n        /* \"solidity/task2/beggingtest.sol\":551:573  addrs.push(msg.sender) */\n      swap1\n      dup1\n      0x01\n      dup2\n      sload\n      add\n      dup1\n      dup3\n      sstore\n      dup1\n      swap2\n      pop\n      pop\n      0x01\n      swap1\n      sub\n      swap1\n      0x00\n      mstore\n      keccak256(0x00, 0x20)\n      add\n      0x00\n      swap1\n      swap2\n      swap1\n      swap2\n      swap1\n      swap2\n      0x0100\n      exp\n      dup2\n      sload\n      dup2\n      0xffffffffffffffffffffffffffffffffffffffff\n      mul\n      not\n      and\n      swap1\n      dup4\n      0xffffffffffffffffffffffffffffffffffffffff\n      and\n      mul\n      or\n      swap1\n      sstore\n      pop\n        /* \"solidity/task2/beggingtest.sol\":497:585  if (forbeggingAccount[msg.sender] == 0){... */\n    tag_100:\n        /* \"solidity/task2/beggingtest.sol\":628:637  msg.value */\n      callvalue\n        /* \"solidity/task2/beggingtest.sol\":595:612  forbeggingAccount */\n      0x01\n        /* \"solidity/task2/beggingtest.sol\":595:624  forbeggingAccount[msg.sender] */\n      0x00\n        /* \"solidity/task2/beggingtest.sol\":613:623  msg.sender */\n      caller\n        /* \"solidity/task2/beggingtest.sol\":595:624  forbeggingAccount[msg.sender] */\n      0xffffffffffffffffffffffffffffffffffffffff\n      and\n      0xffffffffffffffffffffffffffffffffffffffff\n      and\n      dup2\n      mstore\n      0x20\n      add\n      swap1\n      dup2\n      mstore\n      0x20\n      add\n      0x00\n      keccak256\n      0x00\n        /* \"solidity/task2/beggingtest.sol\":595:637  forbeggingAccount[msg.sender] += msg.value */\n      dup3\n      dup3\n      sload\n      tag_102\n      swap2\n      swap1\n      tag_50\n      jump\t// in\n    tag_102:\n      swap3\n      pop\n      pop\n      dup2\n      swap1\n      sstore\n      pop\n        /* \"solidity/task2/beggingtest.sol\":655:686  Donation(msg.sender, msg.value) */\n      0x5d8bc849764969eb1bcc6d0a2f55999d0167c1ccec240a4f39cf664ca9c4148e\n        /* \"solidity/task2/beggingtest.sol\":664:674  msg.sender */\n      caller\n        /* \"solidity/task2/beggingtest.sol\":676:685  msg.value */\n      callvalue\n        /* \"solidity/task2/beggingtest.sol\":655:686  Donation(msg.sender, msg.value) */\n      mload(0x40)\n      tag_103\n      swap3\n      swap2\n      swap1\n      tag_104\n      jump\t// in\n    tag_103:\n      mload(0x40)\n      dup1\n      swap2\n      sub\n      swap1\n      log1\n        /* \"solidity/task2/beggingtest.sol\":332:694  function donate() external payable{... */\n      jump\t// out\n        /* \"#utility.yul\":88:205   */\n    tag_106:\n        /* \"#utility.yul\":197:198   */\n      0x00\n        /* \"#utility.yul\":194:195   */\n      dup1\n        /* \"#utility.yul\":187:199   */\n      revert\n        /* \"#utility.yul\":334:460   */\n    tag_108:\n        /* \"#utility.yul\":371:378   */\n      0x00\n        /* \"#utility.yul\":411:453   */\n      0xffffffffffffffffffffffffffffffffffffffff\n        /* \"#utility.yul\":404:409   */\n      dup3\n        /* \"#utility.yul\":400:454   */\n      and\n        /* \"#utility.yul\":389:454   */\n      swap1\n      pop\n        /* \"#utility.yul\":334:460   */\n      swap2\n      swap1\n      pop\n      jump\t// out\n        /* \"#utility.yul\":466:562   */\n    tag_109:\n        /* \"#utility.yul\":503:510   */\n      0x00\n        /* \"#utility.yul\":532:556   */\n      tag_145\n        /* \"#utility.yul\":550:555   */\n      dup3\n        /* \"#utility.yul\":532:556   */\n      tag_108\n      jump\t// in\n    tag_145:\n        /* \"#utility.yul\":521:556   */\n      swap1\n      pop\n        /* \"#utility.yul\":466:562   */\n      swap2\n      swap1\n      pop\n      jump\t// out\n        /* \"#utility.yul\":568:690   */\n    tag_110:\n        /* \"#utility.yul\":641:665   */\n      tag_147\n        /* \"#utility.yul\":659:664   */\n      dup2\n        /* \"#utility.yul\":641:665   */\n      tag_109\n      jump\t// in\n    tag_147:\n        /* \"#utility.yul\":634:639   */\n      dup2\n        /* \"#utility.yul\":631:666   */\n      eq\n        /* \"#utility.yul\":621:684   */\n      tag_148\n      jumpi\n        /* \"#utility.yul\":680:681   */\n      0x00\n        /* \"#utility.yul\":677:678   */\n      dup1\n        /* \"#utility.yul\":670:682   */\n      revert\n        /* \"#utility.yul\":621:684   */\n    tag_148:\n        /* \"#utility.yul\":568:690   */\n      pop\n      jump\t// out\n        /* \"#utility.yul\":696:835   */\n    tag_111:\n        /* \"#utility.yul\":742:747   */\n      0x00\n        /* \"#utility.yul\":780:786   */\n      dup2\n        /* \"#utility.yul\":767:787   */\n      calldataload\n        /* \"#utility.yul\":758:787   */\n      swap1\n      pop\n        /* \"#utility.yul\":796:829   */\n      tag_150\n        /* \"#utility.yul\":823:828   */\n      dup2\n        /* \"#utility.yul\":796:829   */\n      tag_110\n      jump\t// in\n    tag_150:\n        /* \"#utility.yul\":696:835   */\n      swap3\n      swap2\n      pop\n      pop\n      jump\t// out\n        /* \"#utility.yul\":841:1170   */\n    tag_15:\n        /* \"#utility.yul\":900:906   */\n      0x00\n        /* \"#utility.yul\":949:951   */\n      0x20\n        /* \"#utility.yul\":937:946   */\n      dup3\n        /* \"#utility.yul\":928:935   */\n      dup5\n        /* \"#utility.yul\":924:947   */\n      sub\n        /* \"#utility.yul\":920:952   */\n      slt\n        /* \"#utility.yul\":917:1036   */\n      iszero\n      tag_152\n      jumpi\n        /* \"#utility.yul\":955:1034   */\n      tag_153\n      tag_106\n      jump\t// in\n    tag_153:\n        /* \"#utility.yul\":917:1036   */\n    tag_152:\n        /* \"#utility.yul\":1075:1076   */\n      0x00\n        /* \"#utility.yul\":1100:1153   */\n      tag_154\n        /* \"#utility.yul\":1145:1152   */\n      dup5\n        /* \"#utility.yul\":1136:1142   */\n      dup3\n        /* \"#utility.yul\":1125:1134   */\n      dup6\n        /* \"#utility.yul\":1121:1143   */\n      add\n        /* \"#utility.yul\":1100:1153   */\n      tag_111\n      jump\t// in\n    tag_154:\n        /* \"#utility.yul\":1090:1153   */\n      swap2\n      pop\n        /* \"#utility.yul\":1046:1163   */\n      pop\n        /* \"#utility.yul\":841:1170   */\n      swap3\n      swap2\n      pop\n      pop\n      jump\t// out\n        /* \"#utility.yul\":1176:1253   */\n    tag_112:\n        /* \"#utility.yul\":1213:1220   */\n      0x00\n        /* \"#utility.yul\":1242:1247   */\n      dup2\n        /* \"#utility.yul\":1231:1247   */\n      swap1\n      pop\n        /* \"#utility.yul\":1176:1253   */\n      swap2\n      swap1\n      pop\n      jump\t// out\n        /* \"#utility.yul\":1259:1377   */\n    tag_113:\n        /* \"#utility.yul\":1346:1370   */\n      tag_157\n        /* \"#utility.yul\":1364:1369   */\n      dup2\n        /* \"#utility.yul\":1346:1370   */\n      tag_112\n      jump\t// in\n    tag_157:\n        /* \"#utility.yul\":1341:1344   */\n      dup3\n        /* \"#utility.yul\":1334:1371   */\n      mstore\n        /* \"#utility.yul\":1259:1377   */\n      pop\n      pop\n      jump\t// out\n        /* \"#utility.yul\":1383:1605   */\n    tag_18:\n        /* \"#utility.yul\":1476:1480   */\n      0x00\n        /* \"#utility.yul\":1514:1516   */\n      0x20\n        /* \"#utility.yul\":1503:1512   */\n      dup3\n        /* \"#utility.yul\":1499:1517   */\n      add\n        /* \"#utility.yul\":1491:1517   */\n      swap1\n      pop\n        /* \"#utility.yul\":1527:1598   */\n      tag_159\n        /* \"#utility.yul\":1595:1596   */\n      0x00\n        /* \"#utility.yul\":1584:1593   */\n      dup4\n        /* \"#utility.yul\":1580:1597   */\n      add\n        /* \"#utility.yul\":1571:1577   */\n      dup5\n        /* \"#utility.yul\":1527:1598   */\n      tag_113\n      jump\t// in\n    tag_159:\n        /* \"#utility.yul\":1383:1605   */\n      swap3\n      swap2\n      pop\n      pop\n      jump\t// out\n        /* \"#utility.yul\":1611:1725   */\n    tag_114:\n        /* \"#utility.yul\":1678:1684   */\n      0x00\n        /* \"#utility.yul\":1712:1717   */\n      dup2\n        /* \"#utility.yul\":1706:1718   */\n      mload\n        /* \"#utility.yul\":1696:1718   */\n      swap1\n      pop\n        /* \"#utility.yul\":1611:1725   */\n      swap2\n      swap1\n      pop\n      jump\t// out\n        /* \"#utility.yul\":1731:1915   */\n    tag_115:\n        /* \"#utility.yul\":1830:1841   */\n      0x00\n        /* \"#utility.yul\":1864:1870   */\n      dup3\n        /* \"#utility.yul\":1859:1862   */\n      dup3\n        /* \"#utility.yul\":1852:1871   */\n      mstore\n        /* \"#utility.yul\":1904:1908   */\n      0x20\n        /* \"#utility.yul\":1899:1902   */\n      dup3\n        /* \"#utility.yul\":1895:1909   */\n      add\n        /* \"#utility.yul\":1880:1909   */\n      swap1\n      pop\n        /* \"#utility.yul\":1731:1915   */\n      swap3\n      swap2\n      pop\n      pop\n      jump\t// out\n        /* \"#utility.yul\":1921:2053   */\n    tag_116:\n        /* \"#utility.yul\":1988:1992   */\n      0x00\n        /* \"#utility.yul\":2011:2014   */\n      dup2\n        /* \"#utility.yul\":2003:2014   */\n      swap1\n      pop\n        /* \"#utility.yul\":2041:2045   */\n      0x20\n        /* \"#utility.yul\":2036:2039   */\n      dup3\n        /* \"#utility.yul\":2032:2046   */\n      add\n        /* \"#utility.yul\":2024:2046   */\n      swap1\n      pop\n        /* \"#utility.yul\":1921:2053   */\n      swap2\n      swap1\n      pop\n      jump\t// out\n        /* \"#utility.yul\":2059:2167   */\n    tag_117:\n        /* \"#utility.yul\":2136:2160   */\n      tag_164\n        /* \"#utility.yul\":2154:2159   */\n      dup2\n        /* \"#utility.yul\":2136:2160   */\n      tag_109\n      jump\t// in\n    tag_164:\n        /* \"#utility.yul\":2131:2134   */\n      dup3\n        /* \"#utility.yul\":2124:2161   */\n      mstore\n        /* \"#utility.yul\":2059:2167   */\n      pop\n      pop\n      jump\t// out\n        /* \"#utility.yul\":2173:2352   */\n    tag_118:\n        /* \"#utility.yul\":2242:2252   */\n      0x00\n        /* \"#utility.yul\":2263:2309   */\n      tag_166\n        /* \"#utility.yul\":2305:2308   */\n      dup4\n        /* \"#utility.yul\":2297:2303   */\n      dup4\n        /* \"#utility.yul\":2263:2309   */\n      tag_117\n      jump\t// in\n    tag_166:\n        /* \"#utility.yul\":2341:2345   */\n      0x20\n        /* \"#utility.yul\":2336:2339   */\n      dup4\n        /* \"#utility.yul\":2332:2346   */\n      add\n        /* \"#utility.yul\":2318:2346   */\n      swap1\n      pop\n        /* \"#utility.yul\":2173:2352   */\n      swap3\n      swap2\n      pop\n      pop\n      jump\t// out\n        /* \"#utility.yul\":2358:2471   */\n    tag_119:\n        /* \"#utility.yul\":2428:2432   */\n      0x00\n        /* \"#utility.yul\":2460:2464   */\n      0x20\n        /* \"#utility.yul\":2455:2458   */\n      dup3\n        /* \"#utility.yul\":2451:2465   */\n      add\n        /* \"#utility.yul\":2443:2465   */\n      swap1\n      pop\n        /* \"#utility.yul\":2358:2471   */\n      swap2\n      swap1\n      pop\n      jump\t// out\n        /* \"#utility.yul\":2507:3239   */\n    tag_120:\n        /* \"#utility.yul\":2626:2629   */\n      0x00\n        /* \"#utility.yul\":2655:2709   */\n      tag_169\n        /* \"#utility.yul\":2703:2708   */\n      dup3\n        /* \"#utility.yul\":2655:2709   */\n      tag_114\n      jump\t// in\n    tag_169:\n        /* \"#utility.yul\":2725:2811   */\n      tag_170\n        /* \"#utility.yul\":2804:2810   */\n      dup2\n        /* \"#utility.yul\":2799:2802   */\n      dup6\n        /* \"#utility.yul\":2725:2811   */\n      tag_115\n      jump\t// in\n    tag_170:\n        /* \"#utility.yul\":2718:2811   */\n      swap4\n      pop\n        /* \"#utility.yul\":2835:2891   */\n      tag_171\n        /* \"#utility.yul\":2885:2890   */\n      dup4\n        /* \"#utility.yul\":2835:2891   */\n      tag_116\n      jump\t// in\n    tag_171:\n        /* \"#utility.yul\":2914:2921   */\n      dup1\n        /* \"#utility.yul\":2945:2946   */\n      0x00\n        /* \"#utility.yul\":2930:3214   */\n    tag_172:\n        /* \"#utility.yul\":2955:2961   */\n      dup4\n        /* \"#utility.yul\":2952:2953   */\n      dup2\n        /* \"#utility.yul\":2949:2962   */\n      lt\n        /* \"#utility.yul\":2930:3214   */\n      iszero\n      tag_174\n      jumpi\n        /* \"#utility.yul\":3031:3037   */\n      dup2\n        /* \"#utility.yul\":3025:3038   */\n      mload\n        /* \"#utility.yul\":3058:3121   */\n      tag_175\n        /* \"#utility.yul\":3117:3120   */\n      dup9\n        /* \"#utility.yul\":3102:3115   */\n      dup3\n        /* \"#utility.yul\":3058:3121   */\n      tag_118\n      jump\t// in\n    tag_175:\n        /* \"#utility.yul\":3051:3121   */\n      swap8\n      pop\n        /* \"#utility.yul\":3144:3204   */\n      tag_176\n        /* \"#utility.yul\":3197:3203   */\n      dup4\n        /* \"#utility.yul\":3144:3204   */\n      tag_119\n      jump\t// in\n    tag_176:\n        /* \"#utility.yul\":3134:3204   */\n      swap3\n      pop\n        /* \"#utility.yul\":2990:3214   */\n      pop\n        /* \"#utility.yul\":2977:2978   */\n      0x01\n        /* \"#utility.yul\":2974:2975   */\n      dup2\n        /* \"#utility.yul\":2970:2979   */\n      add\n        /* \"#utility.yul\":2965:2979   */\n      swap1\n      pop\n        /* \"#utility.yul\":2930:3214   */\n      jump(tag_172)\n    tag_174:\n        /* \"#utility.yul\":2934:2948   */\n      pop\n        /* \"#utility.yul\":3230:3233   */\n      dup6\n        /* \"#utility.yul\":3223:3233   */\n      swap4\n      pop\n        /* \"#utility.yul\":2631:3239   */\n      pop\n      pop\n      pop\n        /* \"#utility.yul\":2507:3239   */\n      swap3\n      swap2\n      pop\n      pop\n      jump\t// out\n        /* \"#utility.yul\":3245:3618   */\n    tag_23:\n        /* \"#utility.yul\":3388:3392   */\n      0x00\n        /* \"#utility.yul\":3426:3428   */\n      0x20\n        /* \"#utility.yul\":3415:3424   */\n      dup3\n        /* \"#utility.yul\":3411:3429   */\n      add\n        /* \"#utility.yul\":3403:3429   */\n      swap1\n      pop\n        /* \"#utility.yul\":3475:3484   */\n      dup2\n        /* \"#utility.yul\":3469:3473   */\n      dup2\n        /* \"#utility.yul\":3465:3485   */\n      sub\n        /* \"#utility.yul\":3461:3462   */\n      0x00\n        /* \"#utility.yul\":3450:3459   */\n      dup4\n        /* \"#utility.yul\":3446:3463   */\n      add\n        /* \"#utility.yul\":3439:3486   */\n      mstore\n        /* \"#utility.yul\":3503:3611   */\n      tag_178\n        /* \"#utility.yul\":3606:3610   */\n      dup2\n        /* \"#utility.yul\":3597:3603   */\n      dup5\n        /* \"#utility.yul\":3503:3611   */\n      tag_120\n      jump\t// in\n    tag_178:\n        /* \"#utility.yul\":3495:3611   */\n      swap1\n      pop\n        /* \"#utility.yul\":3245:3618   */\n      swap3\n      swap2\n      pop\n      pop\n      jump\t// out\n        /* \"#utility.yul\":3624:3728   */\n    tag_121:\n        /* \"#utility.yul\":3669:3676   */\n      0x00\n        /* \"#utility.yul\":3698:3722   */\n      tag_180\n        /* \"#utility.yul\":3716:3721   */\n      dup3\n        /* \"#utility.yul\":3698:3722   */\n      tag_108\n      jump\t// in\n    tag_180:\n        /* \"#utility.yul\":3687:3722   */\n      swap1\n      pop\n        /* \"#utility.yul\":3624:3728   */\n      swap2\n      swap1\n      pop\n      jump\t// out\n        /* \"#utility.yul\":3734:3872   */\n    tag_122:\n        /* \"#utility.yul\":3815:3847   */\n      tag_182\n        /* \"#utility.yul\":3841:3846   */\n      dup2\n        /* \"#utility.yul\":3815:3847   */\n      tag_121\n      jump\t// in\n    tag_182:\n        /* \"#utility.yul\":3808:3813   */\n      dup2\n        /* \"#utility.yul\":3805:3848   */\n      eq\n        /* \"#utility.yul\":3795:3866   */\n      tag_183\n      jumpi\n        /* \"#utility.yul\":3862:3863   */\n      0x00\n        /* \"#utility.yul\":3859:3860   */\n      dup1\n        /* \"#utility.yul\":3852:3864   */\n      revert\n        /* \"#utility.yul\":3795:3866   */\n    tag_183:\n        /* \"#utility.yul\":3734:3872   */\n      pop\n      jump\t// out\n        /* \"#utility.yul\":3878:4033   */\n    tag_123:\n        /* \"#utility.yul\":3932:3937   */\n      0x00\n        /* \"#utility.yul\":3970:3976   */\n      dup2\n        /* \"#utility.yul\":3957:3977   */\n      calldataload\n        /* \"#utility.yul\":3948:3977   */\n      swap1\n      pop\n        /* \"#utility.yul\":3986:4027   */\n      tag_185\n        /* \"#utility.yul\":4021:4026   */\n      dup2\n        /* \"#utility.yul\":3986:4027   */\n      tag_122\n      jump\t// in\n    tag_185:\n        /* \"#utility.yul\":3878:4033   */\n      swap3\n      swap2\n      pop\n      pop\n      jump\t// out\n        /* \"#utility.yul\":4039:4161   */\n    tag_124:\n        /* \"#utility.yul\":4112:4136   */\n      tag_187\n        /* \"#utility.yul\":4130:4135   */\n      dup2\n        /* \"#utility.yul\":4112:4136   */\n      tag_112\n      jump\t// in\n    tag_187:\n        /* \"#utility.yul\":4105:4110   */\n      dup2\n        /* \"#utility.yul\":4102:4137   */\n      eq\n        /* \"#utility.yul\":4092:4155   */\n      tag_188\n      jumpi\n        /* \"#utility.yul\":4151:4152   */\n      0x00\n        /* \"#utility.yul\":4148:4149   */\n      dup1\n        /* \"#utility.yul\":4141:4153   */\n      revert\n        /* \"#utility.yul\":4092:4155   */\n    tag_188:\n        /* \"#utility.yul\":4039:4161   */\n      pop\n      jump\t// out\n        /* \"#utility.yul\":4167:4306   */\n    tag_125:\n        /* \"#utility.yul\":4213:4218   */\n      0x00\n        /* \"#utility.yul\":4251:4257   */\n      dup2\n        /* \"#utility.yul\":4238:4258   */\n      calldataload\n        /* \"#utility.yul\":4229:4258   */\n      swap1\n      pop\n        /* \"#utility.yul\":4267:4300   */\n      tag_190\n        /* \"#utility.yul\":4294:4299   */\n      dup2\n        /* \"#utility.yul\":4267:4300   */\n      tag_124\n      jump\t// in\n    tag_190:\n        /* \"#utility.yul\":4167:4306   */\n      swap3\n      swap2\n      pop\n      pop\n      jump\t// out\n        /* \"#utility.yul\":4312:4802   */\n    tag_26:\n        /* \"#utility.yul\":4388:4394   */\n      0x00\n        /* \"#utility.yul\":4396:4402   */\n      dup1\n        /* \"#utility.yul\":4445:4447   */\n      0x40\n        /* \"#utility.yul\":4433:4442   */\n      dup4\n        /* \"#utility.yul\":4424:4431   */\n      dup6\n        /* \"#utility.yul\":4420:4443   */\n      sub\n        /* \"#utility.yul\":4416:4448   */\n      slt\n        /* \"#utility.yul\":4413:4532   */\n      iszero\n      tag_192\n      jumpi\n        /* \"#utility.yul\":4451:4530   */\n      tag_193\n      tag_106\n      jump\t// in\n    tag_193:\n        /* \"#utility.yul\":4413:4532   */\n    tag_192:\n        /* \"#utility.yul\":4571:4572   */\n      0x00\n        /* \"#utility.yul\":4596:4657   */\n      tag_194\n        /* \"#utility.yul\":4649:4656   */\n      dup6\n        /* \"#utility.yul\":4640:4646   */\n      dup3\n        /* \"#utility.yul\":4629:4638   */\n      dup7\n        /* \"#utility.yul\":4625:4647   */\n      add\n        /* \"#utility.yul\":4596:4657   */\n      tag_123\n      jump\t// in\n    tag_194:\n        /* \"#utility.yul\":4586:4657   */\n      swap3\n      pop\n        /* \"#utility.yul\":4542:4667   */\n      pop\n        /* \"#utility.yul\":4706:4708   */\n      0x20\n        /* \"#utility.yul\":4732:4785   */\n      tag_195\n        /* \"#utility.yul\":4777:4784   */\n      dup6\n        /* \"#utility.yul\":4768:4774   */\n      dup3\n        /* \"#utility.yul\":4757:4766   */\n      dup7\n        /* \"#utility.yul\":4753:4775   */\n      add\n        /* \"#utility.yul\":4732:4785   */\n      tag_125\n      jump\t// in\n    tag_195:\n        /* \"#utility.yul\":4722:4785   */\n      swap2\n      pop\n        /* \"#utility.yul\":4677:4795   */\n      pop\n        /* \"#utility.yul\":4312:4802   */\n      swap3\n      pop\n      swap3\n      swap1\n      pop\n      jump\t// out\n        /* \"#utility.yul\":4808:4926   */\n    tag_126:\n        /* \"#utility.yul\":4895:4919   */\n      tag_197\n        /* \"#utility.yul\":4913:4918   */\n      dup2\n        /* \"#utility.yul\":4895:4919   */\n      tag_109\n      jump\t// in\n    tag_197:\n        /* \"#utility.yul\":4890:4893   */\n      dup3\n        /* \"#utility.yul\":4883:4920   */\n      mstore\n        /* \"#utility.yul\":4808:4926   */\n      pop\n      pop\n      jump\t// out\n        /* \"#utility.yul\":4932:5154   */\n    tag_32:\n        /* \"#utility.yul\":5025:5029   */\n      0x00\n        /* \"#utility.yul\":5063:5065   */\n      0x20\n        /* \"#utility.yul\":5052:5061   */\n      dup3\n        /* \"#utility.yul\":5048:5066   */\n      add\n        /* \"#utility.yul\":5040:5066   */\n      swap1\n      pop\n        /* \"#utility.yul\":5076:5147   */\n      tag_199\n        /* \"#utility.yul\":5144:5145   */\n      0x00\n        /* \"#utility.yul\":5133:5142   */\n      dup4\n        /* \"#utility.yul\":5129:5146   */\n      add\n        /* \"#utility.yul\":5120:5126   */\n      dup5\n        /* \"#utility.yul\":5076:5147   */\n      tag_126\n      jump\t// in\n    tag_199:\n        /* \"#utility.yul\":4932:5154   */\n      swap3\n      swap2\n      pop\n      pop\n      jump\t// out\n        /* \"#utility.yul\":5160:5329   */\n    tag_127:\n        /* \"#utility.yul\":5244:5255   */\n      0x00\n        /* \"#utility.yul\":5278:5284   */\n      dup3\n        /* \"#utility.yul\":5273:5276   */\n      dup3\n        /* \"#utility.yul\":5266:5285   */\n      mstore\n        /* \"#utility.yul\":5318:5322   */\n      0x20\n        /* \"#utility.yul\":5313:5316   */\n      dup3\n        /* \"#utility.yul\":5309:5323   */\n      add\n        /* \"#utility.yul\":5294:5323   */\n      swap1\n      pop\n        /* \"#utility.yul\":5160:5329   */\n      swap3\n      swap2\n      pop\n      pop\n      jump\t// out\n        /* \"#utility.yul\":5335:5500   */\n    tag_128:\n        /* \"#utility.yul\":5475:5492   */\n      0x496e76616c696420616464726573730000000000000000000000000000000000\n        /* \"#utility.yul\":5471:5472   */\n      0x00\n        /* \"#utility.yul\":5463:5469   */\n      dup3\n        /* \"#utility.yul\":5459:5473   */\n      add\n        /* \"#utility.yul\":5452:5493   */\n      mstore\n        /* \"#utility.yul\":5335:5500   */\n      pop\n      jump\t// out\n        /* \"#utility.yul\":5506:5872   */\n    tag_129:\n        /* \"#utility.yul\":5648:5651   */\n      0x00\n        /* \"#utility.yul\":5669:5736   */\n      tag_203\n        /* \"#utility.yul\":5733:5735   */\n      0x0f\n        /* \"#utility.yul\":5728:5731   */\n      dup4\n        /* \"#utility.yul\":5669:5736   */\n      tag_127\n      jump\t// in\n    tag_203:\n        /* \"#utility.yul\":5662:5736   */\n      swap2\n      pop\n        /* \"#utility.yul\":5745:5838   */\n      tag_204\n        /* \"#utility.yul\":5834:5837   */\n      dup3\n        /* \"#utility.yul\":5745:5838   */\n      tag_128\n      jump\t// in\n    tag_204:\n        /* \"#utility.yul\":5863:5865   */\n      0x20\n        /* \"#utility.yul\":5858:5861   */\n      dup3\n        /* \"#utility.yul\":5854:5866   */\n      add\n        /* \"#utility.yul\":5847:5866   */\n      swap1\n      pop\n        /* \"#utility.yul\":5506:5872   */\n      swap2\n      swap1\n      pop\n      jump\t// out\n        /* \"#utility.yul\":5878:6297   */\n    tag_38:\n        /* \"#utility.yul\":6044:6048   */\n      0x00\n        /* \"#utility.yul\":6082:6084   */\n      0x20\n        /* \"#utility.yul\":6071:6080   */\n      dup3\n        /* \"#utility.yul\":6067:6085   */\n      add\n        /* \"#utility.yul\":6059:6085   */\n      swap1\n      pop\n        /* \"#utility.yul\":6131:6140   */\n      dup2\n        /* \"#utility.yul\":6125:6129   */\n      dup2\n        /* \"#utility.yul\":6121:6141   */\n      sub\n        /* \"#utility.yul\":6117:6118   */\n      0x00\n        /* \"#utility.yul\":6106:6115   */\n      dup4\n        /* \"#utility.yul\":6102:6119   */\n      add\n        /* \"#utility.yul\":6095:6142   */\n      mstore\n        /* \"#utility.yul\":6159:6290   */\n      tag_206\n        /* \"#utility.yul\":6285:6289   */\n      dup2\n        /* \"#utility.yul\":6159:6290   */\n      tag_129\n      jump\t// in\n    tag_206:\n        /* \"#utility.yul\":6151:6290   */\n      swap1\n      pop\n        /* \"#utility.yul\":5878:6297   */\n      swap2\n      swap1\n      pop\n      jump\t// out\n        /* \"#utility.yul\":6303:6470   */\n    tag_130:\n        /* \"#utility.yul\":6443:6462   */\n      0x796f75206469646e277420646f6e617465000000000000000000000000000000\n        /* \"#utility.yul\":6439:6440   */\n      0x00\n        /* \"#utility.yul\":6431:6437   */\n      dup3\n        /* \"#utility.yul\":6427:6441   */\n      add\n        /* \"#utility.yul\":6420:6463   */\n      mstore\n        /* \"#utility.yul\":6303:6470   */\n      pop\n      jump\t// out\n        /* \"#utility.yul\":6476:6842   */\n    tag_131:\n        /* \"#utility.yul\":6618:6621   */\n      0x00\n        /* \"#utility.yul\":6639:6706   */\n      tag_209\n        /* \"#utility.yul\":6703:6705   */\n      0x11\n        /* \"#utility.yul\":6698:6701   */\n      dup4\n        /* \"#utility.yul\":6639:6706   */\n      tag_127\n      jump\t// in\n    tag_209:\n        /* \"#utility.yul\":6632:6706   */\n      swap2\n      pop\n        /* \"#utility.yul\":6715:6808   */\n      tag_210\n        /* \"#utility.yul\":6804:6807   */\n      dup3\n        /* \"#utility.yul\":6715:6808   */\n      tag_130\n      jump\t// in\n    tag_210:\n        /* \"#utility.yul\":6833:6835   */\n      0x20\n        /* \"#utility.yul\":6828:6831   */\n      dup3\n        /* \"#utility.yul\":6824:6836   */\n      add\n        /* \"#utility.yul\":6817:6836   */\n      swap1\n      pop\n        /* \"#utility.yul\":6476:6842   */\n      swap2\n      swap1\n      pop\n      jump\t// out\n        /* \"#utility.yul\":6848:7267   */\n    tag_41:\n        /* \"#utility.yul\":7014:7018   */\n      0x00\n        /* \"#utility.yul\":7052:7054   */\n      0x20\n        /* \"#utility.yul\":7041:7050   */\n      dup3\n        /* \"#utility.yul\":7037:7055   */\n      add\n        /* \"#utility.yul\":7029:7055   */\n      swap1\n      pop\n        /* \"#utility.yul\":7101:7110   */\n      dup2\n        /* \"#utility.yul\":7095:7099   */\n      dup2\n        /* \"#utility.yul\":7091:7111   */\n      sub\n        /* \"#utility.yul\":7087:7088   */\n      0x00\n        /* \"#utility.yul\":7076:7085   */\n      dup4\n        /* \"#utility.yul\":7072:7089   */\n      add\n        /* \"#utility.yul\":7065:7112   */\n      mstore\n        /* \"#utility.yul\":7129:7260   */\n      tag_212\n        /* \"#utility.yul\":7255:7259   */\n      dup2\n        /* \"#utility.yul\":7129:7260   */\n      tag_131\n      jump\t// in\n    tag_212:\n        /* \"#utility.yul\":7121:7260   */\n      swap1\n      pop\n        /* \"#utility.yul\":6848:7267   */\n      swap2\n      swap1\n      pop\n      jump\t// out\n        /* \"#utility.yul\":7273:7453   */\n    tag_132:\n        /* \"#utility.yul\":7321:7398   */\n      0x4e487b7100000000000000000000000000000000000000000000000000000000\n        /* \"#utility.yul\":7318:7319   */\n      0x00\n        /* \"#utility.yul\":7311:7399   */\n      mstore\n        /* \"#utility.yul\":7418:7422   */\n      0x11\n        /* \"#utility.yul\":7415:7416   */\n      0x04\n        /* \"#utility.yul\":7408:7423   */\n      mstore\n        /* \"#utility.yul\":7442:7446   */\n      0x24\n        /* \"#utility.yul\":7439:7440   */\n      0x00\n        /* \"#utility.yul\":7432:7447   */\n      revert\n        /* \"#utility.yul\":7459:7650   */\n    tag_50:\n        /* \"#utility.yul\":7499:7502   */\n      0x00\n        /* \"#utility.yul\":7518:7538   */\n      tag_215\n        /* \"#utility.yul\":7536:7537   */\n      dup3\n        /* \"#utility.yul\":7518:7538   */\n      tag_112\n      jump\t// in\n    tag_215:\n        /* \"#utility.yul\":7513:7538   */\n      swap2\n      pop\n        /* \"#utility.yul\":7552:7572   */\n      tag_216\n        /* \"#utility.yul\":7570:7571   */\n      dup4\n        /* \"#utility.yul\":7552:7572   */\n      tag_112\n      jump\t// in\n    tag_216:\n        /* \"#utility.yul\":7547:7572   */\n      swap3\n      pop\n        /* \"#utility.yul\":7595:7596   */\n      dup3\n        /* \"#utility.yul\":7592:7593   */\n      dup3\n        /* \"#utility.yul\":7588:7597   */\n      add\n        /* \"#utility.yul\":7581:7597   */\n      swap1\n      pop\n        /* \"#utility.yul\":7616:7619   */\n      dup1\n        /* \"#utility.yul\":7613:7614   */\n      dup3\n        /* \"#utility.yul\":7610:7620   */\n      gt\n        /* \"#utility.yul\":7607:7643   */\n      iszero\n      tag_217\n      jumpi\n        /* \"#utility.yul\":7623:7641   */\n      tag_218\n      tag_132\n      jump\t// in\n    tag_218:\n        /* \"#utility.yul\":7607:7643   */\n    tag_217:\n        /* \"#utility.yul\":7459:7650   */\n      swap3\n      swap2\n      pop\n      pop\n      jump\t// out\n        /* \"#utility.yul\":7656:7836   */\n    tag_53:\n        /* \"#utility.yul\":7704:7781   */\n      0x4e487b7100000000000000000000000000000000000000000000000000000000\n        /* \"#utility.yul\":7701:7702   */\n      0x00\n        /* \"#utility.yul\":7694:7782   */\n      mstore\n        /* \"#utility.yul\":7801:7805   */\n      0x32\n        /* \"#utility.yul\":7798:7799   */\n      0x04\n        /* \"#utility.yul\":7791:7806   */\n      mstore\n        /* \"#utility.yul\":7825:7829   */\n      0x24\n        /* \"#utility.yul\":7822:7823   */\n      0x00\n        /* \"#utility.yul\":7815:7830   */\n      revert\n        /* \"#utility.yul\":7842:8022   */\n    tag_73:\n        /* \"#utility.yul\":7890:7967   */\n      0x4e487b7100000000000000000000000000000000000000000000000000000000\n        /* \"#utility.yul\":7887:7888   */\n      0x00\n        /* \"#utility.yul\":7880:7968   */\n      mstore\n        /* \"#utility.yul\":7987:7991   */\n      0x41\n        /* \"#utility.yul\":7984:7985   */\n      0x04\n        /* \"#utility.yul\":7977:7992   */\n      mstore\n        /* \"#utility.yul\":8011:8015   */\n      0x24\n        /* \"#utility.yul\":8008:8009   */\n      0x00\n        /* \"#utility.yul\":8001:8016   */\n      revert\n        /* \"#utility.yul\":8028:8201   */\n    tag_133:\n        /* \"#utility.yul\":8168:8193   */\n      0x4f6e6c79206f776e65722063616e207769746864726177000000000000000000\n        /* \"#utility.yul\":8164:8165   */\n      0x00\n        /* \"#utility.yul\":8156:8162   */\n      dup3\n        /* \"#utility.yul\":8152:8166   */\n      add\n        /* \"#utility.yul\":8145:8194   */\n      mstore\n        /* \"#utility.yul\":8028:8201   */\n      pop\n      jump\t// out\n        /* \"#utility.yul\":8207:8573   */\n    tag_134:\n        /* \"#utility.yul\":8349:8352   */\n      0x00\n        /* \"#utility.yul\":8370:8437   */\n      tag_223\n        /* \"#utility.yul\":8434:8436   */\n      0x17\n        /* \"#utility.yul\":8429:8432   */\n      dup4\n        /* \"#utility.yul\":8370:8437   */\n      tag_127\n      jump\t// in\n    tag_223:\n        /* \"#utility.yul\":8363:8437   */\n      swap2\n      pop\n        /* \"#utility.yul\":8446:8539   */\n      tag_224\n        /* \"#utility.yul\":8535:8538   */\n      dup3\n        /* \"#utility.yul\":8446:8539   */\n      tag_133\n      jump\t// in\n    tag_224:\n        /* \"#utility.yul\":8564:8566   */\n      0x20\n        /* \"#utility.yul\":8559:8562   */\n      dup3\n        /* \"#utility.yul\":8555:8567   */\n      add\n        /* \"#utility.yul\":8548:8567   */\n      swap1\n      pop\n        /* \"#utility.yul\":8207:8573   */\n      swap2\n      swap1\n      pop\n      jump\t// out\n        /* \"#utility.yul\":8579:8998   */\n    tag_88:\n        /* \"#utility.yul\":8745:8749   */\n      0x00\n        /* \"#utility.yul\":8783:8785   */\n      0x20\n        /* \"#utility.yul\":8772:8781   */\n      dup3\n        /* \"#utility.yul\":8768:8786   */\n      add\n        /* \"#utility.yul\":8760:8786   */\n      swap1\n      pop\n        /* \"#utility.yul\":8832:8841   */\n      dup2\n        /* \"#utility.yul\":8826:8830   */\n      dup2\n        /* \"#utility.yul\":8822:8842   */\n      sub\n        /* \"#utility.yul\":8818:8819   */\n      0x00\n        /* \"#utility.yul\":8807:8816   */\n      dup4\n        /* \"#utility.yul\":8803:8820   */\n      add\n        /* \"#utility.yul\":8796:8843   */\n      mstore\n        /* \"#utility.yul\":8860:8991   */\n      tag_226\n        /* \"#utility.yul\":8986:8990   */\n      dup2\n        /* \"#utility.yul\":8860:8991   */\n      tag_134\n      jump\t// in\n    tag_226:\n        /* \"#utility.yul\":8852:8991   */\n      swap1\n      pop\n        /* \"#utility.yul\":8579:8998   */\n      swap2\n      swap1\n      pop\n      jump\t// out\n        /* \"#utility.yul\":9004:9176   */\n    tag_135:\n        /* \"#utility.yul\":9144:9168   */\n      0x636f6e7472616374206c65667420697320656d70747900000000000000000000\n        /* \"#utility.yul\":9140:9141   */\n      0x00\n        /* \"#utility.yul\":9132:9138   */\n      dup3\n        /* \"#utility.yul\":9128:9142   */\n      add\n        /* \"#utility.yul\":9121:9169   */\n      mstore\n        /* \"#utility.yul\":9004:9176   */\n      pop\n      jump\t// out\n        /* \"#utility.yul\":9182:9548   */\n    tag_136:\n        /* \"#utility.yul\":9324:9327   */\n      0x00\n        /* \"#utility.yul\":9345:9412   */\n      tag_229\n        /* \"#utility.yul\":9409:9411   */\n      0x16\n        /* \"#utility.yul\":9404:9407   */\n      dup4\n        /* \"#utility.yul\":9345:9412   */\n      tag_127\n      jump\t// in\n    tag_229:\n        /* \"#utility.yul\":9338:9412   */\n      swap2\n      pop\n        /* \"#utility.yul\":9421:9514   */\n      tag_230\n        /* \"#utility.yul\":9510:9513   */\n      dup3\n        /* \"#utility.yul\":9421:9514   */\n      tag_135\n      jump\t// in\n    tag_230:\n        /* \"#utility.yul\":9539:9541   */\n      0x20\n        /* \"#utility.yul\":9534:9537   */\n      dup3\n        /* \"#utility.yul\":9530:9542   */\n      add\n        /* \"#utility.yul\":9523:9542   */\n      swap1\n      pop\n        /* \"#utility.yul\":9182:9548   */\n      swap2\n      swap1\n      pop\n      jump\t// out\n        /* \"#utility.yul\":9554:9973   */\n    tag_92:\n        /* \"#utility.yul\":9720:9724   */\n      0x00\n        /* \"#utility.yul\":9758:9760   */\n      0x20\n        /* \"#utility.yul\":9747:9756   */\n      dup3\n        /* \"#utility.yul\":9743:9761   */\n      add\n        /* \"#utility.yul\":9735:9761   */\n      swap1\n      pop\n        /* \"#utility.yul\":9807:9816   */\n      dup2\n        /* \"#utility.yul\":9801:9805   */\n      dup2\n        /* \"#utility.yul\":9797:9817   */\n      sub\n        /* \"#utility.yul\":9793:9794   */\n      0x00\n        /* \"#utility.yul\":9782:9791   */\n      dup4\n        /* \"#utility.yul\":9778:9795   */\n      add\n        /* \"#utility.yul\":9771:9818   */\n      mstore\n        /* \"#utility.yul\":9835:9966   */\n      tag_232\n        /* \"#utility.yul\":9961:9965   */\n      dup2\n        /* \"#utility.yul\":9835:9966   */\n      tag_136\n      jump\t// in\n    tag_232:\n        /* \"#utility.yul\":9827:9966   */\n      swap1\n      pop\n        /* \"#utility.yul\":9554:9973   */\n      swap2\n      swap1\n      pop\n      jump\t// out\n        /* \"#utility.yul\":9979:10144   */\n    tag_137:\n        /* \"#utility.yul\":10119:10136   */\n      0x54696d6573206e6f742072656163680000000000000000000000000000000000\n        /* \"#utility.yul\":10115:10116   */\n      0x00\n        /* \"#utility.yul\":10107:10113   */\n      dup3\n        /* \"#utility.yul\":10103:10117   */\n      add\n        /* \"#utility.yul\":10096:10137   */\n      mstore\n        /* \"#utility.yul\":9979:10144   */\n      pop\n      jump\t// out\n        /* \"#utility.yul\":10150:10516   */\n    tag_138:\n        /* \"#utility.yul\":10292:10295   */\n      0x00\n        /* \"#utility.yul\":10313:10380   */\n      tag_235\n        /* \"#utility.yul\":10377:10379   */\n      0x0f\n        /* \"#utility.yul\":10372:10375   */\n      dup4\n        /* \"#utility.yul\":10313:10380   */\n      tag_127\n      jump\t// in\n    tag_235:\n        /* \"#utility.yul\":10306:10380   */\n      swap2\n      pop\n        /* \"#utility.yul\":10389:10482   */\n      tag_236\n        /* \"#utility.yul\":10478:10481   */\n      dup3\n        /* \"#utility.yul\":10389:10482   */\n      tag_137\n      jump\t// in\n    tag_236:\n        /* \"#utility.yul\":10507:10509   */\n      0x20\n        /* \"#utility.yul\":10502:10505   */\n      dup3\n        /* \"#utility.yul\":10498:10510   */\n      add\n        /* \"#utility.yul\":10491:10510   */\n      swap1\n      pop\n        /* \"#utility.yul\":10150:10516   */\n      swap2\n      swap1\n      pop\n      jump\t// out\n        /* \"#utility.yul\":10522:10941   */\n    tag_99:\n        /* \"#utility.yul\":10688:10692   */\n      0x00\n        /* \"#utility.yul\":10726:10728   */\n      0x20\n        /* \"#utility.yul\":10715:10724   */\n      dup3\n        /* \"#utility.yul\":10711:10729   */\n      add\n        /* \"#utility.yul\":10703:10729   */\n      swap1\n      pop\n        /* \"#utility.yul\":10775:10784   */\n      dup2\n        /* \"#utility.yul\":10769:10773   */\n      dup2\n        /* \"#utility.yul\":10765:10785   */\n      sub\n        /* \"#utility.yul\":10761:10762   */\n      0x00\n        /* \"#utility.yul\":10750:10759   */\n      dup4\n        /* \"#utility.yul\":10746:10763   */\n      add\n        /* \"#utility.yul\":10739:10786   */\n      mstore\n        /* \"#utility.yul\":10803:10934   */\n      tag_238\n        /* \"#utility.yul\":10929:10933   */\n      dup2\n        /* \"#utility.yul\":10803:10934   */\n      tag_138\n      jump\t// in\n    tag_238:\n        /* \"#utility.yul\":10795:10934   */\n      swap1\n      pop\n        /* \"#utility.yul\":10522:10941   */\n      swap2\n      swap1\n      pop\n      jump\t// out\n        /* \"#utility.yul\":10947:11279   */\n    tag_104:\n        /* \"#utility.yul\":11068:11072   */\n      0x00\n        /* \"#utility.yul\":11106:11108   */\n      0x40\n        /* \"#utility.yul\":11095:11104   */\n      dup3\n        /* \"#utility.yul\":11091:11109   */\n      add\n        /* \"#utility.yul\":11083:11109   */\n      swap1\n      pop\n        /* \"#utility.yul\":11119:11190   */\n      tag_240\n        /* \"#utility.yul\":11187:11188   */\n      0x00\n        /* \"#utility.yul\":11176:11185   */\n      dup4\n        /* \"#utility.yul\":11172:11189   */\n      add\n        /* \"#utility.yul\":11163:11169   */\n      dup6\n        /* \"#utility.yul\":11119:11190   */\n      tag_126\n      jump\t// in\n    tag_240:\n        /* \"#utility.yul\":11200:11272   */\n      tag_241\n        /* \"#utility.yul\":11268:11270   */\n      0x20\n        /* \"#utility.yul\":11257:11266   */\n      dup4\n        /* \"#utility.yul\":11253:11271   */\n      add\n        /* \"#utility.yul\":11244:11250   */\n      dup5\n        /* \"#utility.yul\":11200:11272   */\n      tag_113\n      jump\t// in\n    tag_241:\n        /* \"#utility.yul\":10947:11279   */\n      swap4\n      swap3\n      pop\n      pop\n      pop\n      jump\t// out\n\n    auxdata: 0xa26469706673582212208566e5cca892df831d4847f8cce1c2b69c609ac263f63cc60367d1bc167a8f8d64736f6c634300081a0033\n}\n",
				"bytecode": {
					"linkReferences": {},
					"object": "6080604052335f806101000a81548173ffffffffffffffffffffffffffffffffffffffff021916908373ffffffffffffffffffffffffffffffffffffffff160217905550601e42604e91906096565b600355348015605b575f80fd5b5060c2565b5f819050919050565b7f4e487b71000000000000000000000000000000000000000000000000000000005f52601160045260245ffd5b5f609e826060565b915060a7836060565b925082820390508181111560bc5760bb6069565b5b92915050565b610e19806100cf5f395ff3fe60806040526004361061004d575f3560e01c8063410a1d321461005657806348c1291d146100925780635b56410b146100bc5780638da5cb5b146100d8578063ed88c68e1461010257610054565b3661005457005b005b348015610061575f80fd5b5061007c600480360381019061007791906108ec565b61010c565b604051610089919061092f565b60405180910390f35b34801561009d575f80fd5b506100a661023f565b6040516100b391906109ff565b60405180910390f35b6100d660048036038101906100d19190610a84565b6105c9565b005b3480156100e3575f80fd5b506100ec6106e0565b6040516100f99190610ad1565b60405180910390f35b61010a610703565b005b5f8073ffffffffffffffffffffffffffffffffffffffff168273ffffffffffffffffffffffffffffffffffffffff160361017b576040517f08c379a000000000000000000000000000000000000000000000000000000000815260040161017290610b44565b60405180910390fd5b5f60015f8473ffffffffffffffffffffffffffffffffffffffff1673ffffffffffffffffffffffffffffffffffffffff1681526020019081526020015f2054036101fa576040517f08c379a00000000000000000000000000000000000000000000000000000000081526004016101f190610bac565b60405180910390fd5b60015f8373ffffffffffffffffffffffffffffffffffffffff1673ffffffffffffffffffffffffffffffffffffffff1681526020019081526020015f20549050919050565b60605f5b6002805490508110156104b4575f60018261025e9190610bf7565b90505b6002805490508110156104a65760015f6002838154811061028557610284610c2a565b5b905f5260205f20015f9054906101000a900473ffffffffffffffffffffffffffffffffffffffff1673ffffffffffffffffffffffffffffffffffffffff1673ffffffffffffffffffffffffffffffffffffffff1681526020019081526020015f205460015f600285815481106102fe576102fd610c2a565b5b905f5260205f20015f9054906101000a900473ffffffffffffffffffffffffffffffffffffffff1673ffffffffffffffffffffffffffffffffffffffff1673ffffffffffffffffffffffffffffffffffffffff1681526020019081526020015f20541015610499576002818154811061037a57610379610c2a565b5b905f5260205f20015f9054906101000a900473ffffffffffffffffffffffffffffffffffffffff16600283815481106103b6576103b5610c2a565b5b905f5260205f20015f9054906101000a900473ffffffffffffffffffffffffffffffffffffffff16600284815481106103f2576103f1610c2a565b5b905f5260205f20015f6002858154811061040f5761040e610c2a565b5b905f5260205f20015f8491906101000a81548173ffffffffffffffffffffffffffffffffffffffff021916908373ffffffffffffffffffffffffffffffffffffffff1602179055508391906101000a81548173ffffffffffffffffffffffffffffffffffffffff021916908373ffffffffffffffffffffffffffffffffffffffff16021790555050505b8080600101915050610261565b508080600101915050610243565b505f600367ffffffffffffffff8111156104d1576104d0610c57565b5b6040519080825280602002602001820160405280156104ff5781602001602082028036833780820191505090505b5090505f60036002805490501161051b5760028054905061051e565b60035b90505f5b818110156105c0576002818154811061053e5761053d610c2a565b5b905f5260205f20015f9054906101000a900473ffffffffffffffffffffffffffffffffffffffff1683828151811061057957610578610c2a565b5b602002602001019073ffffffffffffffffffffffffffffffffffffffff16908173ffffffffffffffffffffffffffffffffffffffff16815250508080600101915050610522565b50819250505090565b3373ffffffffffffffffffffffffffffffffffffffff165f8054906101000a900473ffffffffffffffffffffffffffffffffffffffff1673ffffffffffffffffffffffffffffffffffffffff1614610656576040517f08c379a000000000000000000000000000000000000000000000000000000000815260040161064d90610cce565b60405180910390fd5b5f4703610698576040517f08c379a000000000000000000000000000000000000000000000000000000000815260040161068f90610d36565b60405180910390fd5b8173ffffffffffffffffffffffffffffffffffffffff166108fc8290811502906040515f60405180830381858888f193505050501580156106db573d5f803e3d5ffd5b505050565b5f8054906101000a900473ffffffffffffffffffffffffffffffffffffffff1681565b601e6003546107129190610bf7565b421015610754576040517f08c379a000000000000000000000000000000000000000000000000000000000815260040161074b90610d9e565b60405180910390fd5b426003819055505f60015f3373ffffffffffffffffffffffffffffffffffffffff1673ffffffffffffffffffffffffffffffffffffffff1681526020019081526020015f20540361080057600233908060018154018082558091505060019003905f5260205f20015f9091909190916101000a81548173ffffffffffffffffffffffffffffffffffffffff021916908373ffffffffffffffffffffffffffffffffffffffff1602179055505b3460015f3373ffffffffffffffffffffffffffffffffffffffff1673ffffffffffffffffffffffffffffffffffffffff1681526020019081526020015f205f82825461084c9190610bf7565b925050819055507f5d8bc849764969eb1bcc6d0a2f55999d0167c1ccec240a4f39cf664ca9c4148e3334604051610884929190610dbc565b60405180910390a1565b5f80fd5b5f73ffffffffffffffffffffffffffffffffffffffff82169050919050565b5f6108bb82610892565b9050919050565b6108cb816108b1565b81146108d5575f80fd5b50565b5f813590506108e6816108c2565b92915050565b5f602082840312156109015761090061088e565b5b5f61090e848285016108d8565b91505092915050565b5f819050919050565b61092981610917565b82525050565b5f6020820190506109425f830184610920565b92915050565b5f81519050919050565b5f82825260208201905092915050565b5f819050602082019050919050565b61097a816108b1565b82525050565b5f61098b8383610971565b60208301905092915050565b5f602082019050919050565b5f6109ad82610948565b6109b78185610952565b93506109c283610962565b805f5b838110156109f25781516109d98882610980565b97506109e483610997565b9250506001810190506109c5565b5085935050505092915050565b5f6020820190508181035f830152610a1781846109a3565b905092915050565b5f610a2982610892565b9050919050565b610a3981610a1f565b8114610a43575f80fd5b50565b5f81359050610a5481610a30565b92915050565b610a6381610917565b8114610a6d575f80fd5b50565b5f81359050610a7e81610a5a565b92915050565b5f8060408385031215610a9a57610a9961088e565b5b5f610aa785828601610a46565b9250506020610ab885828601610a70565b9150509250929050565b610acb816108b1565b82525050565b5f602082019050610ae45f830184610ac2565b92915050565b5f82825260208201905092915050565b7f496e76616c6964206164647265737300000000000000000000000000000000005f82015250565b5f610b2e600f83610aea565b9150610b3982610afa565b602082019050919050565b5f6020820190508181035f830152610b5b81610b22565b9050919050565b7f796f75206469646e277420646f6e6174650000000000000000000000000000005f82015250565b5f610b96601183610aea565b9150610ba182610b62565b602082019050919050565b5f6020820190508181035f830152610bc381610b8a565b9050919050565b7f4e487b71000000000000000000000000000000000000000000000000000000005f52601160045260245ffd5b5f610c0182610917565b9150610c0c83610917565b9250828201905080821115610c2457610c23610bca565b5b92915050565b7f4e487b71000000000000000000000000000000000000000000000000000000005f52603260045260245ffd5b7f4e487b71000000000000000000000000000000000000000000000000000000005f52604160045260245ffd5b7f4f6e6c79206f776e65722063616e2077697468647261770000000000000000005f82015250565b5f610cb8601783610aea565b9150610cc382610c84565b602082019050919050565b5f6020820190508181035f830152610ce581610cac565b9050919050565b7f636f6e7472616374206c65667420697320656d707479000000000000000000005f82015250565b5f610d20601683610aea565b9150610d2b82610cec565b602082019050919050565b5f6020820190508181035f830152610d4d81610d14565b9050919050565b7f54696d6573206e6f7420726561636800000000000000000000000000000000005f82015250565b5f610d88600f83610aea565b9150610d9382610d54565b602082019050919050565b5f6020820190508181035f830152610db581610d7c565b9050919050565b5f604082019050610dcf5f830185610ac2565b610ddc6020830184610920565b939250505056fea26469706673582212208566e5cca892df831d4847f8cce1c2b69c609ac263f63cc60367d1bc167a8f8d64736f6c634300081a0033",
					"opcodes": "PUSH1 0x80 PUSH1 0x40 MSTORE CALLER PUSH0 DUP1 PUSH2 0x100 EXP DUP2 SLOAD DUP2 PUSH20 0xFFFFFFFFFFFFFFFFFFFFFFFFFFFFFFFFFFFFFFFF MUL NOT AND SWAP1 DUP4 PUSH20 0xFFFFFFFFFFFFFFFFFFFFFFFFFFFFFFFFFFFFFFFF AND MUL OR SWAP1 SSTORE POP PUSH1 0x1E TIMESTAMP PUSH1 0x4E SWAP2 SWAP1 PUSH1 0x96 JUMP JUMPDEST PUSH1 0x3 SSTORE CALLVALUE DUP1 ISZERO PUSH1 0x5B JUMPI PUSH0 DUP1 REVERT JUMPDEST POP PUSH1 0xC2 JUMP JUMPDEST PUSH0 DUP2 SWAP1 POP SWAP2 SWAP1 POP JUMP JUMPDEST PUSH32 0x4E487B7100000000000000000000000000000000000000000000000000000000 PUSH0 MSTORE PUSH1 0x11 PUSH1 0x4 MSTORE PUSH1 0x24 PUSH0 REVERT JUMPDEST PUSH0 PUSH1 0x9E DUP3 PUSH1 0x60 JUMP JUMPDEST SWAP2 POP PUSH1 0xA7 DUP4 PUSH1 0x60 JUMP JUMPDEST SWAP3 POP DUP3 DUP3 SUB SWAP1 POP DUP2 DUP2 GT ISZERO PUSH1 0xBC JUMPI PUSH1 0xBB PUSH1 0x69 JUMP JUMPDEST JUMPDEST SWAP3 SWAP2 POP POP JUMP JUMPDEST PUSH2 0xE19 DUP1 PUSH2 0xCF PUSH0 CODECOPY PUSH0 RETURN INVALID PUSH1 0x80 PUSH1 0x40 MSTORE PUSH1 0x4 CALLDATASIZE LT PUSH2 0x4D JUMPI PUSH0 CALLDATALOAD PUSH1 0xE0 SHR DUP1 PUSH4 0x410A1D32 EQ PUSH2 0x56 JUMPI DUP1 PUSH4 0x48C1291D EQ PUSH2 0x92 JUMPI DUP1 PUSH4 0x5B56410B EQ PUSH2 0xBC JUMPI DUP1 PUSH4 0x8DA5CB5B EQ PUSH2 0xD8 JUMPI DUP1 PUSH4 0xED88C68E EQ PUSH2 0x102 JUMPI PUSH2 0x54 JUMP JUMPDEST CALLDATASIZE PUSH2 0x54 JUMPI STOP JUMPDEST STOP JUMPDEST CALLVALUE DUP1 ISZERO PUSH2 0x61 JUMPI PUSH0 DUP1 REVERT JUMPDEST POP PUSH2 0x7C PUSH1 0x4 DUP1 CALLDATASIZE SUB DUP2 ADD SWAP1 PUSH2 0x77 SWAP2 SWAP1 PUSH2 0x8EC JUMP JUMPDEST PUSH2 0x10C JUMP JUMPDEST PUSH1 0x40 MLOAD PUSH2 0x89 SWAP2 SWAP1 PUSH2 0x92F JUMP JUMPDEST PUSH1 0x40 MLOAD DUP1 SWAP2 SUB SWAP1 RETURN JUMPDEST CALLVALUE DUP1 ISZERO PUSH2 0x9D JUMPI PUSH0 DUP1 REVERT JUMPDEST POP PUSH2 0xA6 PUSH2 0x23F JUMP JUMPDEST PUSH1 0x40 MLOAD PUSH2 0xB3 SWAP2 SWAP1 PUSH2 0x9FF JUMP JUMPDEST PUSH1 0x40 MLOAD DUP1 SWAP2 SUB SWAP1 RETURN JUMPDEST PUSH2 0xD6 PUSH1 0x4 DUP1 CALLDATASIZE SUB DUP2 ADD SWAP1 PUSH2 0xD1 SWAP2 SWAP1 PUSH2 0xA84 JUMP JUMPDEST PUSH2 0x5C9 JUMP JUMPDEST STOP JUMPDEST CALLVALUE DUP1 ISZERO PUSH2 0xE3 JUMPI PUSH0 DUP1 REVERT JUMPDEST POP PUSH2 0xEC PUSH2 0x6E0 JUMP JUMPDEST PUSH1 0x40 MLOAD PUSH2 0xF9 SWAP2 SWAP1 PUSH2 0xAD1 JUMP JUMPDEST PUSH1 0x40 MLOAD DUP1 SWAP2 SUB SWAP1 RETURN JUMPDEST PUSH2 0x10A PUSH2 0x703 JUMP JUMPDEST STOP JUMPDEST PUSH0 DUP1 PUSH20 0xFFFFFFFFFFFFFFFFFFFFFFFFFFFFFFFFFFFFFFFF AND DUP3 PUSH20 0xFFFFFFFFFFFFFFFFFFFFFFFFFFFFFFFFFFFFFFFF AND SUB PUSH2 0x17B JUMPI PUSH1 0x40 MLOAD PUSH32 0x8C379A000000000000000000000000000000000000000000000000000000000 DUP2 MSTORE PUSH1 0x4 ADD PUSH2 0x172 SWAP1 PUSH2 0xB44 JUMP JUMPDEST PUSH1 0x40 MLOAD DUP1 SWAP2 SUB SWAP1 REVERT JUMPDEST PUSH0 PUSH1 0x1 PUSH0 DUP5 PUSH20 0xFFFFFFFFFFFFFFFFFFFFFFFFFFFFFFFFFFFFFFFF AND PUSH20 0xFFFFFFFFFFFFFFFFFFFFFFFFFFFFFFFFFFFFFFFF AND DUP2 MSTORE PUSH1 0x20 ADD SWAP1 DUP2 MSTORE PUSH1 0x20 ADD PUSH0 KECCAK256 SLOAD SUB PUSH2 0x1FA JUMPI PUSH1 0x40 MLOAD PUSH32 0x8C379A000000000000000000000000000000000000000000000000000000000 DUP2 MSTORE PUSH1 0x4 ADD PUSH2 0x1F1 SWAP1 PUSH2 0xBAC JUMP JUMPDEST PUSH1 0x40 MLOAD DUP1 SWAP2 SUB SWAP1 REVERT JUMPDEST PUSH1 0x1 PUSH0 DUP4 PUSH20 0xFFFFFFFFFFFFFFFFFFFFFFFFFFFFFFFFFFFFFFFF AND PUSH20 0xFFFFFFFFFFFFFFFFFFFFFFFFFFFFFFFFFFFFFFFF AND DUP2 MSTORE PUSH1 0x20 ADD SWAP1 DUP2 MSTORE PUSH1 0x20 ADD PUSH0 KECCAK256 SLOAD SWAP1 POP SWAP2 SWAP1 POP JUMP JUMPDEST PUSH1 0x60 PUSH0 JUMPDEST PUSH1 0x2 DUP1 SLOAD SWAP1 POP DUP2 LT ISZERO PUSH2 0x4B4 JUMPI PUSH0 PUSH1 0x1 DUP3 PUSH2 0x25E SWAP2 SWAP1 PUSH2 0xBF7 JUMP JUMPDEST SWAP1 POP JUMPDEST PUSH1 0x2 DUP1 SLOAD SWAP1 POP DUP2 LT ISZERO PUSH2 0x4A6 JUMPI PUSH1 0x1 PUSH0 PUSH1 0x2 DUP4 DUP2 SLOAD DUP2 LT PUSH2 0x285 JUMPI PUSH2 0x284 PUSH2 0xC2A JUMP JUMPDEST JUMPDEST SWAP1 PUSH0 MSTORE PUSH1 0x20 PUSH0 KECCAK256 ADD PUSH0 SWAP1 SLOAD SWAP1 PUSH2 0x100 EXP SWAP1 DIV PUSH20 0xFFFFFFFFFFFFFFFFFFFFFFFFFFFFFFFFFFFFFFFF AND PUSH20 0xFFFFFFFFFFFFFFFFFFFFFFFFFFFFFFFFFFFFFFFF AND PUSH20 0xFFFFFFFFFFFFFFFFFFFFFFFFFFFFFFFFFFFFFFFF AND DUP2 MSTORE PUSH1 0x20 ADD SWAP1 DUP2 MSTORE PUSH1 0x20 ADD PUSH0 KECCAK256 SLOAD PUSH1 0x1 PUSH0 PUSH1 0x2 DUP6 DUP2 SLOAD DUP2 LT PUSH2 0x2FE JUMPI PUSH2 0x2FD PUSH2 0xC2A JUMP JUMPDEST JUMPDEST SWAP1 PUSH0 MSTORE PUSH1 0x20 PUSH0 KECCAK256 ADD PUSH0 SWAP1 SLOAD SWAP1 PUSH2 0x100 EXP SWAP1 DIV PUSH20 0xFFFFFFFFFFFFFFFFFFFFFFFFFFFFFFFFFFFFFFFF AND PUSH20 0xFFFFFFFFFFFFFFFFFFFFFFFFFFFFFFFFFFFFFFFF AND PUSH20 0xFFFFFFFFFFFFFFFFFFFFFFFFFFFFFFFFFFFFFFFF AND DUP2 MSTORE PUSH1 0x20 ADD SWAP1 DUP2 MSTORE PUSH1 0x20 ADD PUSH0 KECCAK256 SLOAD LT ISZERO PUSH2 0x499 JUMPI PUSH1 0x2 DUP2 DUP2 SLOAD DUP2 LT PUSH2 0x37A JUMPI PUSH2 0x379 PUSH2 0xC2A JUMP JUMPDEST JUMPDEST SWAP1 PUSH0 MSTORE PUSH1 0x20 PUSH0 KECCAK256 ADD PUSH0 SWAP1 SLOAD SWAP1 PUSH2 0x100 EXP SWAP1 DIV PUSH20 0xFFFFFFFFFFFFFFFFFFFFFFFFFFFFFFFFFFFFFFFF AND PUSH1 0x2 DUP4 DUP2 SLOAD DUP2 LT PUSH2 0x3B6 JUMPI PUSH2 0x3B5 PUSH2 0xC2A JUMP JUMPDEST JUMPDEST SWAP1 PUSH0 MSTORE PUSH1 0x20 PUSH0 KECCAK256 ADD PUSH0 SWAP1 SLOAD SWAP1 PUSH2 0x100 EXP SWAP1 DIV PUSH20 0xFFFFFFFFFFFFFFFFFFFFFFFFFFFFFFFFFFFFFFFF AND PUSH1 0x2 DUP5 DUP2 SLOAD DUP2 LT PUSH2 0x3F2 JUMPI PUSH2 0x3F1 PUSH2 0xC2A JUMP JUMPDEST JUMPDEST SWAP1 PUSH0 MSTORE PUSH1 0x20 PUSH0 KECCAK256 ADD PUSH0 PUSH1 0x2 DUP6 DUP2 SLOAD DUP2 LT PUSH2 0x40F JUMPI PUSH2 0x40E PUSH2 0xC2A JUMP JUMPDEST JUMPDEST SWAP1 PUSH0 MSTORE PUSH1 0x20 PUSH0 KECCAK256 ADD PUSH0 DUP5 SWAP2 SWAP1 PUSH2 0x100 EXP DUP2 SLOAD DUP2 PUSH20 0xFFFFFFFFFFFFFFFFFFFFFFFFFFFFFFFFFFFFFFFF MUL NOT AND SWAP1 DUP4 PUSH20 0xFFFFFFFFFFFFFFFFFFFFFFFFFFFFFFFFFFFFFFFF AND MUL OR SWAP1 SSTORE POP DUP4 SWAP2 SWAP1 PUSH2 0x100 EXP DUP2 SLOAD DUP2 PUSH20 0xFFFFFFFFFFFFFFFFFFFFFFFFFFFFFFFFFFFFFFFF MUL NOT AND SWAP1 DUP4 PUSH20 0xFFFFFFFFFFFFFFFFFFFFFFFFFFFFFFFFFFFFFFFF AND MUL OR SWAP1 SSTORE POP POP POP JUMPDEST DUP1 DUP1 PUSH1 0x1 ADD SWAP2 POP POP PUSH2 0x261 JUMP JUMPDEST POP DUP1 DUP1 PUSH1 0x1 ADD SWAP2 POP POP PUSH2 0x243 JUMP JUMPDEST POP PUSH0 PUSH1 0x3 PUSH8 0xFFFFFFFFFFFFFFFF DUP2 GT ISZERO PUSH2 0x4D1 JUMPI PUSH2 0x4D0 PUSH2 0xC57 JUMP JUMPDEST JUMPDEST PUSH1 0x40 MLOAD SWAP1 DUP1 DUP3 MSTORE DUP1 PUSH1 0x20 MUL PUSH1 0x20 ADD DUP3 ADD PUSH1 0x40 MSTORE DUP1 ISZERO PUSH2 0x4FF JUMPI DUP2 PUSH1 0x20 ADD PUSH1 0x20 DUP3 MUL DUP1 CALLDATASIZE DUP4 CALLDATACOPY DUP1 DUP3 ADD SWAP2 POP POP SWAP1 POP JUMPDEST POP SWAP1 POP PUSH0 PUSH1 0x3 PUSH1 0x2 DUP1 SLOAD SWAP1 POP GT PUSH2 0x51B JUMPI PUSH1 0x2 DUP1 SLOAD SWAP1 POP PUSH2 0x51E JUMP JUMPDEST PUSH1 0x3 JUMPDEST SWAP1 POP PUSH0 JUMPDEST DUP2 DUP2 LT ISZERO PUSH2 0x5C0 JUMPI PUSH1 0x2 DUP2 DUP2 SLOAD DUP2 LT PUSH2 0x53E JUMPI PUSH2 0x53D PUSH2 0xC2A JUMP JUMPDEST JUMPDEST SWAP1 PUSH0 MSTORE PUSH1 0x20 PUSH0 KECCAK256 ADD PUSH0 SWAP1 SLOAD SWAP1 PUSH2 0x100 EXP SWAP1 DIV PUSH20 0xFFFFFFFFFFFFFFFFFFFFFFFFFFFFFFFFFFFFFFFF AND DUP4 DUP3 DUP2 MLOAD DUP2 LT PUSH2 0x579 JUMPI PUSH2 0x578 PUSH2 0xC2A JUMP JUMPDEST JUMPDEST PUSH1 0x20 MUL PUSH1 0x20 ADD ADD SWAP1 PUSH20 0xFFFFFFFFFFFFFFFFFFFFFFFFFFFFFFFFFFFFFFFF AND SWAP1 DUP2 PUSH20 0xFFFFFFFFFFFFFFFFFFFFFFFFFFFFFFFFFFFFFFFF AND DUP2 MSTORE POP POP DUP1 DUP1 PUSH1 0x1 ADD SWAP2 POP POP PUSH2 0x522 JUMP JUMPDEST POP DUP2 SWAP3 POP POP POP SWAP1 JUMP JUMPDEST CALLER PUSH20 0xFFFFFFFFFFFFFFFFFFFFFFFFFFFFFFFFFFFFFFFF AND PUSH0 DUP1 SLOAD SWAP1 PUSH2 0x100 EXP SWAP1 DIV PUSH20 0xFFFFFFFFFFFFFFFFFFFFFFFFFFFFFFFFFFFFFFFF AND PUSH20 0xFFFFFFFFFFFFFFFFFFFFFFFFFFFFFFFFFFFFFFFF AND EQ PUSH2 0x656 JUMPI PUSH1 0x40 MLOAD PUSH32 0x8C379A000000000000000000000000000000000000000000000000000000000 DUP2 MSTORE PUSH1 0x4 ADD PUSH2 0x64D SWAP1 PUSH2 0xCCE JUMP JUMPDEST PUSH1 0x40 MLOAD DUP1 SWAP2 SUB SWAP1 REVERT JUMPDEST PUSH0 SELFBALANCE SUB PUSH2 0x698 JUMPI PUSH1 0x40 MLOAD PUSH32 0x8C379A000000000000000000000000000000000000000000000000000000000 DUP2 MSTORE PUSH1 0x4 ADD PUSH2 0x68F SWAP1 PUSH2 0xD36 JUMP JUMPDEST PUSH1 0x40 MLOAD DUP1 SWAP2 SUB SWAP1 REVERT JUMPDEST DUP2 PUSH20 0xFFFFFFFFFFFFFFFFFFFFFFFFFFFFFFFFFFFFFFFF AND PUSH2 0x8FC DUP3 SWAP1 DUP2 ISZERO MUL SWAP1 PUSH1 0x40 MLOAD PUSH0 PUSH1 0x40 MLOAD DUP1 DUP4 SUB DUP2 DUP6 DUP9 DUP9 CALL SWAP4 POP POP POP POP ISZERO DUP1 ISZERO PUSH2 0x6DB JUMPI RETURNDATASIZE PUSH0 DUP1 RETURNDATACOPY RETURNDATASIZE PUSH0 REVERT JUMPDEST POP POP POP JUMP JUMPDEST PUSH0 DUP1 SLOAD SWAP1 PUSH2 0x100 EXP SWAP1 DIV PUSH20 0xFFFFFFFFFFFFFFFFFFFFFFFFFFFFFFFFFFFFFFFF AND DUP2 JUMP JUMPDEST PUSH1 0x1E PUSH1 0x3 SLOAD PUSH2 0x712 SWAP2 SWAP1 PUSH2 0xBF7 JUMP JUMPDEST TIMESTAMP LT ISZERO PUSH2 0x754 JUMPI PUSH1 0x40 MLOAD PUSH32 0x8C379A000000000000000000000000000000000000000000000000000000000 DUP2 MSTORE PUSH1 0x4 ADD PUSH2 0x74B SWAP1 PUSH2 0xD9E JUMP JUMPDEST PUSH1 0x40 MLOAD DUP1 SWAP2 SUB SWAP1 REVERT JUMPDEST TIMESTAMP PUSH1 0x3 DUP2 SWAP1 SSTORE POP PUSH0 PUSH1 0x1 PUSH0 CALLER PUSH20 0xFFFFFFFFFFFFFFFFFFFFFFFFFFFFFFFFFFFFFFFF AND PUSH20 0xFFFFFFFFFFFFFFFFFFFFFFFFFFFFFFFFFFFFFFFF AND DUP2 MSTORE PUSH1 0x20 ADD SWAP1 DUP2 MSTORE PUSH1 0x20 ADD PUSH0 KECCAK256 SLOAD SUB PUSH2 0x800 JUMPI PUSH1 0x2 CALLER SWAP1 DUP1 PUSH1 0x1 DUP2 SLOAD ADD DUP1 DUP3 SSTORE DUP1 SWAP2 POP POP PUSH1 0x1 SWAP1 SUB SWAP1 PUSH0 MSTORE PUSH1 0x20 PUSH0 KECCAK256 ADD PUSH0 SWAP1 SWAP2 SWAP1 SWAP2 SWAP1 SWAP2 PUSH2 0x100 EXP DUP2 SLOAD DUP2 PUSH20 0xFFFFFFFFFFFFFFFFFFFFFFFFFFFFFFFFFFFFFFFF MUL NOT AND SWAP1 DUP4 PUSH20 0xFFFFFFFFFFFFFFFFFFFFFFFFFFFFFFFFFFFFFFFF AND MUL OR SWAP1 SSTORE POP JUMPDEST CALLVALUE PUSH1 0x1 PUSH0 CALLER PUSH20 0xFFFFFFFFFFFFFFFFFFFFFFFFFFFFFFFFFFFFFFFF AND PUSH20 0xFFFFFFFFFFFFFFFFFFFFFFFFFFFFFFFFFFFFFFFF AND DUP2 MSTORE PUSH1 0x20 ADD SWAP1 DUP2 MSTORE PUSH1 0x20 ADD PUSH0 KECCAK256 PUSH0 DUP3 DUP3 SLOAD PUSH2 0x84C SWAP2 SWAP1 PUSH2 0xBF7 JUMP JUMPDEST SWAP3 POP POP DUP2 SWAP1 SSTORE POP PUSH32 0x5D8BC849764969EB1BCC6D0A2F55999D0167C1CCEC240A4F39CF664CA9C4148E CALLER CALLVALUE PUSH1 0x40 MLOAD PUSH2 0x884 SWAP3 SWAP2 SWAP1 PUSH2 0xDBC JUMP JUMPDEST PUSH1 0x40 MLOAD DUP1 SWAP2 SUB SWAP1 LOG1 JUMP JUMPDEST PUSH0 DUP1 REVERT JUMPDEST PUSH0 PUSH20 0xFFFFFFFFFFFFFFFFFFFFFFFFFFFFFFFFFFFFFFFF DUP3 AND SWAP1 POP SWAP2 SWAP1 POP JUMP JUMPDEST PUSH0 PUSH2 0x8BB DUP3 PUSH2 0x892 JUMP JUMPDEST SWAP1 POP SWAP2 SWAP1 POP JUMP JUMPDEST PUSH2 0x8CB DUP2 PUSH2 0x8B1 JUMP JUMPDEST DUP2 EQ PUSH2 0x8D5 JUMPI PUSH0 DUP1 REVERT JUMPDEST POP JUMP JUMPDEST PUSH0 DUP2 CALLDATALOAD SWAP1 POP PUSH2 0x8E6 DUP2 PUSH2 0x8C2 JUMP JUMPDEST SWAP3 SWAP2 POP POP JUMP JUMPDEST PUSH0 PUSH1 0x20 DUP3 DUP5 SUB SLT ISZERO PUSH2 0x901 JUMPI PUSH2 0x900 PUSH2 0x88E JUMP JUMPDEST JUMPDEST PUSH0 PUSH2 0x90E DUP5 DUP3 DUP6 ADD PUSH2 0x8D8 JUMP JUMPDEST SWAP2 POP POP SWAP3 SWAP2 POP POP JUMP JUMPDEST PUSH0 DUP2 SWAP1 POP SWAP2 SWAP1 POP JUMP JUMPDEST PUSH2 0x929 DUP2 PUSH2 0x917 JUMP JUMPDEST DUP3 MSTORE POP POP JUMP JUMPDEST PUSH0 PUSH1 0x20 DUP3 ADD SWAP1 POP PUSH2 0x942 PUSH0 DUP4 ADD DUP5 PUSH2 0x920 JUMP JUMPDEST SWAP3 SWAP2 POP POP JUMP JUMPDEST PUSH0 DUP2 MLOAD SWAP1 POP SWAP2 SWAP1 POP JUMP JUMPDEST PUSH0 DUP3 DUP3 MSTORE PUSH1 0x20 DUP3 ADD SWAP1 POP SWAP3 SWAP2 POP POP JUMP JUMPDEST PUSH0 DUP2 SWAP1 POP PUSH1 0x20 DUP3 ADD SWAP1 POP SWAP2 SWAP1 POP JUMP JUMPDEST PUSH2 0x97A DUP2 PUSH2 0x8B1 JUMP JUMPDEST DUP3 MSTORE POP POP JUMP JUMPDEST PUSH0 PUSH2 0x98B DUP4 DUP4 PUSH2 0x971 JUMP JUMPDEST PUSH1 0x20 DUP4 ADD SWAP1 POP SWAP3 SWAP2 POP POP JUMP JUMPDEST PUSH0 PUSH1 0x20 DUP3 ADD SWAP1 POP SWAP2 SWAP1 POP JUMP JUMPDEST PUSH0 PUSH2 0x9AD DUP3 PUSH2 0x948 JUMP JUMPDEST PUSH2 0x9B7 DUP2 DUP6 PUSH2 0x952 JUMP JUMPDEST SWAP4 POP PUSH2 0x9C2 DUP4 PUSH2 0x962 JUMP JUMPDEST DUP1 PUSH0 JUMPDEST DUP4 DUP2 LT ISZERO PUSH2 0x9F2 JUMPI DUP2 MLOAD PUSH2 0x9D9 DUP9 DUP3 PUSH2 0x980 JUMP JUMPDEST SWAP8 POP PUSH2 0x9E4 DUP4 PUSH2 0x997 JUMP JUMPDEST SWAP3 POP POP PUSH1 0x1 DUP2 ADD SWAP1 POP PUSH2 0x9C5 JUMP JUMPDEST POP DUP6 SWAP4 POP POP POP POP SWAP3 SWAP2 POP POP JUMP JUMPDEST PUSH0 PUSH1 0x20 DUP3 ADD SWAP1 POP DUP2 DUP2 SUB PUSH0 DUP4 ADD MSTORE PUSH2 0xA17 DUP2 DUP5 PUSH2 0x9A3 JUMP JUMPDEST SWAP1 POP SWAP3 SWAP2 POP POP JUMP JUMPDEST PUSH0 PUSH2 0xA29 DUP3 PUSH2 0x892 JUMP JUMPDEST SWAP1 POP SWAP2 SWAP1 POP JUMP JUMPDEST PUSH2 0xA39 DUP2 PUSH2 0xA1F JUMP JUMPDEST DUP2 EQ PUSH2 0xA43 JUMPI PUSH0 DUP1 REVERT JUMPDEST POP JUMP JUMPDEST PUSH0 DUP2 CALLDATALOAD SWAP1 POP PUSH2 0xA54 DUP2 PUSH2 0xA30 JUMP JUMPDEST SWAP3 SWAP2 POP POP JUMP JUMPDEST PUSH2 0xA63 DUP2 PUSH2 0x917 JUMP JUMPDEST DUP2 EQ PUSH2 0xA6D JUMPI PUSH0 DUP1 REVERT JUMPDEST POP JUMP JUMPDEST PUSH0 DUP2 CALLDATALOAD SWAP1 POP PUSH2 0xA7E DUP2 PUSH2 0xA5A JUMP JUMPDEST SWAP3 SWAP2 POP POP JUMP JUMPDEST PUSH0 DUP1 PUSH1 0x40 DUP4 DUP6 SUB SLT ISZERO PUSH2 0xA9A JUMPI PUSH2 0xA99 PUSH2 0x88E JUMP JUMPDEST JUMPDEST PUSH0 PUSH2 0xAA7 DUP6 DUP3 DUP7 ADD PUSH2 0xA46 JUMP JUMPDEST SWAP3 POP POP PUSH1 0x20 PUSH2 0xAB8 DUP6 DUP3 DUP7 ADD PUSH2 0xA70 JUMP JUMPDEST SWAP2 POP POP SWAP3 POP SWAP3 SWAP1 POP JUMP JUMPDEST PUSH2 0xACB DUP2 PUSH2 0x8B1 JUMP JUMPDEST DUP3 MSTORE POP POP JUMP JUMPDEST PUSH0 PUSH1 0x20 DUP3 ADD SWAP1 POP PUSH2 0xAE4 PUSH0 DUP4 ADD DUP5 PUSH2 0xAC2 JUMP JUMPDEST SWAP3 SWAP2 POP POP JUMP JUMPDEST PUSH0 DUP3 DUP3 MSTORE PUSH1 0x20 DUP3 ADD SWAP1 POP SWAP3 SWAP2 POP POP JUMP JUMPDEST PUSH32 0x496E76616C696420616464726573730000000000000000000000000000000000 PUSH0 DUP3 ADD MSTORE POP JUMP JUMPDEST PUSH0 PUSH2 0xB2E PUSH1 0xF DUP4 PUSH2 0xAEA JUMP JUMPDEST SWAP2 POP PUSH2 0xB39 DUP3 PUSH2 0xAFA JUMP JUMPDEST PUSH1 0x20 DUP3 ADD SWAP1 POP SWAP2 SWAP1 POP JUMP JUMPDEST PUSH0 PUSH1 0x20 DUP3 ADD SWAP1 POP DUP2 DUP2 SUB PUSH0 DUP4 ADD MSTORE PUSH2 0xB5B DUP2 PUSH2 0xB22 JUMP JUMPDEST SWAP1 POP SWAP2 SWAP1 POP JUMP JUMPDEST PUSH32 0x796F75206469646E277420646F6E617465000000000000000000000000000000 PUSH0 DUP3 ADD MSTORE POP JUMP JUMPDEST PUSH0 PUSH2 0xB96 PUSH1 0x11 DUP4 PUSH2 0xAEA JUMP JUMPDEST SWAP2 POP PUSH2 0xBA1 DUP3 PUSH2 0xB62 JUMP JUMPDEST PUSH1 0x20 DUP3 ADD SWAP1 POP SWAP2 SWAP1 POP JUMP JUMPDEST PUSH0 PUSH1 0x20 DUP3 ADD SWAP1 POP DUP2 DUP2 SUB PUSH0 DUP4 ADD MSTORE PUSH2 0xBC3 DUP2 PUSH2 0xB8A JUMP JUMPDEST SWAP1 POP SWAP2 SWAP1 POP JUMP JUMPDEST PUSH32 0x4E487B7100000000000000000000000000000000000000000000000000000000 PUSH0 MSTORE PUSH1 0x11 PUSH1 0x4 MSTORE PUSH1 0x24 PUSH0 REVERT JUMPDEST PUSH0 PUSH2 0xC01 DUP3 PUSH2 0x917 JUMP JUMPDEST SWAP2 POP PUSH2 0xC0C DUP4 PUSH2 0x917 JUMP JUMPDEST SWAP3 POP DUP3 DUP3 ADD SWAP1 POP DUP1 DUP3 GT ISZERO PUSH2 0xC24 JUMPI PUSH2 0xC23 PUSH2 0xBCA JUMP JUMPDEST JUMPDEST SWAP3 SWAP2 POP POP JUMP JUMPDEST PUSH32 0x4E487B7100000000000000000000000000000000000000000000000000000000 PUSH0 MSTORE PUSH1 0x32 PUSH1 0x4 MSTORE PUSH1 0x24 PUSH0 REVERT JUMPDEST PUSH32 0x4E487B7100000000000000000000000000000000000000000000000000000000 PUSH0 MSTORE PUSH1 0x41 PUSH1 0x4 MSTORE PUSH1 0x24 PUSH0 REVERT JUMPDEST PUSH32 0x4F6E6C79206F776E65722063616E207769746864726177000000000000000000 PUSH0 DUP3 ADD MSTORE POP JUMP JUMPDEST PUSH0 PUSH2 0xCB8 PUSH1 0x17 DUP4 PUSH2 0xAEA JUMP JUMPDEST SWAP2 POP PUSH2 0xCC3 DUP3 PUSH2 0xC84 JUMP JUMPDEST PUSH1 0x20 DUP3 ADD SWAP1 POP SWAP2 SWAP1 POP JUMP JUMPDEST PUSH0 PUSH1 0x20 DUP3 ADD SWAP1 POP DUP2 DUP2 SUB PUSH0 DUP4 ADD MSTORE PUSH2 0xCE5 DUP2 PUSH2 0xCAC JUMP JUMPDEST SWAP1 POP SWAP2 SWAP1 POP JUMP JUMPDEST PUSH32 0x636F6E7472616374206C65667420697320656D70747900000000000000000000 PUSH0 DUP3 ADD MSTORE POP JUMP JUMPDEST PUSH0 PUSH2 0xD20 PUSH1 0x16 DUP4 PUSH2 0xAEA JUMP JUMPDEST SWAP2 POP PUSH2 0xD2B DUP3 PUSH2 0xCEC JUMP JUMPDEST PUSH1 0x20 DUP3 ADD SWAP1 POP SWAP2 SWAP1 POP JUMP JUMPDEST PUSH0 PUSH1 0x20 DUP3 ADD SWAP1 POP DUP2 DUP2 SUB PUSH0 DUP4 ADD MSTORE PUSH2 0xD4D DUP2 PUSH2 0xD14 JUMP JUMPDEST SWAP1 POP SWAP2 SWAP1 POP JUMP JUMPDEST PUSH32 0x54696D6573206E6F742072656163680000000000000000000000000000000000 PUSH0 DUP3 ADD MSTORE POP JUMP JUMPDEST PUSH0 PUSH2 0xD88 PUSH1 0xF DUP4 PUSH2 0xAEA JUMP JUMPDEST SWAP2 POP PUSH2 0xD93 DUP3 PUSH2 0xD54 JUMP JUMPDEST PUSH1 0x20 DUP3 ADD SWAP1 POP SWAP2 SWAP1 POP JUMP JUMPDEST PUSH0 PUSH1 0x20 DUP3 ADD SWAP1 POP DUP2 DUP2 SUB PUSH0 DUP4 ADD MSTORE PUSH2 0xDB5 DUP2 PUSH2 0xD7C JUMP JUMPDEST SWAP1 POP SWAP2 SWAP1 POP JUMP JUMPDEST PUSH0 PUSH1 0x40 DUP3 ADD SWAP1 POP PUSH2 0xDCF PUSH0 DUP4 ADD DUP6 PUSH2 0xAC2 JUMP JUMPDEST PUSH2 0xDDC PUSH1 0x20 DUP4 ADD DUP5 PUSH2 0x920 JUMP JUMPDEST SWAP4 SWAP3 POP POP POP JUMP INVALID LOG2 PUSH5 0x6970667358 0x22 SLT KECCAK256 DUP6 PUSH7 0xE5CCA892DF831D BASEFEE SELFBALANCE 0xF8 0xCC 0xE1 0xC2 0xB6 SWAP13 PUSH1 0x9A 0xC2 PUSH4 0xF63CC603 PUSH8 0xD1BC167A8F8D6473 PUSH16 0x6C634300081A00330000000000000000 "
				},
				"gasEstimates": {
					"creation": {
						"codeDepositCost": "721800",
						"executionCost": "infinite",
						"totalCost": "infinite"
					},
					"external": {
						"": "172",
						"donate()": "infinite",
						"getDonation(address)": "5052",
						"getsortthreeDonations()": "infinite",
						"owner()": "2549",
						"withdrow(address,uint256)": "infinite"
					}
				},
				"methodIdentifiers": {
					"donate()": "ed88c68e",
					"getDonation(address)": "410a1d32",
					"getsortthreeDonations()": "48c1291d",
					"owner()": "8da5cb5b",
					"withdrow(address,uint256)": "5b56410b"
				}
			},
			"storageLayout": {
				"storage": [
					{
						"astId": 11,
						"contract": "solidity/task2/beggingtest.sol:BeggingContract",
						"label": "owner",
						"offset": 0,
						"slot": "0",
						"type": "t_address"
					},
					{
						"astId": 15,
						"contract": "solidity/task2/beggingtest.sol:BeggingContract",
						"label": "forbeggingAccount",
						"offset": 0,
						"slot": "1",
						"type": "t_mapping(t_address,t_uint256)"
					},
					{
						"astId": 18,
						"contract": "solidity/task2/beggingtest.sol:BeggingContract",
						"label": "addrs",
						"offset": 0,
						"slot": "2",
						"type": "t_array(t_address)dyn_storage"
					},
					{
						"astId": 24,
						"contract": "solidity/task2/beggingtest.sol:BeggingContract",
						"label": "permittime",
						"offset": 0,
						"slot": "3",
						"type": "t_uint256"
					}
				],
				"types": {
					"t_address": {
						"encoding": "inplace",
						"label": "address",
						"numberOfBytes": "20"
					},
					"t_array(t_address)dyn_storage": {
						"base": "t_address",
						"encoding": "dynamic_array",
						"label": "address[]",
						"numberOfBytes": "32"
					},
					"t_mapping(t_address,t_uint256)": {
						"encoding": "mapping",
						"key": "t_address",
						"label": "mapping(address => uint256)",
						"numberOfBytes": "32",
						"value": "t_uint256"
					},
					"t_uint256": {
						"encoding": "inplace",
						"label": "uint256",
						"numberOfBytes": "32"
					}
				}
			},
			"userdoc": {
				"kind": "user",
				"methods": {},
				"version": 1
			}
		}
	}
}