{
	"solidity/homework/functype.sol": {
		"dselector": {
			"abi": [
				{
					"inputs": [
						{
							"internalType": "uint256",
							"name": "x",
							"type": "uint256"
						}
					],
					"name": "double",
					"outputs": [
						{
							"internalType": "uint256",
							"name": "",
							"type": "uint256"
						},
						{
							"internalType": "bytes4",
							"name": "",
							"type": "bytes4"
						}
					],
					"stateMutability": "pure",
					"type": "function"
				},
				{
					"inputs": [
						{
							"internalType": "bytes4",
							"name": "selector",
							"type": "bytes4"
						},
						{
							"internalType": "uint256",
							"name": "x",
							"type": "uint256"
						}
					],
					"name": "executeFunction",
					"outputs": [
						{
							"internalType": "uint256",
							"name": "z",
							"type": "uint256"
						}
					],
					"stateMutability": "nonpayable",
					"type": "function"
				},
				{
					"inputs": [
						{
							"internalType": "uint256",
							"name": "x",
							"type": "uint256"
						}
					],
					"name": "executeStoreSelector",
					"outputs": [
						{
							"internalType": "uint256",
							"name": "z",
							"type": "uint256"
						}
					],
					"stateMutability": "nonpayable",
					"type": "function"
				},
				{
					"inputs": [
						{
							"internalType": "uint256",
							"name": "x",
							"type": "uint256"
						}
					],
					"name": "square",
					"outputs": [
						{
							"internalType": "uint256",
							"name": "",
							"type": "uint256"
						},
						{
							"internalType": "bytes4",
							"name": "",
							"type": "bytes4"
						}
					],
					"stateMutability": "pure",
					"type": "function"
				},
				{
					"inputs": [
						{
							"internalType": "bytes4",
							"name": "selector",
							"type": "bytes4"
						}
					],
					"name": "storeSelector",
					"outputs": [],
					"stateMutability": "nonpayable",
					"type": "function"
				}
			],
			"devdoc": {
				"kind": "dev",
				"methods": {},
				"version": 1
			},
			"evm": {
				"assembly": "    /* \"solidity/homework/functype.sol\":58:1232  contract dselector{... */\n  mstore(0x40, 0x80)\n  callvalue\n  dup1\n  iszero\n  tag_1\n  jumpi\n  0x00\n  dup1\n  revert\ntag_1:\n  pop\n  dataSize(sub_0)\n  dup1\n  dataOffset(sub_0)\n  0x00\n  codecopy\n  0x00\n  return\nstop\n\nsub_0: assembly {\n        /* \"solidity/homework/functype.sol\":58:1232  contract dselector{... */\n      mstore(0x40, 0x80)\n      callvalue\n      dup1\n      iszero\n      tag_1\n      jumpi\n      0x00\n      dup1\n      revert\n    tag_1:\n      pop\n      jumpi(tag_2, lt(calldatasize, 0x04))\n      shr(0xe0, calldataload(0x00))\n      dup1\n      0x0d72997c\n      eq\n      tag_3\n      jumpi\n      dup1\n      0x7b292909\n      eq\n      tag_4\n      jumpi\n      dup1\n      0x8d10ff0c\n      eq\n      tag_5\n      jumpi\n      dup1\n      0xa25f4d31\n      eq\n      tag_6\n      jumpi\n      dup1\n      0xeee97206\n      eq\n      tag_7\n      jumpi\n    tag_2:\n      0x00\n      dup1\n      revert\n        /* \"solidity/homework/functype.sol\":977:1229  function executeStoreSelector(uint x) public returns(uint z){... */\n    tag_3:\n      tag_8\n      0x04\n      dup1\n      calldatasize\n      sub\n      dup2\n      add\n      swap1\n      tag_9\n      swap2\n      swap1\n      tag_10\n      jump\t// in\n    tag_9:\n      tag_11\n      jump\t// in\n    tag_8:\n      mload(0x40)\n      tag_12\n      swap2\n      swap1\n      tag_13\n      jump\t// in\n    tag_12:\n      mload(0x40)\n      dup1\n      swap2\n      sub\n      swap1\n      return\n        /* \"solidity/homework/functype.sol\":193:358  function square(uint x) public pure returns(uint , bytes4){... */\n    tag_4:\n      tag_14\n      0x04\n      dup1\n      calldatasize\n      sub\n      dup2\n      add\n      swap1\n      tag_15\n      swap2\n      swap1\n      tag_10\n      jump\t// in\n    tag_15:\n      tag_16\n      jump\t// in\n    tag_14:\n      mload(0x40)\n      tag_17\n      swap3\n      swap2\n      swap1\n      tag_18\n      jump\t// in\n    tag_17:\n      mload(0x40)\n      dup1\n      swap2\n      sub\n      swap1\n      return\n        /* \"solidity/homework/functype.sol\":879:969  function storeSelector(bytes4 selector) public{... */\n    tag_5:\n      tag_19\n      0x04\n      dup1\n      calldatasize\n      sub\n      dup2\n      add\n      swap1\n      tag_20\n      swap2\n      swap1\n      tag_21\n      jump\t// in\n    tag_20:\n      tag_22\n      jump\t// in\n    tag_19:\n      stop\n        /* \"solidity/homework/functype.sol\":617:873  function executeFunction(bytes4 selector, uint x) public returns(uint z){... */\n    tag_6:\n      tag_23\n      0x04\n      dup1\n      calldatasize\n      sub\n      dup2\n      add\n      swap1\n      tag_24\n      swap2\n      swap1\n      tag_25\n      jump\t// in\n    tag_24:\n      tag_26\n      jump\t// in\n    tag_23:\n      mload(0x40)\n      tag_27\n      swap2\n      swap1\n      tag_13\n      jump\t// in\n    tag_27:\n      mload(0x40)\n      dup1\n      swap2\n      sub\n      swap1\n      return\n        /* \"solidity/homework/functype.sol\":446:609  function double(uint x) public pure returns(uint, bytes4){... */\n    tag_7:\n      tag_28\n      0x04\n      dup1\n      calldatasize\n      sub\n      dup2\n      add\n      swap1\n      tag_29\n      swap2\n      swap1\n      tag_10\n      jump\t// in\n    tag_29:\n      tag_30\n      jump\t// in\n    tag_28:\n      mload(0x40)\n      tag_31\n      swap3\n      swap2\n      swap1\n      tag_18\n      jump\t// in\n    tag_31:\n      mload(0x40)\n      dup1\n      swap2\n      sub\n      swap1\n      return\n        /* \"solidity/homework/functype.sol\":977:1229  function executeStoreSelector(uint x) public returns(uint z){... */\n    tag_11:\n        /* \"solidity/homework/functype.sol\":1030:1036  uint z */\n      0x00\n        /* \"solidity/homework/functype.sol\":1049:1057  bool suc */\n      dup1\n        /* \"solidity/homework/functype.sol\":1059:1076  bytes memory data */\n      0x00\n        /* \"solidity/homework/functype.sol\":1088:1092  this */\n      address\n        /* \"solidity/homework/functype.sol\":1080:1098  address(this).call */\n      0xffffffffffffffffffffffffffffffffffffffff\n      and\n        /* \"solidity/homework/functype.sol\":1122:1136  storedSelector */\n      0x00\n      dup1\n      sload\n      swap1\n      0x0100\n      exp\n      swap1\n      div\n      0xe0\n      shl\n        /* \"solidity/homework/functype.sol\":1138:1139  x */\n      dup6\n        /* \"solidity/homework/functype.sol\":1099:1140  abi.encodeWithSelector(storedSelector, x) */\n      add(0x24, mload(0x40))\n      tag_33\n      swap2\n      swap1\n      tag_13\n      jump\t// in\n    tag_33:\n      mload(0x40)\n      0x20\n      dup2\n      dup4\n      sub\n      sub\n      dup2\n      mstore\n      swap1\n      0x40\n      mstore\n      swap1\n      not(0xffffffffffffffffffffffffffffffffffffffffffffffffffffffff)\n      and\n      0x20\n      dup3\n      add\n      dup1\n      mload\n      0xffffffffffffffffffffffffffffffffffffffffffffffffffffffff\n      dup4\n      dup2\n      dup4\n      and\n      or\n      dup4\n      mstore\n      pop\n      pop\n      pop\n      pop\n        /* \"solidity/homework/functype.sol\":1080:1141  address(this).call(abi.encodeWithSelector(storedSelector, x)) */\n      mload(0x40)\n      tag_34\n      swap2\n      swap1\n      tag_35\n      jump\t// in\n    tag_34:\n      0x00\n      mload(0x40)\n      dup1\n      dup4\n      sub\n      dup2\n      0x00\n      dup7\n      gas\n      call\n      swap2\n      pop\n      pop\n      returndatasize\n      dup1\n      0x00\n      dup2\n      eq\n      tag_38\n      jumpi\n      mload(0x40)\n      swap2\n      pop\n      and(add(returndatasize, 0x3f), not(0x1f))\n      dup3\n      add\n      0x40\n      mstore\n      returndatasize\n      dup3\n      mstore\n      returndatasize\n      0x00\n      0x20\n      dup5\n      add\n      returndatacopy\n      jump(tag_37)\n    tag_38:\n      0x60\n      swap2\n      pop\n    tag_37:\n      pop\n        /* \"solidity/homework/functype.sol\":1048:1141  (bool suc, bytes memory data) = address(this).call(abi.encodeWithSelector(storedSelector, x)) */\n      swap2\n      pop\n      swap2\n      pop\n        /* \"solidity/homework/functype.sol\":1160:1163  suc */\n      dup2\n        /* \"solidity/homework/functype.sol\":1152:1182  require(suc, \"execute failed\") */\n      tag_39\n      jumpi\n      mload(0x40)\n      0x08c379a000000000000000000000000000000000000000000000000000000000\n      dup2\n      mstore\n      0x04\n      add\n      tag_40\n      swap1\n      tag_41\n      jump\t// in\n    tag_40:\n      mload(0x40)\n      dup1\n      swap2\n      sub\n      swap1\n      revert\n    tag_39:\n        /* \"solidity/homework/functype.sol\":1208:1212  data */\n      dup1\n        /* \"solidity/homework/functype.sol\":1197:1221  abi.decode(data, (uint)) */\n      dup1\n      0x20\n      add\n      swap1\n      mload\n      dup2\n      add\n      swap1\n      tag_42\n      swap2\n      swap1\n      tag_43\n      jump\t// in\n    tag_42:\n        /* \"solidity/homework/functype.sol\":1193:1221  z = abi.decode(data, (uint)) */\n      swap3\n      pop\n        /* \"solidity/homework/functype.sol\":1037:1229  {... */\n      pop\n      pop\n        /* \"solidity/homework/functype.sol\":977:1229  function executeStoreSelector(uint x) public returns(uint z){... */\n      swap2\n      swap1\n      pop\n      jump\t// out\n        /* \"solidity/homework/functype.sol\":193:358  function square(uint x) public pure returns(uint , bytes4){... */\n    tag_16:\n        /* \"solidity/homework/functype.sol\":237:241  uint */\n      0x00\n        /* \"solidity/homework/functype.sol\":244:250  bytes4 */\n      dup1\n        /* \"solidity/homework/functype.sol\":262:277  bytes4 selector */\n      0x00\n        /* \"solidity/homework/functype.sol\":287:315  keccak256(\"square(uint256)\") */\n      0x7b292909f05611b33f30e48b9bb89ac938faa24dcfa7a9c135aa6624f6a9c1e8\n        /* \"solidity/homework/functype.sol\":262:316  bytes4 selector = bytes4(keccak256(\"square(uint256)\")) */\n      swap1\n      pop\n        /* \"solidity/homework/functype.sol\":338:339  2 */\n      0x02\n        /* \"solidity/homework/functype.sol\":335:336  x */\n      dup5\n        /* \"solidity/homework/functype.sol\":335:339  x**2 */\n      tag_45\n      swap2\n      swap1\n      tag_46\n      jump\t// in\n    tag_45:\n        /* \"solidity/homework/functype.sol\":341:349  selector */\n      dup2\n        /* \"solidity/homework/functype.sol\":327:350  return (x**2, selector) */\n      swap3\n      pop\n      swap3\n      pop\n      pop\n        /* \"solidity/homework/functype.sol\":193:358  function square(uint x) public pure returns(uint , bytes4){... */\n      swap2\n      pop\n      swap2\n      jump\t// out\n        /* \"solidity/homework/functype.sol\":879:969  function storeSelector(bytes4 selector) public{... */\n    tag_22:\n        /* \"solidity/homework/functype.sol\":953:961  selector */\n      dup1\n        /* \"solidity/homework/functype.sol\":936:950  storedSelector */\n      0x00\n      dup1\n        /* \"solidity/homework/functype.sol\":936:961  storedSelector = selector */\n      0x0100\n      exp\n      dup2\n      sload\n      dup2\n      0xffffffff\n      mul\n      not\n      and\n      swap1\n      dup4\n      0xe0\n      shr\n      mul\n      or\n      swap1\n      sstore\n      pop\n        /* \"solidity/homework/functype.sol\":879:969  function storeSelector(bytes4 selector) public{... */\n      pop\n      jump\t// out\n        /* \"solidity/homework/functype.sol\":617:873  function executeFunction(bytes4 selector, uint x) public returns(uint z){... */\n    tag_26:\n        /* \"solidity/homework/functype.sol\":682:688  uint z */\n      0x00\n        /* \"solidity/homework/functype.sol\":701:709  bool suc */\n      dup1\n        /* \"solidity/homework/functype.sol\":711:728  bytes memory data */\n      0x00\n        /* \"solidity/homework/functype.sol\":740:744  this */\n      address\n        /* \"solidity/homework/functype.sol\":732:750  address(this).call */\n      0xffffffffffffffffffffffffffffffffffffffff\n      and\n        /* \"solidity/homework/functype.sol\":774:782  selector */\n      dup6\n        /* \"solidity/homework/functype.sol\":783:784  x */\n      dup6\n        /* \"solidity/homework/functype.sol\":751:785  abi.encodeWithSelector(selector,x) */\n      add(0x24, mload(0x40))\n      tag_49\n      swap2\n      swap1\n      tag_13\n      jump\t// in\n    tag_49:\n      mload(0x40)\n      0x20\n      dup2\n      dup4\n      sub\n      sub\n      dup2\n      mstore\n      swap1\n      0x40\n      mstore\n      swap1\n      not(0xffffffffffffffffffffffffffffffffffffffffffffffffffffffff)\n      and\n      0x20\n      dup3\n      add\n      dup1\n      mload\n      0xffffffffffffffffffffffffffffffffffffffffffffffffffffffff\n      dup4\n      dup2\n      dup4\n      and\n      or\n      dup4\n      mstore\n      pop\n      pop\n      pop\n      pop\n        /* \"solidity/homework/functype.sol\":732:786  address(this).call(abi.encodeWithSelector(selector,x)) */\n      mload(0x40)\n      tag_50\n      swap2\n      swap1\n      tag_35\n      jump\t// in\n    tag_50:\n      0x00\n      mload(0x40)\n      dup1\n      dup4\n      sub\n      dup2\n      0x00\n      dup7\n      gas\n      call\n      swap2\n      pop\n      pop\n      returndatasize\n      dup1\n      0x00\n      dup2\n      eq\n      tag_53\n      jumpi\n      mload(0x40)\n      swap2\n      pop\n      and(add(returndatasize, 0x3f), not(0x1f))\n      dup3\n      add\n      0x40\n      mstore\n      returndatasize\n      dup3\n      mstore\n      returndatasize\n      0x00\n      0x20\n      dup5\n      add\n      returndatacopy\n      jump(tag_52)\n    tag_53:\n      0x60\n      swap2\n      pop\n    tag_52:\n      pop\n        /* \"solidity/homework/functype.sol\":700:786  (bool suc, bytes memory data) = address(this).call(abi.encodeWithSelector(selector,x)) */\n      swap2\n      pop\n      swap2\n      pop\n        /* \"solidity/homework/functype.sol\":805:808  suc */\n      dup2\n        /* \"solidity/homework/functype.sol\":797:824  require(suc, \"call failed\") */\n      tag_54\n      jumpi\n      mload(0x40)\n      0x08c379a000000000000000000000000000000000000000000000000000000000\n      dup2\n      mstore\n      0x04\n      add\n      tag_55\n      swap1\n      tag_56\n      jump\t// in\n    tag_55:\n      mload(0x40)\n      dup1\n      swap2\n      sub\n      swap1\n      revert\n    tag_54:\n        /* \"solidity/homework/functype.sol\":850:854  data */\n      dup1\n        /* \"solidity/homework/functype.sol\":839:863  abi.decode(data, (uint)) */\n      dup1\n      0x20\n      add\n      swap1\n      mload\n      dup2\n      add\n      swap1\n      tag_57\n      swap2\n      swap1\n      tag_43\n      jump\t// in\n    tag_57:\n        /* \"solidity/homework/functype.sol\":835:863  z = abi.decode(data, (uint)) */\n      swap3\n      pop\n        /* \"solidity/homework/functype.sol\":689:873  {... */\n      pop\n      pop\n        /* \"solidity/homework/functype.sol\":617:873  function executeFunction(bytes4 selector, uint x) public returns(uint z){... */\n      swap3\n      swap2\n      pop\n      pop\n      jump\t// out\n        /* \"solidity/homework/functype.sol\":446:609  function double(uint x) public pure returns(uint, bytes4){... */\n    tag_30:\n        /* \"solidity/homework/functype.sol\":490:494  uint */\n      0x00\n        /* \"solidity/homework/functype.sol\":496:502  bytes4 */\n      dup1\n        /* \"solidity/homework/functype.sol\":514:529  bytes4 selector */\n      0x00\n        /* \"solidity/homework/functype.sol\":539:567  keccak256(\"double(uint256)\") */\n      0xeee972066698d890c32fec0edb38a360c32b71d0a29ffc75b6ab6d2774ec9901\n        /* \"solidity/homework/functype.sol\":514:568  bytes4 selector = bytes4(keccak256(\"double(uint256)\")) */\n      swap1\n      pop\n        /* \"solidity/homework/functype.sol\":589:590  2 */\n      0x02\n        /* \"solidity/homework/functype.sol\":587:588  x */\n      dup5\n        /* \"solidity/homework/functype.sol\":587:590  x*2 */\n      tag_59\n      swap2\n      swap1\n      tag_60\n      jump\t// in\n    tag_59:\n        /* \"solidity/homework/functype.sol\":592:600  selector */\n      dup2\n        /* \"solidity/homework/functype.sol\":579:601  return (x*2, selector) */\n      swap3\n      pop\n      swap3\n      pop\n      pop\n        /* \"solidity/homework/functype.sol\":446:609  function double(uint x) public pure returns(uint, bytes4){... */\n      swap2\n      pop\n      swap2\n      jump\t// out\n        /* \"#utility.yul\":88:205   */\n    tag_62:\n        /* \"#utility.yul\":197:198   */\n      0x00\n        /* \"#utility.yul\":194:195   */\n      dup1\n        /* \"#utility.yul\":187:199   */\n      revert\n        /* \"#utility.yul\":334:411   */\n    tag_64:\n        /* \"#utility.yul\":371:378   */\n      0x00\n        /* \"#utility.yul\":400:405   */\n      dup2\n        /* \"#utility.yul\":389:405   */\n      swap1\n      pop\n        /* \"#utility.yul\":334:411   */\n      swap2\n      swap1\n      pop\n      jump\t// out\n        /* \"#utility.yul\":417:539   */\n    tag_65:\n        /* \"#utility.yul\":490:514   */\n      tag_93\n        /* \"#utility.yul\":508:513   */\n      dup2\n        /* \"#utility.yul\":490:514   */\n      tag_64\n      jump\t// in\n    tag_93:\n        /* \"#utility.yul\":483:488   */\n      dup2\n        /* \"#utility.yul\":480:515   */\n      eq\n        /* \"#utility.yul\":470:533   */\n      tag_94\n      jumpi\n        /* \"#utility.yul\":529:530   */\n      0x00\n        /* \"#utility.yul\":526:527   */\n      dup1\n        /* \"#utility.yul\":519:531   */\n      revert\n        /* \"#utility.yul\":470:533   */\n    tag_94:\n        /* \"#utility.yul\":417:539   */\n      pop\n      jump\t// out\n        /* \"#utility.yul\":545:684   */\n    tag_66:\n        /* \"#utility.yul\":591:596   */\n      0x00\n        /* \"#utility.yul\":629:635   */\n      dup2\n        /* \"#utility.yul\":616:636   */\n      calldataload\n        /* \"#utility.yul\":607:636   */\n      swap1\n      pop\n        /* \"#utility.yul\":645:678   */\n      tag_96\n        /* \"#utility.yul\":672:677   */\n      dup2\n        /* \"#utility.yul\":645:678   */\n      tag_65\n      jump\t// in\n    tag_96:\n        /* \"#utility.yul\":545:684   */\n      swap3\n      swap2\n      pop\n      pop\n      jump\t// out\n        /* \"#utility.yul\":690:1019   */\n    tag_10:\n        /* \"#utility.yul\":749:755   */\n      0x00\n        /* \"#utility.yul\":798:800   */\n      0x20\n        /* \"#utility.yul\":786:795   */\n      dup3\n        /* \"#utility.yul\":777:784   */\n      dup5\n        /* \"#utility.yul\":773:796   */\n      sub\n        /* \"#utility.yul\":769:801   */\n      slt\n        /* \"#utility.yul\":766:885   */\n      iszero\n      tag_98\n      jumpi\n        /* \"#utility.yul\":804:883   */\n      tag_99\n      tag_62\n      jump\t// in\n    tag_99:\n        /* \"#utility.yul\":766:885   */\n    tag_98:\n        /* \"#utility.yul\":924:925   */\n      0x00\n        /* \"#utility.yul\":949:1002   */\n      tag_100\n        /* \"#utility.yul\":994:1001   */\n      dup5\n        /* \"#utility.yul\":985:991   */\n      dup3\n        /* \"#utility.yul\":974:983   */\n      dup6\n        /* \"#utility.yul\":970:992   */\n      add\n        /* \"#utility.yul\":949:1002   */\n      tag_66\n      jump\t// in\n    tag_100:\n        /* \"#utility.yul\":939:1002   */\n      swap2\n      pop\n        /* \"#utility.yul\":895:1012   */\n      pop\n        /* \"#utility.yul\":690:1019   */\n      swap3\n      swap2\n      pop\n      pop\n      jump\t// out\n        /* \"#utility.yul\":1025:1143   */\n    tag_67:\n        /* \"#utility.yul\":1112:1136   */\n      tag_102\n        /* \"#utility.yul\":1130:1135   */\n      dup2\n        /* \"#utility.yul\":1112:1136   */\n      tag_64\n      jump\t// in\n    tag_102:\n        /* \"#utility.yul\":1107:1110   */\n      dup3\n        /* \"#utility.yul\":1100:1137   */\n      mstore\n        /* \"#utility.yul\":1025:1143   */\n      pop\n      pop\n      jump\t// out\n        /* \"#utility.yul\":1149:1371   */\n    tag_13:\n        /* \"#utility.yul\":1242:1246   */\n      0x00\n        /* \"#utility.yul\":1280:1282   */\n      0x20\n        /* \"#utility.yul\":1269:1278   */\n      dup3\n        /* \"#utility.yul\":1265:1283   */\n      add\n        /* \"#utility.yul\":1257:1283   */\n      swap1\n      pop\n        /* \"#utility.yul\":1293:1364   */\n      tag_104\n        /* \"#utility.yul\":1361:1362   */\n      0x00\n        /* \"#utility.yul\":1350:1359   */\n      dup4\n        /* \"#utility.yul\":1346:1363   */\n      add\n        /* \"#utility.yul\":1337:1343   */\n      dup5\n        /* \"#utility.yul\":1293:1364   */\n      tag_67\n      jump\t// in\n    tag_104:\n        /* \"#utility.yul\":1149:1371   */\n      swap3\n      swap2\n      pop\n      pop\n      jump\t// out\n        /* \"#utility.yul\":1377:1526   */\n    tag_68:\n        /* \"#utility.yul\":1413:1420   */\n      0x00\n        /* \"#utility.yul\":1453:1519   */\n      0xffffffff00000000000000000000000000000000000000000000000000000000\n        /* \"#utility.yul\":1446:1451   */\n      dup3\n        /* \"#utility.yul\":1442:1520   */\n      and\n        /* \"#utility.yul\":1431:1520   */\n      swap1\n      pop\n        /* \"#utility.yul\":1377:1526   */\n      swap2\n      swap1\n      pop\n      jump\t// out\n        /* \"#utility.yul\":1532:1647   */\n    tag_69:\n        /* \"#utility.yul\":1617:1640   */\n      tag_107\n        /* \"#utility.yul\":1634:1639   */\n      dup2\n        /* \"#utility.yul\":1617:1640   */\n      tag_68\n      jump\t// in\n    tag_107:\n        /* \"#utility.yul\":1612:1615   */\n      dup3\n        /* \"#utility.yul\":1605:1641   */\n      mstore\n        /* \"#utility.yul\":1532:1647   */\n      pop\n      pop\n      jump\t// out\n        /* \"#utility.yul\":1653:1981   */\n    tag_18:\n        /* \"#utility.yul\":1772:1776   */\n      0x00\n        /* \"#utility.yul\":1810:1812   */\n      0x40\n        /* \"#utility.yul\":1799:1808   */\n      dup3\n        /* \"#utility.yul\":1795:1813   */\n      add\n        /* \"#utility.yul\":1787:1813   */\n      swap1\n      pop\n        /* \"#utility.yul\":1823:1894   */\n      tag_109\n        /* \"#utility.yul\":1891:1892   */\n      0x00\n        /* \"#utility.yul\":1880:1889   */\n      dup4\n        /* \"#utility.yul\":1876:1893   */\n      add\n        /* \"#utility.yul\":1867:1873   */\n      dup6\n        /* \"#utility.yul\":1823:1894   */\n      tag_67\n      jump\t// in\n    tag_109:\n        /* \"#utility.yul\":1904:1974   */\n      tag_110\n        /* \"#utility.yul\":1970:1972   */\n      0x20\n        /* \"#utility.yul\":1959:1968   */\n      dup4\n        /* \"#utility.yul\":1955:1973   */\n      add\n        /* \"#utility.yul\":1946:1952   */\n      dup5\n        /* \"#utility.yul\":1904:1974   */\n      tag_69\n      jump\t// in\n    tag_110:\n        /* \"#utility.yul\":1653:1981   */\n      swap4\n      swap3\n      pop\n      pop\n      pop\n      jump\t// out\n        /* \"#utility.yul\":1987:2107   */\n    tag_70:\n        /* \"#utility.yul\":2059:2082   */\n      tag_112\n        /* \"#utility.yul\":2076:2081   */\n      dup2\n        /* \"#utility.yul\":2059:2082   */\n      tag_68\n      jump\t// in\n    tag_112:\n        /* \"#utility.yul\":2052:2057   */\n      dup2\n        /* \"#utility.yul\":2049:2083   */\n      eq\n        /* \"#utility.yul\":2039:2101   */\n      tag_113\n      jumpi\n        /* \"#utility.yul\":2097:2098   */\n      0x00\n        /* \"#utility.yul\":2094:2095   */\n      dup1\n        /* \"#utility.yul\":2087:2099   */\n      revert\n        /* \"#utility.yul\":2039:2101   */\n    tag_113:\n        /* \"#utility.yul\":1987:2107   */\n      pop\n      jump\t// out\n        /* \"#utility.yul\":2113:2250   */\n    tag_71:\n        /* \"#utility.yul\":2158:2163   */\n      0x00\n        /* \"#utility.yul\":2196:2202   */\n      dup2\n        /* \"#utility.yul\":2183:2203   */\n      calldataload\n        /* \"#utility.yul\":2174:2203   */\n      swap1\n      pop\n        /* \"#utility.yul\":2212:2244   */\n      tag_115\n        /* \"#utility.yul\":2238:2243   */\n      dup2\n        /* \"#utility.yul\":2212:2244   */\n      tag_70\n      jump\t// in\n    tag_115:\n        /* \"#utility.yul\":2113:2250   */\n      swap3\n      swap2\n      pop\n      pop\n      jump\t// out\n        /* \"#utility.yul\":2256:2583   */\n    tag_21:\n        /* \"#utility.yul\":2314:2320   */\n      0x00\n        /* \"#utility.yul\":2363:2365   */\n      0x20\n        /* \"#utility.yul\":2351:2360   */\n      dup3\n        /* \"#utility.yul\":2342:2349   */\n      dup5\n        /* \"#utility.yul\":2338:2361   */\n      sub\n        /* \"#utility.yul\":2334:2366   */\n      slt\n        /* \"#utility.yul\":2331:2450   */\n      iszero\n      tag_117\n      jumpi\n        /* \"#utility.yul\":2369:2448   */\n      tag_118\n      tag_62\n      jump\t// in\n    tag_118:\n        /* \"#utility.yul\":2331:2450   */\n    tag_117:\n        /* \"#utility.yul\":2489:2490   */\n      0x00\n        /* \"#utility.yul\":2514:2566   */\n      tag_119\n        /* \"#utility.yul\":2558:2565   */\n      dup5\n        /* \"#utility.yul\":2549:2555   */\n      dup3\n        /* \"#utility.yul\":2538:2547   */\n      dup6\n        /* \"#utility.yul\":2534:2556   */\n      add\n        /* \"#utility.yul\":2514:2566   */\n      tag_71\n      jump\t// in\n    tag_119:\n        /* \"#utility.yul\":2504:2566   */\n      swap2\n      pop\n        /* \"#utility.yul\":2460:2576   */\n      pop\n        /* \"#utility.yul\":2256:2583   */\n      swap3\n      swap2\n      pop\n      pop\n      jump\t// out\n        /* \"#utility.yul\":2589:3061   */\n    tag_25:\n        /* \"#utility.yul\":2656:2662   */\n      0x00\n        /* \"#utility.yul\":2664:2670   */\n      dup1\n        /* \"#utility.yul\":2713:2715   */\n      0x40\n        /* \"#utility.yul\":2701:2710   */\n      dup4\n        /* \"#utility.yul\":2692:2699   */\n      dup6\n        /* \"#utility.yul\":2688:2711   */\n      sub\n        /* \"#utility.yul\":2684:2716   */\n      slt\n        /* \"#utility.yul\":2681:2800   */\n      iszero\n      tag_121\n      jumpi\n        /* \"#utility.yul\":2719:2798   */\n      tag_122\n      tag_62\n      jump\t// in\n    tag_122:\n        /* \"#utility.yul\":2681:2800   */\n    tag_121:\n        /* \"#utility.yul\":2839:2840   */\n      0x00\n        /* \"#utility.yul\":2864:2916   */\n      tag_123\n        /* \"#utility.yul\":2908:2915   */\n      dup6\n        /* \"#utility.yul\":2899:2905   */\n      dup3\n        /* \"#utility.yul\":2888:2897   */\n      dup7\n        /* \"#utility.yul\":2884:2906   */\n      add\n        /* \"#utility.yul\":2864:2916   */\n      tag_71\n      jump\t// in\n    tag_123:\n        /* \"#utility.yul\":2854:2916   */\n      swap3\n      pop\n        /* \"#utility.yul\":2810:2926   */\n      pop\n        /* \"#utility.yul\":2965:2967   */\n      0x20\n        /* \"#utility.yul\":2991:3044   */\n      tag_124\n        /* \"#utility.yul\":3036:3043   */\n      dup6\n        /* \"#utility.yul\":3027:3033   */\n      dup3\n        /* \"#utility.yul\":3016:3025   */\n      dup7\n        /* \"#utility.yul\":3012:3034   */\n      add\n        /* \"#utility.yul\":2991:3044   */\n      tag_66\n      jump\t// in\n    tag_124:\n        /* \"#utility.yul\":2981:3044   */\n      swap2\n      pop\n        /* \"#utility.yul\":2936:3054   */\n      pop\n        /* \"#utility.yul\":2589:3061   */\n      swap3\n      pop\n      swap3\n      swap1\n      pop\n      jump\t// out\n        /* \"#utility.yul\":3067:3165   */\n    tag_72:\n        /* \"#utility.yul\":3118:3124   */\n      0x00\n        /* \"#utility.yul\":3152:3157   */\n      dup2\n        /* \"#utility.yul\":3146:3158   */\n      mload\n        /* \"#utility.yul\":3136:3158   */\n      swap1\n      pop\n        /* \"#utility.yul\":3067:3165   */\n      swap2\n      swap1\n      pop\n      jump\t// out\n        /* \"#utility.yul\":3171:3318   */\n    tag_73:\n        /* \"#utility.yul\":3272:3283   */\n      0x00\n        /* \"#utility.yul\":3309:3312   */\n      dup2\n        /* \"#utility.yul\":3294:3312   */\n      swap1\n      pop\n        /* \"#utility.yul\":3171:3318   */\n      swap3\n      swap2\n      pop\n      pop\n      jump\t// out\n        /* \"#utility.yul\":3324:3463   */\n    tag_74:\n        /* \"#utility.yul\":3413:3419   */\n      dup3\n        /* \"#utility.yul\":3408:3411   */\n      dup2\n        /* \"#utility.yul\":3403:3406   */\n      dup4\n        /* \"#utility.yul\":3397:3420   */\n      mcopy\n        /* \"#utility.yul\":3454:3455   */\n      0x00\n        /* \"#utility.yul\":3445:3451   */\n      dup4\n        /* \"#utility.yul\":3440:3443   */\n      dup4\n        /* \"#utility.yul\":3436:3452   */\n      add\n        /* \"#utility.yul\":3429:3456   */\n      mstore\n        /* \"#utility.yul\":3324:3463   */\n      pop\n      pop\n      pop\n      jump\t// out\n        /* \"#utility.yul\":3469:3855   */\n    tag_75:\n        /* \"#utility.yul\":3573:3576   */\n      0x00\n        /* \"#utility.yul\":3601:3639   */\n      tag_129\n        /* \"#utility.yul\":3633:3638   */\n      dup3\n        /* \"#utility.yul\":3601:3639   */\n      tag_72\n      jump\t// in\n    tag_129:\n        /* \"#utility.yul\":3655:3743   */\n      tag_130\n        /* \"#utility.yul\":3736:3742   */\n      dup2\n        /* \"#utility.yul\":3731:3734   */\n      dup6\n        /* \"#utility.yul\":3655:3743   */\n      tag_73\n      jump\t// in\n    tag_130:\n        /* \"#utility.yul\":3648:3743   */\n      swap4\n      pop\n        /* \"#utility.yul\":3752:3817   */\n      tag_131\n        /* \"#utility.yul\":3810:3816   */\n      dup2\n        /* \"#utility.yul\":3805:3808   */\n      dup6\n        /* \"#utility.yul\":3798:3802   */\n      0x20\n        /* \"#utility.yul\":3791:3796   */\n      dup7\n        /* \"#utility.yul\":3787:3803   */\n      add\n        /* \"#utility.yul\":3752:3817   */\n      tag_74\n      jump\t// in\n    tag_131:\n        /* \"#utility.yul\":3842:3848   */\n      dup1\n        /* \"#utility.yul\":3837:3840   */\n      dup5\n        /* \"#utility.yul\":3833:3849   */\n      add\n        /* \"#utility.yul\":3826:3849   */\n      swap2\n      pop\n        /* \"#utility.yul\":3577:3855   */\n      pop\n        /* \"#utility.yul\":3469:3855   */\n      swap3\n      swap2\n      pop\n      pop\n      jump\t// out\n        /* \"#utility.yul\":3861:4132   */\n    tag_35:\n        /* \"#utility.yul\":3991:3994   */\n      0x00\n        /* \"#utility.yul\":4013:4106   */\n      tag_133\n        /* \"#utility.yul\":4102:4105   */\n      dup3\n        /* \"#utility.yul\":4093:4099   */\n      dup5\n        /* \"#utility.yul\":4013:4106   */\n      tag_75\n      jump\t// in\n    tag_133:\n        /* \"#utility.yul\":4006:4106   */\n      swap2\n      pop\n        /* \"#utility.yul\":4123:4126   */\n      dup2\n        /* \"#utility.yul\":4116:4126   */\n      swap1\n      pop\n        /* \"#utility.yul\":3861:4132   */\n      swap3\n      swap2\n      pop\n      pop\n      jump\t// out\n        /* \"#utility.yul\":4138:4307   */\n    tag_76:\n        /* \"#utility.yul\":4222:4233   */\n      0x00\n        /* \"#utility.yul\":4256:4262   */\n      dup3\n        /* \"#utility.yul\":4251:4254   */\n      dup3\n        /* \"#utility.yul\":4244:4263   */\n      mstore\n        /* \"#utility.yul\":4296:4300   */\n      0x20\n        /* \"#utility.yul\":4291:4294   */\n      dup3\n        /* \"#utility.yul\":4287:4301   */\n      add\n        /* \"#utility.yul\":4272:4301   */\n      swap1\n      pop\n        /* \"#utility.yul\":4138:4307   */\n      swap3\n      swap2\n      pop\n      pop\n      jump\t// out\n        /* \"#utility.yul\":4313:4477   */\n    tag_77:\n        /* \"#utility.yul\":4453:4469   */\n      0x65786563757465206661696c6564000000000000000000000000000000000000\n        /* \"#utility.yul\":4449:4450   */\n      0x00\n        /* \"#utility.yul\":4441:4447   */\n      dup3\n        /* \"#utility.yul\":4437:4451   */\n      add\n        /* \"#utility.yul\":4430:4470   */\n      mstore\n        /* \"#utility.yul\":4313:4477   */\n      pop\n      jump\t// out\n        /* \"#utility.yul\":4483:4849   */\n    tag_78:\n        /* \"#utility.yul\":4625:4628   */\n      0x00\n        /* \"#utility.yul\":4646:4713   */\n      tag_137\n        /* \"#utility.yul\":4710:4712   */\n      0x0e\n        /* \"#utility.yul\":4705:4708   */\n      dup4\n        /* \"#utility.yul\":4646:4713   */\n      tag_76\n      jump\t// in\n    tag_137:\n        /* \"#utility.yul\":4639:4713   */\n      swap2\n      pop\n        /* \"#utility.yul\":4722:4815   */\n      tag_138\n        /* \"#utility.yul\":4811:4814   */\n      dup3\n        /* \"#utility.yul\":4722:4815   */\n      tag_77\n      jump\t// in\n    tag_138:\n        /* \"#utility.yul\":4840:4842   */\n      0x20\n        /* \"#utility.yul\":4835:4838   */\n      dup3\n        /* \"#utility.yul\":4831:4843   */\n      add\n        /* \"#utility.yul\":4824:4843   */\n      swap1\n      pop\n        /* \"#utility.yul\":4483:4849   */\n      swap2\n      swap1\n      pop\n      jump\t// out\n        /* \"#utility.yul\":4855:5274   */\n    tag_41:\n        /* \"#utility.yul\":5021:5025   */\n      0x00\n        /* \"#utility.yul\":5059:5061   */\n      0x20\n        /* \"#utility.yul\":5048:5057   */\n      dup3\n        /* \"#utility.yul\":5044:5062   */\n      add\n        /* \"#utility.yul\":5036:5062   */\n      swap1\n      pop\n        /* \"#utility.yul\":5108:5117   */\n      dup2\n        /* \"#utility.yul\":5102:5106   */\n      dup2\n        /* \"#utility.yul\":5098:5118   */\n      sub\n        /* \"#utility.yul\":5094:5095   */\n      0x00\n        /* \"#utility.yul\":5083:5092   */\n      dup4\n        /* \"#utility.yul\":5079:5096   */\n      add\n        /* \"#utility.yul\":5072:5119   */\n      mstore\n        /* \"#utility.yul\":5136:5267   */\n      tag_140\n        /* \"#utility.yul\":5262:5266   */\n      dup2\n        /* \"#utility.yul\":5136:5267   */\n      tag_78\n      jump\t// in\n    tag_140:\n        /* \"#utility.yul\":5128:5267   */\n      swap1\n      pop\n        /* \"#utility.yul\":4855:5274   */\n      swap2\n      swap1\n      pop\n      jump\t// out\n        /* \"#utility.yul\":5280:5423   */\n    tag_79:\n        /* \"#utility.yul\":5337:5342   */\n      0x00\n        /* \"#utility.yul\":5368:5374   */\n      dup2\n        /* \"#utility.yul\":5362:5375   */\n      mload\n        /* \"#utility.yul\":5353:5375   */\n      swap1\n      pop\n        /* \"#utility.yul\":5384:5417   */\n      tag_142\n        /* \"#utility.yul\":5411:5416   */\n      dup2\n        /* \"#utility.yul\":5384:5417   */\n      tag_65\n      jump\t// in\n    tag_142:\n        /* \"#utility.yul\":5280:5423   */\n      swap3\n      swap2\n      pop\n      pop\n      jump\t// out\n        /* \"#utility.yul\":5429:5780   */\n    tag_43:\n        /* \"#utility.yul\":5499:5505   */\n      0x00\n        /* \"#utility.yul\":5548:5550   */\n      0x20\n        /* \"#utility.yul\":5536:5545   */\n      dup3\n        /* \"#utility.yul\":5527:5534   */\n      dup5\n        /* \"#utility.yul\":5523:5546   */\n      sub\n        /* \"#utility.yul\":5519:5551   */\n      slt\n        /* \"#utility.yul\":5516:5635   */\n      iszero\n      tag_144\n      jumpi\n        /* \"#utility.yul\":5554:5633   */\n      tag_145\n      tag_62\n      jump\t// in\n    tag_145:\n        /* \"#utility.yul\":5516:5635   */\n    tag_144:\n        /* \"#utility.yul\":5674:5675   */\n      0x00\n        /* \"#utility.yul\":5699:5763   */\n      tag_146\n        /* \"#utility.yul\":5755:5762   */\n      dup5\n        /* \"#utility.yul\":5746:5752   */\n      dup3\n        /* \"#utility.yul\":5735:5744   */\n      dup6\n        /* \"#utility.yul\":5731:5753   */\n      add\n        /* \"#utility.yul\":5699:5763   */\n      tag_79\n      jump\t// in\n    tag_146:\n        /* \"#utility.yul\":5689:5763   */\n      swap2\n      pop\n        /* \"#utility.yul\":5645:5773   */\n      pop\n        /* \"#utility.yul\":5429:5780   */\n      swap3\n      swap2\n      pop\n      pop\n      jump\t// out\n        /* \"#utility.yul\":5786:5966   */\n    tag_80:\n        /* \"#utility.yul\":5834:5911   */\n      0x4e487b7100000000000000000000000000000000000000000000000000000000\n        /* \"#utility.yul\":5831:5832   */\n      0x00\n        /* \"#utility.yul\":5824:5912   */\n      mstore\n        /* \"#utility.yul\":5931:5935   */\n      0x11\n        /* \"#utility.yul\":5928:5929   */\n      0x04\n        /* \"#utility.yul\":5921:5936   */\n      mstore\n        /* \"#utility.yul\":5955:5959   */\n      0x24\n        /* \"#utility.yul\":5952:5953   */\n      0x00\n        /* \"#utility.yul\":5945:5960   */\n      revert\n        /* \"#utility.yul\":5972:6074   */\n    tag_81:\n        /* \"#utility.yul\":6014:6022   */\n      0x00\n        /* \"#utility.yul\":6061:6066   */\n      dup2\n        /* \"#utility.yul\":6058:6059   */\n      0x01\n        /* \"#utility.yul\":6054:6067   */\n      shr\n        /* \"#utility.yul\":6033:6067   */\n      swap1\n      pop\n        /* \"#utility.yul\":5972:6074   */\n      swap2\n      swap1\n      pop\n      jump\t// out\n        /* \"#utility.yul\":6080:6928   */\n    tag_82:\n        /* \"#utility.yul\":6141:6146   */\n      0x00\n        /* \"#utility.yul\":6148:6152   */\n      dup1\n        /* \"#utility.yul\":6172:6178   */\n      dup3\n        /* \"#utility.yul\":6163:6178   */\n      swap2\n      pop\n        /* \"#utility.yul\":6196:6201   */\n      dup4\n        /* \"#utility.yul\":6187:6201   */\n      swap1\n      pop\n        /* \"#utility.yul\":6210:6922   */\n    tag_150:\n        /* \"#utility.yul\":6231:6232   */\n      0x01\n        /* \"#utility.yul\":6221:6229   */\n      dup6\n        /* \"#utility.yul\":6218:6233   */\n      gt\n        /* \"#utility.yul\":6210:6922   */\n      iszero\n      tag_152\n      jumpi\n        /* \"#utility.yul\":6326:6330   */\n      dup1\n        /* \"#utility.yul\":6321:6324   */\n      dup7\n        /* \"#utility.yul\":6317:6331   */\n      div\n        /* \"#utility.yul\":6311:6315   */\n      dup2\n        /* \"#utility.yul\":6308:6332   */\n      gt\n        /* \"#utility.yul\":6305:6355   */\n      iszero\n      tag_153\n      jumpi\n        /* \"#utility.yul\":6335:6353   */\n      tag_154\n      tag_80\n      jump\t// in\n    tag_154:\n        /* \"#utility.yul\":6305:6355   */\n    tag_153:\n        /* \"#utility.yul\":6385:6386   */\n      0x01\n        /* \"#utility.yul\":6375:6383   */\n      dup6\n        /* \"#utility.yul\":6371:6387   */\n      and\n        /* \"#utility.yul\":6368:6819   */\n      iszero\n      tag_155\n      jumpi\n        /* \"#utility.yul\":6800:6804   */\n      dup1\n        /* \"#utility.yul\":6793:6798   */\n      dup3\n        /* \"#utility.yul\":6789:6805   */\n      mul\n        /* \"#utility.yul\":6780:6805   */\n      swap2\n      pop\n        /* \"#utility.yul\":6368:6819   */\n    tag_155:\n        /* \"#utility.yul\":6850:6854   */\n      dup1\n        /* \"#utility.yul\":6844:6848   */\n      dup2\n        /* \"#utility.yul\":6840:6855   */\n      mul\n        /* \"#utility.yul\":6832:6855   */\n      swap1\n      pop\n        /* \"#utility.yul\":6880:6912   */\n      tag_156\n        /* \"#utility.yul\":6903:6911   */\n      dup6\n        /* \"#utility.yul\":6880:6912   */\n      tag_81\n      jump\t// in\n    tag_156:\n        /* \"#utility.yul\":6868:6912   */\n      swap5\n      pop\n        /* \"#utility.yul\":6210:6922   */\n      jump(tag_150)\n    tag_152:\n        /* \"#utility.yul\":6080:6928   */\n      swap5\n      pop\n      swap5\n      swap3\n      pop\n      pop\n      pop\n      jump\t// out\n        /* \"#utility.yul\":6934:8007   */\n    tag_83:\n        /* \"#utility.yul\":6988:6993   */\n      0x00\n        /* \"#utility.yul\":7179:7187   */\n      dup3\n        /* \"#utility.yul\":7169:7209   */\n      tag_158\n      jumpi\n        /* \"#utility.yul\":7200:7201   */\n      0x01\n        /* \"#utility.yul\":7191:7201   */\n      swap1\n      pop\n        /* \"#utility.yul\":7202:7207   */\n      jump(tag_157)\n        /* \"#utility.yul\":7169:7209   */\n    tag_158:\n        /* \"#utility.yul\":7228:7232   */\n      dup2\n        /* \"#utility.yul\":7218:7254   */\n      tag_159\n      jumpi\n        /* \"#utility.yul\":7245:7246   */\n      0x00\n        /* \"#utility.yul\":7236:7246   */\n      swap1\n      pop\n        /* \"#utility.yul\":7247:7252   */\n      jump(tag_157)\n        /* \"#utility.yul\":7218:7254   */\n    tag_159:\n        /* \"#utility.yul\":7314:7318   */\n      dup2\n        /* \"#utility.yul\":7362:7363   */\n      0x01\n        /* \"#utility.yul\":7357:7384   */\n      dup2\n      eq\n      tag_161\n      jumpi\n        /* \"#utility.yul\":7398:7399   */\n      0x02\n        /* \"#utility.yul\":7393:7584   */\n      dup2\n      eq\n      tag_162\n      jumpi\n        /* \"#utility.yul\":7307:7584   */\n      jump(tag_160)\n        /* \"#utility.yul\":7357:7384   */\n    tag_161:\n        /* \"#utility.yul\":7375:7376   */\n      0x01\n        /* \"#utility.yul\":7366:7376   */\n      swap2\n      pop\n        /* \"#utility.yul\":7377:7382   */\n      pop\n      jump(tag_157)\n        /* \"#utility.yul\":7393:7584   */\n    tag_162:\n        /* \"#utility.yul\":7438:7441   */\n      0xff\n        /* \"#utility.yul\":7428:7436   */\n      dup5\n        /* \"#utility.yul\":7425:7442   */\n      gt\n        /* \"#utility.yul\":7422:7465   */\n      iszero\n      tag_163\n      jumpi\n        /* \"#utility.yul\":7445:7463   */\n      tag_164\n      tag_80\n      jump\t// in\n    tag_164:\n        /* \"#utility.yul\":7422:7465   */\n    tag_163:\n        /* \"#utility.yul\":7494:7502   */\n      dup4\n        /* \"#utility.yul\":7491:7492   */\n      0x02\n        /* \"#utility.yul\":7487:7503   */\n      exp\n        /* \"#utility.yul\":7478:7503   */\n      swap2\n      pop\n        /* \"#utility.yul\":7529:7532   */\n      dup5\n        /* \"#utility.yul\":7522:7527   */\n      dup3\n        /* \"#utility.yul\":7519:7533   */\n      gt\n        /* \"#utility.yul\":7516:7556   */\n      iszero\n      tag_165\n      jumpi\n        /* \"#utility.yul\":7536:7554   */\n      tag_166\n      tag_80\n      jump\t// in\n    tag_166:\n        /* \"#utility.yul\":7516:7556   */\n    tag_165:\n        /* \"#utility.yul\":7569:7574   */\n      pop\n      jump(tag_157)\n        /* \"#utility.yul\":7307:7584   */\n    tag_160:\n      pop\n        /* \"#utility.yul\":7693:7695   */\n      0x20\n        /* \"#utility.yul\":7683:7691   */\n      dup4\n        /* \"#utility.yul\":7680:7696   */\n      lt\n        /* \"#utility.yul\":7674:7677   */\n      0x0133\n        /* \"#utility.yul\":7668:7672   */\n      dup4\n        /* \"#utility.yul\":7665:7678   */\n      lt\n        /* \"#utility.yul\":7661:7697   */\n      and\n        /* \"#utility.yul\":7643:7645   */\n      0x4e\n        /* \"#utility.yul\":7633:7641   */\n      dup5\n        /* \"#utility.yul\":7630:7646   */\n      lt\n        /* \"#utility.yul\":7625:7627   */\n      0x0b\n        /* \"#utility.yul\":7619:7623   */\n      dup5\n        /* \"#utility.yul\":7616:7628   */\n      lt\n        /* \"#utility.yul\":7612:7647   */\n      and\n        /* \"#utility.yul\":7596:7707   */\n      or\n        /* \"#utility.yul\":7593:7839   */\n      iszero\n      tag_167\n      jumpi\n        /* \"#utility.yul\":7749:7757   */\n      dup3\n        /* \"#utility.yul\":7743:7747   */\n      dup3\n        /* \"#utility.yul\":7739:7758   */\n      exp\n        /* \"#utility.yul\":7730:7758   */\n      swap1\n      pop\n        /* \"#utility.yul\":7784:7787   */\n      dup4\n        /* \"#utility.yul\":7777:7782   */\n      dup2\n        /* \"#utility.yul\":7774:7788   */\n      gt\n        /* \"#utility.yul\":7771:7811   */\n      iszero\n      tag_168\n      jumpi\n        /* \"#utility.yul\":7791:7809   */\n      tag_169\n      tag_80\n      jump\t// in\n    tag_169:\n        /* \"#utility.yul\":7771:7811   */\n    tag_168:\n        /* \"#utility.yul\":7824:7829   */\n      jump(tag_157)\n        /* \"#utility.yul\":7593:7839   */\n    tag_167:\n        /* \"#utility.yul\":7864:7906   */\n      tag_170\n        /* \"#utility.yul\":7902:7905   */\n      dup5\n        /* \"#utility.yul\":7892:7900   */\n      dup5\n        /* \"#utility.yul\":7886:7890   */\n      dup5\n        /* \"#utility.yul\":7883:7884   */\n      0x01\n        /* \"#utility.yul\":7864:7906   */\n      tag_82\n      jump\t// in\n    tag_170:\n        /* \"#utility.yul\":7849:7906   */\n      swap3\n      pop\n      swap1\n      pop\n        /* \"#utility.yul\":7938:7942   */\n      dup2\n        /* \"#utility.yul\":7933:7936   */\n      dup5\n        /* \"#utility.yul\":7929:7943   */\n      div\n        /* \"#utility.yul\":7922:7927   */\n      dup2\n        /* \"#utility.yul\":7919:7944   */\n      gt\n        /* \"#utility.yul\":7916:7967   */\n      iszero\n      tag_171\n      jumpi\n        /* \"#utility.yul\":7947:7965   */\n      tag_172\n      tag_80\n      jump\t// in\n    tag_172:\n        /* \"#utility.yul\":7916:7967   */\n    tag_171:\n        /* \"#utility.yul\":7996:8000   */\n      dup2\n        /* \"#utility.yul\":7989:7994   */\n      dup2\n        /* \"#utility.yul\":7985:8001   */\n      mul\n        /* \"#utility.yul\":7976:8001   */\n      swap1\n      pop\n        /* \"#utility.yul\":6934:8007   */\n    tag_157:\n      swap4\n      swap3\n      pop\n      pop\n      pop\n      jump\t// out\n        /* \"#utility.yul\":8013:8099   */\n    tag_84:\n        /* \"#utility.yul\":8048:8055   */\n      0x00\n        /* \"#utility.yul\":8088:8092   */\n      0xff\n        /* \"#utility.yul\":8081:8086   */\n      dup3\n        /* \"#utility.yul\":8077:8093   */\n      and\n        /* \"#utility.yul\":8066:8093   */\n      swap1\n      pop\n        /* \"#utility.yul\":8013:8099   */\n      swap2\n      swap1\n      pop\n      jump\t// out\n        /* \"#utility.yul\":8105:8386   */\n    tag_46:\n        /* \"#utility.yul\":8163:8168   */\n      0x00\n        /* \"#utility.yul\":8187:8210   */\n      tag_175\n        /* \"#utility.yul\":8205:8209   */\n      dup3\n        /* \"#utility.yul\":8187:8210   */\n      tag_64\n      jump\t// in\n    tag_175:\n        /* \"#utility.yul\":8179:8210   */\n      swap2\n      pop\n        /* \"#utility.yul\":8231:8256   */\n      tag_176\n        /* \"#utility.yul\":8247:8255   */\n      dup4\n        /* \"#utility.yul\":8231:8256   */\n      tag_84\n      jump\t// in\n    tag_176:\n        /* \"#utility.yul\":8219:8256   */\n      swap3\n      pop\n        /* \"#utility.yul\":8275:8379   */\n      tag_177\n        /* \"#utility.yul\":8312:8378   */\n      0xffffffffffffffffffffffffffffffffffffffffffffffffffffffffffffffff\n        /* \"#utility.yul\":8302:8310   */\n      dup5\n        /* \"#utility.yul\":8296:8300   */\n      dup5\n        /* \"#utility.yul\":8275:8379   */\n      tag_83\n      jump\t// in\n    tag_177:\n        /* \"#utility.yul\":8266:8379   */\n      swap1\n      pop\n        /* \"#utility.yul\":8105:8386   */\n      swap3\n      swap2\n      pop\n      pop\n      jump\t// out\n        /* \"#utility.yul\":8392:8553   */\n    tag_85:\n        /* \"#utility.yul\":8532:8545   */\n      0x63616c6c206661696c6564000000000000000000000000000000000000000000\n        /* \"#utility.yul\":8528:8529   */\n      0x00\n        /* \"#utility.yul\":8520:8526   */\n      dup3\n        /* \"#utility.yul\":8516:8530   */\n      add\n        /* \"#utility.yul\":8509:8546   */\n      mstore\n        /* \"#utility.yul\":8392:8553   */\n      pop\n      jump\t// out\n        /* \"#utility.yul\":8559:8925   */\n    tag_86:\n        /* \"#utility.yul\":8701:8704   */\n      0x00\n        /* \"#utility.yul\":8722:8789   */\n      tag_180\n        /* \"#utility.yul\":8786:8788   */\n      0x0b\n        /* \"#utility.yul\":8781:8784   */\n      dup4\n        /* \"#utility.yul\":8722:8789   */\n      tag_76\n      jump\t// in\n    tag_180:\n        /* \"#utility.yul\":8715:8789   */\n      swap2\n      pop\n        /* \"#utility.yul\":8798:8891   */\n      tag_181\n        /* \"#utility.yul\":8887:8890   */\n      dup3\n        /* \"#utility.yul\":8798:8891   */\n      tag_85\n      jump\t// in\n    tag_181:\n        /* \"#utility.yul\":8916:8918   */\n      0x20\n        /* \"#utility.yul\":8911:8914   */\n      dup3\n        /* \"#utility.yul\":8907:8919   */\n      add\n        /* \"#utility.yul\":8900:8919   */\n      swap1\n      pop\n        /* \"#utility.yul\":8559:8925   */\n      swap2\n      swap1\n      pop\n      jump\t// out\n        /* \"#utility.yul\":8931:9350   */\n    tag_56:\n        /* \"#utility.yul\":9097:9101   */\n      0x00\n        /* \"#utility.yul\":9135:9137   */\n      0x20\n        /* \"#utility.yul\":9124:9133   */\n      dup3\n        /* \"#utility.yul\":9120:9138   */\n      add\n        /* \"#utility.yul\":9112:9138   */\n      swap1\n      pop\n        /* \"#utility.yul\":9184:9193   */\n      dup2\n        /* \"#utility.yul\":9178:9182   */\n      dup2\n        /* \"#utility.yul\":9174:9194   */\n      sub\n        /* \"#utility.yul\":9170:9171   */\n      0x00\n        /* \"#utility.yul\":9159:9168   */\n      dup4\n        /* \"#utility.yul\":9155:9172   */\n      add\n        /* \"#utility.yul\":9148:9195   */\n      mstore\n        /* \"#utility.yul\":9212:9343   */\n      tag_183\n        /* \"#utility.yul\":9338:9342   */\n      dup2\n        /* \"#utility.yul\":9212:9343   */\n      tag_86\n      jump\t// in\n    tag_183:\n        /* \"#utility.yul\":9204:9343   */\n      swap1\n      pop\n        /* \"#utility.yul\":8931:9350   */\n      swap2\n      swap1\n      pop\n      jump\t// out\n        /* \"#utility.yul\":9356:9766   */\n    tag_60:\n        /* \"#utility.yul\":9396:9403   */\n      0x00\n        /* \"#utility.yul\":9419:9439   */\n      tag_185\n        /* \"#utility.yul\":9437:9438   */\n      dup3\n        /* \"#utility.yul\":9419:9439   */\n      tag_64\n      jump\t// in\n    tag_185:\n        /* \"#utility.yul\":9414:9439   */\n      swap2\n      pop\n        /* \"#utility.yul\":9453:9473   */\n      tag_186\n        /* \"#utility.yul\":9471:9472   */\n      dup4\n        /* \"#utility.yul\":9453:9473   */\n      tag_64\n      jump\t// in\n    tag_186:\n        /* \"#utility.yul\":9448:9473   */\n      swap3\n      pop\n        /* \"#utility.yul\":9508:9509   */\n      dup3\n        /* \"#utility.yul\":9505:9506   */\n      dup3\n        /* \"#utility.yul\":9501:9510   */\n      mul\n        /* \"#utility.yul\":9530:9560   */\n      tag_187\n        /* \"#utility.yul\":9548:9559   */\n      dup2\n        /* \"#utility.yul\":9530:9560   */\n      tag_64\n      jump\t// in\n    tag_187:\n        /* \"#utility.yul\":9519:9560   */\n      swap2\n      pop\n        /* \"#utility.yul\":9709:9710   */\n      dup3\n        /* \"#utility.yul\":9700:9707   */\n      dup3\n        /* \"#utility.yul\":9696:9711   */\n      div\n        /* \"#utility.yul\":9693:9694   */\n      dup5\n        /* \"#utility.yul\":9690:9712   */\n      eq\n        /* \"#utility.yul\":9670:9671   */\n      dup4\n        /* \"#utility.yul\":9663:9672   */\n      iszero\n        /* \"#utility.yul\":9643:9726   */\n      or\n        /* \"#utility.yul\":9620:9759   */\n      tag_188\n      jumpi\n        /* \"#utility.yul\":9739:9757   */\n      tag_189\n      tag_80\n      jump\t// in\n    tag_189:\n        /* \"#utility.yul\":9620:9759   */\n    tag_188:\n        /* \"#utility.yul\":9404:9766   */\n      pop\n        /* \"#utility.yul\":9356:9766   */\n      swap3\n      swap2\n      pop\n      pop\n      jump\t// out\n\n    auxdata: 0xa2646970667358221220d4f4ea408c4bc72fb8708a1c22a99169b03cd0ad51ec8ce99e01ef5d5a1682a164736f6c634300081a0033\n}\n",
				"bytecode": {
					"linkReferences": {},
					"object": "6080604052348015600e575f80fd5b506109798061001c5f395ff3fe608060405234801561000f575f80fd5b5060043610610055575f3560e01c80630d72997c146100595780637b292909146100895780638d10ff0c146100ba578063a25f4d31146100d6578063eee9720614610106575b5f80fd5b610073600480360381019061006e9190610482565b610137565b60405161008091906104bc565b60405180910390f35b6100a3600480360381019061009e9190610482565b610279565b6040516100b192919061050f565b60405180910390f35b6100d460048036038101906100cf9190610560565b6102b7565b005b6100f060048036038101906100eb919061058b565b6102d6565b6040516100fd91906104bc565b60405180910390f35b610120600480360381019061011b9190610482565b61040d565b60405161012e92919061050f565b60405180910390f35b5f805f3073ffffffffffffffffffffffffffffffffffffffff165f8054906101000a900460e01b8560405160240161016f91906104bc565b604051602081830303815290604052907bffffffffffffffffffffffffffffffffffffffffffffffffffffffff19166020820180517bffffffffffffffffffffffffffffffffffffffffffffffffffffffff83818316178352505050506040516101d9919061061b565b5f604051808303815f865af19150503d805f8114610212576040519150601f19603f3d011682016040523d82523d5f602084013e610217565b606091505b50915091508161025c576040517f08c379a00000000000000000000000000000000000000000000000000000000081526004016102539061068b565b60405180910390fd5b8080602001905181019061027091906106bd565b92505050919050565b5f805f7f7b292909f05611b33f30e48b9bb89ac938faa24dcfa7a9c135aa6624f6a9c1e890506002846102ac9190610850565b819250925050915091565b805f806101000a81548163ffffffff021916908360e01c021790555050565b5f805f3073ffffffffffffffffffffffffffffffffffffffff16858560405160240161030291906104bc565b604051602081830303815290604052907bffffffffffffffffffffffffffffffffffffffffffffffffffffffff19166020820180517bffffffffffffffffffffffffffffffffffffffffffffffffffffffff838183161783525050505060405161036c919061061b565b5f604051808303815f865af19150503d805f81146103a5576040519150601f19603f3d011682016040523d82523d5f602084013e6103aa565b606091505b5091509150816103ef576040517f08c379a00000000000000000000000000000000000000000000000000000000081526004016103e6906108e4565b60405180910390fd5b8080602001905181019061040391906106bd565b9250505092915050565b5f805f7feee972066698d890c32fec0edb38a360c32b71d0a29ffc75b6ab6d2774ec990190506002846104409190610902565b819250925050915091565b5f80fd5b5f819050919050565b6104618161044f565b811461046b575f80fd5b50565b5f8135905061047c81610458565b92915050565b5f602082840312156104975761049661044b565b5b5f6104a48482850161046e565b91505092915050565b6104b68161044f565b82525050565b5f6020820190506104cf5f8301846104ad565b92915050565b5f7fffffffff0000000000000000000000000000000000000000000000000000000082169050919050565b610509816104d5565b82525050565b5f6040820190506105225f8301856104ad565b61052f6020830184610500565b9392505050565b61053f816104d5565b8114610549575f80fd5b50565b5f8135905061055a81610536565b92915050565b5f602082840312156105755761057461044b565b5b5f6105828482850161054c565b91505092915050565b5f80604083850312156105a1576105a061044b565b5b5f6105ae8582860161054c565b92505060206105bf8582860161046e565b9150509250929050565b5f81519050919050565b5f81905092915050565b8281835e5f83830152505050565b5f6105f5826105c9565b6105ff81856105d3565b935061060f8185602086016105dd565b80840191505092915050565b5f61062682846105eb565b915081905092915050565b5f82825260208201905092915050565b7f65786563757465206661696c65640000000000000000000000000000000000005f82015250565b5f610675600e83610631565b915061068082610641565b602082019050919050565b5f6020820190508181035f8301526106a281610669565b9050919050565b5f815190506106b781610458565b92915050565b5f602082840312156106d2576106d161044b565b5b5f6106df848285016106a9565b91505092915050565b7f4e487b71000000000000000000000000000000000000000000000000000000005f52601160045260245ffd5b5f8160011c9050919050565b5f808291508390505b600185111561076a57808604811115610746576107456106e8565b5b60018516156107555780820291505b808102905061076385610715565b945061072a565b94509492505050565b5f82610782576001905061083d565b8161078f575f905061083d565b81600181146107a557600281146107af576107de565b600191505061083d565b60ff8411156107c1576107c06106e8565b5b8360020a9150848211156107d8576107d76106e8565b5b5061083d565b5060208310610133831016604e8410600b84101617156108135782820a90508381111561080e5761080d6106e8565b5b61083d565b6108208484846001610721565b92509050818404811115610837576108366106e8565b5b81810290505b9392505050565b5f60ff82169050919050565b5f61085a8261044f565b915061086583610844565b92506108927fffffffffffffffffffffffffffffffffffffffffffffffffffffffffffffffff8484610773565b905092915050565b7f63616c6c206661696c65640000000000000000000000000000000000000000005f82015250565b5f6108ce600b83610631565b91506108d98261089a565b602082019050919050565b5f6020820190508181035f8301526108fb816108c2565b9050919050565b5f61090c8261044f565b91506109178361044f565b92508282026109258161044f565b9150828204841483151761093c5761093b6106e8565b5b509291505056fea2646970667358221220d4f4ea408c4bc72fb8708a1c22a99169b03cd0ad51ec8ce99e01ef5d5a1682a164736f6c634300081a0033",
					"opcodes": "PUSH1 0x80 PUSH1 0x40 MSTORE CALLVALUE DUP1 ISZERO PUSH1 0xE JUMPI PUSH0 DUP1 REVERT JUMPDEST POP PUSH2 0x979 DUP1 PUSH2 0x1C PUSH0 CODECOPY PUSH0 RETURN INVALID PUSH1 0x80 PUSH1 0x40 MSTORE CALLVALUE DUP1 ISZERO PUSH2 0xF JUMPI PUSH0 DUP1 REVERT JUMPDEST POP PUSH1 0x4 CALLDATASIZE LT PUSH2 0x55 JUMPI PUSH0 CALLDATALOAD PUSH1 0xE0 SHR DUP1 PUSH4 0xD72997C EQ PUSH2 0x59 JUMPI DUP1 PUSH4 0x7B292909 EQ PUSH2 0x89 JUMPI DUP1 PUSH4 0x8D10FF0C EQ PUSH2 0xBA JUMPI DUP1 PUSH4 0xA25F4D31 EQ PUSH2 0xD6 JUMPI DUP1 PUSH4 0xEEE97206 EQ PUSH2 0x106 JUMPI JUMPDEST PUSH0 DUP1 REVERT JUMPDEST PUSH2 0x73 PUSH1 0x4 DUP1 CALLDATASIZE SUB DUP2 ADD SWAP1 PUSH2 0x6E SWAP2 SWAP1 PUSH2 0x482 JUMP JUMPDEST PUSH2 0x137 JUMP JUMPDEST PUSH1 0x40 MLOAD PUSH2 0x80 SWAP2 SWAP1 PUSH2 0x4BC JUMP JUMPDEST PUSH1 0x40 MLOAD DUP1 SWAP2 SUB SWAP1 RETURN JUMPDEST PUSH2 0xA3 PUSH1 0x4 DUP1 CALLDATASIZE SUB DUP2 ADD SWAP1 PUSH2 0x9E SWAP2 SWAP1 PUSH2 0x482 JUMP JUMPDEST PUSH2 0x279 JUMP JUMPDEST PUSH1 0x40 MLOAD PUSH2 0xB1 SWAP3 SWAP2 SWAP1 PUSH2 0x50F JUMP JUMPDEST PUSH1 0x40 MLOAD DUP1 SWAP2 SUB SWAP1 RETURN JUMPDEST PUSH2 0xD4 PUSH1 0x4 DUP1 CALLDATASIZE SUB DUP2 ADD SWAP1 PUSH2 0xCF SWAP2 SWAP1 PUSH2 0x560 JUMP JUMPDEST PUSH2 0x2B7 JUMP JUMPDEST STOP JUMPDEST PUSH2 0xF0 PUSH1 0x4 DUP1 CALLDATASIZE SUB DUP2 ADD SWAP1 PUSH2 0xEB SWAP2 SWAP1 PUSH2 0x58B JUMP JUMPDEST PUSH2 0x2D6 JUMP JUMPDEST PUSH1 0x40 MLOAD PUSH2 0xFD SWAP2 SWAP1 PUSH2 0x4BC JUMP JUMPDEST PUSH1 0x40 MLOAD DUP1 SWAP2 SUB SWAP1 RETURN JUMPDEST PUSH2 0x120 PUSH1 0x4 DUP1 CALLDATASIZE SUB DUP2 ADD SWAP1 PUSH2 0x11B SWAP2 SWAP1 PUSH2 0x482 JUMP JUMPDEST PUSH2 0x40D JUMP JUMPDEST PUSH1 0x40 MLOAD PUSH2 0x12E SWAP3 SWAP2 SWAP1 PUSH2 0x50F JUMP JUMPDEST PUSH1 0x40 MLOAD DUP1 SWAP2 SUB SWAP1 RETURN JUMPDEST PUSH0 DUP1 PUSH0 ADDRESS PUSH20 0xFFFFFFFFFFFFFFFFFFFFFFFFFFFFFFFFFFFFFFFF AND PUSH0 DUP1 SLOAD SWAP1 PUSH2 0x100 EXP SWAP1 DIV PUSH1 0xE0 SHL DUP6 PUSH1 0x40 MLOAD PUSH1 0x24 ADD PUSH2 0x16F SWAP2 SWAP1 PUSH2 0x4BC JUMP JUMPDEST PUSH1 0x40 MLOAD PUSH1 0x20 DUP2 DUP4 SUB SUB DUP2 MSTORE SWAP1 PUSH1 0x40 MSTORE SWAP1 PUSH28 0xFFFFFFFFFFFFFFFFFFFFFFFFFFFFFFFFFFFFFFFFFFFFFFFFFFFFFFFF NOT AND PUSH1 0x20 DUP3 ADD DUP1 MLOAD PUSH28 0xFFFFFFFFFFFFFFFFFFFFFFFFFFFFFFFFFFFFFFFFFFFFFFFFFFFFFFFF DUP4 DUP2 DUP4 AND OR DUP4 MSTORE POP POP POP POP PUSH1 0x40 MLOAD PUSH2 0x1D9 SWAP2 SWAP1 PUSH2 0x61B JUMP JUMPDEST PUSH0 PUSH1 0x40 MLOAD DUP1 DUP4 SUB DUP2 PUSH0 DUP7 GAS CALL SWAP2 POP POP RETURNDATASIZE DUP1 PUSH0 DUP2 EQ PUSH2 0x212 JUMPI PUSH1 0x40 MLOAD SWAP2 POP PUSH1 0x1F NOT PUSH1 0x3F RETURNDATASIZE ADD AND DUP3 ADD PUSH1 0x40 MSTORE RETURNDATASIZE DUP3 MSTORE RETURNDATASIZE PUSH0 PUSH1 0x20 DUP5 ADD RETURNDATACOPY PUSH2 0x217 JUMP JUMPDEST PUSH1 0x60 SWAP2 POP JUMPDEST POP SWAP2 POP SWAP2 POP DUP2 PUSH2 0x25C JUMPI PUSH1 0x40 MLOAD PUSH32 0x8C379A000000000000000000000000000000000000000000000000000000000 DUP2 MSTORE PUSH1 0x4 ADD PUSH2 0x253 SWAP1 PUSH2 0x68B JUMP JUMPDEST PUSH1 0x40 MLOAD DUP1 SWAP2 SUB SWAP1 REVERT JUMPDEST DUP1 DUP1 PUSH1 0x20 ADD SWAP1 MLOAD DUP2 ADD SWAP1 PUSH2 0x270 SWAP2 SWAP1 PUSH2 0x6BD JUMP JUMPDEST SWAP3 POP POP POP SWAP2 SWAP1 POP JUMP JUMPDEST PUSH0 DUP1 PUSH0 PUSH32 0x7B292909F05611B33F30E48B9BB89AC938FAA24DCFA7A9C135AA6624F6A9C1E8 SWAP1 POP PUSH1 0x2 DUP5 PUSH2 0x2AC SWAP2 SWAP1 PUSH2 0x850 JUMP JUMPDEST DUP2 SWAP3 POP SWAP3 POP POP SWAP2 POP SWAP2 JUMP JUMPDEST DUP1 PUSH0 DUP1 PUSH2 0x100 EXP DUP2 SLOAD DUP2 PUSH4 0xFFFFFFFF MUL NOT AND SWAP1 DUP4 PUSH1 0xE0 SHR MUL OR SWAP1 SSTORE POP POP JUMP JUMPDEST PUSH0 DUP1 PUSH0 ADDRESS PUSH20 0xFFFFFFFFFFFFFFFFFFFFFFFFFFFFFFFFFFFFFFFF AND DUP6 DUP6 PUSH1 0x40 MLOAD PUSH1 0x24 ADD PUSH2 0x302 SWAP2 SWAP1 PUSH2 0x4BC JUMP JUMPDEST PUSH1 0x40 MLOAD PUSH1 0x20 DUP2 DUP4 SUB SUB DUP2 MSTORE SWAP1 PUSH1 0x40 MSTORE SWAP1 PUSH28 0xFFFFFFFFFFFFFFFFFFFFFFFFFFFFFFFFFFFFFFFFFFFFFFFFFFFFFFFF NOT AND PUSH1 0x20 DUP3 ADD DUP1 MLOAD PUSH28 0xFFFFFFFFFFFFFFFFFFFFFFFFFFFFFFFFFFFFFFFFFFFFFFFFFFFFFFFF DUP4 DUP2 DUP4 AND OR DUP4 MSTORE POP POP POP POP PUSH1 0x40 MLOAD PUSH2 0x36C SWAP2 SWAP1 PUSH2 0x61B JUMP JUMPDEST PUSH0 PUSH1 0x40 MLOAD DUP1 DUP4 SUB DUP2 PUSH0 DUP7 GAS CALL SWAP2 POP POP RETURNDATASIZE DUP1 PUSH0 DUP2 EQ PUSH2 0x3A5 JUMPI PUSH1 0x40 MLOAD SWAP2 POP PUSH1 0x1F NOT PUSH1 0x3F RETURNDATASIZE ADD AND DUP3 ADD PUSH1 0x40 MSTORE RETURNDATASIZE DUP3 MSTORE RETURNDATASIZE PUSH0 PUSH1 0x20 DUP5 ADD RETURNDATACOPY PUSH2 0x3AA JUMP JUMPDEST PUSH1 0x60 SWAP2 POP JUMPDEST POP SWAP2 POP SWAP2 POP DUP2 PUSH2 0x3EF JUMPI PUSH1 0x40 MLOAD PUSH32 0x8C379A000000000000000000000000000000000000000000000000000000000 DUP2 MSTORE PUSH1 0x4 ADD PUSH2 0x3E6 SWAP1 PUSH2 0x8E4 JUMP JUMPDEST PUSH1 0x40 MLOAD DUP1 SWAP2 SUB SWAP1 REVERT JUMPDEST DUP1 DUP1 PUSH1 0x20 ADD SWAP1 MLOAD DUP2 ADD SWAP1 PUSH2 0x403 SWAP2 SWAP1 PUSH2 0x6BD JUMP JUMPDEST SWAP3 POP POP POP SWAP3 SWAP2 POP POP JUMP JUMPDEST PUSH0 DUP1 PUSH0 PUSH32 0xEEE972066698D890C32FEC0EDB38A360C32B71D0A29FFC75B6AB6D2774EC9901 SWAP1 POP PUSH1 0x2 DUP5 PUSH2 0x440 SWAP2 SWAP1 PUSH2 0x902 JUMP JUMPDEST DUP2 SWAP3 POP SWAP3 POP POP SWAP2 POP SWAP2 JUMP JUMPDEST PUSH0 DUP1 REVERT JUMPDEST PUSH0 DUP2 SWAP1 POP SWAP2 SWAP1 POP JUMP JUMPDEST PUSH2 0x461 DUP2 PUSH2 0x44F JUMP JUMPDEST DUP2 EQ PUSH2 0x46B JUMPI PUSH0 DUP1 REVERT JUMPDEST POP JUMP JUMPDEST PUSH0 DUP2 CALLDATALOAD SWAP1 POP PUSH2 0x47C DUP2 PUSH2 0x458 JUMP JUMPDEST SWAP3 SWAP2 POP POP JUMP JUMPDEST PUSH0 PUSH1 0x20 DUP3 DUP5 SUB SLT ISZERO PUSH2 0x497 JUMPI PUSH2 0x496 PUSH2 0x44B JUMP JUMPDEST JUMPDEST PUSH0 PUSH2 0x4A4 DUP5 DUP3 DUP6 ADD PUSH2 0x46E JUMP JUMPDEST SWAP2 POP POP SWAP3 SWAP2 POP POP JUMP JUMPDEST PUSH2 0x4B6 DUP2 PUSH2 0x44F JUMP JUMPDEST DUP3 MSTORE POP POP JUMP JUMPDEST PUSH0 PUSH1 0x20 DUP3 ADD SWAP1 POP PUSH2 0x4CF PUSH0 DUP4 ADD DUP5 PUSH2 0x4AD JUMP JUMPDEST SWAP3 SWAP2 POP POP JUMP JUMPDEST PUSH0 PUSH32 0xFFFFFFFF00000000000000000000000000000000000000000000000000000000 DUP3 AND SWAP1 POP SWAP2 SWAP1 POP JUMP JUMPDEST PUSH2 0x509 DUP2 PUSH2 0x4D5 JUMP JUMPDEST DUP3 MSTORE POP POP JUMP JUMPDEST PUSH0 PUSH1 0x40 DUP3 ADD SWAP1 POP PUSH2 0x522 PUSH0 DUP4 ADD DUP6 PUSH2 0x4AD JUMP JUMPDEST PUSH2 0x52F PUSH1 0x20 DUP4 ADD DUP5 PUSH2 0x500 JUMP JUMPDEST SWAP4 SWAP3 POP POP POP JUMP JUMPDEST PUSH2 0x53F DUP2 PUSH2 0x4D5 JUMP JUMPDEST DUP2 EQ PUSH2 0x549 JUMPI PUSH0 DUP1 REVERT JUMPDEST POP JUMP JUMPDEST PUSH0 DUP2 CALLDATALOAD SWAP1 POP PUSH2 0x55A DUP2 PUSH2 0x536 JUMP JUMPDEST SWAP3 SWAP2 POP POP JUMP JUMPDEST PUSH0 PUSH1 0x20 DUP3 DUP5 SUB SLT ISZERO PUSH2 0x575 JUMPI PUSH2 0x574 PUSH2 0x44B JUMP JUMPDEST JUMPDEST PUSH0 PUSH2 0x582 DUP5 DUP3 DUP6 ADD PUSH2 0x54C JUMP JUMPDEST SWAP2 POP POP SWAP3 SWAP2 POP POP JUMP JUMPDEST PUSH0 DUP1 PUSH1 0x40 DUP4 DUP6 SUB SLT ISZERO PUSH2 0x5A1 JUMPI PUSH2 0x5A0 PUSH2 0x44B JUMP JUMPDEST JUMPDEST PUSH0 PUSH2 0x5AE DUP6 DUP3 DUP7 ADD PUSH2 0x54C JUMP JUMPDEST SWAP3 POP POP PUSH1 0x20 PUSH2 0x5BF DUP6 DUP3 DUP7 ADD PUSH2 0x46E JUMP JUMPDEST SWAP2 POP POP SWAP3 POP SWAP3 SWAP1 POP JUMP JUMPDEST PUSH0 DUP2 MLOAD SWAP1 POP SWAP2 SWAP1 POP JUMP JUMPDEST PUSH0 DUP2 SWAP1 POP SWAP3 SWAP2 POP POP JUMP JUMPDEST DUP3 DUP2 DUP4 MCOPY PUSH0 DUP4 DUP4 ADD MSTORE POP POP POP JUMP JUMPDEST PUSH0 PUSH2 0x5F5 DUP3 PUSH2 0x5C9 JUMP JUMPDEST PUSH2 0x5FF DUP2 DUP6 PUSH2 0x5D3 JUMP JUMPDEST SWAP4 POP PUSH2 0x60F DUP2 DUP6 PUSH1 0x20 DUP7 ADD PUSH2 0x5DD JUMP JUMPDEST DUP1 DUP5 ADD SWAP2 POP POP SWAP3 SWAP2 POP POP JUMP JUMPDEST PUSH0 PUSH2 0x626 DUP3 DUP5 PUSH2 0x5EB JUMP JUMPDEST SWAP2 POP DUP2 SWAP1 POP SWAP3 SWAP2 POP POP JUMP JUMPDEST PUSH0 DUP3 DUP3 MSTORE PUSH1 0x20 DUP3 ADD SWAP1 POP SWAP3 SWAP2 POP POP JUMP JUMPDEST PUSH32 0x65786563757465206661696C6564000000000000000000000000000000000000 PUSH0 DUP3 ADD MSTORE POP JUMP JUMPDEST PUSH0 PUSH2 0x675 PUSH1 0xE DUP4 PUSH2 0x631 JUMP JUMPDEST SWAP2 POP PUSH2 0x680 DUP3 PUSH2 0x641 JUMP JUMPDEST PUSH1 0x20 DUP3 ADD SWAP1 POP SWAP2 SWAP1 POP JUMP JUMPDEST PUSH0 PUSH1 0x20 DUP3 ADD SWAP1 POP DUP2 DUP2 SUB PUSH0 DUP4 ADD MSTORE PUSH2 0x6A2 DUP2 PUSH2 0x669 JUMP JUMPDEST SWAP1 POP SWAP2 SWAP1 POP JUMP JUMPDEST PUSH0 DUP2 MLOAD SWAP1 POP PUSH2 0x6B7 DUP2 PUSH2 0x458 JUMP JUMPDEST SWAP3 SWAP2 POP POP JUMP JUMPDEST PUSH0 PUSH1 0x20 DUP3 DUP5 SUB SLT ISZERO PUSH2 0x6D2 JUMPI PUSH2 0x6D1 PUSH2 0x44B JUMP JUMPDEST JUMPDEST PUSH0 PUSH2 0x6DF DUP5 DUP3 DUP6 ADD PUSH2 0x6A9 JUMP JUMPDEST SWAP2 POP POP SWAP3 SWAP2 POP POP JUMP JUMPDEST PUSH32 0x4E487B7100000000000000000000000000000000000000000000000000000000 PUSH0 MSTORE PUSH1 0x11 PUSH1 0x4 MSTORE PUSH1 0x24 PUSH0 REVERT JUMPDEST PUSH0 DUP2 PUSH1 0x1 SHR SWAP1 POP SWAP2 SWAP1 POP JUMP JUMPDEST PUSH0 DUP1 DUP3 SWAP2 POP DUP4 SWAP1 POP JUMPDEST PUSH1 0x1 DUP6 GT ISZERO PUSH2 0x76A JUMPI DUP1 DUP7 DIV DUP2 GT ISZERO PUSH2 0x746 JUMPI PUSH2 0x745 PUSH2 0x6E8 JUMP JUMPDEST JUMPDEST PUSH1 0x1 DUP6 AND ISZERO PUSH2 0x755 JUMPI DUP1 DUP3 MUL SWAP2 POP JUMPDEST DUP1 DUP2 MUL SWAP1 POP PUSH2 0x763 DUP6 PUSH2 0x715 JUMP JUMPDEST SWAP5 POP PUSH2 0x72A JUMP JUMPDEST SWAP5 POP SWAP5 SWAP3 POP POP POP JUMP JUMPDEST PUSH0 DUP3 PUSH2 0x782 JUMPI PUSH1 0x1 SWAP1 POP PUSH2 0x83D JUMP JUMPDEST DUP2 PUSH2 0x78F JUMPI PUSH0 SWAP1 POP PUSH2 0x83D JUMP JUMPDEST DUP2 PUSH1 0x1 DUP2 EQ PUSH2 0x7A5 JUMPI PUSH1 0x2 DUP2 EQ PUSH2 0x7AF JUMPI PUSH2 0x7DE JUMP JUMPDEST PUSH1 0x1 SWAP2 POP POP PUSH2 0x83D JUMP JUMPDEST PUSH1 0xFF DUP5 GT ISZERO PUSH2 0x7C1 JUMPI PUSH2 0x7C0 PUSH2 0x6E8 JUMP JUMPDEST JUMPDEST DUP4 PUSH1 0x2 EXP SWAP2 POP DUP5 DUP3 GT ISZERO PUSH2 0x7D8 JUMPI PUSH2 0x7D7 PUSH2 0x6E8 JUMP JUMPDEST JUMPDEST POP PUSH2 0x83D JUMP JUMPDEST POP PUSH1 0x20 DUP4 LT PUSH2 0x133 DUP4 LT AND PUSH1 0x4E DUP5 LT PUSH1 0xB DUP5 LT AND OR ISZERO PUSH2 0x813 JUMPI DUP3 DUP3 EXP SWAP1 POP DUP4 DUP2 GT ISZERO PUSH2 0x80E JUMPI PUSH2 0x80D PUSH2 0x6E8 JUMP JUMPDEST JUMPDEST PUSH2 0x83D JUMP JUMPDEST PUSH2 0x820 DUP5 DUP5 DUP5 PUSH1 0x1 PUSH2 0x721 JUMP JUMPDEST SWAP3 POP SWAP1 POP DUP2 DUP5 DIV DUP2 GT ISZERO PUSH2 0x837 JUMPI PUSH2 0x836 PUSH2 0x6E8 JUMP JUMPDEST JUMPDEST DUP2 DUP2 MUL SWAP1 POP JUMPDEST SWAP4 SWAP3 POP POP POP JUMP JUMPDEST PUSH0 PUSH1 0xFF DUP3 AND SWAP1 POP SWAP2 SWAP1 POP JUMP JUMPDEST PUSH0 PUSH2 0x85A DUP3 PUSH2 0x44F JUMP JUMPDEST SWAP2 POP PUSH2 0x865 DUP4 PUSH2 0x844 JUMP JUMPDEST SWAP3 POP PUSH2 0x892 PUSH32 0xFFFFFFFFFFFFFFFFFFFFFFFFFFFFFFFFFFFFFFFFFFFFFFFFFFFFFFFFFFFFFFFF DUP5 DUP5 PUSH2 0x773 JUMP JUMPDEST SWAP1 POP SWAP3 SWAP2 POP POP JUMP JUMPDEST PUSH32 0x63616C6C206661696C6564000000000000000000000000000000000000000000 PUSH0 DUP3 ADD MSTORE POP JUMP JUMPDEST PUSH0 PUSH2 0x8CE PUSH1 0xB DUP4 PUSH2 0x631 JUMP JUMPDEST SWAP2 POP PUSH2 0x8D9 DUP3 PUSH2 0x89A JUMP JUMPDEST PUSH1 0x20 DUP3 ADD SWAP1 POP SWAP2 SWAP1 POP JUMP JUMPDEST PUSH0 PUSH1 0x20 DUP3 ADD SWAP1 POP DUP2 DUP2 SUB PUSH0 DUP4 ADD MSTORE PUSH2 0x8FB DUP2 PUSH2 0x8C2 JUMP JUMPDEST SWAP1 POP SWAP2 SWAP1 POP JUMP JUMPDEST PUSH0 PUSH2 0x90C DUP3 PUSH2 0x44F JUMP JUMPDEST SWAP2 POP PUSH2 0x917 DUP4 PUSH2 0x44F JUMP JUMPDEST SWAP3 POP DUP3 DUP3 MUL PUSH2 0x925 DUP2 PUSH2 0x44F JUMP JUMPDEST SWAP2 POP DUP3 DUP3 DIV DUP5 EQ DUP4 ISZERO OR PUSH2 0x93C JUMPI PUSH2 0x93B PUSH2 0x6E8 JUMP JUMPDEST JUMPDEST POP SWAP3 SWAP2 POP POP JUMP INVALID LOG2 PUSH5 0x6970667358 0x22 SLT KECCAK256 0xD4 DELEGATECALL 0xEA BLOCKHASH DUP13 0x4B 0xC7 0x2F 0xB8 PUSH17 0x8A1C22A99169B03CD0AD51EC8CE99E01EF TSTORE GAS AND DUP3 LOG1 PUSH5 0x736F6C6343 STOP ADDMOD BYTE STOP CALLER "
				},
				"gasEstimates": {
					"creation": {
						"codeDepositCost": "485000",
						"executionCost": "516",
						"totalCost": "485516"
					},
					"external": {
						"double(uint256)": "infinite",
						"executeFunction(bytes4,uint256)": "infinite",
						"executeStoreSelector(uint256)": "infinite",
						"square(uint256)": "infinite",
						"storeSelector(bytes4)": "24695"
					}
				},
				"methodIdentifiers": {
					"double(uint256)": "eee97206",
					"executeFunction(bytes4,uint256)": "a25f4d31",
					"executeStoreSelector(uint256)": "0d72997c",
					"square(uint256)": "7b292909",
					"storeSelector(bytes4)": "8d10ff0c"
				}
			},
			"storageLayout": {
				"storage": [
					{
						"astId": 3,
						"contract": "solidity/homework/functype.sol:dselector",
						"label": "storedSelector",
						"offset": 0,
						"slot": "0",
						"type": "t_bytes4"
					}
				],
				"types": {
					"t_bytes4": {
						"encoding": "inplace",
						"label": "bytes4",
						"numberOfBytes": "4"
					}
				}
			},
			"userdoc": {
				"kind": "user",
				"methods": {},
				"version": 1
			}
		}
	}
}