{
	"data": {
		"bytecode": {
			"linkReferences": {},
			"object": "6080604052348015600e575f80fd5b5061011f8061001c5f395ff3fe6080604052348015600e575f80fd5b50600436106026575f3560e01c806388bd7d5014602a575b5f80fd5b60306047565b604051603e949392919060ae565b60405180910390f35b5f805f804342413a935093509350935090919293565b5f819050919050565b606d81605d565b82525050565b5f73ffffffffffffffffffffffffffffffffffffffff82169050919050565b5f609a826073565b9050919050565b60a8816092565b82525050565b5f60808201905060bf5f8301876066565b60ca60208301866066565b60d5604083018560a1565b60e060608301846066565b9594505050505056fea264697066735822122017aa83fef36ef258874b1e741e37909196122d62f760a712123f6ecf56c7733b64736f6c634300081a0033",
			"opcodes": "PUSH1 0x80 PUSH1 0x40 MSTORE CALLVALUE DUP1 ISZERO PUSH1 0xE JUMPI PUSH0 DUP1 REVERT JUMPDEST POP PUSH2 0x11F DUP1 PUSH2 0x1C PUSH0 CODECOPY PUSH0 RETURN INVALID PUSH1 0x80 PUSH1 0x40 MSTORE CALLVALUE DUP1 ISZERO PUSH1 0xE JUMPI PUSH0 DUP1 REVERT JUMPDEST POP PUSH1 0x4 CALLDATASIZE LT PUSH1 0x26 JUMPI PUSH0 CALLDATALOAD PUSH1 0xE0 SHR DUP1 PUSH4 0x88BD7D50 EQ PUSH1 0x2A JUMPI JUMPDEST PUSH0 DUP1 REVERT JUMPDEST PUSH1 0x30 PUSH1 0x47 JUMP JUMPDEST PUSH1 0x40 MLOAD PUSH1 0x3E SWAP5 SWAP4 SWAP3 SWAP2 SWAP1 PUSH1 0xAE JUMP JUMPDEST PUSH1 0x40 MLOAD DUP1 SWAP2 SUB SWAP1 RETURN JUMPDEST PUSH0 DUP1 PUSH0 DUP1 NUMBER TIMESTAMP COINBASE GASPRICE SWAP4 POP SWAP4 POP SWAP4 POP SWAP4 POP SWAP1 SWAP2 SWAP3 SWAP4 JUMP JUMPDEST PUSH0 DUP2 SWAP1 POP SWAP2 SWAP1 POP JUMP JUMPDEST PUSH1 0x6D DUP2 PUSH1 0x5D JUMP JUMPDEST DUP3 MSTORE POP POP JUMP JUMPDEST PUSH0 PUSH20 0xFFFFFFFFFFFFFFFFFFFFFFFFFFFFFFFFFFFFFFFF DUP3 AND SWAP1 POP SWAP2 SWAP1 POP JUMP JUMPDEST PUSH0 PUSH1 0x9A DUP3 PUSH1 0x73 JUMP JUMPDEST SWAP1 POP SWAP2 SWAP1 POP JUMP JUMPDEST PUSH1 0xA8 DUP2 PUSH1 0x92 JUMP JUMPDEST DUP3 MSTORE POP POP JUMP JUMPDEST PUSH0 PUSH1 0x80 DUP3 ADD SWAP1 POP PUSH1 0xBF PUSH0 DUP4 ADD DUP8 PUSH1 0x66 JUMP JUMPDEST PUSH1 0xCA PUSH1 0x20 DUP4 ADD DUP7 PUSH1 0x66 JUMP JUMPDEST PUSH1 0xD5 PUSH1 0x40 DUP4 ADD DUP6 PUSH1 0xA1 JUMP JUMPDEST PUSH1 0xE0 PUSH1 0x60 DUP4 ADD DUP5 PUSH1 0x66 JUMP JUMPDEST SWAP6 SWAP5 POP POP POP POP POP JUMP INVALID LOG2 PUSH5 0x6970667358 0x22 SLT KECCAK256 OR 0xAA DUP4 INVALID RETURN PUSH15 0xF258874B1E741E37909196122D62F7 PUSH1 0xA7 SLT SLT EXTCODEHASH PUSH15 0xCF56C7733B64736F6C634300081A00 CALLER "
		},
		"gasEstimates": {
			"creation": {
				"codeDepositCost": "57400",
				"executionCost": "103",
				"totalCost": "57503"
			},
			"external": {
				"Getblockinfo()": "infinite"
			}
		},
		"methodIdentifiers": {
			"Getblockinfo()": "88bd7d50"
		}
	},
	"abi": [
		{
			"inputs": [],
			"name": "Getblockinfo",
			"outputs": [
				{
					"internalType": "uint256",
					"name": "blocknum",
					"type": "uint256"
				},
				{
					"internalType": "uint256",
					"name": "time",
					"type": "uint256"
				},
				{
					"internalType": "address",
					"name": "blockaddr",
					"type": "address"
				},
				{
					"internalType": "uint256",
					"name": "gasprice",
					"type": "uint256"
				}
			],
			"stateMutability": "view",
			"type": "function"
		}
	]
}