{
	"data": {
		"bytecode": {
			"linkReferences": {},
			"object": "6080604052600a5f55737a58c0be72be218b41c608b7fe7c5bb630736c7160015f6101000a81548173ffffffffffffffffffffffffffffffffffffffff021916908373ffffffffffffffffffffffffffffffffffffffff1602179055506040518060400160405280600481526020017f3078414100000000000000000000000000000000000000000000000000000000815250600290816100a0919061037a565b506040518060400160405280600560ff168152602001600660ff1681525060039060026100ce9291906100e0565b503480156100da575f80fd5b50610449565b8260028101928215610114579160200282015b82811115610113578251829060ff169055916020019190600101906100f3565b5b5090506101219190610125565b5090565b5b8082111561013c575f815f905550600101610126565b5090565b5f81519050919050565b7f4e487b71000000000000000000000000000000000000000000000000000000005f52604160045260245ffd5b7f4e487b71000000000000000000000000000000000000000000000000000000005f52602260045260245ffd5b5f60028204905060018216806101bb57607f821691505b6020821081036101ce576101cd610177565b5b50919050565b5f819050815f5260205f209050919050565b5f6020601f8301049050919050565b5f82821b905092915050565b5f600883026102307fffffffffffffffffffffffffffffffffffffffffffffffffffffffffffffffff826101f5565b61023a86836101f5565b95508019841693508086168417925050509392505050565b5f819050919050565b5f819050919050565b5f61027e61027961027484610252565b61025b565b610252565b9050919050565b5f819050919050565b61029783610264565b6102ab6102a382610285565b848454610201565b825550505050565b5f90565b6102bf6102b3565b6102ca81848461028e565b505050565b5b818110156102ed576102e25f826102b7565b6001810190506102d0565b5050565b601f82111561033257610303816101d4565b61030c846101e6565b8101602085101561031b578190505b61032f610327856101e6565b8301826102cf565b50505b505050565b5f82821c905092915050565b5f6103525f1984600802610337565b1980831691505092915050565b5f61036a8383610343565b9150826002028217905092915050565b61038382610140565b67ffffffffffffffff81111561039c5761039b61014a565b5b6103a682546101a4565b6103b18282856102f1565b5f60209050601f8311600181146103e2575f84156103d0578287015190505b6103da858261035f565b865550610441565b601f1984166103f0866101d4565b5f5b82811015610417578489015182556001820191506020850194506020810190506103f2565b868310156104345784890151610430601f891682610343565b8355505b6001600288020188555050505b505050505050565b610e4d806104565f395ff3fe608060405234801561000f575f80fd5b506004361061007b575f3560e01c8063c136e5cd11610059578063c136e5cd146100d9578063d1bd363d146100f7578063e4f2a84a14610115578063e5c5e9a3146101335761007b565b806353d9c5061461007f57806398f42e711461009d578063bd14598f146100bb575b5f80fd5b610087610166565b6040516100949190610480565b60405180910390f35b6100a56101b7565b6040516100b291906104da565b60405180910390f35b6100c36101de565b6040516100d09190610480565b60405180910390f35b6100e161022f565b6040516100ee919061050b565b60405180910390f35b6100ff610238565b60405161010c9190610480565b60405180910390f35b61011d6102f8565b60405161012a9190610480565b60405180910390f35b61014d60048036038101906101489190610661565b6103b7565b60405161015d94939291906107de565b60405180910390f35b60605f5460015f9054906101000a900473ffffffffffffffffffffffffffffffffffffffff16600260036040516020016101a39493929190610a71565b604051602081830303815290604052905090565b5f7fc136e5cd004e82f058353ab3db12c14743a794e7410f81c7458fef31bb6358e9905090565b60605f5460015f9054906101000a900473ffffffffffffffffffffffffffffffffffffffff166002600360405160200161021b9493929190610b98565b604051602081830303815290604052905090565b5f610508905090565b60607fe87082f1450a46f8f3150d7bda55bda41a2b08d68abde6797ccc68be305673355f5460015f9054906101000a900473ffffffffffffffffffffffffffffffffffffffff16600260036040516024016102969493929190610b98565b604051602081830303815290604052907bffffffffffffffffffffffffffffffffffffffffffffffffffffffff19166020820180517bffffffffffffffffffffffffffffffffffffffffffffffffffffffff8381831617835250505050905090565b60605f5460015f9054906101000a900473ffffffffffffffffffffffffffffffffffffffff16600260036040516024016103359493929190610b98565b6040516020818303038152906040527fe87082f1000000000000000000000000000000000000000000000000000000007bffffffffffffffffffffffffffffffffffffffffffffffffffffffff19166020820180517bffffffffffffffffffffffffffffffffffffffffffffffffffffffff8381831617835250505050905090565b5f8060606103c36103ee565b848060200190518101906103d79190610d97565b809450819550829650839750505050509193509193565b6040518060400160405280600290602082028036833780820191505090505090565b5f81519050919050565b5f82825260208201905092915050565b8281835e5f83830152505050565b5f601f19601f8301169050919050565b5f61045282610410565b61045c818561041a565b935061046c81856020860161042a565b61047581610438565b840191505092915050565b5f6020820190508181035f8301526104988184610448565b905092915050565b5f7fffffffff0000000000000000000000000000000000000000000000000000000082169050919050565b6104d4816104a0565b82525050565b5f6020820190506104ed5f8301846104cb565b92915050565b5f819050919050565b610505816104f3565b82525050565b5f60208201905061051e5f8301846104fc565b92915050565b5f604051905090565b5f80fd5b5f80fd5b5f80fd5b5f80fd5b7f4e487b71000000000000000000000000000000000000000000000000000000005f52604160045260245ffd5b61057382610438565b810181811067ffffffffffffffff821117156105925761059161053d565b5b80604052505050565b5f6105a4610524565b90506105b0828261056a565b919050565b5f67ffffffffffffffff8211156105cf576105ce61053d565b5b6105d882610438565b9050602081019050919050565b828183375f83830152505050565b5f610605610600846105b5565b61059b565b90508281526020810184848401111561062157610620610539565b5b61062c8482856105e5565b509392505050565b5f82601f83011261064857610647610535565b5b81356106588482602086016105f3565b91505092915050565b5f602082840312156106765761067561052d565b5b5f82013567ffffffffffffffff81111561069357610692610531565b5b61069f84828501610634565b91505092915050565b5f73ffffffffffffffffffffffffffffffffffffffff82169050919050565b5f6106d1826106a8565b9050919050565b6106e1816106c7565b82525050565b5f81519050919050565b5f82825260208201905092915050565b5f61070b826106e7565b61071581856106f1565b935061072581856020860161042a565b61072e81610438565b840191505092915050565b5f60029050919050565b5f81905092915050565b5f819050919050565b61075f816104f3565b82525050565b5f6107708383610756565b60208301905092915050565b5f602082019050919050565b61079181610739565b61079b8184610743565b92506107a68261074d565b805f5b838110156107d65781516107bd8782610765565b96506107c88361077c565b9250506001810190506107a9565b505050505050565b5f60a0820190506107f15f8301876104fc565b6107fe60208301866106d8565b81810360408301526108108185610701565b905061081f6060830184610788565b95945050505050565b5f819050919050565b61084261083d826104f3565b610828565b82525050565b5f8160601b9050919050565b5f61085e82610848565b9050919050565b5f61086f82610854565b9050919050565b610887610882826106c7565b610865565b82525050565b7f4e487b71000000000000000000000000000000000000000000000000000000005f52602260045260245ffd5b5f60028204905060018216806108d157607f821691505b6020821081036108e4576108e361088d565b5b50919050565b5f81905092915050565b5f819050815f5260205f209050919050565b5f8154610912816108ba565b61091c81866108ea565b9450600182165f8114610936576001811461094b5761097d565b60ff198316865281151582028601935061097d565b610954856108f4565b5f5b8381101561097557815481890152600182019150602081019050610956565b838801955050505b50505092915050565b5f60029050919050565b5f81905092915050565b5f819050919050565b6109ac816104f3565b82525050565b5f6109bd83836109a3565b60208301905092915050565b5f815f1c9050919050565b5f819050919050565b5f6109ef6109ea836109c9565b6109d4565b9050919050565b5f610a0182546109dd565b9050919050565b5f600182019050919050565b610a1d81610986565b610a278184610990565b9250610a328261099a565b805f5b83811015610a6957610a46826109f6565b610a5087826109b2565b9650610a5b83610a08565b925050600181019050610a35565b505050505050565b5f610a7c8287610831565b602082019150610a8c8286610876565b601482019150610a9c8285610906565b9150610aa88284610a14565b60408201915081905095945050505050565b5f8154610ac6816108ba565b610ad081866106f1565b9450600182165f8114610aea5760018114610b0057610b32565b60ff198316865281151560200286019350610b32565b610b09856108f4565b5f5b83811015610b2a57815481890152600182019150602081019050610b0b565b808801955050505b50505092915050565b610b4481610986565b610b4e8184610743565b9250610b598261099a565b805f5b83811015610b9057610b6d826109f6565b610b778782610765565b9650610b8283610a08565b925050600181019050610b5c565b505050505050565b5f60a082019050610bab5f8301876104fc565b610bb860208301866106d8565b8181036040830152610bca8185610aba565b9050610bd96060830184610b3b565b95945050505050565b610beb816104f3565b8114610bf5575f80fd5b50565b5f81519050610c0681610be2565b92915050565b5f610c16826106a8565b9050919050565b610c2681610c0c565b8114610c30575f80fd5b50565b5f81519050610c4181610c1d565b92915050565b5f67ffffffffffffffff821115610c6157610c6061053d565b5b610c6a82610438565b9050602081019050919050565b5f610c89610c8484610c47565b61059b565b905082815260208101848484011115610ca557610ca4610539565b5b610cb084828561042a565b509392505050565b5f82601f830112610ccc57610ccb610535565b5b8151610cdc848260208601610c77565b91505092915050565b5f67ffffffffffffffff821115610cff57610cfe61053d565b5b602082029050919050565b5f80fd5b5f610d20610d1b84610ce5565b61059b565b90508060208402830185811115610d3a57610d39610d0a565b5b835b81811015610d635780610d4f8882610bf8565b845260208401935050602081019050610d3c565b5050509392505050565b5f82601f830112610d8157610d80610535565b5b6002610d8e848285610d0e565b91505092915050565b5f805f8060a08587031215610daf57610dae61052d565b5b5f610dbc87828801610bf8565b9450506020610dcd87828801610c33565b935050604085015167ffffffffffffffff811115610dee57610ded610531565b5b610dfa87828801610cb8565b9250506060610e0b87828801610d6d565b9150509295919450925056fea2646970667358221220b50cd2bad1226e3c8c38f196d5b3fd42f07fc40b9dcc8808e3921b371d28e63b64736f6c634300081a0033",
			"opcodes": "PUSH1 0x80 PUSH1 0x40 MSTORE PUSH1 0xA PUSH0 SSTORE PUSH20 0x7A58C0BE72BE218B41C608B7FE7C5BB630736C71 PUSH1 0x1 PUSH0 PUSH2 0x100 EXP DUP2 SLOAD DUP2 PUSH20 0xFFFFFFFFFFFFFFFFFFFFFFFFFFFFFFFFFFFFFFFF MUL NOT AND SWAP1 DUP4 PUSH20 0xFFFFFFFFFFFFFFFFFFFFFFFFFFFFFFFFFFFFFFFF AND MUL OR SWAP1 SSTORE POP PUSH1 0x40 MLOAD DUP1 PUSH1 0x40 ADD PUSH1 0x40 MSTORE DUP1 PUSH1 0x4 DUP2 MSTORE PUSH1 0x20 ADD PUSH32 0x3078414100000000000000000000000000000000000000000000000000000000 DUP2 MSTORE POP PUSH1 0x2 SWAP1 DUP2 PUSH2 0xA0 SWAP2 SWAP1 PUSH2 0x37A JUMP JUMPDEST POP PUSH1 0x40 MLOAD DUP1 PUSH1 0x40 ADD PUSH1 0x40 MSTORE DUP1 PUSH1 0x5 PUSH1 0xFF AND DUP2 MSTORE PUSH1 0x20 ADD PUSH1 0x6 PUSH1 0xFF AND DUP2 MSTORE POP PUSH1 0x3 SWAP1 PUSH1 0x2 PUSH2 0xCE SWAP3 SWAP2 SWAP1 PUSH2 0xE0 JUMP JUMPDEST POP CALLVALUE DUP1 ISZERO PUSH2 0xDA JUMPI PUSH0 DUP1 REVERT JUMPDEST POP PUSH2 0x449 JUMP JUMPDEST DUP3 PUSH1 0x2 DUP2 ADD SWAP3 DUP3 ISZERO PUSH2 0x114 JUMPI SWAP2 PUSH1 0x20 MUL DUP3 ADD JUMPDEST DUP3 DUP2 GT ISZERO PUSH2 0x113 JUMPI DUP3 MLOAD DUP3 SWAP1 PUSH1 0xFF AND SWAP1 SSTORE SWAP2 PUSH1 0x20 ADD SWAP2 SWAP1 PUSH1 0x1 ADD SWAP1 PUSH2 0xF3 JUMP JUMPDEST JUMPDEST POP SWAP1 POP PUSH2 0x121 SWAP2 SWAP1 PUSH2 0x125 JUMP JUMPDEST POP SWAP1 JUMP JUMPDEST JUMPDEST DUP1 DUP3 GT ISZERO PUSH2 0x13C JUMPI PUSH0 DUP2 PUSH0 SWAP1 SSTORE POP PUSH1 0x1 ADD PUSH2 0x126 JUMP JUMPDEST POP SWAP1 JUMP JUMPDEST PUSH0 DUP2 MLOAD SWAP1 POP SWAP2 SWAP1 POP JUMP JUMPDEST PUSH32 0x4E487B7100000000000000000000000000000000000000000000000000000000 PUSH0 MSTORE PUSH1 0x41 PUSH1 0x4 MSTORE PUSH1 0x24 PUSH0 REVERT JUMPDEST PUSH32 0x4E487B7100000000000000000000000000000000000000000000000000000000 PUSH0 MSTORE PUSH1 0x22 PUSH1 0x4 MSTORE PUSH1 0x24 PUSH0 REVERT JUMPDEST PUSH0 PUSH1 0x2 DUP3 DIV SWAP1 POP PUSH1 0x1 DUP3 AND DUP1 PUSH2 0x1BB JUMPI PUSH1 0x7F DUP3 AND SWAP2 POP JUMPDEST PUSH1 0x20 DUP3 LT DUP2 SUB PUSH2 0x1CE JUMPI PUSH2 0x1CD PUSH2 0x177 JUMP JUMPDEST JUMPDEST POP SWAP2 SWAP1 POP JUMP JUMPDEST PUSH0 DUP2 SWAP1 POP DUP2 PUSH0 MSTORE PUSH1 0x20 PUSH0 KECCAK256 SWAP1 POP SWAP2 SWAP1 POP JUMP JUMPDEST PUSH0 PUSH1 0x20 PUSH1 0x1F DUP4 ADD DIV SWAP1 POP SWAP2 SWAP1 POP JUMP JUMPDEST PUSH0 DUP3 DUP3 SHL SWAP1 POP SWAP3 SWAP2 POP POP JUMP JUMPDEST PUSH0 PUSH1 0x8 DUP4 MUL PUSH2 0x230 PUSH32 0xFFFFFFFFFFFFFFFFFFFFFFFFFFFFFFFFFFFFFFFFFFFFFFFFFFFFFFFFFFFFFFFF DUP3 PUSH2 0x1F5 JUMP JUMPDEST PUSH2 0x23A DUP7 DUP4 PUSH2 0x1F5 JUMP JUMPDEST SWAP6 POP DUP1 NOT DUP5 AND SWAP4 POP DUP1 DUP7 AND DUP5 OR SWAP3 POP POP POP SWAP4 SWAP3 POP POP POP JUMP JUMPDEST PUSH0 DUP2 SWAP1 POP SWAP2 SWAP1 POP JUMP JUMPDEST PUSH0 DUP2 SWAP1 POP SWAP2 SWAP1 POP JUMP JUMPDEST PUSH0 PUSH2 0x27E PUSH2 0x279 PUSH2 0x274 DUP5 PUSH2 0x252 JUMP JUMPDEST PUSH2 0x25B JUMP JUMPDEST PUSH2 0x252 JUMP JUMPDEST SWAP1 POP SWAP2 SWAP1 POP JUMP JUMPDEST PUSH0 DUP2 SWAP1 POP SWAP2 SWAP1 POP JUMP JUMPDEST PUSH2 0x297 DUP4 PUSH2 0x264 JUMP JUMPDEST PUSH2 0x2AB PUSH2 0x2A3 DUP3 PUSH2 0x285 JUMP JUMPDEST DUP5 DUP5 SLOAD PUSH2 0x201 JUMP JUMPDEST DUP3 SSTORE POP POP POP POP JUMP JUMPDEST PUSH0 SWAP1 JUMP JUMPDEST PUSH2 0x2BF PUSH2 0x2B3 JUMP JUMPDEST PUSH2 0x2CA DUP2 DUP5 DUP5 PUSH2 0x28E JUMP JUMPDEST POP POP POP JUMP JUMPDEST JUMPDEST DUP2 DUP2 LT ISZERO PUSH2 0x2ED JUMPI PUSH2 0x2E2 PUSH0 DUP3 PUSH2 0x2B7 JUMP JUMPDEST PUSH1 0x1 DUP2 ADD SWAP1 POP PUSH2 0x2D0 JUMP JUMPDEST POP POP JUMP JUMPDEST PUSH1 0x1F DUP3 GT ISZERO PUSH2 0x332 JUMPI PUSH2 0x303 DUP2 PUSH2 0x1D4 JUMP JUMPDEST PUSH2 0x30C DUP5 PUSH2 0x1E6 JUMP JUMPDEST DUP2 ADD PUSH1 0x20 DUP6 LT ISZERO PUSH2 0x31B JUMPI DUP2 SWAP1 POP JUMPDEST PUSH2 0x32F PUSH2 0x327 DUP6 PUSH2 0x1E6 JUMP JUMPDEST DUP4 ADD DUP3 PUSH2 0x2CF JUMP JUMPDEST POP POP JUMPDEST POP POP POP JUMP JUMPDEST PUSH0 DUP3 DUP3 SHR SWAP1 POP SWAP3 SWAP2 POP POP JUMP JUMPDEST PUSH0 PUSH2 0x352 PUSH0 NOT DUP5 PUSH1 0x8 MUL PUSH2 0x337 JUMP JUMPDEST NOT DUP1 DUP4 AND SWAP2 POP POP SWAP3 SWAP2 POP POP JUMP JUMPDEST PUSH0 PUSH2 0x36A DUP4 DUP4 PUSH2 0x343 JUMP JUMPDEST SWAP2 POP DUP3 PUSH1 0x2 MUL DUP3 OR SWAP1 POP SWAP3 SWAP2 POP POP JUMP JUMPDEST PUSH2 0x383 DUP3 PUSH2 0x140 JUMP JUMPDEST PUSH8 0xFFFFFFFFFFFFFFFF DUP2 GT ISZERO PUSH2 0x39C JUMPI PUSH2 0x39B PUSH2 0x14A JUMP JUMPDEST JUMPDEST PUSH2 0x3A6 DUP3 SLOAD PUSH2 0x1A4 JUMP JUMPDEST PUSH2 0x3B1 DUP3 DUP3 DUP6 PUSH2 0x2F1 JUMP JUMPDEST PUSH0 PUSH1 0x20 SWAP1 POP PUSH1 0x1F DUP4 GT PUSH1 0x1 DUP2 EQ PUSH2 0x3E2 JUMPI PUSH0 DUP5 ISZERO PUSH2 0x3D0 JUMPI DUP3 DUP8 ADD MLOAD SWAP1 POP JUMPDEST PUSH2 0x3DA DUP6 DUP3 PUSH2 0x35F JUMP JUMPDEST DUP7 SSTORE POP PUSH2 0x441 JUMP JUMPDEST PUSH1 0x1F NOT DUP5 AND PUSH2 0x3F0 DUP7 PUSH2 0x1D4 JUMP JUMPDEST PUSH0 JUMPDEST DUP3 DUP2 LT ISZERO PUSH2 0x417 JUMPI DUP5 DUP10 ADD MLOAD DUP3 SSTORE PUSH1 0x1 DUP3 ADD SWAP2 POP PUSH1 0x20 DUP6 ADD SWAP5 POP PUSH1 0x20 DUP2 ADD SWAP1 POP PUSH2 0x3F2 JUMP JUMPDEST DUP7 DUP4 LT ISZERO PUSH2 0x434 JUMPI DUP5 DUP10 ADD MLOAD PUSH2 0x430 PUSH1 0x1F DUP10 AND DUP3 PUSH2 0x343 JUMP JUMPDEST DUP4 SSTORE POP JUMPDEST PUSH1 0x1 PUSH1 0x2 DUP9 MUL ADD DUP9 SSTORE POP POP POP JUMPDEST POP POP POP POP POP POP JUMP JUMPDEST PUSH2 0xE4D DUP1 PUSH2 0x456 PUSH0 CODECOPY PUSH0 RETURN INVALID PUSH1 0x80 PUSH1 0x40 MSTORE CALLVALUE DUP1 ISZERO PUSH2 0xF JUMPI PUSH0 DUP1 REVERT JUMPDEST POP PUSH1 0x4 CALLDATASIZE LT PUSH2 0x7B JUMPI PUSH0 CALLDATALOAD PUSH1 0xE0 SHR DUP1 PUSH4 0xC136E5CD GT PUSH2 0x59 JUMPI DUP1 PUSH4 0xC136E5CD EQ PUSH2 0xD9 JUMPI DUP1 PUSH4 0xD1BD363D EQ PUSH2 0xF7 JUMPI DUP1 PUSH4 0xE4F2A84A EQ PUSH2 0x115 JUMPI DUP1 PUSH4 0xE5C5E9A3 EQ PUSH2 0x133 JUMPI PUSH2 0x7B JUMP JUMPDEST DUP1 PUSH4 0x53D9C506 EQ PUSH2 0x7F JUMPI DUP1 PUSH4 0x98F42E71 EQ PUSH2 0x9D JUMPI DUP1 PUSH4 0xBD14598F EQ PUSH2 0xBB JUMPI JUMPDEST PUSH0 DUP1 REVERT JUMPDEST PUSH2 0x87 PUSH2 0x166 JUMP JUMPDEST PUSH1 0x40 MLOAD PUSH2 0x94 SWAP2 SWAP1 PUSH2 0x480 JUMP JUMPDEST PUSH1 0x40 MLOAD DUP1 SWAP2 SUB SWAP1 RETURN JUMPDEST PUSH2 0xA5 PUSH2 0x1B7 JUMP JUMPDEST PUSH1 0x40 MLOAD PUSH2 0xB2 SWAP2 SWAP1 PUSH2 0x4DA JUMP JUMPDEST PUSH1 0x40 MLOAD DUP1 SWAP2 SUB SWAP1 RETURN JUMPDEST PUSH2 0xC3 PUSH2 0x1DE JUMP JUMPDEST PUSH1 0x40 MLOAD PUSH2 0xD0 SWAP2 SWAP1 PUSH2 0x480 JUMP JUMPDEST PUSH1 0x40 MLOAD DUP1 SWAP2 SUB SWAP1 RETURN JUMPDEST PUSH2 0xE1 PUSH2 0x22F JUMP JUMPDEST PUSH1 0x40 MLOAD PUSH2 0xEE SWAP2 SWAP1 PUSH2 0x50B JUMP JUMPDEST PUSH1 0x40 MLOAD DUP1 SWAP2 SUB SWAP1 RETURN JUMPDEST PUSH2 0xFF PUSH2 0x238 JUMP JUMPDEST PUSH1 0x40 MLOAD PUSH2 0x10C SWAP2 SWAP1 PUSH2 0x480 JUMP JUMPDEST PUSH1 0x40 MLOAD DUP1 SWAP2 SUB SWAP1 RETURN JUMPDEST PUSH2 0x11D PUSH2 0x2F8 JUMP JUMPDEST PUSH1 0x40 MLOAD PUSH2 0x12A SWAP2 SWAP1 PUSH2 0x480 JUMP JUMPDEST PUSH1 0x40 MLOAD DUP1 SWAP2 SUB SWAP1 RETURN JUMPDEST PUSH2 0x14D PUSH1 0x4 DUP1 CALLDATASIZE SUB DUP2 ADD SWAP1 PUSH2 0x148 SWAP2 SWAP1 PUSH2 0x661 JUMP JUMPDEST PUSH2 0x3B7 JUMP JUMPDEST PUSH1 0x40 MLOAD PUSH2 0x15D SWAP5 SWAP4 SWAP3 SWAP2 SWAP1 PUSH2 0x7DE JUMP JUMPDEST PUSH1 0x40 MLOAD DUP1 SWAP2 SUB SWAP1 RETURN JUMPDEST PUSH1 0x60 PUSH0 SLOAD PUSH1 0x1 PUSH0 SWAP1 SLOAD SWAP1 PUSH2 0x100 EXP SWAP1 DIV PUSH20 0xFFFFFFFFFFFFFFFFFFFFFFFFFFFFFFFFFFFFFFFF AND PUSH1 0x2 PUSH1 0x3 PUSH1 0x40 MLOAD PUSH1 0x20 ADD PUSH2 0x1A3 SWAP5 SWAP4 SWAP3 SWAP2 SWAP1 PUSH2 0xA71 JUMP JUMPDEST PUSH1 0x40 MLOAD PUSH1 0x20 DUP2 DUP4 SUB SUB DUP2 MSTORE SWAP1 PUSH1 0x40 MSTORE SWAP1 POP SWAP1 JUMP JUMPDEST PUSH0 PUSH32 0xC136E5CD004E82F058353AB3DB12C14743A794E7410F81C7458FEF31BB6358E9 SWAP1 POP SWAP1 JUMP JUMPDEST PUSH1 0x60 PUSH0 SLOAD PUSH1 0x1 PUSH0 SWAP1 SLOAD SWAP1 PUSH2 0x100 EXP SWAP1 DIV PUSH20 0xFFFFFFFFFFFFFFFFFFFFFFFFFFFFFFFFFFFFFFFF AND PUSH1 0x2 PUSH1 0x3 PUSH1 0x40 MLOAD PUSH1 0x20 ADD PUSH2 0x21B SWAP5 SWAP4 SWAP3 SWAP2 SWAP1 PUSH2 0xB98 JUMP JUMPDEST PUSH1 0x40 MLOAD PUSH1 0x20 DUP2 DUP4 SUB SUB DUP2 MSTORE SWAP1 PUSH1 0x40 MSTORE SWAP1 POP SWAP1 JUMP JUMPDEST PUSH0 PUSH2 0x508 SWAP1 POP SWAP1 JUMP JUMPDEST PUSH1 0x60 PUSH32 0xE87082F1450A46F8F3150D7BDA55BDA41A2B08D68ABDE6797CCC68BE30567335 PUSH0 SLOAD PUSH1 0x1 PUSH0 SWAP1 SLOAD SWAP1 PUSH2 0x100 EXP SWAP1 DIV PUSH20 0xFFFFFFFFFFFFFFFFFFFFFFFFFFFFFFFFFFFFFFFF AND PUSH1 0x2 PUSH1 0x3 PUSH1 0x40 MLOAD PUSH1 0x24 ADD PUSH2 0x296 SWAP5 SWAP4 SWAP3 SWAP2 SWAP1 PUSH2 0xB98 JUMP JUMPDEST PUSH1 0x40 MLOAD PUSH1 0x20 DUP2 DUP4 SUB SUB DUP2 MSTORE SWAP1 PUSH1 0x40 MSTORE SWAP1 PUSH28 0xFFFFFFFFFFFFFFFFFFFFFFFFFFFFFFFFFFFFFFFFFFFFFFFFFFFFFFFF NOT AND PUSH1 0x20 DUP3 ADD DUP1 MLOAD PUSH28 0xFFFFFFFFFFFFFFFFFFFFFFFFFFFFFFFFFFFFFFFFFFFFFFFFFFFFFFFF DUP4 DUP2 DUP4 AND OR DUP4 MSTORE POP POP POP POP SWAP1 POP SWAP1 JUMP JUMPDEST PUSH1 0x60 PUSH0 SLOAD PUSH1 0x1 PUSH0 SWAP1 SLOAD SWAP1 PUSH2 0x100 EXP SWAP1 DIV PUSH20 0xFFFFFFFFFFFFFFFFFFFFFFFFFFFFFFFFFFFFFFFF AND PUSH1 0x2 PUSH1 0x3 PUSH1 0x40 MLOAD PUSH1 0x24 ADD PUSH2 0x335 SWAP5 SWAP4 SWAP3 SWAP2 SWAP1 PUSH2 0xB98 JUMP JUMPDEST PUSH1 0x40 MLOAD PUSH1 0x20 DUP2 DUP4 SUB SUB DUP2 MSTORE SWAP1 PUSH1 0x40 MSTORE PUSH32 0xE87082F100000000000000000000000000000000000000000000000000000000 PUSH28 0xFFFFFFFFFFFFFFFFFFFFFFFFFFFFFFFFFFFFFFFFFFFFFFFFFFFFFFFF NOT AND PUSH1 0x20 DUP3 ADD DUP1 MLOAD PUSH28 0xFFFFFFFFFFFFFFFFFFFFFFFFFFFFFFFFFFFFFFFFFFFFFFFFFFFFFFFF DUP4 DUP2 DUP4 AND OR DUP4 MSTORE POP POP POP POP SWAP1 POP SWAP1 JUMP JUMPDEST PUSH0 DUP1 PUSH1 0x60 PUSH2 0x3C3 PUSH2 0x3EE JUMP JUMPDEST DUP5 DUP1 PUSH1 0x20 ADD SWAP1 MLOAD DUP2 ADD SWAP1 PUSH2 0x3D7 SWAP2 SWAP1 PUSH2 0xD97 JUMP JUMPDEST DUP1 SWAP5 POP DUP2 SWAP6 POP DUP3 SWAP7 POP DUP4 SWAP8 POP POP POP POP POP SWAP2 SWAP4 POP SWAP2 SWAP4 JUMP JUMPDEST PUSH1 0x40 MLOAD DUP1 PUSH1 0x40 ADD PUSH1 0x40 MSTORE DUP1 PUSH1 0x2 SWAP1 PUSH1 0x20 DUP3 MUL DUP1 CALLDATASIZE DUP4 CALLDATACOPY DUP1 DUP3 ADD SWAP2 POP POP SWAP1 POP POP SWAP1 JUMP JUMPDEST PUSH0 DUP2 MLOAD SWAP1 POP SWAP2 SWAP1 POP JUMP JUMPDEST PUSH0 DUP3 DUP3 MSTORE PUSH1 0x20 DUP3 ADD SWAP1 POP SWAP3 SWAP2 POP POP JUMP JUMPDEST DUP3 DUP2 DUP4 MCOPY PUSH0 DUP4 DUP4 ADD MSTORE POP POP POP JUMP JUMPDEST PUSH0 PUSH1 0x1F NOT PUSH1 0x1F DUP4 ADD AND SWAP1 POP SWAP2 SWAP1 POP JUMP JUMPDEST PUSH0 PUSH2 0x452 DUP3 PUSH2 0x410 JUMP JUMPDEST PUSH2 0x45C DUP2 DUP6 PUSH2 0x41A JUMP JUMPDEST SWAP4 POP PUSH2 0x46C DUP2 DUP6 PUSH1 0x20 DUP7 ADD PUSH2 0x42A JUMP JUMPDEST PUSH2 0x475 DUP2 PUSH2 0x438 JUMP JUMPDEST DUP5 ADD SWAP2 POP POP SWAP3 SWAP2 POP POP JUMP JUMPDEST PUSH0 PUSH1 0x20 DUP3 ADD SWAP1 POP DUP2 DUP2 SUB PUSH0 DUP4 ADD MSTORE PUSH2 0x498 DUP2 DUP5 PUSH2 0x448 JUMP JUMPDEST SWAP1 POP SWAP3 SWAP2 POP POP JUMP JUMPDEST PUSH0 PUSH32 0xFFFFFFFF00000000000000000000000000000000000000000000000000000000 DUP3 AND SWAP1 POP SWAP2 SWAP1 POP JUMP JUMPDEST PUSH2 0x4D4 DUP2 PUSH2 0x4A0 JUMP JUMPDEST DUP3 MSTORE POP POP JUMP JUMPDEST PUSH0 PUSH1 0x20 DUP3 ADD SWAP1 POP PUSH2 0x4ED PUSH0 DUP4 ADD DUP5 PUSH2 0x4CB JUMP JUMPDEST SWAP3 SWAP2 POP POP JUMP JUMPDEST PUSH0 DUP2 SWAP1 POP SWAP2 SWAP1 POP JUMP JUMPDEST PUSH2 0x505 DUP2 PUSH2 0x4F3 JUMP JUMPDEST DUP3 MSTORE POP POP JUMP JUMPDEST PUSH0 PUSH1 0x20 DUP3 ADD SWAP1 POP PUSH2 0x51E PUSH0 DUP4 ADD DUP5 PUSH2 0x4FC JUMP JUMPDEST SWAP3 SWAP2 POP POP JUMP JUMPDEST PUSH0 PUSH1 0x40 MLOAD SWAP1 POP SWAP1 JUMP JUMPDEST PUSH0 DUP1 REVERT JUMPDEST PUSH0 DUP1 REVERT JUMPDEST PUSH0 DUP1 REVERT JUMPDEST PUSH0 DUP1 REVERT JUMPDEST PUSH32 0x4E487B7100000000000000000000000000000000000000000000000000000000 PUSH0 MSTORE PUSH1 0x41 PUSH1 0x4 MSTORE PUSH1 0x24 PUSH0 REVERT JUMPDEST PUSH2 0x573 DUP3 PUSH2 0x438 JUMP JUMPDEST DUP2 ADD DUP2 DUP2 LT PUSH8 0xFFFFFFFFFFFFFFFF DUP3 GT OR ISZERO PUSH2 0x592 JUMPI PUSH2 0x591 PUSH2 0x53D JUMP JUMPDEST JUMPDEST DUP1 PUSH1 0x40 MSTORE POP POP POP JUMP JUMPDEST PUSH0 PUSH2 0x5A4 PUSH2 0x524 JUMP JUMPDEST SWAP1 POP PUSH2 0x5B0 DUP3 DUP3 PUSH2 0x56A JUMP JUMPDEST SWAP2 SWAP1 POP JUMP JUMPDEST PUSH0 PUSH8 0xFFFFFFFFFFFFFFFF DUP3 GT ISZERO PUSH2 0x5CF JUMPI PUSH2 0x5CE PUSH2 0x53D JUMP JUMPDEST JUMPDEST PUSH2 0x5D8 DUP3 PUSH2 0x438 JUMP JUMPDEST SWAP1 POP PUSH1 0x20 DUP2 ADD SWAP1 POP SWAP2 SWAP1 POP JUMP JUMPDEST DUP3 DUP2 DUP4 CALLDATACOPY PUSH0 DUP4 DUP4 ADD MSTORE POP POP POP JUMP JUMPDEST PUSH0 PUSH2 0x605 PUSH2 0x600 DUP5 PUSH2 0x5B5 JUMP JUMPDEST PUSH2 0x59B JUMP JUMPDEST SWAP1 POP DUP3 DUP2 MSTORE PUSH1 0x20 DUP2 ADD DUP5 DUP5 DUP5 ADD GT ISZERO PUSH2 0x621 JUMPI PUSH2 0x620 PUSH2 0x539 JUMP JUMPDEST JUMPDEST PUSH2 0x62C DUP5 DUP3 DUP6 PUSH2 0x5E5 JUMP JUMPDEST POP SWAP4 SWAP3 POP POP POP JUMP JUMPDEST PUSH0 DUP3 PUSH1 0x1F DUP4 ADD SLT PUSH2 0x648 JUMPI PUSH2 0x647 PUSH2 0x535 JUMP JUMPDEST JUMPDEST DUP2 CALLDATALOAD PUSH2 0x658 DUP5 DUP3 PUSH1 0x20 DUP7 ADD PUSH2 0x5F3 JUMP JUMPDEST SWAP2 POP POP SWAP3 SWAP2 POP POP JUMP JUMPDEST PUSH0 PUSH1 0x20 DUP3 DUP5 SUB SLT ISZERO PUSH2 0x676 JUMPI PUSH2 0x675 PUSH2 0x52D JUMP JUMPDEST JUMPDEST PUSH0 DUP3 ADD CALLDATALOAD PUSH8 0xFFFFFFFFFFFFFFFF DUP2 GT ISZERO PUSH2 0x693 JUMPI PUSH2 0x692 PUSH2 0x531 JUMP JUMPDEST JUMPDEST PUSH2 0x69F DUP5 DUP3 DUP6 ADD PUSH2 0x634 JUMP JUMPDEST SWAP2 POP POP SWAP3 SWAP2 POP POP JUMP JUMPDEST PUSH0 PUSH20 0xFFFFFFFFFFFFFFFFFFFFFFFFFFFFFFFFFFFFFFFF DUP3 AND SWAP1 POP SWAP2 SWAP1 POP JUMP JUMPDEST PUSH0 PUSH2 0x6D1 DUP3 PUSH2 0x6A8 JUMP JUMPDEST SWAP1 POP SWAP2 SWAP1 POP JUMP JUMPDEST PUSH2 0x6E1 DUP2 PUSH2 0x6C7 JUMP JUMPDEST DUP3 MSTORE POP POP JUMP JUMPDEST PUSH0 DUP2 MLOAD SWAP1 POP SWAP2 SWAP1 POP JUMP JUMPDEST PUSH0 DUP3 DUP3 MSTORE PUSH1 0x20 DUP3 ADD SWAP1 POP SWAP3 SWAP2 POP POP JUMP JUMPDEST PUSH0 PUSH2 0x70B DUP3 PUSH2 0x6E7 JUMP JUMPDEST PUSH2 0x715 DUP2 DUP6 PUSH2 0x6F1 JUMP JUMPDEST SWAP4 POP PUSH2 0x725 DUP2 DUP6 PUSH1 0x20 DUP7 ADD PUSH2 0x42A JUMP JUMPDEST PUSH2 0x72E DUP2 PUSH2 0x438 JUMP JUMPDEST DUP5 ADD SWAP2 POP POP SWAP3 SWAP2 POP POP JUMP JUMPDEST PUSH0 PUSH1 0x2 SWAP1 POP SWAP2 SWAP1 POP JUMP JUMPDEST PUSH0 DUP2 SWAP1 POP SWAP3 SWAP2 POP POP JUMP JUMPDEST PUSH0 DUP2 SWAP1 POP SWAP2 SWAP1 POP JUMP JUMPDEST PUSH2 0x75F DUP2 PUSH2 0x4F3 JUMP JUMPDEST DUP3 MSTORE POP POP JUMP JUMPDEST PUSH0 PUSH2 0x770 DUP4 DUP4 PUSH2 0x756 JUMP JUMPDEST PUSH1 0x20 DUP4 ADD SWAP1 POP SWAP3 SWAP2 POP POP JUMP JUMPDEST PUSH0 PUSH1 0x20 DUP3 ADD SWAP1 POP SWAP2 SWAP1 POP JUMP JUMPDEST PUSH2 0x791 DUP2 PUSH2 0x739 JUMP JUMPDEST PUSH2 0x79B DUP2 DUP5 PUSH2 0x743 JUMP JUMPDEST SWAP3 POP PUSH2 0x7A6 DUP3 PUSH2 0x74D JUMP JUMPDEST DUP1 PUSH0 JUMPDEST DUP4 DUP2 LT ISZERO PUSH2 0x7D6 JUMPI DUP2 MLOAD PUSH2 0x7BD DUP8 DUP3 PUSH2 0x765 JUMP JUMPDEST SWAP7 POP PUSH2 0x7C8 DUP4 PUSH2 0x77C JUMP JUMPDEST SWAP3 POP POP PUSH1 0x1 DUP2 ADD SWAP1 POP PUSH2 0x7A9 JUMP JUMPDEST POP POP POP POP POP POP JUMP JUMPDEST PUSH0 PUSH1 0xA0 DUP3 ADD SWAP1 POP PUSH2 0x7F1 PUSH0 DUP4 ADD DUP8 PUSH2 0x4FC JUMP JUMPDEST PUSH2 0x7FE PUSH1 0x20 DUP4 ADD DUP7 PUSH2 0x6D8 JUMP JUMPDEST DUP2 DUP2 SUB PUSH1 0x40 DUP4 ADD MSTORE PUSH2 0x810 DUP2 DUP6 PUSH2 0x701 JUMP JUMPDEST SWAP1 POP PUSH2 0x81F PUSH1 0x60 DUP4 ADD DUP5 PUSH2 0x788 JUMP JUMPDEST SWAP6 SWAP5 POP POP POP POP POP JUMP JUMPDEST PUSH0 DUP2 SWAP1 POP SWAP2 SWAP1 POP JUMP JUMPDEST PUSH2 0x842 PUSH2 0x83D DUP3 PUSH2 0x4F3 JUMP JUMPDEST PUSH2 0x828 JUMP JUMPDEST DUP3 MSTORE POP POP JUMP JUMPDEST PUSH0 DUP2 PUSH1 0x60 SHL SWAP1 POP SWAP2 SWAP1 POP JUMP JUMPDEST PUSH0 PUSH2 0x85E DUP3 PUSH2 0x848 JUMP JUMPDEST SWAP1 POP SWAP2 SWAP1 POP JUMP JUMPDEST PUSH0 PUSH2 0x86F DUP3 PUSH2 0x854 JUMP JUMPDEST SWAP1 POP SWAP2 SWAP1 POP JUMP JUMPDEST PUSH2 0x887 PUSH2 0x882 DUP3 PUSH2 0x6C7 JUMP JUMPDEST PUSH2 0x865 JUMP JUMPDEST DUP3 MSTORE POP POP JUMP JUMPDEST PUSH32 0x4E487B7100000000000000000000000000000000000000000000000000000000 PUSH0 MSTORE PUSH1 0x22 PUSH1 0x4 MSTORE PUSH1 0x24 PUSH0 REVERT JUMPDEST PUSH0 PUSH1 0x2 DUP3 DIV SWAP1 POP PUSH1 0x1 DUP3 AND DUP1 PUSH2 0x8D1 JUMPI PUSH1 0x7F DUP3 AND SWAP2 POP JUMPDEST PUSH1 0x20 DUP3 LT DUP2 SUB PUSH2 0x8E4 JUMPI PUSH2 0x8E3 PUSH2 0x88D JUMP JUMPDEST JUMPDEST POP SWAP2 SWAP1 POP JUMP JUMPDEST PUSH0 DUP2 SWAP1 POP SWAP3 SWAP2 POP POP JUMP JUMPDEST PUSH0 DUP2 SWAP1 POP DUP2 PUSH0 MSTORE PUSH1 0x20 PUSH0 KECCAK256 SWAP1 POP SWAP2 SWAP1 POP JUMP JUMPDEST PUSH0 DUP2 SLOAD PUSH2 0x912 DUP2 PUSH2 0x8BA JUMP JUMPDEST PUSH2 0x91C DUP2 DUP7 PUSH2 0x8EA JUMP JUMPDEST SWAP5 POP PUSH1 0x1 DUP3 AND PUSH0 DUP2 EQ PUSH2 0x936 JUMPI PUSH1 0x1 DUP2 EQ PUSH2 0x94B JUMPI PUSH2 0x97D JUMP JUMPDEST PUSH1 0xFF NOT DUP4 AND DUP7 MSTORE DUP2 ISZERO ISZERO DUP3 MUL DUP7 ADD SWAP4 POP PUSH2 0x97D JUMP JUMPDEST PUSH2 0x954 DUP6 PUSH2 0x8F4 JUMP JUMPDEST PUSH0 JUMPDEST DUP4 DUP2 LT ISZERO PUSH2 0x975 JUMPI DUP2 SLOAD DUP2 DUP10 ADD MSTORE PUSH1 0x1 DUP3 ADD SWAP2 POP PUSH1 0x20 DUP2 ADD SWAP1 POP PUSH2 0x956 JUMP JUMPDEST DUP4 DUP9 ADD SWAP6 POP POP POP JUMPDEST POP POP POP SWAP3 SWAP2 POP POP JUMP JUMPDEST PUSH0 PUSH1 0x2 SWAP1 POP SWAP2 SWAP1 POP JUMP JUMPDEST PUSH0 DUP2 SWAP1 POP SWAP3 SWAP2 POP POP JUMP JUMPDEST PUSH0 DUP2 SWAP1 POP SWAP2 SWAP1 POP JUMP JUMPDEST PUSH2 0x9AC DUP2 PUSH2 0x4F3 JUMP JUMPDEST DUP3 MSTORE POP POP JUMP JUMPDEST PUSH0 PUSH2 0x9BD DUP4 DUP4 PUSH2 0x9A3 JUMP JUMPDEST PUSH1 0x20 DUP4 ADD SWAP1 POP SWAP3 SWAP2 POP POP JUMP JUMPDEST PUSH0 DUP2 PUSH0 SHR SWAP1 POP SWAP2 SWAP1 POP JUMP JUMPDEST PUSH0 DUP2 SWAP1 POP SWAP2 SWAP1 POP JUMP JUMPDEST PUSH0 PUSH2 0x9EF PUSH2 0x9EA DUP4 PUSH2 0x9C9 JUMP JUMPDEST PUSH2 0x9D4 JUMP JUMPDEST SWAP1 POP SWAP2 SWAP1 POP JUMP JUMPDEST PUSH0 PUSH2 0xA01 DUP3 SLOAD PUSH2 0x9DD JUMP JUMPDEST SWAP1 POP SWAP2 SWAP1 POP JUMP JUMPDEST PUSH0 PUSH1 0x1 DUP3 ADD SWAP1 POP SWAP2 SWAP1 POP JUMP JUMPDEST PUSH2 0xA1D DUP2 PUSH2 0x986 JUMP JUMPDEST PUSH2 0xA27 DUP2 DUP5 PUSH2 0x990 JUMP JUMPDEST SWAP3 POP PUSH2 0xA32 DUP3 PUSH2 0x99A JUMP JUMPDEST DUP1 PUSH0 JUMPDEST DUP4 DUP2 LT ISZERO PUSH2 0xA69 JUMPI PUSH2 0xA46 DUP3 PUSH2 0x9F6 JUMP JUMPDEST PUSH2 0xA50 DUP8 DUP3 PUSH2 0x9B2 JUMP JUMPDEST SWAP7 POP PUSH2 0xA5B DUP4 PUSH2 0xA08 JUMP JUMPDEST SWAP3 POP POP PUSH1 0x1 DUP2 ADD SWAP1 POP PUSH2 0xA35 JUMP JUMPDEST POP POP POP POP POP POP JUMP JUMPDEST PUSH0 PUSH2 0xA7C DUP3 DUP8 PUSH2 0x831 JUMP JUMPDEST PUSH1 0x20 DUP3 ADD SWAP2 POP PUSH2 0xA8C DUP3 DUP7 PUSH2 0x876 JUMP JUMPDEST PUSH1 0x14 DUP3 ADD SWAP2 POP PUSH2 0xA9C DUP3 DUP6 PUSH2 0x906 JUMP JUMPDEST SWAP2 POP PUSH2 0xAA8 DUP3 DUP5 PUSH2 0xA14 JUMP JUMPDEST PUSH1 0x40 DUP3 ADD SWAP2 POP DUP2 SWAP1 POP SWAP6 SWAP5 POP POP POP POP POP JUMP JUMPDEST PUSH0 DUP2 SLOAD PUSH2 0xAC6 DUP2 PUSH2 0x8BA JUMP JUMPDEST PUSH2 0xAD0 DUP2 DUP7 PUSH2 0x6F1 JUMP JUMPDEST SWAP5 POP PUSH1 0x1 DUP3 AND PUSH0 DUP2 EQ PUSH2 0xAEA JUMPI PUSH1 0x1 DUP2 EQ PUSH2 0xB00 JUMPI PUSH2 0xB32 JUMP JUMPDEST PUSH1 0xFF NOT DUP4 AND DUP7 MSTORE DUP2 ISZERO ISZERO PUSH1 0x20 MUL DUP7 ADD SWAP4 POP PUSH2 0xB32 JUMP JUMPDEST PUSH2 0xB09 DUP6 PUSH2 0x8F4 JUMP JUMPDEST PUSH0 JUMPDEST DUP4 DUP2 LT ISZERO PUSH2 0xB2A JUMPI DUP2 SLOAD DUP2 DUP10 ADD MSTORE PUSH1 0x1 DUP3 ADD SWAP2 POP PUSH1 0x20 DUP2 ADD SWAP1 POP PUSH2 0xB0B JUMP JUMPDEST DUP1 DUP9 ADD SWAP6 POP POP POP JUMPDEST POP POP POP SWAP3 SWAP2 POP POP JUMP JUMPDEST PUSH2 0xB44 DUP2 PUSH2 0x986 JUMP JUMPDEST PUSH2 0xB4E DUP2 DUP5 PUSH2 0x743 JUMP JUMPDEST SWAP3 POP PUSH2 0xB59 DUP3 PUSH2 0x99A JUMP JUMPDEST DUP1 PUSH0 JUMPDEST DUP4 DUP2 LT ISZERO PUSH2 0xB90 JUMPI PUSH2 0xB6D DUP3 PUSH2 0x9F6 JUMP JUMPDEST PUSH2 0xB77 DUP8 DUP3 PUSH2 0x765 JUMP JUMPDEST SWAP7 POP PUSH2 0xB82 DUP4 PUSH2 0xA08 JUMP JUMPDEST SWAP3 POP POP PUSH1 0x1 DUP2 ADD SWAP1 POP PUSH2 0xB5C JUMP JUMPDEST POP POP POP POP POP POP JUMP JUMPDEST PUSH0 PUSH1 0xA0 DUP3 ADD SWAP1 POP PUSH2 0xBAB PUSH0 DUP4 ADD DUP8 PUSH2 0x4FC JUMP JUMPDEST PUSH2 0xBB8 PUSH1 0x20 DUP4 ADD DUP7 PUSH2 0x6D8 JUMP JUMPDEST DUP2 DUP2 SUB PUSH1 0x40 DUP4 ADD MSTORE PUSH2 0xBCA DUP2 DUP6 PUSH2 0xABA JUMP JUMPDEST SWAP1 POP PUSH2 0xBD9 PUSH1 0x60 DUP4 ADD DUP5 PUSH2 0xB3B JUMP JUMPDEST SWAP6 SWAP5 POP POP POP POP POP JUMP JUMPDEST PUSH2 0xBEB DUP2 PUSH2 0x4F3 JUMP JUMPDEST DUP2 EQ PUSH2 0xBF5 JUMPI PUSH0 DUP1 REVERT JUMPDEST POP JUMP JUMPDEST PUSH0 DUP2 MLOAD SWAP1 POP PUSH2 0xC06 DUP2 PUSH2 0xBE2 JUMP JUMPDEST SWAP3 SWAP2 POP POP JUMP JUMPDEST PUSH0 PUSH2 0xC16 DUP3 PUSH2 0x6A8 JUMP JUMPDEST SWAP1 POP SWAP2 SWAP1 POP JUMP JUMPDEST PUSH2 0xC26 DUP2 PUSH2 0xC0C JUMP JUMPDEST DUP2 EQ PUSH2 0xC30 JUMPI PUSH0 DUP1 REVERT JUMPDEST POP JUMP JUMPDEST PUSH0 DUP2 MLOAD SWAP1 POP PUSH2 0xC41 DUP2 PUSH2 0xC1D JUMP JUMPDEST SWAP3 SWAP2 POP POP JUMP JUMPDEST PUSH0 PUSH8 0xFFFFFFFFFFFFFFFF DUP3 GT ISZERO PUSH2 0xC61 JUMPI PUSH2 0xC60 PUSH2 0x53D JUMP JUMPDEST JUMPDEST PUSH2 0xC6A DUP3 PUSH2 0x438 JUMP JUMPDEST SWAP1 POP PUSH1 0x20 DUP2 ADD SWAP1 POP SWAP2 SWAP1 POP JUMP JUMPDEST PUSH0 PUSH2 0xC89 PUSH2 0xC84 DUP5 PUSH2 0xC47 JUMP JUMPDEST PUSH2 0x59B JUMP JUMPDEST SWAP1 POP DUP3 DUP2 MSTORE PUSH1 0x20 DUP2 ADD DUP5 DUP5 DUP5 ADD GT ISZERO PUSH2 0xCA5 JUMPI PUSH2 0xCA4 PUSH2 0x539 JUMP JUMPDEST JUMPDEST PUSH2 0xCB0 DUP5 DUP3 DUP6 PUSH2 0x42A JUMP JUMPDEST POP SWAP4 SWAP3 POP POP POP JUMP JUMPDEST PUSH0 DUP3 PUSH1 0x1F DUP4 ADD SLT PUSH2 0xCCC JUMPI PUSH2 0xCCB PUSH2 0x535 JUMP JUMPDEST JUMPDEST DUP2 MLOAD PUSH2 0xCDC DUP5 DUP3 PUSH1 0x20 DUP7 ADD PUSH2 0xC77 JUMP JUMPDEST SWAP2 POP POP SWAP3 SWAP2 POP POP JUMP JUMPDEST PUSH0 PUSH8 0xFFFFFFFFFFFFFFFF DUP3 GT ISZERO PUSH2 0xCFF JUMPI PUSH2 0xCFE PUSH2 0x53D JUMP JUMPDEST JUMPDEST PUSH1 0x20 DUP3 MUL SWAP1 POP SWAP2 SWAP1 POP JUMP JUMPDEST PUSH0 DUP1 REVERT JUMPDEST PUSH0 PUSH2 0xD20 PUSH2 0xD1B DUP5 PUSH2 0xCE5 JUMP JUMPDEST PUSH2 0x59B JUMP JUMPDEST SWAP1 POP DUP1 PUSH1 0x20 DUP5 MUL DUP4 ADD DUP6 DUP2 GT ISZERO PUSH2 0xD3A JUMPI PUSH2 0xD39 PUSH2 0xD0A JUMP JUMPDEST JUMPDEST DUP4 JUMPDEST DUP2 DUP2 LT ISZERO PUSH2 0xD63 JUMPI DUP1 PUSH2 0xD4F DUP9 DUP3 PUSH2 0xBF8 JUMP JUMPDEST DUP5 MSTORE PUSH1 0x20 DUP5 ADD SWAP4 POP POP PUSH1 0x20 DUP2 ADD SWAP1 POP PUSH2 0xD3C JUMP JUMPDEST POP POP POP SWAP4 SWAP3 POP POP POP JUMP JUMPDEST PUSH0 DUP3 PUSH1 0x1F DUP4 ADD SLT PUSH2 0xD81 JUMPI PUSH2 0xD80 PUSH2 0x535 JUMP JUMPDEST JUMPDEST PUSH1 0x2 PUSH2 0xD8E DUP5 DUP3 DUP6 PUSH2 0xD0E JUMP JUMPDEST SWAP2 POP POP SWAP3 SWAP2 POP POP JUMP JUMPDEST PUSH0 DUP1 PUSH0 DUP1 PUSH1 0xA0 DUP6 DUP8 SUB SLT ISZERO PUSH2 0xDAF JUMPI PUSH2 0xDAE PUSH2 0x52D JUMP JUMPDEST JUMPDEST PUSH0 PUSH2 0xDBC DUP8 DUP3 DUP9 ADD PUSH2 0xBF8 JUMP JUMPDEST SWAP5 POP POP PUSH1 0x20 PUSH2 0xDCD DUP8 DUP3 DUP9 ADD PUSH2 0xC33 JUMP JUMPDEST SWAP4 POP POP PUSH1 0x40 DUP6 ADD MLOAD PUSH8 0xFFFFFFFFFFFFFFFF DUP2 GT ISZERO PUSH2 0xDEE JUMPI PUSH2 0xDED PUSH2 0x531 JUMP JUMPDEST JUMPDEST PUSH2 0xDFA DUP8 DUP3 DUP9 ADD PUSH2 0xCB8 JUMP JUMPDEST SWAP3 POP POP PUSH1 0x60 PUSH2 0xE0B DUP8 DUP3 DUP9 ADD PUSH2 0xD6D JUMP JUMPDEST SWAP2 POP POP SWAP3 SWAP6 SWAP2 SWAP5 POP SWAP3 POP JUMP INVALID LOG2 PUSH5 0x6970667358 0x22 SLT KECCAK256 0xB5 0xC 0xD2 0xBA 0xD1 0x22 PUSH15 0x3C8C38F196D5B3FD42F07FC40B9DCC DUP9 ADDMOD 0xE3 SWAP3 SHL CALLDATACOPY SAR 0x28 0xE6 EXTCODESIZE PUSH5 0x736F6C6343 STOP ADDMOD BYTE STOP CALLER "
		},
		"gasEstimates": {
			"creation": {
				"codeDepositCost": "732200",
				"executionCost": "infinite",
				"totalCost": "infinite"
			},
			"external": {
				"decode(bytes)": "infinite",
				"encode()": "infinite",
				"encodePacked()": "infinite",
				"encodeWithSelector()": "infinite",
				"encodeWithSignature()": "infinite",
				"getStaticInt()": "332",
				"getStaticIntSelector()": "361"
			}
		},
		"methodIdentifiers": {
			"decode(bytes)": "e5c5e9a3",
			"encode()": "bd14598f",
			"encodePacked()": "53d9c506",
			"encodeWithSelector()": "d1bd363d",
			"encodeWithSignature()": "e4f2a84a",
			"getStaticInt()": "c136e5cd",
			"getStaticIntSelector()": "98f42e71"
		}
	},
	"abi": [
		{
			"inputs": [
				{
					"internalType": "bytes",
					"name": "data",
					"type": "bytes"
				}
			],
			"name": "decode",
			"outputs": [
				{
					"internalType": "uint256",
					"name": "dx",
					"type": "uint256"
				},
				{
					"internalType": "address",
					"name": "daddr",
					"type": "address"
				},
				{
					"internalType": "string",
					"name": "dname",
					"type": "string"
				},
				{
					"internalType": "uint256[2]",
					"name": "darray",
					"type": "uint256[2]"
				}
			],
			"stateMutability": "pure",
			"type": "function"
		},
		{
			"inputs": [],
			"name": "encode",
			"outputs": [
				{
					"internalType": "bytes",
					"name": "result",
					"type": "bytes"
				}
			],
			"stateMutability": "view",
			"type": "function"
		},
		{
			"inputs": [],
			"name": "encodePacked",
			"outputs": [
				{
					"internalType": "bytes",
					"name": "result",
					"type": "bytes"
				}
			],
			"stateMutability": "view",
			"type": "function"
		},
		{
			"inputs": [],
			"name": "encodeWithSelector",
			"outputs": [
				{
					"internalType": "bytes",
					"name": "result",
					"type": "bytes"
				}
			],
			"stateMutability": "view",
			"type": "function"
		},
		{
			"inputs": [],
			"name": "encodeWithSignature",
			"outputs": [
				{
					"internalType": "bytes",
					"name": "result",
					"type": "bytes"
				}
			],
			"stateMutability": "view",
			"type": "function"
		},
		{
			"inputs": [],
			"name": "getStaticInt",
			"outputs": [
				{
					"internalType": "uint256",
					"name": "result",
					"type": "uint256"
				}
			],
			"stateMutability": "pure",
			"type": "function"
		},
		{
			"inputs": [],
			"name": "getStaticIntSelector",
			"outputs": [
				{
					"internalType": "bytes4",
					"name": "result",
					"type": "bytes4"
				}
			],
			"stateMutability": "pure",
			"type": "function"
		}
	]
}