{
	"data": {
		"bytecode": {
			"linkReferences": {},
			"object": "6080604052348015600e575f80fd5b506105f78061001c5f395ff3fe608060405234801561000f575f80fd5b506004361061004a575f3560e01c80633bc5de301461004e578063aa44269d1461006c578063c104210b14610088578063e6b80ce6146100b9575b5f80fd5b6100566100d5565b604051610063919061032f565b60405180910390f35b610086600480360381019061008191906104da565b61012a565b005b6100a2600480360381019061009d91906104da565b610143565b6040516100b0929190610521565b60405180910390f35b6100d360048036038101906100ce9190610556565b6101e5565b005b60605f80548060200260200160405190810160405280929190818152602001828054801561012057602002820191905f5260205f20905b81548152602001906001019080831161010c575b5050505050905090565b805f908051906020019061013f929190610209565b5050565b606080600a8360018151811061015c5761015b610594565b5b60200260200101818152505060648360028151811061017e5761017d610594565b5b602002602001018181525050825f808054806020026020016040519081016040528092919081815260200182805480156101d557602002820191905f5260205f20905b8154815260200190600101908083116101c1575b5050505050905091509150915091565b805f83815481106101f9576101f8610594565b5b905f5260205f2001819055505050565b828054828255905f5260205f20908101928215610243579160200282015b82811115610242578251825591602001919060010190610227565b5b5090506102509190610254565b5090565b5b8082111561026b575f815f905550600101610255565b5090565b5f81519050919050565b5f82825260208201905092915050565b5f819050602082019050919050565b5f819050919050565b6102aa81610298565b82525050565b5f6102bb83836102a1565b60208301905092915050565b5f602082019050919050565b5f6102dd8261026f565b6102e78185610279565b93506102f283610289565b805f5b8381101561032257815161030988826102b0565b9750610314836102c7565b9250506001810190506102f5565b5085935050505092915050565b5f6020820190508181035f83015261034781846102d3565b905092915050565b5f604051905090565b5f80fd5b5f80fd5b5f80fd5b5f601f19601f8301169050919050565b7f4e487b71000000000000000000000000000000000000000000000000000000005f52604160045260245ffd5b6103aa82610364565b810181811067ffffffffffffffff821117156103c9576103c8610374565b5b80604052505050565b5f6103db61034f565b90506103e782826103a1565b919050565b5f67ffffffffffffffff82111561040657610405610374565b5b602082029050602081019050919050565b5f80fd5b61042481610298565b811461042e575f80fd5b50565b5f8135905061043f8161041b565b92915050565b5f610457610452846103ec565b6103d2565b9050808382526020820190506020840283018581111561047a57610479610417565b5b835b818110156104a3578061048f8882610431565b84526020840193505060208101905061047c565b5050509392505050565b5f82601f8301126104c1576104c0610360565b5b81356104d1848260208601610445565b91505092915050565b5f602082840312156104ef576104ee610358565b5b5f82013567ffffffffffffffff81111561050c5761050b61035c565b5b610518848285016104ad565b91505092915050565b5f6040820190508181035f83015261053981856102d3565b9050818103602083015261054d81846102d3565b90509392505050565b5f806040838503121561056c5761056b610358565b5b5f61057985828601610431565b925050602061058a85828601610431565b9150509250929050565b7f4e487b71000000000000000000000000000000000000000000000000000000005f52603260045260245ffdfea2646970667358221220770641d1d768bfb965818879a229601af311902ace9fa3c4777af72e47864ec064736f6c634300081a0033",
			"opcodes": "PUSH1 0x80 PUSH1 0x40 MSTORE CALLVALUE DUP1 ISZERO PUSH1 0xE JUMPI PUSH0 DUP1 REVERT JUMPDEST POP PUSH2 0x5F7 DUP1 PUSH2 0x1C PUSH0 CODECOPY PUSH0 RETURN INVALID PUSH1 0x80 PUSH1 0x40 MSTORE CALLVALUE DUP1 ISZERO PUSH2 0xF JUMPI PUSH0 DUP1 REVERT JUMPDEST POP PUSH1 0x4 CALLDATASIZE LT PUSH2 0x4A JUMPI PUSH0 CALLDATALOAD PUSH1 0xE0 SHR DUP1 PUSH4 0x3BC5DE30 EQ PUSH2 0x4E JUMPI DUP1 PUSH4 0xAA44269D EQ PUSH2 0x6C JUMPI DUP1 PUSH4 0xC104210B EQ PUSH2 0x88 JUMPI DUP1 PUSH4 0xE6B80CE6 EQ PUSH2 0xB9 JUMPI JUMPDEST PUSH0 DUP1 REVERT JUMPDEST PUSH2 0x56 PUSH2 0xD5 JUMP JUMPDEST PUSH1 0x40 MLOAD PUSH2 0x63 SWAP2 SWAP1 PUSH2 0x32F JUMP JUMPDEST PUSH1 0x40 MLOAD DUP1 SWAP2 SUB SWAP1 RETURN JUMPDEST PUSH2 0x86 PUSH1 0x4 DUP1 CALLDATASIZE SUB DUP2 ADD SWAP1 PUSH2 0x81 SWAP2 SWAP1 PUSH2 0x4DA JUMP JUMPDEST PUSH2 0x12A JUMP JUMPDEST STOP JUMPDEST PUSH2 0xA2 PUSH1 0x4 DUP1 CALLDATASIZE SUB DUP2 ADD SWAP1 PUSH2 0x9D SWAP2 SWAP1 PUSH2 0x4DA JUMP JUMPDEST PUSH2 0x143 JUMP JUMPDEST PUSH1 0x40 MLOAD PUSH2 0xB0 SWAP3 SWAP2 SWAP1 PUSH2 0x521 JUMP JUMPDEST PUSH1 0x40 MLOAD DUP1 SWAP2 SUB SWAP1 RETURN JUMPDEST PUSH2 0xD3 PUSH1 0x4 DUP1 CALLDATASIZE SUB DUP2 ADD SWAP1 PUSH2 0xCE SWAP2 SWAP1 PUSH2 0x556 JUMP JUMPDEST PUSH2 0x1E5 JUMP JUMPDEST STOP JUMPDEST PUSH1 0x60 PUSH0 DUP1 SLOAD DUP1 PUSH1 0x20 MUL PUSH1 0x20 ADD PUSH1 0x40 MLOAD SWAP1 DUP2 ADD PUSH1 0x40 MSTORE DUP1 SWAP3 SWAP2 SWAP1 DUP2 DUP2 MSTORE PUSH1 0x20 ADD DUP3 DUP1 SLOAD DUP1 ISZERO PUSH2 0x120 JUMPI PUSH1 0x20 MUL DUP3 ADD SWAP2 SWAP1 PUSH0 MSTORE PUSH1 0x20 PUSH0 KECCAK256 SWAP1 JUMPDEST DUP2 SLOAD DUP2 MSTORE PUSH1 0x20 ADD SWAP1 PUSH1 0x1 ADD SWAP1 DUP1 DUP4 GT PUSH2 0x10C JUMPI JUMPDEST POP POP POP POP POP SWAP1 POP SWAP1 JUMP JUMPDEST DUP1 PUSH0 SWAP1 DUP1 MLOAD SWAP1 PUSH1 0x20 ADD SWAP1 PUSH2 0x13F SWAP3 SWAP2 SWAP1 PUSH2 0x209 JUMP JUMPDEST POP POP JUMP JUMPDEST PUSH1 0x60 DUP1 PUSH1 0xA DUP4 PUSH1 0x1 DUP2 MLOAD DUP2 LT PUSH2 0x15C JUMPI PUSH2 0x15B PUSH2 0x594 JUMP JUMPDEST JUMPDEST PUSH1 0x20 MUL PUSH1 0x20 ADD ADD DUP2 DUP2 MSTORE POP POP PUSH1 0x64 DUP4 PUSH1 0x2 DUP2 MLOAD DUP2 LT PUSH2 0x17E JUMPI PUSH2 0x17D PUSH2 0x594 JUMP JUMPDEST JUMPDEST PUSH1 0x20 MUL PUSH1 0x20 ADD ADD DUP2 DUP2 MSTORE POP POP DUP3 PUSH0 DUP1 DUP1 SLOAD DUP1 PUSH1 0x20 MUL PUSH1 0x20 ADD PUSH1 0x40 MLOAD SWAP1 DUP2 ADD PUSH1 0x40 MSTORE DUP1 SWAP3 SWAP2 SWAP1 DUP2 DUP2 MSTORE PUSH1 0x20 ADD DUP3 DUP1 SLOAD DUP1 ISZERO PUSH2 0x1D5 JUMPI PUSH1 0x20 MUL DUP3 ADD SWAP2 SWAP1 PUSH0 MSTORE PUSH1 0x20 PUSH0 KECCAK256 SWAP1 JUMPDEST DUP2 SLOAD DUP2 MSTORE PUSH1 0x20 ADD SWAP1 PUSH1 0x1 ADD SWAP1 DUP1 DUP4 GT PUSH2 0x1C1 JUMPI JUMPDEST POP POP POP POP POP SWAP1 POP SWAP2 POP SWAP2 POP SWAP2 POP SWAP2 JUMP JUMPDEST DUP1 PUSH0 DUP4 DUP2 SLOAD DUP2 LT PUSH2 0x1F9 JUMPI PUSH2 0x1F8 PUSH2 0x594 JUMP JUMPDEST JUMPDEST SWAP1 PUSH0 MSTORE PUSH1 0x20 PUSH0 KECCAK256 ADD DUP2 SWAP1 SSTORE POP POP POP JUMP JUMPDEST DUP3 DUP1 SLOAD DUP3 DUP3 SSTORE SWAP1 PUSH0 MSTORE PUSH1 0x20 PUSH0 KECCAK256 SWAP1 DUP2 ADD SWAP3 DUP3 ISZERO PUSH2 0x243 JUMPI SWAP2 PUSH1 0x20 MUL DUP3 ADD JUMPDEST DUP3 DUP2 GT ISZERO PUSH2 0x242 JUMPI DUP3 MLOAD DUP3 SSTORE SWAP2 PUSH1 0x20 ADD SWAP2 SWAP1 PUSH1 0x1 ADD SWAP1 PUSH2 0x227 JUMP JUMPDEST JUMPDEST POP SWAP1 POP PUSH2 0x250 SWAP2 SWAP1 PUSH2 0x254 JUMP JUMPDEST POP SWAP1 JUMP JUMPDEST JUMPDEST DUP1 DUP3 GT ISZERO PUSH2 0x26B JUMPI PUSH0 DUP2 PUSH0 SWAP1 SSTORE POP PUSH1 0x1 ADD PUSH2 0x255 JUMP JUMPDEST POP SWAP1 JUMP JUMPDEST PUSH0 DUP2 MLOAD SWAP1 POP SWAP2 SWAP1 POP JUMP JUMPDEST PUSH0 DUP3 DUP3 MSTORE PUSH1 0x20 DUP3 ADD SWAP1 POP SWAP3 SWAP2 POP POP JUMP JUMPDEST PUSH0 DUP2 SWAP1 POP PUSH1 0x20 DUP3 ADD SWAP1 POP SWAP2 SWAP1 POP JUMP JUMPDEST PUSH0 DUP2 SWAP1 POP SWAP2 SWAP1 POP JUMP JUMPDEST PUSH2 0x2AA DUP2 PUSH2 0x298 JUMP JUMPDEST DUP3 MSTORE POP POP JUMP JUMPDEST PUSH0 PUSH2 0x2BB DUP4 DUP4 PUSH2 0x2A1 JUMP JUMPDEST PUSH1 0x20 DUP4 ADD SWAP1 POP SWAP3 SWAP2 POP POP JUMP JUMPDEST PUSH0 PUSH1 0x20 DUP3 ADD SWAP1 POP SWAP2 SWAP1 POP JUMP JUMPDEST PUSH0 PUSH2 0x2DD DUP3 PUSH2 0x26F JUMP JUMPDEST PUSH2 0x2E7 DUP2 DUP6 PUSH2 0x279 JUMP JUMPDEST SWAP4 POP PUSH2 0x2F2 DUP4 PUSH2 0x289 JUMP JUMPDEST DUP1 PUSH0 JUMPDEST DUP4 DUP2 LT ISZERO PUSH2 0x322 JUMPI DUP2 MLOAD PUSH2 0x309 DUP9 DUP3 PUSH2 0x2B0 JUMP JUMPDEST SWAP8 POP PUSH2 0x314 DUP4 PUSH2 0x2C7 JUMP JUMPDEST SWAP3 POP POP PUSH1 0x1 DUP2 ADD SWAP1 POP PUSH2 0x2F5 JUMP JUMPDEST POP DUP6 SWAP4 POP POP POP POP SWAP3 SWAP2 POP POP JUMP JUMPDEST PUSH0 PUSH1 0x20 DUP3 ADD SWAP1 POP DUP2 DUP2 SUB PUSH0 DUP4 ADD MSTORE PUSH2 0x347 DUP2 DUP5 PUSH2 0x2D3 JUMP JUMPDEST SWAP1 POP SWAP3 SWAP2 POP POP JUMP JUMPDEST PUSH0 PUSH1 0x40 MLOAD SWAP1 POP SWAP1 JUMP JUMPDEST PUSH0 DUP1 REVERT JUMPDEST PUSH0 DUP1 REVERT JUMPDEST PUSH0 DUP1 REVERT JUMPDEST PUSH0 PUSH1 0x1F NOT PUSH1 0x1F DUP4 ADD AND SWAP1 POP SWAP2 SWAP1 POP JUMP JUMPDEST PUSH32 0x4E487B7100000000000000000000000000000000000000000000000000000000 PUSH0 MSTORE PUSH1 0x41 PUSH1 0x4 MSTORE PUSH1 0x24 PUSH0 REVERT JUMPDEST PUSH2 0x3AA DUP3 PUSH2 0x364 JUMP JUMPDEST DUP2 ADD DUP2 DUP2 LT PUSH8 0xFFFFFFFFFFFFFFFF DUP3 GT OR ISZERO PUSH2 0x3C9 JUMPI PUSH2 0x3C8 PUSH2 0x374 JUMP JUMPDEST JUMPDEST DUP1 PUSH1 0x40 MSTORE POP POP POP JUMP JUMPDEST PUSH0 PUSH2 0x3DB PUSH2 0x34F JUMP JUMPDEST SWAP1 POP PUSH2 0x3E7 DUP3 DUP3 PUSH2 0x3A1 JUMP JUMPDEST SWAP2 SWAP1 POP JUMP JUMPDEST PUSH0 PUSH8 0xFFFFFFFFFFFFFFFF DUP3 GT ISZERO PUSH2 0x406 JUMPI PUSH2 0x405 PUSH2 0x374 JUMP JUMPDEST JUMPDEST PUSH1 0x20 DUP3 MUL SWAP1 POP PUSH1 0x20 DUP2 ADD SWAP1 POP SWAP2 SWAP1 POP JUMP JUMPDEST PUSH0 DUP1 REVERT JUMPDEST PUSH2 0x424 DUP2 PUSH2 0x298 JUMP JUMPDEST DUP2 EQ PUSH2 0x42E JUMPI PUSH0 DUP1 REVERT JUMPDEST POP JUMP JUMPDEST PUSH0 DUP2 CALLDATALOAD SWAP1 POP PUSH2 0x43F DUP2 PUSH2 0x41B JUMP JUMPDEST SWAP3 SWAP2 POP POP JUMP JUMPDEST PUSH0 PUSH2 0x457 PUSH2 0x452 DUP5 PUSH2 0x3EC JUMP JUMPDEST PUSH2 0x3D2 JUMP JUMPDEST SWAP1 POP DUP1 DUP4 DUP3 MSTORE PUSH1 0x20 DUP3 ADD SWAP1 POP PUSH1 0x20 DUP5 MUL DUP4 ADD DUP6 DUP2 GT ISZERO PUSH2 0x47A JUMPI PUSH2 0x479 PUSH2 0x417 JUMP JUMPDEST JUMPDEST DUP4 JUMPDEST DUP2 DUP2 LT ISZERO PUSH2 0x4A3 JUMPI DUP1 PUSH2 0x48F DUP9 DUP3 PUSH2 0x431 JUMP JUMPDEST DUP5 MSTORE PUSH1 0x20 DUP5 ADD SWAP4 POP POP PUSH1 0x20 DUP2 ADD SWAP1 POP PUSH2 0x47C JUMP JUMPDEST POP POP POP SWAP4 SWAP3 POP POP POP JUMP JUMPDEST PUSH0 DUP3 PUSH1 0x1F DUP4 ADD SLT PUSH2 0x4C1 JUMPI PUSH2 0x4C0 PUSH2 0x360 JUMP JUMPDEST JUMPDEST DUP2 CALLDATALOAD PUSH2 0x4D1 DUP5 DUP3 PUSH1 0x20 DUP7 ADD PUSH2 0x445 JUMP JUMPDEST SWAP2 POP POP SWAP3 SWAP2 POP POP JUMP JUMPDEST PUSH0 PUSH1 0x20 DUP3 DUP5 SUB SLT ISZERO PUSH2 0x4EF JUMPI PUSH2 0x4EE PUSH2 0x358 JUMP JUMPDEST JUMPDEST PUSH0 DUP3 ADD CALLDATALOAD PUSH8 0xFFFFFFFFFFFFFFFF DUP2 GT ISZERO PUSH2 0x50C JUMPI PUSH2 0x50B PUSH2 0x35C JUMP JUMPDEST JUMPDEST PUSH2 0x518 DUP5 DUP3 DUP6 ADD PUSH2 0x4AD JUMP JUMPDEST SWAP2 POP POP SWAP3 SWAP2 POP POP JUMP JUMPDEST PUSH0 PUSH1 0x40 DUP3 ADD SWAP1 POP DUP2 DUP2 SUB PUSH0 DUP4 ADD MSTORE PUSH2 0x539 DUP2 DUP6 PUSH2 0x2D3 JUMP JUMPDEST SWAP1 POP DUP2 DUP2 SUB PUSH1 0x20 DUP4 ADD MSTORE PUSH2 0x54D DUP2 DUP5 PUSH2 0x2D3 JUMP JUMPDEST SWAP1 POP SWAP4 SWAP3 POP POP POP JUMP JUMPDEST PUSH0 DUP1 PUSH1 0x40 DUP4 DUP6 SUB SLT ISZERO PUSH2 0x56C JUMPI PUSH2 0x56B PUSH2 0x358 JUMP JUMPDEST JUMPDEST PUSH0 PUSH2 0x579 DUP6 DUP3 DUP7 ADD PUSH2 0x431 JUMP JUMPDEST SWAP3 POP POP PUSH1 0x20 PUSH2 0x58A DUP6 DUP3 DUP7 ADD PUSH2 0x431 JUMP JUMPDEST SWAP2 POP POP SWAP3 POP SWAP3 SWAP1 POP JUMP JUMPDEST PUSH32 0x4E487B7100000000000000000000000000000000000000000000000000000000 PUSH0 MSTORE PUSH1 0x32 PUSH1 0x4 MSTORE PUSH1 0x24 PUSH0 REVERT INVALID LOG2 PUSH5 0x6970667358 0x22 SLT KECCAK256 PUSH24 0x641D1D768BFB965818879A229601AF311902ACE9FA3C477 PUSH27 0xF72E47864EC064736F6C634300081A003300000000000000000000 "
		},
		"gasEstimates": {
			"creation": {
				"codeDepositCost": "305400",
				"executionCost": "341",
				"totalCost": "305741"
			},
			"external": {
				"getData()": "infinite",
				"modifyMemoryData(uint256[])": "infinite",
				"modifyStorageData(uint256,uint256)": "infinite",
				"updateData(uint256[])": "infinite"
			}
		},
		"methodIdentifiers": {
			"getData()": "3bc5de30",
			"modifyMemoryData(uint256[])": "c104210b",
			"modifyStorageData(uint256,uint256)": "e6b80ce6",
			"updateData(uint256[])": "aa44269d"
		}
	},
	"abi": [
		{
			"inputs": [],
			"name": "getData",
			"outputs": [
				{
					"internalType": "uint256[]",
					"name": "",
					"type": "uint256[]"
				}
			],
			"stateMutability": "view",
			"type": "function"
		},
		{
			"inputs": [
				{
					"internalType": "uint256[]",
					"name": "memData",
					"type": "uint256[]"
				}
			],
			"name": "modifyMemoryData",
			"outputs": [
				{
					"internalType": "uint256[]",
					"name": "",
					"type": "uint256[]"
				},
				{
					"internalType": "uint256[]",
					"name": "",
					"type": "uint256[]"
				}
			],
			"stateMutability": "view",
			"type": "function"
		},
		{
			"inputs": [
				{
					"internalType": "uint256",
					"name": "index",
					"type": "uint256"
				},
				{
					"internalType": "uint256",
					"name": "value",
					"type": "uint256"
				}
			],
			"name": "modifyStorageData",
			"outputs": [],
			"stateMutability": "nonpayable",
			"type": "function"
		},
		{
			"inputs": [
				{
					"internalType": "uint256[]",
					"name": "newData",
					"type": "uint256[]"
				}
			],
			"name": "updateData",
			"outputs": [],
			"stateMutability": "nonpayable",
			"type": "function"
		}
	]
}