{
	"data": {
		"bytecode": {
			"linkReferences": {},
			"object": "6080604052348015600e575f80fd5b5061232d8061001c5f395ff3fe608060405234801561000f575f80fd5b5060043610610055575f3560e01c80633407abd01461005957806355d278e0146100895780635729c211146100b9578063e35d0f99146100e9578063feb465d914610119575b5f80fd5b610073600480360381019061006e9190611d32565b610149565b6040516100809190611d91565b60405180910390f35b6100a3600480360381019061009e9190611dd4565b610aa2565b6040516100b09190611e5f565b60405180910390f35b6100d360048036038101906100ce9190611d32565b6117c0565b6040516100e09190611e5f565b60405180910390f35b61010360048036038101906100fe9190611f43565b6118de565b6040516101109190611d91565b60405180910390f35b610133600480360381019061012e9190611f9d565b6119b5565b60405161014091906120ca565b60405180910390f35b5f808290505f805b8251811015610a97577f4d000000000000000000000000000000000000000000000000000000000000007effffffffffffffffffffffffffffffffffffffffffffffffffffffffffffff19168382815181106101b0576101af6120ea565b5b602001015160f81c60f81b7effffffffffffffffffffffffffffffffffffffffffffffffffffffffffffff1916036101f7576103e8826101f09190612144565b9150610a84565b7f44000000000000000000000000000000000000000000000000000000000000007effffffffffffffffffffffffffffffffffffffffffffffffffffffffffffff191683828151811061024d5761024c6120ea565b5b602001015160f81c60f81b7effffffffffffffffffffffffffffffffffffffffffffffffffffffffffffff191603610294576101f48261028d9190612144565b9150610a83565b7f43000000000000000000000000000000000000000000000000000000000000007effffffffffffffffffffffffffffffffffffffffffffffffffffffffffffff19168382815181106102ea576102e96120ea565b5b602001015160f81c60f81b7effffffffffffffffffffffffffffffffffffffffffffffffffffffffffffff1916036104d257825160018261032b9190612144565b1080156103c457507f4d000000000000000000000000000000000000000000000000000000000000007effffffffffffffffffffffffffffffffffffffffffffffffffffffffffffff1916836001836103849190612144565b81518110610395576103946120ea565b5b602001015160f81c60f81b7effffffffffffffffffffffffffffffffffffffffffffffffffffffffffffff1916145b156103ec57610384826103d79190612144565b915080806103e490612177565b9150506104cd565b82516001826103fb9190612144565b10801561049457507f44000000000000000000000000000000000000000000000000000000000000007effffffffffffffffffffffffffffffffffffffffffffffffffffffffffffff1916836001836104549190612144565b81518110610465576104646120ea565b5b602001015160f81c60f81b7effffffffffffffffffffffffffffffffffffffffffffffffffffffffffffff1916145b156104bc57610190826104a79190612144565b915080806104b490612177565b9150506104cc565b6064826104c99190612144565b91505b5b610a82565b7f4c000000000000000000000000000000000000000000000000000000000000007effffffffffffffffffffffffffffffffffffffffffffffffffffffffffffff1916838281518110610528576105276120ea565b5b602001015160f81c60f81b7effffffffffffffffffffffffffffffffffffffffffffffffffffffffffffff19160361056e576032826105679190612144565b9150610a81565b7f58000000000000000000000000000000000000000000000000000000000000007effffffffffffffffffffffffffffffffffffffffffffffffffffffffffffff19168382815181106105c4576105c36120ea565b5b602001015160f81c60f81b7effffffffffffffffffffffffffffffffffffffffffffffffffffffffffffff1916036107aa5782516001826106059190612144565b10801561069e57507f43000000000000000000000000000000000000000000000000000000000000007effffffffffffffffffffffffffffffffffffffffffffffffffffffffffffff19168360018361065e9190612144565b8151811061066f5761066e6120ea565b5b602001015160f81c60f81b7effffffffffffffffffffffffffffffffffffffffffffffffffffffffffffff1916145b156106c557605a826106b09190612144565b915080806106bd90612177565b9150506107a5565b82516001826106d49190612144565b10801561076d57507f4c000000000000000000000000000000000000000000000000000000000000007effffffffffffffffffffffffffffffffffffffffffffffffffffffffffffff19168360018361072d9190612144565b8151811061073e5761073d6120ea565b5b602001015160f81c60f81b7effffffffffffffffffffffffffffffffffffffffffffffffffffffffffffff1916145b156107945760288261077f9190612144565b9150808061078c90612177565b9150506107a4565b600a826107a19190612144565b91505b5b610a80565b7f56000000000000000000000000000000000000000000000000000000000000007effffffffffffffffffffffffffffffffffffffffffffffffffffffffffffff1916838281518110610800576107ff6120ea565b5b602001015160f81c60f81b7effffffffffffffffffffffffffffffffffffffffffffffffffffffffffffff1916036108465760058261083f9190612144565b9150610a7f565b7f49000000000000000000000000000000000000000000000000000000000000007effffffffffffffffffffffffffffffffffffffffffffffffffffffffffffff191683828151811061089c5761089b6120ea565b5b602001015160f81c60f81b7effffffffffffffffffffffffffffffffffffffffffffffffffffffffffffff191603610a7e5782516001826108dd9190612144565b10801561097657507f58000000000000000000000000000000000000000000000000000000000000007effffffffffffffffffffffffffffffffffffffffffffffffffffffffffffff1916836001836109369190612144565b81518110610947576109466120ea565b5b602001015160f81c60f81b7effffffffffffffffffffffffffffffffffffffffffffffffffffffffffffff1916145b1561099d576009826109889190612144565b9150808061099590612177565b915050610a7d565b82516001826109ac9190612144565b108015610a4557507f56000000000000000000000000000000000000000000000000000000000000007effffffffffffffffffffffffffffffffffffffffffffffffffffffffffffff191683600183610a059190612144565b81518110610a1657610a156120ea565b5b602001015160f81c60f81b7effffffffffffffffffffffffffffffffffffffffffffffffffffffffffffff1916145b15610a6c57600482610a579190612144565b91508080610a6490612177565b915050610a7c565b600182610a799190612144565b91505b5b5b5b5b5b5b5b5b8080610a8f90612177565b915050610151565b508092505050919050565b60606001821080610ab45750610f9f82115b15610af4576040517f08c379a0000000000000000000000000000000000000000000000000000000008152600401610aeb90612208565b60405180910390fd5b5f6103e883610b039190612253565b90505f60646103e883610b169190612283565b85610b2191906122c4565b610b2b9190612253565b90505f600a606483610b3d9190612283565b6103e885610b4b9190612283565b87610b5691906122c4565b610b6091906122c4565b610b6a9190612253565b90505f600a82610b7a9190612283565b606484610b879190612283565b6103e886610b959190612283565b88610ba091906122c4565b610baa91906122c4565b610bb491906122c4565b90505f601067ffffffffffffffff811115610bd257610bd1611c0e565b5b6040519080825280601f01601f191660200182016040528015610c045781602001600182028036833780820191505090505b5090505f80861115610c97575f5b86811015610c95577f4d00000000000000000000000000000000000000000000000000000000000000838380610c4790612177565b945081518110610c5a57610c596120ea565b5b60200101907effffffffffffffffffffffffffffffffffffffffffffffffffffffffffffff191690815f1a9053508080600101915050610c12565b505b5f8511156110085760098503610d88577f4300000000000000000000000000000000000000000000000000000000000000828280610cd490612177565b935081518110610ce757610ce66120ea565b5b60200101907effffffffffffffffffffffffffffffffffffffffffffffffffffffffffffff191690815f1a9053507f4d00000000000000000000000000000000000000000000000000000000000000828280610d4290612177565b935081518110610d5557610d546120ea565b5b60200101907effffffffffffffffffffffffffffffffffffffffffffffffffffffffffffff191690815f1a905350611007565b60058510610e95577f4400000000000000000000000000000000000000000000000000000000000000828280610dbd90612177565b935081518110610dd057610dcf6120ea565b5b60200101907effffffffffffffffffffffffffffffffffffffffffffffffffffffffffffff191690815f1a9053505f5b600586610e0d91906122c4565b811015610e8f577f4300000000000000000000000000000000000000000000000000000000000000838380610e4190612177565b945081518110610e5457610e536120ea565b5b60200101907effffffffffffffffffffffffffffffffffffffffffffffffffffffffffffff191690815f1a9053508080600101915050610e00565b50611006565b60048503610f7e577f4300000000000000000000000000000000000000000000000000000000000000828280610eca90612177565b935081518110610edd57610edc6120ea565b5b60200101907effffffffffffffffffffffffffffffffffffffffffffffffffffffffffffff191690815f1a9053507f4400000000000000000000000000000000000000000000000000000000000000828280610f3890612177565b935081518110610f4b57610f4a6120ea565b5b60200101907effffffffffffffffffffffffffffffffffffffffffffffffffffffffffffff191690815f1a905350611005565b5f5b85811015611003577f4300000000000000000000000000000000000000000000000000000000000000838380610fb590612177565b945081518110610fc857610fc76120ea565b5b60200101907effffffffffffffffffffffffffffffffffffffffffffffffffffffffffffff191690815f1a9053508080600101915050610f80565b505b5b5b5b5f84111561137957600984036110f9577f580000000000000000000000000000000000000000000000000000000000000082828061104590612177565b935081518110611058576110576120ea565b5b60200101907effffffffffffffffffffffffffffffffffffffffffffffffffffffffffffff191690815f1a9053507f43000000000000000000000000000000000000000000000000000000000000008282806110b390612177565b9350815181106110c6576110c56120ea565b5b60200101907effffffffffffffffffffffffffffffffffffffffffffffffffffffffffffff191690815f1a905350611378565b60058410611206577f4c0000000000000000000000000000000000000000000000000000000000000082828061112e90612177565b935081518110611141576111406120ea565b5b60200101907effffffffffffffffffffffffffffffffffffffffffffffffffffffffffffff191690815f1a9053505f5b60058561117e91906122c4565b811015611200577f58000000000000000000000000000000000000000000000000000000000000008383806111b290612177565b9450815181106111c5576111c46120ea565b5b60200101907effffffffffffffffffffffffffffffffffffffffffffffffffffffffffffff191690815f1a9053508080600101915050611171565b50611377565b600484036112ef577f580000000000000000000000000000000000000000000000000000000000000082828061123b90612177565b93508151811061124e5761124d6120ea565b5b60200101907effffffffffffffffffffffffffffffffffffffffffffffffffffffffffffff191690815f1a9053507f4c000000000000000000000000000000000000000000000000000000000000008282806112a990612177565b9350815181106112bc576112bb6120ea565b5b60200101907effffffffffffffffffffffffffffffffffffffffffffffffffffffffffffff191690815f1a905350611376565b5f5b84811015611374577f580000000000000000000000000000000000000000000000000000000000000083838061132690612177565b945081518110611339576113386120ea565b5b60200101907effffffffffffffffffffffffffffffffffffffffffffffffffffffffffffff191690815f1a90535080806001019150506112f1565b505b5b5b5b5f8311156116ea576009830361146a577f49000000000000000000000000000000000000000000000000000000000000008282806113b690612177565b9350815181106113c9576113c86120ea565b5b60200101907effffffffffffffffffffffffffffffffffffffffffffffffffffffffffffff191690815f1a9053507f580000000000000000000000000000000000000000000000000000000000000082828061142490612177565b935081518110611437576114366120ea565b5b60200101907effffffffffffffffffffffffffffffffffffffffffffffffffffffffffffff191690815f1a9053506116e9565b60058310611577577f560000000000000000000000000000000000000000000000000000000000000082828061149f90612177565b9350815181106114b2576114b16120ea565b5b60200101907effffffffffffffffffffffffffffffffffffffffffffffffffffffffffffff191690815f1a9053505f5b6005846114ef91906122c4565b811015611571577f490000000000000000000000000000000000000000000000000000000000000083838061152390612177565b945081518110611536576115356120ea565b5b60200101907effffffffffffffffffffffffffffffffffffffffffffffffffffffffffffff191690815f1a90535080806001019150506114e2565b506116e8565b60048303611660577f49000000000000000000000000000000000000000000000000000000000000008282806115ac90612177565b9350815181106115bf576115be6120ea565b5b60200101907effffffffffffffffffffffffffffffffffffffffffffffffffffffffffffff191690815f1a9053507f560000000000000000000000000000000000000000000000000000000000000082828061161a90612177565b93508151811061162d5761162c6120ea565b5b60200101907effffffffffffffffffffffffffffffffffffffffffffffffffffffffffffff191690815f1a9053506116e7565b5f5b838110156116e5577f490000000000000000000000000000000000000000000000000000000000000083838061169790612177565b9450815181106116aa576116a96120ea565b5b60200101907effffffffffffffffffffffffffffffffffffffffffffffffffffffffffffff191690815f1a9053508080600101915050611662565b505b5b5b5b5f8167ffffffffffffffff81111561170557611704611c0e565b5b6040519080825280601f01601f1916602001820160405280156117375781602001600182028036833780820191505090505b5090505f5b828110156117b057838181518110611757576117566120ea565b5b602001015160f81c60f81b828281518110611775576117746120ea565b5b60200101907effffffffffffffffffffffffffffffffffffffffffffffffffffffffffffff191690815f1a905350808060010191505061173c565b5080975050505050505050919050565b60605f8290505f5b600282516117d69190612253565b8110156118d4578160018284516117ed91906122c4565b6117f791906122c4565b81518110611808576118076120ea565b5b602001015160f81c60f81b828281518110611826576118256120ea565b5b602001015160f81c60f81b838381518110611844576118436120ea565b5b6020010184600185875161185891906122c4565b61186291906122c4565b81518110611873576118726120ea565b5b60200101827effffffffffffffffffffffffffffffffffffffffffffffffffffffffffffff19165f1a9053827effffffffffffffffffffffffffffffffffffffffffffffffffffffffffffff19165f1a9053505080806001019150506117c8565b5080915050919050565b5f805f90505f600185516118f291906122c4565b90505f600282846119039190612144565b61190d9190612253565b90505b8281106119a8578486828151811061192b5761192a6120ea565b5b602002602001015103611943578093505050506119af565b84868281518110611957576119566120ea565b5b60200260200101511015611979576001816119729190612144565b9250611989565b60018161198691906122c4565b91505b600282846119979190612144565b6119a19190612253565b9050611910565b505f925050505b92915050565b60605f825184516119c69190612144565b67ffffffffffffffff8111156119df576119de611c0e565b5b604051908082528060200260200182016040528015611a0d5781602001602082028036833780820191505090505b5090505f805f5b865183108015611a245750855182105b15611b0e57858281518110611a3c57611a3b6120ea565b5b6020026020010151878481518110611a5757611a566120ea565b5b60200260200101511015611ab257868381518110611a7857611a776120ea565b5b6020026020010151848281518110611a9357611a926120ea565b5b6020026020010181815250508280611aaa90612177565b935050611afb565b858281518110611ac557611ac46120ea565b5b6020026020010151848281518110611ae057611adf6120ea565b5b6020026020010181815250508180611af790612177565b9250505b8080611b0690612177565b915050611a14565b5b8651831015611b7357868381518110611b2b57611b2a6120ea565b5b6020026020010151848281518110611b4657611b456120ea565b5b6020026020010181815250508280611b5d90612177565b9350508080611b6b90612177565b915050611b0f565b5b8551821015611bd857858281518110611b9057611b8f6120ea565b5b6020026020010151848281518110611bab57611baa6120ea565b5b6020026020010181815250508180611bc290612177565b9250508080611bd090612177565b915050611b74565b8394505050505092915050565b5f604051905090565b5f80fd5b5f80fd5b5f80fd5b5f80fd5b5f601f19601f8301169050919050565b7f4e487b71000000000000000000000000000000000000000000000000000000005f52604160045260245ffd5b611c4482611bfe565b810181811067ffffffffffffffff82111715611c6357611c62611c0e565b5b80604052505050565b5f611c75611be5565b9050611c818282611c3b565b919050565b5f67ffffffffffffffff821115611ca057611c9f611c0e565b5b611ca982611bfe565b9050602081019050919050565b828183375f83830152505050565b5f611cd6611cd184611c86565b611c6c565b905082815260208101848484011115611cf257611cf1611bfa565b5b611cfd848285611cb6565b509392505050565b5f82601f830112611d1957611d18611bf6565b5b8135611d29848260208601611cc4565b91505092915050565b5f60208284031215611d4757611d46611bee565b5b5f82013567ffffffffffffffff811115611d6457611d63611bf2565b5b611d7084828501611d05565b91505092915050565b5f819050919050565b611d8b81611d79565b82525050565b5f602082019050611da45f830184611d82565b92915050565b611db381611d79565b8114611dbd575f80fd5b50565b5f81359050611dce81611daa565b92915050565b5f60208284031215611de957611de8611bee565b5b5f611df684828501611dc0565b91505092915050565b5f81519050919050565b5f82825260208201905092915050565b8281835e5f83830152505050565b5f611e3182611dff565b611e3b8185611e09565b9350611e4b818560208601611e19565b611e5481611bfe565b840191505092915050565b5f6020820190508181035f830152611e778184611e27565b905092915050565b5f67ffffffffffffffff821115611e9957611e98611c0e565b5b602082029050602081019050919050565b5f80fd5b5f611ec0611ebb84611e7f565b611c6c565b90508083825260208201905060208402830185811115611ee357611ee2611eaa565b5b835b81811015611f0c5780611ef88882611dc0565b845260208401935050602081019050611ee5565b5050509392505050565b5f82601f830112611f2a57611f29611bf6565b5b8135611f3a848260208601611eae565b91505092915050565b5f8060408385031215611f5957611f58611bee565b5b5f83013567ffffffffffffffff811115611f7657611f75611bf2565b5b611f8285828601611f16565b9250506020611f9385828601611dc0565b9150509250929050565b5f8060408385031215611fb357611fb2611bee565b5b5f83013567ffffffffffffffff811115611fd057611fcf611bf2565b5b611fdc85828601611f16565b925050602083013567ffffffffffffffff811115611ffd57611ffc611bf2565b5b61200985828601611f16565b9150509250929050565b5f81519050919050565b5f82825260208201905092915050565b5f819050602082019050919050565b61204581611d79565b82525050565b5f612056838361203c565b60208301905092915050565b5f602082019050919050565b5f61207882612013565b612082818561201d565b935061208d8361202d565b805f5b838110156120bd5781516120a4888261204b565b97506120af83612062565b925050600181019050612090565b5085935050505092915050565b5f6020820190508181035f8301526120e2818461206e565b905092915050565b7f4e487b71000000000000000000000000000000000000000000000000000000005f52603260045260245ffd5b7f4e487b71000000000000000000000000000000000000000000000000000000005f52601160045260245ffd5b5f61214e82611d79565b915061215983611d79565b925082820190508082111561217157612170612117565b5b92915050565b5f61218182611d79565b91507fffffffffffffffffffffffffffffffffffffffffffffffffffffffffffffffff82036121b3576121b2612117565b5b600182019050919050565b7f496e76616c696420696e707574000000000000000000000000000000000000005f82015250565b5f6121f2600d83611e09565b91506121fd826121be565b602082019050919050565b5f6020820190508181035f83015261221f816121e6565b9050919050565b7f4e487b71000000000000000000000000000000000000000000000000000000005f52601260045260245ffd5b5f61225d82611d79565b915061226883611d79565b92508261227857612277612226565b5b828204905092915050565b5f61228d82611d79565b915061229883611d79565b92508282026122a681611d79565b915082820484148315176122bd576122bc612117565b5b5092915050565b5f6122ce82611d79565b91506122d983611d79565b92508282039050818111156122f1576122f0612117565b5b9291505056fea2646970667358221220270d1c00d29744ef75904ff9aedacc777b2ba4e4179b26a2adb8b75fcb18d7dd64736f6c634300081a0033",
			"opcodes": "PUSH1 0x80 PUSH1 0x40 MSTORE CALLVALUE DUP1 ISZERO PUSH1 0xE JUMPI PUSH0 DUP1 REVERT JUMPDEST POP PUSH2 0x232D DUP1 PUSH2 0x1C PUSH0 CODECOPY PUSH0 RETURN INVALID PUSH1 0x80 PUSH1 0x40 MSTORE CALLVALUE DUP1 ISZERO PUSH2 0xF JUMPI PUSH0 DUP1 REVERT JUMPDEST POP PUSH1 0x4 CALLDATASIZE LT PUSH2 0x55 JUMPI PUSH0 CALLDATALOAD PUSH1 0xE0 SHR DUP1 PUSH4 0x3407ABD0 EQ PUSH2 0x59 JUMPI DUP1 PUSH4 0x55D278E0 EQ PUSH2 0x89 JUMPI DUP1 PUSH4 0x5729C211 EQ PUSH2 0xB9 JUMPI DUP1 PUSH4 0xE35D0F99 EQ PUSH2 0xE9 JUMPI DUP1 PUSH4 0xFEB465D9 EQ PUSH2 0x119 JUMPI JUMPDEST PUSH0 DUP1 REVERT JUMPDEST PUSH2 0x73 PUSH1 0x4 DUP1 CALLDATASIZE SUB DUP2 ADD SWAP1 PUSH2 0x6E SWAP2 SWAP1 PUSH2 0x1D32 JUMP JUMPDEST PUSH2 0x149 JUMP JUMPDEST PUSH1 0x40 MLOAD PUSH2 0x80 SWAP2 SWAP1 PUSH2 0x1D91 JUMP JUMPDEST PUSH1 0x40 MLOAD DUP1 SWAP2 SUB SWAP1 RETURN JUMPDEST PUSH2 0xA3 PUSH1 0x4 DUP1 CALLDATASIZE SUB DUP2 ADD SWAP1 PUSH2 0x9E SWAP2 SWAP1 PUSH2 0x1DD4 JUMP JUMPDEST PUSH2 0xAA2 JUMP JUMPDEST PUSH1 0x40 MLOAD PUSH2 0xB0 SWAP2 SWAP1 PUSH2 0x1E5F JUMP JUMPDEST PUSH1 0x40 MLOAD DUP1 SWAP2 SUB SWAP1 RETURN JUMPDEST PUSH2 0xD3 PUSH1 0x4 DUP1 CALLDATASIZE SUB DUP2 ADD SWAP1 PUSH2 0xCE SWAP2 SWAP1 PUSH2 0x1D32 JUMP JUMPDEST PUSH2 0x17C0 JUMP JUMPDEST PUSH1 0x40 MLOAD PUSH2 0xE0 SWAP2 SWAP1 PUSH2 0x1E5F JUMP JUMPDEST PUSH1 0x40 MLOAD DUP1 SWAP2 SUB SWAP1 RETURN JUMPDEST PUSH2 0x103 PUSH1 0x4 DUP1 CALLDATASIZE SUB DUP2 ADD SWAP1 PUSH2 0xFE SWAP2 SWAP1 PUSH2 0x1F43 JUMP JUMPDEST PUSH2 0x18DE JUMP JUMPDEST PUSH1 0x40 MLOAD PUSH2 0x110 SWAP2 SWAP1 PUSH2 0x1D91 JUMP JUMPDEST PUSH1 0x40 MLOAD DUP1 SWAP2 SUB SWAP1 RETURN JUMPDEST PUSH2 0x133 PUSH1 0x4 DUP1 CALLDATASIZE SUB DUP2 ADD SWAP1 PUSH2 0x12E SWAP2 SWAP1 PUSH2 0x1F9D JUMP JUMPDEST PUSH2 0x19B5 JUMP JUMPDEST PUSH1 0x40 MLOAD PUSH2 0x140 SWAP2 SWAP1 PUSH2 0x20CA JUMP JUMPDEST PUSH1 0x40 MLOAD DUP1 SWAP2 SUB SWAP1 RETURN JUMPDEST PUSH0 DUP1 DUP3 SWAP1 POP PUSH0 DUP1 JUMPDEST DUP3 MLOAD DUP2 LT ISZERO PUSH2 0xA97 JUMPI PUSH32 0x4D00000000000000000000000000000000000000000000000000000000000000 PUSH31 0xFFFFFFFFFFFFFFFFFFFFFFFFFFFFFFFFFFFFFFFFFFFFFFFFFFFFFFFFFFFFFF NOT AND DUP4 DUP3 DUP2 MLOAD DUP2 LT PUSH2 0x1B0 JUMPI PUSH2 0x1AF PUSH2 0x20EA JUMP JUMPDEST JUMPDEST PUSH1 0x20 ADD ADD MLOAD PUSH1 0xF8 SHR PUSH1 0xF8 SHL PUSH31 0xFFFFFFFFFFFFFFFFFFFFFFFFFFFFFFFFFFFFFFFFFFFFFFFFFFFFFFFFFFFFFF NOT AND SUB PUSH2 0x1F7 JUMPI PUSH2 0x3E8 DUP3 PUSH2 0x1F0 SWAP2 SWAP1 PUSH2 0x2144 JUMP JUMPDEST SWAP2 POP PUSH2 0xA84 JUMP JUMPDEST PUSH32 0x4400000000000000000000000000000000000000000000000000000000000000 PUSH31 0xFFFFFFFFFFFFFFFFFFFFFFFFFFFFFFFFFFFFFFFFFFFFFFFFFFFFFFFFFFFFFF NOT AND DUP4 DUP3 DUP2 MLOAD DUP2 LT PUSH2 0x24D JUMPI PUSH2 0x24C PUSH2 0x20EA JUMP JUMPDEST JUMPDEST PUSH1 0x20 ADD ADD MLOAD PUSH1 0xF8 SHR PUSH1 0xF8 SHL PUSH31 0xFFFFFFFFFFFFFFFFFFFFFFFFFFFFFFFFFFFFFFFFFFFFFFFFFFFFFFFFFFFFFF NOT AND SUB PUSH2 0x294 JUMPI PUSH2 0x1F4 DUP3 PUSH2 0x28D SWAP2 SWAP1 PUSH2 0x2144 JUMP JUMPDEST SWAP2 POP PUSH2 0xA83 JUMP JUMPDEST PUSH32 0x4300000000000000000000000000000000000000000000000000000000000000 PUSH31 0xFFFFFFFFFFFFFFFFFFFFFFFFFFFFFFFFFFFFFFFFFFFFFFFFFFFFFFFFFFFFFF NOT AND DUP4 DUP3 DUP2 MLOAD DUP2 LT PUSH2 0x2EA JUMPI PUSH2 0x2E9 PUSH2 0x20EA JUMP JUMPDEST JUMPDEST PUSH1 0x20 ADD ADD MLOAD PUSH1 0xF8 SHR PUSH1 0xF8 SHL PUSH31 0xFFFFFFFFFFFFFFFFFFFFFFFFFFFFFFFFFFFFFFFFFFFFFFFFFFFFFFFFFFFFFF NOT AND SUB PUSH2 0x4D2 JUMPI DUP3 MLOAD PUSH1 0x1 DUP3 PUSH2 0x32B SWAP2 SWAP1 PUSH2 0x2144 JUMP JUMPDEST LT DUP1 ISZERO PUSH2 0x3C4 JUMPI POP PUSH32 0x4D00000000000000000000000000000000000000000000000000000000000000 PUSH31 0xFFFFFFFFFFFFFFFFFFFFFFFFFFFFFFFFFFFFFFFFFFFFFFFFFFFFFFFFFFFFFF NOT AND DUP4 PUSH1 0x1 DUP4 PUSH2 0x384 SWAP2 SWAP1 PUSH2 0x2144 JUMP JUMPDEST DUP2 MLOAD DUP2 LT PUSH2 0x395 JUMPI PUSH2 0x394 PUSH2 0x20EA JUMP JUMPDEST JUMPDEST PUSH1 0x20 ADD ADD MLOAD PUSH1 0xF8 SHR PUSH1 0xF8 SHL PUSH31 0xFFFFFFFFFFFFFFFFFFFFFFFFFFFFFFFFFFFFFFFFFFFFFFFFFFFFFFFFFFFFFF NOT AND EQ JUMPDEST ISZERO PUSH2 0x3EC JUMPI PUSH2 0x384 DUP3 PUSH2 0x3D7 SWAP2 SWAP1 PUSH2 0x2144 JUMP JUMPDEST SWAP2 POP DUP1 DUP1 PUSH2 0x3E4 SWAP1 PUSH2 0x2177 JUMP JUMPDEST SWAP2 POP POP PUSH2 0x4CD JUMP JUMPDEST DUP3 MLOAD PUSH1 0x1 DUP3 PUSH2 0x3FB SWAP2 SWAP1 PUSH2 0x2144 JUMP JUMPDEST LT DUP1 ISZERO PUSH2 0x494 JUMPI POP PUSH32 0x4400000000000000000000000000000000000000000000000000000000000000 PUSH31 0xFFFFFFFFFFFFFFFFFFFFFFFFFFFFFFFFFFFFFFFFFFFFFFFFFFFFFFFFFFFFFF NOT AND DUP4 PUSH1 0x1 DUP4 PUSH2 0x454 SWAP2 SWAP1 PUSH2 0x2144 JUMP JUMPDEST DUP2 MLOAD DUP2 LT PUSH2 0x465 JUMPI PUSH2 0x464 PUSH2 0x20EA JUMP JUMPDEST JUMPDEST PUSH1 0x20 ADD ADD MLOAD PUSH1 0xF8 SHR PUSH1 0xF8 SHL PUSH31 0xFFFFFFFFFFFFFFFFFFFFFFFFFFFFFFFFFFFFFFFFFFFFFFFFFFFFFFFFFFFFFF NOT AND EQ JUMPDEST ISZERO PUSH2 0x4BC JUMPI PUSH2 0x190 DUP3 PUSH2 0x4A7 SWAP2 SWAP1 PUSH2 0x2144 JUMP JUMPDEST SWAP2 POP DUP1 DUP1 PUSH2 0x4B4 SWAP1 PUSH2 0x2177 JUMP JUMPDEST SWAP2 POP POP PUSH2 0x4CC JUMP JUMPDEST PUSH1 0x64 DUP3 PUSH2 0x4C9 SWAP2 SWAP1 PUSH2 0x2144 JUMP JUMPDEST SWAP2 POP JUMPDEST JUMPDEST PUSH2 0xA82 JUMP JUMPDEST PUSH32 0x4C00000000000000000000000000000000000000000000000000000000000000 PUSH31 0xFFFFFFFFFFFFFFFFFFFFFFFFFFFFFFFFFFFFFFFFFFFFFFFFFFFFFFFFFFFFFF NOT AND DUP4 DUP3 DUP2 MLOAD DUP2 LT PUSH2 0x528 JUMPI PUSH2 0x527 PUSH2 0x20EA JUMP JUMPDEST JUMPDEST PUSH1 0x20 ADD ADD MLOAD PUSH1 0xF8 SHR PUSH1 0xF8 SHL PUSH31 0xFFFFFFFFFFFFFFFFFFFFFFFFFFFFFFFFFFFFFFFFFFFFFFFFFFFFFFFFFFFFFF NOT AND SUB PUSH2 0x56E JUMPI PUSH1 0x32 DUP3 PUSH2 0x567 SWAP2 SWAP1 PUSH2 0x2144 JUMP JUMPDEST SWAP2 POP PUSH2 0xA81 JUMP JUMPDEST PUSH32 0x5800000000000000000000000000000000000000000000000000000000000000 PUSH31 0xFFFFFFFFFFFFFFFFFFFFFFFFFFFFFFFFFFFFFFFFFFFFFFFFFFFFFFFFFFFFFF NOT AND DUP4 DUP3 DUP2 MLOAD DUP2 LT PUSH2 0x5C4 JUMPI PUSH2 0x5C3 PUSH2 0x20EA JUMP JUMPDEST JUMPDEST PUSH1 0x20 ADD ADD MLOAD PUSH1 0xF8 SHR PUSH1 0xF8 SHL PUSH31 0xFFFFFFFFFFFFFFFFFFFFFFFFFFFFFFFFFFFFFFFFFFFFFFFFFFFFFFFFFFFFFF NOT AND SUB PUSH2 0x7AA JUMPI DUP3 MLOAD PUSH1 0x1 DUP3 PUSH2 0x605 SWAP2 SWAP1 PUSH2 0x2144 JUMP JUMPDEST LT DUP1 ISZERO PUSH2 0x69E JUMPI POP PUSH32 0x4300000000000000000000000000000000000000000000000000000000000000 PUSH31 0xFFFFFFFFFFFFFFFFFFFFFFFFFFFFFFFFFFFFFFFFFFFFFFFFFFFFFFFFFFFFFF NOT AND DUP4 PUSH1 0x1 DUP4 PUSH2 0x65E SWAP2 SWAP1 PUSH2 0x2144 JUMP JUMPDEST DUP2 MLOAD DUP2 LT PUSH2 0x66F JUMPI PUSH2 0x66E PUSH2 0x20EA JUMP JUMPDEST JUMPDEST PUSH1 0x20 ADD ADD MLOAD PUSH1 0xF8 SHR PUSH1 0xF8 SHL PUSH31 0xFFFFFFFFFFFFFFFFFFFFFFFFFFFFFFFFFFFFFFFFFFFFFFFFFFFFFFFFFFFFFF NOT AND EQ JUMPDEST ISZERO PUSH2 0x6C5 JUMPI PUSH1 0x5A DUP3 PUSH2 0x6B0 SWAP2 SWAP1 PUSH2 0x2144 JUMP JUMPDEST SWAP2 POP DUP1 DUP1 PUSH2 0x6BD SWAP1 PUSH2 0x2177 JUMP JUMPDEST SWAP2 POP POP PUSH2 0x7A5 JUMP JUMPDEST DUP3 MLOAD PUSH1 0x1 DUP3 PUSH2 0x6D4 SWAP2 SWAP1 PUSH2 0x2144 JUMP JUMPDEST LT DUP1 ISZERO PUSH2 0x76D JUMPI POP PUSH32 0x4C00000000000000000000000000000000000000000000000000000000000000 PUSH31 0xFFFFFFFFFFFFFFFFFFFFFFFFFFFFFFFFFFFFFFFFFFFFFFFFFFFFFFFFFFFFFF NOT AND DUP4 PUSH1 0x1 DUP4 PUSH2 0x72D SWAP2 SWAP1 PUSH2 0x2144 JUMP JUMPDEST DUP2 MLOAD DUP2 LT PUSH2 0x73E JUMPI PUSH2 0x73D PUSH2 0x20EA JUMP JUMPDEST JUMPDEST PUSH1 0x20 ADD ADD MLOAD PUSH1 0xF8 SHR PUSH1 0xF8 SHL PUSH31 0xFFFFFFFFFFFFFFFFFFFFFFFFFFFFFFFFFFFFFFFFFFFFFFFFFFFFFFFFFFFFFF NOT AND EQ JUMPDEST ISZERO PUSH2 0x794 JUMPI PUSH1 0x28 DUP3 PUSH2 0x77F SWAP2 SWAP1 PUSH2 0x2144 JUMP JUMPDEST SWAP2 POP DUP1 DUP1 PUSH2 0x78C SWAP1 PUSH2 0x2177 JUMP JUMPDEST SWAP2 POP POP PUSH2 0x7A4 JUMP JUMPDEST PUSH1 0xA DUP3 PUSH2 0x7A1 SWAP2 SWAP1 PUSH2 0x2144 JUMP JUMPDEST SWAP2 POP JUMPDEST JUMPDEST PUSH2 0xA80 JUMP JUMPDEST PUSH32 0x5600000000000000000000000000000000000000000000000000000000000000 PUSH31 0xFFFFFFFFFFFFFFFFFFFFFFFFFFFFFFFFFFFFFFFFFFFFFFFFFFFFFFFFFFFFFF NOT AND DUP4 DUP3 DUP2 MLOAD DUP2 LT PUSH2 0x800 JUMPI PUSH2 0x7FF PUSH2 0x20EA JUMP JUMPDEST JUMPDEST PUSH1 0x20 ADD ADD MLOAD PUSH1 0xF8 SHR PUSH1 0xF8 SHL PUSH31 0xFFFFFFFFFFFFFFFFFFFFFFFFFFFFFFFFFFFFFFFFFFFFFFFFFFFFFFFFFFFFFF NOT AND SUB PUSH2 0x846 JUMPI PUSH1 0x5 DUP3 PUSH2 0x83F SWAP2 SWAP1 PUSH2 0x2144 JUMP JUMPDEST SWAP2 POP PUSH2 0xA7F JUMP JUMPDEST PUSH32 0x4900000000000000000000000000000000000000000000000000000000000000 PUSH31 0xFFFFFFFFFFFFFFFFFFFFFFFFFFFFFFFFFFFFFFFFFFFFFFFFFFFFFFFFFFFFFF NOT AND DUP4 DUP3 DUP2 MLOAD DUP2 LT PUSH2 0x89C JUMPI PUSH2 0x89B PUSH2 0x20EA JUMP JUMPDEST JUMPDEST PUSH1 0x20 ADD ADD MLOAD PUSH1 0xF8 SHR PUSH1 0xF8 SHL PUSH31 0xFFFFFFFFFFFFFFFFFFFFFFFFFFFFFFFFFFFFFFFFFFFFFFFFFFFFFFFFFFFFFF NOT AND SUB PUSH2 0xA7E JUMPI DUP3 MLOAD PUSH1 0x1 DUP3 PUSH2 0x8DD SWAP2 SWAP1 PUSH2 0x2144 JUMP JUMPDEST LT DUP1 ISZERO PUSH2 0x976 JUMPI POP PUSH32 0x5800000000000000000000000000000000000000000000000000000000000000 PUSH31 0xFFFFFFFFFFFFFFFFFFFFFFFFFFFFFFFFFFFFFFFFFFFFFFFFFFFFFFFFFFFFFF NOT AND DUP4 PUSH1 0x1 DUP4 PUSH2 0x936 SWAP2 SWAP1 PUSH2 0x2144 JUMP JUMPDEST DUP2 MLOAD DUP2 LT PUSH2 0x947 JUMPI PUSH2 0x946 PUSH2 0x20EA JUMP JUMPDEST JUMPDEST PUSH1 0x20 ADD ADD MLOAD PUSH1 0xF8 SHR PUSH1 0xF8 SHL PUSH31 0xFFFFFFFFFFFFFFFFFFFFFFFFFFFFFFFFFFFFFFFFFFFFFFFFFFFFFFFFFFFFFF NOT AND EQ JUMPDEST ISZERO PUSH2 0x99D JUMPI PUSH1 0x9 DUP3 PUSH2 0x988 SWAP2 SWAP1 PUSH2 0x2144 JUMP JUMPDEST SWAP2 POP DUP1 DUP1 PUSH2 0x995 SWAP1 PUSH2 0x2177 JUMP JUMPDEST SWAP2 POP POP PUSH2 0xA7D JUMP JUMPDEST DUP3 MLOAD PUSH1 0x1 DUP3 PUSH2 0x9AC SWAP2 SWAP1 PUSH2 0x2144 JUMP JUMPDEST LT DUP1 ISZERO PUSH2 0xA45 JUMPI POP PUSH32 0x5600000000000000000000000000000000000000000000000000000000000000 PUSH31 0xFFFFFFFFFFFFFFFFFFFFFFFFFFFFFFFFFFFFFFFFFFFFFFFFFFFFFFFFFFFFFF NOT AND DUP4 PUSH1 0x1 DUP4 PUSH2 0xA05 SWAP2 SWAP1 PUSH2 0x2144 JUMP JUMPDEST DUP2 MLOAD DUP2 LT PUSH2 0xA16 JUMPI PUSH2 0xA15 PUSH2 0x20EA JUMP JUMPDEST JUMPDEST PUSH1 0x20 ADD ADD MLOAD PUSH1 0xF8 SHR PUSH1 0xF8 SHL PUSH31 0xFFFFFFFFFFFFFFFFFFFFFFFFFFFFFFFFFFFFFFFFFFFFFFFFFFFFFFFFFFFFFF NOT AND EQ JUMPDEST ISZERO PUSH2 0xA6C JUMPI PUSH1 0x4 DUP3 PUSH2 0xA57 SWAP2 SWAP1 PUSH2 0x2144 JUMP JUMPDEST SWAP2 POP DUP1 DUP1 PUSH2 0xA64 SWAP1 PUSH2 0x2177 JUMP JUMPDEST SWAP2 POP POP PUSH2 0xA7C JUMP JUMPDEST PUSH1 0x1 DUP3 PUSH2 0xA79 SWAP2 SWAP1 PUSH2 0x2144 JUMP JUMPDEST SWAP2 POP JUMPDEST JUMPDEST JUMPDEST JUMPDEST JUMPDEST JUMPDEST JUMPDEST JUMPDEST JUMPDEST DUP1 DUP1 PUSH2 0xA8F SWAP1 PUSH2 0x2177 JUMP JUMPDEST SWAP2 POP POP PUSH2 0x151 JUMP JUMPDEST POP DUP1 SWAP3 POP POP POP SWAP2 SWAP1 POP JUMP JUMPDEST PUSH1 0x60 PUSH1 0x1 DUP3 LT DUP1 PUSH2 0xAB4 JUMPI POP PUSH2 0xF9F DUP3 GT JUMPDEST ISZERO PUSH2 0xAF4 JUMPI PUSH1 0x40 MLOAD PUSH32 0x8C379A000000000000000000000000000000000000000000000000000000000 DUP2 MSTORE PUSH1 0x4 ADD PUSH2 0xAEB SWAP1 PUSH2 0x2208 JUMP JUMPDEST PUSH1 0x40 MLOAD DUP1 SWAP2 SUB SWAP1 REVERT JUMPDEST PUSH0 PUSH2 0x3E8 DUP4 PUSH2 0xB03 SWAP2 SWAP1 PUSH2 0x2253 JUMP JUMPDEST SWAP1 POP PUSH0 PUSH1 0x64 PUSH2 0x3E8 DUP4 PUSH2 0xB16 SWAP2 SWAP1 PUSH2 0x2283 JUMP JUMPDEST DUP6 PUSH2 0xB21 SWAP2 SWAP1 PUSH2 0x22C4 JUMP JUMPDEST PUSH2 0xB2B SWAP2 SWAP1 PUSH2 0x2253 JUMP JUMPDEST SWAP1 POP PUSH0 PUSH1 0xA PUSH1 0x64 DUP4 PUSH2 0xB3D SWAP2 SWAP1 PUSH2 0x2283 JUMP JUMPDEST PUSH2 0x3E8 DUP6 PUSH2 0xB4B SWAP2 SWAP1 PUSH2 0x2283 JUMP JUMPDEST DUP8 PUSH2 0xB56 SWAP2 SWAP1 PUSH2 0x22C4 JUMP JUMPDEST PUSH2 0xB60 SWAP2 SWAP1 PUSH2 0x22C4 JUMP JUMPDEST PUSH2 0xB6A SWAP2 SWAP1 PUSH2 0x2253 JUMP JUMPDEST SWAP1 POP PUSH0 PUSH1 0xA DUP3 PUSH2 0xB7A SWAP2 SWAP1 PUSH2 0x2283 JUMP JUMPDEST PUSH1 0x64 DUP5 PUSH2 0xB87 SWAP2 SWAP1 PUSH2 0x2283 JUMP JUMPDEST PUSH2 0x3E8 DUP7 PUSH2 0xB95 SWAP2 SWAP1 PUSH2 0x2283 JUMP JUMPDEST DUP9 PUSH2 0xBA0 SWAP2 SWAP1 PUSH2 0x22C4 JUMP JUMPDEST PUSH2 0xBAA SWAP2 SWAP1 PUSH2 0x22C4 JUMP JUMPDEST PUSH2 0xBB4 SWAP2 SWAP1 PUSH2 0x22C4 JUMP JUMPDEST SWAP1 POP PUSH0 PUSH1 0x10 PUSH8 0xFFFFFFFFFFFFFFFF DUP2 GT ISZERO PUSH2 0xBD2 JUMPI PUSH2 0xBD1 PUSH2 0x1C0E JUMP JUMPDEST JUMPDEST PUSH1 0x40 MLOAD SWAP1 DUP1 DUP3 MSTORE DUP1 PUSH1 0x1F ADD PUSH1 0x1F NOT AND PUSH1 0x20 ADD DUP3 ADD PUSH1 0x40 MSTORE DUP1 ISZERO PUSH2 0xC04 JUMPI DUP2 PUSH1 0x20 ADD PUSH1 0x1 DUP3 MUL DUP1 CALLDATASIZE DUP4 CALLDATACOPY DUP1 DUP3 ADD SWAP2 POP POP SWAP1 POP JUMPDEST POP SWAP1 POP PUSH0 DUP1 DUP7 GT ISZERO PUSH2 0xC97 JUMPI PUSH0 JUMPDEST DUP7 DUP2 LT ISZERO PUSH2 0xC95 JUMPI PUSH32 0x4D00000000000000000000000000000000000000000000000000000000000000 DUP4 DUP4 DUP1 PUSH2 0xC47 SWAP1 PUSH2 0x2177 JUMP JUMPDEST SWAP5 POP DUP2 MLOAD DUP2 LT PUSH2 0xC5A JUMPI PUSH2 0xC59 PUSH2 0x20EA JUMP JUMPDEST JUMPDEST PUSH1 0x20 ADD ADD SWAP1 PUSH31 0xFFFFFFFFFFFFFFFFFFFFFFFFFFFFFFFFFFFFFFFFFFFFFFFFFFFFFFFFFFFFFF NOT AND SWAP1 DUP2 PUSH0 BYTE SWAP1 MSTORE8 POP DUP1 DUP1 PUSH1 0x1 ADD SWAP2 POP POP PUSH2 0xC12 JUMP JUMPDEST POP JUMPDEST PUSH0 DUP6 GT ISZERO PUSH2 0x1008 JUMPI PUSH1 0x9 DUP6 SUB PUSH2 0xD88 JUMPI PUSH32 0x4300000000000000000000000000000000000000000000000000000000000000 DUP3 DUP3 DUP1 PUSH2 0xCD4 SWAP1 PUSH2 0x2177 JUMP JUMPDEST SWAP4 POP DUP2 MLOAD DUP2 LT PUSH2 0xCE7 JUMPI PUSH2 0xCE6 PUSH2 0x20EA JUMP JUMPDEST JUMPDEST PUSH1 0x20 ADD ADD SWAP1 PUSH31 0xFFFFFFFFFFFFFFFFFFFFFFFFFFFFFFFFFFFFFFFFFFFFFFFFFFFFFFFFFFFFFF NOT AND SWAP1 DUP2 PUSH0 BYTE SWAP1 MSTORE8 POP PUSH32 0x4D00000000000000000000000000000000000000000000000000000000000000 DUP3 DUP3 DUP1 PUSH2 0xD42 SWAP1 PUSH2 0x2177 JUMP JUMPDEST SWAP4 POP DUP2 MLOAD DUP2 LT PUSH2 0xD55 JUMPI PUSH2 0xD54 PUSH2 0x20EA JUMP JUMPDEST JUMPDEST PUSH1 0x20 ADD ADD SWAP1 PUSH31 0xFFFFFFFFFFFFFFFFFFFFFFFFFFFFFFFFFFFFFFFFFFFFFFFFFFFFFFFFFFFFFF NOT AND SWAP1 DUP2 PUSH0 BYTE SWAP1 MSTORE8 POP PUSH2 0x1007 JUMP JUMPDEST PUSH1 0x5 DUP6 LT PUSH2 0xE95 JUMPI PUSH32 0x4400000000000000000000000000000000000000000000000000000000000000 DUP3 DUP3 DUP1 PUSH2 0xDBD SWAP1 PUSH2 0x2177 JUMP JUMPDEST SWAP4 POP DUP2 MLOAD DUP2 LT PUSH2 0xDD0 JUMPI PUSH2 0xDCF PUSH2 0x20EA JUMP JUMPDEST JUMPDEST PUSH1 0x20 ADD ADD SWAP1 PUSH31 0xFFFFFFFFFFFFFFFFFFFFFFFFFFFFFFFFFFFFFFFFFFFFFFFFFFFFFFFFFFFFFF NOT AND SWAP1 DUP2 PUSH0 BYTE SWAP1 MSTORE8 POP PUSH0 JUMPDEST PUSH1 0x5 DUP7 PUSH2 0xE0D SWAP2 SWAP1 PUSH2 0x22C4 JUMP JUMPDEST DUP2 LT ISZERO PUSH2 0xE8F JUMPI PUSH32 0x4300000000000000000000000000000000000000000000000000000000000000 DUP4 DUP4 DUP1 PUSH2 0xE41 SWAP1 PUSH2 0x2177 JUMP JUMPDEST SWAP5 POP DUP2 MLOAD DUP2 LT PUSH2 0xE54 JUMPI PUSH2 0xE53 PUSH2 0x20EA JUMP JUMPDEST JUMPDEST PUSH1 0x20 ADD ADD SWAP1 PUSH31 0xFFFFFFFFFFFFFFFFFFFFFFFFFFFFFFFFFFFFFFFFFFFFFFFFFFFFFFFFFFFFFF NOT AND SWAP1 DUP2 PUSH0 BYTE SWAP1 MSTORE8 POP DUP1 DUP1 PUSH1 0x1 ADD SWAP2 POP POP PUSH2 0xE00 JUMP JUMPDEST POP PUSH2 0x1006 JUMP JUMPDEST PUSH1 0x4 DUP6 SUB PUSH2 0xF7E JUMPI PUSH32 0x4300000000000000000000000000000000000000000000000000000000000000 DUP3 DUP3 DUP1 PUSH2 0xECA SWAP1 PUSH2 0x2177 JUMP JUMPDEST SWAP4 POP DUP2 MLOAD DUP2 LT PUSH2 0xEDD JUMPI PUSH2 0xEDC PUSH2 0x20EA JUMP JUMPDEST JUMPDEST PUSH1 0x20 ADD ADD SWAP1 PUSH31 0xFFFFFFFFFFFFFFFFFFFFFFFFFFFFFFFFFFFFFFFFFFFFFFFFFFFFFFFFFFFFFF NOT AND SWAP1 DUP2 PUSH0 BYTE SWAP1 MSTORE8 POP PUSH32 0x4400000000000000000000000000000000000000000000000000000000000000 DUP3 DUP3 DUP1 PUSH2 0xF38 SWAP1 PUSH2 0x2177 JUMP JUMPDEST SWAP4 POP DUP2 MLOAD DUP2 LT PUSH2 0xF4B JUMPI PUSH2 0xF4A PUSH2 0x20EA JUMP JUMPDEST JUMPDEST PUSH1 0x20 ADD ADD SWAP1 PUSH31 0xFFFFFFFFFFFFFFFFFFFFFFFFFFFFFFFFFFFFFFFFFFFFFFFFFFFFFFFFFFFFFF NOT AND SWAP1 DUP2 PUSH0 BYTE SWAP1 MSTORE8 POP PUSH2 0x1005 JUMP JUMPDEST PUSH0 JUMPDEST DUP6 DUP2 LT ISZERO PUSH2 0x1003 JUMPI PUSH32 0x4300000000000000000000000000000000000000000000000000000000000000 DUP4 DUP4 DUP1 PUSH2 0xFB5 SWAP1 PUSH2 0x2177 JUMP JUMPDEST SWAP5 POP DUP2 MLOAD DUP2 LT PUSH2 0xFC8 JUMPI PUSH2 0xFC7 PUSH2 0x20EA JUMP JUMPDEST JUMPDEST PUSH1 0x20 ADD ADD SWAP1 PUSH31 0xFFFFFFFFFFFFFFFFFFFFFFFFFFFFFFFFFFFFFFFFFFFFFFFFFFFFFFFFFFFFFF NOT AND SWAP1 DUP2 PUSH0 BYTE SWAP1 MSTORE8 POP DUP1 DUP1 PUSH1 0x1 ADD SWAP2 POP POP PUSH2 0xF80 JUMP JUMPDEST POP JUMPDEST JUMPDEST JUMPDEST JUMPDEST PUSH0 DUP5 GT ISZERO PUSH2 0x1379 JUMPI PUSH1 0x9 DUP5 SUB PUSH2 0x10F9 JUMPI PUSH32 0x5800000000000000000000000000000000000000000000000000000000000000 DUP3 DUP3 DUP1 PUSH2 0x1045 SWAP1 PUSH2 0x2177 JUMP JUMPDEST SWAP4 POP DUP2 MLOAD DUP2 LT PUSH2 0x1058 JUMPI PUSH2 0x1057 PUSH2 0x20EA JUMP JUMPDEST JUMPDEST PUSH1 0x20 ADD ADD SWAP1 PUSH31 0xFFFFFFFFFFFFFFFFFFFFFFFFFFFFFFFFFFFFFFFFFFFFFFFFFFFFFFFFFFFFFF NOT AND SWAP1 DUP2 PUSH0 BYTE SWAP1 MSTORE8 POP PUSH32 0x4300000000000000000000000000000000000000000000000000000000000000 DUP3 DUP3 DUP1 PUSH2 0x10B3 SWAP1 PUSH2 0x2177 JUMP JUMPDEST SWAP4 POP DUP2 MLOAD DUP2 LT PUSH2 0x10C6 JUMPI PUSH2 0x10C5 PUSH2 0x20EA JUMP JUMPDEST JUMPDEST PUSH1 0x20 ADD ADD SWAP1 PUSH31 0xFFFFFFFFFFFFFFFFFFFFFFFFFFFFFFFFFFFFFFFFFFFFFFFFFFFFFFFFFFFFFF NOT AND SWAP1 DUP2 PUSH0 BYTE SWAP1 MSTORE8 POP PUSH2 0x1378 JUMP JUMPDEST PUSH1 0x5 DUP5 LT PUSH2 0x1206 JUMPI PUSH32 0x4C00000000000000000000000000000000000000000000000000000000000000 DUP3 DUP3 DUP1 PUSH2 0x112E SWAP1 PUSH2 0x2177 JUMP JUMPDEST SWAP4 POP DUP2 MLOAD DUP2 LT PUSH2 0x1141 JUMPI PUSH2 0x1140 PUSH2 0x20EA JUMP JUMPDEST JUMPDEST PUSH1 0x20 ADD ADD SWAP1 PUSH31 0xFFFFFFFFFFFFFFFFFFFFFFFFFFFFFFFFFFFFFFFFFFFFFFFFFFFFFFFFFFFFFF NOT AND SWAP1 DUP2 PUSH0 BYTE SWAP1 MSTORE8 POP PUSH0 JUMPDEST PUSH1 0x5 DUP6 PUSH2 0x117E SWAP2 SWAP1 PUSH2 0x22C4 JUMP JUMPDEST DUP2 LT ISZERO PUSH2 0x1200 JUMPI PUSH32 0x5800000000000000000000000000000000000000000000000000000000000000 DUP4 DUP4 DUP1 PUSH2 0x11B2 SWAP1 PUSH2 0x2177 JUMP JUMPDEST SWAP5 POP DUP2 MLOAD DUP2 LT PUSH2 0x11C5 JUMPI PUSH2 0x11C4 PUSH2 0x20EA JUMP JUMPDEST JUMPDEST PUSH1 0x20 ADD ADD SWAP1 PUSH31 0xFFFFFFFFFFFFFFFFFFFFFFFFFFFFFFFFFFFFFFFFFFFFFFFFFFFFFFFFFFFFFF NOT AND SWAP1 DUP2 PUSH0 BYTE SWAP1 MSTORE8 POP DUP1 DUP1 PUSH1 0x1 ADD SWAP2 POP POP PUSH2 0x1171 JUMP JUMPDEST POP PUSH2 0x1377 JUMP JUMPDEST PUSH1 0x4 DUP5 SUB PUSH2 0x12EF JUMPI PUSH32 0x5800000000000000000000000000000000000000000000000000000000000000 DUP3 DUP3 DUP1 PUSH2 0x123B SWAP1 PUSH2 0x2177 JUMP JUMPDEST SWAP4 POP DUP2 MLOAD DUP2 LT PUSH2 0x124E JUMPI PUSH2 0x124D PUSH2 0x20EA JUMP JUMPDEST JUMPDEST PUSH1 0x20 ADD ADD SWAP1 PUSH31 0xFFFFFFFFFFFFFFFFFFFFFFFFFFFFFFFFFFFFFFFFFFFFFFFFFFFFFFFFFFFFFF NOT AND SWAP1 DUP2 PUSH0 BYTE SWAP1 MSTORE8 POP PUSH32 0x4C00000000000000000000000000000000000000000000000000000000000000 DUP3 DUP3 DUP1 PUSH2 0x12A9 SWAP1 PUSH2 0x2177 JUMP JUMPDEST SWAP4 POP DUP2 MLOAD DUP2 LT PUSH2 0x12BC JUMPI PUSH2 0x12BB PUSH2 0x20EA JUMP JUMPDEST JUMPDEST PUSH1 0x20 ADD ADD SWAP1 PUSH31 0xFFFFFFFFFFFFFFFFFFFFFFFFFFFFFFFFFFFFFFFFFFFFFFFFFFFFFFFFFFFFFF NOT AND SWAP1 DUP2 PUSH0 BYTE SWAP1 MSTORE8 POP PUSH2 0x1376 JUMP JUMPDEST PUSH0 JUMPDEST DUP5 DUP2 LT ISZERO PUSH2 0x1374 JUMPI PUSH32 0x5800000000000000000000000000000000000000000000000000000000000000 DUP4 DUP4 DUP1 PUSH2 0x1326 SWAP1 PUSH2 0x2177 JUMP JUMPDEST SWAP5 POP DUP2 MLOAD DUP2 LT PUSH2 0x1339 JUMPI PUSH2 0x1338 PUSH2 0x20EA JUMP JUMPDEST JUMPDEST PUSH1 0x20 ADD ADD SWAP1 PUSH31 0xFFFFFFFFFFFFFFFFFFFFFFFFFFFFFFFFFFFFFFFFFFFFFFFFFFFFFFFFFFFFFF NOT AND SWAP1 DUP2 PUSH0 BYTE SWAP1 MSTORE8 POP DUP1 DUP1 PUSH1 0x1 ADD SWAP2 POP POP PUSH2 0x12F1 JUMP JUMPDEST POP JUMPDEST JUMPDEST JUMPDEST JUMPDEST PUSH0 DUP4 GT ISZERO PUSH2 0x16EA JUMPI PUSH1 0x9 DUP4 SUB PUSH2 0x146A JUMPI PUSH32 0x4900000000000000000000000000000000000000000000000000000000000000 DUP3 DUP3 DUP1 PUSH2 0x13B6 SWAP1 PUSH2 0x2177 JUMP JUMPDEST SWAP4 POP DUP2 MLOAD DUP2 LT PUSH2 0x13C9 JUMPI PUSH2 0x13C8 PUSH2 0x20EA JUMP JUMPDEST JUMPDEST PUSH1 0x20 ADD ADD SWAP1 PUSH31 0xFFFFFFFFFFFFFFFFFFFFFFFFFFFFFFFFFFFFFFFFFFFFFFFFFFFFFFFFFFFFFF NOT AND SWAP1 DUP2 PUSH0 BYTE SWAP1 MSTORE8 POP PUSH32 0x5800000000000000000000000000000000000000000000000000000000000000 DUP3 DUP3 DUP1 PUSH2 0x1424 SWAP1 PUSH2 0x2177 JUMP JUMPDEST SWAP4 POP DUP2 MLOAD DUP2 LT PUSH2 0x1437 JUMPI PUSH2 0x1436 PUSH2 0x20EA JUMP JUMPDEST JUMPDEST PUSH1 0x20 ADD ADD SWAP1 PUSH31 0xFFFFFFFFFFFFFFFFFFFFFFFFFFFFFFFFFFFFFFFFFFFFFFFFFFFFFFFFFFFFFF NOT AND SWAP1 DUP2 PUSH0 BYTE SWAP1 MSTORE8 POP PUSH2 0x16E9 JUMP JUMPDEST PUSH1 0x5 DUP4 LT PUSH2 0x1577 JUMPI PUSH32 0x5600000000000000000000000000000000000000000000000000000000000000 DUP3 DUP3 DUP1 PUSH2 0x149F SWAP1 PUSH2 0x2177 JUMP JUMPDEST SWAP4 POP DUP2 MLOAD DUP2 LT PUSH2 0x14B2 JUMPI PUSH2 0x14B1 PUSH2 0x20EA JUMP JUMPDEST JUMPDEST PUSH1 0x20 ADD ADD SWAP1 PUSH31 0xFFFFFFFFFFFFFFFFFFFFFFFFFFFFFFFFFFFFFFFFFFFFFFFFFFFFFFFFFFFFFF NOT AND SWAP1 DUP2 PUSH0 BYTE SWAP1 MSTORE8 POP PUSH0 JUMPDEST PUSH1 0x5 DUP5 PUSH2 0x14EF SWAP2 SWAP1 PUSH2 0x22C4 JUMP JUMPDEST DUP2 LT ISZERO PUSH2 0x1571 JUMPI PUSH32 0x4900000000000000000000000000000000000000000000000000000000000000 DUP4 DUP4 DUP1 PUSH2 0x1523 SWAP1 PUSH2 0x2177 JUMP JUMPDEST SWAP5 POP DUP2 MLOAD DUP2 LT PUSH2 0x1536 JUMPI PUSH2 0x1535 PUSH2 0x20EA JUMP JUMPDEST JUMPDEST PUSH1 0x20 ADD ADD SWAP1 PUSH31 0xFFFFFFFFFFFFFFFFFFFFFFFFFFFFFFFFFFFFFFFFFFFFFFFFFFFFFFFFFFFFFF NOT AND SWAP1 DUP2 PUSH0 BYTE SWAP1 MSTORE8 POP DUP1 DUP1 PUSH1 0x1 ADD SWAP2 POP POP PUSH2 0x14E2 JUMP JUMPDEST POP PUSH2 0x16E8 JUMP JUMPDEST PUSH1 0x4 DUP4 SUB PUSH2 0x1660 JUMPI PUSH32 0x4900000000000000000000000000000000000000000000000000000000000000 DUP3 DUP3 DUP1 PUSH2 0x15AC SWAP1 PUSH2 0x2177 JUMP JUMPDEST SWAP4 POP DUP2 MLOAD DUP2 LT PUSH2 0x15BF JUMPI PUSH2 0x15BE PUSH2 0x20EA JUMP JUMPDEST JUMPDEST PUSH1 0x20 ADD ADD SWAP1 PUSH31 0xFFFFFFFFFFFFFFFFFFFFFFFFFFFFFFFFFFFFFFFFFFFFFFFFFFFFFFFFFFFFFF NOT AND SWAP1 DUP2 PUSH0 BYTE SWAP1 MSTORE8 POP PUSH32 0x5600000000000000000000000000000000000000000000000000000000000000 DUP3 DUP3 DUP1 PUSH2 0x161A SWAP1 PUSH2 0x2177 JUMP JUMPDEST SWAP4 POP DUP2 MLOAD DUP2 LT PUSH2 0x162D JUMPI PUSH2 0x162C PUSH2 0x20EA JUMP JUMPDEST JUMPDEST PUSH1 0x20 ADD ADD SWAP1 PUSH31 0xFFFFFFFFFFFFFFFFFFFFFFFFFFFFFFFFFFFFFFFFFFFFFFFFFFFFFFFFFFFFFF NOT AND SWAP1 DUP2 PUSH0 BYTE SWAP1 MSTORE8 POP PUSH2 0x16E7 JUMP JUMPDEST PUSH0 JUMPDEST DUP4 DUP2 LT ISZERO PUSH2 0x16E5 JUMPI PUSH32 0x4900000000000000000000000000000000000000000000000000000000000000 DUP4 DUP4 DUP1 PUSH2 0x1697 SWAP1 PUSH2 0x2177 JUMP JUMPDEST SWAP5 POP DUP2 MLOAD DUP2 LT PUSH2 0x16AA JUMPI PUSH2 0x16A9 PUSH2 0x20EA JUMP JUMPDEST JUMPDEST PUSH1 0x20 ADD ADD SWAP1 PUSH31 0xFFFFFFFFFFFFFFFFFFFFFFFFFFFFFFFFFFFFFFFFFFFFFFFFFFFFFFFFFFFFFF NOT AND SWAP1 DUP2 PUSH0 BYTE SWAP1 MSTORE8 POP DUP1 DUP1 PUSH1 0x1 ADD SWAP2 POP POP PUSH2 0x1662 JUMP JUMPDEST POP JUMPDEST JUMPDEST JUMPDEST JUMPDEST PUSH0 DUP2 PUSH8 0xFFFFFFFFFFFFFFFF DUP2 GT ISZERO PUSH2 0x1705 JUMPI PUSH2 0x1704 PUSH2 0x1C0E JUMP JUMPDEST JUMPDEST PUSH1 0x40 MLOAD SWAP1 DUP1 DUP3 MSTORE DUP1 PUSH1 0x1F ADD PUSH1 0x1F NOT AND PUSH1 0x20 ADD DUP3 ADD PUSH1 0x40 MSTORE DUP1 ISZERO PUSH2 0x1737 JUMPI DUP2 PUSH1 0x20 ADD PUSH1 0x1 DUP3 MUL DUP1 CALLDATASIZE DUP4 CALLDATACOPY DUP1 DUP3 ADD SWAP2 POP POP SWAP1 POP JUMPDEST POP SWAP1 POP PUSH0 JUMPDEST DUP3 DUP2 LT ISZERO PUSH2 0x17B0 JUMPI DUP4 DUP2 DUP2 MLOAD DUP2 LT PUSH2 0x1757 JUMPI PUSH2 0x1756 PUSH2 0x20EA JUMP JUMPDEST JUMPDEST PUSH1 0x20 ADD ADD MLOAD PUSH1 0xF8 SHR PUSH1 0xF8 SHL DUP3 DUP3 DUP2 MLOAD DUP2 LT PUSH2 0x1775 JUMPI PUSH2 0x1774 PUSH2 0x20EA JUMP JUMPDEST JUMPDEST PUSH1 0x20 ADD ADD SWAP1 PUSH31 0xFFFFFFFFFFFFFFFFFFFFFFFFFFFFFFFFFFFFFFFFFFFFFFFFFFFFFFFFFFFFFF NOT AND SWAP1 DUP2 PUSH0 BYTE SWAP1 MSTORE8 POP DUP1 DUP1 PUSH1 0x1 ADD SWAP2 POP POP PUSH2 0x173C JUMP JUMPDEST POP DUP1 SWAP8 POP POP POP POP POP POP POP POP SWAP2 SWAP1 POP JUMP JUMPDEST PUSH1 0x60 PUSH0 DUP3 SWAP1 POP PUSH0 JUMPDEST PUSH1 0x2 DUP3 MLOAD PUSH2 0x17D6 SWAP2 SWAP1 PUSH2 0x2253 JUMP JUMPDEST DUP2 LT ISZERO PUSH2 0x18D4 JUMPI DUP2 PUSH1 0x1 DUP3 DUP5 MLOAD PUSH2 0x17ED SWAP2 SWAP1 PUSH2 0x22C4 JUMP JUMPDEST PUSH2 0x17F7 SWAP2 SWAP1 PUSH2 0x22C4 JUMP JUMPDEST DUP2 MLOAD DUP2 LT PUSH2 0x1808 JUMPI PUSH2 0x1807 PUSH2 0x20EA JUMP JUMPDEST JUMPDEST PUSH1 0x20 ADD ADD MLOAD PUSH1 0xF8 SHR PUSH1 0xF8 SHL DUP3 DUP3 DUP2 MLOAD DUP2 LT PUSH2 0x1826 JUMPI PUSH2 0x1825 PUSH2 0x20EA JUMP JUMPDEST JUMPDEST PUSH1 0x20 ADD ADD MLOAD PUSH1 0xF8 SHR PUSH1 0xF8 SHL DUP4 DUP4 DUP2 MLOAD DUP2 LT PUSH2 0x1844 JUMPI PUSH2 0x1843 PUSH2 0x20EA JUMP JUMPDEST JUMPDEST PUSH1 0x20 ADD ADD DUP5 PUSH1 0x1 DUP6 DUP8 MLOAD PUSH2 0x1858 SWAP2 SWAP1 PUSH2 0x22C4 JUMP JUMPDEST PUSH2 0x1862 SWAP2 SWAP1 PUSH2 0x22C4 JUMP JUMPDEST DUP2 MLOAD DUP2 LT PUSH2 0x1873 JUMPI PUSH2 0x1872 PUSH2 0x20EA JUMP JUMPDEST JUMPDEST PUSH1 0x20 ADD ADD DUP3 PUSH31 0xFFFFFFFFFFFFFFFFFFFFFFFFFFFFFFFFFFFFFFFFFFFFFFFFFFFFFFFFFFFFFF NOT AND PUSH0 BYTE SWAP1 MSTORE8 DUP3 PUSH31 0xFFFFFFFFFFFFFFFFFFFFFFFFFFFFFFFFFFFFFFFFFFFFFFFFFFFFFFFFFFFFFF NOT AND PUSH0 BYTE SWAP1 MSTORE8 POP POP DUP1 DUP1 PUSH1 0x1 ADD SWAP2 POP POP PUSH2 0x17C8 JUMP JUMPDEST POP DUP1 SWAP2 POP POP SWAP2 SWAP1 POP JUMP JUMPDEST PUSH0 DUP1 PUSH0 SWAP1 POP PUSH0 PUSH1 0x1 DUP6 MLOAD PUSH2 0x18F2 SWAP2 SWAP1 PUSH2 0x22C4 JUMP JUMPDEST SWAP1 POP PUSH0 PUSH1 0x2 DUP3 DUP5 PUSH2 0x1903 SWAP2 SWAP1 PUSH2 0x2144 JUMP JUMPDEST PUSH2 0x190D SWAP2 SWAP1 PUSH2 0x2253 JUMP JUMPDEST SWAP1 POP JUMPDEST DUP3 DUP2 LT PUSH2 0x19A8 JUMPI DUP5 DUP7 DUP3 DUP2 MLOAD DUP2 LT PUSH2 0x192B JUMPI PUSH2 0x192A PUSH2 0x20EA JUMP JUMPDEST JUMPDEST PUSH1 0x20 MUL PUSH1 0x20 ADD ADD MLOAD SUB PUSH2 0x1943 JUMPI DUP1 SWAP4 POP POP POP POP PUSH2 0x19AF JUMP JUMPDEST DUP5 DUP7 DUP3 DUP2 MLOAD DUP2 LT PUSH2 0x1957 JUMPI PUSH2 0x1956 PUSH2 0x20EA JUMP JUMPDEST JUMPDEST PUSH1 0x20 MUL PUSH1 0x20 ADD ADD MLOAD LT ISZERO PUSH2 0x1979 JUMPI PUSH1 0x1 DUP2 PUSH2 0x1972 SWAP2 SWAP1 PUSH2 0x2144 JUMP JUMPDEST SWAP3 POP PUSH2 0x1989 JUMP JUMPDEST PUSH1 0x1 DUP2 PUSH2 0x1986 SWAP2 SWAP1 PUSH2 0x22C4 JUMP JUMPDEST SWAP2 POP JUMPDEST PUSH1 0x2 DUP3 DUP5 PUSH2 0x1997 SWAP2 SWAP1 PUSH2 0x2144 JUMP JUMPDEST PUSH2 0x19A1 SWAP2 SWAP1 PUSH2 0x2253 JUMP JUMPDEST SWAP1 POP PUSH2 0x1910 JUMP JUMPDEST POP PUSH0 SWAP3 POP POP POP JUMPDEST SWAP3 SWAP2 POP POP JUMP JUMPDEST PUSH1 0x60 PUSH0 DUP3 MLOAD DUP5 MLOAD PUSH2 0x19C6 SWAP2 SWAP1 PUSH2 0x2144 JUMP JUMPDEST PUSH8 0xFFFFFFFFFFFFFFFF DUP2 GT ISZERO PUSH2 0x19DF JUMPI PUSH2 0x19DE PUSH2 0x1C0E JUMP JUMPDEST JUMPDEST PUSH1 0x40 MLOAD SWAP1 DUP1 DUP3 MSTORE DUP1 PUSH1 0x20 MUL PUSH1 0x20 ADD DUP3 ADD PUSH1 0x40 MSTORE DUP1 ISZERO PUSH2 0x1A0D JUMPI DUP2 PUSH1 0x20 ADD PUSH1 0x20 DUP3 MUL DUP1 CALLDATASIZE DUP4 CALLDATACOPY DUP1 DUP3 ADD SWAP2 POP POP SWAP1 POP JUMPDEST POP SWAP1 POP PUSH0 DUP1 PUSH0 JUMPDEST DUP7 MLOAD DUP4 LT DUP1 ISZERO PUSH2 0x1A24 JUMPI POP DUP6 MLOAD DUP3 LT JUMPDEST ISZERO PUSH2 0x1B0E JUMPI DUP6 DUP3 DUP2 MLOAD DUP2 LT PUSH2 0x1A3C JUMPI PUSH2 0x1A3B PUSH2 0x20EA JUMP JUMPDEST JUMPDEST PUSH1 0x20 MUL PUSH1 0x20 ADD ADD MLOAD DUP8 DUP5 DUP2 MLOAD DUP2 LT PUSH2 0x1A57 JUMPI PUSH2 0x1A56 PUSH2 0x20EA JUMP JUMPDEST JUMPDEST PUSH1 0x20 MUL PUSH1 0x20 ADD ADD MLOAD LT ISZERO PUSH2 0x1AB2 JUMPI DUP7 DUP4 DUP2 MLOAD DUP2 LT PUSH2 0x1A78 JUMPI PUSH2 0x1A77 PUSH2 0x20EA JUMP JUMPDEST JUMPDEST PUSH1 0x20 MUL PUSH1 0x20 ADD ADD MLOAD DUP5 DUP3 DUP2 MLOAD DUP2 LT PUSH2 0x1A93 JUMPI PUSH2 0x1A92 PUSH2 0x20EA JUMP JUMPDEST JUMPDEST PUSH1 0x20 MUL PUSH1 0x20 ADD ADD DUP2 DUP2 MSTORE POP POP DUP3 DUP1 PUSH2 0x1AAA SWAP1 PUSH2 0x2177 JUMP JUMPDEST SWAP4 POP POP PUSH2 0x1AFB JUMP JUMPDEST DUP6 DUP3 DUP2 MLOAD DUP2 LT PUSH2 0x1AC5 JUMPI PUSH2 0x1AC4 PUSH2 0x20EA JUMP JUMPDEST JUMPDEST PUSH1 0x20 MUL PUSH1 0x20 ADD ADD MLOAD DUP5 DUP3 DUP2 MLOAD DUP2 LT PUSH2 0x1AE0 JUMPI PUSH2 0x1ADF PUSH2 0x20EA JUMP JUMPDEST JUMPDEST PUSH1 0x20 MUL PUSH1 0x20 ADD ADD DUP2 DUP2 MSTORE POP POP DUP2 DUP1 PUSH2 0x1AF7 SWAP1 PUSH2 0x2177 JUMP JUMPDEST SWAP3 POP POP JUMPDEST DUP1 DUP1 PUSH2 0x1B06 SWAP1 PUSH2 0x2177 JUMP JUMPDEST SWAP2 POP POP PUSH2 0x1A14 JUMP JUMPDEST JUMPDEST DUP7 MLOAD DUP4 LT ISZERO PUSH2 0x1B73 JUMPI DUP7 DUP4 DUP2 MLOAD DUP2 LT PUSH2 0x1B2B JUMPI PUSH2 0x1B2A PUSH2 0x20EA JUMP JUMPDEST JUMPDEST PUSH1 0x20 MUL PUSH1 0x20 ADD ADD MLOAD DUP5 DUP3 DUP2 MLOAD DUP2 LT PUSH2 0x1B46 JUMPI PUSH2 0x1B45 PUSH2 0x20EA JUMP JUMPDEST JUMPDEST PUSH1 0x20 MUL PUSH1 0x20 ADD ADD DUP2 DUP2 MSTORE POP POP DUP3 DUP1 PUSH2 0x1B5D SWAP1 PUSH2 0x2177 JUMP JUMPDEST SWAP4 POP POP DUP1 DUP1 PUSH2 0x1B6B SWAP1 PUSH2 0x2177 JUMP JUMPDEST SWAP2 POP POP PUSH2 0x1B0F JUMP JUMPDEST JUMPDEST DUP6 MLOAD DUP3 LT ISZERO PUSH2 0x1BD8 JUMPI DUP6 DUP3 DUP2 MLOAD DUP2 LT PUSH2 0x1B90 JUMPI PUSH2 0x1B8F PUSH2 0x20EA JUMP JUMPDEST JUMPDEST PUSH1 0x20 MUL PUSH1 0x20 ADD ADD MLOAD DUP5 DUP3 DUP2 MLOAD DUP2 LT PUSH2 0x1BAB JUMPI PUSH2 0x1BAA PUSH2 0x20EA JUMP JUMPDEST JUMPDEST PUSH1 0x20 MUL PUSH1 0x20 ADD ADD DUP2 DUP2 MSTORE POP POP DUP2 DUP1 PUSH2 0x1BC2 SWAP1 PUSH2 0x2177 JUMP JUMPDEST SWAP3 POP POP DUP1 DUP1 PUSH2 0x1BD0 SWAP1 PUSH2 0x2177 JUMP JUMPDEST SWAP2 POP POP PUSH2 0x1B74 JUMP JUMPDEST DUP4 SWAP5 POP POP POP POP POP SWAP3 SWAP2 POP POP JUMP JUMPDEST PUSH0 PUSH1 0x40 MLOAD SWAP1 POP SWAP1 JUMP JUMPDEST PUSH0 DUP1 REVERT JUMPDEST PUSH0 DUP1 REVERT JUMPDEST PUSH0 DUP1 REVERT JUMPDEST PUSH0 DUP1 REVERT JUMPDEST PUSH0 PUSH1 0x1F NOT PUSH1 0x1F DUP4 ADD AND SWAP1 POP SWAP2 SWAP1 POP JUMP JUMPDEST PUSH32 0x4E487B7100000000000000000000000000000000000000000000000000000000 PUSH0 MSTORE PUSH1 0x41 PUSH1 0x4 MSTORE PUSH1 0x24 PUSH0 REVERT JUMPDEST PUSH2 0x1C44 DUP3 PUSH2 0x1BFE JUMP JUMPDEST DUP2 ADD DUP2 DUP2 LT PUSH8 0xFFFFFFFFFFFFFFFF DUP3 GT OR ISZERO PUSH2 0x1C63 JUMPI PUSH2 0x1C62 PUSH2 0x1C0E JUMP JUMPDEST JUMPDEST DUP1 PUSH1 0x40 MSTORE POP POP POP JUMP JUMPDEST PUSH0 PUSH2 0x1C75 PUSH2 0x1BE5 JUMP JUMPDEST SWAP1 POP PUSH2 0x1C81 DUP3 DUP3 PUSH2 0x1C3B JUMP JUMPDEST SWAP2 SWAP1 POP JUMP JUMPDEST PUSH0 PUSH8 0xFFFFFFFFFFFFFFFF DUP3 GT ISZERO PUSH2 0x1CA0 JUMPI PUSH2 0x1C9F PUSH2 0x1C0E JUMP JUMPDEST JUMPDEST PUSH2 0x1CA9 DUP3 PUSH2 0x1BFE JUMP JUMPDEST SWAP1 POP PUSH1 0x20 DUP2 ADD SWAP1 POP SWAP2 SWAP1 POP JUMP JUMPDEST DUP3 DUP2 DUP4 CALLDATACOPY PUSH0 DUP4 DUP4 ADD MSTORE POP POP POP JUMP JUMPDEST PUSH0 PUSH2 0x1CD6 PUSH2 0x1CD1 DUP5 PUSH2 0x1C86 JUMP JUMPDEST PUSH2 0x1C6C JUMP JUMPDEST SWAP1 POP DUP3 DUP2 MSTORE PUSH1 0x20 DUP2 ADD DUP5 DUP5 DUP5 ADD GT ISZERO PUSH2 0x1CF2 JUMPI PUSH2 0x1CF1 PUSH2 0x1BFA JUMP JUMPDEST JUMPDEST PUSH2 0x1CFD DUP5 DUP3 DUP6 PUSH2 0x1CB6 JUMP JUMPDEST POP SWAP4 SWAP3 POP POP POP JUMP JUMPDEST PUSH0 DUP3 PUSH1 0x1F DUP4 ADD SLT PUSH2 0x1D19 JUMPI PUSH2 0x1D18 PUSH2 0x1BF6 JUMP JUMPDEST JUMPDEST DUP2 CALLDATALOAD PUSH2 0x1D29 DUP5 DUP3 PUSH1 0x20 DUP7 ADD PUSH2 0x1CC4 JUMP JUMPDEST SWAP2 POP POP SWAP3 SWAP2 POP POP JUMP JUMPDEST PUSH0 PUSH1 0x20 DUP3 DUP5 SUB SLT ISZERO PUSH2 0x1D47 JUMPI PUSH2 0x1D46 PUSH2 0x1BEE JUMP JUMPDEST JUMPDEST PUSH0 DUP3 ADD CALLDATALOAD PUSH8 0xFFFFFFFFFFFFFFFF DUP2 GT ISZERO PUSH2 0x1D64 JUMPI PUSH2 0x1D63 PUSH2 0x1BF2 JUMP JUMPDEST JUMPDEST PUSH2 0x1D70 DUP5 DUP3 DUP6 ADD PUSH2 0x1D05 JUMP JUMPDEST SWAP2 POP POP SWAP3 SWAP2 POP POP JUMP JUMPDEST PUSH0 DUP2 SWAP1 POP SWAP2 SWAP1 POP JUMP JUMPDEST PUSH2 0x1D8B DUP2 PUSH2 0x1D79 JUMP JUMPDEST DUP3 MSTORE POP POP JUMP JUMPDEST PUSH0 PUSH1 0x20 DUP3 ADD SWAP1 POP PUSH2 0x1DA4 PUSH0 DUP4 ADD DUP5 PUSH2 0x1D82 JUMP JUMPDEST SWAP3 SWAP2 POP POP JUMP JUMPDEST PUSH2 0x1DB3 DUP2 PUSH2 0x1D79 JUMP JUMPDEST DUP2 EQ PUSH2 0x1DBD JUMPI PUSH0 DUP1 REVERT JUMPDEST POP JUMP JUMPDEST PUSH0 DUP2 CALLDATALOAD SWAP1 POP PUSH2 0x1DCE DUP2 PUSH2 0x1DAA JUMP JUMPDEST SWAP3 SWAP2 POP POP JUMP JUMPDEST PUSH0 PUSH1 0x20 DUP3 DUP5 SUB SLT ISZERO PUSH2 0x1DE9 JUMPI PUSH2 0x1DE8 PUSH2 0x1BEE JUMP JUMPDEST JUMPDEST PUSH0 PUSH2 0x1DF6 DUP5 DUP3 DUP6 ADD PUSH2 0x1DC0 JUMP JUMPDEST SWAP2 POP POP SWAP3 SWAP2 POP POP JUMP JUMPDEST PUSH0 DUP2 MLOAD SWAP1 POP SWAP2 SWAP1 POP JUMP JUMPDEST PUSH0 DUP3 DUP3 MSTORE PUSH1 0x20 DUP3 ADD SWAP1 POP SWAP3 SWAP2 POP POP JUMP JUMPDEST DUP3 DUP2 DUP4 MCOPY PUSH0 DUP4 DUP4 ADD MSTORE POP POP POP JUMP JUMPDEST PUSH0 PUSH2 0x1E31 DUP3 PUSH2 0x1DFF JUMP JUMPDEST PUSH2 0x1E3B DUP2 DUP6 PUSH2 0x1E09 JUMP JUMPDEST SWAP4 POP PUSH2 0x1E4B DUP2 DUP6 PUSH1 0x20 DUP7 ADD PUSH2 0x1E19 JUMP JUMPDEST PUSH2 0x1E54 DUP2 PUSH2 0x1BFE JUMP JUMPDEST DUP5 ADD SWAP2 POP POP SWAP3 SWAP2 POP POP JUMP JUMPDEST PUSH0 PUSH1 0x20 DUP3 ADD SWAP1 POP DUP2 DUP2 SUB PUSH0 DUP4 ADD MSTORE PUSH2 0x1E77 DUP2 DUP5 PUSH2 0x1E27 JUMP JUMPDEST SWAP1 POP SWAP3 SWAP2 POP POP JUMP JUMPDEST PUSH0 PUSH8 0xFFFFFFFFFFFFFFFF DUP3 GT ISZERO PUSH2 0x1E99 JUMPI PUSH2 0x1E98 PUSH2 0x1C0E JUMP JUMPDEST JUMPDEST PUSH1 0x20 DUP3 MUL SWAP1 POP PUSH1 0x20 DUP2 ADD SWAP1 POP SWAP2 SWAP1 POP JUMP JUMPDEST PUSH0 DUP1 REVERT JUMPDEST PUSH0 PUSH2 0x1EC0 PUSH2 0x1EBB DUP5 PUSH2 0x1E7F JUMP JUMPDEST PUSH2 0x1C6C JUMP JUMPDEST SWAP1 POP DUP1 DUP4 DUP3 MSTORE PUSH1 0x20 DUP3 ADD SWAP1 POP PUSH1 0x20 DUP5 MUL DUP4 ADD DUP6 DUP2 GT ISZERO PUSH2 0x1EE3 JUMPI PUSH2 0x1EE2 PUSH2 0x1EAA JUMP JUMPDEST JUMPDEST DUP4 JUMPDEST DUP2 DUP2 LT ISZERO PUSH2 0x1F0C JUMPI DUP1 PUSH2 0x1EF8 DUP9 DUP3 PUSH2 0x1DC0 JUMP JUMPDEST DUP5 MSTORE PUSH1 0x20 DUP5 ADD SWAP4 POP POP PUSH1 0x20 DUP2 ADD SWAP1 POP PUSH2 0x1EE5 JUMP JUMPDEST POP POP POP SWAP4 SWAP3 POP POP POP JUMP JUMPDEST PUSH0 DUP3 PUSH1 0x1F DUP4 ADD SLT PUSH2 0x1F2A JUMPI PUSH2 0x1F29 PUSH2 0x1BF6 JUMP JUMPDEST JUMPDEST DUP2 CALLDATALOAD PUSH2 0x1F3A DUP5 DUP3 PUSH1 0x20 DUP7 ADD PUSH2 0x1EAE JUMP JUMPDEST SWAP2 POP POP SWAP3 SWAP2 POP POP JUMP JUMPDEST PUSH0 DUP1 PUSH1 0x40 DUP4 DUP6 SUB SLT ISZERO PUSH2 0x1F59 JUMPI PUSH2 0x1F58 PUSH2 0x1BEE JUMP JUMPDEST JUMPDEST PUSH0 DUP4 ADD CALLDATALOAD PUSH8 0xFFFFFFFFFFFFFFFF DUP2 GT ISZERO PUSH2 0x1F76 JUMPI PUSH2 0x1F75 PUSH2 0x1BF2 JUMP JUMPDEST JUMPDEST PUSH2 0x1F82 DUP6 DUP3 DUP7 ADD PUSH2 0x1F16 JUMP JUMPDEST SWAP3 POP POP PUSH1 0x20 PUSH2 0x1F93 DUP6 DUP3 DUP7 ADD PUSH2 0x1DC0 JUMP JUMPDEST SWAP2 POP POP SWAP3 POP SWAP3 SWAP1 POP JUMP JUMPDEST PUSH0 DUP1 PUSH1 0x40 DUP4 DUP6 SUB SLT ISZERO PUSH2 0x1FB3 JUMPI PUSH2 0x1FB2 PUSH2 0x1BEE JUMP JUMPDEST JUMPDEST PUSH0 DUP4 ADD CALLDATALOAD PUSH8 0xFFFFFFFFFFFFFFFF DUP2 GT ISZERO PUSH2 0x1FD0 JUMPI PUSH2 0x1FCF PUSH2 0x1BF2 JUMP JUMPDEST JUMPDEST PUSH2 0x1FDC DUP6 DUP3 DUP7 ADD PUSH2 0x1F16 JUMP JUMPDEST SWAP3 POP POP PUSH1 0x20 DUP4 ADD CALLDATALOAD PUSH8 0xFFFFFFFFFFFFFFFF DUP2 GT ISZERO PUSH2 0x1FFD JUMPI PUSH2 0x1FFC PUSH2 0x1BF2 JUMP JUMPDEST JUMPDEST PUSH2 0x2009 DUP6 DUP3 DUP7 ADD PUSH2 0x1F16 JUMP JUMPDEST SWAP2 POP POP SWAP3 POP SWAP3 SWAP1 POP JUMP JUMPDEST PUSH0 DUP2 MLOAD SWAP1 POP SWAP2 SWAP1 POP JUMP JUMPDEST PUSH0 DUP3 DUP3 MSTORE PUSH1 0x20 DUP3 ADD SWAP1 POP SWAP3 SWAP2 POP POP JUMP JUMPDEST PUSH0 DUP2 SWAP1 POP PUSH1 0x20 DUP3 ADD SWAP1 POP SWAP2 SWAP1 POP JUMP JUMPDEST PUSH2 0x2045 DUP2 PUSH2 0x1D79 JUMP JUMPDEST DUP3 MSTORE POP POP JUMP JUMPDEST PUSH0 PUSH2 0x2056 DUP4 DUP4 PUSH2 0x203C JUMP JUMPDEST PUSH1 0x20 DUP4 ADD SWAP1 POP SWAP3 SWAP2 POP POP JUMP JUMPDEST PUSH0 PUSH1 0x20 DUP3 ADD SWAP1 POP SWAP2 SWAP1 POP JUMP JUMPDEST PUSH0 PUSH2 0x2078 DUP3 PUSH2 0x2013 JUMP JUMPDEST PUSH2 0x2082 DUP2 DUP6 PUSH2 0x201D JUMP JUMPDEST SWAP4 POP PUSH2 0x208D DUP4 PUSH2 0x202D JUMP JUMPDEST DUP1 PUSH0 JUMPDEST DUP4 DUP2 LT ISZERO PUSH2 0x20BD JUMPI DUP2 MLOAD PUSH2 0x20A4 DUP9 DUP3 PUSH2 0x204B JUMP JUMPDEST SWAP8 POP PUSH2 0x20AF DUP4 PUSH2 0x2062 JUMP JUMPDEST SWAP3 POP POP PUSH1 0x1 DUP2 ADD SWAP1 POP PUSH2 0x2090 JUMP JUMPDEST POP DUP6 SWAP4 POP POP POP POP SWAP3 SWAP2 POP POP JUMP JUMPDEST PUSH0 PUSH1 0x20 DUP3 ADD SWAP1 POP DUP2 DUP2 SUB PUSH0 DUP4 ADD MSTORE PUSH2 0x20E2 DUP2 DUP5 PUSH2 0x206E JUMP JUMPDEST SWAP1 POP SWAP3 SWAP2 POP POP JUMP JUMPDEST PUSH32 0x4E487B7100000000000000000000000000000000000000000000000000000000 PUSH0 MSTORE PUSH1 0x32 PUSH1 0x4 MSTORE PUSH1 0x24 PUSH0 REVERT JUMPDEST PUSH32 0x4E487B7100000000000000000000000000000000000000000000000000000000 PUSH0 MSTORE PUSH1 0x11 PUSH1 0x4 MSTORE PUSH1 0x24 PUSH0 REVERT JUMPDEST PUSH0 PUSH2 0x214E DUP3 PUSH2 0x1D79 JUMP JUMPDEST SWAP2 POP PUSH2 0x2159 DUP4 PUSH2 0x1D79 JUMP JUMPDEST SWAP3 POP DUP3 DUP3 ADD SWAP1 POP DUP1 DUP3 GT ISZERO PUSH2 0x2171 JUMPI PUSH2 0x2170 PUSH2 0x2117 JUMP JUMPDEST JUMPDEST SWAP3 SWAP2 POP POP JUMP JUMPDEST PUSH0 PUSH2 0x2181 DUP3 PUSH2 0x1D79 JUMP JUMPDEST SWAP2 POP PUSH32 0xFFFFFFFFFFFFFFFFFFFFFFFFFFFFFFFFFFFFFFFFFFFFFFFFFFFFFFFFFFFFFFFF DUP3 SUB PUSH2 0x21B3 JUMPI PUSH2 0x21B2 PUSH2 0x2117 JUMP JUMPDEST JUMPDEST PUSH1 0x1 DUP3 ADD SWAP1 POP SWAP2 SWAP1 POP JUMP JUMPDEST PUSH32 0x496E76616C696420696E70757400000000000000000000000000000000000000 PUSH0 DUP3 ADD MSTORE POP JUMP JUMPDEST PUSH0 PUSH2 0x21F2 PUSH1 0xD DUP4 PUSH2 0x1E09 JUMP JUMPDEST SWAP2 POP PUSH2 0x21FD DUP3 PUSH2 0x21BE JUMP JUMPDEST PUSH1 0x20 DUP3 ADD SWAP1 POP SWAP2 SWAP1 POP JUMP JUMPDEST PUSH0 PUSH1 0x20 DUP3 ADD SWAP1 POP DUP2 DUP2 SUB PUSH0 DUP4 ADD MSTORE PUSH2 0x221F DUP2 PUSH2 0x21E6 JUMP JUMPDEST SWAP1 POP SWAP2 SWAP1 POP JUMP JUMPDEST PUSH32 0x4E487B7100000000000000000000000000000000000000000000000000000000 PUSH0 MSTORE PUSH1 0x12 PUSH1 0x4 MSTORE PUSH1 0x24 PUSH0 REVERT JUMPDEST PUSH0 PUSH2 0x225D DUP3 PUSH2 0x1D79 JUMP JUMPDEST SWAP2 POP PUSH2 0x2268 DUP4 PUSH2 0x1D79 JUMP JUMPDEST SWAP3 POP DUP3 PUSH2 0x2278 JUMPI PUSH2 0x2277 PUSH2 0x2226 JUMP JUMPDEST JUMPDEST DUP3 DUP3 DIV SWAP1 POP SWAP3 SWAP2 POP POP JUMP JUMPDEST PUSH0 PUSH2 0x228D DUP3 PUSH2 0x1D79 JUMP JUMPDEST SWAP2 POP PUSH2 0x2298 DUP4 PUSH2 0x1D79 JUMP JUMPDEST SWAP3 POP DUP3 DUP3 MUL PUSH2 0x22A6 DUP2 PUSH2 0x1D79 JUMP JUMPDEST SWAP2 POP DUP3 DUP3 DIV DUP5 EQ DUP4 ISZERO OR PUSH2 0x22BD JUMPI PUSH2 0x22BC PUSH2 0x2117 JUMP JUMPDEST JUMPDEST POP SWAP3 SWAP2 POP POP JUMP JUMPDEST PUSH0 PUSH2 0x22CE DUP3 PUSH2 0x1D79 JUMP JUMPDEST SWAP2 POP PUSH2 0x22D9 DUP4 PUSH2 0x1D79 JUMP JUMPDEST SWAP3 POP DUP3 DUP3 SUB SWAP1 POP DUP2 DUP2 GT ISZERO PUSH2 0x22F1 JUMPI PUSH2 0x22F0 PUSH2 0x2117 JUMP JUMPDEST JUMPDEST SWAP3 SWAP2 POP POP JUMP INVALID LOG2 PUSH5 0x6970667358 0x22 SLT KECCAK256 0x27 0xD SHR STOP 0xD2 SWAP8 PREVRANDAO 0xEF PUSH22 0x904FF9AEDACC777B2BA4E4179B26A2ADB8B75FCB18D7 0xDD PUSH5 0x736F6C6343 STOP ADDMOD BYTE STOP CALLER "
		},
		"gasEstimates": {
			"creation": {
				"codeDepositCost": "1801000",
				"executionCost": "1896",
				"totalCost": "1802896"
			},
			"external": {
				"BinarySearch(uint256[],uint256)": "infinite",
				"IntToRoma(uint256)": "infinite",
				"MergeArr(uint256[],uint256[])": "infinite",
				"RomaToInt(string)": "infinite",
				"reverseString(string)": "infinite"
			}
		},
		"methodIdentifiers": {
			"BinarySearch(uint256[],uint256)": "e35d0f99",
			"IntToRoma(uint256)": "55d278e0",
			"MergeArr(uint256[],uint256[])": "feb465d9",
			"RomaToInt(string)": "3407abd0",
			"reverseString(string)": "5729c211"
		}
	},
	"abi": [
		{
			"inputs": [
				{
					"internalType": "uint256[]",
					"name": "nums",
					"type": "uint256[]"
				},
				{
					"internalType": "uint256",
					"name": "target",
					"type": "uint256"
				}
			],
			"name": "BinarySearch",
			"outputs": [
				{
					"internalType": "uint256",
					"name": "",
					"type": "uint256"
				}
			],
			"stateMutability": "pure",
			"type": "function"
		},
		{
			"inputs": [
				{
					"internalType": "uint256",
					"name": "num",
					"type": "uint256"
				}
			],
			"name": "IntToRoma",
			"outputs": [
				{
					"internalType": "string",
					"name": "",
					"type": "string"
				}
			],
			"stateMutability": "pure",
			"type": "function"
		},
		{
			"inputs": [
				{
					"internalType": "uint256[]",
					"name": "nums1",
					"type": "uint256[]"
				},
				{
					"internalType": "uint256[]",
					"name": "nums2",
					"type": "uint256[]"
				}
			],
			"name": "MergeArr",
			"outputs": [
				{
					"internalType": "uint256[]",
					"name": "",
					"type": "uint256[]"
				}
			],
			"stateMutability": "pure",
			"type": "function"
		},
		{
			"inputs": [
				{
					"internalType": "string",
					"name": "str",
					"type": "string"
				}
			],
			"name": "RomaToInt",
			"outputs": [
				{
					"internalType": "uint256",
					"name": "",
					"type": "uint256"
				}
			],
			"stateMutability": "pure",
			"type": "function"
		},
		{
			"inputs": [
				{
					"internalType": "string",
					"name": "str",
					"type": "string"
				}
			],
			"name": "reverseString",
			"outputs": [
				{
					"internalType": "string",
					"name": "",
					"type": "string"
				}
			],
			"stateMutability": "pure",
			"type": "function"
		}
	]
}